AZANH24 ZANDER GP940 V1.25
HFDTE020710
HFFXA050
HFPLT Pilot             :Per Carlin/Camilla Blomberg/Carl Carlin 
HFGTY Glider type       :LS1-f                                   
HFGID Glider ID         :SE-TPP    
HFDTM100 GPS Datum      :WGS84
HFRFW Firmware Version  :1.25
HFRHW Hardware version  :A
HFFTY FR Type           :ZANDER GP940
HFGPS                   :Motorola,VP ONCORE,8,30000
HFPRS Press Alt Sensor  :Motorola,MPX100A,10000
HFCCL Competition Class :Clubb                                   
HFCID Competition ID    :G7        
I023638IAS3941ENL
J020810WDI1113WVE
LZAN 081817 PowerOn
C190610085558190610000103
C5923750N01554683E FL NORTH    
C5925550N01549666E ECHO        
C5946300N01523133E GAMMELBO    
C5952050N01602916E VIRSBO      
C6005283N01505800E LUDVIKA     
C5925733N01552883E FTPN        
C5923750N01554683E FL NORTH    
B0818215944775N01708575EV-001700000023000
B0818255944775N01708575EV-001700000022000
B0818295944775N01708575EV-001800000023000
B0818335944775N01708575EV-001800000023000
B0818375944775N01708575EV-001800000023000
B0818415944775N01708575EV-001900000022000
B0818455944775N01708575EV-002000000022000
B0818495944775N01708575EV-001900000022000
B0818535944775N01708575EV-001900000022000
B0818575944775N01708575EV-001900000022000
B0819015944775N01708575EV-001900000022000
B0819055944775N01708575EV-002000000022000
B0819095923433N01555187EA-002000016022000
B0819135923433N01555187EA-002000016022000
B0819175923433N01555187EA-002000016007000
B0819215923433N01555187EA-002000016007000
B0819255923433N01555187EA-002000016007000
B0819295923433N01555187EA-002100016007000
B0819335923433N01555187EA-002000016007000
B0819375923433N01555187EA-002000016007000
B0819415923433N01555187EA-002000016007000
B0819455923433N01555187EA-001900016007000
B0819495923433N01555187EA-002000016007000
B0819535923433N01555187EA-002000016007000
B0819575923433N01555187EA-002000016007000
B0820015923433N01555187EA-002000016000000
B0820055923433N01555187EA-002000016007000
B0820095923433N01555187EA-002000016000000
B0820135923433N01555183EA-002000016007000
B0820175923433N01555183EA-002000016000000
B0820215923433N01555183EA-002000016007000
B0820255923433N01555183EA-002000016000000
B0820295923433N01555183EA-002000016007000
B0820335923433N01555183EA-001900016000000
B0820375923433N01555183EA-002000016007000
B0820415923433N01555183EA-001900016000000
B0820455923433N01555183EA-002000016000000
B0820495923433N01555183EA-002000016000000
B0820535923433N01555183EA-002000016000000
B0820575923433N01555183EA-001900016000000
B0821015923433N01555183EA-002000016000000
B0821055923433N01555183EA-002000016000000
B0821095923433N01555183EA-001900016000000
B0821135923433N01555183EA-002000016007000
B0821175923433N01555183EA-002000016007000
B0821215923433N01555183EA-001900016000000
B0821255923433N01555183EA-001900016007000
B0821295923433N01555183EA-001900016000000
B0821335923433N01555183EA-001900016007000
B0821375923433N01555183EA-002000016000000
B0821415923433N01555183EA-002000016007000
B0821455923433N01555183EA-001900016000000
B0821495923433N01555183EA-001900016007000
B0821535923433N01555183EA-001900016000000
B0821575923433N01555183EA-001800016007000
B0822015923433N01555183EA-001800016000000
B0822055923433N01555183EA-001900016007000
B0822095923433N01555183EA-001900016000000
B0822135923433N01555183EA-001900016007000
B0822175923433N01555183EA-001900016000000
B0822215923433N01555183EA-001900016007000
B0822255923433N01555183EA-001900016000000
B0822295923433N01555183EA-001900016000000
B0822335923433N01555183EA-001900016000000
B0822375923433N01555183EA-001800016000000
B0822415923433N01555183EA-001900016000000
B0822455923433N01555183EA-001900016000000
B0822495923433N01555183EA-001900024000000
B0822535923433N01555183EA-001900016000000
B0822575923433N01555183EA-001900016000000
B0823015923433N01555183EA-001900024000000
B0823055923433N01555183EA-001900024000000
B0823095923433N01555183EA-001900016000000
B0823135923433N01555183EA-001900016000000
B0823175923433N01555187EA-001900016000000
B0823215923433N01555187EA-001900016000000
B0823255923433N01555187EA-001900016000000
B0823295923433N01555187EA-002100016000000
B0823335923433N01555187EA-002100016000000
B0823375923433N01555187EA-002000016000000
B0823415923433N01555187EA-002000016000000
B0823455923433N01555187EA-002000016000000
B0823495923433N01555187EA-002000016000000
B0823535923433N01555187EA-002100016000000
B0823575923433N01555187EA-002100016000000
B0824015923433N01555187EA-002100016000000
B0824055923433N01555187EA-002000016000000
B0824095923433N01555187EA-002000016000000
B0824135923433N01555187EA-002000016000000
B0824175923433N01555187EA-002000016000000
B0824215923433N01555187EA-002000016000000
B0824255923433N01555187EA-002000016000000
B0824295923433N01555187EA-002000016000000
B0824335923433N01555187EA-002000016000000
B0824375923433N01555187EA-002000016000000
B0824415923433N01555187EA-002000016000000
B0824455923433N01555187EA-002000016000000
B0824495923433N01555187EA-002000016000000
B0824535923433N01555187EA-002000016000000
B0824575923433N01555187EA-002000016000000
B0825015923433N01555187EA-002000016000000
B0825055923433N01555187EA-001900016000000
B0825095923433N01555187EA-001900016000000
B0825135923433N01555187EA-001800016000000
B0825175923433N01555187EA-001800016000000
B0825215923433N01555187EA-001900016000000
B0825255923433N01555187EA-001800016000000
B0825295923433N01555187EA-001900016000000
B0825335923433N01555187EA-001900016000000
B0825375923433N01555187EA-001900016000000
B0825415923433N01555187EA-001900016000000
B0825455923433N01555187EA-001900016000000
B0825495923433N01555187EA-001800016000000
B0825535923433N01555187EA-001900016000000
B0825575923433N01555187EA-001900016000000
B0826015923433N01555187EA-001900016000000
B0826055923433N01555187EA-001800016000000
B0826095923433N01555187EA-001800016000000
B0826135923433N01555187EA-001800016000000
B0826175923433N01555187EA-001800016000000
B0826215923433N01555187EA-001900016000000
B0826255923433N01555187EA-001800016000000
B0826295923433N01555187EA-001900016000000
B0826335923433N01555187EA-001900016000000
B0826375923433N01555187EA-001900016000000
B0826415923433N01555187EA-001900016000000
B0826455923433N01555187EA-001900016000000
B0826495923433N01555187EA-001800016000000
B0826535923433N01555187EA-001800016000000
B0826575923433N01555187EA-001800016000000
B0827015923433N01555187EA-001800016000000
B0827055923433N01555187EA-001800016000000
B0827095923433N01555187EA-001900016000000
B0827135923433N01555187EA-001900016000000
B0827175923433N01555187EA-001900016000000
B0827215923433N01555187EA-001900016000000
B0827255923433N01555187EA-001900016000000
B0827295923433N01555187EA-001800016000000
B0827335923433N01555187EA-001800016000000
B0827375923433N01555187EA-002000016000000
B0827415923433N01555187EA-001800016000000
B0827455923433N01555187EA-002000016000000
B0827495923433N01555187EA-002000016000000
B0827535923433N01555187EA-002000016000000
B0827575923433N01555187EA-002000016000000
B0828015923433N01555187EA-002000016000000
B0828055923433N01555187EA-002000016000000
B0828095923433N01555187EA-002000016000000
B0828135923433N01555187EA-002000016000000
B0828175923433N01555187EA-002000016000000
B0828215923433N01555187EA-001900016000000
B0828255923433N01555187EA-002000016000000
B0828295923433N01555187EA-001900016000000
B0828335923433N01555187EA-002000016000000
B0828375923433N01555187EA-001900016000000
B0828415923433N01555187EA-001900016000000
B0828455923433N01555187EA-002000016000000
B0828495923433N01555187EA-002000016000000
B0828535923433N01555187EA-002000016000000
B0828575923433N01555187EA-002000016000000
B0829015923433N01555187EA-001900016000000
B0829055923433N01555187EA-001900016000000
B0829095923433N01555187EA-002000016000000
B0829135923433N01555187EA-001900016000000
B0829175923433N01555187EA-001900016000000
B0829215923433N01555187EA-001900016000000
B0829255923433N01555187EA-002000016000000
B0829295923433N01555187EA-001900016000000
B0829335923433N01555187EA-001900016000000
B0829375923433N01555187EA-001800016000000
B0829415923433N01555187EA-001800016007000
B0829455923433N01555187EA-001800016007000
B0829495923433N01555187EA-001800016007000
B0829535923433N01555187EA-001900016007000
B0829575923433N01555187EA-001800016007000
B0830015923433N01555187EA-001800016007000
B0830055923433N01555187EA-001900016007000
B0830095923433N01555187EA-001800016007000
B0830135923433N01555187EA-001900016007000
B0830175923433N01555187EA-001800016007000
B0830215923433N01555187EA-001800016007000
B0830255923433N01555187EA-001800016007000
B0830295923433N01555187EA-001800016007000
B0830335923433N01555187EA-001800016007000
B0830375923433N01555187EA-001800016007000
B0830415923433N01555187EA-001800016007000
B0830455923433N01555187EA-001800016007000
B0830495923433N01555187EA-001800016000000
B0830535923433N01555187EA-001800016007000
B0830575923433N01555187EA-001800016007000
B0831015923433N01555187EA-001800016007000
B0831055923433N01555187EA-001800016000000
B0831095923433N01555187EA-001800016007000
B0831135923433N01555187EA-001800016007000
B0831175923433N01555187EA-001800016007000
B0831215923433N01555187EA-001800016007000
B0831255923433N01555187EA-001800016007000
B0831295923433N01555187EA-001700016007000
B0831335923433N01555187EA-001800016007000
B0831375923433N01555187EA-001800016007000
B0831415923433N01555187EA-001800016007000
B0831455923433N01555187EA-001800016007000
B0831495923433N01555187EA-001800016007000
B0831535923433N01555187EA-001800016007000
B0831575923433N01555187EA-001800016007000
B0832015923433N01555187EA-001800016007000
B0832055923433N01555187EA-001800016007000
B0832095923433N01555187EA-001700016000000
B0832135923433N01555187EA-001800016007000
B0832175923433N01555187EA-001800016007000
B0832215923433N01555187EA-001800016007000
B0832255923433N01555187EA-001800016007000
B0832295923433N01555187EA-001800016007000
B0832335923433N01555187EA-001800016007000
B0832375923433N01555187EA-001800016007000
B0832415923433N01555187EA-001700016007000
B0832455923433N01555187EA-001800016007000
B0832495923433N01555187EA-001800016007000
B0832535923433N01555187EA-001700016007000
B0832575923433N01555187EA-001800016007000
B0833015923433N01555187EA-001700016007000
B0833055923433N01555187EA-001800016007000
B0833095923433N01555187EA-001700016007000
B0833135923433N01555187EA-001900016007000
B0833175923433N01555187EA-001900016007000
B0833215923433N01555187EA-001900016007000
B0833255923433N01555187EA-001800016007000
B0833295923433N01555187EA-001900016000000
B0833335923433N01555187EA-001900016007000
B0833375923433N01555187EA-001800016000000
B0833415923433N01555187EA-001800016007000
B0833455923433N01555187EA-001800016000000
B0833495923433N01555187EA-001800016007000
B0833535923433N01555187EA-001800016007000
B0833575923433N01555187EA-001800016007000
B0834015923433N01555187EA-001800016007000
B0834055923433N01555187EA-001800016007000
B0834095923433N01555187EA-001800016000000
B0834135923433N01555187EA-001800016007000
B0834175923433N01555187EA-001800016007000
B0834215923433N01555187EA-001800016007000
B0834255923433N01555187EA-001800016000000
B0834295923433N01555187EA-001800016007000
B0834335923433N01555187EA-001800016000000
B0834375923433N01555187EA-001800016000000
B0834415923433N01555187EA-001800016000000
B0834455923433N01555187EA-001800016007000
B0834495923433N01555187EA-001800016000000
B0834535923437N01555187EA-001800016007000
B0834575923437N01555187EA-001800016000000
B0835015923437N01555187EA-001800016007000
B0835055923437N01555187EA-001800016000000
B0835095923437N01555187EA-001800016007000
B0835135923433N01555187EA-001800016000000
B0835175923437N01555187EA-001800016007000
B0835215923437N01555187EA-001800016000000
B0835255923437N01555187EA-001800016007000
B0835295923437N01555187EA-001700016000000
B0835335923433N01555187EA-001800016007000
B0835375923437N01555187EA-001800016000000
B0835415923437N01555187EA-001800016007000
B0835455923437N01555187EA-001800016000000
B0835495923437N01555187EA-001800016007000
B0835535923437N01555187EA-001800016000000
B0835575923437N01555187EA-001800016000000
B0836015923437N01555187EA-001800016000000
B0836055923437N01555187EA-001800016007000
B0836095923437N01555187EA-001700016000000
B0836135923437N01555187EA-001700016007000
B0836175923437N01555187EA-001700016000000
B0836215923437N01555187EA-001800016007000
B0836255923437N01555187EA-001700016000000
B0836295923437N01555187EA-001700016007000
B0836335923437N01555187EA-001800016000000
B0836375923433N01555187EA-001700016007000
B0836415923437N01555187EA-001700016000000
B0836455923437N01555187EA-001700016007000
B0836495923437N01555187EA-001800016000000
B0836535923437N01555187EA-001800016007000
B0836575923437N01555187EA-001700016000000
B0837015923437N01555187EA-001700016007000
B0837055923437N01555187EA-001700016000000
B0837095923437N01555187EA-001700016007000
B0837135923437N01555187EA-001700016000000
B0837175923437N01555187EA-001700016007000
B0837215923437N01555187EA-001700016000000
B0837255923437N01555187EA-001700016007000
B0837295923437N01555187EA-001700016000000
B0837335923437N01555187EA-001700016007000
B0837375923433N01555187EA-001600016000000
B0837415923433N01555187EA-001700016007000
B0837455923433N01555187EA-001700016000000
B0837495923433N01555187EA-001700016000000
B0837535923433N01555187EA-001700016000000
B0837575923433N01555187EA-001700016000000
B0838015923433N01555187EA-001700016000000
B0838055923433N01555187EA-001700016000000
B0838095923433N01555187EA-001700016000000
B0838135923437N01555187EA-001700016000000
B0838175923437N01555187EA-001700016000000
B0838215923433N01555187EA-001700016000000
B0838255923433N01555187EA-001700016000000
B0838295923433N01555187EA-001700016000000
B0838335923433N01555187EA-001600016000000
B0838375923433N01555187EA-001700016007000
B0838415923433N01555187EA-001700016000000
B0838455923433N01555187EA-001700016007000
B0838495923433N01555191EA-001700016000000
B0838535923433N01555191EA-001700016007000
B0838575923433N01555191EA-001700016000000
B0839015923433N01555191EA-001700016000000
B0839055923433N01555187EA-001700016000000
B0839095923433N01555187EA-001700016000000
B0839135923433N01555187EA-001700016000000
B0839175923433N01555187EA-001700016007000
B0839215923433N01555187EA-001700016000000
B0839255923433N01555187EA-001700016007000
B0839295923433N01555187EA-001700016000000
B0839335923433N01555187EA-001700016000000
B0839375923433N01555187EA-001700016000000
B0839415923433N01555187EA-001700016007000
B0839455923433N01555187EA-001700016000000
B0839495923433N01555187EA-001700016000000
B0839535923433N01555187EA-001700016000000
B0839575923433N01555187EA-001600016007000
B0840015923433N01555187EA-001700016000000
B0840055923433N01555187EA-001700016000000
B0840095923433N01555187EA-001600016000000
B0840135923433N01555187EA-001700016000000
B0840175923433N01555187EA-001700016000000
B0840215923433N01555187EA-001700016000000
B0840255923433N01555187EA-001600016000000
B0840295923433N01555187EA-001600016000000
B0840335923433N01555187EA-001700016000000
B0840375923433N01555187EA-001700016000000
B0840415923433N01555187EA-001700016000000
B0840455923433N01555187EA-001600016000000
B0840495923433N01555187EA-001600016000000
B0840535923433N01555187EA-001700016000000
B0840575923433N01555187EA-001600016000000
B0841015923433N01555187EA-001600016000000
B0841055923433N01555187EA-001700016000000
B0841095923433N01555187EA-001700016000000
B0841135923433N01555187EA-001800016000000
B0841175923433N01555187EA-001600016000000
B0841215923433N01555187EA-001800016000000
B0841255923433N01555187EA-001800016000000
B0841295923433N01555187EA-001800016000000
B0841335923433N01555187EA-001800016000000
B0841375923433N01555187EA-001800016000000
B0841415923433N01555187EA-001800016000000
B0841455923433N01555187EA-001800016000000
B0841495923433N01555187EA-001800016000000
B0841535923433N01555187EA-001800016000000
B0841575923433N01555187EA-001800016000000
B0842015923433N01555187EA-001800016000000
B0842055923433N01555187EA-001700016000000
B0842095923433N01555187EA-001800016000000
B0842135923433N01555187EA-001800016000000
B0842175923433N01555187EA-001800016000000
B0842215923433N01555187EA-001800016000000
B0842255923433N01555187EA-001800016000000
B0842295923433N01555187EA-001800016000000
B0842335923433N01555187EA-001800016000000
B0842375923433N01555187EA-001800016000000
B0842415923433N01555187EA-001800016000000
B0842455923433N01555187EA-001800016000000
B0842495923433N01555187EA-001800016000000
B0842535923433N01555187EA-001800016000000
B0842575923433N01555187EA-001800016000000
B0843015923433N01555187EA-001800016000000
B0843055923433N01555187EA-001800016000000
B0843095923433N01555187EA-001700016000000
B0843135923433N01555187EA-001800016000000
B0843175923433N01555187EA-001800016000000
B0843215923433N01555187EA-001800016000000
B0843255923433N01555187EA-001700016000000
B0843295923433N01555187EA-001700016000000
B0843335923433N01555187EA-001800016000000
B0843375923433N01555187EA-001800016000000
B0843415923433N01555187EA-001800016000000
B0843455923433N01555187EA-001800016000000
B0843495923433N01555187EA-001700016000000
B0843535923433N01555187EA-001700016000000
B0843575923433N01555187EA-001700016000000
B0844015923433N01555187EA-001800016000000
B0844055923433N01555187EA-001800016000000
B0844095923433N01555187EA-001700016000000
B0844135923433N01555187EA-001800016000000
B0844175923433N01555187EA-001700016000000
B0844215923433N01555187EA-001800016000000
B0844255923433N01555187EA-001700016000000
B0844295923433N01555187EA-001700016000000
B0844335923433N01555187EA-001700016000000
B0844375923433N01555187EA-001700016000000
B0844415923433N01555187EA-001700016000000
B0844455923433N01555187EA-001800016000000
B0844495923433N01555187EA-001700016000000
B0844535923433N01555187EA-001700016000000
B0844575923433N01555187EA-001700016000000
B0845015923433N01555187EA-001700016000000
B0845055923433N01555187EA-001800016000000
B0845095923433N01555187EA-001700016000000
B0845135923433N01555187EA-001800016000000
B0845175923433N01555187EA-001800016000000
B0845215923433N01555187EA-001700016000000
B0845255923433N01555187EA-001600016000000
B0845295923433N01555187EA-001600016000000
B0845335923433N01555187EA-001700016000000
B0845375923433N01555187EA-001700016000000
B0845415923433N01555187EA-001700016000000
B0845455923433N01555187EA-001600016000000
B0845495923433N01555187EA-001700016000000
B0845535923433N01555187EA-001600016000000
B0845575923433N01555187EA-001600016000000
B0846015923433N01555187EA-001600016000000
B0846055923433N01555187EA-001600016000000
B0846095923433N01555187EA-001600016000000
B0846135923433N01555187EA-001600016000000
B0846175923433N01555187EA-001600016000000
B0846215923433N01555187EA-001600016000000
B0846255923433N01555187EA-001700016000000
B0846295923433N01555187EA-001700016000000
B0846335923433N01555187EA-001600016000000
B0846375923433N01555187EA-001600016000000
B0846415923433N01555187EA-001600016000000
B0846455923433N01555187EA-001600016000000
B0846495923433N01555187EA-001700016000000
B0846535923433N01555187EA-001600016000000
B0846575923433N01555187EA-001600016000000
B0847015923433N01555187EA-001600016000000
B0847055923433N01555187EA-001600016000000
B0847095923433N01555187EA-001600016000000
B0847135923433N01555187EA-001700016000000
B0847175923433N01555187EA-001600016000000
B0847215923433N01555187EA-001600016000000
B0847255923433N01555187EA-001600016000000
B0847295923433N01555187EA-001600016000000
B0847335923433N01555187EA-001600016000000
B0847375923433N01555187EA-001600016000000
B0847415923433N01555187EA-001600016000000
B0847455923433N01555187EA-001600016000000
B0847495923433N01555187EA-001600016000000
B0847535923433N01555187EA-001600016000000
B0847575923433N01555187EA-001600016000000
B0848015923433N01555187EA-001600016000000
B0848055923433N01555187EA-001700016000000
B0848095923433N01555187EA-001700016000000
B0848135923433N01555187EA-001700016000000
B0848175923433N01555187EA-001700016000000
B0848215923433N01555187EA-001700016000000
B0848255923433N01555187EA-001600016000000
B0848295923433N01555187EA-001600016000000
B0848335923433N01555187EA-001700016000000
B0848375923433N01555187EA-001700016000000
B0848415923433N01555187EA-001700016000000
B0848455923433N01555187EA-001700016000000
B0848495923433N01555187EA-001700016000000
B0848535923433N01555187EA-001700016000000
B0848575923433N01555187EA-001600016000000
B0849015923433N01555187EA-001700016000000
B0849055923433N01555187EA-001700016000000
B0849095923433N01555187EA-001600016000000
B0849135923433N01555187EA-001700016000000
B0849175923433N01555187EA-001600016000000
B0849215923433N01555187EA-001700016000000
B0849255923433N01555187EA-001700016000000
B0849295923433N01555187EA-001700016000000
B0849335923433N01555187EA-001600016000000
B0849375923433N01555187EA-001600016000000
B0849415923433N01555187EA-001600016007000
B0849455923433N01555187EA-001700016000000
B0849495923433N01555187EA-001700016007000
B0849535923433N01555187EA-001700016000000
B0849575923433N01555187EA-001700016007000
B0850015923433N01555187EA-001700016000000
B0850055923433N01555187EA-001700016007000
B0850095923433N01555187EA-001700016007000
B0850135923433N01555187EA-001700016007000
B0850175923433N01555187EA-001700016000000
B0850215923433N01555187EA-001700016007000
B0850255923433N01555187EA-001700016000000
B0850295923433N01555187EA-001700016007000
B0850335923433N01555187EA-001700016007000
B0850375923433N01555187EA-001700016007000
B0850415923433N01555187EA-001700016007000
B0850455923433N01555187EA-001700016007000
B0850495923433N01555187EA-001700016000000
B0850535923433N01555187EA-001700016007000
B0850575923433N01555187EA-001600016000000
B0851015923433N01555187EA-001600016000000
B0851055923433N01555187EA-001700016000000
B0851095923433N01555187EA-001700016007000
B0851135923433N01555187EA-001700016000000
B0851175923433N01555187EA-001700016007000
B0851215923433N01555187EA-001700016000000
B0851255923433N01555187EA-001700016007000
B0851295923433N01555187EA-001600016000000
B0851335923433N01555187EA-001600016007000
B0851375923433N01555187EA-001700016000000
B0851415923433N01555187EA-001700016007000
B0851455923433N01555187EA-001700016007000
B0851495923433N01555187EA-001600016007000
B0851535923433N01555187EA-001700016000000
B0851575923433N01555187EA-001600016007000
B0852015923433N01555187EA-001600016007000
B0852055923433N01555187EA-001700016007000
B0852095923433N01555187EA-001700016007000
B0852135923433N01555187EA-001700016007000
B0852175923433N01555187EA-001700016007000
B0852215923433N01555187EA-001700016007000
B0852255923433N01555187EA-001600016007000
B0852295923433N01555187EA-001600016007000
B0852335923433N01555187EA-001600016000000
B0852375923433N01555187EA-001600016007000
B0852415923433N01555187EA-001700016007000
B0852455923433N01555187EA-001700016007000
B0852495923433N01555187EA-001700016000000
B0852535923433N01555187EA-001700016000000
B0852575923433N01555187EA-001600016000000
B0853015923433N01555187EA-001700016000000
B0853055923433N01555187EA-001700016000000
B0853095923433N01555187EA-001600016000000
B0853135923433N01555187EA-001700016000000
B0853175923433N01555187EA-001700016000000
B0853215923433N01555187EA-001600016000000
B0853255923433N01555187EA-001700016000000
B0853295923433N01555187EA-001600016000000
B0853335923433N01555187EA-001600016000000
B0853375923433N01555187EA-001700016000000
B0853415923433N01555187EA-001700016000000
B0853455923433N01555187EA-001700016000000
B0853495923433N01555187EA-001700016000000
B0853535923433N01555187EA-001700016000000
B0853575923433N01555187EA-001600016000000
B0854015923433N01555187EA-001600016000000
B0854055923433N01555187EA-001600016000000
B0854095923433N01555187EA-001600016000000
B0854135923433N01555187EA-001600016000000
B0854175923433N01555187EA-001600016000000
B0854215923433N01555187EA-001700016007000
B0854255923433N01555187EA-001700016007000
B0854295923433N01555187EA-001800016007000
B0854335923433N01555187EA-001800016007000
B0854375923433N01555187EA-001800016007000
B0854415923433N01555187EA-001800016007000
B0854455923433N01555187EA-001800016007000
B0854495923433N01555187EA-001800016007000
B0854535923433N01555187EA-001800016007000
B0854575923433N01555187EA-001800016007000
B0855015923433N01555187EA-001800016007000
B0855055923433N01555187EA-001800016007000
B0855095923433N01555187EA-001800016007000
B0855135923433N01555187EA-001800016007000
B0855175923433N01555187EA-001800016007000
B0855215923433N01555187EA-001800016007000
B0855255923433N01555187EA-001800016007000
B0855295923433N01555187EA-001800016007000
B0855335923433N01555187EA-001800016007000
B0855375923433N01555187EA-001800016000000
B0855415923433N01555187EA-001800016007000
B0855455923433N01555187EA-001800016007000
B0855495923433N01555187EA-001800016007000
B0855535923433N01555187EA-001700016007000
B0855575923433N01555187EA-001700016007000
B0856015923433N01555187EA-001800016007000
B0856055923433N01555187EA-001800016007000
B0856095923433N01555187EA-001800016000000
B0856135923433N01555187EA-001800016007000
B0856175923433N01555187EA-001800016007000
B0856215923433N01555187EA-001700016007000
B0856255923433N01555187EA-001800016007000
B0856295923433N01555187EA-001800016007000
B0856335923433N01555187EA-001800016007000
B0856375923433N01555187EA-001800016007000
B0856415923433N01555187EA-001800016007000
B0856455923433N01555187EA-001800016007000
B0856495923433N01555187EA-001800016007000
B0856535923433N01555187EA-001800016007000
B0856575923433N01555187EA-001800016007000
B0857015923433N01555187EA-001800016007000
B0857055923433N01555187EA-001800016000000
B0857095923433N01555187EA-001800016007000
B0857135923433N01555187EA-001800016000000
B0857175923433N01555187EA-001800016007000
B0857215923433N01555187EA-001800016007000
B0857255923433N01555187EA-001800016007000
B0857295923433N01555187EA-001800016007000
B0857335923433N01555187EA-001800016007000
B0857375923433N01555187EA-001900016000000
B0857415923433N01555187EA-001900016000000
B0857455923433N01555187EA-001900016000000
B0857495923433N01555187EA-001800016000000
B0857535923433N01555187EA-001800016000000
B0857575923433N01555187EA-001800016000000
B0858015923433N01555187EA-001800016000000
B0858055923433N01555187EA-001800016000000
B0858095923433N01555187EA-001800016000000
B0858135923433N01555187EA-001800008000000
B0858175923433N01555187EA-001800008000000
B0858215923433N01555187EA-001900008000000
B0858255923433N01555187EA-001900008000000
B0858295923433N01555187EA-001900008000000
B0858335923433N01555187EA-001900008000000
B0858375923433N01555187EA-001800008000000
B0858415923433N01555187EA-001800008000000
B0858455923433N01555187EA-001800008000000
B0858495923433N01555187EA-001800008000000
B0858535923433N01555187EA-001800008000000
B0858575923433N01555187EA-001800008000000
B0859015923433N01555187EA-001800008007000
B0859055923433N01555187EA-001800008000000
B0859095923433N01555187EA-001800008007000
B0859135923433N01555187EA-001800008007000
B0859175923433N01555187EA-001800008007000
B0859215923433N01555187EA-001800008007000
B0859255923433N01555187EA-001800008007000
B0859295923433N01555187EA-001800008007000
B0859335923433N01555187EA-001800008007000
B0859375923433N01555187EA-001800008007000
B0859415923433N01555187EA-001900008007000
B0859455923433N01555187EA-001900008007000
B0859495923433N01555187EA-001900008007000
B0859535923433N01555187EA-001800008000000
B0859575923433N01555187EA-001800008000000
B0900015923433N01555187EA-001900008000000
B0900055923433N01555187EA-001800008007000
B0900095923433N01555187EA-001800008000000
B0900135923433N01555187EA-001800008000000
B0900175923433N01555187EA-001800008000000
B0900215923433N01555187EA-001800008000000
B0900255923433N01555187EA-001900008000000
B0900295923433N01555187EA-001800008000000
B0900335923433N01555187EA-001800008000000
B0900375923433N01555187EA-001800008000000
B0900415923433N01555187EA-001800008000000
B0900455923433N01555187EA-001800008000000
B0900495923433N01555187EA-001800008000000
B0900535923433N01555187EA-001800008000000
B0900575923433N01555187EA-001800008000000
B0901015923433N01555187EA-001800008000000
B0901055923433N01555187EA-001800008000000
B0901095923433N01555187EA-001800008000000
B0901135923433N01555187EA-001800008000000
B0901175923433N01555187EA-001800008000000
B0901215923433N01555187EA-001800008000000
B0901255923433N01555187EA-001800008000000
B0901295923433N01555187EA-001800008000000
B0901335923433N01555187EA-001800008000000
B0901375923433N01555187EA-001800008000000
B0901415923433N01555187EA-001800008000000
B0901455923433N01555187EA-001800008000000
B0901495923433N01555187EA-001800008000000
B0901535923433N01555187EA-001800008000000
B0901575923433N01555187EA-001800008000000
B0902015923433N01555187EA-001800008000000
B0902055923433N01555187EA-001800008000000
B0902095923433N01555187EA-001800008000000
B0902135923433N01555187EA-001800008007000
B0902175923433N01555187EA-001800008007000
B0902215923433N01555187EA-001800008007000
B0902255923433N01555187EA-001800008007000
B0902295923433N01555187EA-001800008007000
B0902335923433N01555187EA-001800008007000
B0902375923433N01555187EA-001800008007000
B0902415923433N01555187EA-001800008000000
B0902455923433N01555187EA-001800008007000
B0902495923433N01555187EA-001800008007000
B0902535923433N01555187EA-001800008007000
B0902575923433N01555187EA-001800008007000
B0903015923433N01555187EA-001800008000000
B0903055923433N01555187EA-001800008000000
B0903095923433N01555187EA-001800008000000
B0903135923433N01555187EA-001800008000000
B0903175923433N01555187EA-001800008000000
B0903215923433N01555187EA-001800008000000
B0903255923433N01555187EA-001800008000000
B0903295923433N01555187EA-001800008000000
B0903335923433N01555187EA-001800008000000
B0903375923433N01555187EA-001800008000000
B0903415923433N01555187EA-001800008007000
B0903455923433N01555187EA-001800008007000
B0903495923433N01555187EA-001800008007000
B0903535923433N01555187EA-001800008007000
B0903575923433N01555187EA-001800008007000
B0904015923433N01555187EA-001800008000000
B0904055923433N01555187EA-001800008000000
B0904095923433N01555187EA-001800008000000
B0904135923433N01555187EA-001800008007000
B0904175923433N01555187EA-001800008000000
B0904215923433N01555187EA-001800008000000
B0904255923433N01555187EA-001800008000000
B0904295923433N01555187EA-001800008000000
B0904335923433N01555187EA-001800008000000
B0904375923433N01555187EA-001800008000000
B0904415923433N01555187EA-001800008007000
B0904455923433N01555187EA-001800008007000
B0904495923433N01555187EA-001800008000000
B0904535923433N01555187EA-001800008007000
B0904575923433N01555187EA-001800008000000
B0905015923433N01555187EA-001800008000000
B0905055923433N01555187EA-001800008000000
B0905095923433N01555187EA-001800008000000
B0905135923433N01555187EA-001800008000000
B0905175923433N01555187EA-001800008000000
B0905215923433N01555187EA-001800008000000
B0905255923433N01555187EA-001800008000000
B0905295923433N01555187EA-001800008000000
B0905335923433N01555187EA-001800008000000
B0905375923433N01555187EA-001800008000000
B0905415923433N01555187EA-001800008000000
B0905455923433N01555187EA-001800008000000
B0905495923433N01555187EA-001800008007000
B0905535923433N01555187EA-001800008000000
B0905575923433N01555187EA-001800008000000
B0906015923433N01555187EA-001800008000000
B0906055923433N01555187EA-001800008000000
B0906095923433N01555187EA-001800008000000
B0906135923433N01555187EA-001800008007000
B0906175923433N01555187EA-001800008000000
B0906215923433N01555187EA-001800008007000
B0906255923433N01555187EA-001800008000000
B0906295923433N01555187EA-001700008007000
B0906335923433N01555187EA-001700008000000
B0906375923433N01555187EA-001800008007000
B0906415923433N01555187EA-001800008007000
B0906455923433N01555187EA-001800008007000
B0906495923433N01555187EA-001700008007000
B0906535923433N01555187EA-001700008007000
B0906575923433N01555187EA-001700008000000
B0907015923433N01555187EA-001700008000000
B0907055923433N01555187EA-001700008000000
B0907095923433N01555187EA-001700008000000
B0907135923433N01555187EA-001700008000000
B0907175923433N01555187EA-001700008000000
B0907215923433N01555187EA-001700008000000
B0907255923433N01555187EA-001700008000000
B0907295923433N01555187EA-001800008000000
B0907335923433N01555187EA-001800008000000
B0907375923437N01555187EA-001800000000000
B0907415923437N01555187EA-001700000000000
B0907455923437N01555187EA-001700000000000
B0907495923433N01555187EA-001700000000000
B0907535923433N01555187EA-001700000000000
B0907575923433N01555187EA-001700000007000
B0908015923433N01555187EA-001700000000000
B0908055923433N01555187EA-001700000000000
B0908095923433N01555187EA-001700000000000
B0908135923433N01555187EA-001700000000000
B0908175923433N01555187EA-001700000000000
B0908215923433N01555187EA-001700000000000
B0908255923433N01555187EA-001700000000000
B0908295923433N01555187EA-001700000000000
B0908335923433N01555187EA-001700000000000
B0908375923433N01555187EA-001700000000000
B0908415923433N01555187EA-001700000007000
B0908455923433N01555187EA-001700000007000
B0908495923433N01555187EA-001700000007000
B0908535923433N01555187EA-001700000007000
B0908575923433N01555187EA-001700008000000
B0909015923433N01555187EA-001700008007000
B0909055923433N01555187EA-001700008000000
B0909095923433N01555187EA-001700008007000
B0909135923433N01555187EA-001700008000000
B0909175923433N01555187EA-001700008007000
B0909215923433N01555187EA-001700008000000
B0909255923433N01555187EA-001700008000000
B0909295923433N01555187EA-001700008000000
B0909335923433N01555187EA-001700008000000
B0909375923433N01555187EA-001700008000000
B0909415923433N01555187EA-001700008000000
B0909455923433N01555187EA-001600008000000
B0909495923433N01555187EA-001600008000000
B0909535923433N01555187EA-001600008000000
B0909575923433N01555187EA-001600008007000
B0910015923433N01555187EA-001600008000000
B0910055923433N01555187EA-001600008000000
B0910095923433N01555187EA-001600008000000
B0910135923433N01555187EA-001600008007000
B0910175923433N01555187EA-001600008000000
B0910215923433N01555187EA-001600008007000
B0910255923433N01555187EA-001600008000000
B0910295923433N01555187EA-001600008007000
B0910335923433N01555187EA-001600008000000
B0910375923433N01555187EA-001700008007000
B0910415923433N01555187EA-001600008000000
B0910455923433N01555187EA-001700008007000
B0910495923433N01555183EA-001600008000000
B0910535923433N01555183EA-001600008007000
B0910575923429N01555183EA-001600008000000
B0911015923429N01555183EA-001600008007000
B0911055923429N01555183EA-001700008000000
B0911095923429N01555183EA-001600008000000
B0911135923429N01555183EA-001600008000000
B0911175923429N01555183EA-001600008000000
B0911215923429N01555183EA-001600008000000
B0911255923429N01555183EA-001600008000000
B0911295923429N01555183EA-001600008000000
B0911335923429N01555183EA-001600008000000
B0911375923429N01555183EA-001600008000000
B0911415923429N01555183EA-001600008000000
B0911455923429N01555183EA-001600008000000
B0911495923429N01555183EA-001600008000000
B0911535923429N01555183EA-001600008000000
B0911575923429N01555183EA-001600008000000
B0912015923429N01555187EA-001600008000000
B0912055923433N01555187EA-001600008000000
B0912095923433N01555187EA-001600008000000
B0912135923429N01555183EA-001600008000000
B0912175923429N01555183EA-001600008000000
B0912215923429N01555183EA-001600008007000
B0912255923429N01555183EA-001600008000000
B0912295923429N01555183EA-001600008000000
B0912335923429N01555183EA-001600008000000
B0912375923429N01555183EA-001600008000000
B0912415923429N01555183EA-001600008000000
B0912455923429N01555183EA-001600008000000
B0912495923429N01555183EA-001600008000000
B0912535923429N01555183EA-001600008000000
B0912575923429N01555183EA-001600008000000
B0913015923429N01555183EA-001600008000000
B0913055923429N01555183EA-001600008000000
B0913095923429N01555183EA-001600008000000
B0913135923429N01555183EA-001600008000000
B0913175923429N01555183EA-001600008000000
B0913215923433N01555183EA-001600008000000
B0913255923429N01555183EA-001600008000000
B0913295923429N01555183EA-001600008000000
B0913335923429N01555183EA-001600008000000
B0913375923429N01555183EA-001600008000000
B0913415923429N01555183EA-001600008000000
B0913455923429N01555183EA-001600008000000
B0913495923429N01555183EA-001600008000000
B0913535923429N01555183EA-001500008000000
B0913575923429N01555183EA-001600008000000
B0914015923429N01555183EA-001600008000000
B0914055923429N01555183EA-001600008007000
B0914095923429N01555183EA-001600008000000
B0914135923429N01555183EA-001600008007000
B0914175923429N01555183EA-001600008000000
B0914215923429N01555183EA-001600008007000
B0914255923429N01555183EA-001600008000000
B0914295923429N01555183EA-001600008007000
B0914335923429N01555183EA-001600008000000
B0914375923429N01555183EA-001500008007000
B0914415923429N01555183EA-001600008000000
B0914455923429N01555183EA-001600008007000
B0914495923429N01555183EA-001600008000000
B0914535923429N01555183EA-001600008007000
B0914575923429N01555183EA-001600008000000
B0915015923429N01555183EA-001600008000000
B0915055923429N01555183EA-001600008000000
B0915095923429N01555183EA-001600008000000
B0915135923429N01555183EA-001600008000000
B0915175923429N01555183EA-001600008000000
B0915215923429N01555183EA-001600008000000
B0915255923429N01555183EA-001600008000000
B0915295923429N01555183EA-001600008000000
B0915335923429N01555183EA-001600008000000
B0915375923429N01555183EA-001600008000000
B0915415923429N01555183EA-001600008000000
B0915455923429N01555183EA-001600008000000
B0915495923429N01555183EA-001600008000000
B0915535923429N01555183EA-001500008000000
B0915575923429N01555187EA-001600008000000
B0916015923429N01555187EA-001600008000000
B0916055923429N01555183EA-001600008000000
B0916095923429N01555183EA-001600008000000
B0916135923429N01555183EA-001600008007000
B0916175923429N01555183EA-001600008000000
B0916215923429N01555187EA-001600008007000
B0916255923429N01555187EA-001600008000000
B0916295923429N01555187EA-001500008007000
B0916335923433N01555187EA-001600008000000
B0916375923429N01555187EA-001600008007000
B0916415923429N01555187EA-001600008000000
B0916455923429N01555187EA-001600008000000
B0916495923429N01555187EA-001600008000000
B0916535923429N01555183EA-001600008007000
B0916575923429N01555183EA-001600008000000
B0917015923429N01555183EA-001600008000000
B0917055923429N01555183EA-001600008000000
B0917095923429N01555187EA-001600008007000
B0917135923429N01555183EA-001600008000000
B0917175923429N01555183EA-001600008000000
B0917215923429N01555183EA-001600008000000
B0917255923429N01555183EA-001600008000000
B0917295923429N01555183EA-001600008000000
B0917335923429N01555183EA-001500008000000
B0917375923429N01555183EA-001500008000000
B0917415923429N01555183EA-001500008000000
B0917455923429N01555183EA-001500008000000
B0917495923429N01555183EA-001500008000000
B0917535923429N01555183EA-001500008000000
B0917575923429N01555183EA-001600008000000
B0918015923429N01555183EA-001500008000000
B0918055923429N01555183EA-001500008000000
B0918095923429N01555183EA-001500008000000
B0918135923429N01555183EA-001500008007000
B0918175923429N01555183EA-001500008000000
B0918215923429N01555183EA-001500008000000
B0918255923429N01555183EA-001500008000000
B0918295923429N01555183EA-001500008000000
B0918335923429N01555183EA-001600008000000
B0918375923429N01555183EA-001500008007000
B0918415923429N01555183EA-001600008000000
B0918455923429N01555183EA-001600008000000
B0918495923429N01555183EA-001500008000000
B0918535923429N01555183EA-001500008000000
B0918575923429N01555183EA-001500008000000
B0919015923429N01555183EA-001500008000000
B0919055923429N01555183EA-001500008000000
B0919095923429N01555183EA-001500008000000
B0919135923429N01555183EA-001500008000000
B0919175923429N01555183EA-001500008000000
B0919215923429N01555183EA-001500008000000
B0919255923429N01555183EA-001500008000000
B0919295923429N01555183EA-001500008000000
B0919335923429N01555183EA-001500008000000
B0919375923429N01555183EA-001500008000000
B0919415923429N01555183EA-001500008000000
B0919455923429N01555183EA-001500008000000
B0919495923429N01555183EA-001500008000000
B0919535923429N01555183EA-001500008000000
B0919575923429N01555183EA-001500008000000
B0920015923429N01555183EA-001500008000000
B0920055923429N01555183EA-001500008000000
B0920095923429N01555183EA-001500008000000
B0920135923429N01555183EA-001500008000000
B0920175923429N01555183EA-001500008000000
B0920215923429N01555183EA-001500008000000
B0920255923429N01555183EA-001500008000000
B0920295923429N01555183EA-001500008000000
B0920335923429N01555183EA-001500008000000
B0920375923429N01555183EA-001500008000000
B0920415923429N01555183EA-001500008000000
B0920455923429N01555183EA-001500008000000
B0920495923429N01555183EA-001500008000000
B0920535923429N01555183EA-001500008000000
B0920575923429N01555183EA-001600008000000
B0921015923429N01555183EA-001500008000000
B0921055923429N01555183EA-001500008000000
B0921095923429N01555183EA-001500008000000
B0921135923429N01555183EA-001500008000000
B0921175923429N01555183EA-001500008000000
B0921215923429N01555183EA-001500008000000
B0921255923429N01555183EA-001400008000000
B0921295923429N01555183EA-001500008000000
B0921335923429N01555183EA-001500008000000
B0921375923429N01555183EA-001500008000000
B0921415923429N01555183EA-001500008000000
B0921455923429N01555183EA-001500008000000
B0921495923429N01555183EA-001500008000000
B0921535923429N01555183EA-001500008000000
B0921575923429N01555183EA-001500008000000
B0922015923429N01555183EA-001500008000000
B0922055923429N01555183EA-001500008000000
B0922095923429N01555183EA-001500008000000
B0922135923429N01555183EA-001500008000000
B0922175923429N01555183EA-001500008000000
B0922215923429N01555183EA-001500008000000
B0922255923429N01555183EA-001500008000000
B0922295923429N01555183EA-001500008000000
B0922335923429N01555183EA-001500008000000
B0922375923429N01555183EA-001500008000000
B0922415923429N01555183EA-001600008000000
B0922455923429N01555183EA-001500008000000
B0922495923429N01555183EA-001500008000000
B0922535923429N01555183EA-001600008000000
B0922575923429N01555183EA-001500008000000
B0923015923429N01555183EA-001500008000000
B0923055923429N01555183EA-001500008007000
B0923095923429N01555183EA-001500008000000
B0923135923429N01555183EA-001500008000000
B0923175923429N01555183EA-001500008000000
B0923215923429N01555183EA-001500008000000
B0923255923429N01555183EA-001500008000000
B0923295923429N01555183EA-001500008000000
B0923335923429N01555183EA-001500008000000
B0923375923429N01555183EA-001500008000000
B0923415923429N01555183EA-001600008000000
B0923455923429N01555183EA-001500008000000
B0923495923429N01555183EA-001500008000000
B0923535923433N01555183EA-001500008000000
B0923575923433N01555187EA-001500008000000
B0924015923433N01555187EA-001500008000000
B0924055923433N01555187EA-001500008000000
B0924095923433N01555187EA-001500008000000
B0924135923433N01555187EA-001500008000000
B0924175923433N01555187EA-001600008000000
B0924215923433N01555187EA-001500008000000
B0924255923433N01555187EA-001600008000000
B0924295923433N01555187EA-001600008000000
B0924335923433N01555187EA-001600008000000
B0924375923433N01555187EA-001500008000000
B0924415923433N01555187EA-001500008000000
B0924455923433N01555187EA-001500008000000
B0924495923433N01555187EA-001400008000000
B0924535923433N01555187EA-001500008000000
B0924575923433N01555187EA-001500008000000
B0925015923433N01555187EA-001500008000000
B0925055923433N01555187EA-001500008000000
B0925095923433N01555187EA-001500008000000
B0925135923433N01555187EA-001500008000000
B0925175923433N01555187EA-001500008000000
B0925215923433N01555187EA-001500008000000
B0925255923433N01555187EA-001500008000000
B0925295923433N01555187EA-001500008000000
B0925335923433N01555187EA-001500008000000
B0925375923433N01555187EA-001500008000000
B0925415923433N01555187EA-001500008000000
B0925455923433N01555187EA-001500008000000
B0925495923433N01555187EA-001500008000000
B0925535923433N01555187EA-001500008000000
B0925575923433N01555187EA-001500008000000
B0926015923433N01555187EA-001500008000000
B0926055923433N01555187EA-001500008007000
B0926095923433N01555187EA-001500008000000
B0926135923433N01555187EA-001500008000000
B0926175923433N01555187EA-001500008000000
B0926215923433N01555187EA-001500008000000
B0926255923433N01555187EA-001500008000000
B0926295923433N01555187EA-001500008000000
B0926335923433N01555187EA-001500008000000
B0926375923433N01555187EA-001500008000000
B0926415923433N01555187EA-001500008000000
B0926455923433N01555187EA-001500008000000
B0926495923433N01555187EA-001500008000000
B0926535923433N01555187EA-001600008000000
B0926575923433N01555187EA-001500008000000
B0927015923433N01555187EA-001500008000000
B0927055923433N01555187EA-001500008000000
B0927095923433N01555187EA-001500008000000
B0927135923433N01555187EA-001500008000000
B0927175923433N01555187EA-001500008000000
B0927215923433N01555187EA-001500008000000
B0927255923433N01555187EA-001500008000000
B0927295923433N01555187EA-001500008000000
B0927335923433N01555187EA-001500008000000
B0927375923433N01555187EA-001500008000000
B0927415923433N01555187EA-001500008000000
B0927455923433N01555187EA-001500008000000
B0927495923433N01555187EA-001500008000000
B0927535923433N01555187EA-001500008000000
B0927575923433N01555187EA-001500008000000
B0928015923433N01555187EA-001500008000000
B0928055923433N01555187EA-001500008000000
B0928095923433N01555187EA-001500008000000
B0928135923433N01555187EA-001500008000000
B0928175923433N01555187EA-001500008000000
B0928215923433N01555187EA-001500008000000
B0928255923433N01555187EA-001500008000000
B0928295923433N01555187EA-001500008000000
B0928335923433N01555187EA-001500008000000
B0928375923433N01555187EA-001500008000000
B0928415923433N01555187EA-001500008000000
B0928455923433N01555187EA-001500008000000
B0928495923433N01555187EA-001500008000000
B0928535923433N01555187EA-001500008000000
B0928575923433N01555187EA-001500008000000
B0929015923433N01555187EA-001500008000000
B0929055923433N01555187EA-001500008000000
B0929095923433N01555187EA-001500008000000
B0929135923433N01555187EA-001500008000000
B0929175923433N01555187EA-001500008000000
B0929215923433N01555187EA-001500008000000
B0929255923433N01555187EA-001400008000000
B0929295923433N01555187EA-001500008000000
B0929335923433N01555187EA-001500008000000
B0929375923433N01555187EA-001500008000000
B0929415923433N01555187EA-001500008000000
B0929455923433N01555187EA-001500008000000
B0929495923433N01555187EA-001500008000000
B0929535923433N01555187EA-001500008000000
B0929575923433N01555187EA-001500008000000
B0930015923433N01555187EA-001500008000000
B0930055923433N01555187EA-001500008000000
B0930095923433N01555187EA-001500008000000
B0930135923433N01555187EA-001500008000000
B0930175923433N01555187EA-001500008000000
B0930215923433N01555187EA-001500008000000
B0930255923433N01555187EA-001400008000000
B0930295923433N01555187EA-001500008000000
B0930335923433N01555187EA-001500008000000
B0930375923433N01555187EA-001500008000000
B0930415923433N01555187EA-001500008000000
B0930455923433N01555187EA-001600008000000
B0930495923433N01555187EA-001500008000000
B0930535923433N01555187EA-001400008000000
B0930575923433N01555187EA-001500008000000
B0931015923433N01555187EA-001500008000000
B0931055923433N01555187EA-001500008000000
B0931095923433N01555187EA-001600008000000
B0931135923433N01555187EA-001600008000000
B0931175923433N01555187EA-001600008000000
B0931215923433N01555187EA-001600008000000
B0931255923433N01555187EA-001600008000000
B0931295923433N01555187EA-001500008000000
B0931335923433N01555187EA-001500008000000
B0931375923433N01555187EA-001500008000000
B0931415923433N01555187EA-001500008000000
B0931455923433N01555187EA-001500008000000
B0931495923433N01555187EA-001500008000000
B0931535923433N01555187EA-001500008000000
B0931575923433N01555187EA-001600008000000
B0932015923433N01555187EA-001500008000000
B0932055923433N01555187EA-001500008000000
B0932095923433N01555187EA-001500008000000
C020710093208020710000102
C5923750N01554900E ARBOGA N-BAN
C5923750N01554900E ARBOGA N-BAN
C6043866N01333150E MALUNGSFORS 
C6050583N01628266E JADRAAS STN 
C5923750N01554900E ARBOGA N-BAN
C5923750N01554900E ARBOGA N-BAN
B0932135923433N01555187EA-001500008000000
B0932175923433N01555187EA-001500008000000
B0932215923433N01555187EA-001500008000000
B0932255923433N01555187EA-001500008000000
B0932295923433N01555187EA-001600008000000
B0932335923433N01555187EA-001500008000000
B0932375923433N01555187EA-001500008000000
B0932415923433N01555187EA-001500008000000
B0932455923433N01555187EA-001600008000000
B0932495923433N01555187EA-001500008000000
B0932535923433N01555187EA-001600008000000
B0932575923433N01555187EA-001500008000000
B0933015923433N01555187EA-001500008000000
B0933055923433N01555187EA-001600008000000
B0933095923433N01555187EA-001600008000000
B0933135923433N01555187EA-001500008000000
B0933175923433N01555187EA-001500008000000
B0933215923433N01555187EA-001500008000000
B0933255923433N01555187EA-001500008000000
B0933295923433N01555187EA-001500008000000
B0933335923433N01555187EA-001500008000000
B0933375923433N01555187EA-001500008000000
B0933415923433N01555187EA-001500008000000
B0933455923433N01555187EA-001500008000000
B0933495923433N01555187EA-001500008000000
B0933535923433N01555187EA-001500008000000
B0933575923433N01555187EA-001500008000000
B0934015923433N01555187EA-001500008000000
B0934055923433N01555187EA-001500008000000
B0934095923433N01555187EA-001500008000000
B0934135923433N01555187EA-001500008000000
B0934175923433N01555187EA-001500008000000
B0934215923433N01555187EA-001500008000000
B0934255923433N01555187EA-001500008000000
B0934295923433N01555187EA-001500008000000
B0934335923433N01555187EA-001500008000000
B0934375923433N01555187EA-001500008000000
B0934415923433N01555187EA-001500008000000
B0934455923433N01555187EA-001500008000000
B0934495923433N01555187EA-001500008000000
B0934535923433N01555187EA-001500008000000
B0934575923433N01555187EA-001500008000000
B0935015923433N01555187EA-001500008000000
B0935055923433N01555187EA-001500008000000
B0935095923433N01555187EA-001500008000000
B0935135923433N01555187EA-001500008000000
B0935175923433N01555187EA-001500008000000
B0935215923433N01555187EA-001500008000000
B0935255923433N01555187EA-001500008000000
B0935295923433N01555187EA-001500008000000
B0935335923433N01555187EA-001500008000000
B0935375923433N01555187EA-001500008000000
B0935415923433N01555187EA-001500008000000
B0935455923433N01555187EA-001500008000000
B0935495923433N01555187EA-001500008000000
B0935535923433N01555187EA-001500008000000
B0935575923433N01555187EA-001500008000000
B0936015923433N01555187EA-001500008000000
B0936055923433N01555187EA-001500008000000
B0936095923433N01555187EA-001500008000000
B0936135923433N01555187EA-001500008000000
B0936175923433N01555187EA-001500008000000
B0936215923433N01555187EA-001400008000000
B0936255923433N01555187EA-001500008000000
B0936295923433N01555187EA-001400008000000
B0936335923433N01555187EA-001500008000000
B0936375923433N01555187EA-001500008000000
B0936415923433N01555187EA-001400008000000
B0936455923433N01555187EA-001600008000000
B0936495923433N01555187EA-001600008000000
B0936535923433N01555187EA-001600008000000
B0936575923433N01555187EA-001500008000000
B0937015923433N01555187EA-001500008000000
B0937055923433N01555187EA-001500008000000
B0937095923433N01555187EA-001500008000000
B0937135923433N01555187EA-001500008000000
B0937175923433N01555187EA-001500008000000
B0937215923433N01555187EA-001500008000000
B0937255923433N01555187EA-001500008000000
B0937295923433N01555187EA-001500008000000
B0937335923433N01555187EA-001500008000000
B0937375923433N01555187EA-001500008000000
B0937415923433N01555187EA-001500008000000
B0937455923433N01555187EA-001500008000000
B0937495923433N01555187EA-001500008000000
B0937535923433N01555187EA-001500008000000
B0937575923433N01555187EA-001500008000000
B0938015923433N01555187EA-001500008000000
B0938055923433N01555187EA-001500008000000
B0938095923433N01555187EA-001400008000000
B0938135923433N01555187EA-001500008000000
B0938175923433N01555187EA-001500008000000
B0938215923433N01555187EA-001600008000000
B0938255923433N01555187EA-001500008000000
B0938295923433N01555187EA-001500008000000
B0938335923433N01555187EA-001500008000000
B0938375923433N01555187EA-001500008000000
B0938415923433N01555187EA-001500008000000
B0938455923433N01555187EA-001500008000000
B0938495923433N01555187EA-001500008000000
B0938535923433N01555187EA-001600008000000
B0938575923433N01555187EA-001500008000000
B0939015923433N01555187EA-001600008000000
B0939055923433N01555187EA-001500008000000
B0939095923433N01555187EA-001600008000000
B0939135923433N01555187EA-001500008000000
B0939175923433N01555187EA-001500008000000
B0939215923433N01555187EA-001500008000000
B0939255923433N01555187EA-001500008000000
B0939295923433N01555187EA-001500008000000
B0939335923429N01555179EA-001500008000000
B0939375923429N01555170EA-001500008000000
B0939415923425N01555162EA-001500008012000
B0939455923420N01555154EA-001500008000000
B0939495923416N01555150EA-001500008007000
B0939535923416N01555145EA-001500008000000
B0939575923412N01555137EA-001500008009000
B0940015923408N01555133EA-001400008009000
B0940055923404N01555133EA-001500008007000
B0940095923400N01555129EA-001500008007000
B0940135923395N01555133EA-001500008007000
B0940175923387N01555137EA-001400008007000
B0940215923383N01555141EA-001400008007000
B0940255923379N01555145EA-001400008007000
B0940295923375N01555154EA-001400008009000
B0940335923370N01555158EA-001400008007000
B0940375923366N01555162EA-001500008000000
B0940415923362N01555166EA-001500008000000
B0940455923358N01555175EA-001500008007000
B0940495923354N01555175EA-001500008000000
B0940535923354N01555179EA-001500008007000
B0940575923350N01555183EA-001500008000000
B0941015923345N01555187EA-001500008007000
B0941055923345N01555191EA-001400008000000
B0941095923341N01555191EA-001500008007000
B0941135923341N01555195EA-001500008000000
B0941175923341N01555195EA-001400008000000
B0941215923341N01555195EA-001400008000000
B0941255923341N01555195EA-001400008000000
B0941295923341N01555195EA-001400008000000
B0941335923341N01555195EA-001500008000000
B0941375923341N01555195EA-001500008007000
B0941415923341N01555191EA-001500008000000
B0941455923341N01555191EA-001500008000000
B0941495923341N01555191EA-001500008000000
B0941535923341N01555191EA-001400008000000
B0941575923341N01555191EA-001500008000000
B0942015923341N01555191EA-001400008000000
B0942055923341N01555191EA-001400008007000
B0942095923341N01555191EA-001400008000000
B0942135923341N01555191EA-001400008000000
B0942175923341N01555191EA-001500008000000
B0942215923341N01555191EA-001400008000000
B0942255923341N01555191EA-001400008000000
B0942295923341N01555191EA-001500008000000
B0942335923341N01555191EA-001500008000000
B0942375923341N01555191EA-001500008000000
B0942415923341N01555191EA-001500008000000
B0942455923341N01555191EA-001500008007000
B0942495923341N01555191EA-001400008000000
B0942535923341N01555191EA-001500008007000
B0942575923341N01555191EA-001400008000000
B0943015923341N01555191EA-001400008007000
B0943055923341N01555191EA-001400008007000
B0943095923341N01555191EA-001400008000000
B0943135923341N01555195EA-001400008000000
B0943175923341N01555195EA-001500008000000
B0943215923341N01555195EA-001500008007000
B0943255923341N01555195EA-001500008007000
B0943295923341N01555195EA-001500008000000
B0943335923341N01555195EA-001500008007000
B0943375923341N01555195EA-001600008007000
B0943415923341N01555195EA-001500008007000
B0943455923341N01555195EA-001500008007000
B0943495923341N01555195EA-001500008007000
B0943535923341N01555195EA-001500008000000
B0943575923341N01555195EA-001500008007000
B0944015923341N01555195EA-001500008000000
B0944055923341N01555195EA-001500008000000
B0944095923341N01555195EA-001500008000000
B0944135923341N01555195EA-001500008007000
B0944175923341N01555195EA-001500008000000
B0944215923341N01555195EA-001500008007000
B0944255923341N01555195EA-001500008007000
B0944295923341N01555195EA-001500008009000
B0944335923341N01555195EA-001500008007000
B0944375923341N01555195EA-001500008009000
B0944415923341N01555191EA-001400008007000
B0944455923341N01555191EA-001500008009000
B0944495923341N01555191EA-001500008007000
B0944535923341N01555191EA-001600008009000
B0944575923341N01555191EA-001600008007000
B0945015923341N01555191EA-001600008007000
B0945055923341N01555191EA-001600008007000
B0945095923341N01555191EA-001500008007000
B0945135923341N01555191EA-001500008007000
B0945175923341N01555191EA-001500008007000
B0945215923341N01555191EA-001500008007000
B0945255923341N01555191EA-001500008007000
B0945295923341N01555191EA-001500008007000
B0945335923341N01555191EA-001500008007000
B0945375923341N01555191EA-001500008007000
B0945415923341N01555191EA-001500008007000
B0945455923341N01555191EA-001500008007000
B0945495923341N01555191EA-001500008007000
B0945535923341N01555191EA-001500008007000
B0945575923341N01555191EA-001600008007000
B0946015923341N01555191EA-001600008007000
B0946055923341N01555191EA-001600008007000
B0946095923341N01555191EA-001600008007000
B0946135923341N01555191EA-001600008007000
B0946175923341N01555191EA-001600008007000
B0946215923341N01555191EA-001500008007000
B0946255923341N01555191EA-001500008007000
B0946295923341N01555191EA-001500008007000
B0946335923341N01555191EA-001600008007000
B0946375923341N01555191EA-001500008007000
B0946415923341N01555191EA-001600008007000
B0946455923341N01555191EA-001600008007000
B0946495923341N01555191EA-001600008007000
B0946535923341N01555191EA-001600008007000
B0946575923341N01555191EA-001600008000000
B0947015923341N01555191EA-001500008000000
B0947055923341N01555191EA-001700008000000
B0947095923341N01555191EA-001600008007000
B0947135923341N01555191EA-001500008009000
B0947175923341N01555191EA-001700008007000
B0947215923341N01555191EA-001700008007000
B0947255923341N01555191EA-001600008007000
B0947295923341N01555191EA-001700008007000
B0947335923341N01555191EA-001600008007000
B0947375923341N01555191EA-001500008007000
B0947415923341N01555191EA-001600008007000
B0947455923341N01555191EA-001600008007000
B0947495923341N01555191EA-001600008007000
B0947535923341N01555191EA-001600008007000
B0947575923341N01555191EA-001600008000000
B0948015923341N01555191EA-001600008007000
B0948055923341N01555191EA-001600008007000
B0948095923341N01555191EA-001600008000000
B0948135923341N01555191EA-001600008007000
B0948175923341N01555191EA-001600008007000
B0948215923341N01555191EA-001600008007000
B0948255923341N01555191EA-001600008007000
B0948295923341N01555191EA-001700008007000
B0948335923341N01555191EA-001700008007000
B0948375923341N01555191EA-001500008007000
B0948415923341N01555191EA-001700008007000
B0948455923341N01555191EA-001600008007000
B0948495923341N01555191EA-001600008007000
B0948535923341N01555191EA-001600008007000
B0948575923341N01555191EA-001600008000000
B0949015923341N01555191EA-001600008007000
B0949055923341N01555191EA-001600008015000
B0949095923341N01555191EA-001500008021000
B0949135923341N01555191EA-001600008009000
B0949175923341N01555191EA-001600008015000
B0949215923341N01555191EA-001500008000000
B0949255923341N01555191EA-001600008020000
B0949295923341N01555191EA-001500008021000
B0949335923341N01555191EA-001500008000000
B0949375923341N01555191EA-001600008000000
B0949415923341N01555191EA-001600008020000
B0949455923341N01555191EA-001600008020000
B0949495923341N01555191EA-001600008021000
B0949535923341N01555191EA-001600008017000
B0949575923341N01555191EA-001400008023000
B0950015923341N01555191EA-001500008015000
B0950055923341N01555191EA-001700008018000
B0950095923341N01555191EA-001500008021000
B0950135923341N01555191EA-001700008017000
B0950175923341N01555191EA-001600008022000
B0950215923350N01555187EA-001800008043000
K095021000001
B0950255923366N01555162EA-001900008061000
B0950295923395N01555125EA-001800008103000
B0950335923437N01555075EA-002000016097020
B0950375923483N01555012EA-001800016105000
B0950415923537N01554941EA-001700016117000
K095041000010
B0950455923595N01554866EA-000600024110000
B0950495923650N01554791EA0001500048107000
B0950535923704N01554720EA0003300064107000
B0950575923758N01554658EA0005800096100000
B0951015923808N01554591EA0006900104102000
K095101000003
B0951055923862N01554529EA0007900112096000
B0951095923912N01554466EA0009000128097000
B0951135923966N01554395EA0009500136109000
B0951175924025N01554333EA0010000136111000
B0951215924083N01554258EA0011000152110000
K095121180001
B0951255924141N01554187EA0012300160109000
B0951295924204N01554129EA0013500176113000
B0951335924262N01554066EA0014800192108000
B0951375924320N01554000EA0015500192105000
B0951415924379N01553937EA0017400216106000
K095141180004
B0951455924437N01553875EA0018900232105000
B0951495924495N01553812EA0019900240104000
B0951535924554N01553754EA0021100248101000
B0951575924616N01553700EA0023100272100000
B0952015924675N01553629EA0024500288107000
K095201180007
B0952055924716N01553520EA0026100304110000
B0952095924733N01553383EA0027400320114000
B0952135924725N01553241EA0028900336112000
B0952175924687N01553120EA0030700352108000
B0952215924633N01553033EA0032100368109000
K095221180007
B0952255924566N01552979EA0033900384106000
B0952295924500N01552966EA0035300400103000
B0952335924437N01552991EA0037200416094000
B0952375924383N01553012EA0038800432091000
B0952415924320N01553033EA0039400440100000
K095241180007
B0952455924254N01553058EA0040800456106000
B0952495924187N01553087EA0042200472108000
B0952535924116N01553116EA0043000480113000
B0952575924050N01553150EA0044500496104000
B0953015923983N01553179EA0045900512104000
K095301180006
B0953055923920N01553208EA0048200528102000
B0953095923858N01553225EA0050200552096000
B0953135923795N01553250EA0051700568102000
B0953175923729N01553283EA0052100576106000
B0953215923662N01553312EA0052900584104000
K095321180006
B0953255923595N01553341EA0053900592102000
B0953295923529N01553370EA0055000600100000
B0953335923466N01553395EA0056300616098000
B0953375923404N01553425EA0057100624097000
B0953415923345N01553450EA0058200632100000
K095341180005
B0953455923279N01553479EA0058500640105000
B0953495923212N01553508EA0059200648108000
B0953535923145N01553537EA0060600656106000
B0953575923079N01553570EA0061900672105000
B0954015923012N01553600EA0063000680104000
K095401180006
B0954055922945N01553629EA0064000696105000
B0954095922879N01553658EA0064800704105000
B0954135922812N01553687EA0065700712104000
B0954175922745N01553704EA0066600720102000
B0954215922679N01553720EA0067900728100000
K095421180007
B0954255922612N01553750EA0068600744102000
B0954295922545N01553779EA0069600752104000
B0954335922479N01553808EA0071000768101000
B0954375922412N01553833EA0072500776101000
B0954415922350N01553858EA0074200800100000
K095441180009
B0954455922283N01553879EA0075200808104000
B0954495922212N01553904EA0076500824104000
B0954535922145N01553920EA0078000840102000
B0954575922075N01553941EA0079500848104000
B0955015922008N01553950EA0082600880098000
K095501180011
B0955055921970N01554033EA0084500904087000
B0955095921991N01554133EA0084700904091000
B0955135922050N01554154EA0085500912091000
B0955175922087N01554066EA0086900920088000
B0955215922058N01553962EA0088200936093000
K095521180011
B0955255922004N01553945EA0089600952091000
B0955295921966N01554033EA0090400960094000
B0955335921987N01554137EA0090900968091000
B0955375922045N01554179EA0091600968094000
B0955415922100N01554116EA0093400984087000
K095541122004
B0955455922108N01554000EA0094501000085000
B0955495922070N01553908EA0095301008088000
B0955535922012N01553920EA0096701024090000
B0955575921987N01554020EA0098001032089000
B0956015922008N01554125EA0098301040092000
K095601108006
B0956055922066N01554175EA0099201048093000
B0956095922125N01554141EA0100801064094000
B0956135922154N01554025EA0102201080097000
B0956175922133N01553904EA0102401080098000
B0956215922079N01553833EA0103501096096000
K095621078002
B0956255922016N01553850EA0105101112093000
B0956295921975N01553929EA0106001120093000
B0956335921975N01554050EA0106501128096000
B0956375922012N01554154EA0107801136093000
B0956415922070N01554170EA0108801144096000
K095641104001
B0956455922116N01554079EA0109801160095000
B0956495922112N01553950EA0110501168101000
B0956535922062N01553841EA0110401160111000
B0956575921991N01553829EA0112301176105000
B0957015921945N01553920EA0114101208091000
K095701024002
B0957055921941N01554058EA0114101200110000
B0957095921991N01554158EA0115401216101000
B0957135922062N01554166EA0116701224098000
B0957175922116N01554079EA0118001240097000
B0957215922120N01553950EA0119101256094000
K095721216002
B0957255922075N01553858EA0119901264096000
B0957295922012N01553866EA0120701272103000
B0957335921979N01553970EA0121901280093000
B0957375921987N01554100EA0122801288102000
B0957415922041N01554183EA0123901304095000
K095741184005
B0957455922108N01554158EA0125101312094000
B0957495922137N01554050EA0126701328092000
B0957535922120N01553933EA0127501344099000
B0957575922058N01553887EA0128201344103000
B0958015922008N01553962EA0129301360103000
K095801186008
B0958055922004N01554104EA0130001360109000
B0958095922054N01554200EA0131301376100000
B0958135922125N01554170EA0132301392102000
B0958175922170N01554062EA0133201400104000
B0958215922166N01553925EA0134801416100000
K095821182009
B0958255922112N01553837EA0136001424106000
B0958295922050N01553854EA0137501448104000
B0958335922012N01553958EA0137501448102000
B0958375922041N01554091EA0137701448103000
B0958415922108N01554141EA0138901456101000
K095841168008
B0958455922183N01554141EA0140201472103000
B0958495922254N01554129EA0141901488099000
B0958535922325N01554104EA0143001496100000
B0958575922362N01553991EA0143601504101000
B0959015922333N01553875EA0144101512094000
K095901180011
B0959055922279N01553825EA0143501504095000
B0959095922220N01553875EA0143601504096000
B0959135922212N01553995EA0144701512100000
B0959175922233N01554120EA0145701528097000
B0959215922283N01554212EA0147001536095000
K095921180011
B0959255922350N01554208EA0147701544098000
B0959295922400N01554116EA0148101552102000
B0959335922400N01553995EA0148701560095000
B0959375922358N01553908EA0147601544102000
B0959415922291N01553929EA0148001552106000
K095941180011
B0959455922254N01554037EA0149501568095000
B0959495922229N01554145EA0150901584092000
B0959535922208N01554254EA0151901592085000
B0959575922212N01554370EA0152801600087000
B1000015922254N01554458EA0153301600092000
K100001180010
B1000055922316N01554466EA0153701608085000
B1000095922370N01554412EA0153801608088000
B1000135922404N01554320EA0154001616088000
B1000175922408N01554212EA0153601608090000
B1000215922362N01554125EA0152601600097000
K100021180010
B1000255922304N01554133EA0154001608094000
B1000295922258N01554200EA0155301624095000
B1000335922237N01554312EA0156301632095000
B1000375922250N01554433EA0156801640094000
B1000415922266N01554554EA0155601632097000
K100041198004
B1000455922279N01554687EA0155301624100000
B1000495922283N01554820EA0155701632095000
B1000535922283N01554941EA0156601640092000
B1000575922270N01555066EA0156801640101000
B1001015922258N01555191EA0157601648100000
K100101180005
B1001055922250N01555320EA0158401656096000
B1001095922245N01555445EA0158701664096000
B1001135922245N01555579EA0159301664093000
B1001175922245N01555708EA0159601664096000
B1001215922258N01555837EA0159801672095000
K100121180008
B1001255922287N01555950EA0160101672091000
B1001295922350N01556000EA0159401664100000
B1001335922416N01555945EA0158601656101000
B1001375922462N01555837EA0158401656103000
B1001415922508N01555720EA0158301656099000
K100141180009
B1001455922545N01555604EA0158001656100000
B1001495922575N01555475EA0157301648103000
B1001535922608N01555341EA0156601640104000
B1001575922637N01555212EA0156501640102000
B1002015922666N01555083EA0156101632104000
K100201180011
B1002055922691N01554950EA0155301624102000
B1002095922716N01554820EA0154801616101000
B1002135922737N01554691EA0154501616099000
B1002175922758N01554570EA0154201616091000
B1002215922779N01554450EA0153001600099000
K100221180007
B1002255922795N01554320EA0151901592100000
B1002295922808N01554187EA0151701592098000
B1002335922800N01554062EA0150601576103000
B1002375922762N01553954EA0150101568104000
B1002415922725N01553854EA0150401576101000
K100241180008
B1002455922687N01553754EA0150401576100000
B1002495922654N01553658EA0150601576098000
B1002535922612N01553579EA0148501560115000
B1002575922541N01553629EA0147001536117000
B1003015922541N01553779EA0146901536110000
K100301000001
B1003055922595N01553883EA0146001536104000
B1003095922654N01553979EA0145701528104000
B1003135922712N01554070EA0145501528103000
B1003175922783N01554145EA0144901520107000
B1003215922850N01554216EA0143901512112000
K100321180006
B1003255922920N01554287EA0143101504110000
B1003295922991N01554362EA0142101496115000
B1003335923062N01554433EA0141001480115000
B1003375923137N01554504EA0140301472113000
B1003415923208N01554575EA0139501464114000
K100341180012
B1003455923279N01554641EA0138901456111000
B1003495923350N01554708EA0138501456111000
B1003535923420N01554775EA0138401456114000
B1003575923495N01554837EA0137001440125000
B1004015923579N01554816EA0134201416145000
K100401180009
B1004055923670N01554733EA0131801376166000
B1004095923770N01554637EA0130701360164000
B1004135923866N01554545EA0132601384139000
B1004175923945N01554466EA0134001400124000
B1004215924020N01554387EA0134001400120000
K100421180014
B1004255924087N01554300EA0133901400119000
B1004295924150N01554208EA0133101392123000
B1004335924212N01554108EA0132401384124000
B1004375924279N01554016EA0131701376122000
B1004415924345N01553925EA0130901368126000
K100441180007
B1004455924416N01553837EA0130001360127000
B1004495924487N01553745EA0129201352126000
B1004535924558N01553662EA0128401344126000
B1004575924633N01553583EA0127701336125000
B1005015924704N01553504EA0126901328127000
K100501180005
B1005055924779N01553425EA0125901320128000
B1005095924854N01553345EA0125201312132000
B1005135924929N01553266EA0124901312127000
B1005175925004N01553183EA0124001304128000
B1005215925083N01553100EA0123101288130000
K100521180006
B1005255925158N01553016EA0122201280133000
B1005295925237N01552937EA0121201272130000
B1005335925312N01552858EA0120701264128000
B1005375925391N01552783EA0120201256128000
B1005415925462N01552704EA0119801256123000
K100541180007
B1005455925529N01552629EA0119401256120000
B1005495925600N01552554EA0118801248120000
B1005535925666N01552483EA0117901240119000
B1005575925733N01552408EA0117401232119000
B1006015925800N01552333EA0116401224121000
K100601180003
B1006055925870N01552266EA0115301208124000
B1006095925945N01552204EA0114501200125000
B1006135926020N01552137EA0113501192127000
B1006175926095N01552070EA0113001184126000
B1006215926175N01552000EA0112201176126000
K100621180005
B1006255926245N01551925EA0111601176125000
B1006295926320N01551841EA0110801168128000
B1006335926391N01551754EA0110001160130000
B1006375926462N01551666EA0108601144131000
B1006415926533N01551575EA0106401128132000
K100641180004
B1006455926604N01551483EA0105501112131000
B1006495926670N01551387EA0105001112121000
B1006535926729N01551295EA0105001112120000
B1006575926787N01551200EA0103501096128000
B1007015926854N01551108EA0102801088130000
K100701180001
B1007055926925N01551016EA0102001080131000
B1007095926995N01550920EA0101701080129000
B1007135927062N01550837EA0101601072130000
B1007175927133N01550754EA0101301072129000
B1007215927200N01550675EA0100501064128000
K100721180001
B1007255927270N01550595EA0099901056130000
B1007295927341N01550516EA0098901048130000
B1007335927412N01550433EA0098001040130000
B1007375927483N01550350EA0097601032126000
B1007415927554N01550266EA0097501032122000
K100741180003
B1007455927620N01550183EA0097001024127000
B1007495927687N01550104EA0096001024124000
B1007535927758N01550020EA0095301008127000
B1007575927829N01549929EA0094901008125000
B1008015927900N01549837EA0094501000125000
K100801180006
B1008055927966N01549741EA0094201000125000
B1008095928033N01549650EA0094101000118000
B1008135928095N01549554EA0093700992129000
B1008175928162N01549462EA0094901008115000
B1008215928225N01549379EA0095901016106000
K100821180010
B1008255928287N01549304EA0095201008112000
B1008295928350N01549229EA0093400992122000
B1008335928416N01549145EA0091200968130000
B1008375928487N01549062EA0089800960127000
B1008415928558N01548983EA0089300952127000
K100841180002
B1008455928629N01548908EA0088600944125000
B1008495928700N01548820EA0087100928129000
B1008535928766N01548737EA0085700912133000
B1008575928841N01548641EA0083800896139000
B1009015928912N01548541EA0083300888135000
K100901180002
B1009055928979N01548441EA0082900888132000
B1009095929045N01548345EA0083200888123000
B1009135929112N01548250EA0082100880127000
B1009175929175N01548154EA0081000864126000
B1009215929241N01548054EA0080000856133000
K100921180003
B1009255929312N01547958EA0079400848129000
B1009295929379N01547866EA0079100848125000
B1009335929454N01547779EA0078900848123000
B1009375929520N01547687EA0078100840124000
B1009415929591N01547591EA0077500832126000
K100941180009
B1009455929662N01547491EA0076700824129000
B1009495929737N01547395EA0076500816128000
B1009535929808N01547291EA0077100824122000
B1009575929875N01547195EA0078500840118000
B1010015929933N01547108EA0080600856110000
K101001180015
B1010055929983N01547037EA0081700872096000
B1010095930033N01546958EA0079600856113000
B1010135930087N01546870EA0078100840118000
B1010175930154N01546800EA0076400816125000
B1010215930241N01546804EA0075600808125000
K101021180000
B1010255930325N01546829EA0075100808123000
B1010295930408N01546854EA0074400800123000
B1010335930491N01546879EA0075000800125000
B1010375930575N01546904EA0077400832104000
B1010415930645N01546925EA0077200832110000
K101041180011
B1010455930720N01546933EA0075100808122000
B1010495930804N01546954EA0073600792126000
B1010535930891N01546983EA0072800784123000
B1010575930975N01547004EA0071100768133000
B1011015931062N01547016EA0071800768126000
K101101180011
B1011055931145N01547033EA0073600784111000
B1011095931220N01547050EA0075800808108000
B1011135931283N01547066EA0078600840090000
B1011175931341N01547070EA0079100848092000
B1011215931379N01546975EA0079600848095000
K101121180014
B1011255931350N01546870EA0080600856096000
B1011295931300N01546933EA0081500872092000
B1011335931312N01547058EA0082600880096000
B1011375931366N01547100EA0083400888091000
B1011415931416N01547025EA0084200896093000
K101141270003
B1011455931412N01546908EA0085700912095000
B1011495931358N01546870EA0086400920093000
B1011535931329N01546962EA0088100936091000
B1011575931341N01547075EA0089200952090000
B1012015931395N01547125EA0090500960088000
K101201224006
B1012055931445N01547066EA0091900976089000
B1012095931450N01546958EA0092900984090000
B1012135931400N01546904EA0094101000092000
B1012175931354N01546966EA0094901008085000
B1012215931354N01547079EA0095901016088000
K101221224005
B1012255931395N01547162EA0096901032087000
B1012295931454N01547137EA0098401040087000
B1012335931470N01547037EA0099701056089000
B1012375931429N01546970EA0100501064092000
B1012415931379N01547016EA0101501080090000
K101241232003
B1012455931375N01547133EA0102501088092000
B1012495931420N01547208EA0103601096089000
B1012535931462N01547141EA0105001112089000
B1012575931441N01547041EA0106301128090000
B1013015931387N01547054EA0107501136091000
K101301260003
B1013055931375N01547170EA0108801152093000
B1013095931429N01547233EA0109701160095000
B1013135931470N01547154EA0111301176094000
B1013175931454N01547050EA0112501184090000
B1013215931400N01547025EA0113301192093000
K101321214003
B1013255931362N01547108EA0115001216090000
B1013295931375N01547220EA0116601232090000
B1013335931433N01547258EA0117601240091000
B1013375931466N01547170EA0118501248098000
B1013415931441N01547058EA0120001264096000
K101341266003
B1013455931379N01547045EA0121801280096000
B1013495931345N01547150EA0123301296092000
B1013535931375N01547258EA0125001312097000
B1013575931433N01547254EA0127101336090000
B1014015931454N01547154EA0128601352082000
K101401266002
B1014055931420N01547066EA0130101368088000
B1014095931362N01547095EA0132001384090000
B1014135931354N01547208EA0133101400095000
B1014175931404N01547270EA0135201424092000
B1014215931454N01547208EA0137201440091000
K101421176002
B1014255931454N01547095EA0138601456092000
B1014295931400N01547037EA0140301472090000
B1014335931354N01547104EA0141801488089000
B1014375931354N01547225EA0142501496101000
B1014415931412N01547275EA0145001520097000
K101441216000
B1014455931462N01547204EA0147101544094000
B1014495931450N01547083EA0148901560090000
B1014535931391N01547037EA0150101576097000
B1014575931337N01547116EA0151401584092000
B1015015931337N01547241EA0152301592102000
K101501036002
B1015055931391N01547291EA0154601616086000
B1015095931433N01547216EA0157201640088000
B1015135931412N01547104EA0158801656090000
B1015175931345N01547104EA0160201672091000
B1015215931316N01547208EA0161201680090000
K101521314003
B1015255931350N01547300EA0162101688091000
B1015295931404N01547287EA0163701704093000
B1015335931420N01547170EA0166101728090000
B1015375931375N01547091EA0167001744091000
B1015415931308N01547125EA0167501744099000
K101541008008
B1015455931295N01547245EA0168301752096000
B1015495931345N01547312EA0168801760100000
B1015535931395N01547233EA0169201760110000
B1015575931412N01547100EA0170101776103000
B1016015931433N01546975EA0170601784104000
K101601358009
B1016055931458N01546837EA0168301760124000
B1016095931487N01546683EA0167601752122000
B1016135931529N01546533EA0166401736131000
B1016175931570N01546370EA0166001736135000
B1016215931616N01546216EA0165601728134000
K101621180009
B1016255931662N01546058EA0164501720138000
B1016295931712N01545900EA0163101704142000
B1016335931766N01545737EA0162001696143000
B1016375931820N01545583EA0161301680140000
B1016415931875N01545429EA0160801680136000
K101641180009
B1016455931929N01545279EA0160201672135000
B1016495931979N01545120EA0159401664138000
B1016535932033N01544962EA0158701656142000
B1016575932087N01544808EA0160901680124000
B1017015932137N01544670EA0162901696120000
K101701180016
B1017055932187N01544541EA0163501704116000
B1017095932229N01544420EA0164201712110000
B1017135932270N01544295EA0163601712116000
B1017175932316N01544162EA0161601688131000
B1017215932362N01544016EA0160701680132000
K101721180004
B1017255932412N01543875EA0159901672131000
B1017295932458N01543725EA0159001664138000
B1017335932508N01543579EA0158601656134000
B1017375932558N01543437EA0157301648133000
B1017415932608N01543287EA0156101632136000
K101741180004
B1017455932654N01543133EA0155101624138000
B1017495932700N01542979EA0154101608136000
B1017535932745N01542820EA0153401600136000
B1017575932795N01542662EA0152501592136000
B1018015932845N01542504EA0152101592142000
K101801180006
B1018055932895N01542350EA0152601592127000
B1018095932941N01542200EA0152501592128000
B1018135932995N01542045EA0151301584137000
B1018175933050N01541887EA0151801584130000
B1018215933104N01541745EA0152101592128000
K101821180015
B1018255933158N01541608EA0152101592126000
B1018295933212N01541470EA0152601600117000
B1018335933262N01541337EA0151701584126000
B1018375933316N01541195EA0151801584124000
B1018415933358N01541054EA0150401576128000
K101841180012
B1018455933400N01540891EA0148101552137000
B1018495933441N01540725EA0147301544137000
B1018535933479N01540558EA0146601536132000
B1018575933525N01540391EA0146101528134000
B1019015933566N01540233EA0144901520138000
K101901180010
B1019055933612N01540079EA0144201512132000
B1019095933654N01539925EA0142501496136000
B1019135933700N01539770EA0141101480136000
B1019175933750N01539616EA0139601464143000
B1019215933800N01539454EA0138901456142000
K101921180006
B1019255933841N01539291EA0138801456142000
B1019295933887N01539133EA0138601456144000
B1019335933937N01538979EA0138701456139000
B1019375933983N01538829EA0138701456137000
B1019415934033N01538683EA0139801464129000
K101941180004
B1019455934075N01538554EA0141801488113000
B1019495934116N01538437EA0141601488118000
B1019535934166N01538325EA0140801480118000
B1019575934229N01538233EA0138901464130000
B1020015934304N01538145EA0137101440133000
K102001180002
B1020055934391N01538108EA0136401432130000
B1020095934479N01538133EA0135501424129000
B1020135934566N01538154EA0134401416134000
B1020175934658N01538162EA0133901408132000
B1020215934750N01538175EA0133401400133000
K102021180005
B1020255934841N01538179EA0132401392130000
B1020295934937N01538183EA0131401384131000
B1020335935033N01538187EA0131201376134000
B1020375935125N01538179EA0132401392127000
B1020415935208N01538179EA0135801424108000
K102041180018
B1020455935275N01538170EA0137801448096000
B1020495935341N01538150EA0137601448105000
B1020535935412N01538120EA0138001448103000
B1020575935475N01538054EA0137701448108000
B1021015935525N01537941EA0138101448109000
K102101180008
B1021055935570N01537825EA0138301456107000
B1021095935616N01537704EA0135301424130000
B1021135935666N01537562EA0133701408134000
B1021175935716N01537412EA0132601400136000
B1021215935762N01537266EA0132001392133000
K102121180006
B1021255935812N01537120EA0131701384132000
B1021295935858N01536975EA0131201384132000
B1021335935904N01536825EA0130501376137000
B1021375935950N01536670EA0129501368138000
B1021415935995N01536516EA0128701360137000
K102141180005
B1021455936045N01536370EA0127701344134000
B1021495936095N01536225EA0125801328136000
B1021535936150N01536070EA0123301296151000
B1021575936208N01535904EA0123301296146000
B1022015936266N01535745EA0124001304141000
K102201180009
B1022055936320N01535600EA0124201312133000
B1022095936370N01535450EA0123101296139000
B1022135936429N01535291EA0123001296147000
B1022175936500N01535162EA0125101320129000
B1022215936562N01535062EA0126401336122000
K102221180012
B1022255936637N01535004EA0125701328119000
B1022295936716N01534958EA0123101304132000
B1022335936804N01534925EA0121601288137000
B1022375936891N01534895EA0120401272135000
B1022415936983N01534870EA0119501264135000
K102241180010
B1022455937070N01534845EA0118401256133000
B1022495937162N01534816EA0117201240132000
B1022535937254N01534791EA0115601224137000
B1022575937345N01534766EA0114501216141000
B1023015937441N01534754EA0114101208139000
K102301180009
B1023055937533N01534737EA0113601208141000
B1023095937625N01534716EA0112701192142000
B1023135937716N01534687EA0112401192137000
B1023175937808N01534658EA0112501192135000
B1023215937895N01534629EA0112901200130000
K102321180009
B1023255937979N01534600EA0114601216118000
B1023295938050N01534579EA0116801240108000
B1023335938120N01534562EA0117901248105000
B1023375938191N01534554EA0118501256103000
B1023415938262N01534562EA0119401264100000
K102341180010
B1023455938329N01534570EA0119901272094000
B1023495938395N01534566EA0118901256104000
B1023535938466N01534525EA0117901248113000
B1023575938529N01534445EA0116601240122000
B1024015938595N01534350EA0114401216130000
K102401180007
B1024055938666N01534241EA0112801200137000
B1024095938741N01534129EA0111401184139000
B1024135938812N01534016EA0110301168135000
B1024175938883N01533895EA0108501152142000
B1024215938962N01533770EA0106301128151000
K102421180008
B1024255939041N01533645EA0106701136144000
B1024295939116N01533529EA0106901136137000
B1024335939195N01533420EA0106501128138000
B1024375939270N01533316EA0106901136130000
B1024415939350N01533229EA0107101136131000
K102441180014
B1024455939425N01533129EA0107301136132000
B1024495939500N01533033EA0109301160121000
B1024535939562N01532950EA0111301184113000
B1024575939625N01532854EA0111801184118000
B1025015939683N01532762EA0114001208108000
K102501180014
B1025055939729N01532670EA0115501224095000
B1025095939716N01532550EA0115701224093000
B1025135939658N01532516EA0115801232093000
B1025175939604N01532600EA0116201232101000
B1025215939566N01532708EA0117201240101000
K102521180014
B1025255939554N01532833EA0117801248095000
B1025295939600N01532933EA0117801248098000
B1025335939662N01532991EA0118201256095000
B1025375939729N01533045EA0119201264092000
B1025415939791N01533095EA0120801272099000
K102541180013
B1025455939854N01533095EA0121301288095000
B1025495939858N01532983EA0121201280094000
B1025535939808N01532925EA0121401288090000
B1025575939754N01532966EA0122301296094000
B1026015939725N01533087EA0122501296095000
K102601180014
B1026055939704N01533212EA0123801312095000
B1026095939679N01533333EA0125701328090000
B1026135939633N01533362EA0126101336093000
B1026175939616N01533266EA0126801344084000
B1026215939650N01533187EA0127701352086000
K102621180014
B1026255939716N01533204EA0128401360085000
B1026295939754N01533304EA0129501368080000
B1026335939741N01533425EA0130001376086000
B1026375939695N01533483EA0130501384084000
B1026415939654N01533441EA0130801384086000
K102641218014
B1026455939658N01533341EA0131301392083000
B1026495939695N01533262EA0131901392088000
B1026535939754N01533195EA0132201400098000
B1026575939804N01533129EA0134001408094000
B1027015939812N01533033EA0134501424094000
K102701180014
B1027055939754N01533029EA0135101424093000
B1027095939729N01533145EA0136101440090000
B1027135939762N01533262EA0137001440091000
B1027175939820N01533254EA0137501448088000
B1027215939825N01533150EA0137901456092000
K102721250013
B1027255939775N01533104EA0138901464097000
B1027295939733N01533187EA0140201472088000
B1027335939754N01533312EA0141201488090000
B1027375939812N01533350EA0141701488087000
B1027415939854N01533279EA0142501496086000
K102741252013
B1027455939875N01533179EA0141501488090000
B1027495939900N01533066EA0140801480105000
B1027535939929N01532950EA0141301488097000
B1027575939962N01532829EA0141001488102000
B1028015939991N01532708EA0140601480106000
K102801180008
B1028055940025N01532579EA0140101480110000
B1028095940058N01532454EA0141201488100000
B1028135940095N01532341EA0141601496098000
B1028175940129N01532220EA0140501480112000
B1028215940166N01532087EA0140001472114000
K102821180005
B1028255940208N01531958EA0139501472118000
B1028295940245N01531825EA0138001456126000
B1028335940283N01531675EA0135801432137000
B1028375940329N01531525EA0135401432134000
B1028415940375N01531375EA0135101424132000
K102841180002
B1028455940416N01531229EA0134201416134000
B1028495940458N01531075EA0133701416132000
B1028535940500N01530920EA0132501400135000
B1028575940537N01530762EA0131701392137000
B1029015940579N01530604EA0130501376136000
K102901180004
B1029055940616N01530445EA0129401368137000
B1029095940658N01530291EA0128401360134000
B1029135940704N01530145EA0127801352123000
B1029175940758N01530008EA0126801336136000
B1029215940808N01529875EA0127401344123000
K102921180007
B1029255940854N01529745EA0129101360110000
B1029295940900N01529629EA0130801376105000
B1029335940941N01529520EA0132401392111000
B1029375940970N01529416EA0134501416087000
B1029415940937N01529329EA0134901416088000
K102941180009
B1029455940879N01529354EA0135301424096000
B1029495940854N01529462EA0135801432092000
B1029535940866N01529583EA0136701440088000
B1029575940920N01529650EA0137201448092000
B1030015940979N01529620EA0138101448096000
K103001180009
B1030055941037N01529575EA0139801464083000
B1030095941054N01529475EA0139801472088000
B1030135941020N01529387EA0139801472093000
B1030175940966N01529400EA0140501480085000
B1030215940933N01529495EA0141001480082000
K103021180009
B1030255940929N01529616EA0141101480095000
B1030295940979N01529700EA0141501488092000
B1030335941041N01529704EA0142701496088000
B1030375941104N01529683EA0142901504090000
B1030415941162N01529662EA0142801504091000
K103041180009
B1030455941229N01529629EA0142401496097000
B1030495941295N01529591EA0142301496103000
B1030535941366N01529554EA0143701512102000
B1030575941429N01529516EA0145501528095000
B1031015941495N01529479EA0145801528097000
K103101180010
B1031055941566N01529450EA0146101536097000
B1031095941637N01529433EA0144901528101000
B1031135941708N01529395EA0142301496118000
B1031175941783N01529308EA0140601480125000
B1031215941854N01529208EA0139901472122000
K103121180008
B1031255941925N01529108EA0139701472118000
B1031295941995N01529004EA0139501464122000
B1031335942066N01528900EA0139301464124000
B1031375942137N01528800EA0138601456122000
B1031415942204N01528700EA0137101448130000
K103141180011
B1031455942279N01528591EA0134601416135000
B1031495942354N01528487EA0133001400133000
B1031535942433N01528379EA0131501384136000
B1031575942508N01528262EA0129901368136000
B1032015942583N01528141EA0128401352140000
K103201180013
B1032055942662N01528016EA0127801352142000
B1032095942737N01527904EA0127501344138000
B1032135942808N01527783EA0127101344137000
B1032175942883N01527662EA0126401336136000
B1032215942954N01527541EA0126001328137000
K103221180013
B1032255943029N01527425EA0125501328133000
B1032295943100N01527304EA0124601320134000
B1032335943170N01527187EA0123801312134000
B1032375943241N01527075EA0123001304134000
B1032415943316N01526962EA0121601288136000
K103241180012
B1032455943391N01526845EA0120601272137000
B1032495943470N01526737EA0119901264136000
B1032535943545N01526625EA0119001256141000
B1032575943620N01526516EA0118901256130000
B1033015943700N01526416EA0118001248136000
K103301180013
B1033055943775N01526304EA0116401232139000
B1033095943854N01526191EA0115701224140000
B1033135943933N01526083EA0115101216140000
B1033175944012N01525970EA0114501216137000
B1033215944087N01525858EA0113001200142000
K103321180012
B1033255944166N01525750EA0112001184143000
B1033295944245N01525641EA0110901176138000
B1033335944325N01525529EA0109601160141000
B1033375944408N01525416EA0107701144158000
B1033415944491N01525312EA0110701176130000
K103341180015
B1033455944562N01525216EA0113401200115000
B1033495944629N01525129EA0114501216117000
B1033535944683N01525012EA0117201232108000
B1033575944704N01524904EA0118701256095000
B1034015944658N01524845EA0119401264091000
K103401180017
B1034055944616N01524904EA0120401272090000
B1034095944616N01525029EA0122701288091000
B1034135944670N01525091EA0124501312087000
B1034175944720N01525025EA0125501320087000
B1034215944708N01524925EA0125601320091000
K103421210015
B1034255944662N01524891EA0126801336086000
B1034295944625N01524966EA0127601344093000
B1034335944645N01525083EA0130101368092000
B1034375944708N01525050EA0131601384091000
B1034415944700N01524941EA0132801400088000
K103441196014
B1034455944650N01524962EA0133901408093000
B1034495944654N01525083EA0136001424093000
B1034535944716N01525112EA0137701448085000
B1034575944758N01525020EA0138901456087000
B1035015944737N01524925EA0140301472085000
K103501192014
B1035055944687N01524945EA0140601480092000
B1035095944683N01525066EA0142401496092000
B1035135944737N01525129EA0144201512082000
B1035175944791N01525075EA0145001520087000
B1035215944804N01524962EA0146301536088000
K103521188014
B1035255944758N01524916EA0146601536092000
B1035295944720N01524995EA0147001536096000
B1035335944733N01525125EA0149701568093000
B1035375944795N01525145EA0151201584088000
B1035415944833N01525041EA0151701584096000
K103541200015
B1035455944795N01524970EA0153101600093000
B1035495944754N01525041EA0154201616092000
B1035535944766N01525162EA0156201632096000
B1035575944829N01525204EA0157601648078000
B1036015944883N01525141EA0157801648095000
K103601198014
B1036055944879N01525029EA0159601672086000
B1036095944837N01525004EA0160301680087000
B1036135944800N01525083EA0160801680097000
B1036175944825N01525208EA0163201696095000
B1036215944879N01525262EA0163801712090000
K103621184016
B1036255944925N01525183EA0163801712094000
B1036295944912N01525070EA0165001720091000
B1036335944866N01525041EA0165901728087000
B1036375944829N01525116EA0166301736098000
B1036415944845N01525241EA0168201752094000
K103641194012
B1036455944912N01525266EA0169401768088000
B1036495944954N01525170EA0169501768085000
B1036535944941N01525062EA0170001776097000
B1036575944891N01525041EA0171001784093000
B1037015944854N01525125EA0171501792091000
K103701188014
B1037055944862N01525245EA0173601808089000
B1037095944916N01525308EA0174501824090000
B1037135944970N01525250EA0174701824094000
B1037175944962N01525137EA0175601832093000
B1037215944916N01525095EA0176501840092000
K103721196010
B1037255944879N01525170EA0177001840088000
B1037295944895N01525291EA0178401856088000
B1037335944954N01525333EA0178801864092000
B1037375945008N01525254EA0178201856094000
B1037415945058N01525150EA0178001856103000
K103741188009
B1037455945112N01525045EA0178201856108000
B1037495945175N01524941EA0177101848115000
B1037535945237N01524829EA0175401832120000
B1037575945304N01524704EA0174201816126000
B1038015945375N01524587EA0172701800127000
K103801180015
B1038055945450N01524466EA0170701784139000
B1038095945525N01524337EA0171101784129000
B1038135945595N01524229EA0171701792127000
B1038175945666N01524116EA0170201776129000
B1038215945741N01523987EA0168901760131000
K103821180018
B1038255945816N01523862EA0169801776124000
B1038295945883N01523754EA0170401784118000
B1038335945950N01523637EA0168201760131000
B1038375946025N01523512EA0166301736139000
B1038415946095N01523375EA0166001736138000
K103841180016
B1038455946162N01523245EA0165801736133000
B1038495946225N01523120EA0165101728132000
B1038535946287N01522991EA0164301720132000
B1038575946354N01522862EA0163501712133000
B1039015946416N01522733EA0163001704135000
K103901180009
B1039055946479N01522608EA0163001704127000
B1039095946541N01522495EA0163201704119000
B1039135946604N01522383EA0162701704123000
B1039175946670N01522266EA0161601688130000
B1039215946733N01522154EA0162301696120000
K103921180011
B1039255946791N01522037EA0161501688124000
B1039295946845N01521920EA0162301696114000
B1039335946900N01521812EA0162801704108000
B1039375946954N01521712EA0161901696117000
B1039415947016N01521600EA0161601688118000
K103941180007
B1039455947075N01521491EA0161901696115000
B1039495947137N01521395EA0161901696116000
B1039535947195N01521295EA0161301688109000
B1039575947258N01521200EA0158601664129000
B1040015947333N01521087EA0157501648129000
K104001180007
B1040055947408N01520983EA0156901640127000
B1040095947483N01520883EA0155501632127000
B1040135947558N01520775EA0153101600131000
B1040175947637N01520662EA0151601592132000
B1040215947716N01520545EA0149701568139000
K104021180016
B1040255947795N01520433EA0149301568136000
B1040295947875N01520329EA0149201560132000
B1040335947945N01520233EA0148701560123000
B1040375948020N01520125EA0147101544134000
B1040415948095N01520012EA0146201536131000
K104041180014
B1040455948170N01519908EA0145801528131000
B1040495948241N01519804EA0146501536120000
B1040535948308N01519708EA0146801544114000
B1040575948370N01519608EA0146301536117000
B1041015948437N01519500EA0145501528122000
K104101180012
B1041055948504N01519391EA0145901528122000
B1041095948566N01519300EA0147601544113000
B1041135948625N01519208EA0147801552111000
B1041175948683N01519112EA0147601552109000
B1041215948741N01519020EA0147101544114000
K104121180009
B1041255948804N01518925EA0146101536122000
B1041295948870N01518833EA0144801520123000
B1041335948937N01518733EA0143301504125000
B1041375949012N01518650EA0143101504126000
B1041415949087N01518562EA0142801496121000
K104141180008
B1041455949158N01518475EA0142601496126000
B1041495949229N01518395EA0142301496117000
B1041535949300N01518312EA0141801488123000
B1041575949375N01518233EA0140301472125000
B1042015949454N01518150EA0138401456135000
K104201180007
B1042055949529N01518062EA0138001448127000
B1042095949604N01517966EA0136901440123000
B1042135949679N01517875EA0136501432132000
B1042175949758N01517787EA0135901432126000
B1042215949833N01517700EA0135401424128000
K104221180009
B1042255949908N01517608EA0135201424125000
B1042295949979N01517508EA0135801424127000
B1042335950050N01517420EA0138201448114000
B1042375950112N01517341EA0139601464104000
B1042415950175N01517262EA0140101472107000
K104241180012
B1042455950237N01517191EA0140801480105000
B1042495950304N01517120EA0140401472109000
B1042535950370N01517041EA0140301472111000
B1042575950441N01516954EA0138901464116000
B1043015950512N01516858EA0136601432129000
K104301180011
B1043055950570N01516729EA0135101416126000
B1043095950612N01516575EA0134301416127000
B1043135950654N01516425EA0133101400127000
B1043175950695N01516275EA0131901392126000
B1043215950737N01516116EA0130401376132000
K104321180010
B1043255950775N01515958EA0129501360132000
B1043295950812N01515800EA0128201352130000
B1043335950854N01515645EA0127301336126000
B1043375950900N01515495EA0126201328125000
B1043415950941N01515341EA0123701304137000
K104341180010
B1043455950987N01515166EA0122901296138000
B1043495951029N01515000EA0122101288134000
B1043535951070N01514837EA0120901272133000
B1043575951112N01514675EA0119901264141000
B1044015951154N01514512EA0119301256126000
K104401180012
B1044055951187N01514358EA0118801256132000
B1044095951225N01514200EA0116501232138000
B1044135951258N01514033EA0115401216138000
B1044175951295N01513866EA0114101208138000
B1044215951333N01513704EA0113001192136000
K104421180006
B1044255951366N01513541EA0112001184134000
B1044295951404N01513379EA0111401176134000
B1044335951437N01513216EA0111001176135000
B1044375951475N01513062EA0110501168128000
B1044415951512N01512916EA0109101152131000
K104441180005
B1044455951554N01512766EA0107401136132000
B1044495951595N01512608EA0106101128135000
B1044535951637N01512450EA0105301112137000
B1044575951679N01512300EA0104301104131000
B1045015951720N01512145EA0103001096134000
K104501180005
B1045055951758N01511991EA0101801080132000
B1045095951795N01511833EA0101401080132000
B1045135951833N01511675EA0100301064138000
B1045175951866N01511520EA0101001072124000
B1045215951900N01511383EA0103001096118000
K104521180006
B1045255951925N01511254EA0103101096111000
B1045295951958N01511108EA0100901072126000
B1045335951991N01510950EA0101301072123000
B1045375952029N01510804EA0102401088116000
B1045415952062N01510658EA0104201104107000
K104541180014
B1045455952100N01510525EA0106401128103000
B1045495952129N01510400EA0107901144088000
B1045535952162N01510279EA0108201144100000
B1045575952200N01510154EA0108501152104000
B1046015952233N01510020EA0105901120126000
K104601180009
B1046055952275N01509870EA0104501112129000
B1046095952325N01509733EA0103801104125000
B1046135952379N01509595EA0101801080135000
B1046175952433N01509450EA0100901072134000
B1046215952491N01509312EA0100701072130000
K104621180010
B1046255952550N01509170EA0100301064133000
B1046295952604N01509025EA0101501080129000
B1046335952654N01508900EA0102301088117000
B1046375952704N01508775EA0100701072128000
B1046415952758N01508637EA0099201056137000
K104641180007
B1046455952820N01508508EA0099701056133000
B1046495952883N01508379EA0100101064127000
B1046535952941N01508258EA0099901064127000
B1046575953004N01508133EA0098601048131000
B1047015953070N01508016EA0097701040130000
K104701180011
B1047055953141N01507900EA0096501024131000
B1047095953212N01507775EA0095401016133000
B1047135953283N01507645EA0093901000133000
B1047175953350N01507512EA0092200976142000
B1047215953420N01507379EA0091600976141000
K104721180015
B1047255953495N01507258EA0092700984132000
B1047295953558N01507145EA0095101008118000
B1047335953620N01507045EA0097001032111000
B1047375953675N01506962EA0099201056098000
B1047415953725N01506887EA0099601056098000
K104741180013
B1047455953775N01506808EA0099501056103000
B1047495953829N01506720EA0099701056101000
B1047535953879N01506629EA0099301056104000
B1047575953904N01506504EA0098801048105000
B1048015953887N01506375EA0098401048108000
K104801180007
B1048055953833N01506287EA0098001040110000
B1048095953770N01506220EA0097201032114000
B1048135953708N01506154EA0097101032116000
B1048175953645N01506095EA0097001032114000
B1048215953575N01506075EA0096201024114000
K104821180004
B1048255953537N01506191EA0095001008119000
B1048295953562N01506341EA0094301000119000
B1048335953612N01506470EA0094201000114000
B1048375953662N01506604EA0095001008118000
B1048415953712N01506733EA0095801016115000
K104841180005
B1048455953758N01506862EA0095601016120000
B1048495953804N01506995EA0095501016122000
B1048535953854N01507125EA0096601024115000
B1048575953895N01507258EA0097501032116000
B1049015953937N01507383EA0099201056107000
K104901180012
B1049055953979N01507508EA0100301064107000
B1049095954016N01507629EA0101301080103000
B1049135954054N01507745EA0102401088098000
B1049175954095N01507875EA0102201088105000
B1049215954133N01508000EA0102601088102000
K104921180015
B1049255954175N01508125EA0102701088108000
B1049295954216N01508245EA0103601096102000
B1049335954287N01508283EA0102701088108000
B1049375954337N01508170EA0102601088109000
B1049415954345N01508033EA0102101088110000
K104941180015
B1049455954350N01507891EA0101301080112000
B1049495954350N01507745EA0100901072117000
B1049535954329N01507604EA0099901064124000
B1049575954287N01507475EA0099901064122000
B1050015954225N01507395EA0100601072124000
K105001180013
B1050055954150N01507408EA0101101072119000
B1050095954079N01507441EA0101901080120000
B1050135954012N01507466EA0103201096112000
B1050175953941N01507479EA0103401096115000
B1050215953875N01507479EA0104001104110000
K105021180005
B1050255953808N01507483EA0105001112112000
B1050295953750N01507483EA0106401136104000
B1050335953691N01507479EA0105401120109000
B1050375953629N01507462EA0104801112108000
B1050415953595N01507345EA0103701096114000
K105041000008
B1050455953641N01507212EA0102101080125000
B1050495953716N01507120EA0101401080134000
B1050535953795N01507037EA0101201072129000
B1050575953866N01506950EA0101801080121000
B1051015953941N01506866EA0101401080124000
K105101180000
B1051055954016N01506775EA0101801080123000
B1051095954087N01506695EA0102701088119000
B1051135954158N01506620EA0103501096111000
