ACAM3X6
HFDTE040710
HFFXA050
HFPLTPILOT:Peter Cutting           
HFGTYGLIDERTYPE:LS 8        
HFGIDGLIDERID:P           
HFDTM100GPSDATUM:
HFRFWFIRMWAREVERSION:F2.6
HFRHWHARDWAREVERSION:300 Series Version 2
HFFTYFRTYPE:CAMBRIDGE AERO INSTRUMENTS, 302+
HFGPS:GARMIN,LVS-25,12,18000
HFPRSPRESSALTSENSOR:INTERSEMA, MS5534-AP, 20000
I033638FXA3941ENL4247REX
LCAMSBVER:5FWVER:F26300
C040710080129040710000104
C0000000N00000000WTAKEOFF     
C5958433N01727550EStart-Alpha 
C6015650N01712633EToften      
C5952217N01632883EKila        
C6003833N01705217ERaaksjoen   
C5951400N01726333EBrunna      
C5955233N01731833EFinnishline 
C0000000N00000000WLANDING     
B1234515955506N01732337EA-000100020000560000000
B1234535955506N01732337EA0000000020000556000000
B1234555955506N01732337EA-000200020000564000000
B1234575955506N01732337EA-000200020000568000000
B1234595955506N01732337EA-000100020000568000000
B1235015955506N01732337EA-000100019000568000000
B1235035955506N01732337EA-000100019000564000000
B1235055955506N01732337EA-000100019000564000000
B1235075955506N01732337EA0000000019000564000000
B1235095955506N01732337EA-000100019000568000000
B1235115955506N01732337EA-000100019000564000000
B1235135955506N01732337EA-000100019000560000000
B1235155955506N01732337EA-000100019000560000000
B1235175955506N01732336EA0000000020000560000000
B1235195955503N01732332EA-000100020000580000000
B1235245955490N01732296EA-000100019000800000000
B1235305955459N01732205EA0000200020000996000000
B1235365955413N01732070EA0000400021000984000000
B1235425955352N01731905EA0000300024000840000000
B1235485955283N01731730EA0001300042000788000000
B1235545955214N01731565EA0003900067000772000000
B1236005955148N01731413EA0006200096000760000000
B1236065955084N01731256EA0008500116000748000000
B1236125955023N01731095EA0010500136000716000000
B1236185954956N01730932EA0012300155000716000000
B1236245954892N01730754EA0014000176000724000000
B1236305954830N01730579EA0017000208000736000000
B1236365954768N01730402EA0019000223000744000000
B1236425954707N01730230EA0020300237000740000000
B1236485954649N01730053EA0021700247000740000000
B1236545954592N01729874EA0022600259000716000000
B1237005954537N01729689EA0023100266000712000000
B1237065954482N01729506EA0024300276000712000000
B1237125954428N01729325EA0025900297000656000000
B1237185954375N01729152EA0028900332000624000000
B1237245954319N01728989EA0032300361000612000000
B1237305954269N01728814EA0033800378000600000000
B1237365954213N01728642EA0035500398000596000000
B1237425954160N01728465EA0038100427000592000000
B1237485954109N01728284EA0041000457000588000000
B1237545954063N01728094EA0043600481000588000000
B1238005954024N01727893EA0045600502000592000000
B1238065954020N01727669EA0047500520000588000000
B1238125954043N01727440EA0048600532000588000000
B1238185954082N01727217EA0050000550000584000000
B1238245954116N01726989EA0051800572000584000000
B1238305954157N01726762EA0055000604000588000000
B1238365954198N01726537EA0057800628000588000000
B1238425954239N01726313EA0059100641000588000000
B1238485954281N01726083EA0060100651000584000000
B1238545954326N01725856EA0061300666000580000000
B1239005954372N01725632EA0062600682000576000000
B1239065954415N01725410EA0064300699000576000000
B1239125954462N01725187EA0065900714000580000000
B1239185954510N01724963EA0067700732000580000000
B1239245954553N01724739EA0069600754000580000000
B1239305954546N01724536EA0070000748000568000000
B1239365954559N01724320EA0069100742000564000000
B1239425954618N01724115EA0068400731000560000000
B1239485954697N01723921EA0067000716000552000000
B1239545954791N01723742EA0065400694000552000000
B1240005954906N01723548EA0060700669000720000000
B1240065954999N01723417EA0066300725000996000000
B1240125955078N01723286EA0066500710000996000000
B1240185955148N01723117EA0065500708000996000000
B1240245955204N01722944EA0066100718000996000000
B1240305955252N01722779EA0066800722000996000000
B1240365955299N01722611EA0067600729000996000000
B1240425955342N01722434EA0068400738000996000000
B1240485955359N01722252EA0069100747000996000000
B1240545955350N01722066EA0070500766000996000000
B1241005955394N01721884EA0072600785000996000000
B1241065955473N01721745EA0074400801000996000000
B1241125955534N01721598EA0074600796000780000000
B1241185955587N01721441EA0073800788000648000000
B1241245955637N01721278EA0073100780000568000000
B1241305955678N01721112EA0072300771000528000000
B1241365955719N01720936EA0071100757000512000000
B1241425955755N01720726EA0068700733000508000000
B1241485955786N01720488EA0066900713000504000000
B1241545955823N01720249EA0067100741000512000000
B1242005955858N01720025EA0068100726000508000000
B1242065955888N01719789EA0068200754000512000000
B1242125955877N01719584EA0070700755000504000000
B1242185955867N01719371EA0070700765000504000000
B1242245955806N01719279EA0072800786000500000000
B1242305955785N01719422EA0074200791000496000000
B1242365955871N01719544EA0074700807000492000000
B1242425955967N01719445EA0076000814000488000000
B1242485955962N01719259EA0076800824000488000000
B1242545955892N01719222EA0077800836000488000000
B1243005955855N01719341EA0078500843000488000000
B1243065955942N01719430EA0080000861000488000000
B1243125955998N01719278EA0081500871000484000000
B1243185955946N01719153EA0081800876000484000000
B1243245955886N01719202EA0082500883000484000000
B1243305955937N01719352EA0083300890000480000000
B1243365956046N01719297EA0084700910000480000000
B1243425956072N01719106EA0085000905000484000000
B1243485956016N01718977EA0085100908000492000000
B1243545955961N01719066EA0085300910000492000000
B1244005955928N01719218EA0085100912000488000000
B1244065955916N01719383EA0085900920000484000000
B1244125956005N01719486EA0087800942000484000000
B1244185956068N01719326EA0089100949000480000000
B1244245956018N01719200EA0089100950000484000000
B1244305955951N01719269EA0089900959000480000000
B1244365955985N01719439EA0090600971000472000000
B1244425956094N01719440EA0091600982000468000000
B1244485956149N01719253EA0092400984000472000000
B1244545956110N01719087EA0093100994000472000000
B1245005956050N01719136EA0094001000000468000000
B1245065955994N01719245EA0092900987000472000000
B1245125955916N01719256EA0092500981000480000000
B1245185955831N01719230EA0091100969000472000000
B1245245955749N01719171EA0091700993000472000000
B1245305955677N01719145EA0093801000000468000000
B1245365955654N01719305EA0093200989000464000000
B1245425955750N01719439EA0093200990000472000000
B1245485955873N01719493EA0093200992000472000000
B1245545955912N01719319EA0095301015000472000000
B1246005955847N01719275EA0095201013000472000000
B1246065955801N01719391EA0095601022000464000000
B1246125955854N01719553EA0096401022000460000000
B1246185955967N01719609EA0096901035000460000000
B1246245956063N01719532EA0097801043000456000000
B1246305956029N01719408EA0098601051000456000000
B1246365955994N01719514EA0099501057000452000000
B1246425956063N01719660EA0099701060000452000000
B1246485956185N01719691EA0099801058000456000000
B1246545956310N01719685EA0099401055000460000000
B1247005956427N01719633EA0101301081000452000000
B1247065956455N01719443EA0102001088000452000000
B1247125956390N01719374EA0103301097000452000000
B1247185956351N01719495EA0102801093000444000000
B1247245956395N01719669EA0101801081000444000000
B1247305956501N01719770EA0101801095000444000000
B1247365956586N01719664EA0104201108000440000000
B1247425956557N01719496EA0104001106000440000000
B1247485956483N01719535EA0105001118000440000000
B1247545956479N01719714EA0105401117000444000000
B1248005956540N01719896EA0104801113000444000000
B1248065956657N01719981EA0104501119000444000000
B1248125956746N01719873EA0107201140000440000000
B1248185956698N01719755EA0107701146000436000000
B1248245956650N01719873EA0108501156000432000000
B1248305956716N01720020EA0108901157000432000000
B1248365956833N01720023EA0109601163000432000000
B1248425956949N01719926EA0109101161000432000000
B1248485957060N01719800EA0108601157000432000000
B1248545957166N01719657EA0108801155000432000000
B1249005957262N01719496EA0108901160000436000000
B1249065957331N01719301EA0108801158000436000000
B1249125957341N01719080EA0108501152000436000000
B1249185957287N01718934EA0108501150000432000000
B1249245957205N01718931EA0107601143000428000000
B1249305957170N01719077EA0107601140000428000000
B1249365957233N01719240EA0107201136000428000000
B1249425957348N01719193EA0105901122000428000000
B1249485957388N01718981EA0104501099000428000000
B1249545957372N01718708EA0098401035000436000000
B1250005957332N01718417EA0097001031000440000000
B1250065957293N01718141EA0097901051000444000000
B1250125957255N01717902EA0100501070000440000000
B1250185957218N01717667EA0100001054000436000000
B1250245957181N01717421EA0099401072000432000000
B1250305957154N01717195EA0101701070000432000000
B1250365957121N01716927EA0097301023000432000000
B1250425957088N01716644EA0095601008000428000000
B1250485957053N01716355EA0092800981000424000000
B1250545957032N01716099EA0094801044000424000000
B1251005956994N01715944EA0099201062000420000000
B1251065956930N01716021EA0100701073000416000000
B1251125956958N01716199EA0101401079000412000000
B1251185957066N01716234EA0101301074000408000000
B1251245957144N01716087EA0100801070000408000000
B1251305957186N01715891EA0101301083000412000000
B1251365957175N01715723EA0102301089000408000000
B1251425957103N01715761EA0103501106000408000000
B1251485957124N01715937EA0105301123000404000000
B1251545957229N01715955EA0105801122000404000000
B1252005957262N01715787EA0106501133000400000000
B1252065957218N01715661EA0107501141000404000000
B1252125957164N01715751EA0109001159000400000000
B1252185957233N01715892EA0109901167000404000000
B1252245957320N01715800EA0110001167000400000000
B1252305957323N01715626EA0110801179000404000000
B1252365957263N01715578EA0111601189000400000000
B1252425957259N01715738EA0113701208000400000000
B1252485957362N01715786EA0114801222000400000000
B1252545957401N01715625EA0116001234000400000000
B1253005957341N01715531EA0116501241000400000000
B1253065957298N01715657EA0118501263000400000000
B1253125957370N01715790EA0120701286000396000000
B1253185957457N01715703EA0122201295000396000000
B1253245957448N01715536EA0123101303000400000000
B1253305957376N01715565EA0123601319000400000000
B1253365957393N01715734EA0125601336000396000000
B1253425957493N01715813EA0127301352000396000000
B1253485957580N01715707EA0128401360000396000000
B1253545957563N01715540EA0129301367000400000000
B1254005957484N01715540EA0130301380000400000000
B1254065957491N01715717EA0132201401000392000000
B1254125957593N01715761EA0133501417000392000000
B1254185957653N01715621EA0135501432000388000000
B1254245957605N01715517EA0135901439000388000000
B1254305957537N01715597EA0136801447000388000000
B1254365957558N01715778EA0138601464000388000000
B1254425957660N01715843EA0139601477000392000000
B1254485957743N01715720EA0140901491000388000000
B1254545957713N01715567EA0141601499000388000000
B1255005957638N01715609EA0142701509000388000000
B1255065957648N01715796EA0143901522000384000000
B1255125957747N01715886EA0144501529000384000000
B1255185957846N01715801EA0145701539000384000000
B1255245957866N01715612EA0145901542000388000000
B1255305957809N01715483EA0146601550000392000000
B1255365957731N01715527EA0147801558000388000000
B1255425957714N01715707EA0148501567000392000000
B1255485957777N01715874EA0149101571000396000000
B1255545957878N01715983EA0150001583000396000000
B1256005957990N01716017EA0150401589000396000000
B1256065958076N01715891EA0151101594000392000000
B1256125958070N01715718EA0151801602000392000000
B1256185958000N01715657EA0152101602000392000000
B1256245957931N01715752EA0152501607000388000000
B1256305957940N01715957EA0152701609000388000000
B1256365958038N01716128EA0152001601000392000000
B1256425958180N01716165EA0151301595000396000000
B1256485958302N01716034EA0151201601000392000000
B1256545958321N01715816EA0152801616000392000000
B1257005958252N01715683EA0153901620000392000000
B1257065958151N01715669EA0153001612000400000000
B1257125958054N01715773EA0152801615000404000000
B1257185957998N01715976EA0153701628000408000000
B1257245958015N01716237EA0152401593000396000000
B1257305958026N01716506EA0151401599000384000000
B1257365958013N01716753EA0151601600000380000000
B1257425958054N01716987EA0152701612000376000000
B1257485958161N01717131EA0153201612000380000000
B1257545958295N01717147EA0153001611000380000000
B1258005958410N01717022EA0152301602000376000000
B1258065958468N01716806EA0151701596000376000000
B1258125958464N01716578EA0150001578000376000000
B1258185958453N01716349EA0148801570000380000000
B1258245958459N01716130EA0150001582000376000000
B1258305958424N01715957EA0150501591000376000000
B1258365958341N01715909EA0151301596000376000000
B1258425958256N01715990EA0151201592000380000000
B1258485958233N01716180EA0151201595000376000000
B1258545958310N01716337EA0150401578000372000000
B1259005958428N01716372EA0149301569000372000000
B1259065958542N01716308EA0148301563000376000000
B1259125958623N01716163EA0147701555000376000000
B1259185958650N01715960EA0146901554000380000000
B1259245958600N01715820EA0148201567000376000000
B1259305958518N01715791EA0148701566000376000000
B1259365958445N01715890EA0149201571000380000000
B1259425958432N01716082EA0148301560000380000000
B1259485958493N01716269EA0146601545000376000000
B1259545958587N01716412EA0145801533000376000000
B1300005958693N01716516EA0144701524000372000000
B1300065958813N01716532EA0143301508000372000000
B1300125958928N01716475EA0142201502000380000000
B1300185959023N01716354EA0141801494000380000000
B1300245959091N01716182EA0140901489000384000000
B1300305959110N01715998EA0141501496000384000000
B1300365959117N01715817EA0142001504000380000000
B1300425959109N01715644EA0143001512000376000000
B1300485959074N01715483EA0143401515000376000000
B1300545959012N01715375EA0145001535000372000000
B1301005958938N01715374EA0146501543000376000000
B1301065958899N01715526EA0146401547000380000000
B1301125958914N01715720EA0148201560000380000000
B1301185958967N01715913EA0146601543000376000000
B1301245959060N01716048EA0147201561000380000000
B1301305959160N01716129EA0148001553000380000000
B1301365959278N01716238EA0146201546000376000000
B1301425959399N01716285EA0147401556000376000000
B1301485959487N01716176EA0147601553000380000000
B1301545959498N01715996EA0147501554000384000000
B1302005959438N01715885EA0147601556000380000000
B1302065959357N01715859EA0148101568000376000000
B1302125959295N01715983EA0149101574000376000000
B1302185959326N01716185EA0151301598000372000000
B1302245959433N01716264EA0151701598000380000000
B1302305959525N01716162EA0151401588000376000000
B1302365959524N01715983EA0150901593000376000000
B1302425959455N01715913EA0151701605000376000000
B1302485959377N01715985EA0152301608000376000000
B1302545959354N01716176EA0153701620000376000000
B1303005959394N01716393EA0153101613000376000000
B1303065959491N01716533EA0152601608000380000000
B1303125959615N01716580EA0151601593000380000000
B1303185959721N01716488EA0150801589000380000000
B1303245959783N01716308EA0150001580000380000000
B1303305959805N01716111EA0150301586000380000000
B1303365959762N01715967EA0151101594000380000000
B1303425959682N01715947EA0151301593000380000000
B1303485959619N01716078EA0151801603000376000000
B1303545959614N01716288EA0152501607000372000000
B1304005959638N01716513EA0152801610000376000000
B1304065959636N01716737EA0151601589000376000000
B1304125959636N01716997EA0148501565000376000000
B1304185959645N01717251EA0149601596000376000000
B1304245959659N01717469EA0151101590000376000000
B1304305959667N01717707EA0150501587000372000000
B1304365959672N01717945EA0150201583000376000000
B1304425959666N01718162EA0150601591000372000000
B1304485959658N01718370EA0151101596000376000000
B1304545959675N01718577EA0152301605000372000000
B1305005959747N01718747EA0152001605000372000000
B1305065959861N01718790EA0152001601000376000000
B1305125959946N01718677EA0151701594000376000000
B1305185959952N01718511EA0150701588000372000000
B1305245959894N01718412EA0150801587000372000000
B1305305959816N01718394EA0150501587000372000000
B1305365959745N01718494EA0150501585000372000000
B1305425959725N01718685EA0149801576000368000000
B1305485959810N01718825EA0148901563000368000000
B1305545959924N01718765EA0147601555000368000000
B1306005959993N01718604EA0147401554000368000000
B1306065959967N01718447EA0147701558000368000000
B1306125959890N01718472EA0147901554000376000000
B1306185959819N01718594EA0146601538000376000000
B1306245959733N01718743EA0142101495000372000000
B1306305959632N01718901EA0140901495000376000000
B1306365959542N01719053EA0142301499000376000000
B1306425959454N01719197EA0141701496000372000000
B1306485959365N01719352EA0140801488000372000000
B1306545959283N01719501EA0141001491000368000000
B1307005959204N01719649EA0140601486000368000000
B1307065959129N01719812EA0139501472000364000000
B1307125959045N01719968EA0138501468000368000000
B1307185958957N01720052EA0138901473000368000000
B1307245958873N01719997EA0139701479000368000000
B1307305958811N01719854EA0140401487000376000000
B1307365958730N01719843EA0141601498000376000000
B1307425958694N01719997EA0141501492000380000000
B1307485958745N01720186EA0140901488000376000000
B1307545958826N01720328EA0142301500000372000000
B1308005958921N01720245EA0142301504000372000000
B1308065958900N01720075EA0142101500000372000000
B1308125958826N01720107EA0142701508000372000000
B1308185958772N01720255EA0142101496000376000000
B1308245958763N01720471EA0141501489000380000000
B1308305958749N01720699EA0138801461000380000000
B1308365958672N01720881EA0136201436000380000000
B1308425958575N01720994EA0136101444000376000000
B1308485958490N01721102EA0136301443000372000000
B1308545958425N01721246EA0135901433000368000000
B1309005958364N01721398EA0136001449000372000000
B1309065958303N01721497EA0137401448000376000000
B1309125958221N01721440EA0135701433000372000000
B1309185958152N01721297EA0135501443000372000000
B1309245958100N01721148EA0135801419000372000000
B1309305958035N01720956EA0132301401000372000000
B1309365957983N01720775EA0134101426000372000000
B1309425957917N01720639EA0134401427000372000000
B1309485957839N01720652EA0136001437000372000000
B1309545957856N01720839EA0135801430000368000000
B1310005957960N01720917EA0136201442000372000000
B1310065958034N01720779EA0136801445000372000000
B1310125957987N01720647EA0137401450000376000000
B1310185957937N01720765EA0137701457000376000000
B1310245957985N01720944EA0138701462000376000000
B1310305958094N01720949EA0138001463000372000000
B1310365958112N01720774EA0140001480000368000000
B1310425958047N01720771EA0139701472000368000000
B1310485958054N01720944EA0140101478000372000000
B1310545958129N01721086EA0140501478000372000000
B1311005958217N01721222EA0140301484000372000000
B1311065958219N01721410EA0141401490000376000000
B1311125958142N01721421EA0140801482000380000000
B1311185958146N01721235EA0139401467000376000000
B1311245958223N01721073EA0138901466000376000000
B1311305958338N01721043EA0139301472000376000000
B1311365958385N01721206EA0140201477000376000000
B1311425958319N01721297EA0139701480000376000000
B1311485958280N01721165EA0139901473000376000000
B1311545958376N01721063EA0139301473000376000000
B1312005958479N01721181EA0140701484000376000000
B1312065958481N01721372EA0140201477000376000000
B1312125958434N01721551EA0139901478000376000000
B1312185958377N01721727EA0138901465000376000000
B1312245958324N01721909EA0138801466000368000000
B1312305958282N01722104EA0138101462000372000000
B1312365958260N01722320EA0138801469000376000000
B1312425958230N01722526EA0138801468000376000000
B1312485958191N01722715EA0139701477000372000000
B1312545958151N01722889EA0139901477000364000000
B1313005958109N01723066EA0139401475000364000000
B1313065958065N01723240EA0139601475000364000000
B1313125958018N01723409EA0139501474000360000000
B1313185957974N01723577EA0139301473000360000000
B1313245957927N01723741EA0138701469000360000000
B1313305957878N01723900EA0138501463000368000000
B1313365957831N01724063EA0138001458000368000000
B1313425957784N01724229EA0137401452000372000000
B1313485957740N01724400EA0137201452000372000000
B1313545957744N01724601EA0137601454000372000000
B1314005957807N01724790EA0137601450000376000000
B1314065957913N01724911EA0136701445000380000000
B1314125958043N01724890EA0136001427000380000000
B1314185958168N01724738EA0133001397000380000000
B1314245958288N01724535EA0130401376000384000000
B1314305958403N01724313EA0129101363000384000000
B1314365958518N01724084EA0128301354000388000000
B1314425958629N01723859EA0127801353000388000000
B1314485958733N01723637EA0128301357000388000000
B1314545958835N01723410EA0127701350000388000000
B1315005958934N01723184EA0127301342000388000000
B1315065959034N01722954EA0125501327000388000000
B1315125959140N01722732EA0125301329000384000000
B1315185959246N01722522EA0125501322000384000000
B1315245959351N01722300EA0123701302000384000000
B1315305959452N01722066EA0121401277000388000000
B1315365959558N01721839EA0122201305000392000000
B1315425959667N01721664EA0124601331000388000000
B1315485959764N01721585EA0129101354000388000000
B1315545959896N01721510EA0123801297000388000000
B1316006000063N01721459EA0120501272000388000000
B1316066000236N01721428EA0120201283000396000000
B1316126000381N01721410EA0124401315000396000000
B1316186000533N01721362EA0121001264000396000000
B1316246000693N01721264EA0120101275000400000000
B1316306000850N01721182EA0119201258000400000000
B1316366001021N01721124EA0116301235000400000000
B1316426001194N01721104EA0116301232000436000000
B1316486001365N01721108EA0116101234000472000000
B1316546001531N01721109EA0115701222000480000000
B1317006001701N01721103EA0113801206000484000000
B1317066001873N01721095EA0113101207000500000000
B1317126002038N01721094EA0114801224000504000000
B1317186002198N01721102EA0114701203000504000000
B1317246002367N01721104EA0112101186000504000000
B1317306002529N01721100EA0112201191000500000000
B1317366002688N01721091EA0111901174000500000000
B1317426002853N01721121EA0110201170000496000000
B1317486003001N01721225EA0110401163000492000000
B1317546003144N01721339EA0111101181000500000000
B1318006003289N01721440EA0110301170000500000000
B1318066003407N01721492EA0115201223000492000000
B1318126003532N01721541EA0112401176000496000000
B1318186003690N01721610EA0108701154000500000000
B1318246003823N01721658EA0113301220000492000000
B1318306003930N01721714EA0116101219000488000000
B1318366004053N01721779EA0113401184000488000000
B1318426004206N01721709EA0108901149000488000000
B1318486004360N01721580EA0107801153000496000000
B1318546004500N01721459EA0109401160000496000000
B1319006004646N01721345EA0107601129000492000000
B1319066004801N01721235EA0105501122000492000000
B1319126004951N01721138EA0105001111000492000000
B1319186005110N01721050EA0102701090000496000000
B1319246005249N01720998EA0106701143000500000000
B1319306005391N01720996EA0105701114000500000000
B1319366005536N01721001EA0105801106000492000000
B1319426005701N01720930EA0100101056000492000000
B1319486005847N01720835EA0103301113000496000000
B1319546005964N01720748EA0105901127000500000000
B1320006006072N01720623EA0105001106000492000000
B1320066006153N01720410EA0103601087000492000000
B1320126006229N01720159EA0101501076000496000000
B1320186006288N01719960EA0105501121000496000000
B1320246006348N01719755EA0103601107000496000000
B1320306006450N01719660EA0106901129000496000000
B1320366006576N01719617EA0104101096000500000000
B1320426006704N01719471EA0101101071000496000000
B1320486006816N01719331EA0104401112000488000000
B1320546006908N01719168EA0104001103000488000000
B1321006007004N01718988EA0100901053000492000000
B1321066007130N01718801EA0097801038000492000000
B1321126007256N01718642EA0098701046000488000000
B1321186007389N01718499EA0097201031000488000000
B1321246007524N01718360EA0096501024000488000000
B1321306007664N01718227EA0094801003000488000000
B1321366007802N01718086EA0094401003000488000000
B1321426007935N01717936EA0093400990000488000000
B1321486008066N01717777EA0091700971000492000000
B1321546008192N01717615EA0091000964000488000000
B1322006008321N01717454EA0090100956000488000000
B1322066008450N01717280EA0088900953000488000000
B1322126008568N01717113EA0090800967000496000000
B1322186008667N01716956EA0093501006000488000000
B1322246008727N01716770EA0094200986000484000000
B1322306008825N01716561EA0090600964000488000000
B1322366008948N01716375EA0089700951000492000000
B1322426009083N01716199EA0087700934000488000000
B1322486009219N01716026EA0086700925000488000000
B1322546009353N01715857EA0086000915000488000000
B1323006009483N01715688EA0085400913000492000000
B1323066009612N01715519EA0085100903000492000000
B1323126009739N01715339EA0083400878000492000000
B1323186009871N01715150EA0081300871000496000000
B1323246009999N01714967EA0080900855000496000000
B1323306010129N01714790EA0080900868000496000000
B1323366010227N01714673EA0086200924000488000000
B1323426010339N01714552EA0082400864000496000000
B1323486010456N01714420EA0083400908000492000000
B1323546010566N01714286EA0082900872000492000000
B1324006010686N01714123EA0082700895000492000000
B1324066010799N01713961EA0083200869000492000000
B1324126010925N01713781EA0081900879000492000000
B1324186011046N01713611EA0081400859000488000000
B1324246011176N01713437EA0079500845000488000000
B1324306011310N01713264EA0078000826000484000000
B1324366011450N01713083EA0075600804000488000000
B1324426011579N01712902EA0076800824000492000000
B1324486011698N01712731EA0076700815000488000000
B1324546011819N01712545EA0075600800000488000000
B1325006011953N01712379EA0073900784000488000000
B1325066012104N01712301EA0074000793000488000000
B1325126012238N01712243EA0075600812000492000000
B1325186012364N01712178EA0075200800000496000000
B1325246012487N01712109EA0076100817000492000000
B1325306012606N01712050EA0076000806000492000000
B1325366012728N01711968EA0074900797000492000000
B1325426012810N01711788EA0074700797000496000000
B1325486012818N01711593EA0075300805000492000000
B1325546012740N01711547EA0076300815000484000000
B1326006012686N01711686EA0076100811000484000000
B1326066012695N01711891EA0076500814000484000000
B1326126012725N01712104EA0075700797000484000000
B1326186012801N01712319EA0073700776000480000000
B1326246012913N01712496EA0071600757000480000000
B1326306013054N01712601EA0069400736000480000000
B1326366013206N01712636EA0068600734000476000000
B1326426013356N01712618EA0068400731000476000000
B1326486013505N01712568EA0067300718000480000000
B1326546013650N01712496EA0067100716000488000000
B1327006013782N01712388EA0067000713000488000000
B1327066013912N01712276EA0066500710000484000000
B1327126014046N01712177EA0066100711000484000000
B1327186014179N01712087EA0065400696000488000000
B1327246014268N01711909EA0065600703000488000000
B1327306014252N01711706EA0066900720000488000000
B1327366014175N01711697EA0069000739000488000000
B1327426014188N01711885EA0070300750000492000000
B1327486014301N01711903EA0070900752000488000000
B1327546014344N01711712EA0070700768000492000000
B1328006014324N01711560EA0073800791000484000000
B1328066014274N01711664EA0075300802000488000000
B1328126014357N01711773EA0077300824000488000000
B1328186014430N01711626EA0078800846000484000000
B1328246014397N01711493EA0080900864000480000000
B1328306014353N01711614EA0082900884000476000000
B1328366014435N01711727EA0084300902000480000000
B1328426014510N01711583EA0085900918000476000000
B1328486014488N01711427EA0087300930000468000000
B1328546014440N01711535EA0088400942000476000000
B1329006014502N01711697EA0090000954000472000000
B1329066014599N01711619EA0091600975000472000000
B1329126014567N01711482EA0093300986000472000000
B1329186014514N01711589EA0094000999000476000000
B1329246014561N01711774EA0095601014000476000000
B1329306014664N01711745EA0096801027000476000000
B1329366014632N01711601EA0098601050000472000000
B1329426014582N01711726EA0100301066000472000000
B1329486014651N01711890EA0101901083000468000000
B1329546014742N01711799EA0103601104000468000000
B1330006014708N01711660EA0106301126000468000000
B1330066014652N01711766EA0107801142000468000000
B1330126014708N01711940EA0108801154000468000000
B1330186014809N01711882EA0109701159000476000000
B1330246014791N01711710EA0111601187000476000000
B1330306014725N01711729EA0112801196000472000000
B1330366014773N01711895EA0114701213000468000000
B1330426014868N01711814EA0115201217000472000000
B1330486014855N01711632EA0116701233000468000000
B1330546014791N01711688EA0117701245000468000000
B1331006014847N01711857EA0118501255000472000000
B1331066014952N01711804EA0120401272000464000000
B1331126014954N01711632EA0121301286000464000000
B1331186014892N01711692EA0122701293000468000000
B1331246014886N01711883EA0122401299000476000000
B1331306014885N01712081EA0123501304000476000000
B1331366014909N01712294EA0124301310000476000000
B1331426015020N01712376EA0124201308000480000000
B1331486015094N01712211EA0123501304000488000000
B1331546015123N01712022EA0124801324000484000000
B1332006015102N01711869EA0125701329000476000000
B1332066015051N01711982EA0126101333000472000000
B1332126015125N01712160EA0127101342000472000000
B1332186015246N01712161EA0127801357000468000000
B1332246015285N01711999EA0129601360000472000000
B1332306015210N01711969EA0130001377000476000000
B1332366015193N01712150EA0131301388000476000000
B1332426015281N01712285EA0131901392000472000000
B1332486015399N01712295EA0132601402000472000000
B1332546015513N01712301EA0134101417000468000000
B1333006015588N01712182EA0134601422000464000000
B1333066015531N01712072EA0135801434000464000000
B1333126015463N01712151EA0137801454000464000000
B1333186015474N01712343EA0138601459000460000000
B1333246015584N01712386EA0138201456000464000000
B1333306015627N01712216EA0138701467000468000000
B1333366015571N01712094EA0139701476000464000000
B1333426015485N01712082EA0140601484000464000000
B1333486015392N01712086EA0139401469000464000000
B1333546015290N01712060EA0139601476000468000000
B1334006015193N01712026EA0140501481000468000000
B1334066015078N01711978EA0137001452000468000000
B1334126014969N01711944EA0139101451000468000000
B1334186014850N01711914EA0137601477000468000000
B1334246014746N01711891EA0139901475000464000000
B1334306014644N01711868EA0141401505000464000000
B1334366014543N01711851EA0140201462000460000000
B1334426014423N01711830EA0140401483000464000000
B1334486014335N01711817EA0144601544000464000000
B1334546014261N01711804EA0145901536000460000000
B1335006014196N01711801EA0148601554000456000000
B1335066014092N01711784EA0142701491000460000000
B1335126013962N01711742EA0141501490000468000000
B1335186013824N01711697EA0139601462000472000000
B1335246013680N01711673EA0137801450000476000000
B1335306013539N01711662EA0136601440000472000000
B1335366013395N01711647EA0136101444000472000000
B1335426013278N01711632EA0140701477000476000000
B1335486013156N01711622EA0137901441000476000000
B1335546013019N01711617EA0137001464000480000000
B1336006012898N01711604EA0138501456000484000000
B1336066012802N01711580EA0144601539000476000000
B1336126012731N01711522EA0146701543000464000000
B1336186012668N01711362EA0146501547000464000000
B1336246012611N01711177EA0147101535000468000000
B1336306012508N01711016EA0142601493000480000000
B1336366012400N01710881EA0144501519000484000000
B1336426012292N01710751EA0143201507000480000000
B1336486012182N01710624EA0142201499000480000000
B1336546012078N01710505EA0142201489000476000000
B1337006011961N01710380EA0137801441000476000000
B1337066011830N01710252EA0135901437000480000000
B1337126011707N01710124EA0135801426000480000000
B1337186011577N01710007EA0133401393000480000000
B1337246011437N01709920EA0131501405000484000000
B1337306011303N01709850EA0132201388000484000000
B1337366011178N01709812EA0135201437000480000000
B1337426011063N01709775EA0135701417000472000000
B1337486010925N01709719EA0129401357000476000000
B1337546010777N01709658EA0129301370000476000000
B1338006010644N01709584EA0130501372000480000000
B1338066010508N01709516EA0128101346000480000000
B1338126010375N01709478EA0129301392000480000000
B1338186010266N01709454EA0132101381000476000000
B1338246010141N01709433EA0130101389000476000000
B1338306010050N01709434EA0136201445000468000000
B1338366009956N01709431EA0135401421000468000000
B1338426009835N01709437EA0132501391000472000000
B1338486009721N01709443EA0135101448000472000000
B1338546009635N01709435EA0138501450000468000000
B1339006009523N01709374EA0131601372000472000000
B1339066009392N01709270EA0129701370000480000000
B1339126009266N01709181EA0130701377000488000000
B1339186009145N01709101EA0129701374000484000000
B1339246009028N01709021EA0129801371000480000000
B1339306008922N01708914EA0130601375000476000000
B1339366008823N01708775EA0130801386000480000000
B1339426008733N01708637EA0132801406000480000000
B1339486008645N01708508EA0132901382000476000000
B1339546008538N01708345EA0129101360000480000000
B1340006008430N01708190EA0130201403000488000000
B1340066008342N01708057EA0133301408000476000000
B1340126008270N01707905EA0134801413000472000000
B1340186008223N01707726EA0137001440000472000000
B1340246008171N01707515EA0133601392000476000000
B1340306008077N01707310EA0129801363000484000000
B1340366007967N01707132EA0128001349000488000000
B1340426007865N01706974EA0128801355000488000000
B1340486007758N01706826EA0127801348000488000000
B1340546007648N01706682EA0126901335000484000000
B1341006007540N01706530EA0126101326000484000000
B1341066007432N01706380EA0124701308000488000000
B1341126007320N01706249EA0123901303000488000000
B1341186007204N01706110EA0121001271000484000000
B1341246007082N01705971EA0119001256000488000000
B1341306006962N01705842EA0119101254000488000000
B1341366006840N01705724EA0116901228000484000000
B1341426006712N01705609EA0115001212000484000000
B1341486006598N01705512EA0116801238000492000000
B1341546006487N01705437EA0115801214000488000000
B1342006006361N01705378EA0113001213000488000000
B1342066006249N01705344EA0115601207000492000000
B1342126006134N01705343EA0116301233000488000000
B1342186006033N01705356EA0117701250000480000000
B1342246005939N01705385EA0118001243000472000000
B1342306005848N01705396EA0119101263000476000000
B1342366005753N01705398EA0117101235000480000000
B1342426005639N01705372EA0114801215000476000000
B1342486005526N01705292EA0115201223000480000000
B1342546005434N01705206EA0117401235000480000000
B1343006005323N01705105EA0114301213000484000000
B1343066005219N01705008EA0116901241000488000000
B1343126005136N01704931EA0119001240000488000000
B1343186005029N01704826EA0113401186000488000000
B1343246004914N01704705EA0112401181000492000000
B1343306004793N01704592EA0109901171000500000000
B1343366004717N01704478EA0116801251000492000000
B1343426004716N01704324EA0119201254000484000000
B1343486004734N01704130EA0118201249000484000000
B1343546004697N01703997EA0120201271000484000000
B1344006004650N01703908EA0121001281000480000000
B1344066004599N01703831EA0121301270000480000000
B1344126004530N01703715EA0117501229000480000000
B1344186004498N01703472EA0115801223000480000000
B1344246004489N01703201EA0114201201000480000000
B1344306004479N01702918EA0113201196000484000000
B1344366004472N01702640EA0112601189000480000000
B1344426004460N01702370EA0112001177000480000000
B1344486004437N01702111EA0111201185000480000000
B1344546004390N01701901EA0112401192000484000000
B1345006004318N01701750EA0112901187000484000000
B1345066004226N01701641EA0111701189000484000000
B1345126004136N01701565EA0112201176000488000000
B1345186004037N01701487EA0112701195000492000000
B1345246003958N01701409EA0115601219000492000000
B1345306003879N01701269EA0112601171000492000000
B1345366003785N01701127EA0111901179000488000000
B1345426003694N01700985EA0110101146000488000000
B1345486003594N01700858EA0108901162000488000000
B1345546003517N01700801EA0113801208000488000000
B1346006003452N01700750EA0114001194000492000000
B1346066003374N01700629EA0110601172000496000000
B1346126003335N01700494EA0115101213000484000000
B1346186003404N01700354EA0114001206000488000000
B1346246003480N01700493EA0116101225000488000000
B1346306003447N01700633EA0116601231000484000000
B1346366003376N01700653EA0116101224000484000000
B1346426003300N01700541EA0114701199000488000000
B1346486003199N01700422EA0111201166000488000000
B1346546003085N01700322EA0109301156000480000000
B1347006002974N01700221EA0109101152000484000000
B1347066002864N01700113EA0107901134000484000000
B1347126002752N01700004EA0106801132000484000000
B1347186002640N01659913EA0106501122000484000000
B1347246002522N01659827EA0104701106000488000000
B1347306002407N01659743EA0104701105000496000000
B1347366002295N01659652EA0104001098000488000000
B1347426002185N01659554EA0103401092000488000000
B1347486002077N01659455EA0103001090000484000000
B1347546001974N01659350EA0102901090000488000000
B1348006001874N01659247EA0101901076000484000000
B1348066001770N01659128EA0098501031000488000000
B1348126001660N01658961EA0095501003000492000000
B1348186001564N01658761EA0095001012000492000000
B1348246001484N01658579EA0096801023000492000000
B1348306001413N01658409EA0097701037000492000000
B1348366001352N01658251EA0099001057000496000000
B1348426001335N01658077EA0100301059000492000000
B1348486001326N01657881EA0098901042000500000000
B1348546001242N01657780EA0098001034000496000000
B1349006001205N01657577EA0098201035000492000000
B1349066001205N01657334EA0097601028000488000000
B1349126001183N01657091EA0096301013000484000000
B1349186001144N01656855EA0094901001000488000000
B1349246001099N01656621EA0093200983000488000000
B1349306001051N01656373EA0091300962000488000000
B1349366000999N01656131EA0090500958000488000000
B1349426000947N01655901EA0090300959000500000000
B1349486000901N01655688EA0091400965000492000000
B1349546000849N01655456EA0088900940000496000000
B1350006000784N01655215EA0087000916000496000000
B1350066000702N01654996EA0086100910000500000000
B1350126000617N01654796EA0085800903000500000000
B1350186000525N01654615EA0084500894000496000000
B1350246000429N01654445EA0083600881000500000000
B1350306000334N01654272EA0081800859000500000000
B1350366000234N01654091EA0079300837000500000000
B1350426000136N01653902EA0078500829000504000000
B1350486000041N01653721EA0077700817000500000000
B1350545959952N01653518EA0075600796000500000000
B1351005959855N01653327EA0075000794000500000000
B1351065959768N01653155EA0076300809000500000000
B1351125959699N01652970EA0077500839000504000000
B1351185959649N01652789EA0078300829000500000000
B1351245959608N01652548EA0076200799000500000000
B1351305959584N01652271EA0075700802000508000000
B1351365959567N01652001EA0076600821000504000000
B1351425959538N01651807EA0079800831000500000000
B1351485959523N01651559EA0076100799000496000000
B1351545959541N01651280EA0074600789000492000000
B1352005959580N01650999EA0073800781000496000000
B1352065959611N01650710EA0072400773000496000000
B1352125959633N01650437EA0073500784000496000000
B1352185959650N01650180EA0073200774000492000000
B1352245959649N01649935EA0073400793000500000000
B1352305959650N01649736EA0075200806000496000000
B1352365959662N01649540EA0075000792000500000000
B1352425959697N01649350EA0076000815000496000000
B1352485959734N01649166EA0076500811000496000000
B1352545959736N01648959EA0076500826000500000000
B1353005959733N01648782EA0079400840000496000000
B1353065959667N01648738EA0079100842000492000000
B1353125959677N01648921EA0079900846000504000000
B1353185959794N01648976EA0081200862000496000000
B1353245959858N01648823EA0082900885000496000000
B1353305959798N01648777EA0084600896000492000000
B1353365959805N01648951EA0085500913000492000000
B1353425959900N01649045EA0087400926000484000000
B1353485959941N01648873EA0088300936000488000000
B1353545959874N01648838EA0090300960000488000000
B1354005959879N01649006EA0092000969000492000000
B1354065959987N01649068EA0093200982000492000000
B1354126000041N01648902EA0094300998000492000000
B1354185959975N01648834EA0095601017000488000000
B1354245959961N01648993EA0098201033000488000000
B1354306000065N01649028EA0097601030000496000000
B1354366000049N01648865EA0099701053000496000000
B1354425959984N01648911EA0101501068000496000000
B1354486000033N01649085EA0102101071000500000000
B1354546000144N01649029EA0102301081000496000000
B1355006000119N01648872EA0104001099000492000000
B1355066000062N01648968EA0105801115000496000000
B1355126000137N01649112EA0106401119000500000000
B1355186000239N01649006EA0107401131000496000000
B1355246000249N01648823EA0108701148000492000000
B1355306000182N01648852EA0110901173000488000000
B1355366000228N01649010EA0112501184000488000000
B1355426000334N01648937EA0113601196000488000000
B1355486000326N01648746EA0115301220000488000000
B1355546000256N01648745EA0117301239000492000000
B1356006000288N01648914EA0119201257000488000000
B1356066000397N01648872EA0120501273000492000000
B1356126000390N01648698EA0122701299000488000000
B1356186000327N01648761EA0124701318000488000000
B1356246000384N01648911EA0126501329000492000000
B1356306000487N01648823EA0127401349000488000000
B1356366000507N01648638EA0130201372000484000000
B1356426000442N01648638EA0132401392000488000000
B1356486000486N01648795EA0134001413000496000000
B1356546000589N01648725EA0136301435000488000000
B1357006000581N01648544EA0137801448000488000000
B1357066000511N01648553EA0138501466000492000000
B1357126000537N01648716EA0141001481000488000000
B1357186000647N01648681EA0143001511000488000000
B1357246000646N01648507EA0145601525000492000000
B1357306000572N01648520EA0146201540000492000000
B1357366000560N01648686EA0148301559000488000000
B1357426000661N01648756EA0150301578000484000000
B1357486000717N01648591EA0152401604000484000000
B1357546000655N01648517EA0153801617000480000000
B1358006000628N01648674EA0155501639000480000000
B1358066000722N01648764EA0157301650000480000000
B1358126000765N01648574EA0158001655000492000000
B1358186000707N01648408EA0159101667000488000000
B1358246000611N01648295EA0158301643000496000000
B1358306000475N01648283EA0154101610000504000000
B1358366000334N01648339EA0152301606000508000000
B1358426000205N01648309EA0153201599000508000000
B1358486000066N01648313EA0149601566000508000000
B1358545959919N01648288EA0148401553000504000000
B1359005959780N01648260EA0148901562000504000000
B1359065959649N01648222EA0148201557000504000000
B1359125959523N01648161EA0148601558000500000000
B1359185959403N01648078EA0148401562000496000000
B1359245959287N01647983EA0147101527000500000000
B1359305959157N01647855EA0142801501000504000000
B1359365959047N01647741EA0146801563000500000000
B1359425958948N01647632EA0146401513000500000000
B1359485958817N01647517EA0141301500000504000000
B1359545958693N01647408EA0141401483000504000000
B1400005958574N01647303EA0142101497000500000000
B1400065958462N01647190EA0141701511000500000000
B1400125958371N01647092EA0144501509000500000000
B1400185958282N01646914EA0141001477000500000000
B1400245958220N01646672EA0140301485000500000000
B1400305958160N01646445EA0140601477000492000000
B1400365958094N01646216EA0139401459000500000000
B1400425958007N01646000EA0137501443000500000000
B1400485957896N01645818EA0135701443000504000000
B1400545957799N01645693EA0139901474000500000000
B1401005957691N01645591EA0139301474000504000000
B1401065957586N01645541EA0140901479000496000000
B1401125957465N01645556EA0137501437000504000000
B1401185957331N01645544EA0135701423000504000000
B1401245957193N01645539EA0133601409000508000000
B1401305957059N01645541EA0132801387000504000000
B1401365956933N01645467EA0132301402000504000000
B1401425956843N01645352EA0134901451000508000000
B1401485956770N01645237EA0136201409000504000000
B1401545956681N01645049EA0130501371000504000000
B1402005956585N01644843EA0128101348000504000000
B1402065956491N01644637EA0127401341000508000000
B1402125956395N01644435EA0125901337000508000000
B1402185956310N01644262EA0127301340000508000000
B1402245956222N01644111EA0127801365000504000000
B1402305956161N01644001EA0132801404000496000000
B1402365956117N01643834EA0130901372000496000000
B1402425956065N01643602EA0128101348000500000000
B1402485956010N01643355EA0126201326000500000000
B1402545955953N01643099EA0124201310000504000000
B1403005955905N01642841EA0124301317000504000000
B1403065955862N01642590EA0123701304000504000000
B1403125955821N01642342EA0123101296000500000000
B1403185955777N01642077EA0120101261000500000000
B1403245955733N01641812EA0119801266000496000000
B1403305955688N01641558EA0118601255000500000000
B1403365955628N01641387EA0124101318000500000000
B1403425955565N01641255EA0124201307000500000000
B1403485955502N01641124EA0124801324000500000000
B1403545955452N01641017EA0127301344000500000000
B1404005955395N01640907EA0125001305000500000000
B1404065955292N01640830EA0121001265000496000000
B1404125955174N01640776EA0119501251000492000000
B1404185955051N01640722EA0118001244000488000000
B1404245954932N01640677EA0118601252000488000000
B1404305954822N01640638EA0119301264000492000000
B1404365954715N01640635EA0118301239000500000000
B1404425954593N01640713EA0116001217000500000000
B1404485954473N01640783EA0117301263000500000000
B1404545954384N01640798EA0122201296000488000000
B1405005954298N01640804EA0123401292000488000000
B1405065954202N01640842EA0122401290000492000000
B1405125954107N01640894EA0123201299000496000000
B1405185954017N01640946EA0125001315000496000000
B1405245953933N01640994EA0127101340000492000000
B1405305953881N01640902EA0129201360000488000000
B1405365953948N01640753EA0129301356000492000000
B1405425954039N01640886EA0130601376000500000000
B1405485954030N01641084EA0131801388000496000000
B1405545953970N01641215EA0132801403000496000000
B1406005953909N01641162EA0136201435000488000000
B1406065953862N01641021EA0132801380000496000000
B1406125953804N01640778EA0128101343000496000000
B1406185953767N01640493EA0127201333000496000000
B1406245953727N01640214EA0125301306000500000000
B1406305953666N01639955EA0124601318000500000000
B1406365953609N01639726EA0125101309000500000000
B1406425953549N01639499EA0125201322000500000000
B1406485953492N01639287EA0126101335000504000000
B1406545953432N01639092EA0125601319000504000000
B1407005953358N01638874EA0123501289000500000000
B1407065953298N01638624EA0122201284000492000000
B1407125953244N01638376EA0121201273000488000000
B1407185953188N01638133EA0120201263000484000000
B1407245953127N01637900EA0119601255000492000000
B1407305953064N01637659EA0117701239000496000000
B1407365952999N01637415EA0116001215000488000000
B1407425952955N01637146EA0114801207000492000000
B1407485952925N01636877EA0114501203000488000000
B1407545952869N01636639EA0113201187000492000000
B1408005952809N01636405EA0112501185000496000000
B1408065952761N01636164EA0111601165000496000000
B1408125952708N01635911EA0109101137000496000000
B1408185952652N01635650EA0108301143000500000000
B1408245952597N01635405EA0108901147000500000000
B1408305952539N01635169EA0108301140000500000000
B1408365952482N01634936EA0107801135000492000000
B1408425952431N01634693EA0107101125000492000000
B1408485952396N01634433EA0106201116000488000000
B1408545952366N01634166EA0105201107000488000000
B1409005952328N01633902EA0104101096000488000000
B1409065952285N01633646EA0103301087000488000000
B1409125952237N01633389EA0102101070000496000000
B1409185952181N01633148EA0102101088000492000000
B1409245952110N01633180EA0105501117000504000000
B1409305952137N01633377EA0105401100000508000000
B1409365952197N01633601EA0102901074000504000000
B1409425952298N01633815EA0100501055000508000000
B1409485952406N01634032EA0099201041000504000000
B1409545952517N01634244EA0098601038000500000000
B1410005952622N01634459EA0097901027000500000000
B1410065952717N01634685EA0097201022000500000000
B1410125952813N01634905EA0096601012000500000000
B1410185952911N01635131EA0095301001000492000000
B1410245953011N01635355EA0094600990000496000000
B1410305953116N01635587EA0092100974000504000000
B1410365953218N01635817EA0093100986000508000000
B1410425953316N01636041EA0091800964000504000000
B1410485953422N01636285EA0090400961000504000000
B1410545953515N01636513EA0091600960000500000000
B1411005953611N01636753EA0089500940000496000000
B1411065953708N01637003EA0087900914000496000000
B1411125953809N01637259EA0085600905000500000000
B1411185953908N01637510EA0084900891000492000000
B1411245954008N01637773EA0081900855000496000000
B1411305954117N01638040EA0079900847000500000000
B1411365954220N01638294EA0080100841000500000000
B1411425954328N01638540EA0079200846000500000000
B1411485954432N01638770EA0079300834000500000000
B1411545954529N01639009EA0078100820000496000000
B1412005954633N01639261EA0075900797000492000000
B1412065954731N01639504EA0077700844000500000000
B1412125954810N01639687EA0080700846000504000000
B1412185954904N01639905EA0076900810000500000000
B1412245954997N01640145EA0075300794000496000000
B1412305955092N01640392EA0074800790000496000000
B1412365955191N01640638EA0074600784000492000000
B1412425955294N01640903EA0072400767000492000000
B1412485955382N01641143EA0076500832000496000000
B1412545955431N01641338EA0079600840000500000000
B1413005955437N01641548EA0078700839000500000000
B1413065955516N01641710EA0079800841000504000000
B1413125955643N01641673EA0078600825000512000000
B1413185955782N01641640EA0076500802000504000000
B1413245955919N01641732EA0075600807000500000000
B1413305955997N01641917EA0075700801000500000000
B1413365955987N01642141EA0074200780000496000000
B1413425955931N01642355EA0070800740000496000000
B1413485955872N01642580EA0070100751000500000000
B1413545955846N01642765EA0072600764000500000000
B1414005955834N01642978EA0069800730000500000000
B1414065955924N01643196EA0066700696000488000000
B1414125956045N01643398EA0064700684000500000000
B1414185956169N01643585EA0064200684000496000000
B1414245956287N01643758EA0063900677000496000000
B1414305956405N01643937EA0062700663000496000000
B1414365956530N01644127EA0060400637000496000000
B1414425956674N01644269EA0059400630000496000000
B1414485956828N01644354EA0058600636000496000000
B1414545956943N01644418EA0062200662000496000000
B1415005957072N01644487EA0059800638000500000000
B1415065957202N01644603EA0059000630000500000000
B1415125957336N01644738EA0057500602000500000000
B1415185957471N01644903EA0055900597000496000000
B1415245957595N01645084EA0056000595000496000000
B1415305957714N01645248EA0057400623000496000000
B1415365957825N01645400EA0058200624000496000000
B1415425957942N01645432EA0059800638000504000000
B1415485958060N01645372EA0059400636000500000000
B1415545958187N01645431EA0059000636000504000000
B1416005958299N01645537EA0059900642000492000000
B1416065958380N01645729EA0057600598000496000000
B1416125958480N01645930EA0055500614000492000000
B1416185958561N01646080EA0058600620000496000000
B1416245958670N01646219EA0056200600000500000000
B1416305958796N01646312EA0056600601000496000000
B1416365958923N01646395EA0057800620000500000000
B1416425959034N01646336EA0059300631000496000000
B1416485959133N01646203EA0058000613000504000000
B1416545959276N01646239EA0056000588000500000000
B1417005959416N01646367EA0054800585000500000000
B1417065959526N01646506EA0057900628000500000000
B1417125959516N01646661EA0059500635000504000000
B1417185959487N01646520EA0060100648000504000000
B1417245959588N01646447EA0061900658000508000000
B1417305959660N01646605EA0061900659000504000000
B1417365959608N01646723EA0062700672000500000000
B1417425959551N01646639EA0063800680000504000000
B1417485959637N01646542EA0065400699000504000000
B1417545959673N01646714EA0065800701000500000000
B1418005959604N01646782EA0067300714000496000000
B1418065959625N01646627EA0068500729000504000000
B1418125959719N01646717EA0069300737000500000000
B1418185959692N01646888EA0070100747000496000000
B1418245959630N01646832EA0070600757000492000000
B1418305959711N01646732EA0072600772000496000000
B1418365959767N01646886EA0073200784000492000000
B1418425959723N01647019EA0075000796000492000000
B1418485959682N01646902EA0075600807000492000000
B1418545959775N01646848EA0077400823000492000000
B1419005959806N01647023EA0077900829000492000000
B1419065959737N01647090EA0079400846000488000000
B1419125959714N01646956EA0079600846000492000000
B1419185959810N01646889EA0081100861000496000000
B1419245959872N01647052EA0081400869000488000000
B1419305959812N01647134EA0083400889000488000000
B1419365959816N01646979EA0083800886000500000000
B1419425959918N01646999EA0085800915000488000000
B1419485959920N01647170EA0087800930000480000000
B1419545959861N01647114EA0088200940000484000000
B1420005959929N01646978EA0088700943000492000000
B1420066000030N01647073EA0091100971000488000000
B1420126000017N01647231EA0093500989000488000000
B1420185959972N01647133EA0093800993000496000000
B1420246000059N01647035EA0094601004000492000000
B1420306000147N01647162EA0096901026000488000000
B1420366000093N01647256EA0097801034000488000000
B1420426000093N01647107EA0099401054000488000000
B1420486000197N01647109EA0101001070000488000000
B1420546000218N01647295EA0102101080000480000000
B1421006000153N01647263EA0103201093000488000000
B1421066000204N01647123EA0104801107000488000000
B1421126000299N01647212EA0106001116000484000000
B1421186000286N01647381EA0106901125000484000000
B1421246000221N01647351EA0107201124000488000000
B1421306000239N01647166EA0107301132000496000000
B1421366000332N01647075EA0108801151000492000000
B1421426000384N01647235EA0110201152000488000000
B1421486000317N01647253EA0108701146000492000000
B1421546000314N01647082EA0111301175000488000000
B1422006000414N01647083EA0112601184000488000000
B1422066000397N01647250EA0113301193000488000000
B1422126000330N01647205EA0116201226000492000000
B1422186000357N01647056EA0117501236000488000000
B1422246000451N01647146EA0119701261000488000000
B1422306000417N01647292EA0121001272000484000000
B1422366000345N01647238EA0121901280000480000000
B1422426000379N01647066EA0122701289000484000000
B1422486000491N01647040EA0124601313000480000000
B1422546000530N01647222EA0126001322000480000000
B1423006000460N01647294EA0126901336000480000000
B1423066000414N01647149EA0127401334000480000000
B1423126000429N01646949EA0127701340000480000000
B1423186000547N01646908EA0128301352000484000000
B1423246000667N01646991EA0128401357000484000000
B1423306000760N01647091EA0131801388000472000000
B1423366000869N01647209EA0129401350000480000000
B1423426001010N01647343EA0127301342000488000000
B1423486001110N01647430EA0134101414000468000000
B1423546001223N01647546EA0131201365000468000000
B1424006001346N01647740EA0129501369000476000000
B1424066001423N01648001EA0130401369000484000000
B1424126001462N01648293EA0128701341000480000000
B1424186001484N01648607EA0126301324000476000000
B1424246001495N01648916EA0126001321000472000000
B1424306001501N01649220EA0125101312000476000000
B1424366001509N01649523EA0124401306000476000000
B1424426001523N01649818EA0124701309000472000000
B1424486001536N01650116EA0123601291000472000000
B1424546001549N01650423EA0122301280000476000000
B1425006001566N01650726EA0122201292000480000000
B1425066001579N01651012EA0123601297000480000000
B1425126001591N01651306EA0121901273000480000000
B1425186001604N01651620EA0120001257000476000000
B1425246001618N01651927EA0119401241000472000000
B1425306001638N01652251EA0116501225000464000000
B1425366001653N01652564EA0116701222000468000000
B1425426001666N01652875EA0115801212000472000000
B1425486001678N01653198EA0113001182000472000000
B1425546001687N01653518EA0112701186000476000000
B1426006001697N01653834EA0111501160000472000000
B1426066001705N01654163EA0108801147000472000000
B1426126001716N01654481EA0108101135000472000000
B1426186001721N01654805EA0106101117000472000000
B1426246001731N01655125EA0105001106000472000000
B1426306001744N01655453EA0102901081000476000000
B1426366001757N01655774EA0102301074000476000000
B1426426001769N01656096EA0100301052000472000000
B1426486001778N01656415EA0100401069000480000000
B1426546001770N01656676EA0105401108000476000000
B1427006001752N01656935EA0104201090000472000000
B1427066001717N01657213EA0099101036000476000000
B1427126001669N01657517EA0096701015000472000000
B1427186001631N01657802EA0098501032000472000000
B1427246001604N01658075EA0098501060000472000000
B1427306001592N01658306EA0102401083000468000000
B1427366001608N01658545EA0102201063000460000000
B1427426001664N01658834EA0099401049000460000000
B1427486001736N01659106EA0100601057000460000000
B1427546001813N01659368EA0100201053000464000000
B1428006001894N01659644EA0097401008000472000000
B1428066001985N01659932EA0096901019000472000000
B1428126002084N01700208EA0094300977000472000000
B1428186002194N01700495EA0092200974000472000000
B1428246002284N01700711EA0098201045000472000000
B1428306002311N01700887EA0102001077000468000000
B1428366002247N01700851EA0103601093000472000000
B1428426002297N01700712EA0105901120000468000000
B1428486002402N01700777EA0107501143000472000000
B1428546002428N01700944EA0110601163000468000000
B1429006002362N01700906EA0111001167000476000000
B1429066002437N01700789EA0113601198000468015000
B1429126002526N01700918EA0115501221000468000000
B1429186002490N01701072EA0116901228000472000000
B1429246002458N01700936EA0119201258000468000000
B1429306002559N01700915EA0120001265000468000000
B1429366002585N01701108EA0122701296000468000000
B1429426002523N01701149EA0123501302000460000000
B1429486002554N01700979EA0124401308000464000000
B1429546002663N01701031EA0125501323000468000000
B1430006002717N01701214EA0126501331000460000000
B1430066002652N01701286EA0127501347000460000000
B1430126002652N01701115EA0128401355000460000000
B1430186002757N01701097EA0130001369000464000000
B1430246002857N01701202EA0130901374000464000000
B1430306002947N01701342EA0131701388000468000000
B1430366003018N01701525EA0130801368000472000000
B1430426003081N01701729EA0133401412000464000000
B1430486003095N01701924EA0133001395000464000000
B1430546003059N01702116EA0132501393000464000000
B1431006003120N01702320EA0132801387000476000000
B1431066003254N01702421EA0131001362000472000000
B1431126003410N01702506EA0128501355000472000000
B1431186003498N01702716EA0131201382000476000000
B1431246003560N01702943EA0128901332000468000000
B1431306003657N01703227EA0123601289000468000000
B1431366003738N01703553EA0121701282000468000000
B1431426003796N01703884EA0121001270000472000000
B1431486003836N01704226EA0119901260000468000000
B1431546003811N01704543EA0119301253000464000000
B1432006003758N01704837EA0118101240000464000000
B1432066003694N01705113EA0117201229000464000000
B1432126003590N01705296EA0116401224000464000000
B1432186003469N01705403EA0115401214000456000000
B1432246003346N01705481EA0114201196000456000000
B1432306003215N01705538EA0112201176000460000000
B1432366003082N01705590EA0111701180000460000000
B1432426002957N01705637EA0112201179000468000000
B1432486002834N01705678EA0110801162000468000000
B1432546002702N01705719EA0108501138000476000000
B1433006002576N01705759EA0108001138000472000000
B1433066002453N01705810EA0106801115000472000000
B1433126002324N01705872EA0104901105000472000000
B1433186002201N01705916EA0104801110000476000000
B1433246002085N01705960EA0103501078000476000000
B1433306001955N01706018EA0099901054000468000000
B1433366001827N01706077EA0099401043000472000000
B1433426001703N01706119EA0098701055000472000000
B1433486001599N01706150EA0100901048000476000000
B1433546001474N01706189EA0097001024000472000000
B1434006001350N01706223EA0097001024000468000000
B1434066001226N01706249EA0094800986000468000000
B1434126001089N01706248EA0092400988000472000000
B1434186000986N01706194EA0096201014000468000000
B1434246000875N01706178EA0093300973000468000000
B1434306000751N01706206EA0091500966000456000000
B1434366000633N01706244EA0091500967000468000000
B1434426000514N01706265EA0090200944000472000000
B1434486000399N01706205EA0089600981000476000000
B1434546000352N01706079EA0095101006000472000000
B1435006000338N01705881EA0093000968000476000000
B1435066000261N01705715EA0090200947000480000000
B1435126000166N01705567EA0089100942000480000000
B1435186000075N01705442EA0090000966000480000000
B1435246000009N01705339EA0092800981000476000000
B1435305959955N01705247EA0093900993000476000000
B1435365959905N01705157EA0093500987000484000000
B1435425959853N01705028EA0091800965000480000000
B1435485959853N01704842EA0093600989000488000000
B1435545959894N01704645EA0093100982000488000000
B1436005959870N01704482EA0094301002000488000000
B1436065959796N01704428EA0095200996000484000000
B1436125959757N01704256EA0094801000000484000000
B1436185959851N01704183EA0095901012000484000000
B1436245959888N01704352EA0095101001000488000000
B1436305959810N01704380EA0095901015000492000000
B1436365959754N01704255EA0095601014000488000000
B1436425959819N01704125EA0097701027000484000000
B1436485959897N01704257EA0097201024000480000000
B1436545959840N01704364EA0096901024000484000000
B1437005959767N01704373EA0097401025000480000000
B1437065959723N01704260EA0098801032000476000000
B1437125959814N01704150EA0096801021000480000000
B1437185959896N01704274EA0098701045000484000000
B1437245959867N01704425EA0099201042000484000000
B1437305959824N01704343EA0100201056000488000000
B1437365959903N01704205EA0099001030000480015000
B1437426000017N01704086EA0098601052000488000000
B1437486000110N01703953EA0100401054000476000000
B1437546000091N01703804EA0100501057000488000000
B1438006000019N01703869EA0099301045000488000000
B1438065959957N01704020EA0097401010000480000000
B1438125959866N01704138EA0096001034000488000000
B1438185959793N01704250EA0097601028000488000000
B1438245959712N01704352EA0097401032000484000000
B1438305959634N01704374EA0098401023000480000000
B1438365959534N01704410EA0096201039000488000000
B1438425959508N01704296EA0100601051000500000000
B1438485959614N01704251EA0098701040000496000000
B1438545959697N01704419EA0098001032000496000000
B1439005959723N01704621EA0097901030000496000000
B1439065959676N01704787EA0097201024000488000000
B1439125959586N01704859EA0096901029000484000000
B1439185959502N01704894EA0098601032000480000000
B1439245959393N01704943EA0093600970000480000000
B1439305959272N01704995EA0093000988000480000000
B1439365959155N01705040EA0091300962000480000000
B1439425959034N01705069EA0089600939000480000000
B1439485958915N01705106EA0089900973000484000000
B1439545958826N01705134EA0093000974000480000000
B1440005958715N01705136EA0087900925000484000000
B1440065958596N01705128EA0086500907000480000000
B1440125958480N01705104EA0085700922000476000000
B1440185958394N01705076EA0088200925000472000000
B1440245958293N01705048EA0084900892000472000000
B1440305958187N01705079EA0084300913000480000000
B1440365958138N01705203EA0088300931000480000000
B1440425958072N01705326EA0086400908000488000000
B1440485958002N01705460EA0086900913000484000000
B1440545957921N01705615EA0082400873000484000000
B1441005957829N01705765EA0081800853000488000000
B1441065957734N01705884EA0080700889000484000000
B1441125957669N01705957EA0084600884000480000000
B1441185957589N01706063EA0082000871000472000000
B1441245957521N01706162EA0083000867000472000000
B1441305957444N01706279EA0080800856000484000000
B1441365957389N01706452EA0079800833000476000000
B1441425957367N01706679EA0079500839000480000000
B1441485957333N01706885EA0078500821000480000000
B1441545957264N01707051EA0077300814000476000000
B1442005957205N01707220EA0077000814000468000000
B1442065957149N01707407EA0074800785000468000000
B1442125957093N01707597EA0074600793000472000000
B1442185957040N01707782EA0072900768000468000000
B1442245956991N01707987EA0072100766000464000000
B1442305956950N01708185EA0072400774000464000000
B1442365956913N01708365EA0072800772000456000000
B1442425956877N01708551EA0072000767000460000000
B1442485956841N01708729EA0072000763000460000000
B1442545956808N01708914EA0071400758000464000000
B1443005956773N01709100EA0070800748000460000000
B1443065956726N01709275EA0069700743000452000000
B1443125956672N01709437EA0069200736000452000000
B1443185956618N01709597EA0068400727000460000000
B1443245956562N01709763EA0067500719000456000000
B1443305956507N01709924EA0066900711000452000000
B1443365956451N01710091EA0066300705000452000000
B1443425956396N01710260EA0065700700000448000000
B1443485956341N01710427EA0065500696000444000000
B1443545956286N01710592EA0064800689000444000000
B1444005956234N01710759EA0064800689000452015000
B1444065956182N01710921EA0064500684000456015000
B1444125956130N01711079EA0064100682000464000000
B1444185956079N01711237EA0063700677000460015000
B1444245956028N01711402EA0062700670000460000000
B1444305955980N01711560EA0063300682000468000000
B1444365955929N01711678EA0065300694000480000000
B1444425955903N01711548EA0064900682000488015000
B1444485956007N01711440EA0065400696000500000000
B1444545956100N01711561EA0066100705000492000000
B1445005956094N01711726EA0067100719000488000000
B1445065956050N01711654EA0066600702000488015000
B1445125956136N01711508EA0066800713000488000000
B1445185956241N01711574EA0067400715000484000000
B1445245956217N01711708EA0068400729000480000000
B1445305956198N01711576EA0069300740000480015000
B1445365956304N01711504EA0069900745000480000000
B1445425956391N01711636EA0070300749000484000000
B1445485956353N01711735EA0071900768000480000000
B1445545956334N01711605EA0072400763000480000000
B1446005956438N01711505EA0072300772000484000000
B1446065956527N01711625EA0072800775000480000000
B1446125956494N01711751EA0073100778000484000000
B1446185956442N01711661EA0074000787000484000000
B1446245956518N01711524EA0074000786000488000000
B1446305956607N01711644EA0074300792000488000000
B1446365956578N01711779EA0075300797000484000000
B1446425956531N01711690EA0075400799000484000000
B1446485956625N01711600EA0075400799000500000000
B1446545956661N01711768EA0075500805000496000000
B1447005956601N01711831EA0076100804000496000000
B1447065956592N01711670EA0075400801000492000000
B1447125956702N01711677EA0076200808000496000000
B1447185956717N01711848EA0076600813000488000000
B1447245956657N01711955EA0075900791000488000000
B1447305956583N01712085EA0073400780000484000000
B1447365956510N01712239EA0072800769000480000000
B1447425956451N01712392EA0074600805000480000000
B1447485956396N01712523EA0074900786000480000000
B1447545956331N01712685EA0074100787000480000000
B1448005956271N01712844EA0073800780000476000000
B1448065956214N01713009EA0073400781000464000000
B1448125956165N01713172EA0073200776000460000000
B1448185956114N01713337EA0072700770000464000000
B1448245956068N01713498EA0073000779000472000000
B1448305956024N01713656EA0072600766000468000000
B1448365955974N01713814EA0071800762000468000000
B1448425955919N01713961EA0072200767000472000000
B1448485955863N01714114EA0071000748000476000000
B1448545955805N01714275EA0070400755000480000000
B1449005955758N01714418EA0072000771000480000000
B1449065955715N01714568EA0071200748000476000000
B1449125955665N01714743EA0070100746000476000000
B1449185955616N01714932EA0069000736000472000000
B1449245955567N01715118EA0069000733000468000000
B1449305955511N01715291EA0068400732000464000000
B1449365955450N01715447EA0068800733000468000000
B1449425955394N01715603EA0068200729000468000000
B1449485955340N01715760EA0068200727000468000000
B1449545955286N01715915EA0067500719000480000000
B1450005955231N01716071EA0067600718000476000000
B1450065955178N01716230EA0066900711000476000000
B1450125955121N01716390EA0065900698000472000000
B1450185955064N01716558EA0065000691000468000000
B1450245955009N01716732EA0064000680000468000000
B1450305954952N01716913EA0062800670000468000000
B1450365954898N01717092EA0062700668000468000000
B1450425954841N01717265EA0062200660000468000000
B1450485954776N01717426EA0060900649000472000000
B1450545954707N01717585EA0060000634000476000000
B1451005954636N01717750EA0058200635000480000000
B1451065954575N01717898EA0058900622000480000000
B1451125954510N01718067EA0057300610000476000000
B1451185954446N01718247EA0056700608000472000000
B1451245954389N01718421EA0056700607000468015000
B1451305954333N01718596EA0056300602000464000000
B1451365954273N01718771EA0055500592000464000000
B1451425954212N01718947EA0054600588000468000000
B1451485954154N01719113EA0054500584000468000000
B1451545954091N01719275EA0053600575000472000000
B1452005954031N01719438EA0053500569000472000000
B1452065953972N01719608EA0053100569000468000000
B1452125953913N01719774EA0052800571000472000000
B1452185953858N01719934EA0052500563000464000000
B1452245953805N01720098EA0051900559000464000000
B1452305953752N01720258EA0051700553000460000000
B1452365953693N01720415EA0051300545000468000000
B1452425953636N01720569EA0051400543000468000000
B1452485953584N01720719EA0051000536000464000000
B1452545953530N01720884EA0049400519000468000000
B1453005953470N01721052EA0047900502000472000000
B1453065953406N01721241EA0045400487000476000000
B1453125953353N01721402EA0047800513000476000000
B1453185953298N01721568EA0045900494000476000000
B1453245953244N01721744EA0045400491000480000000
B1453305953203N01721896EA0048100510000476015000
B1453365953156N01722077EA0045600497000476015000
B1453425953112N01722256EA0046500494000480015000
B1453485953056N01722446EA0043100456000472015000
B1453545952985N01722633EA0041700450000472000000
B1454005952912N01722806EA0041800456000472000000
B1454065952847N01722951EA0043400473000480000000
B1454125952790N01723080EA0044000470000468000000
B1454185952727N01723222EA0042400456000464000000
B1454245952662N01723377EA0041600448000464000000
B1454305952597N01723530EA0040700438000456000000
B1454365952534N01723686EA0040100431000460000000
B1454425952473N01723847EA0039300424000460000000
B1454485952408N01724010EA0038300409000464000000
B1454545952345N01724162EA0038300418000460000000
B1455005952280N01724311EA0037000395000460000000
B1455065952214N01724471EA0036800410000472000000
B1455125952159N01724605EA0038200408000476015000
B1455185952100N01724756EA0037500415000480000000
B1455245952044N01724912EA0037300408000476015000
B1455305951986N01725073EA0037800409000476015000
B1455365951931N01725225EA0038500410000480015000
B1455425951867N01725388EA0036300387000472015000
B1455485951807N01725568EA0034600377000468015000
B1455545951751N01725750EA0034300376000472015000
B1456005951702N01725918EA0035400379000460015000
B1456065951647N01726096EA0033600369000468015000
B1456125951624N01726283EA0036000395000472015000
B1456185951639N01726489EA0035000366000472015000
B1456245951685N01726714EA0033200359000468015000
B1456305951741N01726942EA0031300339000464015000
B1456365951795N01727180EA0030200327000464015000
B1456425951853N01727410EA0030600330000476015000
B1456485951941N01727607EA0030900342000480015000
B1456545952040N01727773EA0032000332000484015000
B1457005952152N01727956EA0029800324000480015000
B1457065952269N01728125EA0028800306000468015000
B1457125952388N01728304EA0027300294000464015000
B1457185952510N01728480EA0026200282000472015000
B1457245952633N01728671EA0024900267000472015000
B1457305952764N01728861EA0023900258000480015000
B1457365952893N01729056EA0023700259000488015000
B1457425953023N01729247EA0023000243000480015000
B1457485953155N01729441EA0021200228000480015000
B1457545953288N01729637EA0020400218000472015000
B1458005953423N01729827EA0019200202000476015000
B1458065953565N01730016EA0017700183000476015000
B1458125953709N01730213EA0016000170000480015000
B1458185953857N01730413EA0014500154000488015000
B1458245954007N01730615EA0012900141000488015000
B1458305954157N01730819EA0012100131000500015000
B1458365954312N01731030EA0010400109000504015000
B1458425954469N01731240EA0008900102000580015000
B1458485954625N01731426EA0008500094000680015000
B1458545954774N01731609EA0006800073000688015000
B1459005954909N01731788EA0004400052000652015000
B1459065955030N01731938EA0002500032000612015000
B1459125955135N01732061EA0000700024000588015000
B1459185955220N01732157EA0000900024000636015000
B1459245955287N01732236EA0000700024000752015000
B1459305955344N01732302EA0000600023000728015000
B1459365955389N01732354EA0000700023000748015000
B1459425955416N01732388EA0000700023000688015000
B1459485955422N01732397EA0000600023000552015000
B1459545955422N01732397EA0000700024000480015000
B1500005955422N01732397EA0000800025000392015000
B1500065955422N01732397EA0000700025000352015000
B1500125955422N01732399EA0000700025000336015000
G0003000000B54C37090000000000000000000000000000000000000000000000
G789B8159BFDEA2758287CCC2C2C101B3F582922C000000007724803BB8567334
G7CB5130A77EA24CDC4803A1B0F61766C3E58F4FE000000000000000003108415
