ACAM3X6
HFDTE070710
HFFXA050
HFPLTPILOT:Peter Cutting           
HFGTYGLIDERTYPE:LS 8        
HFGIDGLIDERID:P           
HFDTM100GPSDATUM:
HFRFWFIRMWAREVERSION:F2.6
HFRHWHARDWAREVERSION:300 Series Version 2
HFFTYFRTYPE:CAMBRIDGE AERO INSTRUMENTS, 302+
HFGPS:GARMIN,LVS-25,12,18000
HFPRSPRESSALTSENSOR:INTERSEMA, MS5534-AP, 20000
I033638FXA3941ENL4247REX
LCAMSBVER:5FWVER:F26300
C070710095420070710000106
C0000000N00000000WTAKEOFF     
C5958433N01727550EStart-Alpha 
C6010750N01710933EOestervaala 
C5940900N01546133EHed         
C6016083N01451950ENorsen      
C5956717N01616917EVaesterfaern
C6008200N01613167EKrylbo      
C5951400N01726333EBrunna      
C5955233N01731833EFinnishline 
C0000000N00000000WLANDING     
B0956315955509N01732324EA0002200024000544000000
B0956335955509N01732324EA0002200024000544000000
B0956355955509N01732324EA0002100024000544000000
B0956375955509N01732324EA0002000024000540000000
B0956395955509N01732324EA0001900024000540000000
B0956415955509N01732324EA0001900024000540000000
B0956435955509N01732324EA0001900024000540000000
B0956455955509N01732324EA0002000024000544000000
B0956475955509N01732324EA0002100024000540000000
B0956495955509N01732324EA0002100024000540000000
B0956515955509N01732324EA0002100024000544000000
B0956535955509N01732324EA0002100024000552000000
B0956555955509N01732324EA0002000024000556000000
B0956575955509N01732322EA0002000024000572000000
B0956595955507N01732317EA0002000024000580000000
B0957005955506N01732310EA0002000024000620000000
B0957065955482N01732250EA0002300024000904000000
B0957125955442N01732142EA0002600025000996000000
B0957185955387N01731994EA0002300026000924000000
B0957245955320N01731823EA0002900030000812000000
B0957305955252N01731633EA0003900048000756000000
B0957365955181N01731460EA0006400076000728000000
B0957425955106N01731287EA0008800100000720000000
B0957485955028N01731112EA0010000110000712000000
B0957545954952N01730937EA0012100134000716000000
B0958005954875N01730767EA0014200157000720000000
B0958065954797N01730592EA0016000173000732000000
B0958125954719N01730415EA0018200189000728000000
B0958185954637N01730237EA0018700202000736000000
B0958245954555N01730062EA0021200233000716000000
B0958305954477N01729887EA0023900253000712000000
B0958365954394N01729709EA0025900275000720000000
B0958425954315N01729529EA0028600302000720000000
B0958485954235N01729346EA0030500316000724000000
B0958545954164N01729149EA0032300335000692000000
B0959005954102N01728944EA0034300356000712000000
B0959065954039N01728736EA0035700374000724000000
B0959125953979N01728523EA0038400404000732000000
B0959185953921N01728315EA0041500439000720000000
B0959245953873N01728114EA0045200471000728000000
B0959305953825N01727902EA0047400493000740000000
B0959365953777N01727698EA0049500514000740000000
B0959425953731N01727491EA0050800526000724000000
B0959485953680N01727282EA0052000534000732000000
B0959545953635N01727075EA0053200547000728000000
B1000005953606N01726862EA0054100556000736000000
B1000065953597N01726646EA0055300570000688000000
B1000125953606N01726439EA0056600583000640000000
B1000185953631N01726239EA0057300592000616000000
B1000245953670N01726040EA0058300602000604000000
B1000305953734N01725869EA0059300613000600000000
B1000365953830N01725765EA0060500624000592000000
B1000425953939N01725737EA0061900640000596000000
B1000485954051N01725770EA0063300655000592000000
B1000545954156N01725839EA0065700687000588000000
B1001005954259N01725927EA0068100705000584000000
B1001065954368N01726025EA0068900709000588000000
B1001125954481N01726117EA0069600716000572000000
B1001185954601N01726186EA0070500730000584000000
B1001245954722N01726257EA0071200731000588000000
B1001305954839N01726299EA0071100736000580000000
B1001365954932N01726322EA0072800752000572000000
B1001425955019N01726335EA0070900712000572000000
B1001485955145N01726337EA0063200633000656000000
B1001545955259N01726322EA0067700714000996000000
B1002005955348N01726298EA0070300720000996000000
B1002065955443N01726268EA0070100723000996000000
B1002125955533N01726242EA0070600727000996000000
B1002185955619N01726209EA0070900736000996000000
B1002245955701N01726182EA0071600735000996000000
B1002305955784N01726250EA0071000729000996000000
B1002365955847N01726396EA0070500728000996000000
B1002425955897N01726537EA0071300737000904000000
B1002485955942N01726663EA0071500732000748000000
B1002545956009N01726779EA0071400739000640000000
B1003005956094N01726786EA0071700736000600000000
B1003065956187N01726746EA0071700743000584000000
B1003125956265N01726656EA0072800748000568000000
B1003185956278N01726480EA0071800740000564000000
B1003245956195N01726352EA0073100760000568000000
B1003305956096N01726316EA0073800760000560000000
B1003365955996N01726416EA0072800753000556000000
B1003425955905N01726525EA0073700765000560000000
B1003485955851N01726685EA0072500747000560000000
B1003545955905N01726827EA0073000755000560000000
B1004005955988N01726799EA0073500755000560000000
B1004065956078N01726751EA0072800755000560000000
B1004125956170N01726784EA0073600758000564000000
B1004185956247N01726692EA0073000754000560000000
B1004245956271N01726506EA0072400747000560000000
B1004305956312N01726333EA0074000766000560000000
B1004365956310N01726147EA0074200764000572000000
B1004425956213N01726142EA0075300776000576000000
B1004485956191N01726334EA0075600780000568000000
B1004545956269N01726446EA0076700793000564000000
B1005005956360N01726421EA0077500800000560000000
B1005065956366N01726252EA0078000804000560000000
B1005125956274N01726207EA0077900806000556000000
B1005185956223N01726378EA0078800814000552000000
B1005245956273N01726543EA0079600824000548000000
B1005305956360N01726534EA0080300826000548000000
B1005365956366N01726368EA0080100819000552000000
B1005425956270N01726289EA0079500817000536000000
B1005485956191N01726428EA0080900833000548000000
B1005545956247N01726568EA0082000846000548000000
B1006005956296N01726435EA0082400849000548000000
B1006065956248N01726269EA0083100859000548000000
B1006125956152N01726238EA0083900863000552000000
B1006185956140N01726426EA0085300882000556000000
B1006245956223N01726422EA0086700895000548000000
B1006305956239N01726247EA0087800906000544000000
B1006365956162N01726139EA0088400914000544000000
B1006425956097N01726289EA0089500924000548000000
B1006485956156N01726435EA0091300946000544000000
B1006545956227N01726352EA0092400950000544000000
B1007005956192N01726179EA0092400955000544000000
B1007065956091N01726190EA0093800971000544000000
B1007125956041N01726363EA0094600979000536000000
B1007185956110N01726478EA0095600990000540000000
B1007245956171N01726360EA0096900996000540000000
B1007305956115N01726225EA0097701008000540000000
B1007365956031N01726329EA0098501012000540000000
B1007425956058N01726513EA0099901033000544000000
B1007485956144N01726519EA0101301043000536000000
B1007545956166N01726352EA0101601045000536000000
B1008005956084N01726255EA0102301053000524000000
B1008065955983N01726329EA0102301050000536000000
B1008125955949N01726529EA0103301063000540000000
B1008185956026N01726624EA0103801067000544000000
B1008245956111N01726536EA0104401076000540000000
B1008305956162N01726364EA0104101055000544000000
B1008365956166N01726099EA0100001030000548000000
B1008425956102N01725852EA0100401030000552000000
B1008485956011N01725629EA0098501014000552000000
B1008545955968N01725384EA0099701027000556000000
B1009005955957N01725125EA0098901011000556000000
B1009065955954N01724838EA0096900997000552000000
B1009125955951N01724553EA0096700990000548000000
B1009185955963N01724264EA0094800971000544000000
B1009245955975N01723972EA0094300967000544000000
B1009305955985N01723699EA0095100993000552000000
B1009365955985N01723468EA0097401001000544000000
B1009425955983N01723241EA0098001012000540000000
B1009485955980N01723027EA0098901022000544000000
B1009545955922N01722875EA0100801032000556000000
B1010005955840N01722992EA0101101038000560000000
B1010065955880N01723156EA0102301058000556000000
B1010125955954N01723104EA0103801064000544000000
B1010185955933N01722935EA0103601063000536000000
B1010245955831N01722902EA0104801077000544000000
B1010305955764N01723055EA0105301077000544000000
B1010365955821N01723198EA0106201096000548000000
B1010425955889N01723132EA0108001107000544000000
B1010485955883N01722957EA0107701103000544000000
B1010545955784N01722905EA0108401115000552000000
B1011005955702N01723015EA0109101116000548000000
B1011065955729N01723197EA0109601126000544000000
B1011125955810N01723179EA0110201135000544000000
B1011185955792N01723010EA0112001149000544000000
B1011245955693N01723031EA0112401152000540000000
B1011305955637N01723209EA0113301164000540000000
B1011365955682N01723345EA0113701164000540000000
B1011425955751N01723269EA0114601177000540000000
B1011485955751N01723104EA0115701189000540000000
B1011545955665N01723039EA0116101191000536000000
B1012005955598N01723184EA0116101191000532000000
B1012065955630N01723352EA0117201203000536000000
B1012125955706N01723416EA0118301213000536000000
B1012185955775N01723343EA0117901206000540000000
B1012245955742N01723174EA0118201212000540000000
B1012305955647N01723123EA0119501228000540000000
B1012365955567N01723247EA0119801230000528000000
B1012425955580N01723426EA0120701236000528000000
B1012485955664N01723419EA0120701238000532000000
B1012545955710N01723257EA0121501248000532000000
B1013005955703N01723067EA0122901263000532000000
B1013065955671N01722885EA0124301278000532000000
B1013125955628N01722697EA0124801271000528000000
B1013185955593N01722443EA0120801218000536000000
B1013245955561N01722151EA0117901202000532000000
B1013305955555N01721854EA0116201185000532000000
B1013365955578N01721559EA0114501178000536000000
B1013425955617N01721272EA0114001162000536000000
B1013485955664N01720973EA0113001164000540000000
B1013545955697N01720748EA0119801251000532000000
B1014005955719N01720543EA0120901235000532000000
B1014065955742N01720305EA0118601202000528000000
B1014125955775N01720046EA0116301191000524000000
B1014185955794N01719795EA0116901210000528000000
B1014245955763N01719608EA0121501244000532000000
B1014305955663N01719660EA0121201240000544000000
B1014365955668N01719857EA0122401251000544000000
B1014425955733N01720003EA0122101245000548000000
B1014485955824N01719981EA0122301260000528000000
B1014545955842N01719822EA0123901262000528000000
B1015005955743N01719765EA0124101270000532000000
B1015065955686N01719933EA0125401287000528000000
B1015125955733N01720093EA0126101288000528000000
B1015185955824N01720117EA0126401290000532000000
B1015245955923N01720106EA0125601279000528000000
B1015305956045N01720107EA0120601206000528000000
B1015365956208N01720103EA0114901172000532000000
B1015425956362N01720095EA0115501190000540000000
B1015485956500N01720085EA0116901201000536000000
B1015545956631N01720076EA0117101195000532000000
B1016005956772N01720059EA0115801193000532000000
B1016065956893N01720051EA0119701240000536000000
B1016125956989N01720041EA0123501277000528000000
B1016185957085N01720017EA0123901254000528000000
B1016245957209N01719984EA0122501258000532000000
B1016305957327N01719956EA0122301250000528000000
B1016365957449N01719942EA0121001236000532000000
B1016425957574N01719904EA0119701230000528000000
B1016485957677N01719799EA0120201233000516000000
B1016545957769N01719672EA0119701223000532000000
B1017005957855N01719514EA0118201209000528000000
B1017065957933N01719348EA0117501202000508000000
B1017125958026N01719220EA0116801193000516000000
B1017185958142N01719179EA0115701184000516000000
B1017245958250N01719330EA0114601171000516000000
B1017305958278N01719604EA0113801163000520000000
B1017365958229N01719887EA0111701142000524000000
B1017425958111N01720082EA0110501131000524000000
B1017485957950N01720137EA0106501087000528000000
B1017545957778N01720129EA0103901056000544000000
B1018005957623N01720123EA0101301031000548000000
B1018065957484N01720116EA0098300998000544000000
B1018125957348N01720115EA0095600982000536000000
B1018185957216N01720107EA0095600984000528000000
B1018245957084N01720097EA0094500951000532000000
B1018305956942N01720136EA0092200970000536000000
B1018365956838N01720203EA0098601013000524000000
B1018425956811N01720392EA0099501021000520000000
B1018485956895N01720435EA0100301029000524000000
B1018545956903N01720258EA0100501034000532000000
B1019005956809N01720150EA0101801050000524000000
B1019065956704N01720166EA0103901069000516000000
B1019125956679N01720345EA0105901087000512000000
B1019185956761N01720387EA0106701098000500000000
B1019245956773N01720207EA0108001109000508000000
B1019305956690N01720064EA0109501126000512000000
B1019365956609N01720167EA0111401145000512000000
B1019425956664N01720307EA0111601149000520000000
B1019485956754N01720266EA0113801170000512000000
B1019545956785N01720090EA0115801187000512000000
B1020005956692N01720029EA0116401194000520000000
B1020065956663N01720211EA0116801199000524000000
B1020125956741N01720305EA0118601217000524000000
B1020185956811N01720221EA0120001233000520000000
B1020245956768N01720060EA0121201241000524000000
B1020305956670N01720103EA0121801248000524000000
B1020365956656N01720293EA0122601260000520000000
B1020425956733N01720375EA0124101275000512000000
B1020485956809N01720296EA0124401253000512000000
B1020545956903N01720117EA0118801218000524000000
B1021005956993N01719941EA0120701245000532000000
B1021065957073N01719782EA0121101237000520000000
B1021125957159N01719614EA0119701224000512000000
B1021185957249N01719451EA0118901218000512000000
B1021245957335N01719283EA0118201210000516000000
B1021305957422N01719115EA0117101197000520000000
B1021365957511N01718954EA0116901198000508000000
B1021425957604N01718791EA0114701159000512000000
B1021485957705N01718587EA0110601129000524000000
B1021545957808N01718390EA0110201124000528000000
B1022005957918N01718186EA0107801103000536000000
B1022065958009N01718005EA0112001163000532000000
B1022125958086N01717846EA0114201167000524000000
B1022185958154N01717711EA0117701212000524000000
B1022245958233N01717628EA0117901212000524000000
B1022305958321N01717598EA0120201228000520000000
B1022365958328N01717432EA0120101237000524000000
B1022425958226N01717394EA0121501245000524000000
B1022485958174N01717572EA0123201260000520000000
B1022545958237N01717715EA0124001270000524000000
B1023005958316N01717671EA0125601284000516000000
B1023065958347N01717514EA0125601282000524000000
B1023125958323N01717302EA0123801260000528000000
B1023185958271N01717079EA0124101258000524000000
B1023245958207N01716827EA0121001231000524000000
B1023305958138N01716563EA0119501213000524000000
B1023365958067N01716298EA0118401212000528000000
B1023425957992N01716047EA0118201209000532000000
B1023485957922N01715794EA0116901189000532000000
B1023545957847N01715539EA0115501202000520000000
B1024005957788N01715376EA0124101271000524000000
B1024065957700N01715245EA0123201258000524000000
B1024125957604N01715146EA0124801266000528000000
B1024185957488N01715045EA0121701243000528000000
B1024245957362N01714914EA0118401200000528000000
B1024305957218N01714759EA0115201174000528000000
B1024365957071N01714599EA0114101167000532000000
B1024425956933N01714452EA0115201177000528000000
B1024485956794N01714304EA0112801147000528000000
B1024545956651N01714137EA0111401137000528000000
B1025005956509N01713975EA0110801134000528000000
B1025065956362N01713827EA0109701113000540000000
B1025125956209N01713698EA0110501138000540000000
B1025185956061N01713588EA0110001111000540000000
B1025245955901N01713506EA0109301119000536000000
B1025305955742N01713447EA0108001102000536000000
B1025365955611N01713435EA0112401150000532000000
B1025425955470N01713422EA0108801095000536000000
B1025485955331N01713411EA0111701150000536000000
B1025545955214N01713360EA0113001168000536000000
B1026005955131N01713287EA0117801199000524000000
B1026065955070N01713123EA0115501166000512000000
B1026125954984N01712935EA0114601180000520000000
B1026185954913N01712788EA0118301218000528000000
B1026245954833N01712641EA0115901168000536000000
B1026305954744N01712444EA0114301170000532000000
B1026365954711N01712194EA0113501152000524000000
B1026425954702N01711921EA0112001144000528000000
B1026485954702N01711649EA0110901130000528000000
B1026545954711N01711358EA0108401105000528000000
B1027005954727N01711068EA0107401087000524000000
B1027065954758N01710768EA0104801071000528000000
B1027125954788N01710479EA0104901083000532000000
B1027185954817N01710231EA0107701106000536000000
B1027245954845N01710010EA0110501134000536000000
B1027305954876N01709801EA0111401148000532000000
B1027365954869N01709606EA0113901172000528000000
B1027425954767N01709585EA0114901175000532000000
B1027485954722N01709785EA0114301166000536000000
B1027545954788N01709920EA0115401186000536000000
B1028005954874N01709914EA0116901201000536000000
B1028065954909N01709756EA0117801204000532000000
B1028125954913N01709563EA0119201223000528000000
B1028185954900N01709364EA0120101238000524000000
B1028245954807N01709311EA0121701248000516000000
B1028305954774N01709502EA0124201277000520000000
B1028365954850N01709584EA0125101277000524000000
B1028425954887N01709420EA0125901295000528000000
B1028485954831N01709283EA0128001313000528000000
B1028545954752N01709396EA0129801331000524000000
B1029005954798N01709561EA0131201345000532000000
B1029065954869N01709482EA0132501358000524000000
B1029125954841N01709308EA0132801357000536000000
B1029185954772N01709165EA0130201317000548000000
B1029245954687N01709012EA0124401266000548000000
B1029305954602N01708854EA0121101232000548000000
B1029365954529N01708697EA0118301203000548000000
B1029425954460N01708534EA0114901168000540000000
B1029485954393N01708356EA0112001141000536000000
B1029545954308N01708163EA0108001100000528000000
B1030005954217N01707938EA0106001095000540000000
B1030065954129N01707743EA0106501085000532000000
B1030125954026N01707528EA0104101072000532000000
B1030185953949N01707348EA0109201141000536000000
B1030245953856N01707325EA0112901161000536000000
B1030305953823N01707531EA0113501164000540000000
B1030365953905N01707636EA0114801180000536000000
B1030425953988N01707569EA0115701185000524000000
B1030485954004N01707380EA0116101191000532000000
B1030545953914N01707380EA0117301205000540000000
B1031005953943N01707563EA0118901216000544000000
B1031065954035N01707578EA0118701214000548000000
B1031125954064N01707433EA0118801219000544000000
B1031185953987N01707290EA0117601205000548000000
B1031245953890N01707195EA0119501241000544000000
B1031305953805N01707137EA0123501268000536000000
B1031365953722N01707253EA0122401253000540000000
B1031425953762N01707449EA0123701275000544000000
B1031485953849N01707500EA0125401286000536000000
B1031545953871N01707341EA0126101303000536000000
B1032005953780N01707345EA0128101316000532000000
B1032065953774N01707557EA0129001330000532000000
B1032125953853N01707657EA0130901338000536000000
B1032185953920N01707530EA0130001342000540000000
B1032245953899N01707358EA0131801358000536000000
B1032305953822N01707283EA0134601380000524000000
B1032365953722N01707329EA0134101378000532000000
B1032425953653N01707504EA0135201388000532000000
B1032485953656N01707730EA0135501393000536000000
B1032545953696N01707933EA0137001411000516000000
B1033005953757N01708091EA0138501423000520000000
B1033065953842N01708209EA0138301416000536000000
B1033125953925N01708337EA0138201416000544000000
B1033185954005N01708449EA0137801407000548000000
B1033245954104N01708536EA0135601388000548000000
B1033305954203N01708629EA0135101377000552000000
B1033365954287N01708784EA0131301324000556000000
B1033425954382N01708976EA0124901267000556000000
B1033485954476N01709169EA0121601239000552000000
B1033545954566N01709359EA0116801189000552000000
B1034005954638N01709586EA0112301150000548000000
B1034065954646N01709853EA0112101151000544000000
B1034125954611N01710106EA0112301159000536000000
B1034185954546N01710327EA0112601161000544000000
B1034245954468N01710531EA0113501173000536000000
B1034305954416N01710750EA0115401187000536000000
B1034365954415N01710978EA0116601197000536000000
B1034425954424N01711206EA0117701212000536000000
B1034485954441N01711423EA0118601222000536000000
B1034545954463N01711632EA0118601215000536000000
B1035005954480N01711860EA0117201195000536000000
B1035065954507N01712119EA0113501154000532000000
B1035125954544N01712415EA0109701122000528000000
B1035185954583N01712730EA0107901113000540000000
B1035245954619N01713021EA0109001121000536000000
B1035305954653N01713299EA0109601124000536000000
B1035365954693N01713563EA0109801130000532000000
B1035425954727N01713835EA0109001119000528000000
B1035485954779N01714087EA0109601129000536000000
B1035545954843N01714319EA0110201146000536000000
B1036005954900N01714498EA0114901187000528000000
B1036065954976N01714599EA0115501188000532000000
B1036125955036N01714479EA0116701197000528000000
B1036185954974N01714338EA0116801202000536000000
B1036245954869N01714356EA0117001201000540000000
B1036305954772N01714459EA0118601224000536000000
B1036365954728N01714629EA0119301225000532000000
B1036425954807N01714724EA0119401226000536000000
B1036485954857N01714583EA0120101234000540000000
B1036545954828N01714408EA0120901251000540000000
B1037005954763N01714275EA0123001260000532000000
B1037065954674N01714353EA0123001260000532000000
B1037125954614N01714559EA0120201219000544000000
B1037185954532N01714817EA0115601176000548000000
B1037245954454N01715112EA0113401162000548000000
B1037305954373N01715410EA0112001145000528000000
B1037365954291N01715710EA0110901140000536000000
B1037425954211N01716000EA0110601127000532000000
B1037485954134N01716305EA0108301104000532000000
B1037545954053N01716610EA0106501089000532000000
B1038005953981N01716917EA0105601080000540000000
B1038065953912N01717225EA0104001061000544000000
B1038125953838N01717524EA0103101051000540000000
B1038185953758N01717824EA0100501016000544000000
B1038245953666N01718127EA0097801017000544000000
B1038305953582N01718373EA0102001075000544000000
B1038365953532N01718564EA0107801109000532000000
B1038425953608N01718658EA0109101123000540000000
B1038485953622N01718499EA0111001141000540000000
B1038545953526N01718431EA0112301151000544000000
B1039005953414N01718443EA0113901173000536000000
B1039065953379N01718621EA0115401191000532000000
B1039125953454N01718720EA0117101206000524000000
B1039185953518N01718612EA0118601220000524000000
B1039245953475N01718456EA0120001234000532000000
B1039305953381N01718509EA0121201246000536000000
B1039365953344N01718703EA0123201270000532000000
B1039425953379N01718872EA0123901269000516000000
B1039485953442N01718771EA0124601284000524000000
B1039545953374N01718660EA0126001296000536000000
B1040005953289N01718767EA0128201315000536000000
B1040065953229N01718937EA0129101323000544000000
B1040125953166N01719127EA0128701315000548000000
B1040185953054N01719217EA0127901311000548000000
B1040245952946N01719122EA0128701331000548000000
B1040305952860N01718988EA0129701324000552000000
B1040365952778N01718810EA0128801322000548000000
B1040425952688N01718638EA0129901339000552000000
B1040485952586N01718522EA0132501369000544000000
B1040545952483N01718596EA0134601383000532000000
B1041005952496N01718789EA0135701391000540000000
B1041065952579N01718879EA0137001410000544000000
B1041125952631N01718756EA0138501418000540000000
B1041185952536N01718677EA0139101424015556000000
B1041245952477N01718860EA0140201438000548000000
B1041305952509N01719061EA0141201446000544000000
B1041365952600N01719100EA0141601450000548000000
B1041425952660N01718937EA0140901442000552000000
B1041485952681N01718721EA0139001423000556000000
B1041545952705N01718505EA0137901409000556000000
B1042005952722N01718291EA0134501371000544000000
B1042065952718N01718073EA0129801326000552000000
B1042125952717N01717848EA0126101279000552000000
B1042185952720N01717616EA0121101232000556000000
B1042245952696N01717389EA0117101197000552000000
B1042305952590N01717315EA0114901174000556000000
B1042365952505N01717481EA0111401137000552000000
B1042425952501N01717736EA0108001112000560000000
B1042485952526N01717992EA0108101111000556000000
B1042545952557N01718264EA0106301085000548000000
B1043005952590N01718559EA0104001064000548000000
B1043065952630N01718863EA0102701063000552000000
B1043125952675N01719080EA0108801130000556000000
B1043185952743N01719019EA0110501132000548000000
B1043245952712N01718847EA0111401151000552000000
B1043305952620N01718788EA0113101162000556000000
B1043365952534N01718899EA0112401145000556000000
B1043425952469N01719102EA0111201147000556000000
B1043485952482N01719332EA0111401143000552000000
B1043545952531N01719555EA0111001140000552000000
B1044005952594N01719755EA0111901152000556000000
B1044065952692N01719869EA0111201138000556000000
B1044125952807N01719925EA0110401128000552000000
B1044185952924N01719942EA0109601133000540000000
B1044245953024N01719890EA0111901163000544000000
B1044305953036N01719746EA0115701193000540000000
B1044365952938N01719742EA0117601206000536000000
B1044425952902N01719928EA0118701219000544000000
B1044485952960N01720029EA0118901217000544000000
B1044545953024N01719948EA0120101238000552000000
B1045005953026N01719792EA0120901242000548000000
B1045065952941N01719720EA0121801249000544000000
B1045125952880N01719885EA0122101256000548000000
B1045185952932N01720030EA0123201269000544000000
B1045245953012N01720026EA0124801284000548000000
B1045305953088N01719985EA0125201285000548000000
B1045365953162N01719925EA0125101284000552000000
B1045425953219N01719805EA0125301290000544000000
B1045485953270N01719674EA0127001303000544000000
B1045545953323N01719531EA0126901301000544000000
B1046005953328N01719337EA0125601276000548000000
B1046065953367N01719140EA0122701257000548000000
B1046125953453N01719005EA0121701250000548000000
B1046185953552N01719042EA0121801246000544000000
B1046245953627N01719185EA0121501244000544000000
B1046305953704N01719308EA0120601233000532000000
B1046365953782N01719422EA0119701225000540000000
B1046425953864N01719539EA0118201210000544000000
B1046485953947N01719664EA0117301201000544000000
B1046545954027N01719786EA0116501194000548000000
B1047005954105N01719915EA0115601185000548000000
B1047065954185N01720054EA0114201172000552000000
B1047125954278N01720146EA0114401175000556000000
B1047185954371N01720220EA0114201170000560000000
B1047245954463N01720285EA0113601160000552000000
B1047305954567N01720362EA0111301132000556000000
B1047365954681N01720435EA0109101117000548000000
B1047425954797N01720506EA0107801106000548000000
B1047485954915N01720567EA0106701094000548000000
B1047545955032N01720623EA0106101090000552000000
B1048005955145N01720682EA0105601086000556000000
B1048065955253N01720723EA0105601086000556000000
B1048125955355N01720747EA0105901085000552000000
B1048185955457N01720702EA0104601070000556000000
B1048245955565N01720682EA0104601074000556000000
B1048305955668N01720700EA0104801076000552000000
B1048365955771N01720713EA0103901066000556000000
B1048425955870N01720743EA0104001069000556000000
B1048485955958N01720762EA0104201067000540000000
B1048545956058N01720774EA0103101060000548000000
B1049005956161N01720756EA0104201075000540000000
B1049065956256N01720713EA0105501090000544000000
B1049125956341N01720637EA0106401092000544000000
B1049185956439N01720566EA0105901087000548000000
B1049245956523N01720491EA0106701102000552000000
B1049305956588N01720363EA0105901077000548000000
B1049365956618N01720168EA0104501074000552000000
B1049425956565N01720006EA0104401068000556000000
B1049485956462N01719961EA0103601063000552000000
B1049545956366N01720077EA0104201073000552000000
B1050005956287N01720231EA0105501089000544000000
B1050065956211N01720388EA0106301088000544000000
B1050125956157N01720578EA0106101091000544000000
B1050185956149N01720799EA0106501093000548000000
B1050245956209N01720975EA0106601089000548000000
B1050305956313N01721109EA0104001067000556000000
B1050365956427N01721237EA0104301076000556000000
B1050425956529N01721341EA0107201098000556000000
B1050485956637N01721473EA0104701077000556000000
B1050545956735N01721611EA0106501107000556000000
B1051005956822N01721737EA0108101107000552000000
B1051065956911N01721874EA0107401098000544000000
B1051125957001N01722038EA0106601102000544000000
B1051185957094N01722179EA0107101095000548000000
B1051245957205N01722218EA0106401086000552000000
B1051305957314N01722153EA0104301066000548000000
B1051365957423N01722066EA0102301039000548000000
B1051425957526N01721921EA0101701042000548000000
B1051485957625N01721752EA0100501027000548000000
B1051545957722N01721571EA0099801023000552000000
B1052005957820N01721389EA0097200989000552000000
B1052065957929N01721216EA0095900981000548000000
B1052125958031N01721031EA0094300967000548000000
B1052185958126N01720845EA0094500974000544000000
B1052245958165N01720606EA0093900960000544000000
B1052305958142N01720342EA0092400941000548000000
B1052365958102N01720075EA0090200925000544000000
B1052425958061N01719812EA0089000911000544000000
B1052485958017N01719542EA0085600866000548000000
B1052545957966N01719254EA0083200862000556000000
B1053005957921N01719018EA0087800900000556000000
B1053065957877N01718771EA0086700889000560000000
B1053125957833N01718530EA0088300919000560000000
B1053185957795N01718334EA0090200925000540000000
B1053245957753N01718102EA0087000895000552000000
B1053305957712N01717863EA0086200874000548000000
B1053365957682N01717589EA0083300856000548000000
B1053425957652N01717320EA0083400855000548000000
B1053485957623N01717079EA0086200906000548000000
B1053545957540N01716988EA0090000924000548000000
B1054005957484N01717160EA0090500934000548000000
B1054065957543N01717280EA0092800950000544000000
B1054125957621N01717222EA0092900960000544000000
B1054185957652N01717078EA0094700971000540000000
B1054245957562N01716997EA0096100993000540000000
B1054305957504N01717163EA0098601009000540000000
B1054365957565N01717291EA0099001017000544000000
B1054425957610N01717170EA0101001035000548000000
B1054485957588N01717007EA0103401062000540000000
B1054545957500N01717057EA0104801077000540000000
B1055005957523N01717246EA0106501095000544000000
B1055065957605N01717265EA0108301114000540000000
B1055125957622N01717124EA0109601126000540000000
B1055185957523N01717129EA0112301156000536000000
B1055245957517N01717337EA0114001172000536000000
B1055305957602N01717369EA0116201192000536000000
B1055365957635N01717221EA0115601183000532000000
B1055425957548N01717113EA0116801207000540000000
B1055485957456N01717230EA0120101236000536000000
B1055545957502N01717389EA0121501249000540000000
B1056005957547N01717255EA0124301284000536000000
B1056065957471N01717172EA0127601307000536000000
B1056125957419N01717352EA0128301316000536000000
B1056185957502N01717441EA0130501342000536000000
B1056245957528N01717291EA0133301371000536000000
B1056305957435N01717267EA0135001388000540000000
B1056365957420N01717475EA0136801406000544000000
B1056425957510N01717497EA0139001433000536000000
B1056485957500N01717332EA0141401452000536000000
B1056545957394N01717316EA0144201485000536000000
B1057005957348N01717504EA0145501486000540000000
B1057065957440N01717593EA0147101512000536000000
B1057125957485N01717452EA0149201537000540000000
B1057185957401N01717358EA0151901562000540000000
B1057245957324N01717519EA0154501585000532000000
B1057305957340N01717762EA0154601579000532000000
B1057365957398N01718017EA0153101564000544000000
B1057425957488N01718245EA0153301569000548000000
B1057485957619N01718295EA0153001566000544000000
B1057545957751N01718222EA0151901551000524000000
B1058005957830N01718069EA0153101575000536000000
B1058065957752N01717928EA0152201544000540000000
B1058125957635N01717871EA0151901565000544000000
B1058185957524N01717816EA0152801565000544000000
B1058245957407N01717797EA0153101572000552000000
B1058305957298N01717836EA0155601594000544000000
B1058365957212N01717978EA0156301602000544000000
B1058425957149N01718178EA0157301610000544000000
B1058485957116N01718408EA0157301606000544000000
B1058545957121N01718652EA0156301599000544000000
B1059005957101N01718888EA0156001594000544000000
B1059065957088N01719111EA0156101594000544000000
B1059125957099N01719341EA0156001597000556000000
B1059185957134N01719573EA0156601603000552000000
B1059245957185N01719781EA0158101619000548000000
B1059305957274N01719734EA0158701616000552000000
B1059365957251N01719505EA0158801641000548000000
B1059425957163N01719393EA0163201675000540000000
B1059485957054N01719382EA0164801689000536000000
B1059545956945N01719451EA0165201690000544000000
B1100005956863N01719605EA0165701693000548000000
B1100065956807N01719813EA0163601669000532000000
B1100125956780N01720065EA0161601640000536000000
B1100185956754N01720344EA0159401628000544000000
B1100245956739N01720614EA0159901639000552000000
B1100305956731N01720866EA0160101638000556000000
B1100365956734N01721117EA0159801631000556000000
B1100425956735N01721372EA0159401630000552000000
B1100485956739N01721624EA0159101625000552000000
B1100545956752N01721870EA0159001623000552000000
B1101005956770N01722117EA0158001614000552000000
B1101065956791N01722366EA0157401608000556000000
B1101125956811N01722617EA0156701604000556000000
B1101185956826N01722871EA0155701593000556000000
B1101245956839N01723133EA0154301575000544000000
B1101305956838N01723408EA0153001564000544000000
B1101365956837N01723681EA0152201556000544000000
B1101425956843N01723954EA0151701552000552000000
B1101485956861N01724220EA0151301549000556000000
B1101545956884N01724479EA0151001545000560000000
B1102005956921N01724721EA0151301546000560000000
B1102065957028N01724792EA0150701539000552000000
B1102125957129N01724690EA0149501522000552000000
B1102185957244N01724552EA0146001490000556000000
B1102245957366N01724392EA0144501480000532000000
B1102305957483N01724207EA0143501470000540000000
B1102365957601N01724020EA0142601461000540000000
B1102425957717N01723830EA0141801451000536000000
B1102485957795N01723598EA0141601457000540000000
B1102545957787N01723340EA0141701453000536000000
B1103005957749N01723075EA0140401442000540000000
B1103065957717N01722816EA0140401444000544000000
B1103125957675N01722564EA0139001420000544000000
B1103185957617N01722308EA0137301412000540000000
B1103245957558N01722049EA0136001395000544000000
B1103305957492N01721783EA0134501384000548000000
B1103365957428N01721521EA0134301379000552000000
B1103425957371N01721260EA0134001393000552000000
B1103485957326N01721064EA0139401456000544000000
B1103545957285N01720904EA0142101466000540000000
B1104005957236N01720748EA0144001486000544000000
B1104065957144N01720684EA0144801492000540000000
B1104125957082N01720852EA0146201509000544000000
B1104185957133N01721013EA0146701505000544000000
B1104245957218N01720968EA0146801511000544000000
B1104305957218N01720793EA0148001521000540000000
B1104365957133N01720682EA0150301547000540000000
B1104425957050N01720788EA0151401552000524000000
B1104485957092N01720969EA0151401559000532000000
B1104545957179N01720936EA0152701570000540000000
B1105005957203N01720769EA0154101587000536000000
B1105065957145N01720624EA0155401597000540000000
B1105125957042N01720634EA0155101590000548000000
B1105185956986N01720810EA0155001594000548000000
B1105245957043N01720966EA0155401591000556000000
B1105305957127N01720901EA0156201610000544000000
B1105365957131N01720731EA0158701632000544000000
B1105425957072N01720617EA0158801618000540000000
B1105485956968N01720652EA0156401605000544000000
B1105545956923N01720840EA0157201606000556000000
B1106005956941N01721050EA0156601610000556000000
B1106065956956N01721252EA0156601602000556000000
B1106125956965N01721481EA0156301608000556000000
B1106185956984N01721703EA0157001607000552000000
B1106245957004N01721926EA0156301602000556000000
B1106305957032N01722148EA0155101578000556000000
B1106365957060N01722413EA0152701565000556000000
B1106425957076N01722671EA0153401570000552000000
B1106485957088N01722927EA0153401570000552000000
B1106545957103N01723183EA0152701566000536000000
B1107005957121N01723436EA0152501562000540000000
B1107065957140N01723699EA0151401552000548000000
B1107125957155N01723972EA0150501542000556000000
B1107185957171N01724250EA0149701536000556000000
B1107245957184N01724524EA0149801537000556000000
B1107305957193N01724797EA0148901527000552000000
B1107365957214N01725073EA0148501526000556000000
B1107425957262N01725324EA0148901525000560000000
B1107485957324N01725557EA0148301521000564000000
B1107545957426N01725711EA0147401505000556000000
B1108005957552N01725723EA0146201502000560000000
B1108065957669N01725629EA0144501473000560000000
B1108125957783N01725477EA0143001466000560000000
B1108185957894N01725312EA0142401464000564000000
B1108245957999N01725132EA0142301466000564000000
B1108305958090N01724942EA0143301471000560000000
B1108365958095N01724710EA0143601468000552000000
B1108425958030N01724487EA0140401428000552000000
B1108485957957N01724250EA0139601439000552000000
B1108545957888N01724047EA0143301494000552000000
B1109005957823N01723890EA0144101452000548000000
B1109065957713N01723672EA0137301406000548000000
B1109125957599N01723445EA0136301398000532000000
B1109185957487N01723223EA0135801391000536000000
B1109245957370N01723009EA0134701387000540000000
B1109305957255N01722807EA0135001389000540000000
B1109365957163N01722625EA0137601422000540000000
B1109425957069N01722447EA0135501382000544000000
B1109485956984N01722256EA0136501409000544000000
B1109545956908N01722079EA0136701402000552000000
B1110005956832N01721893EA0137701420000548000000
B1110065956722N01721919EA0140501440000564000000
B1110125956728N01722129EA0140401437000564000000
B1110185956819N01722166EA0140801449000560000000
B1110245956871N01722052EA0141401450000552000000
B1110305956796N01721930EA0142101462000556000000
B1110365956726N01722096EA0143901474000560000000
B1110425956796N01722214EA0144701483000560000000
B1110485956856N01722090EA0145201487000564000000
B1110545956802N01721939EA0145401496000560000000
B1111005956713N01722066EA0147701517000552000000
B1111065956748N01722272EA0147401510000552000000
B1111125956842N01722259EA0149001532000548000000
B1111185956838N01722091EA0150601545000544000000
B1111245956735N01722070EA0151501555000544000000
B1111305956685N01722272EA0152901569000528000000
B1111365956755N01722421EA0153701578000536000000
B1111425956826N01722338EA0155801601000536000000
B1111485956803N01722173EA0157001616000532000000
B1111545956702N01722134EA0158601625000536000000
B1112005956592N01722249EA0159301632000540000000
B1112065956536N01722457EA0159501634000548000000
B1112125956607N01722589EA0159001623000556000000
B1112185956635N01722437EA0159701643000556000000
B1112245956551N01722334EA0161401650000548000000
B1112305956434N01722335EA0160301641000548000000
B1112365956354N01722490EA0160001631000544000000
B1112425956383N01722685EA0157901609000540000000
B1112485956475N01722755EA0156701605000544000000
B1112545956569N01722841EA0157201614000540000000
B1113005956631N01723018EA0157101611000544000000
B1113065956639N01723249EA0157501617000544000000
B1113125956608N01723490EA0156901604000544000000
B1113185956587N01723746EA0156701604000552000000
B1113245956621N01723991EA0157001610000552000000
B1113305956682N01724205EA0156901606000556000000
B1113365956746N01724424EA0156001602000556000000
B1113425956813N01724623EA0156601608000540000000
B1113485956885N01724812EA0156401600000548000000
B1113545956960N01724991EA0155801599000556000000
B1114005957037N01725173EA0154701584000552000000
B1114065957119N01725349EA0154301583000556000000
B1114125957206N01725499EA0154001583000556000000
B1114185957296N01725635EA0154301583000560000000
B1114245957388N01725765EA0154001579000556000000
B1114305957484N01725887EA0153701577000556000000
B1114365957579N01726014EA0153401574000552000000
B1114425957671N01726149EA0152701562000552000000
B1114485957765N01726282EA0151201550000552000000
B1114545957862N01726404EA0150401545000548000000
B1115005957968N01726441EA0150201539000552000000
B1115065958076N01726406EA0148401515000556000000
B1115125958182N01726274EA0144801472000552000000
B1115185958290N01726081EA0141401445000548000000
B1115245958394N01725870EA0140101440000544000000
B1115305958494N01725667EA0140501452000548000000
B1115365958590N01725472EA0139901433000544000000
B1115425958693N01725275EA0138901431000544000000
B1115485958789N01725086EA0138901431000540000000
B1115545958886N01724898EA0138001421000540000000
B1116005958980N01724706EA0137901417000532000000
B1116065959071N01724504EA0136701402000536000000
B1116125959162N01724290EA0135301391000544000000
B1116185959253N01724080EA0134701383000548000000
B1116245959347N01723864EA0133401365000548000000
B1116305959442N01723646EA0132001350000548000000
B1116365959545N01723432EA0129801329000548000000
B1116425959656N01723215EA0127701314000548000000
B1116485959768N01723013EA0128201323000552000000
B1116545959861N01722833EA0131101363000556000000
B1117005959941N01722678EA0132801357000552000000
B1117066000040N01722495EA0131001343000548000000
B1117126000145N01722296EA0129701326000548000000
B1117186000251N01722091EA0128101318000552000000
B1117246000351N01721889EA0128001318000548000000
B1117306000451N01721690EA0126901302000544000000
B1117366000552N01721494EA0125901293000544000000
B1117426000652N01721295EA0124601277000544000000
B1117486000754N01721091EA0122601264000540000000
B1117546000858N01720895EA0121601242000544000000
B1118006000972N01720712EA0120001238000544000000
B1118066001094N01720572EA0119901226000548000000
B1118126001227N01720457EA0118501221000548000000
B1118186001356N01720358EA0118301229000540000000
B1118246001467N01720253EA0120001231000548000000
B1118306001583N01720119EA0117601207000552000000
B1118366001683N01719951EA0118201236000552000000
B1118426001759N01719799EA0120901263000552000000
B1118486001818N01719668EA0124301290000544000000
B1118546001877N01719551EA0125301288000552000000
B1119006001944N01719396EA0123801276000552000000
B1119066001995N01719243EA0127401309000548000000
B1119126002013N01719044EA0126501283000548000000
B1119186002082N01718823EA0122401250000548000000
B1119246002185N01718626EA0120701233000552000000
B1119306002308N01718451EA0117301204000544000000
B1119366002432N01718282EA0116801194000544000000
B1119426002540N01718074EA0115501182000548000000
B1119486002643N01717852EA0114001165000548000000
B1119546002740N01717621EA0112601159000544000000
B1120006002830N01717389EA0112001152000548000000
B1120066002914N01717150EA0110801136000548000000
B1120126002986N01716888EA0110101129000548000000
B1120186003049N01716615EA0108801117000548000000
B1120246003126N01716358EA0106701100000552000000
B1120306003194N01716182EA0112301158000536000000
B1120366003282N01716009EA0109401130000552000000
B1120426003358N01715899EA0115301197000552000000
B1120486003441N01715964EA0115901196000544000000
B1120546003532N01716045EA0116801209000548000000
B1121006003620N01715954EA0116201194000556000000
B1121066003698N01715787EA0116201209000560000000
B1121126003792N01715821EA0120001232000560000000
B1121186003807N01716034EA0119701230000564000000
B1121246003711N01716069EA0118601219000572000000
B1121306003680N01715899EA0119501221000572000000
B1121366003719N01715743EA0121501260000556000000
B1121426003793N01715605EA0118701193000560000000
B1121486003917N01715531EA0117601243000564000000
B1121546004027N01715478EA0118101199000564000000
B1122006004156N01715444EA0120001252000560000000
B1122066004238N01715448EA0124001259000560000000
B1122126004356N01715434EA0119701236000560000000
B1122186004460N01715385EA0122601295000556000000
B1122246004538N01715320EA0125101277000548000000
B1122306004637N01715207EA0121401236000556000000
B1122366004739N01715072EA0122401287000556000000
B1122426004820N01714963EA0124301261000556000000
B1122486004921N01714789EA0118301209000540000000
B1122546005044N01714641EA0118201215000548000000
B1123006005163N01714501EA0117201201000548000000
B1123066005284N01714365EA0116601198000548000000
B1123126005413N01714253EA0115201182000548000000
B1123186005542N01714143EA0114201171000544000000
B1123246005674N01714020EA0112901157000544000000
B1123306005803N01713897EA0112501159000544000000
B1123366005926N01713783EA0112401157000548000000
B1123426006054N01713651EA0110001127000544000000
B1123486006181N01713513EA0108801119000544000000
B1123546006307N01713376EA0107801110000544000000
B1124006006431N01713235EA0107301107000548000000
B1124066006554N01713103EA0107101102000548000000
B1124126006682N01712990EA0105801089000548000000
B1124186006812N01712888EA0104901079000544000000
B1124246006942N01712787EA0104101075000544000000
B1124306007069N01712696EA0103601065000544000000
B1124366007200N01712603EA0101801049000548000000
B1124426007334N01712519EA0100801042000552000000
B1124486007466N01712436EA0100201027000556000000
B1124546007598N01712355EA0099001017000552000000
B1125006007733N01712264EA0097000995000548000000
B1125066007858N01712122EA0094800975000536000000
B1125126007983N01711964EA0093400969000544000000
B1125186008099N01711805EA0093700972000552000000
B1125246008218N01711678EA0094300980000552000000
B1125306008350N01711582EA0093200958000552000000
B1125366008498N01711521EA0092800974000556000000
B1125426008629N01711501EA0096101028000552000000
B1125486008723N01711474EA0101201053000548000000
B1125546008736N01711315EA0104001080000548000000
B1126006008641N01711298EA0105001093000556000000
B1126066008616N01711510EA0106701108000552000000
B1126126008699N01711643EA0108001123000548000000
B1126186008781N01711600EA0110601150000544000000
B1126246008745N01711450EA0112201166000548000000
B1126306008639N01711505EA0113001176000544000000
B1126366008626N01711726EA0115201201000544000000
B1126426008706N01711852EA0116501214000544000000
B1126486008797N01711825EA0118401222000540015000
B1126546008812N01711643EA0119601244000544000000
B1127006008727N01711558EA0121201256000544000000
B1127066008682N01711758EA0123401275000552000000
B1127126008769N01711836EA0124401289000552000000
B1127186008828N01711691EA0125901310000532000000
B1127246008786N01711535EA0128901335000540000000
B1127306008697N01711634EA0129801351000544000000
B1127366008730N01711831EA0131701362000552000000
B1127426008812N01711779EA0133001381000552015000
B1127486008775N01711622EA0134901405000552000000
B1127546008686N01711712EA0136401416000548000000
B1128006008721N01711907EA0137701430000556000000
B1128066008814N01711878EA0139301443000552000000
B1128126008812N01711703EA0140201450000548000000
B1128186008712N01711735EA0142401479000548000000
B1128246008723N01711948EA0143801488000556000000
B1128306008816N01711952EA0145001498000556015000
B1128366008858N01711783EA0146701516000552000000
B1128426008781N01711673EA0147801531000548000000
B1128486008704N01711813EA0150501550000540000000
B1128546008741N01712015EA0151501561000544000000
B1129006008838N01712056EA0153501584000540015000
B1129066008922N01711987EA0156101607000536000000
B1129126008997N01711898EA0158201627000536000000
B1129186009083N01711805EA0159101637000540000000
B1129246009182N01711716EA0159301633000544000000
B1129306009278N01711614EA0160101640000548000000
B1129366009390N01711485EA0154901569000536000000
B1129426009531N01711348EA0151701555000544000000
B1129486009683N01711257EA0150501537000548000000
B1129546009839N01711175EA0148301519000548000000
B1130006009998N01711090EA0146601501000548000000
B1130066010158N01711032EA0145001487000548000000
B1130126010319N01710994EA0144201482000552000000
B1130186010475N01710949EA0143301464000548000000
B1130246010608N01710884EA0146401516000552000000
B1130306010630N01710712EA0149001523000556000000
B1130366010513N01710653EA0145401484000564000000
B1130426010362N01710730EA0142701465000568015000
B1130486010207N01710846EA0141001436000568000000
B1130546010045N01710975EA0138601424000560000000
B1131006009885N01710965EA0138801425000564000000
B1131066009750N01710825EA0137001402000564000000
B1131126009621N01710644EA0134001361000564000000
B1131186009484N01710449EA0131101346000556000000
B1131246009352N01710258EA0130301339000556000000
B1131306009215N01710089EA0129201341000556000000
B1131366009091N01709942EA0130901334000560000000
B1131426008949N01709785EA0127401319000560000000
B1131486008836N01709669EA0134101385000560000000
B1131546008723N01709577EA0134301372000544000000
B1132006008585N01709490EA0129201320000552000000
B1132066008431N01709394EA0127001315000552000000
B1132126008291N01709307EA0129301347000556000000
B1132186008191N01709251EA0134101375000548000000
B1132246008062N01709178EA0128101304000552000000
B1132306007939N01709008EA0125301289000556000000
B1132366007815N01708826EA0122501248000556000000
B1132426007684N01708641EA0120501240000552000000
B1132486007551N01708454EA0118601222000552000000
B1132546007425N01708267EA0118501229000556000000
B1133006007298N01708092EA0117801213000552000000
B1133066007172N01707920EA0117301209000552000000
B1133126007047N01707761EA0116601205000548000000
B1133186006922N01707601EA0115401192000556000000
B1133246006797N01707436EA0114601183000552000000
B1133306006669N01707272EA0113201167000552000000
B1133366006535N01707121EA0112801164000552000000
B1133426006401N01706967EA0111201148000556000000
B1133486006271N01706802EA0110201137000556000000
B1133546006128N01706690EA0110401159000552000000
B1134006005997N01706621EA0113501187000556000000
B1134066005883N01706566EA0115801194000540000000
B1134126005772N01706508EA0116501205000552000000
B1134186005666N01706441EA0118201225000552000000
B1134246005561N01706386EA0120401249000544000000
B1134306005451N01706441EA0122201267000544000000
B1134366005438N01706647EA0124701284000560000000
B1134426005525N01706673EA0125101284000568015000
B1134486005527N01706496EA0125801294000576000000
B1134546005497N01706327EA0128001316000560000000
B1135006005404N01706296EA0128601311000572000000
B1135066005374N01706501EA0127801314000568000000
B1135126005457N01706526EA0128201324000560015000
B1135186005471N01706370EA0130901343000552000000
B1135246005412N01706206EA0130301345000552000000
B1135306005336N01706087EA0131901351000552000000
B1135366005245N01705953EA0129601325000556000000
B1135426005144N01705795EA0127201299000560000000
B1135486005048N01705600EA0125001276000560000000
B1135546004946N01705377EA0121301249000560000000
B1136006004863N01705139EA0121701249000556000000
B1136066004791N01704884EA0120301238000556000000
B1136126004741N01704637EA0121801285000560000000
B1136186004706N01704476EA0128701313000548000000
B1136246004661N01704264EA0126101289000544000000
B1136306004637N01704008EA0124001276000552000000
B1136366004647N01703773EA0128301340000548000000
B1136426004620N01703593EA0132201361000552000000
B1136486004517N01703585EA0134001382000556000000
B1136546004485N01703791EA0135901391000560000000
B1137006004572N01703921EA0134901393000556000000
B1137066004665N01703857EA0137001413000556000000
B1137126004699N01703697EA0138801436000556000000
B1137186004624N01703607EA0141101449000552000000
B1137246004547N01703756EA0141101449000560000000
B1137306004594N01703948EA0143001469000560000000
B1137366004685N01703979EA0143901479000556000000
B1137426004720N01703822EA0145101495000548000000
B1137486004648N01703710EA0146901511000548000000
B1137546004580N01703870EA0146701501000556015000
B1138006004655N01704030EA0148001530000552000000
B1138066004726N01703949EA0150101534000556015000
B1138126004660N01703825EA0151101556000560000000
B1138186004586N01703974EA0151601554000560000000
B1138246004651N01704139EA0153201576000560000000
B1138306004717N01704042EA0154601586000552015000
B1138366004659N01703910EA0155501599000556015000
B1138426004546N01703880EA0153801559000564000000
B1138486004400N01703822EA0149301527000568000000
B1138546004245N01703765EA0148101524000564000000
B1139006004099N01703717EA0148401527000564000000
B1139066003948N01703676EA0147501523000560000000
B1139126003797N01703639EA0146501495000560000000
B1139186003636N01703585EA0143401476000564000000
B1139246003472N01703535EA0142401467000560000000
B1139306003319N01703487EA0143601477000556000000
B1139366003165N01703445EA0141801453000560000000
B1139426003005N01703373EA0138201422000560000000
B1139486002865N01703238EA0139701439000564000000
B1139546002749N01703097EA0141801466000564000000
B1140006002637N01702941EA0141001446000564000000
B1140066002519N01702757EA0139701447000568015000
B1140126002431N01702608EA0145401495000564015000
B1140186002329N01702435EA0139901433000568015000
B1140246002219N01702241EA0139401441000572015000
B1140306002108N01702042EA0138101418000568015000
B1140366001998N01701836EA0137201410000564015000
B1140426001887N01701626EA0135801401000560015000
B1140486001778N01701421EA0135201384000560015000
B1140546001670N01701206EA0133001365000544015000
B1141006001561N01700997EA0132601361000552015000
B1141066001450N01700790EA0131001348000556015000
B1141126001344N01700581EA0129701335000556015000
B1141186001236N01700369EA0127401303000556015000
B1141246001122N01700147EA0124801297000560015000
B1141306001018N01659945EA0126501313000568015000
B1141366000917N01659759EA0127201313000564015000
B1141426000813N01659574EA0125501282000560015000
B1141486000695N01659372EA0122101257000560015000
B1141546000590N01659174EA0123201285000568015000
B1142006000492N01659003EA0125001308000568015000
B1142066000425N01658891EA0130701345000560015000
B1142126000353N01658734EA0127501300000564015000
B1142186000236N01658562EA0122501250000568015000
B1142246000101N01658404EA0120201235000564015000
B1142305959967N01658277EA0120501247000568015000
B1142365959835N01658175EA0120701255000572015000
B1142425959737N01658119EA0126001298000568015000
B1142485959625N01658023EA0121401239000568015000
B1142545959502N01657894EA0119601233000568015000
B1143005959364N01657877EA0120701251000572015000
B1143065959248N01657924EA0123801293000560000000
B1143125959148N01657942EA0127201312000544000000
B1143185959131N01657786EA0127901321000556000000
B1143245959216N01657828EA0128501332000564000000
B1143305959214N01658034EA0130901353000568000000
B1143365959146N01658205EA0132001360000568000000
B1143425959073N01658101EA0133901384000568000000
B1143485959147N01658054EA0134201381000572000000
B1143545959157N01658270EA0136701418000568015000
B1144005959066N01658341EA0138901431000568015000
B1144065959062N01658168EA0138801433000572000000
B1144125959148N01658198EA0141801469000564015000
B1144185959110N01658387EA0143501482000560015000
B1144245959025N01658301EA0145501501000560000000
B1144305959082N01658176EA0147501521000560000000
B1144365959162N01658300EA0149401548000556015000
B1144425959114N01658495EA0152401572000556015000
B1144485959026N01658419EA0154001587000556000000
B1144545959095N01658319EA0154601592000560000000
B1145005959123N01658522EA0156701624000564015000
B1145065959022N01658554EA0160201651000556015000
B1145125959027N01658388EA0161601665000560000000
B1145185959116N01658456EA0163501686000560000000
B1145245959112N01658665EA0166101715000556000000
B1145305959016N01658686EA0168601734000548015000
B1145365959019N01658519EA0170101755000560000000
B1145425959104N01658569EA0172401771000560015000
B1145485959078N01658783EA0174401806000556000000
B1145545958978N01658844EA0176201812000552015000
B1146005958964N01658683EA0179001839000556000000
B1146065959049N01658719EA0179101843000560015000
B1146125959032N01658940EA0182001879000560015000
B1146185958932N01659018EA0184201889000552015000
B1146245958901N01658844EA0184601900000564000000
B1146305958988N01658797EA0187001923000564000000
B1146365959053N01658940EA0189301949000556015000
B1146425958993N01659115EA0191201965000556015000
B1146485958896N01659052EA0193301984000552015000
B1146545958839N01658875EA0192701976000560015000
B1147005958778N01658688EA0193301981000560015000
B1147065958691N01658502EA0189501929000564015000
B1147125958572N01658285EA0186001905000568015000
B1147185958447N01658076EA0185401895000572015000
B1147245958340N01657839EA0183201883000560015000
B1147305958293N01657546EA0182301868000564015000
B1147365958259N01657252EA0181501862000564015000
B1147425958191N01656993EA0180701849000548015000
B1147485958081N01656788EA0179801839000552015000
B1147545957957N01656606EA0177901825000552015000
B1148005957826N01656438EA0176401805000552015000
B1148065957680N01656291EA0174301784000556015000
B1148125957532N01656139EA0172101759000560015000
B1148185957381N01655970EA0169701742000564015000
B1148245957240N01655793EA0169901743000568015000
B1148305957102N01655624EA0169001737000568015000
B1148365956965N01655453EA0168101725000572015000
B1148425956832N01655258EA0166601709000568015000
B1148485956702N01655050EA0165901705000572015000
B1148545956586N01654835EA0167701731000576015000
B1149005956492N01654617EA0168701732000576015000
B1149065956410N01654377EA0168601740000580015000
B1149125956340N01654134EA0170201752000576015000
B1149185956283N01653886EA0172601777000572015000
B1149245956239N01653635EA0171901756000576015000
B1149305956200N01653349EA0167601714000576015000
B1149365956182N01653027EA0165101702000580015000
B1149425956174N01652747EA0169701766000584015000
B1149485956170N01652518EA0173801785000568015000
B1149545956165N01652273EA0172201737000568015000
B1150005956140N01651969EA0166601722000568015000
B1150065956115N01651697EA0170201738000576015000
B1150125956085N01651425EA0169701723000572015000
B1150185956026N01651139EA0166001694000580015000
B1150245955951N01650852EA0163401671000584015000
B1150305955859N01650580EA0161701654000580015000
B1150365955768N01650329EA0163001671000580015000
B1150425955676N01650090EA0162501661000576015000
B1150485955584N01649847EA0161101653000576015000
B1150545955490N01649612EA0160001641000572015000
B1151005955403N01649371EA0159201631000576015000
B1151065955317N01649137EA0158701631000572015000
B1151125955229N01648910EA0157701615000572015000
B1151185955144N01648670EA0156601604000572015000
B1151245955057N01648425EA0155001593000572015000
B1151305954966N01648186EA0154201587000572015000
B1151365954874N01647953EA0153401565000572015000
B1151425954780N01647703EA0151201555000580015000
B1151485954690N01647459EA0150101539000580015000
B1151545954606N01647191EA0148201539000580015000
B1152005954555N01646930EA0152301569000580015000
B1152065954534N01646696EA0156101603000580015000
B1152125954518N01646438EA0154601580000580015000
B1152185954508N01646198EA0158701650000556015000
B1152245954501N01646012EA0161801630000564015000
B1152305954507N01645736EA0155601600000568015000
B1152365954511N01645467EA0157401653000568015000
B1152425954516N01645288EA0164201687000560015000
B1152485954563N01645111EA0165001691000560015000
B1152545954607N01644886EA0163101667000568015000
B1153005954623N01644621EA0163401704000568015000
B1153065954629N01644440EA0169201714000568015000
B1153125954632N01644184EA0161601639000572015000
B1153185954629N01643892EA0160101666000572015000
B1153245954616N01643632EA0162301668000576015000
B1153305954598N01643356EA0161801665000580015000
B1153365954577N01643093EA0162301693000576015000
B1153425954559N01642896EA0166701689000580015000
B1153485954525N01642629EA0160201630000576015000
B1153545954492N01642329EA0158101630000576015000
B1154005954503N01642086EA0163101699000576015000
B1154065954534N01641896EA0166001717000568015000
B1154125954559N01641743EA0169601737000560015000
B1154185954514N01641580EA0168301729000564015000
B1154245954406N01641492EA0166601705000568015000
B1154305954291N01641446EA0169801768000552015000
B1154365954198N01641381EA0170801740000560015000
B1154425954111N01641182EA0166701715000572015000
B1154485954038N01640963EA0168001730000580015000
B1154545953956N01640757EA0167801730000576015000
B1155005953874N01640551EA0167301721000572015000
B1155065953788N01640332EA0165201692000568015000
B1155125953693N01640105EA0162501657000568015000
B1155185953593N01639863EA0161101662000568015000
B1155245953498N01639639EA0161301657000568015000
B1155305953405N01639414EA0160101646000564015000
B1155365953312N01639188EA0159201635000564015000
B1155425953216N01638967EA0157801618000568015000
B1155485953114N01638738EA0155501596000564015000
B1155545953012N01638510EA0154901587000564015000
B1156005952909N01638276EA0152901566000568015000
B1156065952805N01638040EA0151801545000568015000
B1156125952701N01637792EA0149701535000564015000
B1156185952597N01637549EA0148701522000568015000
B1156245952492N01637305EA0147301506000572015000
B1156305952397N01637047EA0145601494000572015000
B1156365952300N01636786EA0143401462000576015000
B1156425952202N01636530EA0141701447000568015000
B1156485952106N01636274EA0139601426000556015000
B1156545952015N01636023EA0138801444000572015000
B1157005951929N01635803EA0140001417000572015000
B1157065951824N01635564EA0136801410000576015000
B1157125951717N01635356EA0137501401000576015000
B1157185951609N01635141EA0136801409000576015000
B1157245951500N01634923EA0134901380000572015000
B1157305951383N01634710EA0133501376000568015000
B1157365951245N01634554EA0133001371000568015000
B1157425951128N01634398EA0135801407000572015000
B1157485951070N01634208EA0138501434000576015000
B1157545951062N01634022EA0140201444000572015000
B1158005951128N01633896EA0140501452000572015000
B1158065951227N01633923EA0141001458000576015000
B1158125951310N01634061EA0141001463000576015000
B1158185951307N01634277EA0141201456000580015000
B1158245951199N01634321EA0140101452000580015000
B1158305951097N01634283EA0141501465000576015000
B1158365950996N01634240EA0141901469000572015000
B1158425950926N01634113EA0142501480000572015000
B1158485950917N01633940EA0144001495000572015000
B1158545950984N01633830EA0145101502000568015000
B1159005951032N01633988EA0146601521000572015000
B1159065950959N01634116EA0147801529000556015000
B1159125950875N01634021EA0148601541000564015000
B1159185950879N01633854EA0150201550000564015000
B1159245950963N01633914EA0150501558000568015000
B1159305950952N01634121EA0151901571000576015000
B1159365950854N01634187EA0153401585000568015000
B1159425950780N01634073EA0154701602000564015000
B1159485950824N01633938EA0155801608000568015000
B1159545950896N01634073EA0156501619000572015000
B1200005950836N01634243EA0158701639000568015000
B1200065950729N01634231EA0159701651000564015000
B1200125950699N01634070EA0161301668000564015000
B1200185950785N01634056EA0161901667000568015000
B1200245950814N01634259EA0162701677000568015000
B1200305950758N01634454EA0164101700000568015000
B1200365950662N01634537EA0164901701000568015000
B1200425950577N01634429EA0163901680000576015000
B1200485950529N01634216EA0161701669000580015000
B1200545950498N01633993EA0162001660000580000000
B1201005950482N01633739EA0159401637000580000000
B1201065950471N01633455EA0155901606000580000000
B1201125950459N01633156EA0154401585000580000000
B1201185950447N01632852EA0153201570000564015000
B1201245950436N01632548EA0152401560000572000000
B1201305950426N01632236EA0150401551000576000000
B1201365950413N01631936EA0150801550000580000000
B1201425950397N01631630EA0147701513000580000000
B1201485950372N01631319EA0146201500000580000000
B1201545950351N01631013EA0144201479000580015000
B1202005950333N01630710EA0142401446000584000000
B1202065950311N01630394EA0139201430000584000000
B1202125950282N01630086EA0137701413000576000000
B1202185950246N01629796EA0138001424000580000000
B1202245950205N01629507EA0136301396000580015000
B1202305950179N01629228EA0138201430000576015000
B1202365950176N01628965EA0137901421000576000000
B1202425950196N01628710EA0138101414000572015000
B1202485950242N01628474EA0138901435000576000000
B1202545950272N01628271EA0140001406000576015000
B1203005950238N01628023EA0136701428000576000000
B1203065950200N01627835EA0140001435000580000000
B1203125950163N01627627EA0139901426000580015000
B1203185950140N01627356EA0136801409000576015000
B1203245950130N01627090EA0138201407000576000000
B1203305950134N01626802EA0134701381000568000000
B1203365950166N01626517EA0132201354000556015000
B1203425950243N01626279EA0133901398000564000000
B1203485950313N01626089EA0137301422000568000000
B1203545950410N01626114EA0142501464000576015000
B1204005950387N01626325EA0142901476000576015000
B1204065950295N01626278EA0145501501000580015000
B1204125950277N01626087EA0147401527000576000000
B1204185950338N01625978EA0149601537000576000000
B1204245950385N01626171EA0149401537000584000000
B1204305950294N01626303EA0152401573000584000000
B1204365950208N01626223EA0155101596000576000000
B1204425950251N01626080EA0156701613000576000000
B1204485950325N01626193EA0159001633000572000000
B1204545950286N01626400EA0160001653000572015000
B1205005950187N01626447EA0162001668000564015000
B1205065950159N01626275EA0163601680000568000000
B1205125950243N01626197EA0165401704000568000000
B1205185950300N01626364EA0167801723000572000000
B1205245950222N01626522EA0168401731000572000000
B1205305950157N01626395EA0170301750000572015000
B1205365950220N01626287EA0172301773000568000000
B1205425950286N01626447EA0173101775000568000000
B1205485950218N01626638EA0174301794000568000000
B1205545950120N01626602EA0176701813000564000000
B1206005950083N01626433EA0177501826000568000000
B1206065950152N01626344EA0179401845000572000000
B1206125950221N01626494EA0180101846000576000000
B1206185950159N01626691EA0180801857000580000000
B1206245950051N01626711EA0182601876000572000000
B1206305949971N01626598EA0184101885000568000000
B1206365949934N01626379EA0180301840000576000000
B1206425949934N01626106EA0178701827000576000000
B1206485949979N01625813EA0173701764000580000000
B1206545950052N01625478EA0166801699000584000000
B1207005950121N01625151EA0168401743000584000000
B1207065950168N01624932EA0177901844000580000000
B1207125950202N01624718EA0174101764000576000000
B1207185950226N01624414EA0171001741000580000000
B1207245950255N01624116EA0170801757000572015000
B1207305950286N01623833EA0170701752000572000000
B1207365950319N01623565EA0171301760000568015000
B1207425950351N01623306EA0172801777000572015000
B1207485950378N01623047EA0173101781000572015000
B1207545950406N01622819EA0175301789000568000000
B1208005950443N01622547EA0171401763000572015000
B1208065950482N01622271EA0172501783000560000000
B1208125950519N01622053EA0178401835000552000000
B1208185950550N01621861EA0181001853000552000000
B1208245950581N01621673EA0182001877000548000000
B1208305950611N01621499EA0183201860000556000000
B1208365950646N01621261EA0180401836000564000000
B1208425950670N01620965EA0176601810000568000000
B1208485950681N01620689EA0179101835000572000000
B1208545950681N01620398EA0175701803000568000000
B1209005950675N01620122EA0178401834000572000000
B1209065950664N01619851EA0175401777000568000000
B1209125950645N01619526EA0170901769000572000000
B1209185950620N01619214EA0170501749000568000000
B1209245950594N01618900EA0170101750000568000000
B1209305950571N01618598EA0169701738000572000000
B1209365950549N01618299EA0169101732000568000000
B1209425950533N01617985EA0166301703000568000000
B1209485950514N01617671EA0166101703000568000000
B1209545950482N01617346EA0162801673000568000000
B1210005950450N01617023EA0162201664000568000000
B1210065950415N01616703EA0161101651000568000000
B1210125950386N01616442EA0165901720000568000000
B1210185950351N01616183EA0164901685000564000000
B1210245950313N01615896EA0161301645000556000000
B1210305950276N01615591EA0158501623000560000000
B1210365950233N01615281EA0156101595000568000000
B1210425950192N01615008EA0158801672000576000000
B1210485950157N01614808EA0164601690000564000000
B1210545950138N01614601EA0166501723000556000000
B1211005950116N01614405EA0168301738000552000000
B1211065950113N01614205EA0170001757000556000000
B1211125950129N01614031EA0172801776000556000000
B1211185950121N01613828EA0173101784000548000000
B1211245950078N01613630EA0174501800000548000000
B1211305950010N01613429EA0174001780000552000000
B1211365949922N01613209EA0172701777000564000000
B1211425949836N01612998EA0174601798000568000000
B1211485949750N01612797EA0174201778000564000000
B1211545949650N01612550EA0167201704000568000000
B1212005949536N01612273EA0163801687000568000000
B1212065949409N01612048EA0165001697000568000000
B1212125949282N01611840EA0165001699000564000000
B1212185949150N01611631EA0161601657000556000000
B1212245949009N01611422EA0160401644000560000000
B1212305948869N01611212EA0158801632000560000000
B1212365948735N01610996EA0158701634000560000000
B1212425948604N01610790EA0158401630000552000000
B1212485948493N01610605EA0161701655000556000000
B1212545948383N01610397EA0156801625000568000000
B1213005948291N01610209EA0159001607000564000000
B1213065948185N01609975EA0152501549000564000000
B1213125948090N01609693EA0150001550000568000000
B1213185948024N01609431EA0154501614000564000000
B1213245947972N01609230EA0159301665000560000000
B1213305947930N01609072EA0163201676000548000000
B1213365947876N01608883EA0162001658000556000000
B1213425947812N01608662EA0161201665000556000000
B1213485947751N01608467EA0162801674000556000000
B1213545947665N01608286EA0160801657000560000000
B1214005947559N01608127EA0158701619000560000000
B1214065947431N01607958EA0154001577000564000000
B1214125947290N01607798EA0152101559000568000000
B1214185947131N01607642EA0147901523000572000000
B1214245946980N01607522EA0150201596000572000000
B1214305946866N01607451EA0155301582000568000000
B1214365946731N01607343EA0153401596000568000000
B1214425946602N01607217EA0152701564000564000000
B1214485946490N01607047EA0153901590000564000000
B1214545946396N01606856EA0154101571000556000000
B1215005946299N01606623EA0151801540000564000000
B1215065946191N01606376EA0150301556000568000000
B1215125946084N01606153EA0149601522000564000000
B1215185945973N01605906EA0145901500000560000000
B1215245945867N01605652EA0144601479000560000000
B1215305945761N01605388EA0143201471000564000000
B1215365945661N01605113EA0142301472000568000000
B1215425945602N01604877EA0149101526000572000000
B1215485945546N01604600EA0145601498000568000000
B1215545945509N01604333EA0147801543000568000000
B1216005945477N01604080EA0145601480000568000000
B1216065945445N01603783EA0144301509000568000000
B1216125945416N01603557EA0148301503000568000000
B1216185945368N01603271EA0142101453000568000000
B1216245945323N01602972EA0140501440000564000000
B1216305945280N01602671EA0139001428000564000000
B1216365945239N01602372EA0138901429000568000000
B1216425945164N01602120EA0141101468000572000000
B1216485945085N01601929EA0146101523000568000000
B1216545945026N01601781EA0150201545000568000000
B1217005944946N01601655EA0150901553000568000000
B1217065944839N01601712EA0153401575000568000000
B1217125944843N01601942EA0152901565000556000000
B1217185944950N01602045EA0154001587000564000000
B1217245945055N01602085EA0155301598000564000000
B1217305945154N01602034EA0156001599000560000000
B1217365945186N01601867EA0157301617000564000000
B1217425945111N01601763EA0157601617000568000000
B1217485945011N01601859EA0159201639000560000000
B1217545945021N01602060EA0161301656000556000000
B1218005945119N01602052EA0162101668000556000000
B1218065945125N01601872EA0164701691000560000000
B1218125945039N01601768EA0165701708000556000000
B1218185944961N01601666EA0168701730000548000000
B1218245944862N01601522EA0165801693000556000000
B1218305944755N01601318EA0162901663000564000000
B1218365944651N01601083EA0161001639000564000000
B1218425944543N01600846EA0159401635000568000000
B1218485944436N01600616EA0157901616000568000000
B1218545944324N01600377EA0156601600000564000000
B1219005944210N01600138EA0154901586000568000000
B1219065944098N01559915EA0155301593000568000000
B1219125943981N01559698EA0152601567000568000000
B1219185943868N01559488EA0152801566000572000000
B1219245943759N01559282EA0152701573000568000000
B1219305943650N01559098EA0153301578000548000000
B1219365943543N01558935EA0153001547000556000000
B1219425943429N01558745EA0149201534000564000000
B1219485943308N01558572EA0148301518000564000000
B1219545943174N01558427EA0145901486000560000000
B1220005943023N01558298EA0144901495000564000000
B1220065942888N01558176EA0146401513000564000000
B1220125942776N01558087EA0150601563000560000000
B1220185942672N01558004EA0149701507000564000000
B1220245942548N01557842EA0145401500000564000000
B1220305942435N01557675EA0145401483000564000000
B1220365942309N01557508EA0142901468000564000000
B1220425942188N01557345EA0143401478000564000000
B1220485942067N01557198EA0142701458000564000000
B1220545941937N01557036EA0140101437000568000000
B1221005941819N01556872EA0140701437000572000000
B1221065941694N01556695EA0137601401000568000000
B1221125941566N01556513EA0135901400000568000000
B1221185941437N01556362EA0135701386000564000000
B1221245941312N01556217EA0135701399000568000000
B1221305941213N01556049EA0136401397000568000000
B1221365941163N01555835EA0136101399000568000000
B1221425941146N01555597EA0134901372000552000000
B1221485941142N01555337EA0133101358000556000000
B1221545941120N01555077EA0131401348000568000000
B1222005941081N01554840EA0131701346000568000000
B1222065941038N01554588EA0128601319000564000000
B1222125940998N01554330EA0128801323000568000000
B1222185940964N01554081EA0128601315000568000000
B1222245940933N01553820EA0125901282000564000000
B1222305940901N01553547EA0124501276000560000000
B1222365940875N01553272EA0122001245000564000000
B1222425940847N01552993EA0120501237000564000000
B1222485940818N01552722EA0120101232000568000000
B1222545940787N01552479EA0121101241000568000000
B1223005940751N01552231EA0118601215000564000000
B1223065940717N01551977EA0117601206000564000000
B1223125940686N01551721EA0116701206000564000000
B1223185940661N01551480EA0117401208000564000000
B1223245940641N01551242EA0116801190000568000000
B1223305940630N01550980EA0114101164000568000000
B1223365940631N01550713EA0113701186000572000000
B1223425940621N01550489EA0116601195000576000000
B1223485940544N01550300EA0115001179000576000000
B1223545940475N01550090EA0114501180000572000000
B1224005940454N01549855EA0115401197000568000000
B1224065940449N01549653EA0118101213000572000000
B1224125940444N01549433EA0116201202000576000000
B1224185940419N01549236EA0116701181000576000000
B1224245940381N01549004EA0113001160000568000000
B1224305940362N01548782EA0114201181000568000000
B1224365940358N01548566EA0113901176000572000000
B1224425940385N01548363EA0114201164000572000000
B1224485940450N01548163EA0112401152000584000000
B1224545940511N01547955EA0110701134000580000000
B1225005940572N01547732EA0109001123000576000000
B1225065940632N01547511EA0108201110000576000000
B1225125940697N01547283EA0105801082000568000000
B1225185940766N01547057EA0105101078000564000000
B1225245940831N01546832EA0103701067000568000000
B1225305940891N01546620EA0104501068000568000000
B1225365940959N01546402EA0102101044000564000000
B1225425941055N01546222EA0100901035000568000000
B1225485941174N01546101EA0099701026000564000000
B1225545941306N01545996EA0097701007000568000000
B1226005941436N01545882EA0097300995000572000000
B1226065941576N01545753EA0093400953000576000000
B1226125941729N01545689EA0093100955000572000000
B1226185941885N01545718EA0091300933000560000000
B1226245942040N01545789EA0090200918000564000000
B1226305942197N01545871EA0087100899000572000000
B1226365942355N01545957EA0087000897000576000000
B1226425942515N01546036EA0085900887000576000000
B1226485942660N01546109EA0088000931000580000000
B1226545942776N01546147EA0090800927000576000000
B1227005942906N01546103EA0087700896000584000000
B1227065943035N01545986EA0085200861000584000000
B1227125943145N01545830EA0085400887000588000000
B1227185943232N01545663EA0085600882000584000000
B1227245943317N01545474EA0082000835000580000000
B1227305943405N01545263EA0081100833000580000000
B1227365943494N01545063EA0079800816000584000000
B1227425943586N01544863EA0078500810000580000000
B1227485943670N01544660EA0077800816000584000000
B1227545943751N01544489EA0078900799000580000000
B1228005943835N01544289EA0077200796000576000000
B1228065943916N01544110EA0078200817000572000000
B1228125943993N01543960EA0079200806000580000000
B1228185944063N01543763EA0077100813000584000000
B1228245944114N01543616EA0083600861000572000000
B1228305944184N01543466EA0080800815000568000000
B1228365944216N01543228EA0076800802000584000000
B1228425944231N01543054EA0080000813000580000000
B1228485944240N01542841EA0075500770000580000000
B1228545944296N01542632EA0073900764000580000000
B1229005944383N01542464EA0073900767000584000000
B1229065944465N01542342EA0076700810000584000000
B1229125944487N01542183EA0079100817000580000000
B1229185944398N01542116EA0079000821000580000000
B1229245944336N01542285EA0081300847000572000000
B1229305944367N01542500EA0081000838000580000000
B1229365944450N01542662EA0082100851000580000000
B1229425944545N01542763EA0082700855000584000000
B1229485944628N01542681EA0083600874000580000000
B1229545944591N01542554EA0084000859000580000000
B1230005944500N01542686EA0082700864000580000000
B1230065944497N01542919EA0085600883000580000000
B1230125944596N01542965EA0085800882000592000000
B1230185944609N01542784EA0085900893000596000000
B1230245944511N01542758EA0087200904000592000000
B1230305944439N01542935EA0089100928000584000000
B1230365944504N01543111EA0090000920000596000000
B1230425944565N01542985EA0088800926000596000000
B1230485944504N01542855EA0092400960000568000000
B1230545944405N01542888EA0093600977000568000000
B1231005944379N01543106EA0095300980000568000000
B1231065944478N01543205EA0095000985000576000000
B1231125944514N01543062EA0095901000000576000000
B1231185944466N01542922EA0098001017000572000000
B1231245944374N01542893EA0099101030000572000000
B1231305944326N01543071EA0100801041000568000000
B1231365944407N01543206EA0099701024000576000000
B1231425944443N01543065EA0100601040000580000000
B1231485944355N01542994EA0102101058000576000000
B1231545944274N01543095EA0102901061000576000000
B1232005944318N01543304EA0102601052000576000000
B1232065944437N01543345EA0100101029000580000000
B1232125944531N01543323EA0105001092000572000000
B1232185944630N01543257EA0101701038000576000000
B1232245944764N01543201EA0100201033000580000000
B1232305944907N01543176EA0097701005000580000000
B1232365945059N01543161EA0095600988000580000000
B1232425945212N01543137EA0094700975000580000000
B1232485945366N01543100EA0093000954000584000000
B1232545945528N01543070EA0089100911000584000000
B1233005945692N01543046EA0087900901000588000000
B1233065945854N01543024EA0085600881000572000000
B1233125946018N01543015EA0086000900000584000000
B1233185946175N01543013EA0087500909000588000000
B1233245946331N01543039EA0088100905000588000000
B1233305946493N01543082EA0087400910000588000000
B1233365946638N01543127EA0090000931000584000000
B1233425946775N01543178EA0090400942000580000000
B1233485946893N01543205EA0093300972000580000000
B1233545946987N01543114EA0094000973000580000000
B1234005947007N01542918EA0094800986000576000000
B1234065946958N01542749EA0096701004000572000000
B1234125946864N01542796EA0098501025000576000000
B1234185946887N01543010EA0099801026000576000000
B1234245946987N01542980EA0099301033000576000000
B1234305947023N01542803EA0102001054000568000000
B1234365946961N01542679EA0103101066000576000000
B1234425946889N01542820EA0104401078000580000000
B1234485946924N01543035EA0105901093000580000000
B1234545947019N01543063EA0107201113000576000000
B1235005947078N01542926EA0108701127000564000000
B1235065947007N01542854EA0110001134000568000000
B1235125946968N01543045EA0110301138000572000000
B1235185947033N01543236EA0111401156000552000000
B1235245947131N01543205EA0113901178000560000000
B1235305947119N01543043EA0115401193000564000000
B1235365947032N01543101EA0117201213000564000000
B1235425947020N01543308EA0118301224000564000000
B1235485947114N01543386EA0120401246000556000000
B1235545947173N01543235EA0121701256000556000000
B1236005947115N01543114EA0123401275000568000000
B1236065947031N01543210EA0124401287000568000000
B1236125947036N01543425EA0125801305000564000000
B1236185947124N01543544EA0128101325000564000000
B1236245947206N01543435EA0129501336000564000000
B1236305947171N01543277EA0130701350000564000000
B1236365947079N01543321EA0132301367000568000000
B1236425947039N01543527EA0133601383000568000000
B1236485947105N01543685EA0136501410000568000000
B1236545947200N01543620EA0136801405000572000000
B1237005947178N01543444EA0138401428000572000000
B1237065947085N01543400EA0139401440000572000000
B1237125946998N01543537EA0140401441000580000000
B1237185946887N01543604EA0140801456000580000000
B1237245946783N01543603EA0144301495000572000000
B1237305946721N01543768EA0147401521000568000000
B1237365946784N01543932EA0149001539000556000000
B1237425946854N01543845EA0150801558000560000000
B1237485946801N01543726EA0153301583000556000000
B1237545946710N01543782EA0155901609000560000000
B1238005946680N01543982EA0158301632000556000000
B1238065946746N01544154EA0159201638000560000000
B1238125946840N01544128EA0160401654000560000000
B1238185946837N01543973EA0162001671000564000000
B1238245946746N01543923EA0164201697000560000000
B1238305946676N01544076EA0167001723000564000000
B1238365946719N01544267EA0168301730000564000000
B1238425946820N01544252EA0169101740000564000000
B1238485946838N01544085EA0171001765000564000000
B1238545946758N01543969EA0171901779000568000000
B1239005946664N01544049EA0176201816000560000000
B1239065946675N01544261EA0177301816000568000000
B1239125946781N01544310EA0177701827000572000000
B1239185946841N01544164EA0179501849000568000000
B1239245946776N01544033EA0181301865000572000000
B1239305946680N01544140EA0183401887000568000000
B1239365946690N01544358EA0185001905000568000000
B1239425946790N01544385EA0186501917000568000000
B1239485946861N01544249EA0188201931000564000000
B1239545946920N01544040EA0184301887000572000000
B1240005946998N01543787EA0181101866000580000000
B1240065947069N01543540EA0181801868000580000000
B1240125947140N01543280EA0178501826000580000000
B1240185947208N01543013EA0177301824000580000000
B1240245947271N01542737EA0175401795000580000000
B1240305947323N01542461EA0176201823000584000000
B1240365947371N01542186EA0173101776000584000000
B1240425947420N01541895EA0171901765000580000000
B1240485947482N01541619EA0172101758000572000000
B1240545947561N01541345EA0169801736000572000000
B1241005947650N01541089EA0168201716000568000000
B1241065947742N01540827EA0165201686000568000000
B1241125947823N01540532EA0160801639000568000000
B1241185947863N01540258EA0164901693000576000000
B1241245947884N01540021EA0168301730000568000000
B1241305947891N01539876EA0175801808000556000000
B1241365947921N01539708EA0171901737000560000000
B1241425947999N01539483EA0167401701000564000000
B1241485948094N01539241EA0163901672000568000000
B1241545948194N01538981EA0161301646000564000000
B1242005948272N01538694EA0160101637000568000000
B1242065948332N01538429EA0162101669000552000000
B1242125948402N01538196EA0161001625000556000000
B1242185948515N01537957EA0155701599000564000000
B1242245948626N01537744EA0157201619000568000000
B1242305948731N01537536EA0156401587000568000000
B1242365948834N01537284EA0152701558000564000000
B1242425948925N01537014EA0151701555000564000000
B1242485949007N01536747EA0150901547000564000000
B1242545949082N01536483EA0150101538000564000000
B1243005949159N01536224EA0148301517000564000000
B1243065949237N01535960EA0147201506000564000000
B1243125949318N01535696EA0145601477000568000000
B1243185949437N01535458EA0142001470000568000000
B1243245949555N01535272EA0145401492000568000000
B1243305949675N01535109EA0145601486000564000000
B1243365949822N01535032EA0144701495000564000000
B1243425949957N01535032EA0148601534000568000000
B1243485950070N01535035EA0151501558000560000000
B1243545950148N01534920EA0152801565000576000000
B1244005950143N01534728EA0155501607000568000000
B1244065950104N01534569EA0158001622000564000000
B1244125950012N01534593EA0159601637000564000000
B1244185950005N01534816EA0160201643000564000000
B1244245950083N01534964EA0163301681000548000000
B1244305950182N01534975EA0164801703000548000000
B1244365950205N01534817EA0168101728000544000000
B1244425950121N01534759EA0169501742000552000000
B1244485950052N01534906EA0171601766000552000000
B1244545950101N01535075EA0173801783000548000000
B1245005950187N01535019EA0176101812000544000000
B1245065950199N01534860EA0178501824000548000000
B1245125950112N01534819EA0179001839000560000000
B1245185950073N01535009EA0180901855000556000000
B1245245950133N01535179EA0183701885000552000000
B1245305950231N01535175EA0185401892000556000000
B1245365950309N01535003EA0183301875000568000000
B1245425950376N01534775EA0180101829000572000000
B1245485950473N01534516EA0175301790000572000000
B1245545950585N01534279EA0174701823000576000000
B1246005950650N01534138EA0184501893000568000000
B1246065950722N01533956EA0179001803000568000000
B1246125950800N01533701EA0174601779000568000000
B1246185950875N01533438EA0172901767000564000000
B1246245950954N01533161EA0168501716000568000000
B1246305951032N01532884EA0169501754000568000000
B1246365951099N01532633EA0169801727000568000000
B1246425951173N01532362EA0165601689000564000000
B1246485951242N01532081EA0164701693000568000000
B1246545951305N01531804EA0162701651000568000000
B1247005951372N01531517EA0160401648000564000000
B1247065951437N01531241EA0159201629000564000000
B1247125951500N01530977EA0158901634000564000000
B1247185951557N01530722EA0158701617000568000000
B1247245951630N01530455EA0155801607000572000000
B1247305951706N01530217EA0158001633000576000000
B1247365951786N01529985EA0156501581000564000000
B1247425951872N01529728EA0155201603000572000000
B1247485951951N01529489EA0155501581000568000000
B1247545952031N01529235EA0153601572000564000000
B1248005952116N01528996EA0155101609000564000000
B1248065952196N01528856EA0163001675000564000000
B1248125952259N01528701EA0164601693000556000000
B1248185952315N01528535EA0164801679000560000000
B1248245952375N01528341EA0164601692000564000000
B1248305952419N01528180EA0168101727000560000000
B1248365952473N01528018EA0167201693000564000000
B1248425952557N01527836EA0163101657000568000000
B1248485952659N01527653EA0160001632000568000000
B1248545952787N01527498EA0158101629000556000000
B1249005952890N01527401EA0163701694000560000000
B1249065952978N01527341EA0167001705000564000000
B1249125953065N01527246EA0167201716000564000000
B1249185953107N01527077EA0168601724000568000000
B1249245953112N01526878EA0167101691000564000000
B1249305953169N01526630EA0161301649000568000000
B1249365953264N01526406EA0160301640000564000000
B1249425953362N01526183EA0159101628000564000000
B1249485953452N01525962EA0160401649000568000000
B1249545953536N01525750EA0159901639000564000000
B1250005953623N01525538EA0158701611000564000000
B1250065953722N01525304EA0155301594000564000000
B1250125953823N01525078EA0154401583000568000000
B1250185953922N01524857EA0153301566000560000000
B1250245954011N01524640EA0153101572000568000000
B1250305954096N01524417EA0150101525000564000000
B1250365954198N01524172EA0146101482000568000000
B1250425954307N01523909EA0141601461000572000000
B1250485954390N01523712EA0147501530000580000000
B1250545954475N01523519EA0145801486000576000000
B1251005954575N01523302EA0143301469000568000000
B1251065954668N01523085EA0143101493000568000000
B1251125954735N01522922EA0148301516000556000000
B1251185954820N01522709EA0142401441000568000000
B1251245954926N01522482EA0141401487000568000000
B1251305954996N01522343EA0149501544000564000000
B1251365955071N01522184EA0146701490000568000000
B1251425955169N01521972EA0140401426000572000000
B1251485955291N01521773EA0138301430000568000000
B1251545955415N01521593EA0137101401000564000000
B1252005955546N01521412EA0134101369000568000000
B1252065955677N01521214EA0131701352000572000000
B1252125955794N01521047EA0133201409000572000000
B1252185955879N01520943EA0139901447000568000000
B1252245955972N01520863EA0140701452000564000000
B1252305956066N01520823EA0142501468000568000000
B1252365956178N01520775EA0139301427000572000000
B1252425956300N01520771EA0141101467000568000000
B1252485956396N01520781EA0145801502000560000000
B1252545956497N01520853EA0146701516000560000000
B1253005956595N01520891EA0148001507000560000000
B1253065956721N01520849EA0143101464000564000000
B1253125956848N01520725EA0140701446000560000000
B1253185956969N01520576EA0140901455000564000000
B1253245957067N01520424EA0143101489000568000000
B1253305957164N01520269EA0142001458000556000000
B1253365957276N01520100EA0139301426000556000000
B1253425957393N01519916EA0136601395000560000000
B1253485957530N01519726EA0131901343000572000000
B1253545957687N01519581EA0129901338000580000000
B1254005957834N01519445EA0129901368000576000000
B1254065957952N01519331EA0134101376000576000000
B1254125958074N01519185EA0131701339000568000000
B1254185958204N01519004EA0129601340000564000000
B1254245958320N01518842EA0132301391000560000000
B1254305958411N01518726EA0135701378000564000000
B1254365958531N01518604EA0133501379000560000000
B1254425958646N01518467EA0132301369000564000000
B1254485958741N01518332EA0134001379000564000000
B1254545958809N01518214EA0137801399000564000000
B1255005958883N01518034EA0133401370000564000000
B1255065958980N01517854EA0130501346000564000000
B1255125959081N01517680EA0132601376000572000000
B1255185959073N01517503EA0137401391000580000000
B1255245958974N01517565EA0133301360000592000000
B1255305959031N01517750EA0133401356000600000000
B1255365959139N01517755EA0133401375000588000000
B1255425959231N01517721EA0133201361000568000000
B1255485959330N01517579EA0128501308000560000000
B1255545959419N01517371EA0127601331000564000000
B1256005959487N01517210EA0131001327000568000000
B1256065959562N01517013EA0129001322000568000000
B1256125959667N01516827EA0125501298000572000000
B1256185959775N01516686EA0129701338000564000000
B1256245959868N01516552EA0131401344000564000000
B1256305959970N01516408EA0129301311000568000000
B1256366000091N01516247EA0124501280000568000000
B1256426000212N01516094EA0123201267000564000000
B1256486000334N01515943EA0122701260000560000000
B1256546000456N01515778EA0120901245000564000000
B1257006000574N01515610EA0120601237000564000000
B1257066000687N01515458EA0122401257000560000000
B1257126000802N01515299EA0120101223000564000000
B1257186000911N01515155EA0124101296000564000000
B1257246000946N01514998EA0127401299000572000000
B1257306000871N01514927EA0127201302000584000000
B1257366000798N01515100EA0127401315000576000000
B1257426000793N01515333EA0129201333000568000000
B1257486000885N01515442EA0131601357000564000000
B1257546000927N01515301EA0131801350000576000000
B1258006000845N01515247EA0132801365000572000000
B1258066000761N01515366EA0134301383000564000000
B1258126000782N01515581EA0136001396000560000000
B1258186000882N01515597EA0136601409000564000000
B1258246000894N01515442EA0137101405000560000000
B1258306000815N01515353EA0137501424000556000000
B1258366000734N01515421EA0140201440000552000000
B1258426000780N01515622EA0140101441000560000000
B1258486000872N01515563EA0142101464000560000000
B1258546000923N01515394EA0140501426000568000000
B1259006001044N01515220EA0136401397000576000000
B1259066001171N01515074EA0137301405000580000000
B1259126001301N01514916EA0134301383000568000000
B1259186001426N01514748EA0134701381000568000000
B1259246001538N01514600EA0137201438000564000000
B1259306001625N01514482EA0140801440000564000000
B1259366001721N01514339EA0139401426000564000000
B1259426001837N01514171EA0134501370000564000000
B1259486001960N01513980EA0132401356000560000000
B1259546002084N01513787EA0131101338000556000000
B1300006002202N01513572EA0128501321000552000000
B1300066002320N01513354EA0126401295000552000000
B1300126002441N01513150EA0127001311000560000000
B1300186002563N01512964EA0125601288000552000000
B1300246002695N01512782EA0124201280000556000000
B1300306002827N01512610EA0122701261000556000000
B1300366002951N01512450EA0124501285000556000000
B1300426003075N01512291EA0122401251000560000000
B1300486003205N01512123EA0120501244000560000000
B1300546003333N01511960EA0120001229000556000000
B1301006003462N01511796EA0118901221000556000000
B1301066003590N01511636EA0118401214000556000000
B1301126003719N01511473EA0117101196000552000000
B1301186003848N01511298EA0115001180000552000000
B1301246003975N01511122EA0113701166000552000000
B1301306004106N01510952EA0111801142000552000000
B1301366004238N01510779EA0110001123000552000000
B1301426004370N01510611EA0108701133000564000000
B1301486004495N01510459EA0109501113000568000000
B1301546004632N01510297EA0107401102000564000000
B1302006004758N01510124EA0107801118000572000000
B1302066004866N01509941EA0108501117000568000000
B1302126004980N01509804EA0111001160000572000000
B1302186005093N01509750EA0113601170000572000000
B1302246005194N01509869EA0115201189000576000000
B1302306005194N01510097EA0116801205000568000000
B1302366005115N01510215EA0117501212000564000000
B1302426005051N01510110EA0118401217000568000000
B1302486005046N01509948EA0119701230000556000000
B1302546005129N01509883EA0119901230000564000000
B1303006005210N01510029EA0119801230000564000000
B1303066005159N01510214EA0120401242000564000000
B1303126005071N01510228EA0121701248000564000000
B1303186004980N01510186EA0121901255000560000000
B1303246004957N01510042EA0122201253000564000000
B1303306005051N01510002EA0121301245000564000000
B1303366005145N01510132EA0121401244000568000000
B1303426005181N01510364EA0121001247000568000000
B1303486005172N01510593EA0122601259000564000000
B1303546005089N01510710EA0122801261000564000000
B1304006004989N01510779EA0122501253000564000000
B1304066004906N01510708EA0121701253000568000000
B1304126004925N01510533EA0121201248000572000000
B1304186004990N01510380EA0121401243000568000000
B1304246005076N01510255EA0120301236000576000000
B1304306005189N01510166EA0117701199000572000000
B1304366005323N01510084EA0116001190000568000000
B1304426005462N01510000EA0114401173000564000000
B1304486005612N01509952EA0113601171000544000000
B1304546005748N01510015EA0117601225000556000000
B1305006005865N01510050EA0119601233000556000000
B1305066005934N01509911EA0120501235000568000000
B1305126005865N01509816EA0119901234000584000000
B1305186005804N01510004EA0121601251000576000000
B1305246005838N01510238EA0122001258000568000000
B1305306005934N01510370EA0123101269000564000000
B1305366006036N01510467EA0125101292000556000000
B1305426006151N01510524EA0123401259000560000000
B1305486006277N01510523EA0124101289000564000000
B1305546006381N01510470EA0124201277000568000000
B1306006006505N01510476EA0123201256000568000000
B1306066006639N01510584EA0122701281000576000000
B1306126006741N01510732EA0124901282000568000000
B1306196006875N01510851EA0125601292000556000000
B1306256006981N01510764EA0126401302000560000000
B1306316007068N01510649EA0127901319000556000000
B1306376007151N01510532EA0128101313000560000000
B1306436007225N01510381EA0128201324000560000000
B1306496007206N01510218EA0130101337000560000000
B1306556007115N01510173EA0131001347000572000000
B1307016007066N01510368EA0131201350000560000000
B1307076007137N01510537EA0131801355000556000000
B1307136007246N01510611EA0131501361000560000000
B1307196007354N01510660EA0133401376000552000000
B1307256007423N01510558EA0134101375000564000000
B1307316007365N01510439EA0134801391000564000000
B1307376007277N01510485EA0136001404000556000000
B1307436007254N01510697EA0137501418000552000000
B1307496007345N01510799EA0138501425000548000000
B1307556007388N01510660EA0139201431000552000000
B1308016007310N01510597EA0139401439000548000000
B1308076007247N01510771EA0140301451000548000000
B1308136007302N01510968EA0142501468000544000000
B1308196007375N01510879EA0143201472000556000000
B1308256007308N01510788EA0143801481000556000000
B1308316007235N01510947EA0145501503000552000000
B1308376007276N01511151EA0146701506000556000000
B1308436007369N01511098EA0146101506000556000000
B1308496007352N01510930EA0147601518000552000000
B1308556007256N01510925EA0148801530000548000000
B1309016007212N01511142EA0149801544000552000000
B1309076007284N01511316EA0150901549000556000000
B1309136007378N01511242EA0149901533000556000000
B1309196007443N01511052EA0149001535000544000000
B1309256007493N01510879EA0152201563000548000000
B1309316007546N01510696EA0150501522000548000000
B1309376007635N01510454EA0144201472000552000000
B1309436007728N01510215EA0144201476000556000000
B1309496007823N01509971EA0142201449000556000000
B1309556007922N01509713EA0138401412000556000000
B1310016008019N01509462EA0138601425000552000000
B1310076008113N01509219EA0138201421000552000000
B1310136008208N01508975EA0136401397000552000000
B1310196008307N01508736EA0135401386000544000000
B1310256008407N01508489EA0133601369000544000000
B1310316008506N01508248EA0133401371000540000000
B1310376008602N01508015EA0132701364000540000000
B1310436008698N01507783EA0132101353000544000000
B1310496008799N01507558EA0130901342000544000000
B1310556008901N01507329EA0129601332000544000000
B1311016009005N01507101EA0128301315000544000000
B1311076009106N01506873EA0128001311000544000000
B1311136009198N01506624EA0124801281000552000000
B1311196009252N01506332EA0123201264000548000000
B1311256009282N01506064EA0126801331000552000000
B1311316009297N01505859EA0130301336000544000000
B1311376009299N01505647EA0130701351000540000000
B1311436009293N01505462EA0132101349000548000000
B1311496009275N01505274EA0132301367000544000000
B1311556009257N01505070EA0130301316000556000000
B1312016009279N01504855EA0131201380000552000000
B1312076009312N01504689EA0133801354000548000000
B1312136009366N01504455EA0130201330000552000000
B1312196009432N01504214EA0130101322000552000000
B1312256009514N01503978EA0129101340000552000000
B1312316009583N01503762EA0130901345000552000000
B1312376009630N01503552EA0132401355000552000000
B1312436009657N01503325EA0133801388000552000000
B1312496009666N01503139EA0138101426000544000000
B1312556009594N01503095EA0140101426000560000000
B1313016009590N01503318EA0139001411000576000000
B1313076009713N01503348EA0139301436000576000000
B1313136009806N01503244EA0142101463000556000000
B1313196009795N01503077EA0143001472000548000000
B1313256009709N01503126EA0144301481000552000000
B1313316009729N01503350EA0145701499000556000000
B1313376009833N01503386EA0146801507000544000000
B1313436009881N01503216EA0147801515000548000000
B1313496009894N01503009EA0146901493000552000000
B1313556009890N01502744EA0140701433000544000000
B1314016009873N01502463EA0139701432000548000000
B1314076009850N01502189EA0138801440000552000000
B1314136009826N01501960EA0142301479000552000000
B1314196009821N01501768EA0145301491000548000000
B1314256009842N01501565EA0144901492000544000000
B1314316009845N01501365EA0145401486000544000000
B1314376009826N01501115EA0140401435000556000000
B1314436009776N01500834EA0138701424000552000000
B1314496009721N01500582EA0140901476000556000000
B1314556009682N01500382EA0145101496000548000000
B1315016009652N01500166EA0143301462000548000000
B1315076009621N01459937EA0143201462000552000000
B1315136009661N01459724EA0143601476000548000000
B1315196009761N01459554EA0139701420000548000000
B1315256009899N01459395EA0135901387000548000000
B1315316010040N01459231EA0134501380000552000000
B1315376010177N01459065EA0132701365000552000000
B1315436010310N01458908EA0133501373000552000000
B1315496010441N01458749EA0132001364000548000000
B1315556010571N01458589EA0131201330000548000000
B1316016010709N01458428EA0130301344000556000000
B1316076010817N01458293EA0135701416000544000000
B1316136010904N01458172EA0136101375000540000000
B1316196010991N01457938EA0130301341000548000000
B1316256011051N01457700EA0134601401000552000000
B1316316011113N01457502EA0134901351000560000000
B1316376011224N01457266EA0128101310000556000000
B1316436011351N01457062EA0127201306000552000000
B1316496011488N01456885EA0125801286000544000000
B1316556011632N01456733EA0124101271000544000000
B1317016011785N01456591EA0121001243000544000000
B1317076011934N01456440EA0120701236000544000000
B1317136012078N01456291EA0119201222000544000000
B1317196012225N01456162EA0117701197000544000000
B1317256012381N01456027EA0114001167000544000000
B1317316012542N01455889EA0110301138000552000000
B1317376012694N01455755EA0110601132000544000000
B1317436012848N01455606EA0108501110000548000000
B1317496013005N01455456EA0106901098000548000000
B1317556013157N01455329EA0107401107000556000000
