ACAM3X6
HFDTE080710
HFFXA050
HFPLTPILOT:Peter Cutting           
HFGTYGLIDERTYPE:LS 8        
HFGIDGLIDERID:P           
HFDTM100GPSDATUM:
HFRFWFIRMWAREVERSION:F2.6
HFRHWHARDWAREVERSION:300 Series Version 2
HFFTYFRTYPE:CAMBRIDGE AERO INSTRUMENTS, 302+
HFGPS:GARMIN,LVS-25,12,18000
HFPRSPRESSALTSENSOR:INTERSEMA, MS5534-AP, 20000
I033638FXA3941ENL4247REX
LCAMSBVER:5FWVER:F26300
C080710093646080710000103
C0000000N00000000WTAKEOFF     
C5958433N01727550EStart-Alpha 
C5956817N01646400EKaerrbaeck  
C6025300N01627567EBodaas      
C5951400N01726333EBrunna      
C5955233N01731833EFinnishline 
C0000000N00000000WLANDING     
B1118495955508N01732340EA-000100024000512000000
B1118515955508N01732341EA-000100025000520000000
B1118535955508N01732341EA0000000025000520000000
B1118555955508N01732341EA-000200025000524000000
B1118575955508N01732341EA-000100025000536000000
B1118595955508N01732341EA-000100024000532000000
B1119015955508N01732341EA-000200024000540000000
B1119035955508N01732341EA-000100024000532000000
B1119055955508N01732341EA-000100025000624000000
B1119075955508N01732341EA-000100025000620000000
B1119095955508N01732341EA-000100025000624000000
B1119115955508N01732341EA-000100025000616000000
B1119135955508N01732340EA-000100025000612000000
B1119155955507N01732339EA-000100025000608000000
B1119175955504N01732331EA0000000025000684000000
B1119185955502N01732324EA0000000025000752000000
B1119245955478N01732259EA0000200025000980000000
B1119305955439N01732146EA0000400025000940000000
B1119365955385N01732001EA0000700028000884000000
B1119425955325N01731841EA0001700046000820000000
B1119485955268N01731687EA0004200071000760000000
B1119545955212N01731543EA0006000091000744000000
B1120005955157N01731390EA0007800109000704000000
B1120065955103N01731234EA0009600132000704000000
B1120125955053N01731078EA0011700152000716000000
B1120185955002N01730923EA0013100164000724000000
B1120245954950N01730763EA0014600182000708000000
B1120305954901N01730603EA0017100211000696000000
B1120365954853N01730446EA0019900235000668000000
B1120425954807N01730287EA0021700254000668000000
B1120485954762N01730124EA0023100267000652000000
B1120545954722N01729952EA0025500296000668000000
B1121005954685N01729784EA0027800317000648000000
B1121065954654N01729613EA0029000328000636000000
B1121125954627N01729438EA0030200341000616000000
B1121185954598N01729264EA0031600355000564000000
B1121245954577N01729090EA0033500378000544000000
B1121305954558N01728913EA0035000393000528000000
B1121365954538N01728735EA0036600407000524000000
B1121425954523N01728553EA0038500425000524000000
B1121485954510N01728366EA0040500445000520000000
B1121545954494N01728181EA0042500469000524000000
B1122005954480N01727998EA0044200484000520000000
B1122065954468N01727813EA0045600496000516000000
B1122125954451N01727625EA0046700512000520000000
B1122185954436N01727433EA0048400529000524000000
B1122245954419N01727238EA0049900545000520000000
B1122305954411N01727043EA0051700559000520000000
B1122365954434N01726855EA0053000580000524000000
B1122425954494N01726686EA0055400600000508000000
B1122485954575N01726542EA0057200621000516000000
B1122545954680N01726438EA0058500632000524000000
B1123005954791N01726335EA0060400656000524000000
B1123065954904N01726227EA0062200673000524000000
B1123125955014N01726112EA0063200685000520000000
B1123185955121N01725995EA0065500711000520000000
B1123245955226N01725888EA0068000732000520000000
B1123305955327N01725793EA0069100747000520000000
B1123365955431N01725696EA0070300760000520000000
B1123425955526N01725601EA0071800768000524000000
B1123485955534N01725441EA0070800762000512000000
B1123545955489N01725301EA0069800746000508000000
B1124005955442N01725137EA0066500690000516000000
B1124065955385N01724952EA0064600726000772000000
B1124125955347N01724822EA0069000740000996000000
B1124185955309N01724691EA0069800749000996000000
B1124245955269N01724562EA0070100745000996000000
B1124305955210N01724444EA0069800747000996000000
B1124365955130N01724375EA0069900747000996000000
B1124425955035N01724365EA0069900746000996000000
B1124485954944N01724437EA0070600752000996000000
B1124545954870N01724604EA0070900757000996000000
B1125005954845N01724838EA0071400768000996000000
B1125065954893N01725024EA0072700776000820000000
B1125125954982N01725134EA0072200767000596000000
B1125185955078N01725226EA0071400758000476000000
B1125245955181N01725314EA0070600751000400000000
B1125305955286N01725403EA0070500756000384000000
B1125365955394N01725444EA0070900759000372015000
B1125425955450N01725307EA0072000771000368000000
B1125485955411N01725184EA0072500771000364000000
B1125545955322N01725180EA0071100762000368000000
B1126005955262N01725330EA0072300766000368000000
B1126065955265N01725557EA0071700764000372000000
B1126125955314N01725771EA0071800766000372000000
B1126185955411N01725891EA0073400788000368000000
B1126245955494N01725791EA0075200804000364000000
B1126305955480N01725636EA0076400815000364000000
B1126365955404N01725628EA0078100832000364000000
B1126425955368N01725817EA0078600837000368000000
B1126485955412N01726030EA0079400849000364000000
B1126545955516N01726079EA0080800856000364015000
B1127005955568N01725930EA0081500871000364000000
B1127065955506N01725848EA0082900889000364000000
B1127125955446N01725988EA0084800899000356000000
B1127185955495N01726194EA0086000916000356000000
B1127245955600N01726213EA0087000920000360000000
B1127305955646N01726073EA0087700934000360000000
B1127365955607N01725961EA0089400946000360000000
B1127425955532N01726052EA0090800961000360000000
B1127485955537N01726276EA0091800971000364000000
B1127545955636N01726372EA0093600986000360015000
B1128005955710N01726269EA0094100992000360000000
B1128065955688N01726133EA0095201005000364000000
B1128125955607N01726149EA0096401016000360000000
B1128185955568N01726344EA0097301025000364000000
B1128245955633N01726542EA0098201037000364000000
B1128305955740N01726543EA0099501043000364000000
B1128365955766N01726391EA0099201047000368000000
B1128425955694N01726351EA0101001066000368015000
B1128485955658N01726541EA0101801069000368000000
B1128545955755N01726677EA0102701079000368015000
B1129005955855N01726617EA0103401084000368000000
B1129065955851N01726473EA0104101100000364000000
B1129125955779N01726533EA0106001114000360000000
B1129185955795N01726758EA0106401118000364000000
B1129245955903N01726807EA0106901124000356000000
B1129305955949N01726667EA0107501130000356000000
B1129365955903N01726563EA0108701146000360000000
B1129425955832N01726666EA0109301150000364000000
B1129485955850N01726898EA0109201146000364000000
B1129545955957N01727002EA0109401149000368000000
B1130005956033N01726888EA0109601153000368000000
B1130065956003N01726738EA0109601155000368000000
B1130125955923N01726715EA0110401160000372000000
B1130185955859N01726859EA0111101167000376000000
B1130245955857N01727085EA0111501172000368000000
B1130305955936N01727254EA0111501163000364000000
B1130365956042N01727251EA0110601163000368015000
B1130425956084N01727098EA0110101144000368000000
B1130485956080N01726890EA0107701129000372000000
B1130545956068N01726663EA0105601102000372000000
B1131005956049N01726409EA0103001081000376000000
B1131065956028N01726185EA0104401099000380000000
B1131125956007N01725967EA0103301084000376000000
B1131185955985N01725741EA0102101071000380000000
B1131245955966N01725522EA0101901078000376000000
B1131305955951N01725306EA0101601068000372000000
B1131365955940N01725076EA0100001053000372000000
B1131425955928N01724842EA0100201080000372000000
B1131485955918N01724658EA0105401113000368000000
B1131545955837N01724606EA0106401126000368000000
B1132005955782N01724778EA0107601131000368000000
B1132065955780N01725013EA0106601119000372000000
B1132125955823N01725242EA0106401122000368000000
B1132185955911N01725406EA0106701121000368000000
B1132245956018N01725405EA0106201120000372000000
B1132305956063N01725260EA0107101132000368000000
B1132365956055N01725100EA0106701117000372000000
B1132425956016N01724955EA0107301136000372000000
B1132485955937N01724955EA0108401142000368015000
B1132545955920N01725171EA0108301139000372000000
B1133005956011N01725262EA0109501152000368015000
B1133065956070N01725139EA0108801142000368000000
B1133125956089N01725002EA0110701174000364000000
B1133185956053N01724894EA0111001167000364000000
B1133245955977N01725009EA0112601183000360015000
B1133305956028N01725195EA0113301189000360000000
B1133365956127N01725169EA0112901187000364000000
B1133425956176N01725043EA0113801194000368015000
B1133485956106N01724999EA0115301216000364015000
B1133545956080N01725189EA0117301231000368000000
B1134005956167N01725307EA0117201228000360015000
B1134065956221N01725200EA0118501238000368000000
B1134125956158N01725150EA0119601256000364015000
B1134185956133N01725334EA0121401273000356000000
B1134245956215N01725462EA0122101278000360015000
B1134305956274N01725367EA0122901287000360000000
B1134365956221N01725288EA0123901300000360000000
B1134425956163N01725431EA0125101311000360000000
B1134485956202N01725629EA0126701328000356000000
B1134545956296N01725654EA0127001331000356015000
B1135005956300N01725524EA0127401334000364000000
B1135065956223N01725525EA0128301347000364015000
B1135125956185N01725709EA0129901361000360000000
B1135185956241N01725902EA0130801367000364000000
B1135245956332N01725905EA0131401373000364015000
B1135305956361N01725783EA0131601375000368000000
B1135365956312N01725688EA0132301383000364000000
B1135425956239N01725663EA0132901387000368000000
B1135485956158N01725733EA0132401386000364015000
B1135545956105N01725900EA0133901397000368000000
B1136005956097N01726112EA0133401393000372000000
B1136065956139N01726309EA0133701397000372000000
B1136125956202N01726476EA0133701391000380000000
B1136185956292N01726624EA0131001367000368000000
B1136245956397N01726773EA0128901345000368000000
B1136305956513N01726927EA0127301329000368000000
B1136365956635N01727087EA0125601312000368000000
B1136425956756N01727253EA0124901309000412000000
B1136485956881N01727417EA0123901294000428000000
B1136545957017N01727578EA0121301269000440000000
B1137005957154N01727737EA0120801265000444000000
B1137065957288N01727895EA0120001256000448000000
B1137125957417N01728058EA0119701261000456000000
B1137185957530N01728206EA0121201270000452000000
B1137245957640N01728366EA0120201259000456000000
B1137305957748N01728545EA0119701255000452000000
B1137365957848N01728743EA0119601259000456000000
B1137425957934N01728948EA0120301261000456000000
B1137485958021N01729162EA0119401253000456000000
B1137545958109N01729368EA0119201248000456000000
B1138005958207N01729558EA0118601245000452000000
B1138065958312N01729698EA0119401247000448000000
B1138125958427N01729734EA0119201249000452015000
B1138185958535N01729684EA0118701244000456000000
B1138245958607N01729550EA0118901248000456000000
B1138305958611N01729375EA0119501252000444000000
B1138365958525N01729349EA0120701260000456015000
B1138425958468N01729536EA0120201256000448000000
B1138485958535N01729706EA0120901266000452000000
B1138545958619N01729648EA0121201264000456015000
B1139005958706N01729566EA0120401261000460000000
B1139065958815N01729580EA0121601272000460000000
B1139125958912N01729539EA0122201279000452000000
B1139185958965N01729411EA0121801273000452015000
B1139245958927N01729285EA0121501268000448000000
B1139305958841N01729225EA0120101251000452000000
B1139365958752N01729164EA0121801285000452000000
B1139425958659N01729124EA0121201256000460015000
B1139485958541N01729059EA0117901237000460015000
B1139545958420N01728990EA0118001240000456000000
B1140005958301N01728928EA0117701234000456000000
B1140065958176N01728859EA0115501213000456000000
B1140125958055N01728774EA0115101213000464000000
B1140185957964N01728642EA0116301224000456000000
B1140245957899N01728470EA0115801217000452000000
B1140305957869N01728266EA0115801215000456000000
B1140365957865N01728046EA0114701198000456000000
B1140425957860N01727830EA0113901200000452000000
B1140485957797N01727703EA0115601214000440000000
B1140545957700N01727693EA0115101206000456015000
B1141005957592N01727726EA0114701206000448015000
B1141065957480N01727798EA0113101180000456015000
B1141125957358N01727808EA0111801176000456015000
B1141185957242N01727790EA0112001181000460015000
B1141245957128N01727765EA0111201170000464015000
B1141305957017N01727758EA0112401185000460015000
B1141365956911N01727739EA0111701180000456015000
B1141425956809N01727793EA0114001209000452015000
B1141485956774N01727984EA0116701224000456015000
B1141545956852N01728149EA0116301221000452015000
B1142005956946N01728119EA0116801226000460015000
B1142065956956N01727989EA0117501230000460000000
B1142125956908N01727888EA0117101228000464000000
B1142185956824N01727890EA0117501235000456015000
B1142245956764N01728063EA0118001240000456000000
B1142305956804N01728276EA0118901246000460000000
B1142365956908N01728336EA0118801246000460015000
B1142425956976N01728235EA0118801246000464015000
B1142485956960N01728102EA0119101248000464000000
B1142545956882N01728066EA0119001247000460015000
B1143005956796N01728183EA0119201252000460015000
B1143065956794N01728410EA0120101260000456000000
B1143125956887N01728544EA0120601264000460000000
B1143185956982N01728506EA0120601262000452015000
B1143245957016N01728370EA0120901266000448000000
B1143305956964N01728283EA0121401271000452015000
B1143365956886N01728398EA0121501273000448015000
B1143425956876N01728622EA0122001280000452000000
B1143485956947N01728790EA0122001276000452000000
B1143545957041N01728766EA0121501272000448015000
B1144005957081N01728639EA0121601276000456000000
B1144065957058N01728515EA0122501284000452000000
B1144125956994N01728445EA0122701284000448015000
B1144185956919N01728385EA0121901275000456015000
B1144245956848N01728306EA0122601291000448015000
B1144305956772N01728271EA0123901300000440015000
B1144365956692N01728379EA0124601307000440015000
B1144425956674N01728606EA0124701306000440015000
B1144485956742N01728799EA0125001309000452015000
B1144545956851N01728870EA0125101310000460015000
B1145005956939N01728803EA0125501315000456015000
B1145065956955N01728661EA0126001318000460015000
B1145125956899N01728562EA0126301324000452015000
B1145185956809N01728588EA0126901328000444015000
B1145245956767N01728790EA0127601335000444015000
B1145305956812N01729007EA0127601334000456015000
B1145365956919N01729106EA0128001336000460015000
B1145425957024N01729077EA0127801341000456015000
B1145485957060N01728943EA0129001343000456015000
B1145545957021N01728813EA0128001335000464015000
B1146005956945N01728738EA0127701331000468015000
B1146065956846N01728773EA0127601336000460015000
B1146125956767N01728907EA0128401344000460015000
B1146185956772N01729132EA0128601346000464015000
B1146245956850N01729299EA0128801342000464015000
B1146305956954N01729295EA0127801338000460015000
B1146365957007N01729154EA0128201337000464015000
B1146425956998N01728993EA0128101341000464015000
B1146485956964N01728840EA0128201340000460015000
B1146545956904N01728710EA0127501328000460015000
B1147005956809N01728662EA0127401332000460015000
B1147065956702N01728705EA0127201334000460015000
B1147125956618N01728851EA0128301344000456015000
B1147185956613N01729081EA0127801333000460015000
B1147245956685N01729260EA0126901320000460015000
B1147305956778N01729415EA0126201322000456015000
B1147365956864N01729578EA0127101330000452015000
B1147425956963N01729584EA0127001327000452015000
B1147485956993N01729437EA0126901325000460015000
B1147545956946N01729312EA0127001326000460015000
B1148005956854N01729319EA0126501319000468015000
B1148065956783N01729489EA0125601312000456015000
B1148125956748N01729714EA0125501312000456015000
B1148185956733N01729944EA0125801317000468015000
B1148245956759N01730164EA0126001317000464015000
B1148305956850N01730291EA0125101304000464015000
B1148365956962N01730321EA0124101294000460015000
B1148425957069N01730299EA0123401291000456015000
B1148485957175N01730276EA0124001299000464015000
B1148545957277N01730238EA0123701293000460015000
B1149005957375N01730172EA0123801294000464015000
B1149065957475N01730111EA0123101288000464015000
B1149125957576N01730057EA0123201289000464015000
B1149185957671N01729986EA0122401280000460015000
B1149245957752N01729873EA0121301271000452015000
B1149305957800N01729708EA0121001264000452015000
B1149365957810N01729527EA0120501262000456015000
B1149425957778N01729363EA0120701264000456015000
B1149485957747N01729202EA0120801270000456015000
B1149545957727N01729038EA0120301257000440015000
B1150005957713N01728852EA0119501252000444015000
B1150065957692N01728638EA0117401231000448015000
B1150125957667N01728405EA0116601217000444015000
B1150185957647N01728170EA0115601213000444015000
B1150245957632N01727936EA0114901200000448015000
B1150305957619N01727707EA0114301197000452015000
B1150365957604N01727479EA0113601191000456015000
B1150425957580N01727261EA0113601186000456015000
B1150485957539N01727061EA0113901197000460015000
B1150545957476N01726905EA0114601208000460015000
B1151005957396N01726805EA0115401210000452015000
B1151065957306N01726729EA0115101210000456015000
B1151125957207N01726671EA0114901206000456015000
B1151185957105N01726645EA0115501212000448015000
B1151245956998N01726614EA0114201195000452015000
B1151305956894N01726598EA0113801198000444015000
B1151365956794N01726590EA0113601189000448015000
B1151425956694N01726564EA0111601175000448015000
B1151485956631N01726421EA0111301170000448015000
B1151545956612N01726211EA0109701140000452015000
B1152005956573N01726016EA0110301181000452015000
B1152065956486N01726029EA0114101193000444015000
B1152125956457N01726238EA0113001182000440015000
B1152185956521N01726419EA0112101169000448015000
B1152245956620N01726533EA0110001153000444015000
B1152305956729N01726573EA0110401157000452015000
B1152365956837N01726585EA0110101150000452015000
B1152425956941N01726538EA0108701122000452015000
B1152485957041N01726393EA0104701092000448015000
B1152545957136N01726216EA0104201091000448015000
B1153005957233N01726043EA0103601084000452015000
B1153065957323N01725876EA0105101095000452015000
B1153125957413N01725709EA0103101078000452015000
B1153185957505N01725546EA0102301059000448015000
B1153245957601N01725364EA0099401033000448015000
B1153305957710N01725194EA0099001051000448015000
B1153365957804N01725063EA0103601085000452015000
B1153425957898N01724944EA0103601074000452015000
B1153485958009N01724805EA0100801054000456015000
B1153545958117N01724641EA0101401077000456015000
B1154005958204N01724514EA0106001104000448015000
B1154065958288N01724387EA0107701128000448015000
B1154125958355N01724246EA0108101131000448015000
B1154185958392N01724082EA0109201144000448015000
B1154245958363N01723929EA0109801145000428015000
B1154305958277N01723916EA0111401167000432015000
B1154365958241N01724090EA0112601178000436015000
B1154425958327N01724190EA0113301187000440015000
B1154485958398N01724089EA0114701197000444015000
B1154545958408N01723928EA0114801202000444015000
B1155005958332N01723887EA0115901210000444015000
B1155065958290N01724059EA0116601221000440015000
B1155125958346N01724237EA0117301230000440015000
B1155185958444N01724287EA0118401243000440015000
B1155245958481N01724149EA0118601232000444015000
B1155305958402N01724086EA0118401243000444015000
B1155365958337N01724236EA0120301255000448015000
B1155425958310N01724436EA0121001261000444015000
B1155485958375N01724597EA0120901264000444015000
B1155545958455N01724524EA0122101276000444015000
B1156005958437N01724385EA0123401287000440015000
B1156065958358N01724428EA0124101294000436015000
B1156125958359N01724625EA0124801299000436015000
B1156185958446N01724716EA0124801302000436015000
B1156245958533N01724656EA0125401307000436015000
B1156305958542N01724501EA0126001315000440015000
B1156365958470N01724471EA0127201324000436015000
B1156425958424N01724630EA0127901331000428015000
B1156485958484N01724801EA0128001334000436015000
B1156545958576N01724778EA0129101344000432015000
B1157005958572N01724627EA0129201342000436015000
B1157065958490N01724649EA0130401360000440015000
B1157125958467N01724843EA0130901363000444015000
B1157185958545N01724998EA0130701361000448015000
B1157245958645N01724974EA0131201362000448015000
B1157305958680N01724801EA0130401349000452015000
B1157365958715N01724596EA0128701329000452015000
B1157425958780N01724396EA0127201325000452015000
B1157485958870N01724250EA0127901333000448015000
B1157545958986N01724190EA0127501321000456015000
B1158005959117N01724188EA0126501326000456015000
B1158065959225N01724224EA0129801359000456015000
B1158125959328N01724235EA0130501353000444015000
B1158185959370N01724099EA0130201358000444000000
B1158245959303N01724042EA0130601357000448015000
B1158305959222N01724155EA0130401361000448015000
B1158365959198N01724374EA0131201370000448015000
B1158425959244N01724593EA0131701375000444015000
B1158485959333N01724752EA0131701377000448000000
B1158545959442N01724834EA0131701371000440015000
B1159005959558N01724924EA0131801377000436000000
B1159065959672N01725007EA0131801374000448015000
B1159125959790N01725099EA0131201368000448000000
B1159185959909N01725181EA0130501359000448015000
B1159246000039N01725289EA0128201327000452015000
B1159306000176N01725463EA0125301303000456000000
B1159366000310N01725649EA0124601303000452000000
B1159426000433N01725856EA0124601308000452000000
B1159486000564N01725915EA0126501331000452015000
B1159546000665N01725834EA0127401327000452015000
B1200006000729N01725671EA0126001310000456015000
B1200066000712N01725498EA0125201301000452000000
B1200126000622N01725406EA0123501294000452015000
B1200186000529N01725338EA0124301310000448015000
B1200246000451N01725258EA0125101299000452000000
B1200306000365N01725180EA0125601320000452000000
B1200366000296N01725306EA0127801334000448015000
B1200426000318N01725531EA0128101340000448000000
B1200486000414N01725633EA0128701346000444015000
B1200546000487N01725562EA0130101360000436015000
B1201006000482N01725437EA0130301358000440015000
B1201066000412N01725395EA0130401358000444000000
B1201126000329N01725414EA0129701353000444000000
B1201186000232N01725450EA0128701345000456000000
B1201246000132N01725499EA0128201336000452000000
B1201306000022N01725538EA0125901307000460000000
B1201365959913N01725563EA0126801323000460000000
B1201425959805N01725548EA0126001321000460000000
B1201485959716N01725467EA0127401339000452000000
B1201545959646N01725384EA0129201352000456000000
B1202005959562N01725390EA0129401355000456000000
B1202065959494N01725541EA0129301351000452000000
B1202125959458N01725749EA0129801359000452000000
B1202185959429N01725970EA0128801345000456000000
B1202245959393N01726195EA0128201331000456000000
B1202305959351N01726438EA0126501321000456000000
B1202365959300N01726673EA0125601314000456000000
B1202425959251N01726874EA0128501345000452000000
B1202485959255N01727098EA0128701346000448000000
B1202545959351N01727193EA0129401350000452000000
B1203005959416N01727087EA0129801357000448015000
B1203065959376N01726975EA0130201359000448000000
B1203125959299N01727050EA0131001368000452000000
B1203185959266N01727254EA0131801378000452000000
B1203245959298N01727470EA0132101381000456000000
B1203305959393N01727563EA0132501386000444000000
B1203365959471N01727488EA0132801388000452000000
B1203425959468N01727352EA0133601395000452000000
B1203485959394N01727329EA0133101393000452000000
B1203545959321N01727453EA0133801393000456000000
B1204005959298N01727672EA0134101400000456000000
B1204065959355N01727867EA0134901406000452000000
B1204125959448N01727880EA0135001407000456000000
B1204185959482N01727750EA0134801404000460000000
B1204245959424N01727663EA0134401401000460000000
B1204305959338N01727715EA0134301404000456000000
B1204365959265N01727845EA0134801407000456000000
B1204425959263N01728066EA0135101407000464000000
B1204485959344N01728216EA0134601400000464000000
B1204545959439N01728207EA0134201395000464000000
B1205005959526N01728153EA0133801397000464000000
B1205065959602N01728072EA0134101395000464000000
B1205125959637N01727936EA0133501394000468000000
B1205185959606N01727820EA0133701393000464000000
B1205245959526N01727806EA0133401393000468000000
B1205305959446N01727864EA0134501397000464000000
B1205365959455N01728077EA0134301402000460000000
B1205425959552N01728153EA0134901405000452000000
B1205485959612N01728040EA0134201399000448000000
B1205545959573N01727929EA0134301401000460000000
B1206005959491N01727928EA0133901401000464000000
B1206065959406N01727951EA0134301399000468000000
B1206125959313N01727990EA0133001379000468000000
B1206185959205N01728031EA0130501357000468000000
B1206245959094N01728083EA0130701370000464000000
B1206305958996N01728163EA0133201396000464000000
B1206365958978N01728372EA0134601405000460000000
B1206425959060N01728512EA0135001408000460000000
B1206485959142N01728462EA0134901405000460000000
B1206545959148N01728315EA0134801409000460000000
B1207005959083N01728227EA0135701418000456000000
B1207065959003N01728315EA0136501421000460000000
B1207125958993N01728539EA0136801425000460000000
B1207185959068N01728710EA0136901425000468000000
B1207245959168N01728761EA0136801426000468000000
B1207305959253N01728697EA0137001430000468000000
B1207365959292N01728562EA0137401433000468000000
B1207425959264N01728426EA0137201431000468000000
B1207485959200N01728333EA0137501433000464000000
B1207545959121N01728268EA0137001424000464000000
B1208005959039N01728227EA0138001438000456000000
B1208065958975N01728383EA0137201426000456000000
B1208125959006N01728604EA0136401423000456000000
B1208185959069N01728791EA0136701430000460000000
B1208245959148N01728938EA0137301434000456000000
B1208305959238N01729021EA0137701428000456000000
B1208365959333N01729006EA0136601426000460000000
B1208425959390N01728891EA0136401419000464000000
B1208485959396N01728738EA0136501421000464000000
B1208545959354N01728622EA0137101429000464000000
B1209005959279N01728691EA0136801423000464000000
B1209065959272N01728904EA0136301423000464000000
B1209125959352N01729056EA0136801424000464000000
B1209185959458N01729073EA0136201417000464000000
B1209245959559N01729033EA0136201419000460000000
B1209305959656N01728964EA0134901398000468000000
B1209365959721N01728807EA0133601392000468000000
B1209425959686N01728652EA0132601377000468000000
B1209485959591N01728675EA0132101378000468000000
B1209545959530N01728844EA0133101391000460000000
B1210005959490N01729048EA0133801395000464000000
B1210065959408N01729162EA0134001402000464000000
B1210125959325N01729136EA0136501420000460000000
B1210185959237N01729217EA0136501425000460000000
B1210245959235N01729440EA0136901428000464000000
B1210305959328N01729554EA0137301433000456000000
B1210365959421N01729509EA0138401443000452000000
B1210425959458N01729362EA0139001450000452000000
B1210485959400N01729255EA0139501451000460000000
B1210545959315N01729331EA0138201438000456000000
B1211005959309N01729555EA0138101440000464000000
B1211065959348N01729780EA0138601443000468000000
B1211125959435N01729922EA0139301454000456000000
B1211185959508N01729848EA0139601454000456000000
B1211245959480N01729721EA0139501453000464000000
B1211305959399N01729787EA0140101462000460000000
B1211365959391N01730022EA0140601463000456000000
B1211425959482N01730152EA0141401472000452000000
B1211485959555N01730057EA0140901464000456000000
B1211545959520N01729918EA0140401460000468000000
B1212005959430N01729990EA0140701467000468000000
B1212065959417N01730222EA0140801463000468000000
B1212125959508N01730384EA0141001470000464000000
B1212185959598N01730317EA0141301470000464000000
B1212245959597N01730150EA0140701463000472000000
B1212305959564N01729974EA0139401449000464000000
B1212365959564N01729793EA0141601466000468000000
B1212425959558N01729584EA0137701430000468000000
B1212485959549N01729375EA0138001439000464000000
B1212545959539N01729181EA0138501439000456000000
B1213005959529N01728983EA0137601431000460000000
B1213065959484N01728820EA0138101440000460000000
B1213125959390N01728766EA0137901431000460000000
B1213185959282N01728757EA0136801424000460000000
B1213245959175N01728736EA0136401422000464000000
B1213305959068N01728730EA0136301421000468000000
B1213365958961N01728714EA0135601412000460000000
B1213425958878N01728608EA0135301407000464000000
B1213485958826N01728430EA0133901394000460000000
B1213545958792N01728237EA0133801393000456000000
B1214005958772N01728038EA0132601382000456000000
B1214065958756N01727832EA0132001373000460000000
B1214125958736N01727613EA0129601338000464000000
B1214185958722N01727351EA0125701309000464000000
B1214245958714N01727088EA0125301306000460000000
B1214305958720N01726828EA0124901309000464000000
B1214365958733N01726588EA0124901295000456000000
B1214425958746N01726312EA0121401260000460000000
B1214485958778N01726036EA0121101266000444000000
B1214545958774N01725805EA0124601302000456000000
B1215005958735N01725624EA0126201325000464000000
B1215065958655N01725732EA0128601335000472000000
B1215125958705N01725928EA0129401353000468000000
B1215185958795N01725913EA0129701350000468000000
B1215245958811N01725775EA0130301357000464000000
B1215305958744N01725720EA0131001362000464000000
B1215365958670N01725867EA0130401356000464000000
B1215425958710N01726081EA0130501364000464000000
B1215485958804N01726084EA0131201365000460000000
B1215545958828N01725928EA0130301346000468000000
B1216005958778N01725743EA0128801353000468000000
B1216065958715N01725633EA0132201366000468000000
B1216125958631N01725488EA0125401302000472000000
B1216185958533N01725319EA0124601300000468000000
B1216245958453N01725139EA0125101320000472000000
B1216305958418N01724966EA0128301341000464000000
B1216365958444N01724807EA0129701359000464000000
B1216425958488N01724673EA0130901365000460000000
B1216485958527N01724552EA0132501383000456000000
B1216545958571N01724433EA0133301391000456000000
B1217005958609N01724292EA0133401371000460000000
B1217065958596N01724085EA0130001354000448000000
B1217125958570N01723864EA0129901340000460000000
B1217185958544N01723621EA0127201318000464000000
B1217245958515N01723369EA0126401316000468000000
B1217305958483N01723128EA0126501317000468000000
B1217365958449N01722898EA0126301304000464000000
B1217425958419N01722654EA0124801298000460000000
B1217485958367N01722429EA0124101286000456000000
B1217545958290N01722222EA0122801274000456000000
B1218005958210N01722015EA0121601265000456000000
B1218065958132N01721810EA0121201259000460000000
B1218125958059N01721609EA0120901258000460000000
B1218185957990N01721407EA0120001249000460000000
B1218245957927N01721196EA0119701245000464000000
B1218305957873N01720977EA0118601229000464000000
B1218365957836N01720741EA0117901225000468000000
B1218425957821N01720494EA0116401198000468000000
B1218485957849N01720236EA0115501212000464000000
B1218545957891N01719986EA0115101192000468000000
B1219005957937N01719733EA0114301191000464000000
B1219065957974N01719486EA0113401181000464000000
B1219125958004N01719235EA0111801162000460000000
B1219185958033N01718972EA0110101147000464000000
B1219245958057N01718703EA0108301132000456000000
B1219305958081N01718435EA0107101116000460000000
B1219365958095N01718169EA0106801118000464000000
B1219425958108N01717900EA0105501101000464000000
B1219485958117N01717633EA0104701095000464000000
B1219545958124N01717376EA0104401094000464000000
B1220005958152N01717144EA0105801120000468000000
B1220065958174N01716977EA0110701164000464000000
B1220125958190N01716813EA0110501139000464000000
B1220185958198N01716606EA0109801162000468000000
B1220245958202N01716431EA0112901195000456000000
B1220305958199N01716253EA0112501169000460000000
B1220365958198N01716045EA0111501159000460000000
B1220425958195N01715816EA0110001152000464000000
B1220485958189N01715584EA0109701137000468000000
B1220545958186N01715337EA0107801128000468000000
B1221005958176N01715122EA0109301149000476000000
B1221065958151N01714919EA0108401120000460000000
B1221125958104N01714695EA0105001094000464000000
B1221185958042N01714487EA0103701080000472000000
B1221245957972N01714301EA0103601079000468000000
B1221305957899N01714111EA0101401057000460000000
B1221365957826N01713918EA0099601037000456000000
B1221425957762N01713716EA0098501030000460000000
B1221485957705N01713524EA0098501035000460000000
B1221545957660N01713347EA0099701047000464000000
B1222005957613N01713217EA0102301063000468000000
B1222065957558N01713084EA0102301080000464000000
B1222125957493N01712952EA0100301034000464000000
B1222185957419N01712771EA0098801044000472000000
B1222245957354N01712598EA0099901038000468000000
B1222305957289N01712406EA0097901039000476000000
B1222365957244N01712268EA0104201102000464000000
B1222425957236N01712124EA0105501101000460000000
B1222485957337N01712106EA0106101105000464000000
B1222545957367N01712340EA0106001109000476000000
B1223005957305N01712492EA0109501144000468000000
B1223065957244N01712441EA0109601143000472000000
B1223125957322N01712340EA0110401150000468000000
B1223185957417N01712490EA0111501180000476000000
B1223245957436N01712705EA0114301189000468000000
B1223305957355N01712802EA0113601194000464000000
B1223365957333N01712675EA0116001215000464000000
B1223425957431N01712648EA0116801217000464000000
B1223485957498N01712843EA0118701241000472000000
B1223545957479N01713049EA0119501245000464000000
B1224005957401N01713096EA0119601252000468000000
B1224065957349N01713003EA0120601252000476000000
B1224125957341N01712823EA0118501232000480000000
B1224185957345N01712613EA0117201224000488000000
B1224245957346N01712437EA0120601277000480000000
B1224305957341N01712264EA0120901261000476000000
B1224365957314N01712074EA0121501269000472000000
B1224425957276N01711914EA0122401257000472000000
B1224485957196N01711726EA0116901208000472000000
B1224545957105N01711530EA0116001219000480000000
B1225005957025N01711354EA0117001212000476000000
B1225065956951N01711153EA0115501214000476000000
B1225125956904N01710971EA0119201250000480000000
B1225185956889N01710778EA0118001217000476000000
B1225245956920N01710523EA0114901194000476000000
B1225305956965N01710271EA0115201215000480000000
B1225365957007N01710057EA0118801244000476000000
B1225425957050N01709854EA0119001225000476000000
B1225485957107N01709611EA0115201191000476000000
B1225545957167N01709352EA0113201174000472000000
B1226005957223N01709087EA0111901165000468000000
B1226065957266N01708820EA0111301159000468000000
B1226125957283N01708558EA0111101158000460000000
B1226185957288N01708300EA0110201146000464000000
B1226245957285N01708061EA0110601146000468000000
B1226305957288N01707813EA0107701118000464000000
B1226365957342N01707567EA0105901105000468000000
B1226425957415N01707332EA0105701104000472000000
B1226485957488N01707102EA0105701104000476000000
B1226545957544N01706868EA0105501112000480000000
B1227005957587N01706659EA0106501106000472000000
B1227065957614N01706431EA0105701114000476000000
B1227125957604N01706288EA0112101168000476000000
B1227185957565N01706119EA0106601097000476000000
B1227245957488N01705924EA0106201130000480000000
B1227305957435N01705797EA0112301167000476000000
B1227365957365N01705695EA0111401161000476000000
B1227425957276N01705660EA0112201169000476000000
B1227485957231N01705524EA0112401180000476000000
B1227545957242N01705370EA0114701200000468000000
B1228005957255N01705222EA0115801206000456000000
B1228065957210N01705089EA0115001195000464000000
B1228125957158N01704914EA0113501188000468000000
B1228185957132N01704716EA0113301166000468000000
B1228245957123N01704473EA0111501156000464000000
B1228305957119N01704222EA0110101143000468000000
B1228365957103N01703961EA0107501111000472000000
B1228425957075N01703709EA0107101122000476000000
B1228485957030N01703481EA0106601100000468000000
B1228545956980N01703234EA0104101081000476000000
B1229005956933N01702994EA0104001096000480000000
B1229065956893N01702794EA0106101092000476000000
B1229125956842N01702566EA0103401082000476000000
B1229185956811N01702421EA0109601140000476000000
B1229245956765N01702246EA0105201073000480000000
B1229305956700N01702038EA0103501104000484000000
B1229365956652N01701891EA0108201120000480000000
B1229425956594N01701728EA0106901114000480000000
B1229485956526N01701544EA0105301092000480000000
B1229545956452N01701349EA0104301113000480000000
B1230005956392N01701215EA0109301124000472000000
B1230065956315N01701043EA0105001089000476000000
B1230125956236N01700876EA0106201127000480000000
B1230185956166N01700754EA0109001148000476000000
B1230245956105N01700668EA0109801124000472000000
B1230305956022N01700495EA0105001091000476000000
B1230365955929N01700322EA0105101105000480000000
B1230425955859N01700182EA0109001136000468000000
B1230485955786N01700039EA0108001114000468000000
B1230545955716N01659843EA0104201070000468000000
B1231005955659N01659614EA0102201074000472000000
B1231065955613N01659392EA0101501055000472000000
B1231125955584N01659164EA0101901078000468000000
B1231185955556N01658965EA0103401085000472000000
B1231245955532N01658768EA0104301091000472000000
B1231305955511N01658574EA0105401102000472000000
B1231365955490N01658388EA0105501090000472000000
B1231425955464N01658168EA0102701060000468000000
B1231485955441N01657934EA0101501053000472000000
B1231545955457N01657690EA0100101043000472000000
B1232005955511N01657479EA0102101077000472000000
B1232065955564N01657296EA0103101071000468000000
B1232125955639N01657098EA0099201026000468000000
B1232185955736N01656912EA0099501056000472000000
B1232245955820N01656767EA0102601055000468000000
B1232305955873N01656555EA0100201034000468000000
B1232365955854N01656322EA0098001008000464000000
B1232425955805N01656087EA0094700982000464000000
B1232485955741N01655871EA0094400991000464000000
B1232545955695N01655707EA0098501031000456000000
B1233005955672N01655503EA0094800985000464000000
B1233065955698N01655250EA0093600982000472000000
B1233125955753N01655029EA0094900997000472000000
B1233185955825N01654821EA0092500968000464000000
B1233245955911N01654624EA0092000956000456000000
B1233305956013N01654440EA0090000938000456000000
B1233365956119N01654268EA0089600942000464000000
B1233425956226N01654107EA0088800925000460000000
B1233485956339N01653935EA0086600905000460000000
B1233545956447N01653765EA0086000901000456000000
B1234005956556N01653599EA0084700887000456000000
B1234065956659N01653428EA0083900875000460000000
B1234125956712N01653211EA0083000868000464000000
B1234185956712N01652986EA0082500857000468000000
B1234245956677N01652765EA0080500842000464000000
B1234305956639N01652552EA0080400850000464000000
B1234365956605N01652379EA0083700879000472000000
B1234425956564N01652205EA0080900830000468000000
B1234485956496N01651995EA0076800810000472000000
B1234545956436N01651823EA0080600852000468000000
B1235005956384N01651686EA0083600886000460000000
B1235065956328N01651563EA0083800880000460000000
B1235125956299N01651424EA0085300890000460000000
B1235185956275N01651248EA0083100859000476000000
B1235245956262N01651026EA0080100852000480000000
B1235305956256N01650819EA0081300829000476000000
B1235365956250N01650572EA0077600809000472000000
B1235425956239N01650331EA0077200809000468000000
B1235485956201N01650099EA0075900790000468000000
B1235545956156N01649882EA0076300804000472000000
B1236005956109N01649678EA0075100782000468000000
B1236065956054N01649463EA0072600755000464000000
B1236125955990N01649252EA0071400748000464000000
B1236185955931N01649054EA0071000746000468000000
B1236245955876N01648856EA0070000730000464000000
B1236305955827N01648647EA0068200716000464000000
B1236365955775N01648426EA0066500701000464000000
B1236425955732N01648215EA0068400719000468000000
B1236485955665N01648062EA0070300754000472000000
B1236545955581N01648046EA0072900771000468000000
B1237005955535N01648239EA0074100772000472000000
B1237065955613N01648413EA0074000779000476000000
B1237125955677N01648323EA0074000770000480000000
B1237185955641N01648186EA0073900781000472000000
B1237245955589N01648100EA0075400788000464000000
B1237305955513N01648199EA0074600777000464000000
B1237365955561N01648423EA0073900777000464000000
B1237425955664N01648439EA0073900768000472000000
B1237485955699N01648277EA0072400757000480000000
B1237545955691N01648079EA0071200750000484000000
B1238005955678N01647914EA0073600792000476000000
B1238065955637N01647798EA0075200783000472000000
B1238125955620N01647625EA0071000737000472000000
B1238185955682N01647419EA0068800733000472000000
B1238245955758N01647247EA0069500718000484000000
B1238305955845N01647058EA0067500710000476000000
B1238365955925N01646860EA0067500711000472000000
B1238425956003N01646659EA0067100707000472000000
B1238485956076N01646463EA0067000697000472000000
B1238545956165N01646280EA0066000694000476000000
B1239005956276N01646197EA0069700740000468000000
B1239065956386N01646241EA0071100744000468000000
B1239125956500N01646268EA0070400737000468000000
B1239185956614N01646234EA0070100739000472000000
B1239245956725N01646190EA0070600739000472000000
B1239305956826N01646082EA0069000722000472000000
B1239365956894N01645907EA0068300716000464000000
B1239425956926N01645714EA0068200716000452000000
B1239485956950N01645504EA0067500709000456000000
B1239545957002N01645305EA0068400733000464000000
B1240005957097N01645227EA0070500741000468000000
B1240065957210N01645275EA0070200738000480000000
B1240125957323N01645237EA0069100717000480000000
B1240185957444N01645146EA0066100690000476000000
B1240245957567N01645064EA0065700696000460000000
B1240305957669N01644943EA0065300694000460000000
B1240365957748N01644793EA0065100687000460000000
B1240425957810N01644617EA0064400679000460000000
B1240485957835N01644422EA0063600672000460000000
B1240545957833N01644224EA0062800663000464000000
B1241005957825N01644024EA0062400661000460000000
B1241065957818N01643841EA0063800682000464000000
B1241125957812N01643681EA0064300674000468000000
B1241185957795N01643496EA0063800685000472000000
B1241245957777N01643343EA0065600691000472000000
B1241305957787N01643164EA0065100686000468000000
B1241365957777N01643009EA0066700698000468000000
B1241425957697N01642931EA0065200682000472000000
B1241485957673N01642754EA0063300665000468000000
B1241545957721N01642564EA0063700676000472000000
B1242005957792N01642395EA0063200676000468000000
B1242065957862N01642254EA0064400667000476000000
B1242125957935N01642064EA0061600649000476000000
B1242185957995N01641862EA0061800654000472000000
B1242245958044N01641688EA0063700677000472000000
B1242305958091N01641531EA0065100693000468000000
B1242365958043N01641450EA0065000684000468000000
B1242425958004N01641639EA0064500675000464015000
B1242485958094N01641788EA0064400679000468000000
B1242545958206N01641792EA0063300667000472000000
B1243005958311N01641744EA0062400650000476000000
B1243065958408N01641617EA0059700628000472000000
B1243125958462N01641428EA0059100621000472000000
B1243185958505N01641231EA0057900609000476000000
B1243245958544N01641028EA0056800599000464000000
B1243305958554N01640817EA0055500581000460000000
B1243365958532N01640601EA0052800557000460000000
B1243425958499N01640382EA0051800547000464000000
B1243485958463N01640165EA0050800542000464000000
B1243545958428N01639954EA0049800515000464000000
B1244005958392N01639728EA0047100500000464000000
B1244065958363N01639509EA0046600491000464000000
B1244125958327N01639303EA0046000493000468000000
B1244185958291N01639105EA0044600468000460000000
B1244245958245N01638894EA0042900464000468000000
B1244305958202N01638706EA0044400475000476000000
B1244365958165N01638523EA0044300471000468000000
B1244425958125N01638339EA0043400459000464000000
B1244485958090N01638129EA0042000457000468000000
B1244545958074N01637960EA0045300487000476000000
B1245005958035N01637819EA0045900485000480000000
B1245065957973N01637678EA0044500478000480000000
B1245125957957N01637514EA0046600510000476000000
B1245185958041N01637475EA0049000522000468000000
B1245245958095N01637656EA0048800518000468000000
B1245305958029N01637773EA0048700521000468000000
B1245365957960N01637705EA0049800528000468000000
B1245425957999N01637572EA0050500536000468000000
B1245485958087N01637688EA0049600529000476000000
B1245545958065N01637897EA0050800546000472000000
B1246005957987N01637979EA0051500549000464000000
B1246065957959N01637854EA0052300557000464000000
B1246125958050N01637821EA0051600546000472000000
B1246185958106N01638021EA0051900560000472000000
B1246245958081N01638230EA0052800563000476000000
B1246305957991N01638255EA0053500569000464000000
B1246365958024N01638118EA0053600571000476000000
B1246425958121N01638195EA0054000579000476000000
B1246485958143N01638412EA0055600588000480000000
B1246545958085N01638579EA0055500591000476000000
B1247005958025N01638506EA0056300599000472000000
B1247065958096N01638432EA0056100597000476000000
B1247125958150N01638615EA0057500614000472000000
B1247185958089N01638772EA0058300620000464000000
B1247245958017N01638748EA0058400616000468000000
B1247305958052N01638618EA0056900603000472000000
B1247365958161N01638642EA0056500599000472000000
B1247425958232N01638827EA0057700614000472000000
B1247485958169N01638995EA0057600614000476000000
B1247545958109N01638913EA0058800627000476000000
B1248005958190N01638852EA0058400620000484000000
B1248065958229N01639058EA0059700635000484000000
B1248125958158N01639203EA0060500641000476000000
B1248185958095N01639127EA0060000619000476000000
B1248245958063N01638941EA0056300586000472000000
B1248305958034N01638715EA0051500528000476000000
B1248365957981N01638454EA0046900497000480000000
B1248425957926N01638198EA0046400501000480000000
B1248485957878N01637966EA0047700516000468000000
B1248545957834N01637741EA0046900496000464000000
B1249005957790N01637526EA0047100520000468000000
B1249065957762N01637367EA0050500530000464000000
B1249125957734N01637198EA0049300527000468000000
B1249185957705N01637038EA0050500547000468000000
B1249245957641N01636994EA0052500554000472000000
B1249305957612N01637197EA0050900540000472000000
B1249365957701N01637279EA0050300533000468000000
B1249425957782N01637216EA0050600543000468000000
B1249485957849N01637128EA0051100542000468000000
B1249545957807N01637030EA0050700539000468000000
B1250005957727N01637134EA0049500525000464000000
B1250065957756N01637354EA0049100522000460000000
B1250125957855N01637384EA0048800519000468000000
B1250185957934N01637299EA0048000515000472000000
B1250245958005N01637182EA0047400505000476000000
B1250305958044N01637024EA0046500495000476000000
B1250365958034N01636864EA0045700487000464000000
B1250425957957N01636829EA0045100481000456000000
B1250485957882N01636973EA0043800463000456000000
B1250545957826N01637195EA0041700441000452000000
B1251005957787N01637453EA0040300431000452000000
B1251065957735N01637696EA0039400425000440000000
B1251125957671N01637912EA0038700419000448000000
B1251185957589N01638016EA0040300441000456000000
B1251245957574N01637910EA0040900439000464000000
B1251305957674N01637912EA0040500433000464000000
B1251365957717N01638138EA0040200434000464000000
B1251425957701N01638359EA0040900439000460000000
B1251485957626N01638445EA0040300435000464000000
B1251545957608N01638329EA0040900441000464000000
B1252005957693N01638267EA0040300436000464000000
B1252065957804N01638267EA0039200421000468000000
B1252125957921N01638306EA0038100410000464000000
B1252185958018N01638455EA0038600418000460000000
B1252245958048N01638703EA0038000411000468000000
B1252305958008N01638931EA0037800409000468000000
B1252365957918N01639034EA0037200397000468000000
B1252425957825N01639011EA0035700388000464000000
B1252485957764N01638896EA0035600393000464000000
B1252545957747N01638742EA0035700385000468000000
B1253005957779N01638571EA0034900390000472000000
B1253065957851N01638481EA0036700390000468000000
B1253125957968N01638502EA0034900372000460000000
B1253185958061N01638394EA0033300363000452000000
B1253245958139N01638260EA0032300355000444000000
B1253305958206N01638116EA0031600344000440000000
B1253365958256N01637948EA0030000325000440000000
B1253425958291N01637773EA0029600324000444000000
B1253485958315N01637604EA0028700311000444000000
B1253545958327N01637431EA0027600302000444000000
B1254005958327N01637256EA0026200285000440000000
B1254065958302N01637084EA0024300266000440000000
B1254125958276N01636922EA0024500275000436000000
B1254185958250N01636783EA0024500270000444000000
B1254245958219N01636644EA0023300251000440000000
B1254305958210N01636473EA0020900233000440000000
B1254365958223N01636300EA0020200226000440000000
B1254425958256N01636132EA0019500214000440000000
B1254485958340N01636007EA0018500210000436000000
B1254545958454N01635994EA0018500210000464000000
B1255005958546N01636122EA0019800229000484000000
B1255065958512N01636274EA0019900222000492000000
B1255125958485N01636166EA0019100214000504000000
B1255185958544N01636041EA0019600223000496000000
B1255245958631N01636110EA0020000222000496000000
B1255305958590N01636263EA0020300232000500000000
B1255365958580N01636157EA0022200245000492000000
B1255425958661N01636237EA0022500247000492000000
B1255485958620N01636395EA0022500253000500000000
B1255545958575N01636319EA0024200268000496000000
B1256005958640N01636232EA0024400271000504000000
B1256065958691N01636400EA0024900275000500000000
B1256125958618N01636482EA0025300286000504000000
B1256185958602N01636378EA0026300289000500000000
B1256245958693N01636405EA0026600297000492000000
B1256305958704N01636592EA0028800308000488000000
B1256365958636N01636627EA0028000309000492000000
B1256425958671N01636508EA0028400311000496000000
B1256485958762N01636567EA0029700327000536000000
B1256545958739N01636736EA0030500331000604000000
B1257005958685N01636671EA0031500344000600000000
B1257065958743N01636569EA0031700347000632000000
B1257125958821N01636690EA0032600356000644000000
B1257185958780N01636859EA0034000374000628000000
B1257245958718N01636831EA0034200371000632000000
B1257305958767N01636731EA0034700379000656000000
B1257365958854N01636818EA0035900388000612000000
B1257425958865N01637016EA0036100395000616000000
B1257485958796N01637073EA0037000404000640000000
B1257545958805N01636961EA0037400409000632000000
B1258005958896N01636970EA0038300419000636000000
B1258065958928N01637139EA0039800431000620000000
B1258125958867N01637177EA0040200436000636000000
B1258185958878N01637048EA0040200437000628000000
B1258245958958N01637006EA0040900444000648000000
B1258305959017N01637168EA0041200449000668000000
B1258365958964N01637298EA0042200462000664000000
B1258425958945N01637188EA0043900473000636000000
B1258485959023N01637207EA0044600483000592000000
B1258545959034N01637389EA0045200486000592000000
B1259005958973N01637396EA0046000501000596000000
B1259065959010N01637282EA0047100512000600000000
B1259125959087N01637364EA0048200522000580000000
B1259185959086N01637545EA0048900533000588000000
B1259245959027N01637536EA0050100536000608000000
B1259305959069N01637418EA0050900554000592000000
B1259365959139N01637520EA0052300560000600000000
B1259425959088N01637648EA0053300576000596000000
B1259485959061N01637552EA0055100587000592000000
B1259545959136N01637546EA0056900611000560000000
B1300005959142N01637722EA0057000609000572000000
B1300065959071N01637740EA0058100619000560000000
B1300125959079N01637602EA0059300641000552000000
B1300185959159N01637592EA0061300653000552000000
B1300245959188N01637774EA0061700660000612000000
B1300305959120N01637852EA0063400678000620000000
B1300365959070N01637757EA0064300684000624000000
B1300425959127N01637662EA0066100710000612000000
B1300485959179N01637808EA0067900717000612000000
B1300545959114N01637879EA0069600741000612000000
B1301005959110N01637749EA0071000754000592000000
B1301065959185N01637682EA0072200767000572000000
B1301125959235N01637840EA0073300776000580000000
B1301185959175N01637957EA0074300789000592000000
B1301245959144N01637852EA0075500805000616000000
B1301305959218N01637808EA0077300820000612000000
B1301365959265N01637977EA0078300830000612000000
B1301425959208N01638091EA0079500838000612000000
B1301485959164N01637984EA0080400857000640000000
B1301545959231N01637909EA0082500874000644000000
B1302005959298N01638043EA0083800885000624000000
B1302065959251N01638177EA0085000897000620000000
B1302125959208N01638083EA0086300913000636000000
B1302185959264N01637975EA0087700922000604000000
B1302245959351N01638060EA0088100931000580000000
B1302305959330N01638234EA0089100939000620000000
B1302365959260N01638194EA0090300955000628000000
B1302425959278N01638057EA0092400973000604000000
B1302485959367N01638072EA0093300979000612000000
B1302545959385N01638252EA0093400983000592000000
B1303005959318N01638293EA0094901000000592000000
B1303065959294N01638172EA0096201011000584000000
B1303125959367N01638101EA0097301018000588000000
B1303185959439N01638237EA0097501024000600000000
B1303245959413N01638406EA0097901030000608000000
B1303305959346N01638386EA0099901052000624000000
B1303365959361N01638243EA0100701058000592000000
B1303425959456N01638250EA0101901070000592000000
B1303485959484N01638433EA0102501074000544000000
B1303545959415N01638473EA0103201088000572000000
B1304005959402N01638341EA0104701102000604000000
B1304065959469N01638242EA0105601106000592000000
B1304125959563N01638320EA0106601117000600000000
B1304185959586N01638520EA0106901120000564000000
B1304245959517N01638599EA0107901128000580000000
B1304305959484N01638469EA0107601130000616000000
B1304365959542N01638337EA0108901146000612000000
B1304425959646N01638342EA0110801162000592000000
B1304485959733N01638482EA0112601183000592000000
B1304545959738N01638677EA0113601187000580000000
B1305005959677N01638758EA0114401195000560000000
B1305065959636N01638675EA0114401196000576000000
B1305125959688N01638567EA0115701208000552000000
B1305185959790N01638567EA0116001214000584000000
B1305245959890N01638676EA0116901218000596000000
B1305305959905N01638891EA0115801210000572000000
B1305365959838N01638987EA0116801220000556000000
B1305425959779N01638945EA0116801220000600000000
B1305485959783N01638800EA0116801220000616000000
B1305545959863N01638696EA0117101223000652000000
B1306005959957N01638659EA0119301257000560000000
B1306066000026N01638629EA0118901213000552000000
B1306126000150N01638627EA0113801191000668000000
B1306186000280N01638650EA0113601187000692000000
B1306246000390N01638612EA0113801166000640000000
B1306306000512N01638567EA0109601150000748000000
B1306366000633N01638615EA0111301161000624000000
B1306426000746N01638692EA0110101142000692000000
B1306486000872N01638737EA0108601142000736000000
B1306546000995N01638742EA0108101127000736000000
B1307006001122N01638723EA0107801133000816000000
B1307066001245N01638694EA0107701127000864000000
B1307126001370N01638671EA0107001118000864000000
B1307186001493N01638628EA0106301115000904000000
B1307246001613N01638588EA0105901107000912000000
B1307306001733N01638547EA0105001100000996000000
B1307366001848N01638506EA0104701099000996000000
B1307426001964N01638465EA0104701099000996000000
B1307486002086N01638426EA0104001091000996000000
B1307546002206N01638380EA0104401100000996000000
B1308006002320N01638363EA0105701109000952000000
B1308066002438N01638382EA0104701085000872000000
B1308126002571N01638381EA0101601059000688000000
B1308186002710N01638365EA0100001048000628000000
B1308246002844N01638329EA0099301040000592000000
B1308306002975N01638282EA0098201025000584000000
B1308366003104N01638213EA0096901015000604000000
B1308426003230N01638142EA0096101008000596000000
B1308486003358N01638078EA0095400996000584000000
B1308546003488N01638010EA0093500977000596000000
B1309006003618N01637938EA0092300971000588000000
B1309066003742N01637867EA0092300967000576000000
B1309126003867N01637801EA0091500961000560000000
B1309186003992N01637737EA0090600950000580000000
B1309246004121N01637683EA0089800942000576000000
B1309306004252N01637631EA0088500928000580000000
B1309366004385N01637584EA0087500920000604000000
B1309426004518N01637550EA0086800914000616000000
B1309486004654N01637533EA0086200904000636000000
B1309546004793N01637531EA0084800893000656000000
B1310006004934N01637539EA0084200887000684000000
B1310066005076N01637557EA0083600877000668000000
B1310126005218N01637578EA0082500871000628000000
B1310186005353N01637614EA0082800876000592000000
B1310246005483N01637648EA0082600872000580000000
B1310306005608N01637676EA0083500881000568000000
B1310366005733N01637719EA0082500863000556000000
B1310426005861N01637774EA0081700859000552000000
B1310486005994N01637826EA0080200841000556000000
B1310546006130N01637896EA0078400822000556000000
B1311006006268N01637951EA0077300815000556000000
B1311066006405N01637996EA0076700810000560000000
B1311126006540N01638047EA0076400805000568000000
B1311186006671N01638122EA0076200803000588000000
B1311246006806N01638222EA0074900787000612000000
B1311306006938N01638358EA0073800778000624000000
B1311366007056N01638542EA0072900767000632000000
B1311426007170N01638733EA0071900757000596000000
B1311486007285N01638923EA0070700745000568000000
B1311546007403N01639104EA0070000738000560000000
B1312006007520N01639271EA0070300743000564000000
B1312066007640N01639426EA0069700729000564000000
B1312126007767N01639577EA0068100716000560000000
B1312186007900N01639723EA0066800704000556000000
B1312246008032N01639863EA0065900695000560000000
B1312306008161N01640015EA0065300691000568000000
B1312366008286N01640175EA0064700686000584000000
B1312426008411N01640331EA0064500682000592000000
B1312486008534N01640467EA0065300697000612000000
B1312546008655N01640609EA0064200669000636000000
B1313006008790N01640734EA0061800655000652000000
B1313066008924N01640834EA0061400653000636000000
B1313126009052N01640950EA0060800641000684000000
B1313186009183N01641045EA0059800631000628000000
B1313246009315N01641110EA0058800621000648000000
B1313306009447N01641166EA0058000615000636000000
B1313366009575N01641218EA0057400609000660000000
B1313426009708N01641260EA0056600596000628000000
B1313486009835N01641233EA0055400587000648000000
B1313546009952N01641172EA0054100570000636000000
B1314006010010N01641016EA0053600582000612000000
B1314066009998N01640882EA0057100607000592000000
B1314126009921N01640934EA0056200598000564000000
B1314186009932N01641146EA0056300587000552000000
B1314246010023N01641163EA0054500577000552000000
B1314306010068N01641055EA0055600587000624000000
B1314366010094N01640920EA0056100601000672000000
B1314426010095N01640782EA0056500604000724000000
B1314486010090N01640640EA0057600607000728000000
B1314546010028N01640583EA0057100603000656000000
B1315006009975N01640740EA0058600628000628000000
B1315066009994N01640938EA0060000639000600000000
B1315126010081N01640994EA0060900651000584000000
B1315186010119N01640891EA0062500664000568000000
B1315246010060N01640877EA0063100674000600000000
B1315306010029N01641043EA0064800688000640000000
B1315366010095N01641181EA0065600697000628000000
B1315426010164N01641107EA0066500708000668000000
B1315486010134N01641007EA0067700716000644000000
B1315546010064N01641089EA0069600736000612000000
B1316006010066N01641284EA0070700747000584000000
B1316066010153N01641349EA0071200750000612000000
B1316126010185N01641220EA0072100767000612000000
B1316186010125N01641193EA0074200793000600000000
B1316246010095N01641363EA0076800812000568000000
B1316306010166N01641500EA0077500818000552000000
B1316366010244N01641440EA0078100824000596000000
B1316426010241N01641315EA0079000839000636000000
B1316486010180N01641371EA0080900849000592000000
B1316546010206N01641583EA0081400860000608000000
B1317006010301N01641652EA0082600871000616000000
B1317066010350N01641550EA0083500880000612000000
B1317126010294N01641544EA0084700896000604000000
B1317186010287N01641735EA0086200908000612000000
B1317246010375N01641822EA0086900913000588000000
B1317306010428N01641726EA0087500921000592000000
B1317366010389N01641645EA0088300931000628000000
B1317426010328N01641725EA0089600942000652000000
B1317486010362N01641916EA0090800958000612000000
B1317546010450N01641914EA0091600961000588000000
B1318006010466N01641796EA0091900971000620000000
B1318066010409N01641771EA0093400975000584000000
B1318126010374N01641936EA0092800973000576000000
B1318186010446N01642096EA0094000985000568000000
B1318246010541N01642099EA0094900989000608000000
B1318306010576N01641970EA0094800991000624000000
B1318366010532N01641887EA0094700991000612000000
B1318426010469N01641975EA0094900989000592000000
B1318486010452N01642181EA0094700991000564000000
B1318546010484N01642390EA0094600995000604000000
B1319006010575N01642420EA0096101006000620000000
B1319066010580N01642308EA0096201005000628000000
B1319126010514N01642339EA0096901018000584000000
B1319186010498N01642528EA0096801014000596000000
B1319246010582N01642677EA0097501018000592000000
B1319306010679N01642649EA0097301014000596000000
B1319366010735N01642519EA0097101014000636000000
B1319426010709N01642398EA0097501020000604000000
B1319486010636N01642449EA0098101024000580000000
B1319546010623N01642659EA0098101029000568000000
B1320006010682N01642858EA0098301030000556000000
B1320066010781N01642913EA0098501027000544000000
B1320126010865N01642819EA0097201017000636000000
B1320186010943N01642723EA0097301011000656000000
B1320246011028N01642594EA0095000996000720000000
B1320306011106N01642462EA0095501003000624000000
B1320366011187N01642323EA0092900970000592000000
B1320426011290N01642207EA0091800965000592000000
B1320486011395N01642100EA0091300957000572000000
B1320546011499N01641996EA0089900949000568000000
B1321006011601N01641890EA0089600943000556000000
B1321066011704N01641793EA0089800941000556000000
B1321126011815N01641702EA0088600930000544000000
B1321186011935N01641617EA0087500920000544000000
B1321246012049N01641531EA0087900920000544000000
B1321306012159N01641435EA0087400919000544000000
B1321366012266N01641338EA0087000918000552000000
B1321426012374N01641254EA0086900911000552000000
B1321486012484N01641171EA0086000903000544000000
B1321546012594N01641088EA0085000891000536000000
B1322006012703N01641000EA0083400875000532000000
B1322066012810N01640921EA0083800885000532000000
B1322126012892N01640824EA0085500899000536000000
B1322186012935N01640692EA0086400914000552000000
B1322246012881N01640638EA0087900922000544000000
B1322306012840N01640795EA0087700918000532000000
B1322366012906N01640948EA0087800924000528000000
B1322426012998N01640933EA0088000928000520000000
B1322486013053N01640834EA0088600927000536000000
B1322546013020N01640709EA0088400930000592000000
B1323006012953N01640720EA0090000945000568000000
B1323066012935N01640907EA0089500937000552000000
B1323126013015N01641033EA0088800936000544000000
B1323186013087N01640951EA0089200939000556000000
B1323246013117N01640804EA0089200940000632000000
B1323306013084N01640691EA0089900949000616000000
B1323366013036N01640809EA0091800963000572000000
B1323426013101N01640964EA0092700970000548000000
B1323486013182N01640899EA0093200973000540000000
B1323546013171N01640765EA0093200974000532000000
B1324006013102N01640727EA0092900978000528000000
B1324066013041N01640831EA0094300990000536000000
B1324126013082N01641023EA0095701005000532000000
B1324186013174N01641019EA0096601010000532000000
B1324246013191N01640878EA0096801014000536000000
B1324306013137N01640816EA0097301018000540000000
B1324366013071N01640913EA0097601024000540000000
B1324426013070N01641123EA0098401027000544000000
B1324486013161N01641242EA0098901036000540000000
B1324546013245N01641182EA0099201039000580000000
B1325006013236N01641051EA0099701044000576000000
B1325066013171N01641076EA0100501052000544000000
B1325126013193N01641276EA0101201063000544000000
B1325186013286N01641302EA0102701075000548000000
B1325246013296N01641182EA0103101081000552000000
B1325306013236N01641242EA0103401084000552000000
B1325366013239N01641446EA0104001087000568000000
B1325426013321N01641580EA0104901100000588000000
B1325486013397N01641513EA0105501103000576000000
B1325546013370N01641405EA0105001098000564000000
B1326006013309N01641497EA0106101115000544000000
B1326066013319N01641704EA0106301112000532000000
B1326126013399N01641860EA0106801118000576000000
B1326186013501N01641918EA0107001118000604000000
B1326246013600N01641847EA0106401106000568000000
B1326306013699N01641719EA0103901079000556000000
B1326366013802N01641576EA0102601074000552000000
B1326426013908N01641442EA0102301064000556000000
B1326486014020N01641309EA0100901054000552000000
B1326546014132N01641175EA0100001047000560000000
B1327006014240N01641043EA0099601041000560000000
B1327066014344N01640909EA0099101042000564000000
B1327126014445N01640778EA0099101039000568000000
B1327186014547N01640646EA0098401030000560000000
B1327246014653N01640519EA0097701020000560000000
B1327306014764N01640391EA0096101008000560000000
B1327366014873N01640259EA0095101001000564000000
B1327426014976N01640131EA0094800999000552000000
B1327486015080N01640009EA0094700994000548000000
B1327546015184N01639884EA0093700988000552000000
B1328006015289N01639767EA0092600979000556000000
B1328066015393N01639652EA0092200972000560000000
B1328126015494N01639531EA0091900969000564000000
B1328186015598N01639412EA0091000960000564000000
B1328246015701N01639291EA0090300955000568000000
B1328306015804N01639178EA0090000945000564000000
B1328366015906N01639057EA0089100941000580000000
B1328426016010N01638953EA0088800934000556000000
B1328486016125N01638858EA0087900925000560000000
B1328546016246N01638796EA0087700924000564000000
B1329006016365N01638744EA0088300930000552000000
B1329066016488N01638694EA0087700923000544000000
B1329126016594N01638625EA0089300941000584000000
B1329186016688N01638523EA0088500925000564000000
B1329246016772N01638381EA0086900911000564000000
B1329306016858N01638226EA0085400893000568000000
B1329366016945N01638062EA0083700876000572000000
B1329426017034N01637896EA0082500868000564000000
B1329486017114N01637719EA0081300855000568000000
B1329546017193N01637539EA0080600846000568000000
B1330006017268N01637358EA0080400849000568000000
B1330066017335N01637181EA0080100838000568000000
B1330126017399N01637002EA0079300837000580000000
B1330186017453N01636830EA0079200828000592000000
B1330246017511N01636648EA0077900820000604000000
B1330306017568N01636469EA0078100824000612000000
B1330366017619N01636289EA0079100832000620000000
B1330426017660N01636122EA0080100841000628000000
B1330486017685N01635938EA0078500822000696000000
B1330546017751N01635760EA0077100812000672000000
B1331006017812N01635582EA0076500803000668000000
B1331066017889N01635413EA0074600784000620000000
B1331126017975N01635257EA0074200786000592000000
B1331186018031N01635089EA0075300796000628000000
B1331246018036N01634920EA0076300808000584000000
B1331306017979N01634809EA0077100811000568000000
B1331366017912N01634728EA0079100832000564000000
B1331426017916N01634604EA0080000843000596000000
B1331486018001N01634680EA0080800841000636000000
B1331546017980N01634871EA0081300857000668000000
B1332006017914N01634853EA0082500867000700000000
B1332066017919N01634725EA0083000869000696000000
B1332126018005N01634703EA0083900880000692000000
B1332186018053N01634892EA0084200884000696000000
B1332246017989N01635032EA0085400903000704000000
B1332306017933N01634971EA0086700909000700000000
B1332366017998N01634897EA0087300914000704000000
B1332426018066N01635045EA0088200926000700000000
B1332486018027N01635219EA0089200940000688000000
B1332546017960N01635200EA0089300933000672000000
B1333006017976N01635063EA0088600927000684000000
B1333066018070N01635026EA0089700942000704000000
B1333126018131N01635186EA0091200954000696000000
B1333186018074N01635325EA0091100957000712000000
B1333246018012N01635277EA0091600958000664000000
B1333306018050N01635156EA0092200966000684000000
B1333366018148N01635218EA0092700973000692000000
B1333426018142N01635412EA0094200993000692000000
B1333486018081N01635397EA0094900988000680000000
B1333546018127N01635290EA0095401000000684000000
B1334006018218N01635382EA0096101006000680000000
B1334066018210N01635581EA0097101013000672000000
B1334126018135N01635605EA0097301015000680000000
B1334186018136N01635486EA0098101026000688000000
B1334246018227N01635505EA0099201030000696000000
B1334306018257N01635712EA0099001035000696000000
B1334366018185N01635807EA0099401039000696000000
B1334426018150N01635715EA0100001044000696000000
B1334486018210N01635605EA0099601033000716000000
B1334546018306N01635516EA0098401015000656000000
B1335006018421N01635416EA0096000999000608000000
B1335066018539N01635334EA0095701001000580000000
B1335126018652N01635260EA0095600996000572000000
B1335186018763N01635180EA0095100995000564000000
B1335246018870N01635101EA0094700988000564000000
B1335306018981N01635027EA0093600979000568000000
B1335366019094N01634952EA0092900970000568000000
B1335426019210N01634871EA0091800959000576000000
B1335486019325N01634785EA0091000955000576000000
B1335546019439N01634699EA0090200943000580000000
B1336006019556N01634610EA0089000935000592000000
B1336066019673N01634524EA0088800931000588000000
B1336126019777N01634404EA0088500927000580000000
B1336186019875N01634273EA0088300923000584000000
B1336246019972N01634133EA0087600921000580000000
B1336306020069N01633995EA0086800910000588000000
B1336366020168N01633849EA0085900901000592000000
B1336426020265N01633705EA0085500898000596000000
B1336486020360N01633567EA0085000889000592000000
B1336546020453N01633431EA0084500888000576000000
B1337006020540N01633297EA0085000896000568000000
B1337066020629N01633164EA0084000883000560000000
B1337126020716N01633029EA0084500890000560000000
B1337186020801N01632898EA0083500874000568000000
B1337246020893N01632761EA0081800856000568000000
B1337306020974N01632597EA0080500844000556000000
B1337366021051N01632431EA0079400830000556000000
B1337426021138N01632276EA0078200823000560000000
B1337486021240N01632149EA0077600816000564000000
B1337546021352N01632045EA0077800829000568000000
B1338006021452N01631972EA0080600850000580000000
B1338066021469N01631830EA0081500858000576000000
B1338126021398N01631829EA0081200842000556000000
B1338186021366N01632015EA0081100850000544000000
B1338246021438N01632171EA0081200853000532000000
B1338306021530N01632235EA0082100855000536000000
B1338366021574N01632106EA0081500854000536000000
B1338426021517N01632054EA0081400851000516000000
B1338486021455N01632181EA0081300845000528000000
B1338546021433N01632385EA0081900866000532000000
B1339006021502N01632537EA0082600862000536000000
B1339066021578N01632450EA0083500875000536000000
B1339126021538N01632349EA0083700877000532000000
B1339186021461N01632380EA0083700884000536000000
B1339246021420N01632544EA0084800888000568000000
B1339306021493N01632691EA0086800914000556000000
B1339366021569N01632609EA0087500918000564000000
B1339426021541N01632488EA0088500930000584000000
B1339486021474N01632552EA0089100934000572000000
B1339546021507N01632747EA0089900950000564000000
B1340006021597N01632722EA0091800957000548000000
B1340066021584N01632584EA0092000966000540000000
B1340126021509N01632602EA0092300966000540000000
B1340186021467N01632778EA0092600966000556000000
B1340246021525N01632953EA0091000951000560000000
B1340306021624N01632983EA0092700972000560000000
B1340366021724N01632983EA0093500987000572000000
B1340426021821N01632951EA0092600962000556000000
B1340486021911N01632843EA0091700951000540000000
B1340546021985N01632690EA0090000942000564000000
B1341006022068N01632547EA0089400940000568000000
B1341066022162N01632420EA0088600924000568000000
B1341126022258N01632284EA0087400917000572000000
B1341186022352N01632146EA0086500905000576000000
B1341246022448N01631998EA0085300897000576000000
B1341306022535N01631845EA0084900892000572000000
B1341366022614N01631676EA0084300885000584000000
B1341426022692N01631499EA0083800878000588000000
B1341486022772N01631328EA0083100872000592000000
B1341546022856N01631167EA0082600869000580000000
B1342006022945N01631007EA0082000858000576000000
B1342066023034N01630851EA0080900854000576000000
B1342126023127N01630702EA0080800846000584000000
B1342186023216N01630552EA0080000842000600000000
B1342246023302N01630404EA0079200833000616000000
B1342306023389N01630259EA0078300825000632000000
B1342366023482N01630118EA0077400815000620000000
B1342426023578N01629983EA0076400801000624000000
B1342486023680N01629836EA0073900775000612000000
B1342546023788N01629689EA0072900767000588000000
B1343006023892N01629550EA0072800767000580000000
B1343066023996N01629406EA0071700752000572000000
B1343126024100N01629254EA0070700745000560000000
B1343186024199N01629100EA0070200745000568000000
B1343246024290N01628957EA0070500738000576000000
B1343306024381N01628813EA0069700736000576000000
B1343366024463N01628650EA0069400735000572000000
B1343426024541N01628491EA0068800720000600000000
B1343486024623N01628325EA0067100708000596000000
B1343546024701N01628166EA0066800705000612000000
B1344006024782N01628011EA0065600695000624000000
B1344066024866N01627859EA0065100684000636000000
B1344126024951N01627700EA0063900672000600000000
B1344186025030N01627539EA0063600684000648000000
B1344246025070N01627386EA0066200703000668000000
B1344306025032N01627278EA0067000704000628000000
B1344366024974N01627415EA0067800721000592000000
B1344426025026N01627591EA0069100729000584000000
B1344486025118N01627587EA0068400721000552000000
B1344546025165N01627453EA0068300725000580000000
B1345006025117N01627376EA0069300727000564000000
B1345066025081N01627548EA0069400732000556000000
B1345126025160N01627686EA0069000729000560000000
B1345186025234N01627612EA0069100726000560000000
B1345246025264N01627469EA0068800732000572000000
B1345306025256N01627326EA0069200724000608000000
B1345366025175N01627309EA0068100727000612000000
B1345426025121N01627448EA0069800740000588000000
B1345486025173N01627630EA0070300744000560000000
B1345546025255N01627609EA0070800748000556000000
B1346006025247N01627462EA0070900748000564000000
B1346066025198N01627328EA0070800755000552000000
B1346126025146N01627217EA0071500756000564000000
B1346186025095N01627105EA0071500752000544000000
B1346246025030N01626981EA0069600735000556000000
B1346306024973N01626855EA0070500746000560000000
B1346366024922N01626724EA0071000752000544000000
B1346426024867N01626612EA0070900755000584000000
B1346486024793N01626578EA0071600757000568000000
B1346546024717N01626655EA0071600764000608000000
B1347006024680N01626820EA0073100778000568000000
B1347066024762N01626931EA0073400777000540000000
B1347126024801N01626803EA0073900780000536000000
B1347186024759N01626693EA0074700791000580000000
B1347246024711N01626807EA0076300802000556000000
B1347306024785N01626937EA0076300804000556000000
B1347366024841N01626834EA0077600814000532000000
B1347426024823N01626711EA0078200824000508000000
B1347486024762N01626734EA0079100831000524000000
B1347546024765N01626915EA0078900828000524000000
B1348006024847N01627041EA0078700829000580000000
B1348066024938N01627020EA0080100840000604000000
B1348126024926N01626908EA0079600838000568000000
B1348186024865N01626985EA0080900849000540000000
B1348246024865N01627175EA0081800856000536000000
B1348306024954N01627269EA0082500866000528000000
B1348366025018N01627166EA0083300872000524000000
B1348426024987N01627070EA0082900868000524000000
B1348486024927N01627167EA0083100869000540000000
B1348546024944N01627363EA0083800878000528000000
B1349006025040N01627430EA0084100886000536000000
B1349066025091N01627324EA0085200890000532000000
B1349126025045N01627267EA0084400879000548000000
B1349186024996N01627402EA0083700878000552000000
B1349246025021N01627607EA0084800885000536000000
B1349306025112N01627670EA0084500886000544000000
B1349366025151N01627549EA0085300897000544000000
B1349426025101N01627500EA0085600893000544000000
B1349486025032N01627538EA0085600897000580000000
B1349546024988N01627681EA0086200902000568000000
B1350006025045N01627841EA0086600905000532000000
B1350066025120N01627774EA0086500902000532000000
B1350126025116N01627626EA0086400901000604000000
B1350186025099N01627477EA0086800900000580000000
B1350246025060N01627332EA0085100889000604000000
B1350306024993N01627243EA0085600900000572000000
B1350366024919N01627296EA0087200913000544000000
B1350426024928N01627487EA0088800926000528000000
B1350486025019N01627534EA0088600925000516000000
B1350546025045N01627414EA0088400922000516000000
B1351006025014N01627305EA0088600929000548000000
B1351066024952N01627313EA0089100933000568000000
B1351126024965N01627496EA0089200929000556000000
B1351186025058N01627523EA0089200937000572000000
B1351246025110N01627410EA0090300942000552000000
B1351306025099N01627288EA0090500944000544000000
B1351366025038N01627280EA0090500943000536000000
B1351426024987N01627430EA0087400896000532000000
B1351486024966N01627670EA0084900885000524000000
B1351546024944N01627934EA0080600825000528000000
B1352006024917N01628233EA0078700841000528000000
B1352066024895N01628493EA0078300811000520000000
B1352126024866N01628773EA0077200818000532000000
B1352186024827N01629000EA0080000846000524000000
B1352246024759N01629090EA0081600851000608000000
B1352306024680N01629133EA0080000837000592000000
B1352366024601N01629128EA0079600828000616000000
B1352426024505N01629168EA0076300790000576000000
B1352486024392N01629174EA0072700766000556000000
B1352546024289N01629104EA0072800765000544000000
B1353006024198N01629011EA0073500786000536000000
B1353066024119N01628921EA0073700764000528000000
B1353126024028N01628816EA0072500766000524000000
B1353186023938N01628719EA0072800766000548000000
B1353246023852N01628626EA0072400761000532000000
B1353306023761N01628552EA0071500751000532000000
B1353366023673N01628483EA0071300751000536000000
B1353426023587N01628403EA0070800740000524000000
B1353486023500N01628322EA0069600729000524000000
B1353546023406N01628245EA0067200706000528000000
B1354006023316N01628156EA0065900694000532000000
B1354066023228N01628062EA0065000684000532000000
B1354126023162N01627926EA0065000689000528000000
B1354186023108N01627770EA0064400678000528000000
B1354246023054N01627603EA0063400669000528000000
B1354306022990N01627449EA0062400657000520000000
B1354366022939N01627266EA0061100647000524000000
B1354426022908N01627077EA0061300651000524000000
B1354486022877N01626916EA0061700654000524000000
B1354546022847N01626769EA0061400650000528000000
B1355006022802N01626632EA0060200633000528000000
B1355066022713N01626578EA0058800623000524000000
B1355126022620N01626573EA0058300619000520000000
B1355186022527N01626583EA0058100615000528000000
B1355246022434N01626620EA0057800613000524000000
B1355306022338N01626712EA0056900608000524000000
B1355366022248N01626833EA0056800609000544000000
B1355426022163N01626905EA0057700613000544000000
B1355486022075N01626955EA0057100606000576000000
B1355546021992N01626928EA0058200620000624000000
B1356006021948N01626816EA0058200615000672000000
B1356066021912N01626669EA0057300611000612000000
B1356126021846N01626594EA0058100617000560000000
B1356186021764N01626663EA0057900612000536000000
B1356246021702N01626841EA0057400616000568000000
B1356306021633N01626998EA0057500612000604000000
B1356366021552N01627100EA0058000625000648000000
B1356426021498N01627057EA0059300631000660000000
B1356486021504N01626924EA0058900629000680000000
B1356546021483N01626804EA0059300630000676000000
B1357006021412N01626812EA0060000640000612000000
B1357066021409N01627015EA0059800638000568000000
B1357126021494N01627131EA0061200652000556000000
B1357186021560N01627064EA0061300657000544000000
B1357246021541N01626958EA0062200660000528000000
B1357306021473N01626955EA0062500661000536000000
B1357366021418N01627097EA0062700675000548000000
B1357426021450N01627283EA0063700678000532000000
B1357486021537N01627317EA0064200681000524000000
B1357546021563N01627200EA0064000681000524000000
B1358006021517N01627129EA0064400680000532000000
B1358066021444N01627154EA0064700689000576000000
B1358126021369N01627206EA0064100685000580000000
B1358186021295N01627282EA0064500689000560000000
B1358246021226N01627283EA0064300682000596000000
B1358306021160N01627217EA0063200672000596000000
B1358366021077N01627245EA0063000671000556000000
B1358426021019N01627392EA0063800685000540000000
B1358486021058N01627583EA0065000693000536000000
B1358546021155N01627629EA0065200697000540000000
B1359006021205N01627513EA0065700700000544000000
B1359066021161N01627447EA0066400708000520000000
B1359126021109N01627587EA0066600710000524000000
B1359186021142N01627789EA0067100715000520000000
B1359246021227N01627843EA0068100721000568000000
B1359306021278N01627731EA0067900722000588000000
B1359366021246N01627633EA0068700725000568000000
B1359426021177N01627656EA0068900728000556000000
B1359486021106N01627774EA0067900716000544000000
B1359546021036N01627926EA0067300709000536000000
B1400006020978N01628116EA0066100698000536000000
B1400066020958N01628346EA0065900693000520000000
B1400126021000N01628561EA0065400692000528000000
B1400186021095N01628680EA0063800672000552000000
B1400246021207N01628709EA0062800670000540000000
B1400306021301N01628649EA0063100671000568000000
B1400366021369N01628522EA0063000665000600000000
B1400426021386N01628349EA0062500662000580000000
B1400486021356N01628198EA0062800668000596000000
B1400546021312N01628075EA0063100666000612000000
B1401006021246N01627984EA0062100651000612000000
B1401066021155N01627969EA0060300637000568000000
B1401126021061N01628006EA0059700629000548000000
B1401186020971N01627990EA0058200614000720000000
B1401246020937N01627838EA0057600609000740000000
B1401306020987N01627687EA0057200607000768000000
B1401366021097N01627683EA0056500599000788000000
B1401426021201N01627828EA0055400585000780000000
B1401486021299N01627994EA0054500577000748000000
B1401546021398N01628173EA0053100565000700000000
B1402006021500N01628355EA0052300561000724000000
B1402066021600N01628530EA0052400564000668000000
B1402126021708N01628611EA0054100572000632000000
B1402186021820N01628705EA0053200571000760000000
B1402246021922N01628855EA0052600560000796000000
B1402306022027N01628982EA0053400572000752000000
B1402366022135N01629102EA0052700565000736000000
B1402426022247N01629173EA0052600558000692000000
B1402486022339N01629115EA0053100566000680000000
B1402546022335N01628983EA0054300580000612000000
B1403006022262N01629042EA0055600597000556000000
B1403066022265N01629245EA0056700602000548000000
B1403126022349N01629330EA0057600611000580000000
B1403186022408N01629242EA0057800613000592000000
B1403246022367N01629168EA0058800618000592000000
B1403306022323N01629321EA0058500623000560000000
B1403366022374N01629502EA0059000625000568000000
B1403426022471N01629514EA0058900627000632000000
B1403486022503N01629393EA0059300626000600000000
B1403546022442N01629347EA0058900619000596000000
B1404006022375N01629446EA0059900630000592000000
B1404066022423N01629635EA0059300624000572000000
B1404126022492N01629567EA0060200633000548000000
B1404186022468N01629458EA0061400649000536000000
B1404246022410N01629531EA0061600645000544000000
B1404306022461N01629707EA0060900636000536000000
B1404366022542N01629651EA0061200646000536000000
B1404426022555N01629520EA0062200651000576000000
B1404486022484N01629534EA0063200668000564000000
B1404546022505N01629716EA0063800667000548000000
B1405006022588N01629703EA0063500666000560000000
B1405066022568N01629564EA0063500667000556000000
B1405126022508N01629508EA0064600680000568000000
B1405186022487N01629680EA0065300681000548000000
B1405246022574N01629766EA0065300682000532000000
B1405306022625N01629658EA0065300684000528000000
B1405366022629N01629511EA0065100685000560000000
B1405426022568N01629469EA0065600689000568000000
B1405486022542N01629633EA0065900689000548000000
B1405546022612N01629778EA0066000687000532000000
B1406006022715N01629798EA0065800692000584000000
B1406066022735N01629662EA0067200699000556000000
B1406126022668N01629690EA0067000701000540000000
B1406186022695N01629869EA0067700710000556000000
B1406246022783N01629917EA0067600711000580000000
B1406306022829N01629783EA0068000713000604000000
B1406366022777N01629722EA0068100712000572000000
B1406426022731N01629857EA0068400719000560000000
B1406486022769N01630036EA0068700720000552000000
B1406546022859N01630031EA0069100725000552000000
B1407006022886N01629888EA0069300721000592000000
B1407066022887N01629706EA0067100705000696000000
B1407126022893N01629538EA0069100735000664000000
B1407186022830N01629518EA0070100728000644000000
B1407246022835N01629723EA0069500734000572000000
B1407306022928N01629791EA0070700739000580000000
B1407366022995N01629676EA0070600744000556000000
B1407426023032N01629542EA0071300743000612000000
B1407486022986N01629436EA0071800756000580000000
B1407546022925N01629541EA0072600759000556000000
B1408006022982N01629705EA0072200754000540000000
B1408066023056N01629622EA0072000761000528000000
B1408126023042N01629480EA0073100764000568000000
B1408186022972N01629554EA0073400775000544000000
B1408246023017N01629718EA0074400788000536000000
B1408306023068N01629622EA0075300787000528000000
B1408366023010N01629568EA0075900800000528000000
B1408426022945N01629684EA0075000788000528000000
B1408486022949N01629896EA0074900784000528000000
B1408546023034N01630010EA0075500796000528000000
B1409006023123N01629987EA0076700805000568000000
B1409066023116N01629858EA0077100818000580000000
B1409126023051N01629930EA0078700825000548000000
B1409186023077N01630117EA0079300839000540000000
B1409246023160N01630104EA0080400842000528000000
B1409306023154N01629974EA0081300854000524000000
B1409366023085N01630015EA0082100857000524000000
B1409426023075N01630221EA0081900863000540000000
B1409486023151N01630353EA0082400866000544000000
B1409546023240N01630327EA0084000884000536015000
B1410006023235N01630213EA0084800895000532000000
B1410066023171N01630299EA0085900902000520015000
B1410126023209N01630476EA0086900913000516000000
B1410186023296N01630556EA0087200912000544000000
B1410246023370N01630472EA0087500918000524000000
B1410306023349N01630360EA0088800933000532000000
B1410366023287N01630464EA0090600955000524000000
B1410426023323N01630641EA0091600960000512000000
B1410486023409N01630636EA0091800960000516015000
B1410546023418N01630509EA0092600971000512000000
B1411006023353N01630474EA0094400993000516000000
B1411066023322N01630641EA0095401000000512000000
B1411126023400N01630733EA0096001007000524015000
B1411186023449N01630626EA0096801018000516000000
B1411246023437N01630500EA0097901029000564000000
B1411306023370N01630564EA0098601027000536000000
B1411366023375N01630775EA0097001013000528000000
B1411426023469N01630860EA0097201019000528000000
B1411486023537N01630781EA0098301033000560000000
B1411546023493N01630720EA0100001052000544000000
B1412006023465N01630881EA0101401054000556000000
B1412066023543N01631016EA0101301062000572015000
B1412126023617N01630954EA0103201078000560000000
B1412186023602N01630838EA0103101082000568000000
B1412246023540N01630936EA0105101102000560000000
B1412306023561N01631152EA0105301106000580000000
B1412366023653N01631211EA0107401126000568000000
B1412426023696N01631104EA0108501137000540000000
B1412486023639N01631062EA0109501143000528000000
B1412546023591N01631230EA0110901158000524000000
B1413006023627N01631439EA0111401167000532000000
B1413066023719N01631488EA0112301176000536000000
B1413126023752N01631370EA0113701191000564000000
B1413186023695N01631318EA0114701199000548000000
B1413246023641N01631473EA0115801212000528000000
B1413306023679N01631677EA0115901217000552000000
B1413366023774N01631726EA0116501222000548000000
B1413426023818N01631617EA0117801237000548000000
B1413486023775N01631526EA0119101250000564000000
B1413546023709N01631625EA0120301259000540015000
B1414006023734N01631832EA0120301256000572000000
B1414066023823N01631920EA0121301264000564000000
B1414126023896N01631843EA0121501270000544000000
B1414186023892N01631711EA0123001284000524000000
B1414246023829N01631652EA0123501288000520000000
B1414306023756N01631741EA0124201288000528000000
B1414366023674N01631881EA0121201249000612000000
B1414426023563N01631984EA0117701228000568000000
B1414486023452N01632017EA0118101235000544000000
B1414546023353N01632043EA0119101239000512000000
B1415006023259N01632093EA0119201236000512000000
B1415066023168N01632218EA0118201225000516000000
B1415126023081N01632379EA0116801211000512000000
B1415186022989N01632540EA0115401198000516000000
B1415246022899N01632712EA0114601190000520000000
B1415306022809N01632886EA0113501180000524000000
B1415366022716N01633039EA0113101175000524000000
B1415426022626N01633202EA0112201163000524000000
B1415486022539N01633373EA0111301160000528000000
B1415546022455N01633529EA0111601162000524000000
B1416006022366N01633672EA0111201154000528000000
B1416066022273N01633800EA0110801150000528000000
B1416126022166N01633889EA0109601138000536000000
B1416186022061N01633939EA0110001153000552000000
B1416246021949N01633960EA0108501140000548000000
B1416306021876N01633967EA0114501185000528000000
B1416366021821N01633869EA0113601192000604000000
B1416426021866N01633745EA0113901190000636000000
B1416486021940N01633861EA0115501206000644000000
B1416546021919N01634048EA0117001223000620000000
B1417006021850N01634120EA0117201222000608000000
B1417066021812N01634018EA0116701202000656000000
B1417126021753N01633906EA0115001190000616000000
B1417186021655N01633892EA0114301187000568000000
B1417246021551N01633923EA0113801190000556000000
B1417306021452N01633948EA0113901185000544000000
B1417366021351N01633966EA0114201194000536000000
B1417426021252N01634003EA0114901208000532000000
B1417486021175N01634042EA0117801227000524000000
B1417546021092N01634071EA0118001227000520000000
B1418006021008N01634108EA0117601220000520000000
B1418066020908N01634143EA0114601188000524000000
B1418126020807N01634207EA0114901199000524000000
B1418186020719N01634316EA0114801194000524000000
B1418246020632N01634439EA0114201192000524000000
B1418306020553N01634534EA0115801214000524000000
B1418366020475N01634582EA0114501184000528000000
B1418426020380N01634650EA0113301184000540000000
B1418486020334N01634870EA0113501188000536000000
B1418546020317N01635104EA0114801194000528000000
B1419006020319N01635345EA0113701179000528000000
B1419066020328N01635604EA0111701156000528000000
B1419126020332N01635895EA0107801124000532000000
B1419186020336N01636200EA0107201114000528000000
B1419246020323N01636479EA0109101167000536000000
B1419306020265N01636586EA0113901191000584000000
B1419366020248N01636475EA0114901210000628000000
B1419426020329N01636450EA0114401191000628000000
B1419486020402N01636621EA0114701199000620000000
B1419546020399N01636825EA0115601208000576000000
B1420006020328N01636840EA0115801217000596000000
B1420066020324N01636726EA0117601218000620000000
B1420126020415N01636736EA0116201213000644000000
B1420186020447N01636941EA0117401231000640000000
B1420246020416N01637137EA0117501230000608000000
B1420306020350N01637250EA0118401230000640000000
B1420366020285N01637390EA0116801208000636000000
B1420426020238N01637602EA0115201198000576000000
B1420486020189N01637827EA0113301177000556000000
B1420546020147N01638078EA0112001166000556000000
B1421006020107N01638334EA0111301162000552000000
B1421066020073N01638582EA0111201158000560000000
B1421126020039N01638833EA0110201141000560000000
B1421186019998N01639105EA0107001110000556000000
B1421246019949N01639390EA0104801096000560000000
B1421306019907N01639656EA0105501110000580000000
B1421366019868N01639890EA0106301108000576000000
B1421426019816N01640116EA0105701107000600000000
B1421486019758N01640341EA0105401095000568000000
B1421546019699N01640573EA0103601080000548000000
B1422006019643N01640799EA0103401080000544000000
B1422066019588N01641024EA0102301069000540000000
B1422126019531N01641227EA0103801092000556000000
B1422186019471N01641423EA0103101077000552000000
B1422246019413N01641600EA0105701105000552000000
B1422306019333N01641660EA0106501117000592000000
B1422366019319N01641537EA0106701113000644000000
B1422426019400N01641470EA0108401131000660000000
B1422486019463N01641615EA0109101144000672000000
B1422546019413N01641752EA0109801151000680000000
B1423006019381N01641654EA0110301150000680000000
B1423066019462N01641609EA0111101160000688000000
B1423126019507N01641795EA0111801169000672000000
B1423186019481N01641999EA0112701177000644000000
B1423246019442N01642199EA0112901173000640000000
B1423306019398N01642414EA0113001182000620000000
B1423366019354N01642638EA0112401169000576000000
B1423426019311N01642883EA0111901158000568000000
B1423486019264N01643136EA0110801152000556000000
B1423546019218N01643394EA0109901145000548000000
B1424006019173N01643651EA0109801142000536000000
B1424066019129N01643911EA0108401129000536000000
B1424126019082N01644169EA0107401112000540000000
B1424186019036N01644429EA0106101110000552000000
B1424246019002N01644686EA0105701106000552000000
B1424306018968N01644936EA0105901100000556000000
B1424366018925N01645175EA0105401098000552000000
B1424426018873N01645411EA0103901077000556000000
B1424486018813N01645645EA0103601086000568000000
B1424546018753N01645877EA0104301096000584000000
B1425006018701N01646094EA0105901096000584000000
B1425066018644N01646330EA0103701082000576000000
B1425126018583N01646571EA0103101075000568000000
B1425186018519N01646813EA0102101062000564000000
B1425246018454N01647061EA0100901044000564000000
B1425306018392N01647308EA0100501064000568000000
B1425366018336N01647533EA0100901047000568000000
B1425426018269N01647781EA0098801027000560000000
B1425486018198N01648030EA0098601031000560000000
B1425546018141N01648270EA0099001032000552000000
B1426006018089N01648505EA0099501059000556000000
B1426066018051N01648681EA0104301087000552000000
B1426126017985N01648665EA0104801100000632000000
B1426186018024N01648531EA0104801099000680000000
B1426246018122N01648595EA0106801120000656000000
B1426306018168N01648777EA0107701127000644000000
B1426366018123N01648893EA0108501137000644000000
B1426426018107N01648782EA0109601151000652000000
B1426486018194N01648755EA0110801157000680000000
B1426546018246N01648936EA0111101167000656000000
B1427006018189N01649038EA0111601170000644000000
B1427066018168N01648927EA0113301189000640000000
B1427126018254N01648894EA0114201195000660000000
B1427186018304N01649072EA0114701201000672000000
B1427246018249N01649174EA0115501208000676000000
B1427306018223N01649058EA0115901212000680000000
B1427366018306N01648995EA0116601221000696000000
B1427426018382N01649158EA0117301228000684000000
B1427486018382N01649357EA0118601243000660000000
B1427546018323N01649352EA0119201245000660000000
B1428006018366N01649219EA0119901253000668000000
B1428066018469N01649265EA0121101263000652000000
B1428126018486N01649467EA0121601272000644000000
B1428186018418N01649523EA0122201277000672000000
B1428246018401N01649380EA0122201279000708000000
B1428306018483N01649298EA0123601296000692000000
B1428366018578N01649411EA0123801297000668000000
B1428426018604N01649623EA0125001305000676000000
B1428486018555N01649787EA0125301309000684000000
B1428546018486N01649918EA0125601317000676000000
B1429006018419N01650029EA0127201325000604000000
B1429066018347N01650159EA0126901321000572000000
B1429126018276N01650302EA0128001337000556000000
B1429186018209N01650446EA0129001343000552000000
B1429246018129N01650602EA0126801314000544000000
B1429306018037N01650779EA0125301303000544000000
B1429366017944N01650955EA0124801300000548000000
B1429426017847N01651121EA0124501297000548000000
B1429486017747N01651283EA0124701302000552000000
B1429546017655N01651442EA0125601308000548000000
B1430006017560N01651598EA0124801299000544000000
B1430066017461N01651749EA0123901285000548000000
B1430126017356N01651894EA0122801272000548000000
B1430186017244N01652022EA0121301262000548000000
B1430246017136N01652121EA0123601298000548000000
B1430306017047N01652225EA0124501297000548000000
B1430366016952N01652353EA0122801276000552000000
B1430426016855N01652517EA0122201274000548000000
B1430486016757N01652677EA0122201277000564000000
B1430546016649N01652750EA0122701273000568000000
B1431006016534N01652765EA0120001240000556000000
B1431066016413N01652759EA0118001235000552000000
B1431126016303N01652734EA0117501226000552000000
B1431186016190N01652712EA0116301208000544000000
B1431246016075N01652637EA0114501196000548000000
B1431306015986N01652495EA0114001196000556000000
B1431366015922N01652331EA0115201213000576000000
B1431426015871N01652175EA0116701221000556000000
B1431486015826N01652009EA0116601212000548000000
B1431546015779N01651831EA0115501203000544000000
B1432006015728N01651655EA0115101203000544000000
B1432066015671N01651486EA0114001188000536000000
B1432126015606N01651321EA0113201182000540000000
B1432186015529N01651189EA0113101176000540000000
B1432246015436N01651100EA0112201179000552000000
B1432306015333N01651117EA0112901176000544000000
B1432366015232N01651250EA0111601166000544000000
B1432426015138N01651407EA0111601168000552000000
B1432486015041N01651559EA0110301149000544000000
B1432546014926N01651672EA0109201140000536000000
B1433006014809N01651702EA0108801137000548000000
B1433066014692N01651702EA0107301122000536000000
B1433126014578N01651698EA0106601107000544000000
B1433186014454N01651685EA0104301098000544000000
B1433246014335N01651681EA0104501098000548000000
B1433306014220N01651709EA0105401105000544000000
B1433366014103N01651775EA0104201091000544000000
B1433426013989N01651883EA0102901072000544000000
B1433486013872N01652000EA0101701072000548000000
B1433546013763N01652112EA0102201070000552000000
B1434006013652N01652234EA0100601057000548000000
B1434066013543N01652356EA0100301052000552000000
B1434126013431N01652479EA0099401042000560000000
B1434186013318N01652596EA0099501053000564000000
B1434246013218N01652678EA0101101068000560000000
B1434306013119N01652729EA0100901047000556000000
B1434366013004N01652777EA0098601041000556000000
B1434426012888N01652829EA0098201026000556000000
B1434486012767N01652882EA0097801027000556000000
B1434546012653N01652946EA0098401037000560000000
B1435006012541N01653012EA0098301036000568000000
B1435066012426N01653074EA0097401017000560000000
B1435126012307N01653127EA0096301012000552000000
B1435186012183N01653172EA0095100997000540000000
B1435246012084N01653207EA0098001044000576000000
B1435306012031N01653131EA0099701049000620000000
B1435366012077N01653027EA0099901052000664000000
B1435426012166N01653140EA0099701046000672000000
B1435486012166N01653370EA0100201052000664000000
B1435546012114N01653571EA0099701042000652000000
B1436006012035N01653739EA0099201038000600000000
B1436066011936N01653869EA0098401026000572000000
B1436126011822N01653964EA0097201020000564000000
B1436186011707N01654032EA0096901003000556000000
B1436246011583N01654069EA0093300977000552000000
B1436306011457N01654076EA0091700960000544000000
B1436366011328N01654063EA0089900948000548000000
B1436426011210N01654042EA0090800956000552000000
B1436486011096N01654003EA0090100949000564000000
B1436546010986N01653961EA0089300938000560000000
B1437006010872N01653919EA0088300932000564000000
B1437066010766N01653886EA0090000952000560000000
B1437126010673N01653863EA0090400949000552000000
B1437186010582N01653820EA0089600947000560000000
B1437246010497N01653757EA0090100937000568000000
B1437306010409N01653659EA0088200929000592000000
B1437366010345N01653582EA0092100977000560000000
B1437426010352N01653453EA0092400967000584000000
B1437486010329N01653336EA0091800966000636015000
B1437546010244N01653340EA0090900961000596000000
B1438006010151N01653397EA0090200948000588000000
B1438066010056N01653540EA0088900931000572000000
B1438126009962N01653721EA0087300913000568000000
B1438186009859N01653885EA0085800911000564000000
B1438246009769N01654056EA0086300905000564000000
B1438306009672N01654234EA0083400874000560000000
B1438366009587N01654446EA0083200877000556000000
B1438426009534N01654705EA0082800874000564000000
B1438486009514N01654998EA0081900859000564000000
B1438546009507N01655293EA0081400859000588015000
B1439006009449N01655533EA0081000851000604015000
B1439066009349N01655680EA0079200837000600000000
B1439126009241N01655763EA0079200831000576000000
B1439186009132N01655843EA0078200823000572000000
B1439246009022N01655910EA0077500815000576000000
B1439306008914N01655979EA0077100814000568000000
B1439366008808N01656054EA0076700807000568000000
B1439426008702N01656143EA0075400794000568000000
B1439486008593N01656233EA0074200782000568000000
B1439546008482N01656303EA0074100778000556000000
B1440006008378N01656376EA0073500775000556000000
B1440066008270N01656435EA0072000756000568000000
B1440126008152N01656490EA0070100739000572000000
B1440186008032N01656537EA0069200732000564000000
B1440246007915N01656585EA0068700732000560000000
