ACAM3X6
HFDTE060506
HFFXA050
HFPLTPILOT:Peter Cutting           
HFGTYGLIDERTYPE:LS8-b       
HFGIDGLIDERID:SE-USP      
HFDTM100GPSDATUM:
HFRFWFIRMWAREVERSION:F2.6
HFRHWHARDWAREVERSION:300 Series Version 2
HFFTYFRTYPE:CAMBRIDGE AERO INSTRUMENTS, 302+
HFGPS:GARMIN,LVS-25,12,18000
HFPRSPRESSALTSENSOR:INTERSEMA, MS5534-AP, 20000
I033638FXA3941ENL4247REX
LCAMSBVER:5FWVER:F26300
C170905101739170905000101
C0000000N00000000WTAKEOFF     
C5535900N01340483ESoevde Fpl  
C5657250N01355580EFeringe flp 
C5535900N01340483ESoevde Fpl  
C0000000N00000000WLANDING     
B1254445536058N01339999EA-010700034000060000000
B1254465536058N01339999EA-010700034000060000000
B1254485536058N01339998EA-010600035000056000000
B1254505536058N01339998EA-010600034000056000000
B1254525536058N01339998EA-010700034000056000000
B1254545536058N01339998EA-010700034000068000000
B1254565536058N01339998EA-010700034000068000000
B1254585536058N01339998EA-010700034000064000000
B1255005536058N01339998EA-010700034000060000000
B1255025536058N01339998EA-010700034000068000000
B1255045536058N01339999EA-010600034000076000000
B1255065536057N01340000EA-010600034000096000000
B1255085536057N01340003EA-010700034000104000000
B1255105536054N01340009EA-010700034000256000000
B1255125536052N01340017EA-010700035000392000000
B1255135536049N01340022EA-010600035000600000000
B1255175536039N01340050EA-010600035000916000000
B1255215536022N01340086EA-010600035000996000000
B1255255536001N01340134EA-010600036000996000000
B1255295535974N01340193EA-010400036000940000000
B1255335535941N01340261EA-010300038000732000000
B1255375535906N01340334EA-009700050000536000000
B1255415535868N01340410EA-009100054000404000000
B1255455535837N01340493EA-008000068000292000000
B1255495535812N01340581EA-007100077000244000000
B1255535535797N01340677EA-005900087000212000000
B1255575535795N01340778EA-004700099000208000000
B1256015535810N01340872EA-003700112000208000000
B1256055535829N01340961EA-002300126000196000000
B1256095535854N01341049EA-000900139000184000000
B1256135535879N01341138EA0000200152000176000000
B1256175535907N01341222EA0001600165000180000000
B1256215535940N01341303EA0002800177000168000000
B1256255535980N01341373EA0003700187000168000000
B1256295536024N01341437EA0005100201000176000000
B1256335536068N01341495EA0005900211000116000000
B1256375536111N01341555EA0007100220000080000000
B1256415536152N01341616EA0007600227000064000000
B1256455536191N01341671EA0008500234000052000000
B1256495536227N01341723EA0009500246000044000000
B1256535536266N01341772EA0010400255000040000000
B1256575536302N01341823EA0011100261000036000000
B1257015536340N01341872EA0011500268000032000000
B1257055536378N01341923EA0012200272000032000000
B1257095536414N01341976EA0012700279000032000000
B1257135536453N01342032EA0013200281000032000000
B1257175536491N01342093EA0013300282000032000000
B1257215536529N01342158EA0013600286000032000000
B1257255536559N01342230EA0014100292000036000000
B1257295536572N01342312EA0014900299000032000000
B1257335536568N01342393EA0015500309000040000000
B1257375536551N01342470EA0016600320000040000000
B1257415536520N01342539EA0017600329000036000000
B1257455536474N01342598EA0018300332000036000000
B1257495536418N01342646EA0018800341000036000000
B1257535536357N01342683EA0019500350000032000000
B1257575536292N01342708EA0020500360000032000000
B1258015536224N01342729EA0021300369000032000000
B1258055536157N01342750EA0022300374000028000000
B1258095536091N01342772EA0023000383000032000000
B1258135536026N01342796EA0023700388000032000000
B1258175535961N01342821EA0024400394000032000000
B1258215535898N01342854EA0024900404000032000000
B1258255535838N01342899EA0025600410000036000000
B1258295535782N01342946EA0026900422000036000000
B1258335535743N01343010EA0028300439000032000000
B1258375535738N01343085EA0029600443000032000000
B1258415535766N01343146EA0029800449000032000000
B1258455535811N01343171EA0031100465000036000000
B1258495535871N01343144EA0032600477000036000000
B1258535535933N01343069EA0032400473000036000000
B1258575535985N01342950EA0032900478000032000000
B1259015536018N01342795EA0033400484000032000000
B1259055536020N01342624EA0033800490000032000000
B1259095535996N01342460EA0034200498000032000000
B1259135535944N01342330EA0035100506000032000000
B1259175535875N01342250EA0036100517000032000000
B1259215535806N01342218EA0037400529000032000000
B1259255535740N01342215EA0038500543000032000000
B1259295535682N01342241EA0040000556000032000000
B1259335535637N01342289EA0041200569000028000000
B1259375535600N01342351EA0042200585000028000000
B1259415535581N01342423EA0043400595000032000000
B1259455535586N01342503EA0044100605000028000000
B1259495535611N01342574EA0045100613000032000000
B1259535535663N01342586EA0045800616000028000000
B1259575535716N01342496EA0045900613000024000000
B1300015535754N01342367EA0045300606000020000000
B1300055535781N01342223EA0044800602000020000000
B1300095535786N01342070EA0044500600000016000000
B1300135535766N01341927EA0044400598000016000000
B1300175535717N01341831EA0044300598000020000000
B1300215535663N01341794EA0044300597000024000000
B1300255535625N01341816EA0044200594000024000000
B1300295535615N01341866EA0043800591000028000000
B1300335535620N01341928EA0042400562000032000000
B1300375535632N01342022EA0038200514000048000000
B1300415535646N01342137EA0034700504000256000000
B1300455535663N01342205EA0037400550000588000000
B1300495535684N01342245EA0040300555000716000000
B1300535535720N01342269EA0040500559000712000000
B1300575535769N01342261EA0041100562000736000000
B1301015535827N01342206EA0041100563000720000000
B1301055535873N01342098EA0041300566000720000000
B1301095535896N01341951EA0041300565000728000000
B1301135535881N01341799EA0041400568000744000000
B1301175535840N01341675EA0041800571000736000000
B1301215535784N01341581EA0041700571000736000000
B1301255535723N01341509EA0041900574000772000000
B1301295535660N01341454EA0042200579000768000000
B1301335535611N01341460EA0043000589000776000000
B1301375535608N01341515EA0043500586000764000000
B1301415535655N01341542EA0043000582000768000000
B1301455535716N01341489EA0042900584000780015000
B1301495535754N01341368EA0043000586000776000000
B1301535535758N01341220EA0042800583000744000000
B1301575535730N01341080EA0042600581000748000000
B1302015535684N01340954EA0042000577000896000000
B1302055535628N01340845EA0042200581000988000000
B1302095535564N01340767EA0042800585000988000000
B1302135535507N01340770EA0043200594000936015000
B1302175535489N01340827EA0044200599000860000000
B1302215535517N01340880EA0044400600000812000000
B1302255535571N01340883EA0045100608000788000000
B1302295535628N01340832EA0045500612000748000000
B1302335535675N01340728EA0046000615000708000000
B1302375535697N01340588EA0046400621000676000000
B1302415535690N01340441EA0046700622000680000000
B1302455535676N01340290EA0046800626000692000000
B1302495535636N01340167EA0047100629000692000000
B1302535535581N01340099EA0047500633000664000000
B1302575535528N01340090EA0047500632000636000000
B1303015535483N01340116EA0047100627000660000000
B1303055535443N01340156EA0047200628000688000000
B1303095535404N01340198EA0047300631000700000000
B1303135535365N01340238EA0048000637000704000000
B1303175535330N01340280EA0048500648000708000000
B1303215535299N01340320EA0049600654000696000000
B1303255535272N01340363EA0050100657000672000000
B1303295535244N01340404EA0050700662000660000000
B1303335535220N01340442EA0051300668000528000000
B1303375535199N01340471EA0051800672000328000000
B1303415535181N01340499EA0051700667000228000000
B1303455535160N01340534EA0051100664000148000000
B1303495535144N01340573EA0051200663000108000000
B1303535535158N01340614EA0050600658000068000000
B1303575535201N01340623EA0050400657000044000000
B1304015535253N01340576EA0050700662000036000000
B1304055535295N01340475EA0051100662000024000000
B1304095535311N01340336EA0051000661000020000000
B1304135535291N01340200EA0050800658000016000000
B1304175535244N01340104EA0050300653000016000000
B1304215535190N01340070EA0049900651000016000000
B1304255535144N01340090EA0049400645000016000000
B1304295535110N01340134EA0049000641000016000000
B1304335535088N01340196EA0048400630000016000000
B1304375535071N01340278EA0046900615000016000000
B1304415535058N01340372EA0045600608000016000000
B1304455535049N01340467EA0044900604000016000000
B1304495535043N01340562EA0044800601000020000000
B1304535535039N01340655EA0044500598000020000000
B1304575535038N01340749EA0044200596000016000000
B1305015535036N01340843EA0044100594000016000000
B1305055535032N01340934EA0043900593000016000000
B1305095535030N01341025EA0043600588000020000000
B1305135535027N01341117EA0042800579000020000000
B1305175535026N01341208EA0041600564000020000000
B1305215535027N01341300EA0040400552000020000000
B1305255535028N01341398EA0038900542000020000000
B1305295535026N01341487EA0038900541000020000000
B1305335535023N01341576EA0038400536000020000000
B1305375535021N01341664EA0037900531000020000000
B1305415535019N01341758EA0037100516000024000000
B1305455535021N01341854EA0036000514000028000000
B1305495535021N01341949EA0035800508000024000000
B1305535535015N01342050EA0035000497000020000000
B1305575535010N01342158EA0034100491000024000000
B1306015535012N01342262EA0033600490000028000000
B1306055535061N01342301EA0034800498000028000000
B1306095535117N01342214EA0034800498000024000000
B1306135535125N01342066EA0034300491000024000000
B1306175535080N01341945EA0033400482000020000000
B1306215535014N01341901EA0032700476000020000000
B1306255534948N01341907EA0031600464000020000000
B1306295534882N01341940EA0030800453000020000000
B1306335534810N01341944EA0030700459000024000000
B1306375534755N01341858EA0032000474000028000000
B1306415534746N01341729EA0032700469000024000000
B1306455534781N01341628EA0032400471000024000000
B1306495534836N01341580EA0032200466000032000000
B1306535534895N01341564EA0031500461000028000000
B1306575534953N01341555EA0031200458000032000000
B1307015535012N01341556EA0029600432000036000000
B1307055535088N01341564EA0024500383000088000000
B1307095535156N01341572EA0025700423000304000000
B1307135535205N01341573EA0028200430000396000000
B1307175535252N01341585EA0028100429000520000000
B1307215535301N01341600EA0027800427000748000000
B1307255535347N01341632EA0027800431000772000000
B1307295535377N01341691EA0028200436000788000000
B1307335535379N01341767EA0029000448000776000000
B1307375535357N01341840EA0029700449000812000000
B1307415535314N01341892EA0030000455000808000000
B1307455535252N01341884EA0030900464000776000000
B1307495535195N01341801EA0031300465000724000000
B1307535535158N01341664EA0031000458000696000000
B1307575535145N01341502EA0029900450000800000000
B1308015535174N01341351EA0029800454000968000000
B1308055535233N01341264EA0030500461000996000000
B1308095535291N01341247EA0031300469000980000000
B1308135535335N01341288EA0031700470000944000000
B1308175535351N01341363EA0032200479000976000000
B1308215535334N01341435EA0033000485000900000000
B1308255535292N01341489EA0033200485000876000000
B1308295535229N01341490EA0033700496000892000000
B1308335535165N01341430EA0034600503000808000000
B1308375535114N01341316EA0035100504000788000000
B1308415535088N01341170EA0035300506000768000000
B1308455535097N01341019EA0035400512000780000000
B1308495535143N01340910EA0036400520000736000000
B1308535535203N01340863EA0037000526000820000000
B1308575535253N01340872EA0037600531000788000000
B1309015535282N01340924EA0037700529000816000000
B1309055535281N01340996EA0037600529000840000000
B1309095535242N01341049EA0037700534000904000000
B1309135535179N01341040EA0038600547000900000000
B1309175535116N01340965EA0039300548000868000000
B1309215535066N01340833EA0039200548000948000000
B1309255535049N01340672EA0039600557000992000000
B1309295535069N01340516EA0040600566000952000000
B1309335535116N01340391EA0041300575000924000000
B1309375535179N01340324EA0042300580000908000000
B1309415535242N01340311EA0042800587000884000000
B1309455535291N01340336EA0043500592000844000000
B1309495535327N01340389EA0043600591000884000000
B1309535535348N01340456EA0043700594000960000000
B1309575535357N01340528EA0044000598000996000000
B1310015535359N01340597EA0044200605000996000000
B1310055535355N01340658EA0045400612000864000000
B1310095535352N01340720EA0045300610000844000000
B1310135535346N01340781EA0045200614000812000000
B1310175535339N01340839EA0045900622000744000000
B1310215535333N01340896EA0046500625000684000000
B1310255535325N01340956EA0046500627000640000000
B1310295535321N01341021EA0046800629000620000000
B1310335535320N01341084EA0047200637000616000000
B1310375535318N01341145EA0048100645000604000000
B1310415535317N01341205EA0048900650000588000000
B1310455535316N01341266EA0049200654000596000000
B1310495535316N01341327EA0049600658000612000000
B1310535535318N01341386EA0050100664000612000000
B1310575535320N01341442EA0050700669000596000000
B1311015535321N01341496EA0051100673000576000000
B1311055535321N01341551EA0051600680000560000000
B1311095535320N01341607EA0052200686000560000000
B1311135535318N01341664EA0052600687000548000000
B1311175535320N01341720EA0052600689000560000000
B1311215535321N01341775EA0052800692000564000000
B1311255535325N01341828EA0053100697000556000000
B1311295535327N01341880EA0053700701000548000000
B1311335535333N01341936EA0054000704000544000000
B1311375535339N01341993EA0054400710000544000000
B1311415535346N01342049EA0054900714000544000000
B1311455535356N01342106EA0055300717000536000000
B1311495535366N01342159EA0055600720000532000000
B1311535535379N01342211EA0055700722000528000000
B1311575535392N01342263EA0056000726000528000000
B1312015535405N01342315EA0056400728000520000000
B1312055535418N01342370EA0056500730000536000000
B1312095535433N01342425EA0056700731000572000000
B1312135535448N01342479EA0056800734000572000000
B1312175535464N01342530EA0057100736000576000000
B1312215535480N01342582EA0057300738000572000000
B1312255535496N01342637EA0057400739000600000000
B1312295535512N01342694EA0057700742000628000000
B1312335535530N01342750EA0057900746000632000000
B1312375535548N01342804EA0058500750000636000000
B1312415535568N01342860EA0058900754000640000000
B1312455535586N01342917EA0059300757000652000000
B1312495535604N01342973EA0059600761000644000000
B1312535535625N01343029EA0060100765000632000000
B1312575535649N01343084EA0060400768000616000000
B1313015535673N01343134EA0060700771000604000000
B1313055535701N01343183EA0060900772000524000000
B1313095535727N01343224EA0061100769000360000000
B1313135535750N01343264EA0060500761000252000000
B1313175535777N01343302EA0060000754000156000000
B1313215535802N01343342EA0059300748000108000000
B1313255535828N01343385EA0058400737000080000000
B1313295535859N01343428EA0057200729000056000000
B1313335535906N01343452EA0056600723000044000000
B1313375535957N01343472EA0056200717000032000000
B1313415536006N01343496EA0055600711000024000000
B1313455536054N01343523EA0054900705000020000000
B1313495536104N01343553EA0054200699000016000000
B1313535536153N01343586EA0054000696000016015000
B1313575536202N01343619EA0053400690000012015000
B1314015536254N01343658EA0052600681000012000000
B1314055536308N01343696EA0052000676000012000000
B1314095536361N01343731EA0051900672000012015000
B1314135536414N01343765EA0051300667000012015000
B1314175536469N01343801EA0050700660000016000000
B1314215536525N01343836EA0050100655000016000000
B1314255536581N01343874EA0049300648000016015000
B1314295536633N01343908EA0048900646000016015000
B1314335536681N01343943EA0048600640000016000000
B1314375536721N01343986EA0047800632000016000000
B1314415536754N01344035EA0047200626000016000000
B1314455536774N01344089EA0046900620000016000000
B1314495536768N01344146EA0046200611000016000000
B1314535536726N01344174EA0045300604000016000000
B1314575536669N01344147EA0044700599000012000000
B1315015536612N01344065EA0044300592000012000000
B1315055536559N01343956EA0043600585000012000000
B1315095536509N01343835EA0043200582000020000000
B1315135536470N01343697EA0043100582000016000000
B1315175536445N01343543EA0043000582000016015000
B1315215536439N01343381EA0043100582000012000000
B1315255536445N01343223EA0043000580000012000000
B1315295536462N01343071EA0042600573000012000000
B1315335536484N01342924EA0042100568000012000000
B1315375536508N01342781EA0041800565000012000000
B1315415536531N01342638EA0041600562000008000000
B1315455536556N01342496EA0041100555000012000000
B1315495536579N01342352EA0040500551000012000000
B1315535536603N01342208EA0040100549000012000000
B1315575536630N01342065EA0040000548000012000000
B1316015536659N01341924EA0040000548000012000000
B1316055536690N01341782EA0039700544000012000000
B1316095536720N01341638EA0039400541000012000000
B1316135536747N01341493EA0039200539000008000000
B1316175536776N01341351EA0039000536000008000000
B1316215536803N01341207EA0038500531000008000000
B1316255536826N01341058EA0038200528000012000000
B1316295536832N01340905EA0038100528000008000000
B1316335536815N01340759EA0038200528000012000000
B1316375536781N01340627EA0038200525000008000000
B1316415536746N01340492EA0037700519000008000000
B1316455536708N01340356EA0037200515000008000000
B1316495536674N01340217EA0037000516000008000000
B1316535536639N01340085EA0037600522000012000000
B1316575536587N01340009EA0038100525000012015000
B1317015536561N01340048EA0038200527000016015000
B1317055536598N01340066EA0038500532000012000000
B1317095536653N01340030EA0038500529000012015000
B1317135536700N01339926EA0038300529000012000000
B1317175536704N01339783EA0038600533000012000000
B1317215536660N01339675EA0038600532000012000000
B1317255536601N01339661EA0038500535000012000000
B1317295536581N01339714EA0038900539000012000000
B1317335536612N01339748EA0038900536000012000000
B1317375536665N01339680EA0039300544000016000000
B1317415536683N01339545EA0039600541000012000000
B1317455536647N01339426EA0039400543000012000000
B1317495536591N01339400EA0039600543000012000000
B1317535536564N01339452EA0039300542000016000000
B1317575536585N01339506EA0039300543000016000000
B1318015536637N01339492EA0039800548000016015000
B1318055536679N01339389EA0040300550000012000000
B1318095536678N01339247EA0040200550000012000000
B1318135536633N01339153EA0040200548000012000000
B1318175536579N01339142EA0039700541000016000000
B1318215536539N01339179EA0039100538000016000000
B1318255536534N01339240EA0039000540000016015000
B1318295536575N01339271EA0039200541000016000000
B1318335536631N01339201EA0039300540000012015000
B1318375536629N01339055EA0039200544000016000000
B1318415536575N01339017EA0039500543000016015000
B1318455536553N01339072EA0039200546000016015000
B1318495536590N01339097EA0039800549000016015000
B1318535536631N01338991EA0039800548000016015000
B1318575536608N01338861EA0039700549000012000000
B1319015536556N01338828EA0040000550000012015000
B1319055536538N01338874EA0039700545000012015000
B1319095536581N01338898EA0039600548000012015000
B1319135536634N01338815EA0039900549000012015000
B1319175536635N01338675EA0040400554000012015000
B1319215536591N01338583EA0040400552000012015000
B1319255536540N01338566EA0040000555000012000000
B1319295536512N01338607EA0040000556000012000000
B1319335536522N01338652EA0040400559000012015000
B1319375536574N01338616EA0040300553000012015000
B1319415536594N01338480EA0039800553000008015000
B1319455536555N01338378EA0040400559000008000000
B1319495536508N01338366EA0040600554000008000000
B1319535536477N01338402EA0040200554000008015000
B1319575536451N01338448EA0039800553000008015000
B1320015536429N01338496EA0039800551000008000000
B1320055536408N01338548EA0039500547000012000000
B1320095536390N01338607EA0039000538000012000000
B1320135536369N01338672EA0038300532000016015000
B1320175536347N01338739EA0037800537000012000000
B1320215536325N01338800EA0038400537000012000000
B1320255536304N01338857EA0038500537000012000000
B1320295536284N01338915EA0038300532000012015000
B1320335536266N01338976EA0037800528000016000000
B1320375536248N01339038EA0037400526000016000000
B1320415536227N01339099EA0037200523000016000000
B1320455536205N01339160EA0037100524000016015000
B1320495536185N01339220EA0037100522000016015000
B1320535536163N01339277EA0037000520000016015000
B1320575536135N01339332EA0036800519000016015000
B1321015536102N01339385EA0036600514000016000000
B1321055536065N01339435EA0036200512000016000000
B1321095536024N01339484EA0035700505000016000000
B1321135535987N01339539EA0035100500000016000000
B1321175535948N01339595EA0034500492000016000000
B1321215535907N01339652EA0033500483000016000000
B1321255535868N01339710EA0033000480000016000000
B1321295535829N01339769EA0032600479000016000000
B1321335535790N01339821EA0032500479000016000000
B1321375535747N01339869EA0032500475000016000000
B1321415535704N01339917EA0032100474000016000000
B1321455535663N01339959EA0032400479000016000000
B1321495535620N01339999EA0032500480000016000000
B1321535535585N01340050EA0032300476000016000000
B1321575535554N01340108EA0031500471000016000000
B1322015535526N01340163EA0031900473000016015000
B1322055535498N01340216EA0031700470000016015000
B1322095535470N01340269EA0031400465000016000000
B1322135535443N01340325EA0030500453000016000000
B1322175535431N01340394EA0029300443000016000000
B1322215535465N01340442EA0028800438000016000000
B1322255535524N01340416EA0028200431000024000000
B1322295535568N01340311EA0028000428000028000000
B1322335535607N01340190EA0026800412000032000000
B1322375535655N01340053EA0023900372000040000000
B1322415535715N01339907EA0020200370000180000000
B1322455535760N01339786EA0022900389000364000000
B1322495535806N01339660EA0022200364000280000000
B1322535535862N01339515EA0018500331000268000000
B1322575535922N01339368EA0017300346000332000000
B1323015535971N01339254EA0020300370000468000000
B1323055536020N01339167EA0021300371000488000000
B1323095536076N01339138EA0020500355000652000000
B1323135536124N01339177EA0019000350000868000000
B1323175536150N01339246EA0019100352000916000000
B1323215536152N01339324EA0019700361000968000000
B1323255536131N01339392EA0020800374000948000000
B1323295536093N01339445EA0021500374000884000000
B1323335536053N01339492EA0021800382000812000000
B1323375536013N01339533EA0022500390000772000000
B1323415535975N01339572EA0023500399000748000000
B1323455535940N01339614EA0024100404000720000000
B1323495535906N01339657EA0024800411000704000000
B1323535535873N01339700EA0025700420000724000000
B1323575535845N01339739EA0026600426000668015000
B1324015535818N01339777EA0026900427000628000000
B1324055535789N01339813EA0027300431000660015000
B1324095535760N01339848EA0027100424000684015000
B1324135535727N01339888EA0026600425000676000000
B1324175535695N01339929EA0027600438000672000000
B1324215535665N01339972EA0028400441000676000000
B1324255535638N01340021EA0028700447000636000000
B1324295535611N01340070EA0029100451000644000000
B1324335535587N01340116EA0030000461000636000000
B1324375535564N01340159EA0030300462000604015000
B1324415535542N01340204EA0030500464000600015000
B1324455535524N01340250EA0030900468000632015000
B1324495535506N01340297EA0030900463000652000000
B1324535535489N01340350EA0030700465000624015000
B1324575535470N01340404EA0031100476000620015000
B1325015535456N01340458EA0032100477000640015000
B1325055535443N01340515EA0032300481000616015000
B1325095535431N01340571EA0032800484000604015000
B1325135535418N01340625EA0033100490000608015000
B1325175535403N01340676EA0033500493000624015000
B1325215535389N01340726EA0034100500000620015000
B1325255535374N01340772EA0034900506000636015000
B1325295535363N01340818EA0035500512000604015000
B1325335535351N01340865EA0036100520000608015000
B1325375535339N01340913EA0036800526000584015000
B1325415535329N01340961EA0037500533000552015000
B1325455535320N01341008EA0038300538000548015000
B1325495535314N01341057EA0038700540000560015000
B1325535535309N01341108EA0038900545000564000000
B1325575535308N01341157EA0039600554000536000000
B1326015535308N01341207EA0040500564000532000000
B1326055535312N01341257EA0041700575000524000000
B1326095535314N01341307EA0042700583000524000000
B1326135535318N01341360EA0043200586000544000000
B1326175535322N01341415EA0043600590000572000000
B1326215535326N01341468EA0044000594000580000000
B1326255535331N01341517EA0044400599000552000000
B1326295535337N01341569EA0044700600000564000000
B1326335535338N01341621EA0045000604000564000000
B1326375535334N01341675EA0045300608000548000000
B1326415535325N01341729EA0045600611000516000000
B1326455535314N01341781EA0046100615000512000000
B1326495535304N01341833EA0046400618000516000000
B1326535535298N01341883EA0046500619000520000000
B1326575535290N01341932EA0046600619000520000000
B1327015535281N01341980EA0046900624000528000000
B1327055535270N01342027EA0047300629000524000000
B1327095535260N01342072EA0048000634000508000000
B1327135535251N01342122EA0048400638000496000000
B1327175535243N01342174EA0048600640000492000000
B1327215535238N01342227EA0048700643000504000000
B1327255535233N01342280EA0049200646000512000000
B1327295535225N01342332EA0049500651000516000000
B1327335535216N01342386EA0049900657000528000000
B1327375535207N01342438EA0050600663000528000000
B1327415535195N01342491EA0051100668000544000000
B1327455535182N01342546EA0051500673000548000000
B1327495535169N01342599EA0052200679000528000000
B1327535535156N01342652EA0052700683000528000000
B1327575535140N01342707EA0053100688000532000000
B1328015535127N01342761EA0053600690000528000000
B1328055535114N01342816EA0053800691000520000000
B1328095535103N01342871EA0053900693000516000000
B1328135535092N01342926EA0053900692000508000000
B1328175535084N01342985EA0053800693000520000000
B1328215535075N01343040EA0054100695000516000000
B1328255535064N01343095EA0054200693000528000000
B1328295535051N01343153EA0054000694000580000000
B1328335535039N01343210EA0054300695000564000000
B1328375535028N01343268EA0054300696000584000000
B1328415535018N01343327EA0054300696000576000000
B1328455535009N01343387EA0054300697000584000000
B1328495535000N01343444EA0054400697000580000000
B1328535534995N01343501EA0054300695000580000000
B1328575534989N01343558EA0054000691000580000000
B1329015534983N01343613EA0053700690000608000000
B1329055534976N01343666EA0053600689000600000000
B1329095534969N01343719EA0053500688000600000000
B1329135534963N01343775EA0053600687000592000000
B1329175534956N01343833EA0053300684000576000000
B1329215534948N01343894EA0052800678000572000000
B1329255534940N01343960EA0051900663000608000000
B1329295534931N01344033EA0050400654000684000000
B1329335534924N01344109EA0050000653000752000000
B1329375534922N01344190EA0049600648000860000000
B1329415534923N01344272EA0049300648000996000000
B1329455534928N01344347EA0049500651000940000000
B1329495534936N01344423EA0049600651000900000000
B1329535534944N01344493EA0049900652000860000000
B1329575534950N01344558EA0049700648000820000000
B1330015534954N01344618EA0049700653000788000000
B1330055534957N01344678EA0050300658000748000000
B1330095534961N01344737EA0050500659000632000000
B1330135534970N01344782EA0051000666000464000000
B1330175534982N01344819EA0051100656000284000000
B1330215534993N01344865EA0050000647000176000000
B1330255535008N01344913EA0049500647000120000000
B1330295535035N01344954EA0049000636000076000000
B1330335535087N01344958EA0048200633000056000000
B1330375535140N01344880EA0048100632000036000000
B1330415535158N01344746EA0047700626000028000000
B1330455535131N01344622EA0046900618000020000000
B1330495535080N01344536EA0046100605000020000000
B1330535535019N01344472EA0044700592000016000000
B1330575534956N01344429EA0043600589000016000000
B1331015534897N01344402EA0043900591000016000000
B1331055534840N01344381EA0043500580000016000000
B1331095534781N01344359EA0042700576000020000000
B1331135534728N01344356EA0042600580000016000000
B1331175534705N01344395EA0042800578000012000000
B1331215534714N01344446EA0042300572000016000000
B1331255534746N01344483EA0041800566000016000000
B1331295534791N01344498EA0041100561000016000000
B1331335534844N01344483EA0040800561000016000000
B1331375534896N01344428EA0040800557000020000000
B1331415534943N01344333EA0040100550000016000000
B1331455534978N01344217EA0039600548000020000000
B1331495535008N01344098EA0039300539000024000000
B1331535535038N01343972EA0038300530000020000000
B1331575535054N01343836EA0037800526000020000000
B1332015535041N01343701EA0036500513000020000000
B1332055535004N01343591EA0035800506000020000000
B1332095534962N01343484EA0035100495000020000000
B1332135534926N01343363EA0034100493000016000000
B1332175534893N01343237EA0033900489000016000000
B1332215534863N01343108EA0033200476000016000000
B1332255534849N01342968EA0031700463000016000000
B1332295534871N01342835EA0030700453000016000000
B1332335534914N01342725EA0029700444000016000000
B1332375534963N01342621EA0029000439000016000000
B1332415535015N01342520EA0028500433000016000000
B1332455535069N01342414EA0027700420000016000000
B1332495535130N01342304EA0026100415000020000000
B1332535535160N01342175EA0027600434000020000000
B1332575535125N01342066EA0028200420000020000000
B1333015535069N01342068EA0026900419000020000000
B1333055535070N01342126EA0026800415000020000000
B1333095535121N01342128EA0026600415000020000000
B1333135535174N01342054EA0026600412000016000000
B1333175535226N01341961EA0025600402000016000000
B1333215535282N01341871EA0025100401000016000000
B1333255535339N01341789EA0024800398000016000000
B1333295535395N01341701EA0024200389000020000000
B1333335535452N01341608EA0023400380000024000000
B1333375535508N01341516EA0023100381000032000000
B1333415535560N01341424EA0023000376000032000000
B1333455535616N01341321EA0021000336000040000000
B1333495535691N01341204EA0016100291000096000000
B1333535535760N01341105EA0015400339000424000000
B1333575535812N01341025EA0020000346000528000000
B1334015535866N01340940EA0019300342000772000000
B1334055535916N01340858EA0019700350000792000000
B1334095535964N01340783EA0020500354000752000000
B1334135536018N01340735EA0020400351000724000000
B1334175536067N01340732EA0020200355000784000000
B1334215536104N01340757EA0020500353000776000000
B1334255536128N01340801EA0020500354000736000000
B1334295536132N01340858EA0021000363000712000000
B1334335536110N01340909EA0021800369000700000000
B1334375536066N01340924EA0022200372000724000000
B1334415536005N01340900EA0022100368000692000000
B1334455535951N01340817EA0022100376000696000000
B1334495535925N01340690EA0022900380000664000000
B1334535535937N01340558EA0023100381000636000000
B1334575535979N01340464EA0023100376000640000000
B1335015536031N01340420EA0022700377000668000000
B1335055536080N01340415EA0022600375000652000000
B1335095536127N01340424EA0023000383000656000000
B1335135536170N01340441EA0023700390000668000000
B1335175536217N01340469EA0024000392000684000000
B1335215536263N01340503EA0024700404000700000000
B1335255536312N01340538EA0025600410000688000000
B1335295536358N01340576EA0026300420000684000000
B1335335536405N01340614EA0027300428000688000000
B1335375536449N01340651EA0028000431000668000000
B1335415536488N01340698EA0028500438000680000000
B1335455536523N01340746EA0029300447000704000000
B1335495536553N01340796EA0030200455000688000000
B1335535536579N01340848EA0030600458000688000000
B1335575536594N01340908EA0030800462000688000000
B1336015536588N01340970EA0031200466000668000000
B1336055536565N01341028EA0031700473000644000000
B1336095536523N01341070EA0032300480000668000000
B1336135536469N01341074EA0033000487000708000000
B1336175536413N01341021EA0033900492000692000000
B1336215536366N01340918EA0034000494000724000000
B1336255536345N01340781EA0034400499000700000000
B1336295536353N01340637EA0034800502000688000000
B1336335536386N01340515EA0035300510000676000000
B1336375536438N01340433EA0035800508000632000000
B1336415536497N01340386EA0035600508000636000000
B1336455536555N01340363EA0036000517000624000000
B1336495536611N01340354EA0036400513000640000000
B1336535536666N01340359EA0036300520000704000000
B1336575536718N01340377EA0037100523000652000000
B1337015536770N01340399EA0036900520000648000000
B1337055536824N01340424EA0036800517000652000000
B1337095536876N01340449EA0036400515000696000000
B1337135536928N01340476EA0036400516000716000000
B1337175536981N01340503EA0036400519000748000000
B1337215537034N01340527EA0037100527000756000000
B1337255537088N01340549EA0038000534000740000000
B1337295537144N01340572EA0038600540000744000000
B1337335537201N01340596EA0039200547000732000000
B1337375537257N01340623EA0039800551000716000000
B1337415537310N01340653EA0040300556000736000000
B1337455537358N01340683EA0040600561000740000000
B1337495537404N01340710EA0041200564000676000000
B1337535537448N01340737EA0041500565000628000000
B1337575537491N01340763EA0041800570000608000000
B1338015537532N01340791EA0042100573000596000000
B1338055537574N01340817EA0042500577000580000000
B1338095537615N01340843EA0042900583000568000000
B1338135537648N01340880EA0043500588000568000000
B1338175537656N01340934EA0043800591000568000000
B1338215537632N01340976EA0044000595000552000000
B1338255537589N01340987EA0044400597000540000000
B1338295537537N01340973EA0044500597000528000000
B1338335537484N01340952EA0044600600000508000000
B1338375537433N01340932EA0045100604000516000000
B1338415537384N01340915EA0045300604000536000000
B1338455537333N01340900EA0045300607000540000000
B1338495537283N01340884EA0045700610000532000000
B1338535537229N01340869EA0045700610000532000000
B1338575537175N01340849EA0045700614000548000000
B1339015537119N01340833EA0046200619000548000000
B1339055537066N01340823EA0046800624000560000000
B1339095537014N01340814EA0047200627000568000000
B1339135536962N01340806EA0047600629000580000000
B1339175536911N01340798EA0047700630000580000000
B1339215536859N01340792EA0047700632000576000000
B1339255536807N01340787EA0047900631000592000000
B1339295536757N01340784EA0048000634000604000000
B1339335536707N01340783EA0048400639000596000000
B1339375536656N01340780EA0048900646000596000000
B1339415536605N01340775EA0049900657000596000000
B1339455536555N01340767EA0051000668000600000000
B1339495536517N01340785EA0052300679000616000000
B1339535536523N01340831EA0053300685000600000000
B1339575536569N01340845EA0053800690000592000000
B1340015536627N01340814EA0054500699000596000000
B1340055536678N01340723EA0055300708000608000000
B1340095536696N01340585EA0056000714000620000000
B1340135536672N01340456EA0056600720000612000000
B1340175536625N01340393EA0057200726000600000000
B1340215536581N01340393EA0057700731000596000000
B1340255536556N01340432EA0058400738000596000000
B1340295536559N01340484EA0059200745000604000000
B1340335536585N01340523EA0060000754000608000000
B1340375536633N01340528EA0060900762000604000000
B1340415536689N01340476EA0061400768000608000000
B1340455536733N01340367EA0061800773000608000000
B1340495536742N01340224EA0062200778000592000000
B1340535536711N01340103EA0062700781000564000000
B1340575536659N01340055EA0063000783000536000000
B1341015536622N01340082EA0063200787000556000000
B1341055536618N01340138EA0063700793000604000000
B1341095536640N01340191EA0064400800000624000000
B1341135536679N01340229EA0065100806000640000000
B1341175536738N01340216EA0065600811000628000000
B1341215536786N01340108EA0065900815000640000000
B1341255536772N01339965EA0066100814000680000000
B1341295536716N01339923EA0065900817000748000000
B1341335536702N01339975EA0066700824000716000000
B1341375536726N01340029EA0067400829000696000000
B1341415536782N01340021EA0067900835000688000000
B1341455536828N01339914EA0068300837000692000000
B1341495536817N01339773EA0068100835000664000000
B1341535536765N01339713EA0067900832000536000000
B1341575536742N01339748EA0067900831000336000000
B1342015536747N01339796EA0067700828000268000000
B1342055536760N01339842EA0067200825000168000000
B1342095536783N01339882EA0066800819000116000000
B1342135536833N01339882EA0066000810000084000000
B1342175536885N01339795EA0065200804000056000000
B1342215536898N01339658EA0065000802000044000000
B1342255536873N01339530EA0064800797000036000000
B1342295536832N01339427EA0064200792000028000000
B1342335536781N01339358EA0063600787000024000000
B1342375536733N01339344EA0063300786000028000000
B1342415536705N01339375EA0063000782000024000000
B1342455536698N01339426EA0062800777000020000000
B1342495536696N01339481EA0062100774000020000000
B1342535536694N01339536EA0061800772000020000000
B1342575536695N01339585EA0061700770000016000000
B1343015536702N01339631EA0061300763000028000000
B1343055536709N01339678EA0060700759000024000000
B1343095536721N01339723EA0060600756000020000000
B1343135536731N01339770EA0060200751000016000000
B1343175536742N01339818EA0059800747000016000000
B1343215536752N01339866EA0059300741000016000000
B1343255536764N01339917EA0058700735000016000000
B1343295536777N01339965EA0058100729000016000000
B1343335536791N01340011EA0057500721000012000000
B1343375536807N01340056EA0056500711000012000000
B1343415536815N01340108EA0055400702000012000000
B1343455536806N01340159EA0054500695000012000000
B1343495536768N01340174EA0054100689000012000000
B1343535536718N01340122EA0053600683000012000000
B1343575536681N01340011EA0052800677000012000000
B1344015536655N01339881EA0052500673000012000000
B1344055536626N01339752EA0052100670000012000000
B1344095536595N01339621EA0051400666000012000000
B1344135536570N01339478EA0051300666000012000000
B1344175536548N01339333EA0051200664000012000000
B1344215536525N01339188EA0050900661000012000000
B1344255536505N01339041EA0050700661000016000000
B1344295536490N01338890EA0050600660000016000000
B1344335536479N01338740EA0050700661000012000000
B1344375536481N01338591EA0050700661000012000000
B1344415536500N01338445EA0050800664000012000000
B1344455536536N01338314EA0051100665000012000000
B1344495536585N01338201EA0051000664000012000000
B1344535536609N01338070EA0051400667000012000000
B1344575536585N01337946EA0051000659000012000000
B1345015536535N01337881EA0050600657000012000000
B1345055536484N01337862EA0050100648000008000000
B1345095536438N01337876EA0049100644000008000000
B1345135536396N01337905EA0048800642000008000000
B1345175536360N01337941EA0048900645000008000000
B1345215536330N01337980EA0049400649000008000000
B1345255536308N01338023EA0049700647000008000000
B1345295536288N01338071EA0049100641000008000000
B1345335536271N01338126EA0048600636000008000000
B1345375536275N01338185EA0048300634000008000000
B1345415536297N01338241EA0048000627000012000000
B1345455536328N01338295EA0047200621000012000000
B1345495536362N01338348EA0046600617000016000000
B1345535536397N01338395EA0046700621000016000000
B1345575536434N01338436EA0046800619000016000000
B1346015536471N01338475EA0046700619000016000000
B1346055536510N01338513EA0046700619000012000000
B1346095536549N01338552EA0046600616000012000000
B1346135536590N01338591EA0046400615000012000000
B1346175536630N01338630EA0046100610000012000000
B1346215536669N01338672EA0045200595000012000000
B1346255536705N01338722EA0043400574000016000000
B1346295536742N01338782EA0042200580000016000000
B1346335536774N01338838EA0043000578000016000000
B1346375536807N01338893EA0042600578000016000000
B1346415536838N01338943EA0042400573000016000000
B1346455536855N01339004EA0041200558000016000000
B1346495536858N01339075EA0040000547000016000000
B1346535536851N01339146EA0039000538000020000000
B1346575536834N01339211EA0038100532000016000000
B1347015536811N01339272EA0036800501000020000000
B1347055536781N01339358EA0033400473000024000000
B1347095536751N01339446EA0032300488000024000000
B1347135536729N01339513EA0034300499000024000000
B1347175536711N01339578EA0034200490000020000000
B1347215536689N01339648EA0033500486000020000000
B1347255536663N01339723EA0032300471000024000000
B1347295536640N01339806EA0031400460000024000000
B1347335536613N01339891EA0030800466000024000000
B1347375536611N01339956EA0032600479000024000000
B1347415536661N01339947EA0032300466000020000000
B1347455536699N01339838EA0031400469000024000000
B1347495536682N01339722EA0032000469000020000000
B1347535536631N01339656EA0031800468000020000000
B1347575536577N01339650EA0031500462000016000000
B1348015536526N01339682EA0030500451000016000000
B1348055536481N01339726EA0029500443000016000000
B1348095536438N01339784EA0028500433000020000000
B1348135536396N01339834EA0028700441000020000000
B1348175536365N01339882EA0029200445000016000000
B1348215536353N01339938EA0029200440000016000000
B1348255536378N01339990EA0028800435000016000000
B1348295536416N01340031EA0028200431000020000000
B1348335536444N01340092EA0028000430000016000000
B1348375536461N01340161EA0028400437000016000000
B1348415536439N01340217EA0028900436000016000000
B1348455536379N01340186EA0028200428000020000000
B1348495536349N01340056EA0027900430000020000000
B1348535536373N01339930EA0028100430000020000000
B1348575536427N01339878EA0027900428000020000000
B1349015536483N01339884EA0027500423000024000000
B1349055536526N01339934EA0027200426000024000000
B1349095536546N01340003EA0028000430000024000000
B1349135536521N01340061EA0028500437000020000000
B1349175536466N01340060EA0028200418000020000000
B1349215536417N01339957EA0026400412000020000000
B1349255536431N01339825EA0025900405000020000000
B1349295536491N01339769EA0025200406000020000000
B1349335536543N01339777EA0025900412000020000000
B1349375536581N01339823EA0025800406000020000000
B1349415536583N01339894EA0025500406000016000000
B1349455536552N01339947EA0025100397000016000000
B1349495536513N01340000EA0024000386000024000000
B1349535536475N01340064EA0023400378000024000000
B1349575536442N01340130EA0022600372000032000000
B1350015536408N01340204EA0020900331000040000000
B1350055536365N01340310EA0015500297000112000000
B1350095536330N01340395EA0016700344000384000000
B1350135536308N01340447EA0020800356000508000000
B1350175536286N01340507EA0020600352000740000000
B1350215536267N01340570EA0020800358000728000000
B1350255536252N01340632EA0021400365000748000000
B1350295536239N01340689EA0022300375000772000000
B1350335536227N01340742EA0023100378000788000000
B1350375536218N01340798EA0023200381000800000000
B1350415536208N01340857EA0023500382000796000000
B1350455536198N01340914EA0023500386000796000000
B1350495536187N01340971EA0024000386000808000000
B1350535536176N01341030EA0023900386000768000000
B1350575536170N01341090EA0024100388000756000000
B1351015536178N01341151EA0024300389000768000000
B1351055536197N01341207EA0024100387000776000000
B1351095536226N01341259EA0023800385000760000000
B1351135536270N01341286EA0023900388000740000000
B1351175536327N01341262EA0024200390000756000000
B1351215536387N01341200EA0024100386000760000000
B1351255536444N01341110EA0023900389000764000000
B1351295536490N01340991EA0024100390000744000000
B1351335536510N01340846EA0024300394000728000000
B1351375536497N01340702EA0024800401000728000000
B1351415536456N01340589EA0025200402000720000000
B1351455536399N01340532EA0025200400000716000000
B1351495536347N01340544EA0025400408000732000000
B1351535536328N01340605EA0026700421000736000000
B1351575536358N01340650EA0027700430000720000000
B1352015536414N01340627EA0028600437000688000000
B1352055536462N01340527EA0028900439000660000000
B1352095536469N01340382EA0029100443000640000000
B1352135536427N01340276EA0029500445000624000000
B1352175536373N01340263EA0029300444000640000000
B1352215536357N01340321EA0029900458000728000000
B1352255536397N01340349EA0031500469000688000000
B1352295536456N01340286EA0031900470000652000000
B1352335536481N01340148EA0032100476000652000000
B1352375536451N01340024EA0032700482000640000000
B1352415536396N01339990EA0033000480000644000000
B1352455536370N01340040EA0032800482000764000000
B1352495536403N01340091EA0033700497000800000000
B1352535536466N01340050EA0034700501000768000000
B1352575536505N01339914EA0034900508000836015000
B1353015536486N01339769EA0036000518000816000000
B1353055536430N01339713EA0036800522000792000000
B1353095536397N01339753EA0037000524000840000000
B1353135536418N01339810EA0037700533000820000000
B1353175536475N01339818EA0038500538000780000000
B1353215536546N01339793EA0038600538000804000000
B1353255536613N01339782EA0039000548000812000000
B1353295536661N01339817EA0040000557000852000000
B1353335536659N01339873EA0041000566000860000000
B1353375536614N01339882EA0041600565000840000000
B1353415536560N01339806EA0041300566000876000000
B1353455536536N01339669EA0041800573000860000000
B1353495536557N01339523EA0042600579000812000000
B1353535536612N01339415EA0043000584000768000000
B1353575536676N01339370EA0044100596000744000000
B1354015536725N01339377EA0044900602000736000000
B1354055536751N01339424EA0045300608000712000000
B1354095536746N01339476EA0045900614000712000000
B1354135536715N01339504EA0046500618000708000000
B1354175536666N01339480EA0046800620000716000000
B1354215536617N01339397EA0046800618000724000000
B1354255536588N01339260EA0046600621000740000000
B1354295536596N01339108EA0047500629000740000000
B1354335536642N01338986EA0048100631000768000000
B1354375536708N01338932EA0048000632000792000000
B1354415536761N01338950EA0048300639000792000000
B1354455536774N01339003EA0049100647000808000000
B1354495536747N01339045EA0049500647000792000000
B1354535536695N01339049EA0049300647000832000000
B1354575536635N01339006EA0049600651000840000000
B1355015536579N01338921EA0050100656000852000000
B1355055536536N01338799EA0050700661000844000000
B1355095536513N01338651EA0051400668000824000000
B1355135536516N01338491EA0052000674000812000000
B1355175536544N01338337EA0052300678000788000000
B1355215536598N01338217EA0052800683000784000000
B1355255536664N01338150EA0053200686000820000000
B1355295536724N01338146EA0053500690000828000000
B1355335536759N01338188EA0053900690000804000000
B1355375536770N01338248EA0053700688000768000000
B1355415536781N01338310EA0053600690000776000000
B1355455536789N01338371EA0054300697000792000000
B1355495536794N01338431EA0054600699000796000000
B1355535536799N01338495EA0054600698000768000000
B1355575536804N01338557EA0054700702000768000000
B1356015536811N01338616EA0055200706000744000000
B1356055536817N01338672EA0055700712000700000000
B1356095536825N01338726EA0056300716000680000000
B1356135536833N01338779EA0056700721000656000000
B1356175536843N01338834EA0057000722000644000000
B1356215536852N01338891EA0057000722000652000000
B1356255536864N01338946EA0057200725000652000000
B1356295536876N01338998EA0057600730000668000000
B1356335536889N01339051EA0058100735000680000000
B1356375536902N01339106EA0058600742000692000000
B1356415536913N01339159EA0059200748000688000000
B1356455536924N01339215EA0059800754000656000000
B1356495536934N01339271EA0060300760000624000000
B1356535536942N01339325EA0060900767000628000000
B1356575536949N01339381EA0061700773000644000000
B1357015536949N01339439EA0062200777000660000000
B1357055536945N01339497EA0062700782000652000000
B1357095536941N01339554EA0063200787000664000000
B1357135536938N01339611EA0063600792000664000000
B1357175536936N01339667EA0064200798000648000000
B1357215536932N01339723EA0064700802000640000000
B1357255536928N01339780EA0065200806000640000000
B1357295536924N01339839EA0065600812000652000000
B1357335536920N01339895EA0066400819000684000000
B1357375536913N01339951EA0067100824000680000000
B1357415536904N01340007EA0067500828000708000000
B1357455536895N01340064EA0068000835000732000000
B1357495536891N01340118EA0068600845000724000000
B1357535536889N01340170EA0069600851000724000000
B1357575536885N01340222EA0070200858000704000000
B1358015536882N01340274EA0070800864000708000000
B1358055536880N01340328EA0071300869000668000000
B1358095536878N01340384EA0071700873000652000000
B1358135536877N01340441EA0072300879000684000000
B1358175536874N01340499EA0072800883000644000000
B1358215536876N01340558EA0073300888000612000000
B1358255536878N01340616EA0073700892000636000000
B1358295536885N01340674EA0074100897000620000000
B1358335536893N01340732EA0074600901000600000000
B1358375536898N01340791EA0075100906000624000000
B1358415536904N01340848EA0075500911000644000000
B1358455536911N01340904EA0075900914000624000000
B1358495536920N01340962EA0076200917000616000000
B1358535536932N01341019EA0076600922000632000000
B1358575536946N01341075EA0077100926000604000000
B1359015536964N01341131EA0077500929000576000000
B1359055536982N01341186EA0077600933000624000000
B1359095537001N01341240EA0078100938000600000000
B1359135537017N01341298EA0078500939000584000000
B1359175537033N01341356EA0078700943000608000000
B1359215537050N01341411EA0079300950000616000000
B1359255537067N01341459EA0079700952000524000000
B1359295537082N01341503EA0079800948000368000000
B1359335537099N01341551EA0079100940000232000000
B1359375537118N01341600EA0078400936000160000000
B1359415537140N01341647EA0078200934000116000000
B1359455537164N01341689EA0078100933000076000000
B1359495537183N01341734EA0077600928000056000000
B1359535537180N01341784EA0077000921000040000000
B1359575537154N01341820EA0076500918000032000000
B1400015537115N01341829EA0076400915000028000000
B1400055537072N01341834EA0075600908000024000000
B1400095537033N01341846EA0075300905000020000000
B1400135536993N01341857EA0075000903000020000000
B1400175536954N01341868EA0074900900000020000000
B1400215536917N01341884EA0074500895000016000000
B1400255536880N01341902EA0074200893000020000000
B1400295536841N01341920EA0073900889000016000000
B1400335536803N01341940EA0073600887000012000000
B1400375536768N01341962EA0073400885000016000000
B1400415536733N01341984EA0073200882000016000000
B1400455536699N01342010EA0072800878000016000000
B1400495536666N01342039EA0072300875000016000000
B1400535536635N01342067EA0072300875000016000000
B1400575536604N01342094EA0072000872000016000000
B1401015536570N01342120EA0071700867000012000000
B1401055536533N01342145EA0071100864000016000000
B1401095536496N01342165EA0071000864000012000000
B1401135536457N01342185EA0070800859000012000000
B1401175536419N01342205EA0070500859000012000000
B1401215536382N01342223EA0070600857000012000000
B1401255536344N01342241EA0070400855000012000000
B1401295536305N01342261EA0070100854000012000000
B1401335536267N01342280EA0070000851000012000000
B1401375536228N01342300EA0069600847000008000000
B1401415536188N01342321EA0069300844000008000000
B1401455536149N01342340EA0069000842000008000000
B1401495536111N01342360EA0068800839000008000000
B1401535536072N01342379EA0068500836000008000000
B1401575536036N01342397EA0068100831000012000000
B1402015535998N01342416EA0067700827000012000000
B1402055535962N01342435EA0067400824000012000000
B1402095535925N01342453EA0067000820000012000000
B1402135535892N01342474EA0066600816000012000000
B1402175535858N01342499EA0066100812000012000000
B1402215535824N01342521EA0065700808000012000000
B1402255535789N01342540EA0065300804000012000000
B1402295535754N01342561EA0065100801000012000000
B1402335535723N01342587EA0064600798000012000000
B1402375535694N01342617EA0064300796000016000000
B1402415535667N01342648EA0064000793000012000000
B1402455535641N01342681EA0063800790000012000000
B1402495535612N01342712EA0063700787000012000000
B1402535535584N01342742EA0063400785000012000000
B1402575535556N01342774EA0063200782000012000000
B1403015535529N01342808EA0062900779000012000000
B1403055535503N01342842EA0062500776000016000000
B1403095535474N01342877EA0062200772000016000000
B1403135535446N01342912EA0061900769000016000000
B1403175535420N01342949EA0061600767000016000000
B1403215535398N01342988EA0061300765000012000000
B1403255535378N01343028EA0060900762000012000000
B1403295535360N01343071EA0060500758000012000000
B1403335535342N01343114EA0060200754000012000000
B1403375535321N01343155EA0059800748000012000000
B1403415535299N01343201EA0059200741000012000000
B1403455535281N01343250EA0058600737000012000000
B1403495535264N01343302EA0058300732000008000000
B1403535535249N01343354EA0057800727000008000000
B1403575535236N01343404EA0057400722000012000000
B1404015535221N01343453EA0056800716000016000000
B1404055535204N01343500EA0056300708000016000000
B1404095535204N01343556EA0055300696000016000000
B1404135535244N01343592EA0054200688000016000000
B1404175535305N01343562EA0053900687000016015000
B1404215535355N01343461EA0053500680000012015000
B1404255535376N01343314EA0052400670000012000000
B1404295535356N01343166EA0051700664000016000000
B1404335535309N01343059EA0051300662000016015000
B1404375535253N01343015EA0051100659000016015000
B1404415535210N01343027EA0050700653000016015000
B1404455535192N01343075EA0050100645000016015000
B1404495535207N01343127EA0049400640000012015000
B1404535535246N01343158EA0049000635000012015000
B1404575535301N01343147EA0048500627000012015000
B1405015535363N01343094EA0047800623000012000000
B1405055535416N01343001EA0047400620000012000000
B1405095535456N01342877EA0047200619000012000000
B1405135535477N01342737EA0046900617000016000000
B1405175535480N01342588EA0046500614000012000000
B1405215535464N01342448EA0046400615000012000000
B1405255535435N01342321EA0046300614000012000000
B1405295535400N01342197EA0045900610000012000000
B1405335535359N01342084EA0045600606000012000000
B1405375535304N01342013EA0045600607000012000000
B1405415535249N01341979EA0045600605000012000000
B1405455535199N01341974EA0045300602000016000000
B1406055535162N01341980EV0044000000000000000128
B1406075535162N01341980EV0044100000000004000128
B1406125534883N01342037EA0044200586000004000000
B1406175534836N01342062EA0043400579000008000000
B1406215534793N01342076EA0042600568000012000000
B1406255534739N01342058EA0042000565000016000000
B1406295534687N01341981EA0042000569000012000000
B1406335534657N01341850EA0042000565000016000000
B1406375534664N01341695EA0041500565000016000000
B1406415534707N01341572EA0041800563000016000000
B1406455534770N01341520EA0040900554000012000000
B1406495534815N01341543EA0040200549000016000000
B1406535534815N01341590EA0040100550000012000000
B1406575534780N01341606EA0039700542000012000000
B1407015534731N01341581EA0038900534000016000000
B1407055534675N01341520EA0037800519000016000000
B1407095534624N01341411EA0036700517000020000000
B1407135534603N01341270EA0037200527000020000000
B1407175534633N01341157EA0038500531000020000000
B1407215534685N01341140EA0037900524000020000000
B1407255534687N01341187EA0037800523000020000000
B1407295534637N01341162EA0037100514000016000000
B1407335534596N01341053EA0036400516000020000000
B1407375534589N01340924EA0036600509000020000000
B1407415534641N01340849EA0035700504000028000000
B1407455534688N01340871EA0034900495000024000000
B1407495534687N01340931EA0034900499000024000000
B1407535534644N01340941EA0034900492000020000000
B1407575534590N01340870EA0033800483000020000000
B1408015534571N01340741EA0033800492000020000000
B1408055534590N01340615EA0034400490000020000000
B1408095534642N01340524EA0033100477000020015000
B1408135534703N01340497EA0032600469000020000000
B1408175534768N01340480EA0030700451000020000000
B1408215534840N01340467EA0029400440000024000000
B1408255534911N01340454EA0028600434000024000000
B1408295534984N01340446EA0028000430000024000000
B1408335535058N01340440EA0027900431000024000000
B1408375535131N01340433EA0027900428000028000000
B1408415535205N01340433EA0027400424000032000000
B1408455535277N01340432EA0027600427000032000000
B1408495535348N01340433EA0027500422000028000000
B1408535535418N01340438EA0027100419000028000000
B1408575535487N01340455EA0026600417000028000000
B1409015535554N01340475EA0026700418000028000000
B1409055535617N01340501EA0026500415000024000000
B1409095535680N01340533EA0026100410000024000000
B1409135535742N01340573EA0025100400000028000000
B1409175535805N01340616EA0024700399000028000000
B1409215535866N01340654EA0024600394000024000000
B1409255535929N01340689EA0024200391000024000000
B1409295535992N01340723EA0023700382000020000000
B1409335536058N01340754EA0022600372000024000000
B1409375536111N01340798EA0022600380000024000000
B1409415536135N01340869EA0023300382000020000000
B1409455536124N01340941EA0023400385000024000000
B1409495536087N01340997EA0022800373000020000000
B1409535536026N01340988EA0022500373000020000000
B1409575535976N01340874EA0021900358000028000000
B1410015535996N01340724EA0020600352000032000000
B1410055536053N01340632EA0020000339000036000000
B1410095536115N01340554EA0018600329000044000000
B1410135536174N01340451EA0017000297000052000000
B1410175536232N01340315EA0014000287000200000000
B1410215536273N01340186EA0015900322000412000000
B1410255536305N01340063EA0017200315000584000000
B1410295536338N01339925EA0016200305000724000000
B1410335536362N01339773EA0015500306000872000000
B1410375536374N01339619EA0016000310000984000000
B1410415536339N01339488EA0016800317000996000000
B1410455536276N01339424EA0017600323000996000000
B1410495536224N01339454EA0018500342000996000000
B1410535536221N01339527EA0020500358000996000000
B1410575536263N01339558EA0021500366000996000000
B1411015536321N01339513EA0022200369000964000000
B1411055536351N01339394EA0022200370000960000000
B1411095536318N01339276EA0022400371000988000000
B1411135536260N01339260EA0022800376000996000000
B1411175536222N01339322EA0023400387000992000000
B1411215536189N01339383EA0024500400000944000000
B1411255536159N01339440EA0025500402000780000000
B1411295536128N01339494EA0024900403000632000000
B1411335536098N01339533EA0025800407000452000000
B1411375536065N01339571EA0025500404000284000000
B1411415536035N01339609EA0025300403000176000000
B1411455536007N01339650EA0024900403000124000000
B1411495535984N01339692EA0025000402000080000000
B1411535535961N01339734EA0024100391000060000000
B1411575535936N01339783EA0023400383000052000000
B1412015535911N01339835EA0022400371000040000000
B1412055535888N01339894EA0021200359000032000000
B1412095535862N01339953EA0020900365000028000000
B1412135535829N01339999EA0021800367000028000000
B1412175535777N01340009EA0020600347000024000000
B1412215535729N01339913EA0019900350000024000000
B1412255535740N01339783EA0019700341000024000000
B1412295535792N01339736EA0018700336000024000000
B1412335535815N01339783EA0018900338000028000000
B1412375535785N01339832EA0018700328000024000000
B1412415535734N01339864EA0017500320000024000000
B1412455535678N01339887EA0016900314000024000000
B1412495535620N01339912EA0016300309000024000000
B1412535535567N01339946EA0015900304000020000000
B1412575535515N01339987EA0015400301000020000000
B1413015535465N01340033EA0015400305000020000000
B1413055535438N01340094EA0016100310000016000000
B1413095535451N01340156EA0015900302000016000000
B1413135535498N01340195EA0015100298000016000000
B1413175535535N01340251EA0014700292000016000000
B1413215535559N01340326EA0014200290000016000000
B1413255535565N01340407EA0014000286000016000000
B1413295535535N01340472EA0013900285000024000000
B1413335535478N01340404EA0013700280000072000000
B1413375535495N01340256EA0013100275000104000000
B1413415535535N01340121EA0012800273000124000000
B1413455535580N01339988EA0012100263000128000000
B1413495535628N01339857EA0011000254000124000000
B1413535535680N01339731EA0010200246000140000000
B1413575535734N01339622EA0010200250000168000000
B1414015535789N01339518EA0010400252000168000000
B1414055535841N01339418EA0010800256000160000000
B1414095535890N01339314EA0010900254000148000000
B1414135535938N01339211EA0010700251000132000000
B1414175535996N01339141EA0010400247000120000000
B1414215536057N01339123EA0009900242000144000000
B1414255536114N01339147EA0008800231000136000000
B1414295536170N01339182EA0007900225000132000000
B1414335536224N01339220EA0007500224000136000000
B1414375536276N01339264EA0007700220000140000000
B1414415536315N01339323EA0006400203000132000000
B1414455536327N01339402EA0004600185000116000000
B1414495536310N01339479EA0002800165000116000000
B1414535536280N01339549EA0000800147000108000000
B1414575536253N01339621EA-001000129000104000000
B1415015536221N01339689EA-002900111000112000000
B1415055536188N01339764EA-004700092000116000000
B1415095536153N01339840EA-006300077000120000000
B1415135536118N01339920EA-008000060000124000000
B1415175536080N01340000EA-009400042000128000000
B1415215536048N01340066EA-010300041000276000000
B1415255536023N01340108EA-010200041000500000000
B1415295536006N01340125EA-010200041000500000000
B1415335536001N01340125EA-010200041000392000000
B1415375536001N01340125EA-010100042000264000000
B1415415536001N01340125EA-010200042000188000000
B1415455536001N01340125EA-010200041000116000000
B1415495536001N01340125EA-010200041000084000000
B1415535536001N01340125EA-010200041000060000000
B1415575536001N01340125EA-010100040000052000000
G0003000000B532D70A0000000000000000000000000000000000000000000000
G441EDC0CA824090B47195374C5AEB500E1D8D560000000002D9C13DE80C5F1D4
GA72CA5A86EC6AD7B826748B6BC10F8AD2C9A9F09000000000000000037B36ACA
