ACAM3X6
HFDTE070506
HFFXA050
HFPLTPILOT:Peter Cutting           
HFGTYGLIDERTYPE:LS8-b       
HFGIDGLIDERID:SE-USP      
HFDTM100GPSDATUM:
HFRFWFIRMWAREVERSION:F2.6
HFRHWHARDWAREVERSION:300 Series Version 2
HFFTYFRTYPE:CAMBRIDGE AERO INSTRUMENTS, 302+
HFGPS:GARMIN,LVS-25,12,18000
HFPRSPRESSALTSENSOR:INTERSEMA, MS5534-AP, 20000
I033638FXA3941ENL4247REX
LCAMSBVER:5FWVER:F26300
C170905101739170905000101
C0000000N00000000WTAKEOFF     
C5535900N01340483ESoevde Fpl  
C5657250N01355580EFeringe flp 
C5535900N01340483ESoevde Fpl  
C0000000N00000000WLANDING     
B1116245536053N01340004EA-010000040000012000000
B1116265536053N01340004EA-009900040000012000000
B1116285536053N01340004EA-009900040000008000000
B1116305536053N01340004EA-010000040000008000000
B1116325536053N01340004EA-010100039000008000000
B1116345536053N01340004EA-010000040000004000000
B1116365536053N01340004EA-009900040000004000000
B1116385536053N01340004EA-010000040000004000000
B1116405536053N01340003EA-010000040000004000000
B1116425536053N01340003EA-010000040000004000000
B1116445536053N01340003EA-010000040000004000000
B1116465536053N01340004EA-010000040000004000000
B1116485536053N01340005EA-010000040000012000000
B1116505536052N01340009EA-010000040000028000000
B1116525536049N01340016EA-010000040000064000000
B1116555536044N01340030EA-010000040000136000000
B1116595536032N01340060EA-010000039000216000000
B1117035536015N01340100EA-010000039000312000000
B1117075535993N01340152EA-009900039000380000000
B1117115535966N01340213EA-010000040000308000000
B1117155535932N01340284EA-009700043000232000000
B1117195535896N01340359EA-009200048000196000000
B1117235535859N01340436EA-008800057000152000000
B1117275535824N01340514EA-007800067000140000000
B1117315535788N01340593EA-007100074000128000000
B1117355535750N01340671EA-006200084000132000000
B1117395535711N01340748EA-005300094000132000000
B1117435535673N01340827EA-004300104000132000000
B1117475535634N01340906EA-003600108000128000000
B1117515535594N01340987EA-003000117000120000000
B1117555535554N01341069EA-002100124000116000000
B1117595535516N01341152EA-001000138000128000000
B1118035535482N01341231EA0000400155000120000000
B1118075535450N01341305EA0001900167000124000000
B1118115535424N01341385EA0002800175000120000000
B1118155535408N01341469EA0003400182000116000000
B1118195535399N01341555EA0004100191000120000000
B1118235535392N01341638EA0005200199000104000000
B1118275535382N01341721EA0005600202000108000000
B1118315535374N01341806EA0006000207000112000000
B1118355535373N01341893EA0006900216000112000000
B1118395535376N01341985EA0007400219000120000000
B1118435535378N01342081EA0008000228000128000000
B1118475535383N01342176EA0009000242000112000000
B1118515535386N01342271EA0010600263000088000000
B1118555535381N01342370EA0012600277000064000000
B1118595535373N01342466EA0014300299000056000000
B1119035535374N01342559EA0016000313000052000000
B1119075535407N01342626EA0018000328000048000000
B1119115535470N01342614EA0018300328000044000000
B1119155535517N01342500EA0018700332000040000000
B1119195535509N01342349EA0018800336000048000000
B1119235535457N01342237EA0019800347000044000000
B1119275535389N01342218EA0020400355000040000000
B1119315535326N01342252EA0021800368000036000000
B1119355535285N01342322EA0022700379000036000000
B1119395535285N01342408EA0023700385000032000000
B1119435535320N01342465EA0024000392000032000000
B1119475535374N01342470EA0025400405000036000000
B1119515535430N01342409EA0026300412000036000000
B1119555535467N01342292EA0027500424000036000000
B1119595535461N01342145EA0027900426000036000000
B1120035535417N01342022EA0028600436000036000000
B1120075535348N01341976EA0029700447000032000000
B1120115535288N01342010EA0031100459000032000000
B1120155535240N01342066EA0031500467000032000000
B1120195535199N01342123EA0032600479000032000000
B1120235535169N01342187EA0033600488000032000000
B1120275535155N01342253EA0034400491000032000000
B1120315535142N01342318EA0035200501000032000000
B1120355535135N01342386EA0035700504000032000000
B1120395535131N01342456EA0036000510000032000000
B1120435535130N01342525EA0036600515000028000000
B1120475535130N01342596EA0037000520000028000000
B1120515535132N01342663EA0037600530000032000000
B1120555535168N01342681EA0038100526000024000000
B1120595535221N01342631EA0037100514000020000000
B1121035535275N01342570EA0036400513000020000000
B1121075535322N01342487EA0036900513000020000000
B1121115535343N01342352EA0035700505000020000000
B1121155535321N01342228EA0036300515000016000000
B1121195535265N01342187EA0036200508000012000000
B1121235535222N01342231EA0035600503000012000000
B1121275535225N01342300EA0035100497000016000000
B1121315535273N01342302EA0034900493000020000000
B1121355535316N01342205EA0034400493000020000000
B1121395535340N01342085EA0034200493000016000000
B1121435535347N01341958EA0034200481000016000000
B1121475535344N01341819EA0032800473000016000000
B1121515535381N01341706EA0032000459000016000000
B1121555535446N01341658EA0030500456000016000000
B1121595535495N01341645EA0031600458000012000000
B1122035535554N01341625EA0030100442000016000000
B1122075535615N01341580EA0029600445000020000000
B1122115535673N01341516EA0029600440000024000000
B1122155535733N01341446EA0028600425000028000000
B1122195535802N01341353EA0024900372000044000000
B1122235535866N01341235EA0023500393000192000000
B1122275535918N01341127EA0025600410000424000000
B1122315535968N01341036EA0026700418000520000000
B1122355536023N01340963EA0027300421000604000000
B1122395536080N01340926EA0027600426000640000000
B1122435536135N01340922EA0028200431000648000000
B1122475536188N01340936EA0028900444000648000000
B1122515536239N01340963EA0030200455000692000000
B1122555536289N01340999EA0030900461000688000000
B1122595536335N01341047EA0031500462000696000000
B1123035536360N01341121EA0031500463000756000000
B1123075536361N01341205EA0031200458000804000000
B1123115536352N01341287EA0031500465000788000000
B1123155536344N01341364EA0031900465000776000000
B1123195536339N01341444EA0032500476000716000000
B1123235536331N01341524EA0033300482000704000000
B1123275536282N01341571EA0033500485000880000000
B1123315536215N01341512EA0034100489000820000000
B1123355536180N01341370EA0033800486000836000000
B1123395536204N01341244EA0034600497000812000000
B1123435536257N01341190EA0035200500000772000000
B1123475536308N01341203EA0035800509000740000000
B1123515536340N01341262EA0036500515000740000000
B1123555536340N01341339EA0036800517000792000000
B1123595536300N01341392EA0036800518000772000000
B1124035536234N01341374EA0037100518000760000000
B1124075536175N01341273EA0037400523000748000000
B1124115536154N01341123EA0037700524000744000000
B1124155536175N01340983EA0037800528000740000000
B1124195536226N01340895EA0038300535000708000000
B1124235536283N01340853EA0039300542000680000000
B1124275536343N01340836EA0039500543000664000000
B1124315536404N01340832EA0039300541000684000000
B1124355536466N01340837EA0038900535000740000000
B1124395536527N01340846EA0039100542000832000000
B1124435536586N01340852EA0039900549000824000000
B1124475536640N01340863EA0040300551000792000000
B1124515536692N01340883EA0040200552000828000000
B1124555536742N01340908EA0041000563000796000000
B1124595536789N01340932EA0041900573000752000000
B1125035536834N01340956EA0042800581000708000000
B1125075536876N01340980EA0043700591000696000000
B1125115536916N01341009EA0044700599000684000000
B1125155536952N01341043EA0045200604000716000000
B1125195536977N01341091EA0045600608000720000000
B1125235536980N01341149EA0046000613000724000000
B1125275536958N01341201EA0046400617000720000000
B1125315536917N01341233EA0047100622000704000000
B1125355536865N01341244EA0047400623000696000000
B1125395536808N01341242EA0047400622000704000000
B1125435536746N01341227EA0047500624000736000000
B1125475536686N01341214EA0048300633000744000000
B1125515536626N01341200EA0048900637000740000000
B1125555536565N01341183EA0049000641000728000000
B1125595536504N01341162EA0049800649000724000000
B1126035536444N01341145EA0050400652000696000000
B1126075536384N01341136EA0050600653000668000000
B1126115536335N01341160EA0050800654000656000000
B1126155536308N01341214EA0050900656000680000000
B1126195536304N01341275EA0051500664000676000000
B1126235536325N01341325EA0052300668000648000000
B1126275536360N01341361EA0052400671000640000000
B1126315536404N01341387EA0052600672000648000000
B1126355536452N01341407EA0052700673000680000000
B1126395536503N01341424EA0052700674000696000000
B1126435536553N01341439EA0052900677000696000000
B1126475536601N01341452EA0053100678000672000000
B1126515536648N01341468EA0053300679000660000000
B1126555536695N01341485EA0053400682000644000000
B1126595536743N01341500EA0053700683000632000000
B1127035536791N01341517EA0053900685000632000000
B1127075536841N01341535EA0054000686000636000000
B1127115536887N01341552EA0054000687000644000000
B1127155536933N01341574EA0054000691000648000000
B1127195536975N01341598EA0054600697000632000000
B1127235537016N01341621EA0055100704000632000000
B1127275537058N01341642EA0055800710000644000000
B1127315537098N01341663EA0056200714000632000000
B1127355537140N01341686EA0056400717000628000000
B1127395537176N01341719EA0056700719000636000000
B1127435537199N01341768EA0056800719000624000000
B1127475537207N01341832EA0056600716000644000000
B1127515537198N01341898EA0056400717000664000000
B1127555537176N01341958EA0056700721000660000000
B1127595537142N01342003EA0057200723000644000000
B1128035537099N01342045EA0057000721000664000000
B1128075537056N01342084EA0056900722000604000000
B1128115537016N01342120EA0056600718000504000000
B1128155536980N01342149EA0056700719000344000000
B1128195536945N01342167EA0056600716000212000000
B1128235536908N01342183EA0056100710000148000000
B1128275536867N01342193EA0055600705000112000000
B1128315536824N01342206EA0055100699000076000000
B1128355536778N01342223EA0054500695000052000000
B1128395536737N01342249EA0054000690000036000000
B1128435536700N01342283EA0053600687000028000000
B1128475536668N01342318EA0053200684000020000000
B1128515536638N01342358EA0052800678000016000000
B1128555536617N01342404EA0052200672000016000000
B1128595536607N01342455EA0051800667000016000000
B1129035536600N01342508EA0051300661000012000000
B1129075536598N01342561EA0050800659000012000000
B1129115536603N01342611EA0050500656000012000000
B1129155536613N01342656EA0050200653000012000000
B1129195536627N01342698EA0050000651000012000000
B1129235536642N01342739EA0049700649000012000000
B1129275536657N01342785EA0049500647000012000000
B1129315536672N01342833EA0049100644000012000000
B1129355536683N01342882EA0048900642000012000000
B1129395536694N01342934EA0048700641000016000000
B1129435536704N01342985EA0048700642000012000000
B1129475536716N01343033EA0048700642000012000000
B1129515536729N01343084EA0048500639000012000000
B1129555536743N01343134EA0048300638000012000000
B1129595536760N01343181EA0048300637000012000000
B1130035536778N01343227EA0047800631000012000000
B1130075536795N01343276EA0047300624000008000000
B1130115536809N01343326EA0046600619000012000000
B1130155536826N01343371EA0046300613000008000000
B1130195536848N01343414EA0045600606000008000000
B1130235536877N01343453EA0044600596000008000000
B1130275536908N01343501EA0042800573000012000000
B1130315536942N01343566EA0040700559000016000000
B1130355536978N01343632EA0040400560000020000000
B1130395537014N01343684EA0041400573000020000000
B1130435537041N01343730EA0041500565000028000000
B1130475537056N01343791EA0040800556000024000000
B1130515537036N01343862EA0039900548000020000000
B1130555536986N01343911EA0039300543000020000000
B1130595536919N01343920EA0038700541000016000000
B1131035536848N01343901EA0038700541000016000000
B1131075536780N01343869EA0038600537000016000000
B1131115536709N01343833EA0038100530000016000000
B1131155536639N01343787EA0037300522000020000000
B1131195536568N01343743EA0036600515000016000000
B1131235536497N01343686EA0036200511000020000000
B1131275536435N01343597EA0035800507000016000000
B1131315536387N01343483EA0035700509000016000000
B1131355536349N01343358EA0035500501000012000000
B1131395536323N01343219EA0034600495000012000000
B1131435536305N01343076EA0034000489000012000000
B1131475536295N01342928EA0033500485000012000000
B1131515536291N01342781EA0033100480000012000000
B1131555536291N01342633EA0032600473000012000000
B1131595536297N01342482EA0032300469000012000000
B1132035536305N01342334EA0032000468000012000000
B1132075536322N01342193EA0031900467000012000000
B1132115536345N01342058EA0031700467000012000000
B1132155536364N01341922EA0031900469000012000000
B1132195536341N01341789EA0032200468000012000000
B1132235536280N01341723EA0030600450000012000000
B1132275536232N01341745EA0030200452000012000000
B1132315536227N01341797EA0029600442000016000000
B1132355536262N01341825EA0028800438000016000000
B1132395536313N01341798EA0029000441000016000000
B1132435536365N01341734EA0028700438000016000000
B1132475536401N01341633EA0028800441000016000000
B1132515536400N01341508EA0029400446000020000000
B1132555536345N01341446EA0029200434000020000000
B1132595536314N01341499EA0027900431000024000000
B1133035536339N01341543EA0027900429000016000000
B1133075536387N01341538EA0027300422000016000000
B1133115536442N01341525EA0027000423000016000000
B1133155536495N01341486EA0027200423000016000000
B1133195536535N01341387EA0027100420000016000000
B1133235536533N01341249EA0027100420000020000000
B1133275536484N01341142EA0026800416000024000000
B1133315536417N01341100EA0026000408000024000000
B1133355536352N01341113EA0025900411000020000000
B1133395536288N01341131EA0026400416000016000000
B1133435536262N01341192EA0026800420000016000000
B1133475536300N01341222EA0026500411000016000000
B1133515536347N01341151EA0025900413000016000000
B1133555536344N01341025EA0026400416000016000000
B1133595536304N01340914EA0026000411000016000000
B1134035536241N01340849EA0025900410000016000000
B1134075536174N01340826EA0025500406000016000000
B1134115536126N01340863EA0025300404000012000000
B1134155536119N01340928EA0025500406000012000000
B1134195536150N01340965EA0025500404000012000000
B1134235536205N01340940EA0024500391000020000000
B1134275536256N01340862EA0024200394000028000000
B1134315536282N01340746EA0024400389000032000000
B1134355536301N01340602EA0021500350000048000000
B1134395536325N01340428EA0018400339000228000000
B1134435536340N01340276EA0021400377000392000000
B1134475536365N01340143EA0022800377000740000000
B1134515536416N01340050EA0022700373000960000000
B1134555536477N01340018EA0022300371000968000000
B1134595536526N01340038EA0022400373000904000000
B1135035536561N01340089EA0022600376000892000000
B1135075536596N01340138EA0023100378000816000000
B1135115536635N01340190EA0023000380000844000000
B1135155536670N01340237EA0024000394000828000000
B1135195536703N01340278EA0025400401000780000000
B1135235536738N01340319EA0025600403000752000000
B1135275536770N01340358EA0025800405000740000000
B1135315536802N01340397EA0026300412000744000000
B1135355536834N01340437EA0026500407000736000000
B1135395536869N01340480EA0026100411000772000000
B1135435536898N01340525EA0026600419000760000000
B1135475536919N01340583EA0027200418000744000000
B1135515536930N01340646EA0027400423000728000000
B1135555536937N01340713EA0028200431000732000000
B1135595536941N01340781EA0028700435000732000000
B1136035536933N01340854EA0029000439000736000000
B1136075536919N01340926EA0029100441000740000000
B1136115536894N01340992EA0029800448000748000000
B1136155536860N01341043EA0030400457000732000000
B1136195536819N01341078EA0031200461000704000000
B1136235536768N01341096EA0031600463000704000000
B1136275536712N01341101EA0031500460000708000000
B1136315536653N01341099EA0031600465000716000000
B1136355536596N01341091EA0032000468000708000000
B1136395536539N01341088EA0032300470000688000000
B1136435536484N01341091EA0032400470000716000000
B1136475536426N01341093EA0032300473000728000000
B1136515536369N01341099EA0033500492000780000000
B1136555536335N01341140EA0035200495000780000000
B1136595536361N01341196EA0034500492000956000000
B1137035536417N01341169EA0035800513000868000000
B1137075536458N01341074EA0037300524000788000000
B1137115536453N01340941EA0038000530000716000000
B1137155536405N01340852EA0038900541000724000000
B1137195536351N01340848EA0039800550000740000000
B1137235536335N01340910EA0040600555000672000000
B1137275536369N01340948EA0041500568000668000000
B1137315536419N01340902EA0042700576000636000000
B1137355536448N01340787EA0043200582000604000000
B1137395536430N01340662EA0043600587000592000000
B1137435536377N01340603EA0043900587000620015000
B1137475536328N01340631EA0044300595000624000000
B1137515536315N01340696EA0045000603000632000000
B1137555536345N01340741EA0046000615000604000000
B1137595536400N01340716EA0047000621000592000000
B1138035536443N01340612EA0047700627000592000000
B1138075536438N01340476EA0048300633000640000000
B1138115536391N01340376EA0048200629000712015000
B1138155536335N01340373EA0048900641000660000000
B1138195536300N01340425EA0049500641000708000000
B1138235536306N01340488EA0049800655000812000000
B1138275536358N01340481EA0050900657000756000000
B1138315536401N01340372EA0051300667000740000000
B1138355536387N01340235EA0052200674000844000000
B1138395536334N01340169EA0053100684000776015000
B1138435536286N01340193EA0053200679000776000000
B1138475536288N01340255EA0053500690000860000000
B1138515536339N01340255EA0054600696000820000000
B1138555536383N01340151EA0055000703000796000000
B1138595536374N01340011EA0055500708000808000000
B1139035536318N01339925EA0056000705000800000000
B1139075536256N01339920EA0055400710000944000000
B1139115536223N01339968EA0056400716000932000000
B1139155536211N01340029EA0057000725000900000000
B1139195536250N01340055EA0058100734000892000000
B1139235536306N01339981EA0058500737000900000000
B1139275536327N01339835EA0059500751000844000000
B1139315536295N01339710EA0060600758000776000000
B1139355536239N01339671EA0060800757000764000000
B1139395536213N01339713EA0060700765000796000000
B1139435536243N01339748EA0061400771000720000000
B1139475536286N01339783EA0061000764000720000000
B1139515536331N01339835EA0060100754000820000000
B1139555536374N01339899EA0059700756000944000000
B1139595536419N01339962EA0059800753000984000000
B1140035536466N01340029EA0059400749000996000000
B1140075536516N01340099EA0059000746000996000000
B1140115536566N01340169EA0058700746000996000000
B1140155536616N01340239EA0058800747000996000000
B1140195536666N01340312EA0058700745000996000000
B1140235536717N01340385EA0058600742000996000000
B1140275536772N01340459EA0058200738000996000000
B1140315536828N01340529EA0058000741000996000000
B1140355536887N01340594EA0058200741000996000000
B1140395536945N01340655EA0058400746000996000000
B1140435536993N01340719EA0059300754000996000000
B1140475537033N01340783EA0060300762000996000000
B1140515537058N01340853EA0060900764000996000000
B1140555537068N01340932EA0060600760000996000000
B1140595537068N01341014EA0060700765000996000000
B1141035537063N01341091EA0061100770000996000000
B1141075537055N01341162EA0062000775000996000000
B1141115537050N01341231EA0062300780000996000000
B1141155537046N01341296EA0062700783000952000000
B1141195537045N01341363EA0062900786000900000000
B1141235537046N01341426EA0063300792000852000000
B1141275537050N01341487EA0063900798000808000000
B1141315537054N01341545EA0064500804000780000000
B1141355537055N01341602EA0064800807000744000000
B1141395537055N01341659EA0065000811000724000000
B1141435537055N01341714EA0065500813000688000000
B1141475537055N01341768EA0065600814000672000000
B1141515537055N01341825EA0065700814000676000000
B1141555537058N01341883EA0065800817000676000000
B1141595537062N01341937EA0066300821000668000000
B1142035537064N01341990EA0066800826000672000000
B1142075537067N01342044EA0067200830000680000000
B1142115537068N01342097EA0067400831000688000000
B1142155537066N01342150EA0067800835000684000000
B1142195537062N01342206EA0067900835000684000000
B1142235537054N01342262EA0068200837000664000000
B1142275537046N01342315EA0068300836000580000000
B1142315537040N01342362EA0068200835000416000000
B1142355537033N01342408EA0067900828000256000000
B1142395537024N01342453EA0067300823000160000000
B1142435537010N01342497EA0066600817000112000000
B1142475536994N01342543EA0066300816000072000000
B1142515536981N01342594EA0065300804000052000000
B1142555536969N01342652EA0064300795000036000000
B1142595536956N01342717EA0063100781000032000000
B1143035536945N01342791EA0061900771000028000000
B1143075536938N01342868EA0061200762000024000000
B1143115536933N01342947EA0060200754000024000000
B1143155536928N01343028EA0059500750000024000000
B1143195536923N01343107EA0058900742000024000000
B1143235536919N01343189EA0058100735000024000000
B1143275536915N01343272EA0057300731000024000000
B1143315536916N01343354EA0056500722000024000000
B1143355536917N01343435EA0055800713000024000000
B1143395536920N01343518EA0055000702000024000000
B1143435536925N01343604EA0053900693000028000000
B1143475536932N01343688EA0052900684000028000000
B1143515536938N01343775EA0052100673000028000000
B1143555536946N01343865EA0050800662000028000000
B1143595536950N01343955EA0050100654000028000000
B1144035536950N01344042EA0049700650000028000000
B1144075536943N01344128EA0049300643000028000000
B1144115536933N01344215EA0048800639000024000000
B1144155536920N01344297EA0048600637000024000000
B1144195536906N01344377EA0048100635000024000000
B1144235536891N01344455EA0048100631000020000000
B1144275536878N01344535EA0047500622000020000000
B1144315536868N01344616EA0046700618000020000000
B1144355536861N01344702EA0046000611000020000000
B1144395536851N01344791EA0045600606000020000000
B1144435536832N01344880EA0044700596000024000000
B1144475536796N01344965EA0043900589000024000000
B1144515536743N01345029EA0043400585000024000000
B1144555536679N01345062EA0043400590000024000000
B1144595536611N01345071EA0043400583000024000000
B1145035536538N01345060EA0042900577000024000000
B1145075536458N01345023EA0042000568000028000000
B1145115536382N01344957EA0041700569000028000000
B1145155536310N01344889EA0042000570000028000000
B1145195536245N01344822EA0042800580000024000000
B1145235536184N01344752EA0043000573000020000000
B1145275536120N01344676EA0041700558000020000000
B1145315536057N01344580EA0040100558000020000000
B1145355536005N01344480EA0041700570000020000000
B1145395535954N01344377EA0041500562000016000000
B1145435535903N01344271EA0041300563000016000000
B1145475535850N01344165EA0040900560000016000000
B1145515535797N01344060EA0041200562000016000000
B1145555535745N01343953EA0041600567000016000000
B1145595535684N01343899EA0041400556000016000000
B1146035535621N01343885EA0040600555000016000000
B1146075535558N01343834EA0040700557000016000000
B1146115535498N01343757EA0040700555000012000000
B1146155535437N01343673EA0040200550000012000000
B1146195535377N01343579EA0039900549000012000000
B1146235535317N01343480EA0039500543000012000000
B1146275535260N01343379EA0039200543000020000000
B1146315535208N01343270EA0039100543000016000000
B1146355535162N01343159EA0039400544000016000000
B1146395535119N01343049EA0039300541000012000000
B1146435535078N01342936EA0039000537000012000000
B1146475535036N01342819EA0038500532000012000000
B1146515534993N01342702EA0038000528000012000000
B1146555534952N01342583EA0037700525000012000000
B1146595534913N01342461EA0037400521000012000000
B1147035534878N01342332EA0036900517000012000000
B1147075534841N01342202EA0036500514000016000000
B1147115534810N01342071EA0036200512000016000000
B1147155534785N01341936EA0036100508000012000000
B1147195534767N01341797EA0035600504000012000000
B1147235534767N01341655EA0035300500000012000000
B1147275534781N01341520EA0034800496000012000000
B1147315534810N01341395EA0034400488000012000000
B1147355534852N01341282EA0033700481000012000000
B1147395534897N01341179EA0033100479000012000000
B1147435534947N01341091EA0033100476000012000000
B1147475534999N01341010EA0032700477000008000000
B1147515535049N01340931EA0032700471000008000000
B1147555535100N01340853EA0032000465000008000000
B1147595535152N01340785EA0031600461000008000000
B1148035535207N01340729EA0031300457000012000000
B1148075535262N01340687EA0030800452000016000000
B1148115535321N01340650EA0029800439000016000000
B1148155535382N01340628EA0028900432000016000000
B1148195535438N01340618EA0028800437000016000000
B1148235535493N01340610EA0029100433000016000000
B1148275535548N01340603EA0028600429000012000000
B1148315535606N01340607EA0028000422000016000000
B1148355535658N01340627EA0027700425000016000000
B1148395535708N01340642EA0028300428000012000000
B1148435535760N01340658EA0028300428000016000000
B1148475535807N01340684EA0028800436000016000000
B1148515535846N01340722EA0029300437000016000000
B1148555535837N01340791EA0028600428000016000000
B1148595535780N01340798EA0028100426000016000000
B1149035535728N01340707EA0028000423000016000000
B1149075535719N01340572EA0027800423000016000000
B1149115535755N01340466EA0028100430000012000000
B1149155535805N01340468EA0028500429000012000000
B1149195535789N01340534EA0028000423000012000000
B1149235535728N01340494EA0027800429000012000000
B1149275535716N01340367EA0028900434000012000000
B1149315535763N01340291EA0028600429000016000000
B1149355535801N01340329EA0028600432000012000000
B1149395535773N01340385EA0028500427000016000000
B1149435535712N01340343EA0028200431000012000000
B1149475535684N01340224EA0029300438000020000000
B1149515535694N01340098EA0029300437000016000000
B1149555535740N01340024EA0029100438000012000000
B1149595535784N01340035EA0029500442000012000000
B1150035535788N01340094EA0029400437000012000000
B1150075535741N01340118EA0028800427000012000000
B1150115535682N01340055EA0028000427000012000000
B1150155535659N01339936EA0028800434000012000000
B1150195535671N01339816EA0028500427000012000000
B1150235535712N01339722EA0028100428000012000000
B1150275535762N01339660EA0028000423000012000000
B1150315535818N01339618EA0027200415000012000000
B1150355535873N01339592EA0026700410000012000000
B1150395535929N01339576EA0025900396000020000000
B1150435535990N01339567EA0024600387000024000000
B1150475536050N01339566EA0023800375000032000000
B1150515536114N01339566EA0022500354000040000000
B1150555536192N01339570EA0019100319000100000000
B1150595536270N01339572EA0018000341000316000000
B1151035536332N01339563EA0020800357000508000000
B1151075536388N01339549EA0022400370000600000000
B1151115536445N01339535EA0022300366000892000000
B1151155536505N01339531EA0022300367000852000000
B1151195536561N01339527EA0022800378000844000000
B1151235536614N01339523EA0023400379000828000000
B1151275536666N01339519EA0023900384000832000000
B1151315536718N01339524EA0024100389000784000000
B1151355536770N01339524EA0024600391000788000000
B1151395536822N01339527EA0024600394000816000000
B1151435536873N01339533EA0025000396000756000000
B1151475536921N01339548EA0025200401000740000000
B1151515536965N01339561EA0026000411000740000000
B1151555537004N01339575EA0026700414000736000000
B1151595537045N01339592EA0026900418000728000000
B1152035537084N01339608EA0027200422000748000000
B1152075537119N01339630EA0027600423000732000000
B1152115537153N01339654EA0027600424000704000000
B1152155537186N01339684EA0027800425000720000000
B1152195537219N01339721EA0027900425000692000000
B1152235537248N01339761EA0028200429000664000000
B1152275537272N01339804EA0028600435000700000000
B1152315537294N01339844EA0029300439000724000000
B1152355537313N01339887EA0029600441000716000000
B1152395537329N01339931EA0029700440000728000000
B1152435537346N01339983EA0029400437000728000000
B1152475537359N01340040EA0029300438000716000000
B1152515537368N01340096EA0029400440000704000000
B1152555537372N01340152EA0029500439000736000000
B1152595537374N01340209EA0029700444000704000000
B1153035537371N01340258EA0030400450000756000000
B1153075537365N01340304EA0030600450000792000000
B1153115537353N01340354EA0030500451000780000000
B1153155537340N01340408EA0030400448000748000000
B1153195537328N01340469EA0030100446000728000000
B1153235537314N01340533EA0030100449000700000000
B1153275537296N01340592EA0030400451000732000000
B1153315537276N01340649EA0030600454000696000000
B1153355537253N01340706EA0030800457000664000000
B1153395537227N01340757EA0031300462000688000000
B1153435537202N01340805EA0031800466000672000000
B1153475537175N01340854EA0031900468000672000000
B1153515537144N01340902EA0032300470000684000000
B1153555537111N01340945EA0032600474000692000000
B1153595537077N01340986EA0032700475000688000000
B1154035537047N01341031EA0032500472000668000000
B1154075537017N01341082EA0032600474000692000000
B1154115536986N01341132EA0032600470000720000000
B1154155536955N01341194EA0032700478000680000000
B1154195536925N01341256EA0033500487000724000000
B1154235536921N01341318EA0034800499000744000000
B1154275536971N01341325EA0035000492000956000000
B1154315537004N01341223EA0035400504000956000000
B1154355536981N01341108EA0035600501000876000000
B1154395536926N01341051EA0035700507000808000000
B1154435536878N01341069EA0036300512000756000000
B1154475536863N01341127EA0036700512000752000000
B1154515536890N01341182EA0036400512000752000000
B1154555536945N01341181EA0037200522000740000000
B1154595536997N01341099EA0037900531000724000000
B1155035537010N01340963EA0038900539000712000000
B1155075536985N01340841EA0039900548000688000000
B1155115536930N01340768EA0040300548000704000000
B1155155536874N01340771EA0040300550000776000000
B1155195536841N01340826EA0040500554000800000000
B1155235536843N01340891EA0041300560000756000000
B1155275536884N01340919EA0041900571000720000000
B1155315536933N01340872EA0043200581000704000000
B1155355536955N01340752EA0043600581000800000000
B1155395536924N01340633EA0044200594000752000000
B1155435536867N01340579EA0044900590000780000000
B1155475536820N01340612EA0044300593000832000000
B1155515536813N01340679EA0045100598000780000000
B1155555536851N01340720EA0045300603000876000000
B1155595536906N01340672EA0046100612000836000000
B1156035536929N01340547EA0047000621000800000000
B1156075536898N01340428EA0047900629000800000000
B1156115536837N01340356EA0048000625000768000000
B1156155536776N01340356EA0048000632000824000000
B1156195536746N01340411EA0048800640000852000000
B1156235536754N01340473EA0049900650000812000000
B1156275536795N01340494EA0050600657000804000000
B1156315536851N01340428EA0051000658000776000000
B1156355536877N01340290EA0051300666000860000000
B1156395536846N01340160EA0052300678000944000000
B1156435536782N01340117EA0053200680000916000000
B1156475536742N01340161EA0053500688000920000000
B1156515536757N01340215EA0054500700000856000000
B1156555536808N01340209EA0055600706000776000000
B1156595536861N01340126EA0055700705000760000000
B1157035536859N01339977EA0056100714000876000000
B1157075536802N01339903EA0057000716000928000000
B1157115536763N01339940EA0057300722000960000000
B1157155536765N01340000EA0058200733000940000000
B1157195536815N01340004EA0058800736000968000000
B1157235536863N01339905EA0059500745000932000000
B1157275536860N01339761EA0060200751000812000000
B1157315536813N01339660EA0060700756000756000000
B1157355536761N01339640EA0060900760000744000000
B1157395536738N01339680EA0061400761000672000000
B1157435536735N01339732EA0061200762000588000000
B1157475536743N01339779EA0061300761000372000000
B1157515536752N01339830EA0060800754000240000000
B1157555536760N01339881EA0060500752000176000000
B1157595536764N01339934EA0060000747000116000000
B1158035536765N01339990EA0059800745000084000000
B1158075536764N01340047EA0059500744000064000000
B1158115536769N01340099EA0059700748000052000000
B1158155536780N01340147EA0060100750000044000000
B1158195536787N01340195EA0060000750000036000000
B1158235536796N01340242EA0060000750000032000000
B1158275536807N01340285EA0060000749000032000000
B1158315536816N01340330EA0059800748000032000000
B1158355536821N01340376EA0059700746000028000000
B1158395536826N01340423EA0059500742000028000000
B1158435536833N01340473EA0059100738000028000000
B1158475536843N01340521EA0058700736000028000000
B1158515536856N01340568EA0059200734000028000000
B1158555536869N01340614EA0058400729000032000000
B1158595536882N01340661EA0058100726000072000000
B1159035536893N01340706EA0058400723000136000000
B1159075536903N01340750EA0057800719000184000000
B1159115536910N01340796EA0057400716000188000000
B1159155536915N01340840EA0057000711000140000000
B1159195536921N01340888EA0056300705000104000000
B1159235536929N01340936EA0055900704000076000000
B1159275536937N01340982EA0055700702000060000000
B1159315536937N01341030EA0055500699000048000000
B1159355536932N01341077EA0055500700000040000000
B1159395536924N01341121EA0055400698000036000000
B1159435536915N01341166EA0054900694000032000000
B1159475536906N01341213EA0054700693000032000000
B1159515536897N01341257EA0054700690000024000000
B1159555536891N01341305EA0054300689000020000000
B1159595536889N01341350EA0054400690000016000000
B1200035536886N01341392EA0054300686000012000000
B1200075536880N01341437EA0053900684000012000000
B1200115536873N01341481EA0053500680000020000000
B1200155536867N01341526EA0052900672000024000000
B1200195536860N01341580EA0052100665000020000000
B1200235536850N01341632EA0051800664000016000000
B1200275536839N01341684EA0051500658000016000000
B1200315536828N01341743EA0050500642000016000000
B1200355536812N01341819EA0048700628000012000000
B1200395536795N01341903EA0047400616000012000000
B1200435536778N01341996EA0046300607000016000000
B1200475536757N01342088EA0045800609000020000000
B1200515536737N01342166EA0046800621000016000000
B1200555536717N01342230EA0047500622000016000000
B1200595536699N01342292EA0047100615000024000000
B1201035536685N01342356EA0046500607000016000000
B1201075536672N01342419EA0045600596000016000000
B1201115536651N01342484EA0044500581000020000000
B1201155536607N01342533EA0043200578000020000000
B1201195536539N01342483EA0043500579000016000000
B1201235536474N01342401EA0043300576000016000000
B1201275536413N01342310EA0043100577000024000000
B1201315536353N01342215EA0042800572000020000000
B1201355536296N01342115EA0042400567000020000000
B1201395536240N01342015EA0041700559000016000000
B1201435536184N01341909EA0040700549000020000000
B1201475536132N01341784EA0039800539000020000000
B1201515536087N01341662EA0039600546000020000000
B1201555536044N01341548EA0040200548000016000000
B1201595536000N01341438EA0040300540000016000000
B1202035535938N01341359EA0039000531000016000000
B1202075535881N01341285EA0039200541000012000000
B1202115535828N01341207EA0039200530000012000000
B1202155535771N01341127EA0038200522000012000000
B1202195535715N01341057EA0037700519000012000000
B1202235535656N01341004EA0037400517000012000000
B1202275535599N01340961EA0037200515000020000000
B1202315535545N01340954EA0036900509000016000000
B1202355535525N01341010EA0035900502000016000000
B1202395535552N01341051EA0036000504000012000000
B1202435535600N01341034EA0036100501000012000000
B1202475535651N01340980EA0035500495000012000000
B1202515535701N01340915EA0034800487000012000000
B1202555535753N01340859EA0033700477000012000000
B1202595535805N01340807EA0033400476000012000000
B1203035535857N01340755EA0033200472000012000000
B1203075535909N01340701EA0032800468000012000000
B1203115535963N01340654EA0032300462000012000000
B1203155536020N01340615EA0031700458000012000000
B1203195536078N01340580EA0031600459000008000000
B1203235536133N01340549EA0031800461000012000000
B1203275536178N01340557EA0031900457000012000000
B1203315536165N01340616EA0030700449000024000000
B1203355536110N01340598EA0030500448000024000000
B1203395536066N01340502EA0030400445000020000000
B1203435536045N01340377EA0029900439000020000000
B1203475536063N01340254EA0029000431000020000000
B1203515536114N01340189EA0028600427000016000000
B1203555536159N01340203EA0028000419000016000000
B1203595536175N01340261EA0027600416000016000000
B1204035536195N01340319EA0027200414000016000000
B1204075536232N01340351EA0027200414000016000000
B1204115536282N01340320EA0027500418000012000000
B1204155536325N01340224EA0026700406000016000000
B1204195536328N01340086EA0026600408000016000000
B1204235536289N01339975EA0026300400000012000000
B1204275536231N01339912EA0025400393000016000000
B1204315536170N01339883EA0024700388000016000000
B1204355536107N01339878EA0023900381000016000000
B1204395536049N01339887EA0023800381000016000000
B1204435535993N01339896EA0023600380000016000000
B1204475535935N01339892EA0023200374000016000000
B1204515535872N01339873EA0022700369000016000000
B1204555535808N01339847EA0022400368000016000000
B1204595535754N01339873EA0022100364000020000000
B1205035535710N01339921EA0022400372000020000000
B1205075535654N01339882EA0023100374000020000000
B1205115535641N01339749EA0022100359000024000000
B1205155535693N01339686EA0021400357000028000000
B1205195535724N01339743EA0021300359000024000000
B1205235535724N01339814EA0021700365000032000000
B1205275535676N01339836EA0022100368000028000000
B1205315535625N01339761EA0022200362000024000000
B1205355535607N01339627EA0021400357000020000000
B1205395535624N01339496EA0021100355000016000000
B1205435535672N01339448EA0021000352000016000000
B1205475535702N01339496EA0020200344000020000000
B1205515535677N01339557EA0020100348000020000000
B1205555535621N01339537EA0020500351000020000000
B1205595535578N01339433EA0020500348000020000000
B1206035535578N01339297EA0019900340000020000000
B1206075535621N01339215EA0019700342000020000000
B1206115535662N01339234EA0019400330000020000000
B1206155535665N01339307EA0018600330000020000000
B1206195535662N01339380EA0018400326000020000000
B1206235535647N01339448EA0018600333000020000000
B1206275535611N01339501EA0018200326000020000000
B1206315535578N01339552EA0018900333000028000000
B1206355535548N01339609EA0018200322000024000000
B1206395535524N01339674EA0017300316000024000000
B1206435535500N01339739EA0017300318000020000000
B1206475535481N01339806EA0017200314000024000000
B1206515535464N01339874EA0016700312000020000000
B1206555535446N01339938EA0016600309000064000000
B1206595535422N01340004EA0016000300000068000000
B1207035535399N01340073EA0015300295000068000000
B1207075535382N01340146EA0014700289000080000000
B1207115535400N01340208EA0014100285000108000000
B1207155535454N01340204EA0013700280000120000000
B1207195535504N01340117EA0013400280000116000000
B1207235535539N01339991EA0012900273000116000000
B1207275535571N01339856EA0012600275000112000000
B1207315535599N01339727EA0012500277000096000000
B1207355535633N01339602EA0012800274000096000000
B1207395535671N01339472EA0011900268000096000000
B1207435535708N01339345EA0011900265000088000000
B1207475535747N01339220EA0011500263000084000000
B1207515535785N01339097EA0011600265000084000000
B1207555535831N01338993EA0011600261000088000000
B1207595535890N01338964EA0011400259000084000000
B1208035535942N01338987EA0010900248000092000000
B1208075535993N01339023EA0009800239000108000000
B1208115536036N01339073EA0009000234000116000000
B1208155536078N01339123EA0008600228000112000000
B1208195536120N01339169EA0008300224000116000000
B1208235536159N01339220EA0007300214000132000000
B1208275536196N01339272EA0006500205000120000000
B1208315536230N01339329EA0005200193000116000000
B1208355536261N01339390EA0004300185000120000000
B1208395536288N01339455EA0003800176000124000000
B1208435536291N01339532EA0002600163000112000000
B1208475536258N01339598EA0001100144000108000000
B1208515536227N01339671EA-000800124000116000000
B1208555536195N01339748EA-003000102000124000000
B1208595536161N01339822EA-005400076000128000000
B1209035536127N01339899EA-007800055000132000000
B1209075536089N01339975EA-009800038000128000000
B1209115536058N01340039EA-010200036000276000000
B1209155536041N01340076EA-010200036000368000000
B1209195536040N01340079EA-009900036000244000000
B1209235536039N01340079EA-009800036000196000000
B1209275536039N01340079EA-009800037000132000000
B1209315536039N01340079EA-009900037000104000000
B1209355536039N01340079EA-009800037000072000000
B1209395536039N01340081EA-009900037000052000000
B1209435536039N01340081EA-009800037000040000000
G00030000000262B6870000000000000000000000000000000000000000000000
G0635A32C6919EBC68DEABE3D5519F3B9B276A51E000000002A367378936E7B52
G550E96E33BDC158F3B7F60F40A604EDA89F3711A0000000000000000062B4F04
