ACAM3X6
HFDTE140506
HFFXA050
HFPLTPILOT:Peter Cutting           
HFGTYGLIDERTYPE:LS8-b       
HFGIDGLIDERID:SE-USP      
HFDTM100GPSDATUM:
HFRFWFIRMWAREVERSION:F2.6
HFRHWHARDWAREVERSION:300 Series Version 2
HFFTYFRTYPE:CAMBRIDGE AERO INSTRUMENTS, 302+
HFGPS:GARMIN,LVS-25,12,18000
HFPRSPRESSALTSENSOR:INTERSEMA, MS5534-AP, 20000
I033638FXA3941ENL4247REX
LCAMSBVER:5FWVER:F26300
C140506101015140506000101
C0000000N00000000WTAKEOFF     
C5535815N01340565ESovde flp   
C5604800N01342050EBronnestadka
C5535815N01340565ESovde flp   
C0000000N00000000WLANDING     
B1035385535646N01340867EA0002200040000052000000
B1035405535646N01340867EA0002200040000048000000
B1035425535646N01340867EA0002300040000044000000
B1035445535646N01340867EA0002300040000036000000
B1035465535646N01340867EA0002200040000028000000
B1035485535646N01340867EA0002200040000024000000
B1035505535646N01340867EA0002200040000020000000
B1035525535646N01340867EA0002200040000020000000
B1035545535646N01340867EA0002200040000016000000
B1035565535646N01340867EA0002200039000016000000
B1035585535646N01340866EA0002200039000016000000
B1036005535646N01340866EA0002200039000016000000
B1036025535647N01340863EA0002200040000016000000
B1036045535650N01340858EA0002200040000024000000
B1036065535652N01340852EA0002100039000036000000
B1036095535660N01340835EA0002100039000068000000
B1036135535675N01340805EA0002000039000128000000
B1036175535694N01340765EA0001900038000196000000
B1036215535719N01340714EA0001900039000172000000
B1036255535751N01340650EA0001900039000164000000
B1036295535788N01340577EA0002100041000148000000
B1036335535828N01340501EA0002600049000156000000
B1036375535868N01340425EA0003800064000168000000
B1036415535905N01340355EA0005600088000176000000
B1036455535940N01340293EA0007700101000168000000
B1036495535976N01340224EA0008900106000164000000
B1036535536006N01340144EA0009800117000172000000
B1036575536031N01340060EA0011100134000176000000
B1037015536055N01339983EA0012600143000164000000
B1037055536083N01339908EA0013700155000168000000
B1037095536102N01339825EA0015300172000152000000
B1037135536127N01339745EA0016900191000148000000
B1037175536158N01339676EA0018900205000148000000
B1037215536197N01339614EA0019800214000148000000
B1037255536247N01339570EA0021400229000152000000
B1037295536293N01339518EA0021800234000152000000
B1037335536343N01339468EA0022700242000148000000
B1037375536388N01339418EA0023200253000144000000
B1037415536443N01339387EA0024800271000148000000
B1037455536503N01339387EA0027400289000160000000
B1037495536564N01339403EA0028300297000160000000
B1037535536629N01339437EA0028800303000128000000
B1037575536696N01339497EA0029000307000088000000
B1038015536761N01339572EA0029800316000064000000
B1038055536822N01339669EA0030900325000056000000
B1038095536880N01339775EA0032300341000048000000
B1038135536936N01339881EA0034400363000044000000
B1038175536993N01339985EA0035900384000040000000
B1038215537050N01340079EA0039000417000040000000
B1038255537094N01340087EA0042600444000036000000
B1038295537089N01340017EA0043700448000028000000
B1038335537027N01339986EA0044900461000020000000
B1038375536952N01340033EA0045500464000016000000
B1038415536891N01340144EA0046300477000020000000
B1038455536861N01340282EA0047900493000020000000
B1038495536890N01340390EA0049600508000016000000
B1038535536934N01340390EA0050900526000016000000
B1038575536930N01340329EA0053200548000016000000
B1039015536874N01340323EA0054800560000016000000
B1039055536822N01340429EA0055600568000016000000
B1039095536830N01340567EA0056900583000012000000
B1039135536878N01340614EA0058600599000012000000
B1039175536895N01340553EA0060300620000012000000
B1039215536852N01340505EA0062900644000012000000
B1039255536782N01340553EA0064500650000012000000
B1039295536744N01340684EA0065600663000012000000
B1039335536769N01340815EA0066300671000012000000
B1039375536821N01340850EA0068000690000012000000
B1039415536847N01340796EA0069700705000016000000
B1039455536822N01340726EA0072200734000016000000
B1039495536763N01340705EA0074000743000012000000
B1039535536687N01340765EA0074600749000012000000
B1039575536648N01340902EA0075000757000012000000
B1040015536663N01341043EA0076100768000012000000
B1040055536715N01341109EA0076900776000012000000
B1040095536752N01341074EA0078200792000012000000
B1040135536735N01341004EA0079800806000012000000
B1040175536670N01340987EA0081500825000012000000
B1040215536600N01341061EA0082700834000012000000
B1040255536572N01341199EA0084200849000012000000
B1040295536594N01341322EA0085100857000012000000
B1040335536644N01341369EA0086100864000012000000
B1040375536676N01341325EA0087100885000012000000
B1040415536651N01341264EA0090100907000012000000
B1040455536582N01341269EA0091200914000012000000
B1040495536520N01341369EA0092000926000012000000
B1040535536503N01341512EA0093700943000012000000
B1040575536533N01341630EA0095000949000012000000
B1041015536588N01341682EA0095400952000012000000
B1041055536651N01341689EA0095500958000012000000
B1041095536705N01341669EA0098000991000012000000
B1041135536754N01341641EA0100301002000020000000
B1041175536799N01341600EA0100401001000024000000
B1041215536843N01341558EA0100100994000028000000
B1041255536886N01341511EA0099400986000032000000
B1041295536933N01341473EA0098400976000032000000
B1041335536980N01341434EA0096800947000036000000
B1041375537041N01341378EA0091500883000048000000
B1041415537112N01341312EA0087500895000248000000
B1041455537153N01341286EA0093200955000508000000
B1041495537185N01341270EA0096000957000520000000
B1041535537220N01341248EA0095700955000556000000
B1041575537255N01341222EA0095300949000576000000
B1042015537290N01341192EA0094900949000592000000
B1042055537326N01341168EA0095100947000568000000
B1042095537361N01341144EA0094700942000548000000
B1042135537392N01341114EA0094200941000536000000
B1042175537422N01341080EA0094000939000548000000
B1042215537452N01341041EA0093800938000568000000
B1042255537482N01341001EA0094200944000560000000
B1042295537509N01340958EA0094700947000548000000
B1042335537535N01340913EA0095300953000540000000
B1042375537560N01340869EA0095700959000540000000
B1042415537586N01340823EA0096000960000544000000
B1042455537614N01340772EA0095900959000556000000
B1042495537644N01340723EA0096000961000560000000
B1042535537671N01340675EA0096400967000540000000
B1042575537699N01340628EA0096800968000528000000
B1043015537723N01340580EA0096900971000520000000
B1043055537749N01340529EA0096900969000500000000
B1043095537773N01340479EA0096600962000416000000
B1043135537796N01340427EA0095700957000316000000
B1043175537816N01340377EA0095600957000204000000
B1043215537833N01340333EA0095600954000160000000
B1043255537851N01340289EA0095000949000104000000
B1043295537848N01340233EA0094300936000076000000
B1043335537799N01340193EA0092900925000056000000
B1043375537738N01340168EA0092200924000040000000
B1043415537679N01340139EA0091900919000028000000
B1043455537618N01340113EA0091100910000020000000
B1043495537549N01340082EA0089900900000020000000
B1043535537480N01340048EA0089400894000016000000
B1043575537411N01340005EA0087900871000016000000
B1044015537332N01339959EA0086000861000020000000
B1044055537253N01339922EA0086100876000016000000
B1044095537176N01339896EA0087700880000016000000
B1044135537097N01339875EA0087400861000016000000
B1044175537007N01339845EA0084300842000020000000
B1044215536923N01339826EA0085500879000020000000
B1044255536845N01339838EA0088300885000016000000
B1044295536761N01339883EA0087700870000016000000
B1044335536674N01339959EA0085500848000016000000
B1044375536586N01340055EA0084400855000016000000
B1044415536513N01340144EA0086500871000012000000
B1044455536438N01340239EA0085600851000012000000
B1044495536358N01340343EA0084400843000012000000
B1044535536276N01340456EA0082600821000012000000
B1044575536196N01340586EA0081400818000016000000
B1045015536120N01340723EA0082200825000020000000
B1045055536052N01340863EA0083600846000024000000
B1045095536052N01340991EA0088000889000024000000
B1045135536089N01341034EA0088600882000020000000
B1045175536109N01340987EA0088000883000016000000
B1045215536083N01340936EA0088500884000016000000
B1045255536019N01340948EA0088200880000012000000
B1045295535954N01341038EA0088100883000012000000
B1045335535896N01341148EA0089100897000012000000
B1045375535875N01341279EA0090300904000012000000
B1045415535907N01341376EA0090200902000008000000
B1045455535950N01341373EA0091100917000008000000
B1045495535954N01341313EA0091800915000008000000
B1045535535903N01341275EA0091600915000008000000
B1045575535832N01341337EA0091600919000012000000
B1046015535773N01341447EA0091900920000012000000
B1046055535716N01341560EA0091600914000012000000
B1046095535656N01341678EA0091000915000012000000
B1046135535607N01341802EA0091600919000012000000
B1046175535571N01341932EA0091800918000012000000
B1046215535577N01342061EA0091500912000012000000
B1046255535606N01342178EA0090400904000008000000
B1046295535639N01342282EA0090700913000008000000
B1046335535681N01342349EA0092200927000008000000
B1046375535708N01342321EA0093200932000012000000
B1046415535667N01342275EA0094000947000012000000
B1046455535602N01342338EA0095400957000012000000
B1046495535581N01342468EA0096000963000012000000
B1046535535621N01342517EA0096400965000012000000
B1046575535629N01342465EA0097000975000012000000
B1047015535582N01342427EA0097800985000008000000
B1047055535511N01342460EA0098400984000008000000
B1047095535459N01342565EA0098600993000008000000
B1047135535460N01342682EA0099400996000008000000
B1047175535489N01342767EA0099500995000004000000
B1047215535528N01342838EA0099000987000004000000
B1047255535574N01342890EA0098700990000008000000
B1047295535623N01342902EA0099301000000008000000
B1047335535639N01342854EA0100901015000008000000
B1047375535597N01342813EA0101901022000008000000
B1047415535533N01342869EA0102701031000008000000
B1047455535504N01342995EA0103401034000012000000
B1047495535530N01343093EA0103901038000012000000
B1047535535572N01343092EA0104101041000012000000
B1047575535574N01343024EA0105001048000016000000
B1048015535551N01342942EA0103601025000012000000
B1048055535507N01342838EA0101901004000016000000
B1048095535451N01342718EA0099700986000020000000
B1048135535391N01342590EA0098600983000024000000
B1048175535330N01342460EA0097600962000028000000
B1048215535269N01342314EA0094900937000028000000
B1048255535210N01342175EA0094700957000028000000
B1048295535152N01342049EA0095000940000028000000
B1048335535095N01341912EA0092900924000028000000
B1048375535040N01341776EA0092300921000028000000
B1048415534988N01341645EA0091500912000028000000
B1048455534940N01341515EA0091800926000032000000
B1048495534895N01341395EA0092900927000028000000
B1048535534857N01341257EA0090100893000032000000
B1048575534835N01341104EA0088700894000032000000
B1049015534815N01340967EA0090500920000036000000
B1049055534792N01340833EA0091800918000032000000
B1049095534768N01340698EA0091700918000028000000
B1049135534749N01340562EA0091500911000028000000
B1049175534727N01340417EA0089500887000028000000
B1049215534705N01340261EA0088100882000028000000
B1049255534687N01340109EA0088700896000028000000
B1049295534675N01339972EA0090000901000032000000
B1049335534668N01339843EA0089100888000052000000
B1049375534661N01339728EA0087800863000056000000
B1049415534657N01339617EA0084100811000064000000
B1049455534661N01339496EA0077800742000080000000
B1049495534670N01339359EA0071100687000096000000
B1049535534681N01339223EA0065300633000104000000
B1049575534696N01339088EA0059600582000108000000
B1050015534711N01338960EA0056700572000096000000
B1050055534724N01338839EA0056900580000068000000
B1050095534732N01338734EA0057800582000060000000
B1050135534698N01338655EA0057000568000056000000
B1050175534622N01338660EA0054200536000052000000
B1050215534566N01338791EA0051500518000052000000
B1050255534576N01338948EA0049700493000048000000
B1050295534637N01339033EA0046500463000044000000
B1050335534703N01339019EA0045000453000044000000
B1050375534737N01338947EA0045300464000032000000
B1050415534746N01338865EA0046500482000028000000
B1050455534729N01338789EA0048600495000020000000
B1050495534662N01338800EA0049200500000020000000
B1050535534629N01338937EA0049300500000020000000
B1050575534667N01339041EA0049500504000020000000
B1051015534711N01339095EA0051000523000016000000
B1051055534740N01339065EA0051600524000012000000
B1051095534702N01339015EA0051800528000012000000
B1051135534636N01339075EA0051900525000012000000
B1051175534628N01339212EA0051700523000012000000
B1051215534672N01339268EA0052200531000012000000
B1051255534707N01339242EA0052300527000012000000
B1051295534727N01339169EA0051200521000012000000
B1051335534736N01339088EA0050700513000012000000
B1051375534741N01339000EA0051100525000012000000
B1051415534723N01338934EA0053100541000012000000
B1051455534659N01338972EA0053800543000016000000
B1051495534653N01339101EA0054500556000016000000
B1051535534698N01339153EA0055100557000016000000
B1051575534724N01339116EA0055700565000012000000
B1052015534741N01339049EA0054300534000012000000
B1052055534759N01338947EA0052000528000012000000
B1052095534772N01338844EA0052600546000016000000
B1052135534771N01338778EA0057200593000016000000
B1052175534722N01338779EA0058700582000020000000
B1052215534697N01338909EA0056200548000032000000
B1052255534750N01339004EA0056500590000028000000
B1052295534800N01339021EA0059200598000024000000
B1052335534817N01338971EA0059200594000020000000
B1052375534806N01338895EA0057300563000024000000
B1052415534809N01338790EA0053700538000024000000
B1052455534822N01338683EA0052700529000020000000
B1052495534836N01338571EA0050400504000024000000
B1052535534853N01338452EA0048300486000024000000
B1052575534866N01338337EA0047900499000024000000
B1053015534878N01338236EA0048800499000024000000
B1053055534888N01338136EA0048600500000024000000
B1053095534900N01338048EA0049700511000020000000
B1053135534909N01337962EA0049800503000020000000
B1053175534919N01337868EA0048000480000020000000
B1053215534926N01337762EA0046600475000016000000
B1053255534914N01337654EA0046000470000016000000
B1053295534901N01337544EA0045300461000016000000
B1053335534893N01337437EA0045000460000016000000
B1053375534884N01337331EA0044600453000016000000
B1053415534879N01337223EA0044100452000016000000
B1053455534871N01337114EA0044000455000016000000
B1053495534861N01337028EA0045700474000016000000
B1053535534827N01336962EA0046500467000020000000
B1053575534785N01336896EA0045300458000016000000
B1054015534765N01336809EA0044400454000020000000
B1054055534757N01336718EA0044900469000020000000
B1054095534766N01336650EA0047000481000016000000
B1054135534806N01336614EA0047600483000012000000
B1054175534840N01336569EA0048000494000012000000
B1054215534810N01336521EA0049000501000012000000
B1054255534753N01336580EA0049800510000012000000
B1054295534748N01336714EA0051100518000012000000
B1054335534797N01336805EA0050400512000012000000
B1054375534839N01336777EA0051100528000012000000
B1054415534844N01336720EA0052800538000012000000
B1054455534798N01336696EA0053100538000016000000
B1054495534753N01336794EA0054000551000012000000
B1054535534775N01336923EA0054900552000012000000
B1054575534831N01336954EA0055200564000012000000
B1055015534841N01336896EA0056900578000012000000
B1055055534792N01336871EA0057600583000016000000
B1055095534745N01336970EA0058700596000016000000
B1055135534758N01337112EA0059200597000012000000
B1055175534813N01337180EA0060000612000016000000
B1055215534845N01337144EA0061500623000012000000
B1055255534824N01337088EA0061800624000012000000
B1055295534762N01337109EA0062200629000016000000
B1055335534737N01337236EA0063500649000016000000
B1055375534776N01337339EA0064500649000012000000
B1055415534817N01337316EA0065300661000012000000
B1055455534791N01337265EA0065900665000012000000
B1055495534733N01337327EA0067100678000012000000
B1055535534733N01337468EA0067900683000012000000
B1055575534785N01337535EA0068200695000012000000
B1056015534811N01337492EA0069500702000012000000
B1056055534774N01337450EA0069500702000012000000
B1056095534714N01337515EA0070300712000012000000
B1056135534701N01337650EA0071500724000012000000
B1056175534745N01337749EA0072500732000012000000
B1056215534792N01337747EA0073700744000012000000
B1056255534797N01337689EA0074000742000012000000
B1056295534748N01337665EA0074000745000016000000
B1056335534701N01337768EA0074900753000012000000
B1056375534723N01337897EA0075600766000012000000
B1056415534775N01337933EA0076600770000008000000
B1056455534806N01337888EA0076400767000008000000
B1056495534822N01337811EA0076000764000012000000
B1056535534832N01337728EA0076500774000012000000
B1056575534836N01337641EA0076800769000012000000
B1057015534835N01337550EA0076000762000012000000
B1057055534828N01337456EA0075300751000012000000
B1057095534826N01337349EA0073100724000012000000
B1057135534820N01337243EA0073000738000012000000
B1057175534814N01337152EA0073800740000012000000
B1057215534818N01337067EA0073900739000020000000
B1057255534858N01337027EA0073500725000020000000
B1057295534924N01337035EA0071200703000020000000
B1057335534999N01337075EA0069900701000020000000
B1057375535070N01337112EA0070200704000020000000
B1057415535138N01337147EA0069900698000020000000
B1057455535205N01337187EA0069000690000016000000
B1057495535270N01337218EA0068300684000020000000
B1057535535334N01337244EA0067800682000016000000
B1057575535391N01337274EA0067900679000016000000
B1058015535450N01337307EA0067000668000016000000
B1058055535503N01337330EA0066400670000016000000
B1058095535554N01337347EA0066000656000012000000
B1058135535613N01337369EA0064300633000016000000
B1058175535689N01337408EA0061100603000016000000
B1058215535771N01337452EA0059300596000016000000
B1058255535853N01337496EA0058200585000016000000
B1058295535936N01337533EA0057300574000020000000
B1058335536019N01337567EA0056000560000020000000
B1058375536104N01337598EA0055300564000020000000
B1058415536175N01337626EA0056800581000020000000
B1058455536240N01337659EA0058100592000024000000
B1058495536291N01337656EA0060600617000020000000
B1058535536313N01337599EA0062000634000020000000
B1058575536283N01337542EA0064600659000016000000
B1059015536224N01337557EA0065100657000016000000
B1059055536185N01337669EA0064800655000016000000
B1059095536214N01337771EA0065400664000020000000
B1059135536258N01337802EA0066800683000016000000
B1059175536293N01337784EA0068100691000016000000
B1059215536278N01337741EA0069300702000012000000
B1059255536224N01337756EA0069300696000012000000
B1059295536189N01337867EA0069300704000012000000
B1059335536215N01337970EA0070800722000012000000
B1059375536263N01337993EA0072100729000012000000
B1059415536295N01337967EA0073400742000012000000
B1059455536278N01337915EA0074400751000012000000
B1059495536222N01337919EA0074700752000012000000
B1059535536180N01338020EA0075400760000012000000
B1059575536192N01338157EA0075600751000016000000
B1100015536241N01338262EA0076100775000016000000
B1100055536284N01338272EA0078400796000012000000
B1100095536274N01338218EA0079800804000012000000
B1100135536214N01338235EA0082100827000016000000
B1100175536175N01338352EA0082400826000016000000
B1100215536192N01338486EA0083000840000016000000
B1100255536235N01338518EA0084800858000012000000
B1100295536235N01338461EA0086200869000012000000
B1100335536179N01338449EA0087900888000012000000
B1100375536131N01338542EA0089400900000012000000
B1100415536131N01338679EA0090000897000016000000
B1100455536175N01338748EA0090900923000012000000
B1100495536197N01338714EA0093400938000012000000
B1100535536158N01338675EA0094700953000012000000
B1100575536100N01338737EA0095700960000016000000
B1101015536092N01338872EA0096500964000016000000
B1101055536132N01338938EA0097800984000016000000
B1101095536149N01338899EA0099400995000012000000
B1101135536109N01338860EA0100000999000016000000
B1101175536041N01338902EA0100001005000016000000
B1101215536002N01339028EA0101201022000016000000
B1101255536016N01339151EA0102901037000012000000
B1101295536062N01339189EA0104201045000012000000
B1101335536083N01339146EA0105301059000012000000
B1101375536046N01339114EA0106801070000012000000
B1101415535993N01339176EA0107501069000012000000
B1101455535975N01339314EA0107801080000012000000
B1101495536007N01339415EA0109401094000012000000
B1101535536052N01339433EA0110301104000008000000
B1101575536058N01339380EA0111501116000008000000
B1102015536016N01339351EA0112401120000008000000
B1102055535959N01339429EA0112701123000012000000
B1102095535948N01339572EA0114001140000012000000
B1102135535981N01339671EA0115301150000012000000
B1102175536029N01339682EA0115201144000012000000
B1102215536031N01339617EA0115601158000016000000
B1102255535977N01339601EA0117601170000016000000
B1102295535912N01339606EA0117301162000012000000
B1102335535838N01339614EA0116601160000016000000
B1102375535759N01339628EA0116201153000016000000
B1102415535676N01339640EA0116001161000016000000
B1102455535595N01339656EA0116601163000016000000
B1102495535513N01339669EA0116701163000012000000
B1102535535430N01339687EA0116601157000012000000
B1102575535344N01339705EA0115201148000012000000
B1103015535259N01339726EA0115101145000012000000
B1103055535174N01339784EA0114901143000012000000
B1103095535134N01339944EA0113901110000016000000
B1103135535192N01340079EA0109601062000020000000
B1103175535285N01340143EA0104701026000024000000
B1103215535386N01340183EA0101300998000024000000
B1103255535491N01340215EA0099300982000028000000
B1103295535602N01340245EA0096800943000040000000
B1103335535723N01340263EA0093600930000052000000
B1103375535845N01340294EA0092800925000052000000
B1103415535962N01340333EA0093500949000048000000
B1103455536052N01340347EA0098401009000044000000
B1103495536133N01340364EA0100901004000036000000
B1103535536215N01340393EA0100601001000032000000
B1103575536297N01340419EA0100100998000024000000
B1104015536375N01340449EA0099900998000032000000
B1104055536452N01340480EA0099600992000024000000
B1104095536530N01340507EA0098600979000024000000
B1104135536612N01340532EA0097200969000020000000
B1104175536695N01340553EA0096400959000020000000
B1104215536778N01340579EA0095600954000020000000
B1104255536860N01340607EA0095300949000020000000
B1104295536941N01340633EA0094800943000020000000
B1104335537021N01340654EA0094000935000016000000
B1104375537102N01340680EA0093100929000016000000
B1104415537180N01340713EA0092500916000020000000
B1104455537261N01340744EA0091000914000024000000
B1104495537320N01340776EA0094600952000020000000
B1104535537383N01340804EA0094000934000020000000
B1104575537445N01340824EA0095000952000016000000
B1105015537513N01340846EA0094400937000020000000
B1105055537584N01340876EA0093600931000016000000
B1105095537662N01340905EA0092500923000020000000
B1105135537736N01340935EA0093700950000020000000
B1105175537805N01340962EA0095200942000020000000
B1105215537878N01340989EA0095000952000016000000
B1105255537952N01341014EA0093800921000016000000
B1105295538033N01341036EA0091700907000016000000
B1105335538116N01341054EA0089700886000020000000
B1105375538200N01341070EA0088500886000024000000
B1105415538282N01341084EA0088500886000024000000
B1105455538351N01341100EA0090400911000020000000
B1105495538414N01341117EA0092200943000020000000
B1105535538454N01341112EA0096600963000016000000
B1105575538440N01341057EA0096800963000020000000
B1106015538381N01341086EA0097300972000016000000
B1106055538333N01341181EA0097800974000016000000
B1106095538302N01341299EA0098600988000016000000
B1106135538317N01341413EA0099800998000012000000
B1106175538371N01341473EA0100401004000016000000
B1106215538425N01341526EA0101601021000012000000
B1106255538473N01341577EA0103001032000012000000
B1106295538523N01341623EA0102801015000008000000
B1106335538589N01341664EA0099700981000012000000
B1106375538665N01341694EA0098800988000016000000
B1106415538736N01341714EA0099000987000016000000
B1106455538806N01341714EA0098200967000016000000
B1106495538880N01341698EA0095900953000016000000
B1106535538953N01341684EA0095400950000016000000
B1106575539026N01341669EA0094600942000016000000
B1107015539097N01341664EA0094300940000016000000
B1107055539168N01341655EA0093500929000016000000
B1107095539235N01341645EA0092700920000016000000
B1107135539305N01341638EA0091600913000016000000
B1107175539376N01341632EA0091100907000016000000
B1107215539445N01341624EA0090500902000016000000
B1107255539513N01341616EA0089500884000016000000
B1107295539586N01341608EA0087600864000016000000
B1107335539660N01341594EA0086100862000016000000
B1107375539728N01341564EA0086400866000016000000
B1107415539785N01341515EA0086400861000016000000
B1107455539841N01341457EA0085600855000016000000
B1107495539883N01341407EA0088000897000016000000
B1107535539913N01341366EA0089600889000012000000
B1107575539953N01341308EA0086700858000016000000
B1108015540001N01341251EA0086200870000016000000
B1108055540046N01341196EA0086500861000016000000
B1108095540093N01341139EA0086400864000016000000
B1108135540143N01341083EA0086000860000016000000
B1108175540193N01341030EA0085900859000016000000
B1108215540235N01340984EA0087400884000016000000
B1108255540278N01340943EA0087000853000016000000
B1108295540338N01340896EA0084300836000016000000
B1108335540395N01340853EA0084800868000016000000
B1108375540435N01340828EA0088600890000016000000
B1108415540479N01340794EA0087400859000016000000
B1108455540535N01340748EA0085400854000016000000
B1108495540592N01340710EA0085600852000016000000
B1108535540655N01340675EA0084400837000016000000
B1108575540724N01340644EA0083400833000016000000
B1109015540793N01340620EA0083500837000016000000
B1109055540863N01340607EA0083500835000016000000
B1109095540936N01340612EA0083800840000016000000
B1109135541005N01340624EA0084300841000016000000
B1109175541076N01340638EA0083200823000016000000
B1109215541151N01340649EA0081300807000016000000
B1109255541228N01340661EA0080100800000016000000
B1109295541301N01340672EA0079300785000016000000
B1109335541379N01340680EA0076900762000020000000
B1109375541458N01340685EA0075700754000020000000
B1109415541536N01340688EA0074400743000016000000
B1109455541613N01340689EA0074000738000016000000
B1109495541691N01340694EA0074000751000020000000
B1109535541759N01340702EA0075800760000016000000
B1109575541833N01340706EA0074500742000016000000
B1110015541905N01340707EA0074800776000020000000
B1110055541950N01340719EA0080100816000016000000
B1110095541986N01340703EA0081600808000016000000
B1110135542034N01340683EA0078600758000016000000
B1110175542104N01340677EA0075300753000020000000
B1110215542176N01340675EA0074700746000020000000
B1110255542246N01340680EA0074000736000020000000
B1110295542316N01340687EA0073600738000020000000
B1110335542383N01340690EA0073500731000020000000
B1110375542451N01340696EA0072500721000020000000
B1110415542524N01340697EA0070700699000020000000
B1110455542598N01340701EA0069700698000020000000
B1110495542672N01340713EA0069000684000020000000
B1110535542748N01340719EA0067600680000020000000
B1110575542801N01340711EA0069800719000016000000
B1111015542847N01340696EA0071300708000016000000
B1111055542888N01340651EA0070400703000016000000
B1111095542906N01340571EA0069800702000016000000
B1111135542909N01340499EA0071300719000016000000
B1111175542913N01340425EA0071300704000012000000
B1111215542906N01340338EA0070400711000016000000
B1111255542901N01340268EA0072300736000012000000
B1111295542906N01340212EA0074000744000012000000
B1111335542932N01340172EA0074600744000012000000
B1111375542939N01340118EA0074600746000012000000
B1111415542929N01340055EA0074100736000012000000
B1111455542913N01339988EA0072800719000012000000
B1111495542888N01339897EA0070000708000016000000
B1111535542869N01339834EA0072900742000016000000
B1111575542854N01339775EA0073600734000012000000
B1112015542847N01339695EA0072700731000012000000
B1112055542813N01339643EA0075600769000012000000
B1112095542754N01339705EA0077300772000012000000
B1112135542747N01339835EA0077400778000016000000
B1112175542792N01339884EA0078200790000016000000
B1112215542823N01339848EA0079500804000016000000
B1112255542806N01339795EA0081100815000016000000
B1112295542741N01339818EA0081600814000016000000
B1112335542701N01339940EA0082200831000016000000
B1112375542711N01340065EA0083800839000016000000
B1112415542756N01340151EA0084800858000016000000
B1112455542799N01340146EA0086400867000016000000
B1112495542778N01340092EA0087300878000016000000
B1112535542715N01340138EA0088400885000012000000
B1112575542701N01340274EA0089700905000016000000
B1113015542739N01340375EA0092200926000016000000
B1113055542784N01340373EA0092900928000012000000
B1113095542779N01340308EA0093800941000016000000
B1113135542724N01340287EA0095000949000016000000
B1113175542663N01340373EA0095800961000016000000
B1113215542663N01340508EA0097400981000012000000
B1113255542706N01340581EA0099601001000012000000
B1113295542743N01340564EA0100701004000016000000
B1113335542731N01340505EA0101301011000012000000
B1113375542672N01340493EA0101201004000012000000
B1113415542617N01340589EA0102101027000012000000
B1113455542602N01340719EA0104101040000012000000
B1113495542631N01340827EA0105301053000012000000
B1113535542678N01340840EA0107101070000012000000
B1113575542684N01340788EA0108301074000012000000
B1114015542626N01340785EA0108401077000016000000
B1114055542579N01340898EA0109401093000016000000
B1114095542574N01341038EA0111701115000012000000
B1114135542613N01341126EA0113301127000012000000
B1114175542645N01341097EA0114201145000012000000
B1114215542610N01341058EA0115701149000012000000
B1114255542550N01341136EA0116101156000020000000
B1114295542537N01341279EA0117901181000024000000
B1114335542562N01341395EA0119701190000020000000
B1114375542611N01341415EA0120001190000016000000
B1114415542601N01341352EA0121101207000016000000
B1114455542537N01341373EA0122601223000012000000
B1114495542506N01341499EA0124801246000012000000
B1114535542537N01341611EA0126101249000012000000
B1114575542589N01341617EA0126201252000012000000
B1115015542581N01341554EA0127901274000012000000
B1115055542520N01341545EA0129301280000012000000
B1115095542459N01341646EA0129901295000016000000
B1115135542468N01341788EA0132101314000012000000
B1115175542519N01341854EA0132901316000012000000
B1115215542540N01341802EA0133101326000016000000
B1115255542485N01341781EA0134801347000012000000
B1115295542425N01341873EA0136801363000012000000
B1115335542422N01342015EA0138401375000012000000
B1115375542467N01342093EA0138901373000012000000
B1115415542505N01342057EA0139001380000012000000
B1115455542498N01341996EA0140701396000012000000
B1115495542444N01341985EA0142101411000012000000
B1115535542388N01342083EA0142701406000012000000
B1115575542406N01342221EA0143001424000012000000
B1116015542458N01342282EA0144701430000012000000
B1116055542515N01342315EA0144301426000012000000
B1116095542575N01342319EA0143901419000012000000
B1116135542641N01342308EA0142101390000016000000
B1116175542723N01342300EA0138001355000020000000
B1116215542809N01342295EA0136901353000024000000
B1116255542892N01342289EA0136601350000028000000
B1116295542973N01342279EA0136301345000024000000
B1116335543055N01342269EA0136001346000032000000
B1116375543135N01342265EA0136001341000028000000
B1116415543218N01342260EA0135001331000024000000
B1116455543303N01342258EA0134101322000024000000
B1116495543390N01342256EA0133001315000020000000
B1116535543477N01342256EA0132501310000020000000
B1116575543562N01342253EA0132001305000024000000
B1117015543645N01342250EA0131301296000024000000
B1117055543728N01342253EA0131301303000028000000
B1117095543809N01342261EA0131801303000032000000
B1117135543893N01342271EA0130701276000032000000
B1117175543988N01342288EA0128301266000032000000
B1117215544084N01342309EA0127601255000032000000
B1117255544180N01342335EA0126801254000028000000
B1117295544277N01342365EA0126001245000032000000
B1117335544369N01342393EA0125401239000024000000
B1117375544461N01342421EA0124401228000024000000
B1117415544552N01342451EA0123601226000024000000
B1117455544638N01342483EA0123801224000024000000
B1117495544725N01342517EA0123301216000020000000
B1117535544811N01342544EA0122401216000020000000
B1117575544889N01342570EA0123101220000020000000
B1118015544966N01342598EA0122801209000020000000
B1118055545045N01342634EA0121301197000020000000
B1118095545123N01342679EA0120701194000020000000
B1118135545200N01342731EA0119901185000020000000
B1118175545278N01342785EA0119201178000020000000
B1118215545354N01342839EA0118801181000020000000
B1118255545415N01342887EA0122101219000020000000
B1118295545467N01342933EA0123801230000016000000
B1118335545525N01342975EA0122901200000016000000
B1118375545597N01343004EA0120301185000016000000
B1118415545675N01343033EA0119101176000016000000
B1118455545755N01343063EA0118301177000020000000
B1118495545830N01343099EA0118901174000016000000
B1118535545907N01343129EA0118601181000016000000
B1118575545973N01343159EA0120301195000016000000
B1119015546045N01343189EA0119201173000016000000
B1119055546121N01343218EA0118001172000016000000
B1119095546193N01343242EA0118201164000016000000
B1119135546272N01343262EA0116601142000016000000
B1119175546358N01343279EA0114201119000016000000
B1119215546444N01343292EA0112501125000020000000
B1119255546509N01343307EA0115301162000016000000
B1119295546570N01343326EA0115901131000016000000
B1119335546644N01343336EA0112901118000016000000
B1119375546718N01343348EA0112501112000016000000
B1119415546791N01343355EA0111601102000016000000
B1119455546866N01343365EA0110501091000016000000
B1119495546940N01343370EA0109501083000016000000
B1119535547013N01343372EA0109101078000016000000
B1119575547086N01343372EA0108001067000016000000
B1120015547160N01343374EA0107501067000020000000
B1120055547228N01343379EA0107801069000020000000
B1120095547295N01343380EA0106901057000020000000
B1120135547359N01343383EA0107201085000020000000
B1120175547395N01343398EA0111701117000016000000
B1120215547440N01343402EA0112001101000012000000
B1120255547498N01343388EA0110001093000016000000
B1120295547540N01343384EA0113101145000016000000
B1120335547581N01343378EA0115201141000012000000
B1120375547632N01343374EA0114901121000012000000
B1120415547703N01343355EA0111401103000016000000
B1120455547775N01343340EA0111501121000020000000
B1120495547836N01343327EA0113601116000020000000
B1120535547908N01343310EA0111601108000020000000
B1120575547978N01343298EA0111101093000016000000
B1121015548052N01343279EA0108901069000020000000
B1121055548127N01343257EA0106801058000020000000
B1121095548203N01343236EA0106101050000016000000
B1121135548277N01343214EA0105601046000016000000
B1121175548353N01343189EA0104301027000020000000
B1121215548430N01343167EA0103701035000020000000
B1121255548504N01343146EA0103201018000020000000
B1121295548580N01343125EA0101901008000020000000
B1121335548655N01343108EA0101401010000020000000
B1121375548729N01343094EA0101201004000020000000
B1121415548801N01343081EA0101101003000020000000
B1121455548867N01343071EA0101701027000020000000
B1121495548927N01343062EA0103201022000016000000
B1121535548992N01343045EA0102701020000016000000
B1121575549059N01343024EA0103101030000016000000
B1122015549123N01342998EA0103201009000016000000
B1122055549196N01342959EA0100200994000016000000
B1122095549262N01342921EA0100401007000016000000
B1122135549323N01342886EA0100900995000016000000
B1122175549387N01342846EA0099500984000016000000
B1122215549452N01342815EA0098600977000016000000
B1122255549521N01342787EA0097600965000016000000
B1122295549592N01342767EA0096500956000016000000
B1122335549665N01342754EA0095700950000016000000
B1122375549737N01342742EA0095200943000020000000
B1122415549809N01342728EA0094200934000016000000
B1122455549882N01342711EA0093600931000016000000
B1122495549954N01342689EA0093200923000016000000
B1122535550028N01342665EA0092300913000016000000
B1122575550102N01342639EA0091400908000016000000
B1123015550173N01342611EA0090600894000016000000
B1123055550245N01342575EA0089100884000020000000
B1123095550305N01342520EA0089400890000024000000
B1123135550340N01342436EA0090200904000020000000
B1123175550368N01342353EA0091400912000020000000
B1123215550394N01342275EA0092000921000016000000
B1123255550418N01342205EA0092900925000016000000
B1123295550444N01342128EA0092000910000016000000
B1123335550475N01342040EA0090500899000016000000
B1123375550505N01341951EA0091000913000016000000
B1123415550527N01341875EA0092100919000016000000
B1123455550549N01341794EA0091300900000016000000
B1123495550574N01341703EA0090400914000016000000
B1123535550589N01341636EA0093500940000016000000
B1123575550609N01341567EA0093700932000016000000
B1124015550631N01341513EA0095000956000012000000
B1124055550651N01341465EA0096300960000012000000
B1124095550675N01341409EA0095500945000012000000
B1124135550706N01341348EA0094400941000012000000
B1124175550739N01341287EA0094100933000012000000
B1124215550778N01341217EA0092700922000012000000
B1124255550820N01341166EA0094500969000016000000
B1124295550839N01341129EA0099100988000016000000
B1124335550788N01341114EA0099100980000020000000
B1124375550740N01341220EA0099000987000016000000
B1124415550731N01341355EA0099700993000016000000
B1124455550743N01341482EA0099800998000012000000
B1124495550784N01341556EA0100501001000012000000
B1124535550834N01341571EA0100000990000012000000
B1124575550887N01341538EA0098300981000016000000
B1125015550935N01341493EA0100601017000016000000
B1125055550934N01341444EA0104401035000024000000
B1125095550870N01341487EA0102401002000040000000
B1125135550852N01341650EA0100401001000032000000
B1125175550878N01341782EA0102401038000028000000
B1125215550925N01341846EA0104801041000028000000
B1125255550952N01341810EA0105101046000020000000
B1125295550924N01341756EA0104601032000020000000
B1125335550855N01341766EA0103501031000016000000
B1125375550782N01341806EA0103901041000012000000
B1125415550718N01341892EA0105401057000012000000
B1125455550708N01342029EA0107201071000012000000
B1125495550749N01342105EA0108501080000016000000
B1125535550795N01342096EA0108301075000016000000
B1125575550800N01342040EA0110201104000016000000
B1126015550755N01342011EA0111201098000016000000
B1126055550690N01342081EA0110701104000016000000
B1126095550678N01342218EA0111901110000016000000
B1126135550725N01342293EA0113001129000016000000
B1126175550768N01342301EA0114201134000016000000
B1126215550766N01342245EA0114701145000016000000
B1126255550710N01342228EA0114901129000016000000
B1126295550665N01342353EA0113701133000016000000
B1126335550687N01342484EA0114901147000016000000
B1126375550739N01342561EA0116001158000016000000
B1126415550792N01342617EA0117501175000016000000
B1126455550844N01342663EA0118201165000012000000
B1126495550905N01342704EA0115501133000016000000
B1126535550981N01342735EA0113101122000016000000
B1126575551057N01342755EA0112401117000024000000
B1127015551134N01342780EA0112001111000020000000
B1127055551212N01342807EA0111601106000020000000
B1127095551289N01342834EA0111101099000020000000
B1127135551367N01342863EA0110201090000020000000
B1127175551444N01342891EA0109401084000020000000
B1127215551519N01342925EA0108901079000020000000
B1127255551592N01342962EA0108501073000020000000
B1127295551668N01343001EA0107301062000020000000
B1127335551743N01343042EA0107201064000016000000
B1127375551815N01343081EA0106401053000020000000
B1127415551889N01343120EA0104801037000020000000
B1127455551969N01343157EA0103301020000024000000
B1127495552036N01343193EA0104201072000024000000
B1127535552078N01343229EA0109901100000020000000
B1127575552123N01343263EA0110801100000016000000
B1128015552169N01343292EA0112001120000012000000
B1128055552214N01343316EA0113201126000012000000
B1128095552259N01343324EA0115101150000012000000
B1128135552260N01343268EA0116301150000012000000
B1128175552203N01343241EA0115801144000016000000
B1128215552144N01343339EA0115301144000016000000
B1128255552136N01343485EA0116701171000016000000
B1128295552139N01343612EA0119701191000016000000
B1128335552175N01343678EA0119301171000016000000
B1128375552186N01343619EA0118701184000020000000
B1128415552146N01343570EA0121401207000020000000
B1128455552081N01343615EA0122301210000024000000
B1128495552079N01343752EA0123101228000024000000
B1128535552122N01343783EA0125401246000020000000
B1128575552118N01343730EA0126701261000016000000
B1129015552055N01343731EA0127501262000020000000
B1129055552014N01343852EA0128301278000020000000
B1129095552036N01343957EA0130201295000016000000
B1129135552079N01343990EA0131301305000012000000
B1129175552126N01344013EA0131601294000012000000
B1129215552192N01344035EA0128801258000016000000
B1129255552276N01344050EA0127101260000020000000
B1129295552354N01344065EA0128001269000024000000
B1129335552430N01344086EA0128301277000024000000
B1129375552503N01344109EA0129001271000020000000
B1129415552581N01344128EA0126501234000020000000
B1129455552671N01344138EA0121901196000024000000
B1129495552764N01344147EA0120701202000024000000
B1129535552841N01344167EA0123201230000024000000
B1129575552914N01344186EA0123201214000020000000
B1130015552993N01344198EA0122101208000020000000
B1130055553069N01344198EA0121901205000020000000
B1130095553141N01344182EA0121301199000020000000
B1130135553209N01344155EA0121001199000020000000
B1130175553274N01344125EA0121001194000024000000
B1130215553349N01344124EA0119801182000024000000
B1130255553429N01344139EA0118901176000020000000
B1130295553508N01344160EA0119201187000020000000
B1130335553585N01344182EA0119301181000020000000
B1130375553661N01344203EA0119001175000020000000
B1130415553745N01344221EA0117401142000020000000
B1130455553836N01344238EA0114701140000024000000
B1130495553906N01344251EA0117301191000024000000
B1130535553968N01344267EA0119501167000024000000
B1130575554046N01344288EA0116201143000024000000
B1131015554127N01344310EA0115701151000024000000
B1131055554198N01344332EA0116801180000024000000
B1131095554257N01344355EA0119401171000024000000
B1131135554327N01344381EA0116801143000020000000
B1131175554404N01344407EA0114701133000020000000
B1131215554479N01344432EA0114501134000020000000
B1131255554558N01344458EA0113101113000020000000
B1131295554642N01344489EA0112001107000016000000
B1131335554726N01344529EA0111101096000020000000
B1131375554811N01344581EA0110101090000020000000
B1131415554895N01344636EA0109401079000020000000
B1131455554981N01344697EA0108701074000024000000
B1131495555065N01344757EA0108101068000024000000
B1131535555146N01344806EA0107801076000024000000
B1131575555220N01344850EA0109101086000024000000
B1132015555290N01344896EA0109501076000024000000
B1132055555370N01344938EA0107401059000020000000
B1132095555448N01344973EA0107401074000020000000
B1132135555510N01345009EA0109701084000020000000
B1132175555583N01345043EA0108501077000020000000
B1132215555659N01345074EA0108201070000024000000
B1132255555721N01345107EA0111801128000020000000
B1132295555770N01345140EA0114101126000016000000
B1132335555828N01345175EA0112701103000016000000
B1132375555895N01345207EA0111401109000016000000
B1132415555943N01345239EA0114301140000016000000
B1132455555987N01345263EA0115301146000016000000
B1132495556029N01345270EA0116701159000012000000
B1132535556066N01345253EA0116701148000012000000
B1132575556111N01345216EA0114201117000012000000
B1133015556150N01345140EA0112901123000012000000
B1133055556186N01345066EA0113201111000016000000
B1133095556237N01345000EA0110801097000016000000
B1133135556294N01344953EA0110801111000020000000
B1133175556345N01344927EA0112401109000020000000
B1133215556408N01344910EA0110501092000024000000
B1133255556476N01344908EA0109401081000020000000
B1133295556546N01344906EA0108201073000024000000
B1133335556614N01344913EA0107801070000024000000
B1133375556684N01344923EA0106101043000024000000
B1133415556763N01344930EA0103801031000024000000
B1133455556844N01344927EA0103201027000024000000
B1133495556923N01344925EA0103101035000024000000
B1133535556996N01344926EA0104401039000024000000
B1133575557069N01344923EA0103701025000024000000
B1134015557148N01344923EA0101801006000024000000
B1134055557230N01344926EA0100300995000024000000
B1134095557310N01344926EA0099700994000028000000
B1134135557386N01344922EA0100000998000028000000
B1134175557460N01344915EA0099600985000028000000
B1134215557537N01344905EA0098300978000028000000
B1134255557612N01344908EA0098400980000028000000
B1134295557689N01344910EA0098000975000028000000
B1134335557763N01344909EA0097400966000028000000
B1134375557837N01344905EA0096700963000028000000
B1134415557911N01344901EA0096000951000028000000
B1134455557988N01344896EA0094600938000028000000
B1134495558063N01344888EA0093700931000028000000
B1134535558140N01344878EA0092400917000032000000
B1134575558217N01344869EA0092000925000032000000
B1135015558283N01344866EA0094000940000032000000
B1135055558352N01344854EA0094100934000028000000
B1135095558414N01344839EA0095100964000024000000
B1135135558467N01344827EA0097600981000024000000
B1135175558514N01344814EA0099700995000016000000
B1135215558558N01344801EA0100801003000016000000
B1135255558597N01344780EA0101000999000020000000
B1135295558643N01344752EA0100000986000016000000
B1135335558691N01344706EA0099500997000016000000
B1135375558737N01344661EA0101101023000020000000
B1135415558768N01344622EA0104901042000020000000
B1135455558790N01344563EA0105401049000020000000
B1135495558833N01344563EA0107501075000024000000
B1135535558863N01344670EA0108801074000020000000
B1135575558831N01344808EA0108401075000020000000
B1136015558765N01344847EA0109001081000016000000
B1136055558727N01344795EA0109501083000020000000
B1136095558717N01344723EA0109501090000016000000
B1136135558725N01344658EA0110901105000016000000
B1136175558764N01344633EA0111901118000016000000
B1136215558807N01344720EA0114201143000016000000
B1136255558805N01344858EA0116301155000012000000
B1136295558751N01344956EA0116701158000016000000
B1136335558696N01344944EA0117501172000016000000
B1136375558687N01344883EA0118601178000016000000
B1136415558698N01344819EA0119601196000016000000
B1136455558737N01344800EA0121601213000012000000
B1136495558779N01344887EA0123101224000016000000
B1136535558765N01345032EA0123601224000016000000
B1136575558696N01345082EA0123901234000016000000
B1137015558662N01345032EA0125901253000016000000
B1137055558669N01344979EA0127401266000016000000
B1137095558701N01344951EA0128301278000016000000
B1137135558743N01344952EA0129301288000016000000
B1137175558791N01344969EA0129801282000016000000
B1137215558848N01344982EA0128701271000016000000
B1137255558907N01344974EA0127801259000016000000
B1137295558973N01344945EA0125701241000020000000
B1137335559037N01344908EA0125501248000020000000
B1137375559097N01344862EA0125301237000020000000
B1137415559159N01344814EA0124201237000024000000
B1137455559216N01344769EA0124001223000024000000
B1137495559280N01344723EA0122401204000028000000
B1137535559346N01344671EA0120301183000028000000
B1137575559414N01344613EA0118401174000032000000
B1138015559479N01344555EA0118001170000032000000
B1138055559544N01344497EA0116701153000032000000
B1138095559608N01344440EA0116001156000032000000
B1138135559666N01344390EA0116901158000028000000
B1138175559723N01344343EA0116301148000024000000
B1138215559783N01344294EA0115001133000024000000
B1138255559844N01344243EA0113601124000020000000
B1138295559905N01344190EA0113001116000020000000
B1138335559964N01344134EA0112501112000024000000
B1138375600021N01344080EA0112101108000024000000
B1138415600078N01344025EA0111701103000020000000
B1138455600135N01343976EA0111101096000020000000
B1138495600193N01343922EA0110701097000020000000
B1138535600247N01343875EA0110701090000020000000
B1138575600304N01343823EA0109101076000024000000
B1139015600364N01343775EA0108501077000024000000
B1139055600421N01343729EA0108301069000020000000
B1139095600479N01343677EA0107601061000020000000
B1139135600534N01343619EA0106501049000020000000
B1139175600589N01343557EA0105601045000024000000
B1139215600631N01343514EA0107301085000024000000
B1139255600668N01343479EA0108501058000020000000
B1139295600719N01343427EA0104501020000020000000
B1139335600775N01343372EA0102501022000020000000
B1139375600827N01343320EA0102701018000020000000
B1139415600880N01343264EA0100900988000024000000
B1139455600939N01343207EA0099400987000024000000
B1139495601005N01343181EA0098900983000028000000
B1139535601062N01343194EA0101501019000024000000
B1139575601117N01343219EA0102101003000024000000
B1140015601183N01343255EA0100300987000020000000
B1140055601257N01343292EA0098800982000020000000
B1140095601316N01343333EA0101301028000020000000
B1140135601363N01343346EA0104201033000016000000
B1140175601407N01343336EA0104501040000012000000
B1140215601457N01343392EA0105501057000012000000
B1140255601474N01343517EA0107801076000012000000
B1140295601437N01343644EA0109501091000016000000
B1140335601368N01343699EA0111101105000020000000
B1140375601316N01343662EA0112001111000016000000
B1140415601311N01343591EA0112101110000016000000
B1140455601346N01343553EA0112401124000016000000
B1140495601394N01343587EA0114101140000012000000
B1140535601437N01343675EA0115801152000012000000
B1140575601468N01343795EA0117101168000012000000
B1141015601474N01343937EA0119101189000012000000
B1141055601438N01344065EA0120601197000020000000
B1141095601369N01344116EA0121301207000020000000
B1141135601324N01344073EA0123201231000016000000
B1141175601321N01344009EA0125101251000016000000
B1141215601356N01343983EA0127101264000016000000
B1141255601404N01344037EA0128001271000012000000
B1141295601431N01344164EA0128901282000016000000
B1141335601418N01344311EA0129801288000012000000
B1141375601360N01344401EA0130501295000016000000
B1141415601301N01344381EA0131701308000016000000
B1141455601285N01344311EA0133001325000016000000
B1141495601303N01344264EA0135401343000016000000
B1141535601348N01344314EA0136101347000012000000
B1141575601351N01344453EA0137101360000012000000
B1142015601295N01344541EA0138401369000012000000
B1142055601238N01344518EA0139201381000012000000
B1142095601225N01344459EA0140901402000012000000
B1142135601261N01344444EA0142201405000008000000
B1142175601301N01344535EA0142501415000012000000
B1142215601283N01344668EA0144101431000012000000
B1142255601221N01344717EA0145001434000012000000
B1142295601171N01344671EA0146001448000016000000
B1142335601157N01344610EA0147601462000016000000
B1142375601192N01344587EA0148201466000016000000
B1142415601236N01344661EA0148601468000016000000
B1142455601227N01344802EA0149201478000012000000
B1142495601166N01344878EA0150401492000012000000
B1142535601117N01344845EA0151401500000012000000
B1142575601117N01344783EA0152301507000008000000
B1143015601148N01344735EA0152401499000012000000
B1143055601201N01344713EA0151401494000012000000
B1143095601259N01344693EA0151001495000016000000
B1143135601311N01344637EA0150501483000016000000
B1143175601360N01344563EA0149801478000016000000
B1143215601415N01344484EA0148901469000020000000
B1143255601473N01344407EA0147901453000020000000
B1143295601533N01344328EA0146501457000024000000
B1143335601584N01344263EA0148501469000020000000
B1143375601636N01344198EA0147501456000020000000
B1143415601690N01344138EA0146701448000020000000
B1143455601745N01344074EA0145901437000020000000
B1143495601799N01344009EA0145001439000020000000
B1143535601849N01343953EA0146101446000020000000
B1143575601898N01343898EA0145901435000016000000
B1144015601951N01343834EA0144001418000016000000
B1144055602005N01343766EA0143501415000020000000
B1144095602058N01343705EA0142901410000020000000
B1144135602114N01343645EA0142101399000020000000
B1144175602169N01343580EA0140901389000024000000
B1144215602222N01343515EA0140301383000020000000
B1144255602278N01343453EA0139601379000024000000
B1144295602325N01343401EA0141201416000024000000
B1144335602361N01343358EA0143101396000020000000
B1144375602414N01343297EA0139201361000024000000
B1144415602469N01343220EA0137401359000024000000
B1144455602520N01343140EA0136901351000024000000
B1144495602569N01343055EA0136101343000024000000
B1144535602614N01342967EA0135801343000024000000
B1144575602659N01342877EA0135701337000024000000
B1145015602705N01342783EA0134301319000028000000
B1145055602752N01342678EA0132301311000032000000
B1145095602791N01342585EA0133501342000028000000
B1145135602822N01342505EA0136101341000028000000
B1145175602859N01342416EA0134801331000024000000
B1145215602897N01342323EA0134401332000024000000
B1145255602932N01342231EA0134701334000024000000
B1145295602971N01342136EA0134001322000024000000
B1145335603012N01342037EA0133001320000024000000
B1145375603047N01341957EA0135401346000024000000
B1145415603081N01341883EA0135801343000020000000
B1145455603112N01341810EA0135901345000024000000
B1145495603145N01341736EA0135301332000024000000
B1145535603192N01341663EA0133601312000024000000
B1145575603244N01341599EA0132801328000024000000
B1146015603290N01341548EA0134701344000024000000
B1146055603336N01341503EA0135501338000020000000
B1146095603385N01341448EA0134601328000020000000
B1146135603440N01341395EA0133501316000020000000
B1146175603497N01341340EA0132401311000020000000
B1146215603560N01341296EA0132201307000020000000
B1146255603626N01341253EA0131301297000020000000
B1146295603692N01341225EA0132401319000020000000
B1146335603752N01341199EA0133401316000020000000
B1146375603817N01341162EA0131801295000020000000
B1146415603882N01341122EA0130401292000024000000
B1146455603944N01341090EA0130601294000020000000
B1146495604008N01341065EA0130101284000020000000
B1146535604076N01341038EA0129001272000024000000
B1146575604148N01341008EA0127701260000024000000
B1147015604217N01340989EA0127801281000024000000
B1147055604281N01340975EA0128601264000020000000
B1147095604349N01340950EA0126401244000024000000
B1147135604415N01340923EA0125901251000020000000
B1147175604483N01340895EA0125501237000020000000
B1147215604550N01340870EA0124901243000020000000
B1147255604618N01340872EA0125701246000020000000
B1147295604684N01340923EA0125801249000020000000
B1147335604733N01341038EA0125901245000020000000
B1147375604761N01341199EA0124601228000020000000
B1147415604783N01341376EA0123001218000016000000
B1147455604805N01341555EA0122401212000020000000
B1147495604834N01341727EA0121901206000020000000
B1147535604888N01341851EA0121601202000020000000
B1147575604961N01341914EA0120101182000020000000
B1148015605038N01341954EA0118501176000020000000
B1148055605110N01341990EA0118701179000020000000
B1148095605179N01342023EA0118601174000016000000
B1148135605248N01342049EA0117701165000016000000
B1148175605315N01342063EA0117001159000020000000
B1148215605382N01342076EA0116101154000016000000
B1148255605448N01342084EA0115901145000016000000
B1148295605517N01342094EA0115401145000020000000
B1148335605588N01342106EA0114701131000016000000
B1148375605662N01342122EA0113601132000020000000
B1148415605731N01342145EA0114201132000020000000
B1148455605803N01342162EA0112901109000024000000
B1148495605880N01342179EA0111701109000024000000
B1148535605957N01342198EA0111101102000024000000
B1148575606032N01342219EA0111101104000024000000
B1149015606105N01342240EA0110601087000024000000
B1149055606179N01342257EA0108501063000024000000
B1149095606261N01342273EA0105601045000028000000
B1149135606338N01342279EA0105401053000024000000
B1149175606405N01342287EA0106601075000024000000
B1149215606462N01342299EA0108801080000024000000
B1149255606522N01342313EA0109101081000024000000
B1149295606581N01342323EA0109201100000024000000
B1149335606628N01342336EA0111701107000016000000
B1149375606682N01342347EA0112201122000016000000
B1149415606716N01342313EA0113801130000016000000
B1149455606698N01342257EA0114301134000016000000
B1149495606635N01342270EA0115001140000016000000
B1149535606589N01342382EA0114901139000016000000
B1149575606605N01342497EA0115601148000016000000
B1150015606654N01342538EA0115501139000016000000
B1150055606711N01342547EA0113001111000016000000
B1150095606780N01342542EA0110801092000020000000
B1150135606854N01342534EA0108901075000020000000
B1150175606932N01342522EA0107301060000024000000
B1150215607008N01342512EA0106401067000024000000
B1150255607081N01342501EA0107101062000020000000
B1150295607146N01342499EA0108501095000024000000
B1150335607205N01342501EA0109801086000020000000
B1150375607268N01342499EA0108501075000020000000
B1150415607336N01342495EA0107901071000020000000
B1150455607409N01342492EA0107101063000020000000
B1150495607471N01342491EA0108901092000020000000
B1150535607531N01342490EA0108601071000016000000
B1150575607599N01342475EA0106401054000020000000
B1151015607656N01342466EA0108401092000020000000
B1151055607703N01342460EA0108701071000020000000
B1151095607759N01342438EA0105401043000024000000
B1151135607817N01342400EA0103701032000024000000
B1151175607866N01342349EA0104201037000024000000
B1151215607860N01342267EA0104601040000024000000
B1151255607799N01342230EA0104101027000020000000
B1151295607713N01342265EA0102101005000020000000
B1151335607627N01342348EA0100600999000016000000
B1151375607541N01342440EA0099700990000016000000
B1151415607457N01342534EA0098900980000016000000
B1151455607371N01342640EA0097600969000016000000
B1151495607287N01342751EA0096900967000016000000
B1151535607207N01342861EA0097700980000020000000
B1151575607137N01342969EA0099201004000020000000
B1152015607077N01343082EA0100801001000020000000
B1152055607011N01343194EA0100400996000016000000
B1152095606942N01343313EA0100101000000020000000
B1152135606875N01343424EA0101701023000020000000
B1152175606808N01343505EA0103201027000016000000
B1152215606735N01343575EA0102701015000016000000
B1152255606656N01343657EA0101101005000016000000
B1152295606579N01343748EA0100901007000016000000
B1152335606507N01343842EA0101401010000016000000
B1152375606439N01343946EA0102701029000020000000
B1152415606418N01344087EA0105101058000016000000
B1152455606457N01344171EA0107101062000016000000
B1152495606488N01344137EA0106801068000012000000
B1152535606459N01344096EA0108601080000012000000
B1152575606396N01344142EA0109501091000016000000
B1153015606369N01344285EA0110501101000012000000
B1153055606407N01344393EA0112201120000012000000
B1153095606447N01344381EA0113001118000012000000
B1153135606413N01344341EA0113501130000012000000
B1153175606351N01344379EA0115101146000012000000
B1153215606303N01344486EA0116001150000012000000
B1153255606308N01344633EA0116401157000012000000
B1153295606361N01344698EA0117301163000012000000
B1153335606391N01344654EA0117501172000012000000
B1153375606355N01344613EA0118701181000016000000
B1153415606292N01344688EA0119401184000016000000
B1153455606273N01344840EA0120101200000016000000
B1153495606314N01344932EA0121901209000012000000
B1153535606355N01344908EA0122001210000012000000
B1153575606332N01344849EA0123201226000016000000
B1154015606275N01344861EA0124901247000012000000
B1154055606213N01344928EA0126601255000012000000
B1154095606150N01345018EA0127201260000012000000
B1154135606084N01345120EA0127601266000012000000
B1154175606019N01345225EA0128801281000012000000
B1154215605952N01345322EA0129401276000012000000
B1154255605880N01345422EA0129201289000012000000
B1154295605820N01345511EA0133301324000012000000
B1154335605758N01345560EA0134101326000016000000
B1154375605718N01345519EA0134101323000012000000
B1154415605723N01345454EA0133301316000016000000
B1154455605766N01345455EA0133201315000016000000
B1154495605803N01345547EA0133101318000016000000
B1154535605812N01345689EA0132801314000012000000
B1154575605790N01345840EA0133501329000012000000
B1155015605744N01345967EA0134501334000012000000
B1155055605681N01346063EA0135601345000012000000
B1155095605610N01346130EA0136201348000012000000
B1155135605537N01346173EA0136001343000012000000
B1155175605459N01346219EA0135201329000012000000
B1155215605374N01346269EA0133801319000016000000
B1155255605286N01346322EA0132601308000016000000
B1155295605196N01346361EA0131601296000016000000
B1155335605103N01346373EA0130101283000016000000
B1155375605008N01346369EA0129001275000020000000
B1155415604914N01346353EA0128601275000020000000
B1155455604823N01346336EA0128601274000020000000
B1155495604731N01346321EA0128101267000020000000
B1155535604641N01346299EA0127801266000020000000
B1155575604554N01346278EA0128401274000020000000
B1156015604470N01346257EA0128701278000016000000
B1156055604386N01346228EA0129001278000020000000
B1156095604301N01346199EA0128401270000020000000
B1156135604213N01346170EA0128001266000024000000
B1156175604128N01346140EA0127401260000020000000
B1156215604039N01346113EA0126201247000020000000
B1156255603947N01346078EA0124501231000016000000
B1156295603855N01346037EA0124101236000020000000
B1156335603766N01346009EA0124901242000016000000
B1156375603678N01345987EA0124701234000016000000
B1156415603589N01345962EA0123901226000016000000
B1156455603500N01345933EA0123001221000020000000
B1156495603413N01345906EA0122801216000016000000
B1156535603326N01345875EA0121401201000016000000
B1156575603236N01345842EA0120001187000016000000
B1157015603145N01345812EA0118701177000020000000
B1157055603054N01345784EA0118301180000016000000
B1157095602967N01345755EA0118301173000016000000
B1157135602878N01345729EA0117801169000016000000
B1157175602790N01345705EA0117001157000016000000
B1157215602699N01345677EA0115801146000020000000
B1157255602611N01345646EA0114801142000020000000
B1157295602525N01345617EA0114801145000020000000
B1157335602439N01345591EA0114401131000020000000
B1157375602348N01345556EA0111901104000020000000
B1157415602256N01345517EA0110401092000024000000
B1157455602165N01345476EA0109501094000024000000
B1157495602091N01345448EA0112101135000024000000
B1157535602024N01345429EA0114801149000020000000
B1157575601972N01345394EA0116601170000016000000
B1158015601968N01345346EA0118701181000016000000
B1158055602007N01345356EA0118201166000016000000
B1158095602040N01345465EA0116701159000016000000
B1158135602015N01345604EA0117201168000012000000
B1158175601958N01345710EA0118201177000012000000
B1158215601896N01345799EA0119401189000012000000
B1158255601825N01345841EA0120401196000012000000
B1158295601784N01345793EA0121101207000012000000
B1158335601807N01345771EA0122901222000012000000
B1158375601836N01345867EA0123501227000012000000
B1158415601798N01346009EA0124401244000012000000
B1158455601727N01346037EA0126201256000012000000
B1158495601697N01345976EA0127101267000012000000
B1158535601725N01345961EA0128901284000012000000
B1158575601762N01346040EA0130101294000012000000
B1159015601760N01346180EA0131501309000008000000
B1159055601708N01346299EA0132801324000012000000
B1159095601637N01346326EA0134501335000012000000
B1159135601587N01346275EA0135101338000012000000
B1159175601593N01346219EA0135901349000012000000
B1159215601632N01346243EA0137301362000016000000
B1159255601656N01346361EA0137901366000016000000
B1159295601620N01346499EA0139601386000016000000
B1159335601548N01346553EA0140501392000016000000
B1159375601491N01346513EA0140901395000016000000
B1159415601489N01346451EA0141001397000012000000
B1159455601533N01346479EA0142001413000016000000
B1159495601550N01346609EA0143901435000012000000
B1159535601513N01346747EA0145501438000012000000
B1159575601438N01346806EA0145401441000016000000
B1200015601378N01346767EA0146301448000016000000
B1200055601357N01346694EA0146201449000016000000
B1200095601381N01346648EA0147101460000016000000
B1200135601431N01346694EA0148201467000044000000
B1200175601456N01346833EA0149001483000056000000
B1200215601437N01346993EA0150501491000040000000
B1200255601372N01347098EA0151201501000036000000
B1200295601295N01347122EA0152301510000028000000
B1200335601239N01347083EA0153001509000024000000
B1200375601205N01347007EA0152301503000024000000
B1200415601175N01346942EA0153601527000016000000
B1200455601147N01346880EA0153901511000012000000
B1200495601122N01346795EA0152501504000012000000
B1200535601087N01346712EA0152001506000016000000
B1200575601044N01346638EA0152701512000016000000
B1201015601001N01346568EA0152901509000016000000
B1201055600948N01346501EA0151701491000016000000
B1201095600887N01346433EA0149601473000020000000
B1201135600815N01346371EA0148501465000016000000
B1201175600739N01346323EA0148101463000016000000
B1201215600659N01346275EA0147201449000016000000
B1201255600579N01346228EA0146101443000016000000
B1201295600497N01346180EA0145401436000016000000
B1201335600417N01346132EA0145201432000016000000
B1201375600334N01346085EA0143601416000016000000
B1201415600251N01346037EA0142801410000016000000
B1201455600167N01345991EA0142501405000016000000
B1201495600082N01345944EA0141801400000016000000
B1201535559996N01345900EA0141201400000016000000
B1201575559916N01345861EA0141701404000016000000
B1202015559839N01345825EA0141801401000016000000
B1202055559757N01345789EA0140701390000016000000
B1202095559675N01345762EA0141001399000016000000
B1202135559596N01345741EA0141501401000012000000
B1202175559517N01345720EA0141101388000012000000
B1202215559436N01345686EA0139801384000016000000
B1202255559358N01345660EA0140001386000016000000
B1202295559284N01345647EA0140401390000016000000
B1202335559207N01345634EA0139201361000016000000
B1202375559121N01345602EA0136201341000016000000
B1202415559037N01345560EA0135001337000016000000
B1202455558951N01345519EA0134001324000016000000
B1202495558865N01345473EA0133301322000020000000
B1202535558781N01345434EA0133601329000020000000
B1202575558701N01345396EA0133801327000020000000
B1203015558622N01345356EA0133501323000020000000
B1203055558544N01345315EA0133301321000020000000
B1203095558465N01345273EA0133101319000020000000
B1203135558387N01345229EA0132801317000016000000
B1203175558308N01345183EA0132701316000016000000
B1203215558227N01345136EA0132201305000020000000
B1203255558142N01345086EA0130501290000020000000
B1203295558059N01345032EA0129501282000024000000
B1203335557977N01344979EA0129001280000028000000
B1203375557897N01344931EA0129201282000028000000
B1203415557816N01344888EA0129001276000028000000
B1203455557734N01344850EA0128501274000028000000
B1203495557655N01344815EA0129001287000032000000
B1203535557577N01344785EA0129701283000028000000
B1203575557494N01344754EA0129601289000028000000
B1204015557411N01344737EA0131201321000024000000
B1204055557347N01344743EA0135901352000020000000
B1204095557275N01344741EA0135301331000020000000
B1204135557192N01344726EA0132801309000020000000
B1204175557106N01344698EA0131401303000028000000
B1204215557021N01344674EA0130501292000028000000
B1204255556932N01344646EA0129101279000024000000
B1204295556840N01344618EA0128201266000024000000
B1204335556746N01344594EA0127201266000028000000
B1204375556654N01344568EA0126901251000028000000
B1204415556559N01344533EA0125601249000024000000
B1204455556471N01344492EA0125601241000024000000
B1204495556380N01344444EA0124101227000024000000
B1204535556289N01344393EA0123401232000024000000
B1204575556205N01344350EA0124601239000024000000
B1205015556121N01344308EA0123801221000024000000
B1205055556034N01344258EA0122201213000024000000
B1205095555947N01344206EA0121501205000020000000
B1205135555866N01344156EA0121601227000020000000
B1205175555795N01344119EA0123601227000020000000
B1205215555721N01344078EA0122701210000020000000
B1205255555643N01344037EA0121401207000020000000
B1205295555566N01343999EA0121601213000016000000
B1205335555490N01343961EA0121701206000016000000
B1205375555414N01343924EA0120901200000016000000
B1205415555334N01343891EA0120401195000016000000
B1205455555262N01343866EA0120501197000020000000
B1205495555186N01343838EA0119101170000016000000
B1205535555110N01343784EA0115801140000020000000
B1205575555029N01343727EA0114501139000020000000
B1206015554950N01343677EA0114401134000020000000
B1206055554870N01343639EA0114001143000020000000
B1206095554798N01343617EA0115401153000020000000
B1206135554729N01343597EA0115801148000016000000
B1206175554656N01343576EA0115101151000016000000
B1206215554584N01343556EA0115801150000016000000
B1206255554513N01343540EA0116901187000016000000
B1206295554475N01343506EA0120701203000016000000
B1206335554499N01343467EA0120401194000016000000
B1206375554541N01343543EA0120701203000016000000
B1206415554547N01343678EA0121801218000020000000
B1206455554527N01343808EA0123301231000016000000
B1206495554480N01343907EA0124301237000012000000
B1206535554424N01343924EA0124101226000012000000
B1206575554372N01343888EA0122401206000012000000
B1207015554301N01343861EA0119801187000012000000
B1207055554223N01343835EA0119001184000016000000
B1207095554144N01343820EA0118301173000016000000
B1207135554059N01343807EA0117001160000016000000
B1207175553971N01343792EA0115801148000016000000
B1207215553878N01343778EA0114701136000016000000
B1207255553785N01343764EA0113301118000016000000
B1207295553685N01343744EA0110601095000020000000
B1207335553585N01343729EA0109801096000020000000
B1207375553491N01343719EA0109901100000020000000
B1207415553401N01343713EA0110101098000020000000
B1207455553339N01343723EA0113701164000016000000
B1207495553292N01343740EA0117101158000012000000
B1207535553228N01343747EA0115901153000012000000
B1207575553162N01343755EA0115601147000012000000
B1208015553092N01343756EA0115001144000012000000
B1208055553015N01343758EA0113001118000012000000
B1208095552932N01343757EA0111201091000016000000
B1208135552840N01343751EA0108401073000016000000
B1208175552744N01343749EA0107201077000020000000
B1208215552656N01343758EA0109001094000016000000
B1208255552569N01343775EA0108901075000016000000
B1208295552477N01343790EA0107101070000016000000
B1208335552389N01343808EA0107301081000016000000
B1208375552318N01343825EA0110801113000016000000
B1208415552248N01343840EA0111501105000012000000
B1208455552165N01343852EA0108901075000012000000
B1208495552074N01343869EA0107701080000016000000
B1208535551986N01343888EA0108401081000016000000
B1208575551895N01343905EA0108401080000016000000
B1209015551804N01343920EA0107901070000016000000
B1209055551710N01343933EA0107101066000016000000
B1209095551618N01343935EA0106801076000016000000
B1209135551533N01343934EA0108001075000016000000
B1209175551441N01343925EA0106301056000016000000
B1209215551350N01343911EA0105001047000020000000
B1209255551258N01343895EA0103701040000020000000
B1209295551168N01343881EA0103501036000020000000
B1209335551077N01343864EA0102701028000020000000
B1209375550987N01343846EA0102201026000020000000
B1209415550900N01343829EA0102401029000020000000
B1209455550817N01343809EA0102401028000020000000
B1209495550735N01343787EA0102301024000020000000
B1209535550649N01343771EA0101701020000016000000
B1209575550563N01343758EA0101501020000016000000
B1210015550480N01343747EA0101601019000016000000
B1210055550394N01343738EA0101301015000016000000
B1210095550307N01343729EA0100601007000016000000
B1210135550220N01343719EA0100100999000016000000
B1210175550131N01343709EA0098800993000020000000
B1210215550045N01343700EA0099201000000020000000
B1210255549962N01343691EA0099701001000016000000
B1210295549878N01343682EA0099000989000020000000
B1210335549791N01343671EA0098000981000020000000
B1210375549703N01343662EA0097200974000016000000
B1210415549616N01343652EA0096600969000020000000
B1210455549531N01343638EA0096000963000016000000
B1210495549447N01343623EA0095400957000020000000
B1210535549365N01343610EA0095000953000020000000
B1210575549287N01343591EA0094600949000016000000
B1211015549209N01343566EA0093800939000016000000
B1211055549133N01343537EA0093100936000020000000
B1211095549058N01343511EA0092700931000020000000
B1211135548983N01343484EA0092000922000020000000
B1211175548907N01343459EA0091000908000020000000
B1211215548827N01343432EA0089100889000020000000
B1211255548741N01343405EA0087400876000024000000
B1211295548656N01343383EA0086800881000020000000
B1211335548580N01343368EA0088100887000020000000
B1211375548499N01343353EA0087500889000028000000
B1211415548429N01343344EA0089500900000028000000
B1211455548353N01343333EA0089100893000028000000
B1211495548273N01343318EA0088000888000024000000
B1211535548196N01343301EA0088700890000024000000
B1211575548114N01343283EA0087900873000020000000
B1212015548026N01343262EA0085600855000024000000
B1212055547935N01343245EA0083800845000024000000
B1212095547844N01343232EA0083100833000024000000
B1212135547754N01343211EA0082200831000024000000
B1212175547668N01343185EA0081800829000020000000
B1212215547586N01343155EA0081800821000020000000
B1212255547501N01343125EA0080700809000016000000
B1212295547414N01343099EA0079600807000020000000
B1212335547332N01343077EA0080200811000020000000
B1212375547251N01343053EA0079900803000020000000
B1212415547172N01343023EA0078900794000020000000
B1212455547095N01342991EA0078600797000016000000
B1212495547021N01342964EA0078600792000016000000
B1212535546944N01342936EA0077700779000016000000
B1212575546864N01342907EA0076500767000016000000
B1213015546779N01342874EA0075100753000028000000
B1213055546695N01342841EA0074100750000024000000
B1213095546609N01342808EA0074200755000024000000
B1213135546532N01342789EA0076100785000024000000
B1213175546475N01342750EA0078400790000020000000
B1213215546436N01342689EA0079300804000016000000
B1213255546455N01342650EA0080600811000016000000
B1213295546493N01342711EA0081100818000016000000
B1213335546478N01342833EA0082300838000016000000
B1213375546414N01342889EA0083300839000016000000
B1213415546367N01342846EA0083800846000012000000
B1213455546385N01342802EA0084500852000012000000
B1213495546424N01342858EA0085200861000012000000
B1213535546426N01342981EA0087000881000012000000
B1213575546375N01343077EA0088100887000012000000
B1214015546316N01343059EA0088600890000012000000
B1214055546331N01343011EA0088800893000012000000
B1214095546370N01343069EA0089600903000016000000
B1214135546376N01343189EA0091300922000016000000
B1214175546345N01343309EA0092700933000016000000
B1214215546281N01343387EA0092800924000016000000
B1214255546194N01343409EA0090300903000016000000
B1214295546107N01343388EA0090500914000020000000
B1214335546026N01343354EA0091000918000024000000
B1214375545951N01343320EA0091600912000024000000
B1214415545869N01343281EA0090000902000024000000
B1214455545786N01343241EA0088800886000024000000
B1214495545699N01343201EA0086800870000024000000
B1214535545613N01343162EA0086400873000020000000
B1214575545530N01343127EA0086300871000020000000
B1215015545449N01343090EA0086100868000020000000
B1215055545369N01343055EA0085300856000020000000
B1215095545288N01343019EA0084400850000028000000
B1215135545207N01342980EA0084000847000028000000
B1215175545124N01342947EA0084100844000028000000
B1215215545040N01342912EA0082800827000024000000
B1215255544954N01342873EA0081300819000024000000
B1215295544871N01342837EA0080400808000024000000
B1215335544789N01342799EA0079500801000024000000
B1215375544710N01342757EA0078700795000028000000
B1215415544633N01342717EA0078500793000028000000
B1215455544556N01342682EA0079100806000028000000
B1215495544478N01342648EA0079900807000032000000
B1215535544400N01342601EA0079600800000032000000
B1215575544320N01342559EA0078900799000032000000
B1216015544238N01342527EA0078700794000028000000
B1216055544153N01342509EA0078000782000024000000
B1216095544066N01342501EA0076800774000024000000
B1216135543979N01342494EA0076000764000024000000
B1216175543891N01342490EA0075100757000024000000
B1216215543803N01342483EA0074300748000024000000
B1216255543716N01342477EA0073500740000020000000
B1216295543627N01342470EA0072500742000024000000
B1216335543547N01342468EA0073900747000020000000
B1216375543463N01342466EA0073300749000020000000
B1216415543382N01342474EA0074100740000020000000
B1216455543293N01342482EA0071700718000020000000
B1216495543196N01342477EA0070300714000020000000
B1216535543103N01342464EA0070300724000024000000
B1216575543017N01342456EA0071500719000020000000
B1217015542927N01342438EA0069400698000024000000
B1217055542835N01342413EA0068000688000024000000
B1217095542743N01342386EA0067000683000024000000
B1217135542652N01342365EA0066800675000024000000
B1217175542558N01342345EA0065400653000024000000
B1217215542461N01342319EA0063300644000024000000
B1217255542370N01342295EA0063800665000024000000
B1217295542286N01342273EA0065700671000024000000
B1217335542204N01342250EA0066000671000024000000
B1217375542125N01342241EA0067500706000024000000
B1217415542054N01342241EA0071100726000024000000
B1217455541977N01342241EA0071700722000024000000
B1217495541890N01342240EA0070500714000024000000
B1217535541799N01342244EA0070500716000024000000
B1217575541708N01342247EA0070300714000024000000
B1218015541616N01342250EA0069100693000028000000
B1218055541519N01342244EA0067400678000028000000
B1218095541424N01342239EA0066300676000028000000
B1218135541332N01342232EA0066000669000028000000
B1218175541240N01342218EA0065000659000028000000
B1218215541150N01342195EA0064000651000028000000
B1218255541062N01342172EA0063300648000028000000
B1218295540973N01342152EA0063200645000028000000
B1218335540884N01342131EA0062700635000024000000
B1218375540795N01342105EA0061600625000024000000
B1218415540703N01342080EA0060600614000024000000
B1218455540611N01342055EA0059400606000024000000
B1218495540520N01342032EA0058800600000024000000
B1218535540429N01342011EA0057900585000024000000
B1218575540335N01341993EA0056600578000028000000
B1219015540240N01341971EA0055900571000028000000
B1219055540147N01341948EA0055100565000024000000
B1219095540049N01341927EA0054400560000028000000
B1219135539954N01341903EA0055200574000028000000
B1219175539861N01341881EA0056400586000032000000
B1219215539768N01341866EA0057500598000032000000
B1219255539681N01341855EA0058700602000028000000
B1219295539591N01341845EA0058200591000028000000
B1219335539502N01341831EA0057300585000028000000
B1219375539411N01341815EA0056300570000028000000
B1219415539317N01341794EA0054800558000028000000
B1219455539225N01341769EA0053700551000028000000
B1219495539133N01341742EA0053200545000028000000
B1219535539042N01341715EA0052300533000028000000
B1219575538949N01341691EA0051600529000028000000
B1220015538856N01341669EA0051000520000028000000
B1220055538759N01341645EA0050300520000028000000
B1220095538662N01341624EA0050400522000028000000
B1220135538567N01341606EA0050500522000028000000
B1220175538473N01341587EA0050800528000032000000
B1220215538380N01341574EA0050800518000028000000
B1220255538284N01341559EA0049200503000032000000
B1220295538186N01341539EA0048200497000032000000
B1220335538091N01341517EA0047300483000032000000
B1220375537995N01341489EA0046000473000036000000
B1220415537900N01341463EA0045300468000032000000
B1220455537805N01341437EA0044600459000032000000
B1220495537710N01341413EA0043600447000028000000
B1220535537614N01341385EA0042200434000028000000
B1220575537518N01341352EA0041200424000028000000
B1221015537422N01341318EA0040500422000028000000
B1221055537327N01341287EA0040200413000028000000
B1221095537231N01341255EA0039200406000028000000
B1221135537137N01341220EA0038700401000028000000
B1221175537043N01341181EA0038000391000032000000
B1221215536954N01341131EA0037600392000032000000
B1221255536868N01341075EA0037800399000032000000
B1221295536782N01341023EA0038800405000032000000
B1221335536695N01340973EA0038700400000032000000
B1221375536608N01340921EA0038400397000032000000
B1221415536520N01340869EA0037800391000028000000
B1221455536434N01340810EA0037100380000028000000
B1221495536347N01340750EA0036000371000028000000
B1221535536263N01340687EA0035300369000028000000
B1221575536185N01340620EA0035200369000028000000
B1222015536110N01340551EA0034900360000024000000
B1222055536037N01340476EA0034100350000024000000
B1222095535971N01340389EA0032800345000024000000
B1222135535919N01340299EA0033600361000024000000
B1222175535877N01340219EA0034900362000024000000
B1222215535845N01340135EA0034500358000020000000
B1222255535808N01340055EA0034700361000020000000
B1222295535776N01339973EA0035600377000020000000
B1222335535793N01339899EA0037000385000020000000
B1222375535842N01339916EA0037700394000016000000
B1222415535862N01340026EA0039200407000012000000
B1222455535828N01340143EA0039800405000012000000
B1222495535760N01340173EA0039300402000012000000
B1222535535733N01340095EA0040000416000020000000
B1222575535749N01340018EA0041200423000016000000
B1223015535797N01340061EA0041300419000016000000
B1223055535769N01340186EA0041400428000020000000
B1223095535704N01340195EA0043000443000016000000
B1223135535656N01340148EA0043400440000016000000
B1223175535673N01340096EA0043600447000016000000
B1223215535716N01340173EA0043900449000016000000
B1223255535686N01340298EA0044600463000016000000
B1223295535621N01340300EA0045800468000016000000
B1223335535611N01340232EA0045800470000016000000
B1223375535658N01340256EA0046500477000016000000
B1223415535660N01340390EA0047400496000016000000
B1223455535600N01340447EA0049700512000016000000
B1223495535551N01340406EA0050200513000016000000
B1223535535564N01340358EA0051300531000016000000
B1223575535610N01340384EA0052300530000016000000
B1224015535643N01340499EA0052600541000016000000
B1224055535607N01340609EA0054600563000016000000
B1224095535550N01340586EA0056200577000016000000
B1224135535555N01340524EA0057800595000016000000
B1224175535603N01340568EA0059200603000016000000
B1224215535607N01340696EA0060300616000016000000
B1224255535552N01340768EA0061400627000012000000
B1224295535499N01340733EA0063100645000012000000
B1224335535503N01340668EA0064700662000012000000
B1224375535551N01340675EA0065800667000008000000
B1224415535589N01340775EA0066600681000012000000
B1224455535578N01340909EA0067900689000012000000
B1224495535517N01340996EA0068100688000016000000
B1224535535459N01340956EA0069000707000016000000
B1224575535474N01340885EA0070800725000020000000
B1225015535530N01340906EA0072800742000016000000
B1225055535555N01341025EA0074400753000016000000
B1225095535517N01341145EA0075100760000012000000
B1225135535448N01341196EA0075700768000012000000
B1225175535394N01341156EA0076800780000016000000
B1225215535395N01341079EA0078400798000016000000
B1225255535439N01341066EA0080000818000016000000
B1225295535483N01341138EA0081600828000012000000
B1225335535498N01341262EA0082400831000012000000
B1225375535464N01341389EA0082400829000016000000
B1225415535399N01341442EA0082300829000012000000
B1225455535346N01341398EA0082300831000012000000
B1225495535330N01341317EA0083300846000012000000
B1225535535344N01341248EA0084600857000016000000
B1225575535391N01341261EA0086100874000016000000
B1226015535416N01341368EA0086900872000016000000
B1226055535366N01341465EA0087200884000016000000
B1226095535317N01341439EA0088500894000016000000
B1226135535316N01341378EA0089400902000016000000
B1226175535351N01341383EA0090500912000016000000
B1226215535383N01341485EA0090400902000020000000
B1226255535360N01341617EA0090800926000020000000
B1226295535304N01341682EA0092900935000016000000
B1226335535253N01341654EA0092700929000016000000
B1226375535249N01341590EA0093100942000016000000
B1226415535278N01341571EA0094200946000016000000
B1226455535321N01341633EA0094100943000016000000
B1226495535333N01341772EA0093800945000016000000
B1226535535298N01341898EA0095200963000016000000
B1226575535240N01341976EA0096300971000012000000
B1227015535179N01341993EA0097200979000012000000
B1227055535131N01341962EA0097500976000016000000
B1227095535114N01341898EA0097000978000016000000
B1227135535118N01341838EA0097000971000016000000
B1227175535136N01341779EA0095900963000016000000
B1227215535144N01341708EA0096400975000012000000
B1227255535130N01341626EA0097000978000016000000
B1227295535101N01341542EA0097300981000032000000
B1227335535067N01341457EA0097800985000028000000
B1227375535031N01341374EA0098200992000024000000
B1227415534996N01341291EA0098700990000024000000
B1227455534963N01341204EA0097700983000020000000
B1227495534930N01341119EA0097900992000024000000
B1227535534898N01341038EA0098600995000020000000
B1227575534872N01340965EA0100701023000020000000
B1228015534844N01340901EA0102501042000016000000
B1228055534817N01340843EA0104201052000016000000
B1228095534791N01340781EA0105101063000012000000
B1228135534766N01340716EA0106101074000012000000
B1228175534749N01340651EA0107801091000016000000
B1228215534735N01340585EA0109401102000012000000
B1228255534716N01340521EA0110401111000012000000
B1228295534694N01340456EA0110901112000012000000
B1228335534674N01340388EA0111201117000012000000
B1228375534654N01340316EA0111401116000012000000
B1228415534636N01340241EA0110901112000012000000
B1228455534620N01340165EA0110801112000012000000
B1228495534605N01340092EA0110701108000012000000
B1228535534592N01340013EA0109601092000016000000
B1228575534580N01339929EA0107701077000016000000
B1229015534570N01339843EA0106101065000016000000
B1229055534553N01339754EA0104801049000020000000
B1229095534537N01339662EA0103201037000020000000
B1229135534527N01339579EA0103001040000016000000
B1229175534516N01339504EA0103001036000016000000
B1229215534492N01339428EA0101801022000016000000
B1229255534430N01339397EA0101201020000016000000
B1229295534360N01339466EA0100801013000012000000
B1229335534326N01339602EA0100301014000012000000
B1229375534333N01339736EA0100301008000012000000
B1229415534371N01339832EA0099300998000012000000
B1229455534420N01339860EA0098000984000012000000
B1229495534464N01339830EA0096700973000016000000
B1229535534499N01339783EA0095600967000016000000
B1229575534531N01339735EA0095400963000016000000
B1230015534559N01339684EA0094600951000016000000
B1230055534590N01339639EA0093600944000016000000
B1230095534620N01339589EA0092500927000016000000
B1230135534644N01339528EA0091100922000016000000
B1230175534668N01339468EA0090200909000012000000
B1230215534710N01339429EA0089300906000012000000
B1230255534759N01339419EA0088600896000016000000
B1230295534814N01339426EA0087500884000016000000
B1230335534869N01339432EA0086400876000016000000
B1230375534918N01339418EA0086200872000016000000
B1230415534962N01339387EA0085400859000016000000
B1230455535005N01339344EA0083900849000016000000
B1230495535034N01339280EA0082500832000016000000
B1230535535026N01339194EA0081400827000016000000
B1230575534982N01339128EA0080700816000016000000
B1231015534906N01339127EA0079500809000016000000
B1231055534836N01339221EA0078300797000016000000
B1231095534811N01339372EA0078000794000016000000
B1231135534839N01339502EA0077300782000016000000
B1231175534889N01339554EA0076100770000016000000
B1231215534941N01339554EA0074500752000016000000
B1231255534979N01339511EA0073000739000016000000
B1231295534979N01339431EA0071300723000016000000
B1231335534931N01339359EA0069800712000016000000
B1231375534856N01339358EA0069700720000016000000
B1231415534789N01339440EA0069900718000016000000
B1231455534761N01339575EA0068900706000016000000
B1231495534776N01339709EA0067400686000016000000
B1231535534832N01339767EA0065300671000016000000
B1231575534874N01339738EA0065000670000016000000
B1232015534876N01339676EA0065100668000016000000
B1232055534840N01339624EA0064500655000024000000
B1232095534771N01339630EA0063400645000020000000
B1232135534713N01339734EA0062200631000020000000
B1232175534711N01339874EA0061000623000020000000
B1232215534748N01339969EA0060100610000016000000
B1232255534800N01340004EA0058100591000016000000
B1232295534844N01339981EA0056800581000016000000
B1232335534879N01339939EA0056200575000016000000
B1232375534913N01339894EA0055700568000016000000
B1232415534947N01339844EA0055300563000016000000
B1232455534979N01339797EA0054700564000016000000
B1232495535006N01339756EA0055100565000012000000
B1232535535031N01339709EA0054200552000012000000
B1232575535057N01339656EA0053400547000016000000
B1233015535078N01339600EA0052500537000016000000
B1233055535090N01339541EA0051900532000016000000
B1233095535092N01339476EA0051700535000020000000
B1233135535091N01339420EA0052000532000016000000
B1233175535088N01339367EA0051500527000016000000
B1233215535086N01339315EA0050800517000016000000
B1233255535087N01339259EA0049800509000016000000
B1233295535101N01339206EA0048700496000016000000
B1233335535135N01339172EA0047700494000016000000
B1233375535177N01339156EA0048200502000016000000
B1233415535209N01339132EA0048600498000016000000
B1233455535242N01339098EA0047300487000016000000
B1233495535274N01339063EA0046900486000012000000
B1233535535308N01339034EA0046800482000016000000
B1233575535338N01339002EA0046200474000016000000
B1234015535364N01338961EA0045300462000016000000
B1234055535379N01338904EA0043700449000016000000
B1234095535374N01338835EA0042800440000016000000
B1234135535377N01338766EA0041700431000016000000
B1234175535412N01338721EA0040600421000016000000
B1234215535463N01338705EA0040000415000016000000
B1234255535513N01338695EA0039300407000016000000
B1234295535563N01338691EA0039800419000016000000
B1234335535611N01338692EA0040000413000016000000
B1234375535662N01338700EA0039200406000016000000
B1234415535717N01338712EA0038300397000016000000
B1234455535777N01338724EA0037600395000016000000
B1234495535834N01338734EA0037700397000020000000
B1234535535896N01338751EA0037700395000020000000
B1234575535959N01338766EA0038900416000024000000
B1235015535975N01338720EA0042000441000024000000
B1235055535923N01338703EA0043100448000024000000
B1235095535881N01338816EA0045000473000020000000
B1235135535911N01338916EA0046200478000016015000
B1235175535938N01338887EA0046500484000016000000
B1235215535892N01338863EA0047800507000016000000
B1235255535840N01338954EA0050000521000016000000
B1235295535854N01339078EA0051400540000016000000
B1235335535896N01339090EA0053400554000016000000
B1235375535871N01339042EA0054900570000016000000
B1235415535811N01339115EA0056500590000016015000
B1235455535808N01339241EA0059200616000016015000
B1235495535850N01339284EA0060900624000016000000
B1235535535853N01339229EA0061700639000016000000
B1235575535792N01339244EA0063600657000016000000
B1236015535764N01339372EA0065100674000016000000
B1236055535805N01339444EA0067300695000012000000
B1236095535827N01339406EA0069100710000012000000
B1236135535786N01339358EA0070800728000016000000
B1236175535721N01339420EA0072900747000012000000
B1236215535703N01339562EA0074500765000016000000
B1236255535743N01339644EA0076800786000016000000
B1236295535767N01339605EA0077900798000016015000
B1236335535719N01339572EA0079500812000016000000
B1236375535662N01339673EA0080900829000016000000
B1236415535677N01339796EA0082800849000016000000
B1236455535721N01339801EA0084500859000016015000
B1236495535699N01339736EA0085700876000016000000
B1236535535629N01339778EA0087400892000016000000
B1236575535611N01339914EA0089300912000012000000
B1237015535652N01339982EA0090900924000012000000
B1237055535660N01339925EA0092400944000016000000
B1237095535595N01339931EA0094300958000016000000
B1237135535565N01340056EA0095700970000016000000
B1237175535607N01340129EA0096700980000016000000
B1237215535643N01340115EA0098901005000016000000
B1237255535603N01340076EA0100101013000016000000
B1237295535547N01340163EA0101001031000016000000
B1237335535556N01340281EA0103001045000016000000
B1237375535595N01340289EA0103501042000016000000
B1237415535567N01340232EA0104001056000016000000
B1237455535503N01340280EA0105701077000016000000
B1237495535483N01340401EA0107601088000012015000
B1237535535521N01340472EA0108201095000012000000
B1237575535537N01340440EA0109201103000016015000
B1238015535491N01340407EA0109901111000012000000
B1238055535431N01340490EA0110701121000016015000
B1238095535442N01340612EA0112501140000012015000
B1238135535478N01340623EA0113501148000012000000
B1238175535463N01340566EA0114301153000012000000
B1238215535398N01340560EA0115101164000012000000
B1238255535348N01340664EA0117201189000012000000
B1238295535355N01340783EA0119001201000012000000
B1238335535398N01340818EA0119601210000012015000
B1238375535407N01340770EA0121401224000012000000
B1238415535359N01340736EA0122301228000016000000
B1238455535291N01340798EA0123001247000012000000
B1238495535264N01340926EA0125201262000012000000
B1238535535291N01341034EA0126101273000012015000
B1238575535327N01341038EA0127901292000012015000
B1239015535330N01340983EA0129001296000012015000
B1239055535287N01340940EA0129801306000012000000
B1239095535220N01340975EA0131101321000008000000
B1239135535178N01341088EA0133001340000008000000
B1239175535184N01341208EA0134601351000008000000
B1239215535225N01341262EA0135601361000008015000
B1239255535248N01341230EA0136301369000012015000
B1239295535218N01341178EA0137801381000012000000
B1239335535152N01341196EA0138601389000008000000
B1239375535109N01341314EA0140101406000012000000
B1239415535127N01341426EA0141301418000012000000
B1239455535169N01341439EA0141801421000008000000
B1239495535164N01341381EA0142801435000012000000
B1239535535101N01341379EA0144101443000012000000
B1239575535049N01341493EA0145201459000012000000
B1240015535053N01341624EA0146901474000012000000
B1240055535092N01341686EA0147901480000012000000
B1240095535121N01341660EA0148801489000012000000
B1240135535101N01341602EA0149701501000012000000
B1240175535039N01341600EA0151001511000012000000
B1240215534979N01341693EA0151901525000008000000
B1240255534969N01341824EA0153901538000012000000
B1240295535002N01341899EA0154201535000012000000
B1240335535023N01341854EA0153201525000016000000
B1240375534982N01341797EA0154001543000016000000
B1240415534926N01341762EA0155401554000012000000
B1240455534857N01341818EA0156301561000016000000
B1240495534827N01341957EA0156901572000012000000
B1240535534861N01342049EA0158501587000012000000
B1240575534893N01342040EA0159401593000012000000
B1241015534888N01341980EA0160101601000012000000
B1241055534835N01341951EA0161501615000012000000
B1241095534763N01342005EA0162301615000016000000
B1241135534718N01342137EA0162401633000016000000
B1241175534733N01342253EA0164601645000012000000
B1241215534778N01342291EA0164601645000012000000
B1241255534798N01342252EA0165101650000012000000
B1241295534771N01342191EA0165401653000012000000
B1241335534700N01342189EA0166101659000012000000
B1241375534628N01342278EA0166401657000012000000
B1241415534603N01342425EA0166401665000012000000
B1241455534640N01342514EA0167601677000012000000
B1241495534683N01342534EA0168101681000012000000
B1241535534719N01342527EA0168301679000012000000
B1241575534749N01342492EA0168501689000012000000
B1242015534758N01342438EA0170001700000008000000
B1242055534714N01342392EA0171601716000008000000
B1242095534641N01342414EA0173101729000008000000
B1242135534586N01342520EA0173901739000008000000
B1242175534580N01342657EA0174401739000012000000
B1242215534619N01342759EA0174101734000012000000
B1242255534679N01342789EA0173101722000016000000
B1242295534736N01342734EA0171401709000020000000
B1242335534745N01342620EA0172301737000020000000
B1242375534726N01342538EA0176501777000020000000
B1242415534697N01342475EA0178601775000016000000
B1242455534663N01342408EA0177301759000012000000
B1242495534631N01342330EA0175701747000016000000
B1242535534597N01342249EA0174901740000016000000
B1242575534560N01342166EA0174001731000016000000
B1243015534520N01342087EA0173501732000016000000
B1243055534472N01342016EA0173201721000012000000
B1243095534423N01341940EA0172101714000016000000
B1243135534376N01341863EA0171501708000012000000
B1243175534336N01341776EA0170801700000016000000
B1243215534298N01341682EA0170201694000016000000
B1243255534254N01341594EA0169601690000016000000
B1243295534208N01341508EA0169301687000016000000
B1243335534167N01341416EA0168701677000016000000
B1243375534134N01341312EA0167701668000016000000
B1243415534108N01341205EA0167101668000016000000
B1243455534091N01341105EA0167301669000016000000
B1243495534082N01341005EA0166801658000016000000
B1243535534081N01340897EA0165401648000020000000
B1243575534078N01340788EA0165001645000020000000
B1244015534078N01340684EA0164801641000020000000
B1244055534078N01340590EA0164901648000020000000
B1244095534082N01340507EA0165701655000020000000
B1244135534096N01340433EA0166101651000020000000
B1244175534120N01340352EA0165001643000020000000
B1244215534144N01340272EA0165301651000020000000
B1244255534165N01340193EA0165901652000020000000
B1244295534187N01340113EA0165001638000016000000
B1244335534211N01340026EA0163701626000020000000
B1244375534234N01339938EA0162801622000020000000
B1244415534256N01339857EA0162801624000020000000
B1244455534274N01339784EA0163201630000016000000
B1244495534285N01339721EA0164201637000016000000
B1244535534294N01339663EA0164301630000016000000
B1244575534307N01339608EA0163501628000016000000
B1245015534321N01339561EA0163701626000016000000
B1245055534338N01339510EA0162501612000016000000
B1245095534358N01339457EA0161101601000020000000
B1245135534382N01339410EA0160401592000016000000
B1245175534408N01339364EA0159601588000016000000
B1245215534432N01339319EA0159001579000016000000
B1245255534460N01339272EA0158101572000016000000
B1245295534488N01339215EA0158201584000012000000
B1245335534515N01339163EA0159301589000016000000
B1245375534549N01339116EA0159401589000012000000
B1245415534589N01339069EA0158701579000016000000
B1245455534633N01339026EA0158901590000016000000
B1245495534674N01338985EA0159501587000016000000
B1245535534711N01338935EA0159001584000016000000
B1245575534748N01338881EA0159001586000016000000
B1246015534778N01338829EA0159401593000016000000
B1246055534801N01338777EA0160201598000016000000
B1246095534826N01338724EA0160201597000012000000
B1246135534856N01338672EA0159501584000016000000
B1246175534887N01338620EA0158401577000012000000
B1246215534918N01338566EA0157301565000012000000
B1246255534950N01338510EA0156101556000016000000
B1246295534984N01338462EA0155801554000016000000
B1246335535030N01338454EA0155601555000012000000
B1246375535078N01338487EA0155701551000012000000
B1246415535129N01338540EA0154901543000012000000
B1246455535182N01338596EA0154201537000012000000
B1246495535239N01338651EA0153501532000012000000
B1246535535294N01338703EA0153501534000012000000
B1246575535348N01338756EA0153301529000012000000
B1247015535404N01338815EA0152901527000012000000
B1247055535460N01338874EA0152801524000012000000
B1247095535519N01338928EA0152001516000012000000
B1247135535580N01338967EA0151301513000016000000
B1247175535639N01339002EA0151401516000012000000
B1247215535697N01339042EA0151601513000012000000
B1247255535755N01339078EA0151101511000012000000
B1247295535814N01339112EA0150901507000012000000
B1247335535871N01339141EA0150501502000012000000
B1247375535928N01339171EA0149801494000012000000
B1247415535984N01339180EA0148901485000012000000
B1247455536022N01339137EA0148301481000016000000
B1247495536032N01339067EA0147901476000012000000
B1247535536013N01338990EA0147001464000012000000
B1247575535962N01338929EA0145601452000012000000
B1248015535892N01338906EA0144901446000016000000
B1248055535814N01338937EA0144501443000016000000
B1248095535742N01339021EA0144101437000012000000
B1248135535689N01339151EA0143601434000012000000
B1248175535664N01339306EA0142901425000012000000
B1248215535668N01339466EA0142001418000012000000
B1248255535695N01339609EA0141801419000012000000
B1248295535736N01339723EA0141501411000012000000
B1248335535790N01339810EA0139901392000012000000
B1248375535853N01339857EA0138401386000016000000
B1248415535902N01339847EA0138801390000016000000
B1248455535923N01339786EA0138801380000012000000
B1248495535902N01339702EA0137001361000012000000
B1248535535841N01339649EA0135701356000016000000
B1248575535767N01339657EA0135601356000012000000
B1249015535693N01339721EA0134901343000012000000
B1249055535633N01339838EA0133501333000012000000
B1249095535598N01339986EA0133101333000012000000
B1249135535589N01340139EA0132901327000012000000
B1249175535610N01340287EA0131301308000012000000
B1249215535665N01340389EA0129101290000016000000
B1249255535729N01340402EA0128401285000016000000
B1249295535763N01340342EA0128301287000016000000
B1249335535758N01340252EA0128201280000016000000
B1249375535715N01340170EA0126701263000016000000
B1249415535638N01340152EA0125901263000020000000
B1249455535565N01340219EA0126101263000020000000
B1249495535519N01340345EA0125701255000016000000
B1249535535511N01340503EA0124101238000016000000
B1249575535545N01340640EA0123001233000016000000
B1250015535598N01340716EA0122301224000016000000
B1250055535654N01340731EA0121501218000016000000
B1250095535691N01340687EA0121201213000016000000
B1250135535706N01340612EA0120601206000016000000
B1250175535714N01340538EA0119701200000016000000
B1250215535716N01340475EA0119601202000016000000
B1250255535715N01340416EA0119401192000012000000
B1250295535714N01340351EA0117301169000012000000
B1250335535695N01340273EA0115201152000016000000
B1250375535629N01340237EA0113401139000012000000
B1250415535552N01340303EA0113001132000012000000
B1250455535513N01340447EA0112001119000012000000
B1250495535532N01340594EA0110501106000012000000
B1250535535587N01340681EA0109301093000012000000
B1250575535651N01340723EA0107601084000016000000
B1251015535710N01340724EA0107601085000016000000
B1251055535749N01340679EA0107701083000016000000
B1251095535741N01340599EA0107201077000016000000
B1251135535676N01340554EA0106301064000016000000
B1251175535586N01340606EA0105201056000016000000
B1251215535529N01340748EA0104801060000016000000
B1251255535532N01340900EA0105201058000016000000
B1251295535581N01340984EA0104101040000016000000
B1251335535633N01340963EA0102201028000020000000
B1251375535638N01340885EA0102001033000016000000
B1251415535600N01340817EA0102101027000016000000
B1251455535571N01340740EA0101301021000016000000
B1251495535568N01340659EA0100501015000016000000
B1251535535590N01340592EA0100201013000016000000
B1251575535632N01340546EA0099501002000016000000
B1252015535688N01340511EA0098500994000016000000
B1252055535741N01340468EA0098801006000016000000
B1252095535766N01340398EA0100001017000016000000
B1252135535764N01340306EA0100101003000016000000
B1252175535751N01340200EA0098400992000024000000
B1252215535702N01340121EA0098400995000024000000
B1252255535636N01340074EA0098200988000024000000
B1252295535569N01340022EA0097100978000028000000
B1252335535522N01339942EA0095900969000032000000
B1252375535495N01339852EA0095500965000032000000
B1252415535480N01339761EA0094800956000036000000
B1252455535476N01339671EA0093900948000040000000
B1252495535486N01339589EA0093300937000036000000
B1252535535508N01339513EA0091700918000036000000
B1252575535539N01339441EA0089400893000036000000
B1253015535576N01339372EA0086900872000036000000
B1253055535616N01339312EA0085100857000036000000
B1253095535660N01339263EA0083500841000032000000
