ACAM3X6
HFDTE270506
HFFXA050
HFPLTPILOT:Peter Cutting           
HFGTYGLIDERTYPE:LS8-b       
HFGIDGLIDERID:SE-USP      
HFDTM100GPSDATUM:
HFRFWFIRMWAREVERSION:F2.6
HFRHWHARDWAREVERSION:300 Series Version 2
HFFTYFRTYPE:CAMBRIDGE AERO INSTRUMENTS, 302+
HFGPS:GARMIN,LVS-25,12,18000
HFPRSPRESSALTSENSOR:INTERSEMA, MS5534-AP, 20000
I033638FXA3941ENL4247REX
LCAMSBVER:5FWVER:F26300
C140506101015140506000101
C0000000N00000000WTAKEOFF     
C5535815N01340565ESovde flp   
C5604800N01342050EBronnestadka
C5535815N01340565ESovde flp   
C0000000N00000000WLANDING     
B1034225535706N01340750EA0003200037000016000000
B1034245535706N01340750EA0003100037000016000000
B1034265535706N01340750EA0003100037000012000000
B1034285535706N01340750EA0003100038000012000000
B1034305535706N01340750EA0003100038000008000000
B1034325535706N01340750EA0003100038000008000000
B1034345535706N01340750EA0003200038000004000000
B1034365535706N01340750EA0003100038000004000000
B1034385535706N01340750EA0003000038000004000000
B1034405535706N01340750EA0003200039000004000000
B1034425535706N01340750EA0003200039000004000000
B1034445535707N01340748EA0003100039000008000000
B1034465535708N01340744EA0003100039000020000000
B1034485535711N01340739EA0003100039000032000000
B1034505535715N01340731EA0003200039000068000000
B1034535535721N01340714EA0003100038000104000000
B1034575535737N01340684EA0003000038000180000000
B1035015535758N01340642EA0002900037000268000000
B1035055535781N01340589EA0002900037000344000000
B1035095535812N01340528EA0002800038000316000000
B1035135535847N01340454EA0002900040000236000000
B1035175535888N01340371EA0003200044000208000000
B1035215535928N01340284EA0004000052000180000000
B1035255535971N01340194EA0004600057000172000000
B1035295536014N01340103EA0005200068000172000000
B1035335536057N01340007EA0006400074000172000000
B1035375536098N01339905EA0007000085000164000000
B1035415536135N01339803EA0008500100000160000000
B1035455536166N01339701EA0010300116000160000000
B1035495536195N01339600EA0011600127000156000000
B1035535536219N01339496EA0012800138000156000000
B1035575536245N01339392EA0013400145000140000000
B1036015536267N01339285EA0014700158000144000000
B1036055536288N01339182EA0016100174000144000000
B1036095536308N01339080EA0017600187000136000000
B1036135536325N01338976EA0019000201000144000000
B1036175536339N01338870EA0020300218000104000000
B1036215536357N01338774EA0022500241000072000000
B1036255536375N01338685EA0024500256000056000000
B1036295536392N01338595EA0025800269000044000000
B1036335536406N01338504EA0027100280000036000000
B1036375536419N01338410EA0027700283000036000000
B1036415536430N01338318EA0028200288000032000000
B1036455536443N01338228EA0028900297000028000000
B1036495536451N01338139EA0029700304000028000000
B1036535536444N01338049EA0030400311000028000000
B1036575536418N01337966EA0031100320000028000000
B1037015536377N01337895EA0031800325000024000000
B1037055536319N01337853EA0032100326000024000000
B1037095536252N01337837EA0032300332000028000000
B1037135536180N01337858EA0033000339000028000000
B1037175536110N01337910EA0033800346000028000000
B1037215536044N01337981EA0034500353000028000000
B1037255535980N01338063EA0035000356000032000000
B1037295535918N01338158EA0035400366000032000000
B1037335535859N01338256EA0036400376000028000000
B1037375535802N01338356EA0037700386000028000000
B1037415535750N01338465EA0038900398000032000000
B1037455535728N01338587EA0040200406000028000000
B1037495535740N01338708EA0040500406000024000000
B1037535535736N01338830EA0040000399000024000000
B1037575535711N01338946EA0039400400000028000000
B1038015535668N01339045EA0039800399000032000000
B1038055535619N01339140EA0038900388000036000000
B1038095535558N01339250EA0036200355000048000000
B1038135535520N01339397EA0035400370000328000000
B1038175535541N01339530EA0038400392000760000000
B1038215535600N01339601EA0038900390000984000000
B1038255535669N01339604EA0039000396000996000000
B1038295535728N01339570EA0039800405000996000000
B1038335535784N01339531EA0040400413000996000000
B1038375535836N01339488EA0041100416000996000000
B1038415535893N01339442EA0040600405000996000000
B1038455535958N01339411EA0039900404000996000000
B1038495536024N01339385EA0039700402000996000000
B1038535536085N01339341EA0040300413000996000000
B1038575536101N01339254EA0042200425000996000000
B1039015536059N01339198EA0042300427000996000000
B1039055536002N01339244EA0042800431000924000000
B1039095535977N01339357EA0042800431000868000000
B1039135535961N01339478EA0043100436000792000000
B1039175535945N01339598EA0043200434000704000000
B1039215535927N01339722EA0043100436000680000000
B1039255535903N01339842EA0043500442000644000000
B1039295535881N01339961EA0044100446000620000000
B1039335535854N01340085EA0044200446000640000000
B1039375535824N01340209EA0044300448000696000000
B1039415535792N01340334EA0044800453000728000000
B1039455535755N01340456EA0045300455000780000000
B1039495535716N01340577EA0045300455000908000000
B1039535535682N01340705EA0045700460000952000000
B1039575535680N01340837EA0046800478000968000000
B1040015535712N01340939EA0048700489000748000000
B1040055535763N01340976EA0049200488000520000000
B1040095535799N01340932EA0048400478000320000000
B1040135535789N01340857EA0047700477000220000000
B1040175535741N01340817EA0047500473000140000000
B1040215535684N01340798EA0046900470000088000000
B1040255535625N01340791EA0046700468000072000000
B1040295535565N01340787EA0046700476000048000000
B1040335535511N01340826EA0047500478000036000000
B1040375535487N01340934EA0047400475000028000000
B1040415535511N01341035EA0047500480000024000000
B1040455535561N01341066EA0047500474000020000000
B1040495535595N01341000EA0046700468000020000000
B1040535535586N01340910EA0047700486000020000000
B1040575535541N01340879EA0048700486000020000000
B1041015535502N01340962EA0048000478000020000000
B1041055535521N01341067EA0047600475000020000000
B1041095535573N01341119EA0047500479000016000000
B1041135535625N01341112EA0047800483000016000000
B1041175535647N01341049EA0048100483000016000000
B1041215535629N01340978EA0047600474000016000000
B1041255535574N01340954EA0047000473000016000000
B1041295535517N01340983EA0047700481000016000000
B1041335535483N01341075EA0048100482000016000000
B1041375535468N01341196EA0047100473000016000000
B1041415535468N01341325EA0046500468000016000000
B1041455535490N01341438EA0048600496000020000000
B1041495535541N01341456EA0050100503000020000000
B1041535535556N01341385EA0049100486000020000000
B1041575535513N01341324EA0048300486000020000000
B1042015535461N01341290EA0048500484000016000000
B1042055535403N01341291EA0048000485000016000000
B1042095535350N01341342EA0049100498000016000000
B1042135535347N01341450EA0049300492000024000000
B1042175535407N01341490EA0049700504000020000000
B1042215535447N01341429EA0050900516000020000000
B1042255535430N01341342EA0052000523000020000000
B1042295535374N01341308EA0051600515000020000000
B1042335535317N01341373EA0052800536000024000000
B1042375535300N01341477EA0053600537000020000000
B1042415535343N01341551EA0053200534000020000000
B1042455535400N01341545EA0054000549000020000000
B1042495535422N01341467EA0055600562000020000000
B1042535535376N01341418EA0057000573000020000000
B1042575535327N01341487EA0057600582000020000000
B1043015535346N01341593EA0058700590000020000000
B1043055535403N01341603EA0059400603000020000000
B1043095535421N01341524EA0061000617000020000000
B1043135535377N01341474EA0062000625000024000000
B1043175535325N01341532EA0062700630000020000000
B1043215535331N01341645EA0063300638000016000000
B1043255535382N01341707EA0064400649000016000000
B1043295535428N01341662EA0065400660000016000000
B1043335535405N01341581EA0066400667000016000000
B1043375535346N01341595EA0067000674000016000000
B1043415535331N01341707EA0068100686000016000000
B1043455535378N01341781EA0068900693000016000000
B1043495535430N01341750EA0070200706000016000000
B1043535535430N01341664EA0071000706000016000000
B1043575535378N01341623EA0070700711000016000000
B1044015535329N01341688EA0071800726000016000000
B1044055535333N01341794EA0073400737000012000000
B1044095535387N01341851EA0073800738000012000000
B1044135535435N01341805EA0074600750000016000000
B1044175535429N01341714EA0074900746000016000000
B1044215535377N01341669EA0074700748000016000000
B1044255535320N01341728EA0075300754000016000000
B1044295535322N01341847EA0076000765000016000000
B1044335535379N01341875EA0077300774000016000000
B1044375535396N01341790EA0078400788000020000000
B1044415535347N01341746EA0079300791000020000000
B1044455535301N01341825EA0079600797000016000000
B1044495535324N01341928EA0080900812000016000000
B1044535535378N01341932EA0082000819000016000000
B1044575535392N01341849EA0082600828000016000000
B1045015535351N01341790EA0083100826000016000000
B1045055535292N01341841EA0083200834000016000000
B1045095535269N01341949EA0084300843000016000000
B1045135535304N01342033EA0085000852000016000000
B1045175535356N01342022EA0086100861000016000000
B1045215535360N01341933EA0087100873000016000000
B1045255535311N01341884EA0087600872000016000000
B1045295535253N01341940EA0087800876000016000000
B1045335535223N01342052EA0088200880000012000000
B1045375535218N01342175EA0088400880000016000000
B1045415535223N01342308EA0087200868000016000000
B1045455535239N01342435EA0088000891000016000000
B1045495535279N01342530EA0089800901000016000000
B1045535535337N01342548EA0091000911000016000000
B1045575535366N01342483EA0091700917000016000000
B1046015535339N01342414EA0092500926000016000000
B1046055535281N01342429EA0092800920000016000000
B1046095535238N01342538EA0092300922000016000000
B1046135535260N01342655EA0093800944000016000000
B1046175535313N01342689EA0095200950000012000000
B1046215535347N01342624EA0095200951000012000000
B1046255535327N01342544EA0096500965000016000000
B1046295535279N01342503EA0096900964000012000000
B1046335535216N01342517EA0097000970000016000000
B1046375535169N01342592EA0098100985000016000000
B1046415535171N01342705EA0098800980000016000000
B1046455535230N01342757EA0098600992000016000000
B1046495535281N01342715EA0100301003000016000000
B1046535535282N01342627EA0101201010000016000000
B1046575535226N01342591EA0101201004000016000000
B1047015535175N01342670EA0101701018000016000000
B1047055535187N01342786EA0102901026000016000000
B1047095535243N01342828EA0103601035000016000000
B1047135535286N01342778EA0104401043000016000000
B1047175535278N01342699EA0105301049000016000000
B1047215535225N01342663EA0105201044000012000000
B1047255535165N01342711EA0105001050000016000000
B1047295535132N01342811EA0106401064000016000000
B1047335535140N01342926EA0107001066000016000000
B1047375535188N01342999EA0108001081000016000000
B1047415535240N01342991EA0109401087000012000000
B1047455535261N01342913EA0109301088000016000000
B1047495535229N01342846EA0109701091000016000000
B1047535535165N01342860EA0109701088000016000000
B1047575535122N01342963EA0110101103000016000000
B1048015535121N01343082EA0111901114000016000000
B1048055535171N01343129EA0112801122000016000000
B1048095535196N01343055EA0113201125000016000000
B1048135535151N01343003EA0113201123000016000000
B1048175535104N01343092EA0113101131000020000000
B1048215535122N01343202EA0114601146000016000000
B1048255535170N01343258EA0115701149000016000000
B1048295535220N01343223EA0115201138000016000000
B1048335535246N01343131EA0114001129000016000000
B1048375535278N01343023EA0112301113000020000000
B1048415535320N01342921EA0112601138000020000000
B1048455535351N01342839EA0115601140000020000000
B1048495535391N01342737EA0113501131000024000000
B1048535535433N01342650EA0115101157000024000000
B1048575535474N01342566EA0114601128000020000000
B1049015535530N01342469EA0112001115000024000000
B1049055535593N01342384EA0113101140000024000000
B1049095535639N01342306EA0115801149000020000000
B1049135535677N01342200EA0112301100000024000000
B1049175535697N01342054EA0109101088000024000000
B1049215535712N01341909EA0108801087000024000000
B1049255535724N01341766EA0108901087000024000000
B1049295535734N01341625EA0108401080000024000000
B1049335535742N01341486EA0107601071000024000000
B1049375535743N01341343EA0106501063000024000000
B1049415535749N01341205EA0106001060000024000000
B1049455535756N01341074EA0106101063000024000000
B1049495535750N01340949EA0106501065000024000000
B1049535535724N01340835EA0106401063000024000000
B1049575535686N01340728EA0106301060000024000000
B1050015535634N01340640EA0105901059000020000000
B1050055535578N01340555EA0105501051000020000000
B1050095535513N01340507EA0105601057000020000000
B1050135535452N01340583EA0105701038000020000000
B1050175535461N01340745EA0102000991000024000000
B1050215535538N01340889EA0094500895000032000000
B1050255535664N01340997EA0087400875000036000000
B1050295535786N01341077EA0088600897000040000000
B1050335535897N01341129EA0091400932000040000000
B1050375535992N01341166EA0094700953000036000000
B1050415536084N01341195EA0094900945000032000000
B1050455536176N01341210EA0094200944000032000000
B1050495536266N01341220EA0094800947000028000000
B1050535536353N01341227EA0094600941000028000000
B1050575536440N01341229EA0093800935000028000000
B1051015536526N01341223EA0093300932000028000000
B1051055536611N01341209EA0093100930000028000000
B1051095536698N01341196EA0092300911000028000000
B1051135536789N01341190EA0090600906000028000000
B1051175536878N01341194EA0090900910000028000000
B1051215536964N01341203EA0091200911000024000000
B1051255537049N01341214EA0091100913000028000000
B1051295537129N01341227EA0091400914000028000000
B1051335537212N01341238EA0090800900000024000000
B1051375537301N01341247EA0089600894000028000000
B1051415537388N01341255EA0089400893000024000000
B1051455537474N01341265EA0088900890000028000000
B1051495537558N01341274EA0088600885000028000000
B1051535537641N01341283EA0088100880000024000000
B1051575537722N01341296EA0087900873000024000000
B1052015537805N01341307EA0087100856000032000000
B1052055537895N01341316EA0085000837000032000000
B1052095537987N01341325EA0083800836000032000000
B1052135538076N01341338EA0084300836000028000000
B1052175538168N01341348EA0083200826000032000000
B1052215538259N01341360EA0082800819000032000000
B1052255538351N01341364EA0081800812000032000000
B1052295538442N01341365EA0081100800000032000000
B1052335538536N01341366EA0079000781000036000000
B1052375538633N01341374EA0077800766000036000000
B1052415538733N01341381EA0076300767000032000000
B1052455538826N01341386EA0077400769000032000000
B1052495538917N01341385EA0076600762000028000000
B1052535539006N01341389EA0076600770000028000000
B1052575539095N01341391EA0077200770000028000000
B1053015539182N01341395EA0077500777000028000000
B1053055539266N01341402EA0077500767000024000000
B1053095539352N01341402EA0077100770000024000000
B1053135539437N01341402EA0076700762000028000000
B1053175539523N01341404EA0076100753000032000000
B1053215539608N01341405EA0075500746000032000000
B1053255539697N01341408EA0074100731000032000000
B1053295539786N01341421EA0073600741000032000000
B1053335539870N01341441EA0074200734000028000000
B1053375539958N01341467EA0073000725000032000000
B1053415540046N01341496EA0073000730000032000000
B1053455540130N01341529EA0073100723000028000000
B1053495540218N01341560EA0071300707000028000000
B1053535540309N01341589EA0070400703000032000000
B1053575540397N01341615EA0070300704000028000000
B1054015540482N01341642EA0070100697000028000000
B1054055540568N01341669EA0069100689000024000000
B1054095540654N01341695EA0068300679000024000000
B1054135540742N01341721EA0067500668000028000000
B1054175540830N01341753EA0066600661000024000000
B1054215540919N01341785EA0065600648000024000000
B1054255541011N01341819EA0063700626000028000000
B1054295541106N01341849EA0061800619000028000000
B1054335541198N01341877EA0062000619000024000000
B1054375541289N01341901EA0061400611000024000000
B1054415541378N01341924EA0061300613000024000000
B1054455541465N01341948EA0061100605000028000000
B1054495541557N01341974EA0059800593000028000000
B1054535541647N01341997EA0059600598000028000000
B1054575541725N01342022EA0061100628000028000000
B1055015541795N01342048EA0062900631000028000000
B1055055541870N01342076EA0062300617000024000000
B1055095541948N01342102EA0062000639000028000000
B1055135542011N01342122EA0065300660000024000000
B1055175542072N01342113EA0065700637000028000000
B1055215542151N01342115EA0062300613000028000000
B1055255542240N01342135EA0060300599000032000000
B1055295542329N01342157EA0059200586000032000000
B1055335542419N01342187EA0058200580000032000000
B1055375542507N01342217EA0057600570000032000000
B1055415542597N01342244EA0056200555000032000000
B1055455542684N01342266EA0055400559000032000000
B1055495542767N01342283EA0055600558000032000000
B1055535542849N01342302EA0055500550000032000000
B1055575542934N01342325EA0054000529000032000000
B1056015543022N01342356EA0052000516000032000000
B1056055543111N01342392EA0051500521000036000000
B1056095543194N01342434EA0051800519000036000000
B1056135543270N01342442EA0053200548000032000000
B1056175543330N01342422EA0055700562000028000000
B1056215543372N01342364EA0056400562000028000000
B1056255543425N01342330EA0056400562000028000000
B1056295543491N01342343EA0055100535000028000000
B1056335543572N01342351EA0052700526000032000000
B1056375543653N01342357EA0051900510000032000000
B1056415543738N01342360EA0050000499000032000000
B1056455543823N01342361EA0049600496000032000000
B1056495543907N01342360EA0048600482000032000000
B1056535543992N01342361EA0048300486000032000000
B1056575544075N01342370EA0048900499000036000000
B1057015544144N01342378EA0051700523000032000000
B1057055544208N01342373EA0052300523000032000000
B1057095544271N01342353EA0051600509000032000000
B1057135544346N01342354EA0051000514000032000000
B1057175544416N01342362EA0051600514000028000000
B1057215544474N01342318EA0050900490000028000000
B1057255544551N01342286EA0047000455000032000000
B1057295544635N01342256EA0044800441000032000000
B1057335544721N01342224EA0043300429000032000000
B1057375544802N01342193EA0043300442000028000000
B1057415544879N01342157EA0044000436000028000000
B1057455544958N01342122EA0043700450000032000000
B1057495545023N01342097EA0045800461000028000000
B1057535545089N01342059EA0044900435000028000000
B1057575545158N01342006EA0043400448000032000000
B1058015545194N01341942EA0046800486000032000000
B1058055545165N01341884EA0048700481000028000000
B1058095545107N01341936EA0047900471000032000000
B1058135545114N01342062EA0047700476000032000000
B1058175545158N01342144EA0048100488000028000000
B1058215545209N01342195EA0049300491000028000000
B1058255545254N01342161EA0049100486000028000000
B1058295545271N01342074EA0048200479000028000000
B1058335545305N01342003EA0047900476000032000000
B1058375545365N01341996EA0047200467000036000000
B1058415545417N01342085EA0046400461000036000000
B1058455545423N01342227EA0046400465000036000000
B1058495545406N01342361EA0046400458000036000000
B1058535545354N01342456EA0045500449000036000000
B1058575545285N01342481EA0044600443000036000000
B1059015545223N01342460EA0044000440000036000000
B1059055545167N01342414EA0043600435000036000000
B1059095545144N01342323EA0044100450000032000000
B1059135545176N01342267EA0046000464000036000000
B1059175545219N01342335EA0045600450000032000000
B1059215545184N01342444EA0044500442000036000000
B1059255545128N01342421EA0045100457000036000000
B1059295545105N01342351EA0046500466000032000000
B1059335545142N01342309EA0046000457000032000000
B1059375545174N01342409EA0045300454000032000000
B1059415545127N01342494EA0045200452000032000000
B1059455545072N01342464EA0045900466000028000000
B1059495545054N01342386EA0045300453000028000000
B1059535545087N01342314EA0045000456000028000000
B1059575545144N01342319EA0045600460000028000000
B1100015545185N01342404EA0045800463000028000000
B1100055545210N01342520EA0045300451000032000000
B1100095545233N01342650EA0044200446000032000000
B1100135545257N01342782EA0043800440000032000000
B1100175545278N01342921EA0042800429000036000000
B1100215545295N01343069EA0041600422000036000000
B1100255545305N01343210EA0042100428000036000000
B1100295545314N01343353EA0042100427000036000000
B1100335545306N01343491EA0043000437000032000000
B1100375545258N01343580EA0043100429000040000000
B1100415545202N01343557EA0042100424000044000000
B1100455545206N01343476EA0041700415000044000000
B1100495545265N01343456EA0040900412000040000000
B1100535545324N01343509EA0041400427000036000000
B1100575545370N01343593EA0043000437000032000000
B1101015545365N01343714EA0043700441000032000000
B1101055545313N01343749EA0044000444000032000000
B1101095545287N01343687EA0043400432000032000000
B1101135545313N01343613EA0043500443000032000000
B1101175545366N01343602EA0044100448000032000000
B1101215545409N01343684EA0044500445000032000000
B1101255545388N01343801EA0043900440000032000000
B1101295545331N01343821EA0044700457000028000000
B1101335545296N01343770EA0046100467000028000000
B1101375545313N01343704EA0046500463000028000000
B1101415545367N01343748EA0045700459000032000000
B1101455545358N01343873EA0045700460000032000000
B1101495545304N01343935EA0046700476000032000000
B1101535545254N01343899EA0047900483000032000000
B1101575545266N01343825EA0048200484000032000000
B1102015545323N01343860EA0048200480000032000000
B1102055545323N01343991EA0048400489000032000000
B1102095545274N01344067EA0049700506000028000000
B1102135545222N01344061EA0050100495000032000000
B1102175545220N01343979EA0048600488000032000000
B1102215545269N01343943EA0049100499000032000000
B1102255545324N01343979EA0049500499000028000000
B1102295545360N01344081EA0050100509000028000000
B1102335545357N01344203EA0050400506000028000000
B1102375545301N01344250EA0050400507000028000000
B1102415545278N01344174EA0050700514000028000000
B1102455545321N01344132EA0051300521000028000000
B1102495545367N01344216EA0052100524000028000000
B1102535545345N01344333EA0052400529000024000000
B1102575545291N01344332EA0052900534000024000000
B1103015545293N01344251EA0053400537000024000000
B1103055545352N01344251EA0054100550000024000000
B1103095545386N01344355EA0054600547000024000000
B1103135545347N01344454EA0054000542000028000000
B1103175545296N01344418EA0054200556000032000000
B1103215545301N01344347EA0056400570000028000000
B1103255545348N01344325EA0056500564000024000000
B1103295545391N01344418EA0055300551000028000000
B1103335545352N01344516EA0054600548000032000000
B1103375545293N01344527EA0055600566000032000000
B1103415545256N01344477EA0056200563000032000000
B1103455545282N01344414EA0055900562000032000000
B1103495545337N01344457EA0056000562000028000000
B1103535545350N01344576EA0055800557000032000000
B1103575545311N01344676EA0055700568000032000000
B1104015545257N01344722EA0056800570000032000000
B1104055545222N01344653EA0056400568000032000000
B1104095545265N01344614EA0056700572000032000000
B1104135545309N01344698EA0056900573000032000000
B1104175545295N01344819EA0057600584000032000000
B1104215545246N01344892EA0059100596000028000000
B1104255545198N01344852EA0059300595000028000000
B1104295545210N01344770EA0059400598000032000000
B1104335545261N01344801EA0059800601000032000000
B1104375545285N01344906EA0060400609000028000000
B1104415545267N01345016EA0060800611000028000000
B1104455545210N01345027EA0061000616000028000000
B1104495545197N01344947EA0061400615000028000000
B1104535545245N01344912EA0061000612000032000000
B1104575545295N01344977EA0061500622000032000000
B1105015545315N01345086EA0062600629000032000000
B1105055545284N01345182EA0063200633000028000000
B1105095545231N01345159EA0063000633000032000000
B1105135545231N01345075EA0063900648000028000000
B1105175545279N01345058EA0065500660000024000000
B1105215545319N01345144EA0065800656000024000000
B1105255545292N01345257EA0065700666000028000000
B1105295545237N01345263EA0067800685000024000000
B1105335545223N01345185EA0068100679000028000000
B1105375545271N01345144EA0068800694000028000000
B1105415545323N01345205EA0069600695000024000000
B1105455545314N01345328EA0069300694000028000000
B1105495545256N01345357EA0070000710000028000000
B1105535545215N01345302EA0071200716000028000000
B1105575545241N01345231EA0071400720000028000000
B1106015545295N01345285EA0071900722000032000000
B1106055545288N01345404EA0072200727000028000000
B1106095545232N01345442EA0073500741000028000000
B1106135545193N01345387EA0074000742000028000000
B1106175545223N01345329EA0074500747000028000000
B1106215545271N01345399EA0074200739000028000000
B1106255545246N01345515EA0074100748000028000000
B1106295545188N01345511EA0075600763000028000000
B1106335545180N01345430EA0076500769000024000000
B1106375545231N01345420EA0076900767000024000000
B1106415545266N01345528EA0076100758000028000000
B1106455545235N01345642EA0077100783000024000000
B1106495545180N01345679EA0078600788000024000000
B1106535545152N01345606EA0078600785000028000000
B1106575545200N01345580EA0079300796000028000000
B1107015545245N01345666EA0080300805000028000000
B1107055545270N01345781EA0080900814000028000000
B1107095545319N01345845EA0082200827000028000000
B1107135545363N01345801EA0083400836000032000000
B1107175545360N01345715EA0084200843000028000000
B1107215545315N01345672EA0085400855000024000000
B1107255545262N01345720EA0085600848000028000000
B1107295545254N01345848EA0085800866000028000000
B1107335545296N01345935EA0087900884000028000000
B1107375545349N01345926EA0089000891000028000000
B1107415545357N01345842EA0090100898000028000000
B1107455545304N01345832EA0090100895000032000000
B1107495545285N01345959EA0090400906000036000000
B1107535545319N01346069EA0092100921000032000000
B1107575545373N01346044EA0092200915000032000000
B1108015545358N01345952EA0092600932000032000000
B1108055545302N01345966EA0094500944000028000000
B1108095545280N01346082EA0094800947000028000000
B1108135545322N01346179EA0095600965000024000000
B1108175545380N01346195EA0097600974000024000000
B1108215545406N01346118EA0097300963000024000000
B1108255545370N01346045EA0096700968000028000000
B1108295545313N01346050EA0098300985000024000000
B1108335545266N01346122EA0099400993000024000000
B1108375545266N01346240EA0100200996000024000000
B1108415545319N01346303EA0100701007000028000000
B1108455545367N01346261EA0101501007000028000000
B1108495545366N01346165EA0101201010000028000000
B1108535545317N01346136EA0103001026000024000000
B1108575545267N01346200EA0103401026000024000000
B1109015545261N01346318EA0103701032000024000000
B1109055545301N01346407EA0104201038000024000000
B1109095545361N01346421EA0104601039000028000000
B1109135545401N01346364EA0105101045000032000000
B1109175545391N01346278EA0104601032000032000000
B1109215545336N01346249EA0103801034000036000000
B1109255545293N01346325EA0104501038000040000000
B1109295545304N01346444EA0104401041000036000000
B1109335545360N01346498EA0105201049000032000000
B1109375545417N01346475EA0105501049000036000000
B1109415545473N01346452EA0105301045000036000000
B1109455545536N01346436EA0104201022000032000000
B1109495545609N01346409EA0101801006000036000000
B1109535545686N01346384EA0100200986000036000000
B1109575545770N01346352EA0097500969000036000000
B1110015545852N01346322EA0097400978000048000000
B1110055545930N01346301EA0097800974000040000000
B1110095546008N01346269EA0096900968000040000000
B1110135546086N01346234EA0097000967000040000000
B1110175546164N01346196EA0096400960000036000000
B1110215546242N01346156EA0095500951000056000000
B1110255546324N01346117EA0094600937000052000000
B1110295546409N01346078EA0093000925000048000000
B1110335546494N01346044EA0092500926000044000000
B1110375546580N01346017EA0092800925000040000000
B1110415546671N01345998EA0092300915000040000000
B1110455546765N01345981EA0091200909000040000000
B1110495546851N01345971EA0092700929000036000000
B1110535546936N01345967EA0091500901000036000000
B1110575547029N01345961EA0089600896000036000000
B1111015547117N01345955EA0089500892000036000000
B1111055547207N01345952EA0088600885000036000000
B1111095547295N01345957EA0088500884000036000000
B1111135547382N01345962EA0088100874000036000000
B1111175547469N01345974EA0087400875000036000000
B1111215547559N01345994EA0086600857000036000000
B1111255547650N01346014EA0086000859000036000000
B1111295547739N01346033EA0085400852000036000000
B1111335547827N01346056EA0084200836000036000000
B1111375547922N01346078EA0083100829000036000000
B1111415548014N01346097EA0082800830000040000000
B1111455548103N01346113EA0082800828000040000000
B1111495548191N01346121EA0082600828000040000000
B1111535548273N01346127EA0083900849000036000000
B1111575548351N01346135EA0084700843000036000000
B1112015548431N01346141EA0083300827000036000000
B1112055548516N01346147EA0081900817000036000000
B1112095548602N01346148EA0081100807000036000000
B1112135548689N01346149EA0080000796000036000000
B1112175548776N01346148EA0079200792000036000000
B1112215548860N01346147EA0078600783000036000000
B1112255548945N01346149EA0078300788000036000000
B1112295549023N01346157EA0079500797000036000000
B1112335549105N01346163EA0078300777000036000000
B1112375549188N01346175EA0077600777000036000000
B1112415549267N01346188EA0078000797000036000000
B1112455549326N01346201EA0082500833000032000000
B1112495549367N01346160EA0084100839000028000000
B1112535549351N01346075EA0083400831000028000000
B1112575549288N01346082EA0084400850000028000000
B1113015549241N01346160EA0085700854000024000000
B1113055549217N01346274EA0085400848000028000000
B1113095549239N01346391EA0085200854000028000000
B1113135549283N01346466EA0086500873000024000000
B1113175549334N01346495EA0088200878000024000000
B1113215549364N01346423EA0087600865000024000000
B1113255549312N01346386EA0087400880000028000000
B1113295549276N01346486EA0089500901000028000000
B1113335549292N01346595EA0091200909000024000000
B1113375549348N01346611EA0091100905000024000000
B1113415549360N01346521EA0091400917000024000000
B1113455549310N01346479EA0092700929000024000000
B1113495549265N01346568EA0093800938000024000000
B1113535549284N01346681EA0094500942000024000000
B1113575549340N01346694EA0095100949000024000000
B1114015549356N01346608EA0095500953000024000000
B1114055549305N01346576EA0096500968000024000000
B1114095549258N01346659EA0097900977000024000000
B1114135549269N01346773EA0098000972000024000000
B1114175549323N01346771EA0097400968000028000000
B1114215549309N01346674EA0097400973000032000000
B1114255549254N01346639EA0099400995000028000000
B1114295549211N01346725EA0100400997000028000000
B1114335549241N01346828EA0100000992000024000000
B1114375549301N01346842EA0099800987000028000000
B1114415549373N01346830EA0098200970000028000000
B1114455549455N01346824EA0096800966000032000000
B1114495549540N01346821EA0096100949000032000000
B1114535549629N01346826EA0094700941000036000000
B1114575549724N01346838EA0092800915000040000000
B1115015549822N01346849EA0090800912000036000000
B1115055549917N01346856EA0091400909000036000000
B1115095550012N01346862EA0089900897000040000000
B1115135550106N01346863EA0089500889000044000000
B1115175550205N01346868EA0088400890000044000000
B1115215550287N01346876EA0091300917000040000000
B1115255550370N01346888EA0090800899000040000000
B1115295550456N01346903EA0089400892000036000000
B1115335550543N01346914EA0089000888000036000000
B1115375550630N01346921EA0088400881000036000000
B1115415550716N01346932EA0087900875000036000000
B1115455550804N01346945EA0087200866000036000000
B1115495550895N01346958EA0085700853000040000000
B1115535550987N01346971EA0084600843000040000000
B1115575551081N01346980EA0083600833000040000000
B1116015551173N01346988EA0082900827000040000000
B1116055551268N01346998EA0082700831000044000000
B1116095551355N01347008EA0084000848000040000000
B1116135551440N01347016EA0084200831000036000000
B1116175551529N01347023EA0082400816000036000000
B1116215551623N01347031EA0080500802000040000000
B1116255551717N01347038EA0079900810000040000000
B1116295551804N01347047EA0080800807000040000000
B1116335551891N01347054EA0080900811000040000000
B1116375551980N01347067EA0080000796000036000000
B1116415552071N01347081EA0079200796000036000000
B1116455552160N01347093EA0079500795000036000000
B1116495552247N01347097EA0079000786000036000000
B1116535552334N01347097EA0078200782000036000000
B1116575552420N01347096EA0077700771000040000000
B1117015552510N01347099EA0076400763000040000000
B1117055552601N01347116EA0075800760000040000000
B1117095552686N01347133EA0076800780000044000000
B1117135552763N01347150EA0079000793000040000000
B1117175552842N01347163EA0079800799000036000000
B1117215552916N01347174EA0081400829000036000000
B1117255552981N01347184EA0082300813000032000000
B1117295553063N01347197EA0079900785000036000000
B1117335553152N01347205EA0077900781000040000000
B1117375553236N01347213EA0078100777000036000000
B1117415553322N01347218EA0076800763000036000000
B1117455553408N01347228EA0076200759000036000000
B1117495553496N01347250EA0074800738000036000000
B1117535553589N01347281EA0073400736000036000000
B1117575553678N01347314EA0073300731000036000000
B1118015553769N01347348EA0072100716000036000000
B1118055553863N01347384EA0071100709000040000000
B1118095553956N01347419EA0070500713000040000000
B1118135554046N01347444EA0070900707000036000000
B1118175554137N01347461EA0070000700000040000000
B1118215554229N01347475EA0068900689000040000000
B1118255554314N01347483EA0069600700000036000000
B1118295554393N01347479EA0069600698000036000000
B1118335554465N01347467EA0070400717000036000000
B1118375554528N01347487EA0072600726000036000000
B1118415554557N01347605EA0072300714000036000000
B1118455554518N01347720EA0071500715000036000000
B1118495554457N01347736EA0071300708000036000000
B1118535554411N01347686EA0071200714000032000000
B1118575554379N01347614EA0070500700000032000000
B1119015554354N01347519EA0068900684000032000000
B1119055554341N01347417EA0068400691000032000000
B1119095554335N01347320EA0068800686000032000000
B1119135554332N01347232EA0069000703000032000000
B1119175554335N01347154EA0070100700000032000000
B1119215554361N01347077EA0069500688000032000000
B1119255554424N01347055EA0068700692000032000000
B1119295554489N01347057EA0070200718000032000000
B1119335554512N01346992EA0072500723000032000000
B1119375554475N01346919EA0071800709000032000000
B1119415554473N01346828EA0070900712000032000000
B1119455554530N01346806EA0071500714000032000000
B1119495554595N01346847EA0071300708000028000000
B1119535554666N01346898EA0069700692000028000000
B1119575554744N01346958EA0068100675000032000000
B1120015554821N01347023EA0067100674000032000000
B1120055554899N01347081EA0066700667000036000000
B1120095554976N01347135EA0066000659000040000000
B1120135555054N01347194EA0065000647000040000000
B1120175555134N01347257EA0063600629000040000000
B1120215555217N01347317EA0062500627000040000000
B1120255555298N01347378EA0061900617000036000000
B1120295555380N01347444EA0060600601000040000000
B1120335555467N01347514EA0059000592000040000000
B1120375555554N01347574EA0058600584000040000000
B1120415555643N01347635EA0057600581000040000000
B1120455555726N01347682EA0058100595000036000000
B1120495555799N01347721EA0059700597000036000000
B1120535555875N01347759EA0058300572000036000000
B1120575555960N01347792EA0056300559000040000000
B1121015556046N01347807EA0055400559000040000000
B1121055556124N01347808EA0056200572000036000000
B1121095556194N01347805EA0056800562000036000000
B1121135556268N01347785EA0055400558000036000000
B1121175556334N01347751EA0056000563000036000000
B1121215556382N01347691EA0056500562000036000000
B1121255556442N01347643EA0055500554000036000000
B1121295556517N01347626EA0054800536000036000000
B1121335556599N01347623EA0053100536000040000000
B1121375556679N01347630EA0053400537000040000000
B1121415556755N01347639EA0053100526000036000000
B1121455556835N01347647EA0051500509000036000000
B1121495556918N01347649EA0050200501000036000000
B1121535557001N01347648EA0049100488000036000000
B1121575557087N01347636EA0047800478000036000000
B1122015557171N01347623EA0047000469000036000000
B1122055557258N01347609EA0045900454000040000000
B1122095557348N01347590EA0044600447000044000000
B1122135557422N01347570EA0046900493000044000000
B1122175557470N01347512EA0049700491000036000000
B1122215557463N01347424EA0049000481000036000000
B1122255557461N01347330EA0047700473000036000000
B1122295557512N01347276EA0047500471000036000000
B1122335557582N01347279EA0046000453000036000000
B1122375557660N01347319EA0044200442000036000000
B1122415557743N01347362EA0043500438000040000000
B1122455557812N01347408EA0045300461000036000000
B1122495557882N01347452EA0044600438000036000000
B1122535557963N01347487EA0042900423000036000000
B1122575558046N01347513EA0041500414000036000000
B1123015558129N01347538EA0041100413000036000000
B1123055558211N01347567EA0040700408000036000000
B1123095558289N01347622EA0040800410000036000000
B1123135558365N01347694EA0040300401000036000000
B1123175558444N01347760EA0039600394000036000000
B1123215558523N01347807EA0039100400000036000000
B1123255558594N01347838EA0041200417000032000000
B1123295558660N01347822EA0041000407000032000000
B1123335558727N01347851EA0041300414000036000000
B1123375558746N01347977EA0041900422000040000000
B1123415558695N01348067EA0042000412000040000000
B1123455558643N01348024EA0041000412000040000000
B1123495558647N01347933EA0041400419000036000000
B1123535558686N01347866EA0042000424000032000000
B1123575558746N01347864EA0042800430000032000000
B1124015558779N01347970EA0043200431000028000000
B1124055558734N01348064EA0042700424000032000000
B1124095558679N01348035EA0043000432000032000000
B1124135558660N01347965EA0043800439000032000000
B1124175558696N01347904EA0043600434000032000000
B1124215558748N01347970EA0043600435000032000000
B1124255558721N01348087EA0042800424000036000000
B1124295558655N01348142EA0042800432000032000000
B1124335558591N01348190EA0043300437000032000000
B1124375558548N01348149EA0044000437000036000000
B1124415558594N01348100EA0043000428000040000000
B1124455558634N01348208EA0043300441000040000000
B1124495558608N01348325EA0044300445000032000000
B1124535558552N01348351EA0044400443000032000000
B1124575558516N01348289EA0044200440000032000000
B1125015558512N01348202EA0043800443000032000000
B1125055558557N01348156EA0044400442000028000000
B1125095558620N01348217EA0044000440000032000000
B1125135558664N01348334EA0043800441000040000000
B1125175558673N01348472EA0044600447000036000000
B1125215558617N01348532EA0044300444000040000000
B1125255558609N01348448EA0044600442000040000000
B1125295558674N01348436EA0043700438000040000000
B1125335558703N01348559EA0044800454000036000000
B1125375558653N01348632EA0045500455000036000000
B1125415558638N01348561EA0045600456000036000000
B1125455558690N01348536EA0046100464000032000000
B1125495558735N01348618EA0046500464000032000000
B1125535558711N01348730EA0045900457000032000000
B1125575558652N01348748EA0045800465000032000000
B1126015558609N01348710EA0046200462000032000000
B1126055558614N01348626EA0045800456000028000000
B1126095558672N01348597EA0045300456000028000000
B1126135558721N01348688EA0045300460000028000000
B1126175558698N01348805EA0046400471000028000000
B1126215558639N01348849EA0046500465000028000000
B1126255558586N01348825EA0046200464000032000000
B1126295558603N01348748EA0046300467000028000000
B1126335558666N01348776EA0046300465000032000000
B1126375558677N01348909EA0047000475000032000000
B1126415558648N01349026EA0047100471000032000000
B1126455558596N01349107EA0046600469000028000000
B1126495558535N01349139EA0047000473000028000000
B1126535558478N01349114EA0046500462000028000000
B1126575558440N01349042EA0045800460000032000000
B1127015558419N01348944EA0045300454000032000000
B1127055558423N01348843EA0045900465000032000000
B1127095558445N01348748EA0046100461000032000000
B1127135558449N01348648EA0045600467000032000000
B1127175558427N01348572EA0047500477000032000000
B1127215558367N01348594EA0046900467000032000000
B1127255558354N01348724EA0045700457000032000000
B1127295558409N01348802EA0045400455000032000000
B1127335558465N01348774EA0044800445000032000000
B1127375558479N01348691EA0045000457000032000000
B1127415558471N01348606EA0045100446000032000000
B1127455558443N01348523EA0044600447000036000000
B1127495558423N01348433EA0044300445000032000000
B1127535558408N01348340EA0044800459000028000000
B1127575558370N01348281EA0046000459000032000000
B1128015558323N01348364EA0046500462000036000000
B1128055558348N01348480EA0046100459000036000000
B1128095558408N01348480EA0046300467000032000000
B1128135558426N01348397EA0047200475000032000000
B1128175558395N01348321EA0047800478000032000000
B1128215558330N01348318EA0047600469000032000000
B1128255558288N01348428EA0048000484000032000000
B1128295558314N01348550EA0048600476000032000000
B1128335558380N01348579EA0048000480000032000000
B1128375558423N01348513EA0048200484000032000000
B1128415558414N01348418EA0048500481000036000000
B1128455558358N01348367EA0048600486000040000000
B1128495558302N01348433EA0049600491000036000000
B1128535558292N01348567EA0049800491000048000000
B1128575558340N01348659EA0049900497000044000000
B1129015558395N01348640EA0050400498000036000000
B1129055558414N01348554EA0050300500000036000000
B1129095558401N01348468EA0050400500000032000000
B1129135558350N01348450EA0050800503000032000000
B1129175558314N01348548EA0050800494000032000000
B1129215558341N01348678EA0050000496000032000000
B1129255558405N01348721EA0050200498000032000000
B1129295558456N01348696EA0050900504000032000000
B1129335558467N01348611EA0050000489000032000000
B1129375558421N01348557EA0049200482000036000000
B1129415558366N01348623EA0049400498000032000000
B1129455558354N01348745EA0050100491000032000000
B1129495558410N01348805EA0049500492000032000000
B1129535558443N01348749EA0049700491000032000000
B1129575558422N01348674EA0048800476000032000000
B1130015558378N01348600EA0047100469000032000000
B1130055558331N01348561EA0050200508000036000000
B1130095558291N01348632EA0051200499000032000000
B1130135558319N01348754EA0049400488000036000000
B1130175558380N01348750EA0049700495000032000000
B1130215558423N01348691EA0050000501000028000000
B1130255558439N01348606EA0050500503000028000000
B1130295558402N01348541EA0051300513000024000000
B1130335558345N01348571EA0051600510000024000000
B1130375558332N01348700EA0051500513000024000000
B1130415558388N01348766EA0052000517000024000000
B1130455558430N01348710EA0052400524000028000000
B1130495558431N01348622EA0053700533000024000000
B1130535558380N01348598EA0053700534000028000000
B1130575558348N01348708EA0054000538000028000000
B1131015558387N01348809EA0054700545000028000000
B1131055558443N01348787EA0055300553000028000000
B1131095558465N01348704EA0056700566000028000000
B1131135558428N01348645EA0056700562000028000000
B1131175558373N01348701EA0056800568000028000000
B1131215558360N01348823EA0056700560000032000000
B1131255558408N01348910EA0056300566000028000000
B1131295558460N01348880EA0058000584000024000000
B1131335558460N01348789EA0058100576000028000000
B1131375558402N01348805EA0058700588000028000000
B1131415558402N01348929EA0058600576000032015000
B1131455558460N01349018EA0059200598000036000000
B1131495558501N01348970EA0061100617000036000000
B1131535558461N01348929EA0062700630000032015000
B1131575558426N01349017EA0062300618015036015000
B1132015558467N01349129EA0062700636015032015000
B1132055558519N01349120EA0064300642000036000000
B1132095558500N01349047EA0064600651000032000000
B1132135558451N01349091EA0065600656000028015000
B1132175558456N01349205EA0065800656000032015000
B1132215558497N01349290EA0066800669000028000000
B1132255558551N01349285EA0066600664000028000000
B1132295558552N01349212EA0067600676000024000000
B1132335558501N01349211EA0067900678000024000000
B1132375558466N01349304EA0068800689000028000000
B1132415558461N01349415EA0069300693000028000000
B1132455558503N01349491EA0069400689000028000000
B1132495558553N01349476EA0068800684000028000000
B1132535558557N01349400EA0068300678000032000000
B1132575558499N01349400EA0068100680000032000000
B1133015558440N01349447EA0068800695000028000000
B1133055558400N01349532EA0070200700000028000000
B1133095558418N01349649EA0069600693000028000000
B1133135558475N01349677EA0070500705000028000000
B1133175558513N01349620EA0070600702000028000000
B1133215558503N01349534EA0070200700000028000000
B1133255558445N01349537EA0070500708000028000000
B1133295558422N01349649EA0071300712000028000000
B1133335558461N01349750EA0071500712000028000000
B1133375558519N01349805EA0071700705000028000000
B1133415558596N01349831EA0068200657000028000000
B1133455558690N01349827EA0063400624000036000000
B1133495558789N01349810EA0060900599000040000000
B1133535558893N01349789EA0057800575000040000000
B1133575558997N01349768EA0056700570000040000000
B1134015559097N01349746EA0056200565000040000000
B1134055559195N01349724EA0055500553000040000000
B1134095559293N01349703EA0054200543000040000000
B1134135559393N01349688EA0052800525000040000000
B1134175559492N01349675EA0052100526000040000000
B1134215559582N01349646EA0052500531000036000000
B1134255559669N01349614EA0052900531000040000000
B1134295559757N01349580EA0052300518000040000000
B1134335559851N01349558EA0051400517000040000000
B1134375559943N01349553EA0051400510000036000000
B1134415600037N01349551EA0050500509000036000000
B1134455600128N01349564EA0050500503000036000000
B1134495600219N01349594EA0049800499000036000000
B1134535600312N01349624EA0049300491000036000000
B1134575600393N01349646EA0050900536000036000000
B1135015600450N01349619EA0054700556000036000000
B1135055600453N01349537EA0056000553000032000000
B1135095600399N01349520EA0055000555000028000000
B1135135600360N01349610EA0056200566000028000000
B1135175600338N01349720EA0057300575000024000000
B1135215600359N01349833EA0057500571000024000000
B1135255600417N01349892EA0057600578000024000000
B1135295600460N01349969EA0058600583000024000000
B1135335600446N01350080EA0057900572000024000000
B1135375600389N01350141EA0057500575000028000000
B1135415600328N01350162EA0058200584000028000000
B1135455600297N01350105EA0058900585000032000000
B1135495600342N01350058EA0057900570000040000000
B1135535600393N01350140EA0057700582000040000000
B1135575600398N01350258EA0059200590000036000000
B1136015600369N01350365EA0059000590000036000000
B1136055600320N01350372EA0060000601000032000000
B1136095600302N01350308EA0060800606000032000000
B1136135600347N01350264EA0060700600000036000000
B1136175600393N01350346EA0060600604000036000000
B1136215600369N01350461EA0060100596000036000000
B1136255600328N01350548EA0061300617000032000000
B1136295600282N01350611EA0062700623000032000000
B1136335600252N01350561EA0061500604000036000000
B1136375600285N01350491EA0061000611000032000000
B1136415600341N01350476EA0062200624000032000000
B1136455600388N01350557EA0063200627000028000000
B1136495600362N01350671EA0062700623000028000000
B1136535600315N01350645EA0063500633000028000000
B1136575600297N01350561EA0064800649000028000000
B1137015600250N01350533EA0065700658000028000000
B1137055600213N01350633EA0067100668000028000000
B1137095600247N01350736EA0067100665000028000000
B1137135600299N01350707EA0068000684000024000000
B1137175600311N01350622EA0068900694000024000000
B1137215600271N01350577EA0070200702000024000000
B1137255600219N01350646EA0070400712000024000000
B1137295600225N01350769EA0071600716000024000000
B1137335600281N01350808EA0071700718000024000000
B1137375600310N01350736EA0072800734000024000000
B1137415600293N01350661EA0075000751000028000000
B1137455600241N01350664EA0075000744000028000000
B1137495600212N01350780EA0074100744000028000000
B1137535600254N01350862EA0075300750000028000000
B1137575600306N01350838EA0075800761000024000000
B1138015600328N01350775EA0076800767000024000000
B1138055600293N01350728EA0076800764000024000000
B1138095600243N01350799EA0076300762000028015000
B1138135600256N01350921EA0076100765000028000000
B1138175600312N01350970EA0077600776000028000000
B1138215600337N01350901EA0077700775000028000000
B1138255600284N01350879EA0078100780000028000000
B1138295600248N01350981EA0078800788000028015000
B1138335600286N01351070EA0079600796000024000000
B1138375600330N01351033EA0080600809000024000000
B1138415600317N01350957EA0081700814000024000000
B1138455600261N01350980EA0081900812000028000000
B1138495600252N01351102EA0081600810000028000000
B1138535600307N01351172EA0082200823000028000000
B1138575600359N01351161EA0083600837000024000000
B1139015600354N01351088EA0084400836000024000000
B1139055600297N01351100EA0083500818000028000000
B1139095600286N01351232EA0082500829000028015000
B1139135600339N01351289EA0084400846000028000000
B1139175600393N01351288EA0085900850000024000000
B1139215600415N01351217EA0084900835000028000000
B1139255600432N01351129EA0083500826000032000000
B1139295600434N01351032EA0082800821000032000000
B1139335600397N01350962EA0082900824000028000000
B1139375600346N01350929EA0083900839000028000000
B1139415600295N01350906EA0083700821000024000000
B1139455600228N01350911EA0081600807000028000000
B1139495600159N01350946EA0080900805000028000000
B1139535600094N01350994EA0080800797000028000000
B1139575600030N01351061EA0079700787000028000000
B1140015559995N01351183EA0079200787000028000000
B1140055600009N01351305EA0078900776000028000000
B1140095600056N01351410EA0076400752000032000000
B1140135600124N01351474EA0074700735000032000000
B1140175600191N01351521EA0075100764000036000000
B1140215600243N01351551EA0078000772000032000000
B1140255600303N01351570EA0077700762000028000000
B1140295600360N01351647EA0077600788000028000000
B1140335600346N01351764EA0080100795000028000000
B1140375600298N01351743EA0081200809000036000000
B1140415600328N01351687EA0082900831000032000000
B1140455600378N01351750EA0084500837000036000000
B1140495600360N01351865EA0085000851000036000000
B1140535600313N01351860EA0086900865000032000000
B1140575600330N01351795EA0088400880000028000000
B1141015600386N01351822EA0089400891000028000000
B1141055600394N01351941EA0090200899000024000000
B1141095600345N01351982EA0091200911000020000000
B1141135600336N01351916EA0092600924000020000000
B1141175600386N01351900EA0093700932000020000000
B1141215600420N01351998EA0094600940000020000000
B1141255600389N01352094EA0095100944000020000000
B1141295600345N01352069EA0096100958000020000000
B1141335600364N01352006EA0097500971000024000000
B1141375600419N01352033EA0098300975000024000000
B1141415600430N01352145EA0098300970000020000000
B1141455600377N01352192EA0097700970000024000000
B1141495600365N01352119EA0099000988000020000000
B1141535600419N01352110EA0100000991000020000000
B1141575600450N01352216EA0100300994000020000000
B1142015600407N01352294EA0100000988000024000000
B1142055600372N01352236EA0100501002000024000000
B1142095600384N01352155EA0101801013000024000000
B1142135600403N01352080EA0102801016000024000000
B1142175600445N01352008EA0101400986000024000000
B1142215600499N01351912EA0097400951000028000000
B1142255600559N01351803EA0094900940000032000000
B1142295600618N01351696EA0094600957000032000000
B1142335600674N01351600EA0096000952000032000000
B1142375600733N01351503EA0094800940000032000000
B1142415600792N01351402EA0093700931000028000000
B1142455600852N01351302EA0092800923000028000000
B1142495600911N01351200EA0091900914000028000000
B1142535600971N01351096EA0090900902000032000000
B1142575601031N01350988EA0089700895000028000000
B1143015601092N01350877EA0088900886000032000000
B1143055601151N01350768EA0088200883000032000000
B1143095601207N01350664EA0088300878000032000000
B1143135601261N01350556EA0087300869000032000000
B1143175601313N01350444EA0086700863000032000000
B1143215601368N01350336EA0086600863000032000000
B1143255601421N01350232EA0086400861000032000000
B1143295601473N01350128EA0086300858000032000000
B1143335601528N01350021EA0085800860000032000000
B1143375601574N01349936EA0088800906000028000000
B1143415601585N01349852EA0092600926000024000000
B1143455601530N01349835EA0094400943000028000000
B1143495601499N01349933EA0096200959000024000000
B1143535601528N01350036EA0096600954000024000000
B1143575601585N01350047EA0096600967000020000000
B1144015601619N01349984EA0098400980000020000000
B1144055601633N01349901EA0099600991000016000000
B1144095601585N01349855EA0101401011000020000000
B1144135601537N01349936EA0103101023000024000000
B1144175601561N01350041EA0104501043000024000000
B1144215601612N01350027EA0106001051000024000000
B1144255601610N01349937EA0107101071000020000000
B1144295601552N01349927EA0109401087000020000000
B1144335601520N01350037EA0110301098000020000000
B1144375601556N01350130EA0112401120000020000000
B1144415601608N01350118EA0113601133000020000000
B1144455601616N01350030EA0115001149000016000000
B1144495601564N01349989EA0117001170000020000000
B1144535601515N01350069EA0118601176000020000000
B1144575601532N01350188EA0119301194000016000000
B1145015601586N01350217EA0121201211000020000000
B1145055601616N01350144EA0122601221000016000000
B1145095601576N01350071EA0123901240000016000000
B1145135601517N01350122EA0126101256000016000000
B1145175601511N01350240EA0127001263000016000000
B1145215601563N01350301EA0127901275000016000000
B1145255601606N01350255EA0130001294000016000000
B1145295601591N01350167EA0131401307000016000000
B1145335601530N01350167EA0132901323000016000000
B1145375601496N01350275EA0133701328000016000000
B1145415601532N01350370EA0134401341000016000000
B1145455601586N01350364EA0136201357000016000000
B1145495601623N01350300EA0137701370000016000000
B1145535601652N01350225EA0139301388000016000000
B1145575601684N01350151EA0140201385000016000000
B1146015601720N01350061EA0138401366000016000000
B1146055601760N01349954EA0135901335000024000000
B1146095601801N01349828EA0132801311000028000000
B1146135601846N01349698EA0131201307000032000000
B1146175601892N01349575EA0131501301000036000000
B1146215601944N01349464EA0131901334000032000000
B1146255601980N01349399EA0138201378000028000000
B1146295602019N01349334EA0137701353000024000000
B1146335602075N01349247EA0133001307000028000000
B1146375602152N01349163EA0130401286000032000000
B1146415602243N01349101EA0128101267000032000000
B1146455602332N01349031EA0126601259000036000000
B1146495602423N01348956EA0125601250000036000000
B1146535602507N01348873EA0125901260000036000000
B1146575602581N01348801EA0127001271000032000000
B1147015602655N01348735EA0126901253000032000000
B1147055602731N01348652EA0124201227000032000000
B1147095602807N01348555EA0122701224000032000000
B1147135602880N01348459EA0122701220000032000000
B1147175602952N01348362EA0121401206000036000000
B1147215603025N01348268EA0121101210000036000000
B1147255603086N01348189EA0123001232000036000000
B1147295603150N01348108EA0123101219000036000000
B1147335603209N01348035EA0124101241000036000000
B1147375603266N01347965EA0124401222000032000000
B1147415603335N01347878EA0121301196000032000000
B1147455603397N01347799EA0121901247000032000000
B1147495603436N01347756EA0128001273000028000000
B1147535603483N01347697EA0126901251000024000000
B1147575603534N01347630EA0127501277000024000000
B1148015603579N01347577EA0129001274000020000000
B1148055603643N01347523EA0125501224000024000000
B1148095603732N01347475EA0121901209000032000000
B1148135603825N01347431EA0121801201000032000000
B1148175603916N01347385EA0120101182000032000000
B1148215604011N01347335EA0118501173000032000000
B1148255604103N01347292EA0118401177000032000000
B1148295604190N01347253EA0118901177000032000000
B1148335604280N01347209EA0117901155000028000000
B1148375604375N01347168EA0116501152000028000000
B1148415604467N01347133EA0116501154000028000000
B1148455604554N01347096EA0116301148000028000000
B1148495604644N01347060EA0114701132000028000000
B1148535604731N01347040EA0114301130000028000000
B1148575604822N01347027EA0113101120000028000000
B1149015604912N01347025EA0113401129000028000000
B1149055604996N01347029EA0114201132000028000000
B1149095605073N01347050EA0116101158000024000000
B1149135605140N01347086EA0117801175000020000000
B1149175605187N01347168EA0120001194000020000000
B1149215605178N01347285EA0121501203000016000000
B1149255605125N01347320EA0122201209000016000000
B1149295605103N01347258EA0123101222000016000000
B1149335605133N01347206EA0124001230000016000000
B1149375605186N01347237EA0124701238000016000000
B1149415605224N01347332EA0126101254000016000000
B1149455605224N01347449EA0127201261000016000000
B1149495605187N01347547EA0127501262000016000000
B1149535605129N01347558EA0127901270000016000000
B1149575605100N01347497EA0129501288000016000000
B1150015605101N01347424EA0130701296000016000000
B1150055605131N01347369EA0131201302000020000000
B1150095605185N01347395EA0132001313000020000000
B1150135605212N01347502EA0133001321000016000000
B1150175605179N01347612EA0133801328000016000000
B1150215605121N01347623EA0134601337000016000000
B1150255605100N01347549EA0135401341000016000000
B1150295605142N01347500EA0135901351000020000000
B1150335605194N01347551EA0137501366000016000000
B1150375605212N01347666EA0138301374000016000000
B1150415605186N01347778EA0139401387000016000000
B1150455605131N01347816EA0140101392000016000000
B1150495605094N01347761EA0140501396000016000000
B1150535605110N01347692EA0141001403000016000000
B1150575605159N01347661EA0141301408000016000000
B1151015605209N01347643EA0141901414000016000000
B1151055605263N01347617EA0142501416000016000000
B1151095605324N01347599EA0142501417000016000000
B1151135605389N01347584EA0142401411000020000000
B1151175605469N01347580EA0140401388000020000000
B1151215605560N01347588EA0139001377000024000000
B1151255605655N01347595EA0137601362000024000000
B1151295605746N01347601EA0137201367000024000000
B1151335605832N01347610EA0138201375000028000000
B1151375605914N01347629EA0138701370000024000000
B1151415606002N01347643EA0136701337000024000000
B1151455606105N01347653EA0133201316000032000000
B1151495606206N01347662EA0133401330000032000000
B1151535606305N01347666EA0133801317000028000000
B1151575606408N01347662EA0131901297000028000000
B1152015606513N01347656EA0130701298000032000000
B1152055606611N01347660EA0131401300000028000000
B1152095606709N01347666EA0130401285000028000000
B1152135606808N01347677EA0129501278000028000000
B1152175606907N01347683EA0128301263000028000000
B1152215607007N01347687EA0126501247000028000000
B1152255607110N01347688EA0125401234000028000000
B1152295607213N01347688EA0124301228000028000000
B1152335607313N01347690EA0124301235000028000000
B1152375607408N01347695EA0125001240000028000000
B1152415607499N01347703EA0125201237000028000000
B1152455607590N01347710EA0124401226000024000000
B1152495607683N01347713EA0123401217000024000000
B1152535607775N01347718EA0122901214000024000000
B1152575607866N01347720EA0122401210000024000000
B1153015607959N01347723EA0121901200000024000000
B1153055608052N01347727EA0121001191000024000000
B1153095608146N01347730EA0120201186000024000000
B1153135608241N01347736EA0119401178000024000000
B1153175608336N01347742EA0118701171000036000000
B1153215608431N01347751EA0118301167000036000000
B1153255608523N01347756EA0118001164000032000000
B1153295608615N01347760EA0117601161000032000000
B1153335608706N01347769EA0117301158000032000000
B1153375608797N01347778EA0116601148000028000000
B1153415608890N01347791EA0115601142000028000000
B1153455608982N01347808EA0115701150000028000000
B1153495609068N01347827EA0116401150000028000000
B1153535609155N01347850EA0116001143000024000000
B1153575609243N01347872EA0115201140000024000000
B1154015609329N01347892EA0115101141000024000000
B1154055609411N01347915EA0115501143000024000000
B1154095609489N01347942EA0115601143000028000000
B1154135609566N01347970EA0115201132000028000000
B1154175609647N01348000EA0113101109000028000000
B1154215609736N01348029EA0111601105000028000000
B1154255609822N01348061EA0111201095000028000000
B1154295609910N01348100EA0110101090000028000000
B1154335609996N01348139EA0110401096000028000000
B1154375610083N01348177EA0110501095000028000000
B1154415610158N01348215EA0112001111000024000000
B1154455610235N01348246EA0111701096000024000000
B1154495610318N01348276EA0109701079000024000000
B1154535610404N01348308EA0108901080000024000000
B1154575610485N01348344EA0109001073000024000000
B1155015610570N01348381EA0108001068000024000000
B1155055610645N01348453EA0109101098000024000000
B1155095610699N01348542EA0112001108000024000000
B1155135610750N01348641EA0112401115000020000000
B1155175610806N01348726EA0112601119000020000000
B1155215610866N01348749EA0114501139000020000000
B1155255610890N01348672EA0115601145000020000000
B1155295610860N01348611EA0116501152000016000000
B1155335610806N01348617EA0115401131000016000000
B1155375610767N01348723EA0114001124000020000000
B1155415610778N01348854EA0114401132000016000000
B1155455610803N01348978EA0115601151000020000000
B1155495610854N01349018EA0117201161000020000000
B1155535610875N01348945EA0117601159000016000000
B1155575610827N01348919EA0118301174015020015000
B1156015610803N01349022EA0119601184000020015000
B1156055610823N01349134EA0120601193000020000000
B1156095610877N01349169EA0120801191000020000000
B1156135610905N01349096EA0120901197000020000000
B1156175610863N01349048EA0121701204000016000000
B1156215610824N01349134EA0121801199000020000000
B1156255610850N01349239EA0122501219000020000000
B1156295610898N01349282EA0123801221000020000000
B1156335610954N01349277EA0123501218000020000000
B1156375611012N01349248EA0123101210000016000000
B1156415611083N01349215EA0121801198000024000000
B1156455611158N01349181EA0120701189000028000000
B1156495611235N01349151EA0119801171000024000000
B1156535611323N01349111EA0116601145000028000000
B1156575611412N01349082EA0116101148000028000000
B1157015611499N01349060EA0115701143000024000000
B1157055611584N01349043EA0115301142000024000000
B1157095611670N01349043EA0114801132000024000000
B1157135611757N01349051EA0114001129000028000000
B1157175611843N01349061EA0114001128000028000000
B1157215611928N01349073EA0113601124000024000000
B1157255612012N01349086EA0112901117000024000000
B1157295612097N01349105EA0112001105000028000000
B1157335612184N01349130EA0110901099000028000000
B1157375612267N01349152EA0110901105000036000000
B1157415612348N01349169EA0111001104000036000000
B1157455612428N01349181EA0110901096000032000000
B1157495612513N01349203EA0109801085000032000000
B1157535612589N01349243EA0110701113000028000000
B1157575612658N01349289EA0110701089000028000000
B1158015612741N01349341EA0108301070000028000000
B1158055612825N01349395EA0108801101000028000000
B1158095612878N01349412EA0113801152000028000000
B1158135612888N01349351EA0116301144000024000000
B1158175612839N01349304EA0114501137000024000000
B1158215612791N01349377EA0115501146000024000000
B1158255612756N01349484EA0115201143000020000000
B1158295612735N01349606EA0115701151000020000000
B1158335612747N01349728EA0115801144000020000000
B1158375612783N01349832EA0115201143000020000000
B1158415612835N01349901EA0114801135000020000000
B1158455612896N01349910EA0114601138000020000000
B1158495612960N01349911EA0114301136000020000000
B1158535613026N01349919EA0114901149000020000000
B1158575613083N01349906EA0117001166000020000000
B1159015613081N01349831EA0117601168000020000000
B1159055613027N01349872EA0117601169000020000000
B1159095613025N01350002EA0119001184000024000000
B1159135613081N01350050EA0119801197000020000000
B1159175613104N01349987EA0121001208000016000000
B1159215613060N01349953EA0121201201000016000000
B1159255613020N01350047EA0121701221000016000000
B1159295613030N01350164EA0123601227000016000000
B1159335613089N01350192EA0123901232000016000000
B1159375613105N01350118EA0124501241000016000000
B1159415613056N01350099EA0125001238000020000000
B1159455613008N01350175EA0125701257000024000000
B1159495613011N01350283EA0127201264000020000000
B1159535613068N01350312EA0126501246000024000000
B1159575613090N01350234EA0126501267000024000000
B1200015613068N01350171EA0128601275000020000000
B1200055613016N01350199EA0128301261000020000000
B1200095613008N01350333EA0127501271000024000000
B1200135613059N01350400EA0129701288000024000000
B1200175613117N01350404EA0129901276000020000000
B1200215613187N01350385EA0127401241000024000000
B1200255613271N01350347EA0123701208000028000000
B1200295613358N01350290EA0120801181000032000000
B1200335613445N01350210EA0118001157000032000000
B1200375613529N01350123EA0117001158000032000000
B1200415613610N01350040EA0117001151000032000000
B1200455613690N01349953EA0115801137000032000000
B1200495613770N01349862EA0114701133000028000000
B1200535613843N01349775EA0114901137000028000000
B1200575613915N01349688EA0114301121000028000000
B1201015613992N01349608EA0113301122000028000000
B1201055614066N01349530EA0113301118000028000000
B1201095614135N01349452EA0113401121000028000000
B1201135614205N01349372EA0112601103000024000000
B1201175614275N01349290EA0111201100000028000000
B1201215614340N01349209EA0111301097000028000000
B1201255614409N01349129EA0110601090000028000000
B1201295614476N01349053EA0110801101000028000000
B1201335614541N01348978EA0110601080000028000000
B1201375614616N01348900EA0108101063000032000000
B1201415614691N01348823EA0107701062000028000000
B1201455614768N01348748EA0107001054000028000000
B1201495614841N01348682EA0108201084000028000000
B1201535614906N01348628EA0110301097000024000000
B1201575614970N01348587EA0111401103000024000000
B1202015615033N01348548EA0112001106000024000000
B1202055615078N01348485EA0112701124000024000000
B1202095615066N01348416EA0114101120000020000000
B1202135615016N01348402EA0113001109000024000000
B1202175614979N01348493EA0112301104000024000000
B1202215614987N01348619EA0112001113000024000000
B1202255615019N01348724EA0113601121000024000000
B1202295615079N01348779EA0113701120000020000000
B1202335615143N01348841EA0112601094000024000000
B1202375615213N01348951EA0109101065000028000000
B1202415615280N01349059EA0108701074000028000000
B1202455615348N01349163EA0109201085000028000000
B1202495615412N01349257EA0110201083000024000000
B1202535615479N01349363EA0109301078000024000000
B1202575615548N01349465EA0109501080000024000000
B1203015615625N01349555EA0108901065000024000000
B1203055615707N01349634EA0107501054000024000000
B1203095615794N01349703EA0105501032000024000000
B1203135615884N01349763EA0104001023000024000000
B1203175615971N01349824EA0103501024000024000000
B1203215616053N01349880EA0103801025000024000000
B1203255616134N01349933EA0103301015000024000000
B1203295616216N01349991EA0102501011000024000000
B1203335616296N01350049EA0102201008000020000000
B1203375616376N01350102EA0101600998000024000000
B1203415616459N01350157EA0100100977000024000000
B1203455616547N01350225EA0098100967000028000000
B1203495616630N01350305EA0098000970000024000000
B1203535616708N01350382EA0098400981000028000000
B1203575616778N01350456EA0100000992000024000000
B1204015616851N01350531EA0099800980000024000000
B1204055616930N01350607EA0098700974000024000000
B1204095617011N01350680EA0099000982000024000000
B1204135617087N01350754EA0099300980000024000000
B1204175617165N01350824EA0098700968000024000000
B1204215617246N01350894EA0097500958000024000000
B1204255617325N01350960EA0096700951000024000000
B1204295617406N01351031EA0096000948000024000000
B1204335617481N01351097EA0096600965000024000000
B1204375617533N01351152EA0100000997000024000000
B1204415617585N01351200EA0100100972000020000000
B1204455617658N01351243EA0096700942000024000000
B1204495617740N01351283EA0095000937000024000000
B1204535617823N01351318EA0094500939000024000000
B1204575617886N01351350EA0098000989000020000000
B1205015617939N01351376EA0100800994000020000000
B1205055617983N01351331EA0099900983000020000000
B1205095618004N01351252EA0099800975000020000000
B1205135618057N01351192EA0097400939000024000000
B1205175618138N01351172EA0094200923000024000000
B1205215618221N01351162EA0092700911000028000000
B1205255618300N01351154EA0092300903000028000000
B1205295618387N01351150EA0090100888000032000000
B1205335618464N01351158EA0091300926000032000000
B1205375618524N01351158EA0094500943000024000000
B1205415618568N01351103EA0095400944000028000000
B1205455618610N01351051EA0096600966000024000000
B1205495618655N01351015EA0098200971000024000000
B1205535618690N01351105EA0097700957000028000000
B1205575618641N01351184EA0097300973000024000000
B1206015618585N01351184EA0099700993000028000000
B1206055618560N01351111EA0100100989000024000000
B1206095618602N01351062EA0101401014000024000000
B1206135618642N01351131EA0103301023000020000000
B1206175618630N01351241EA0103801025000020000000
B1206215618573N01351275EA0104601039000024000000
B1206255618545N01351207EA0106001054000020000000
B1206295618573N01351150EA0108001071000020000000
B1206335618624N01351187EA0108701075000020000000
B1206375618638N01351301EA0109601087000020000000
B1206415618597N01351387EA0110201089000016000000
B1206455618543N01351345EA0110201096000016000000
B1206495618555N01351258EA0111501113000016000000
B1206535618607N01351267EA0113301130000016000000
B1206575618636N01351370EA0115001140000020000000
B1207015618610N01351478EA0115401144000020000000
B1207055618552N01351488EA0116001149000016000000
B1207095618528N01351408EA0116401153000016000000
B1207135618572N01351374EA0118201179000020000000
B1207175618611N01351460EA0120001190000020000000
B1207215618585N01351565EA0121001198000020000000
B1207255618529N01351560EA0121201196000020000000
B1207295618523N01351469EA0121901212000024000000
B1207335618550N01351405EA0124501231000024000000
B1207375618594N01351473EA0124601231000028000000
B1207415618562N01351577EA0125601249000024000000
B1207455618511N01351539EA0127101257000020000000
B1207495618541N01351470EA0128101273000024000000
B1207535618589N01351517EA0130301293000024000000
B1207575618577N01351631EA0131401301000024000000
B1208015618517N01351646EA0132201309000024000000
B1208055618504N01351560EA0133401325000024000000
B1208095618537N01351497EA0134701335000020000000
B1208135618589N01351538EA0135601339000024000000
B1208175618598N01351660EA0136201356000024000000
B1208215618546N01351730EA0138101369000024000000
B1208255618500N01351673EA0139101380000020000000
B1208295618516N01351591EA0140801395000020000000
B1208335618572N01351608EA0141301396000020000000
B1208375618599N01351720EA0142101416000020000000
B1208415618565N01351821EA0144501433000016000000
B1208455618503N01351833EA0145001429000016000000
B1208495618472N01351744EA0145301441000020000000
B1208535618507N01351686EA0147301458000020000000
B1208575618565N01351727EA0147601457000020000000
B1209015618625N01351786EA0148201469000020000000
B1209055618686N01351829EA0149801483000020000000
B1209095618751N01351873EA0149601473000024000000
B1209135618828N01351921EA0148701466000024000000
B1209175618906N01351956EA0148801469000028000000
B1209215618989N01351987EA0147201429000028000000
B1209255619088N01352026EA0143401408000032000000
B1209295619191N01352071EA0141701388000032000000
B1209335619296N01352121EA0139701371000036000000
B1209375619399N01352175EA0138901375000036000000
B1209415619499N01352225EA0138901368000036000000
B1209455619598N01352277EA0138401367000036000000
B1209495619693N01352327EA0138801370000032000000
B1209535619787N01352381EA0138301360000032000000
B1209575619882N01352436EA0137601352000032000000
B1210015619979N01352489EA0137101349000028000000
B1210055620072N01352541EA0136801349000028000000
B1210095620166N01352591EA0136701345000028000000
B1210135620259N01352639EA0136001338000028000000
B1210175620353N01352684EA0135401332000028000000
B1210215620443N01352740EA0134701323000028000000
B1210255620531N01352822EA0133201310000028000000
B1210295620625N01352905EA0132601307000032000000
B1210335620716N01352975EA0132901314000028000000
B1210375620807N01353029EA0133101307000028000000
B1210415620896N01353077EA0132501307000028000000
B1210455620985N01353129EA0131801290000028000000
B1210495621078N01353190EA0129401261000028000000
B1210535621177N01353259EA0127501255000028000000
B1210575621272N01353325EA0127101251000028000000
B1211015621362N01353394EA0127001251000028000000
B1211055621450N01353463EA0126601241000028000000
B1211095621539N01353534EA0125601239000028000000
B1211135621619N01353624EA0125601237000024000000
B1211175621698N01353726EA0125101230000024000000
B1211215621778N01353828EA0124601230000024000000
B1211255621854N01353927EA0124901230000024000000
B1211295621930N01354027EA0124801232000020000000
B1211335622003N01354127EA0124801226000020000000
B1211375622078N01354230EA0123401207000024000000
B1211415622155N01354343EA0122201208000024000000
B1211455622222N01354452EA0123001230000024000000
B1211495622283N01354552EA0124901224000020000000
B1211535622348N01354662EA0123901219000024000000
B1211575622413N01354776EA0123801221000024000000
B1212015622476N01354888EA0124301242000024000000
B1212055622528N01354977EA0126901246000024000000
B1212095622590N01355078EA0125101217000024000000
B1212135622660N01355192EA0122901217000024000000
B1212175622725N01355295EA0124301230000024000000
B1212215622794N01355382EA0124601222000020000000
B1212255622872N01355444EA0123501210000024000000
B1212295622954N01355473EA0123001213000024000000
B1212335623035N01355492EA0123301217000028000000
B1212375623093N01355509EA0126601250000024000000
B1212415623165N01355523EA0124701207000024000000
B1212455623253N01355543EA0122301202000028000000
B1212495623339N01355562EA0122701213000024000000
B1212535623425N01355582EA0122801201000024000000
B1212575623515N01355596EA0120901182000024000000
B1213015623607N01355607EA0119701173000024000000
B1213055623699N01355614EA0118301157000024000000
B1213095623793N01355624EA0116901145000024000000
B1213135623886N01355634EA0116001145000024000000
B1213175623973N01355650EA0116501143000024000000
B1213215624063N01355668EA0114801115000024000000
B1213255624159N01355690EA0112301101000028000000
B1213295624252N01355708EA0112701120000028000000
B1213335624327N01355729EA0116201171000024000000
B1213375624375N01355703EA0120901196000020000000
B1213415624365N01355614EA0121701196000020000000
B1213455624310N01355620EA0123201222000020000000
B1213495624283N01355720EA0124101210000016000000
B1213535624308N01355838EA0123401221000020000000
B1213575624358N01355897EA0125301244000016000000
B1214015624408N01355887EA0127301253000016000000
B1214055624396N01355808EA0127401253000020000000
B1214095624336N01355841EA0128501271000020000000
B1214135624314N01355955EA0129901283000020000000
B1214175624332N01356067EA0131401297000016000000
B1214215624384N01356116EA0132001297000016000000
B1214255624425N01356056EA0132201299000016000000
B1214295624448N01355965EA0132601318000016000000
B1214335624488N01355907EA0134801330000016000000
B1214375624545N01355889EA0136301357000016000000
B1214415624592N01355938EA0139001373000020000000
B1214455624571N01356037EA0140001378000020000000
B1214495624518N01356006EA0140801395000024000000
B1214535624522N01355920EA0143201423000020000000
B1214575624573N01355894EA0144901424000020000000
B1215015624638N01355906EA0145201435000020000000
B1215055624704N01355917EA0146101443000020000000
B1215095624773N01355930EA0147201450000016000000
B1215135624846N01355959EA0147001440000016000000
B1215175624926N01355981EA0145501420000020000000
B1215215625013N01356007EA0143101401000024000000
B1215255625103N01356027EA0141601379000024000000
B1215295625199N01356027EA0139001362000024000000
B1215335625294N01356016EA0138201355000028000000
B1215375625389N01356003EA0137701352000028000000
B1215415625479N01355989EA0138001365000028000000
B1215455625567N01355975EA0138501356000028000000
B1215495625657N01355956EA0137701349000028000000
B1215535625743N01355942EA0137701366000032000000
B1215575625822N01355929EA0139601375000028000000
B1216015625904N01355924EA0139501369000028000000
B1216055625991N01355933EA0138601356000024000000
B1216095626079N01355951EA0137301343000024000000
B1216135626174N01355968EA0135601329000024000000
B1216175626272N01355986EA0134801316000028000000
B1216215626372N01356004EA0133601312000028000000
B1216255626469N01356021EA0133301310000028000000
B1216295626564N01356041EA0133001303000028000000
B1216335626659N01356058EA0132301299000028000000
B1216375626753N01356076EA0132401306000028000000
B1216415626844N01356094EA0132301295000024000000
B1216455626937N01356110EA0131401293000028000000
B1216495627031N01356124EA0130801282000028000000
B1216535627127N01356137EA0129901272000024000000
B1216575627225N01356154EA0128601255000024000000
B1217015627324N01356170EA0127501251000028000000
B1217055627421N01356181EA0126601240000028000000
B1217095627517N01356193EA0125901235000024000000
B1217135627616N01356203EA0124801219000024000000
B1217175627716N01356211EA0123701221000028000000
B1217215627807N01356227EA0125101236000028000000
B1217255627897N01356244EA0125201233000024000000
B1217295627983N01356263EA0125501236000024000000
B1217335628068N01356283EA0125201225000020000000
B1217375628158N01356302EA0123801205000024000000
B1217415628252N01356319EA0121601196000024000000
B1217455628344N01356339EA0121201190000028000000
B1217495628438N01356358EA0120201176000024000000
B1217535628531N01356375EA0119301166000024000000
B1217575628627N01356393EA0117901159000024000000
B1218015628720N01356411EA0117501152000024000000
B1218055628812N01356426EA0116501141000024000000
B1218095628906N01356439EA0116101143000024000000
B1218135628995N01356454EA0116101140000028000000
B1218175629084N01356479EA0115801132000028000000
B1218215629175N01356513EA0114701134000032000000
B1218255629237N01356543EA0118201198000028000000
B1218295629289N01356539EA0122201198000028000000
B1218335629292N01356453EA0122101206000024000000
B1218375629238N01356436EA0123101211000024000000
B1218415629196N01356527EA0123801227000024000000
B1218455629197N01356639EA0125301234000020000000
B1218495629246N01356708EA0125501238000020000000
B1218535629292N01356670EA0126801255000016000000
B1218575629272N01356600EA0128001257000020000000
B1219015629219N01356647EA0128101264000020000000
B1219055629236N01356757EA0129401280000020000000
B1219095629293N01356791EA0130801294000020000000
B1219135629322N01356727EA0131701295000020000000
B1219175629276N01356686EA0132401309000020000000
B1219215629236N01356770EA0133801320000020000000
B1219255629264N01356870EA0134901335000020000000
B1219295629316N01356892EA0137101354000016000000
B1219335629333N01356820EA0137301349000016000000
B1219375629280N01356803EA0137901362000016000000
B1219415629263N01356916EA0139101372000020000000
B1219455629309N01356998EA0140701392000020000000
B1219495629354N01356963EA0141801398000020000000
B1219535629327N01356891EA0142601403000020000000
B1219575629283N01356972EA0143401414000020000000
B1220015629302N01357085EA0144301429000020000000
B1220055629357N01357116EA0145801442000016000000
B1220095629387N01357048EA0147201457000016000000
B1220135629357N01356977EA0148301464000016000000
B1220175629301N01356994EA0149401477000020000000
B1220215629279N01357102EA0150401481000016000000
B1220255629311N01357207EA0151201498000016000000
B1220295629366N01357252EA0153501518000016000000
B1220335629424N01357264EA0155201533000012000000
B1220375629483N01357265EA0156201540000012000000
B1220415629548N01357260EA0156301533000016000000
B1220455629614N01357243EA0156001537000016000000
B1220495629682N01357220EA0155401508000016000000
B1220535629765N01357180EA0152201489000020000000
B1220575629852N01357146EA0150801479000028000000
B1221015629942N01357125EA0150001468000028000000
B1221055630035N01357102EA0148501461000028000000
B1221095630126N01357072EA0148301456000028000000
B1221135630217N01357046EA0148301462000028000000
B1221175630302N01357018EA0148501458000024000000
B1221215630389N01356989EA0148001453000024000000
B1221255630476N01356957EA0147801448000020000000
B1221295630562N01356922EA0147201444000024000000
B1221335630645N01356891EA0146801441000024000000
B1221375630728N01356862EA0146401430000020000000
B1221415630814N01356835EA0144901413000024000000
B1221455630904N01356805EA0142501391000028000000
B1221495630995N01356768EA0141601393000028000000
B1221535631079N01356731EA0142501397000028000000
B1221575631164N01356686EA0141701377000028000000
B1222015631252N01356630EA0139601361000028000000
B1222055631341N01356569EA0138501358000028000000
B1222095631424N01356515EA0139001370000024000000
B1222135631503N01356469EA0139501364000024000000
B1222175631588N01356418EA0138201347000020000000
B1222215631672N01356362EA0136801339000024000000
B1222255631754N01356302EA0136601339000024000000
B1222295631836N01356244EA0136101333000020000000
B1222335631919N01356190EA0135601328000024000000
B1222375632001N01356140EA0135401329000024000000
B1222415632082N01356092EA0135201321000024000000
B1222455632163N01356043EA0134201309000024000000
B1222495632251N01355997EA0133201303000024000000
B1222535632338N01355963EA0132501295000024000000
B1222575632423N01355938EA0132301303000024000000
B1223015632504N01355919EA0132201291000024000000
B1223055632581N01355899EA0133201332000024000000
B1223095632630N01355894EA0138201362000020000000
B1223135632683N01355891EA0139001367000020000000
B1223175632741N01355880EA0140001373000016000000
B1223215632769N01355811EA0140701390000016000000
B1223255632741N01355748EA0142001396000016000000
B1223295632685N01355772EA0142501401000016000000
B1223335632655N01355873EA0143201415000016000000
B1223375632676N01355976EA0144801429000016000000
B1223415632722N01356038EA0145801432000016000000
B1223455632776N01356011EA0146201442000016000000
B1223495632781N01355929EA0147101448000016000000
B1223535632730N01355894EA0147501453000016000000
B1223575632681N01355963EA0148301462000016000000
B1224015632678N01356079EA0149301475000016000000
B1224055632722N01356157EA0150201479000016000000
B1224095632785N01356170EA0150401471000016000000
B1224135632862N01356181EA0147801428000020000000
B1224175632956N01356199EA0144201412000024000000
B1224215633053N01356215EA0143801413000028000000
B1224255633150N01356224EA0143001398000028000000
B1224295633252N01356240EA0141101384000028000000
B1224335633345N01356262EA0142001404000028000000
B1224375633432N01356275EA0143101407000024000000
B1224415633519N01356284EA0142901400000024000000
B1224455633605N01356293EA0142401397000024000000
B1224495633694N01356297EA0141501378000024000000
B1224535633786N01356302EA0140101372000024000000
B1224575633878N01356306EA0139401369000024000000
B1225015633970N01356316EA0139301363000020000000
B1225055634063N01356333EA0138701362000020000000
B1225095634154N01356352EA0138301356000024000000
B1225135634245N01356367EA0137601348000020000000
B1225175634337N01356383EA0136801338000020000000
B1225215634431N01356402EA0135901332000020000000
B1225255634526N01356424EA0135501333000024000000
B1225295634617N01356453EA0135601332000020000000
B1225335634706N01356483EA0135401329000020000000
B1225375634796N01356517EA0135001322000024000000
B1225415634882N01356554EA0135401334000024000000
B1225455634965N01356591EA0135301322000024000000
B1225495635051N01356623EA0134001312000024000000
B1225535635139N01356649EA0133201305000024000000
B1225575635225N01356670EA0132801302000028000000
B1226015635312N01356692EA0131801289000028000000
B1226055635397N01356716EA0131901307000024000000
B1226095635473N01356731EA0133701310000024000000
B1226135635558N01356743EA0131701281000024000000
B1226175635649N01356749EA0130001274000024000000
B1226215635741N01356749EA0129101264000024000000
B1226255635832N01356747EA0128401262000024000000
B1226295635920N01356743EA0128501261000024000000
B1226335636006N01356735EA0128301256000024000000
B1226375636091N01356726EA0127801254000024000000
B1226415636175N01356717EA0127501249000024000000
B1226455636260N01356709EA0126901246000024000000
B1226495636343N01356704EA0126901247000024000000
B1226535636422N01356697EA0127101244000024000000
B1226575636503N01356693EA0126501242000024000000
B1227015636583N01356695EA0126501239000020000000
B1227055636664N01356696EA0126001231000024000000
B1227095636747N01356695EA0125101221000024000000
B1227135636830N01356690EA0124101218000024000000
B1227175636914N01356684EA0123801211000024000000
B1227215637001N01356674EA0123101207000024000000
B1227255637088N01356662EA0123101208000024000000
B1227295637175N01356652EA0122601198000024000000
B1227335637265N01356641EA0121301187000024000000
B1227375637356N01356627EA0120601172000024000000
B1227415637447N01356615EA0119201169000024000000
B1227455637535N01356609EA0119201163000024000000
B1227495637626N01356601EA0118201154000024000000
B1227535637716N01356591EA0117601152000028000000
B1227575637805N01356583EA0117201148000024000000
B1228015637895N01356580EA0116601141000024000000
B1228055637985N01356576EA0116101135000024000000
B1228095638073N01356573EA0115501135000024000000
B1228135638159N01356565EA0115701134000020000000
B1228175638244N01356558EA0115401132000020000000
B1228215638328N01356554EA0115101128000020000000
B1228255638411N01356550EA0114701122000020000000
B1228295638494N01356547EA0113801112000024000000
B1228335638575N01356544EA0113501127000024000000
B1228375638644N01356543EA0115401129000024000000
B1228415638719N01356540EA0114001107000024000000
B1228455638801N01356532EA0112201092000024000000
B1228495638882N01356524EA0111101089000028000000
B1228535638960N01356521EA0111301090000028000000
B1228575639037N01356513EA0111001082000028000000
B1229015639117N01356500EA0110301081000028000000
B1229055639198N01356484EA0110601085000028000000
B1229095639268N01356476EA0112801117000024000000
B1229135639334N01356474EA0113401098000024000000
B1229175639417N01356470EA0110501061000024000000
B1229215639507N01356471EA0108501068000024000000
B1229255639593N01356475EA0108601060000024000000
B1229295639680N01356474EA0107701055000024000000
B1229335639765N01356469EA0107401051000024000000
B1229375639850N01356459EA0106701044000024000000
B1229415639934N01356454EA0106401044000024000000
B1229455640018N01356446EA0106301042000024000000
B1229495640101N01356443EA0106201037000024000000
B1229535640186N01356443EA0105501032000020000000
B1229575640269N01356445EA0105201029000020000000
B1230015640356N01356449EA0104301021000024000000
B1230055640441N01356459EA0104101021000020000000
B1230095640526N01356470EA0103501009000024000000
B1230135640616N01356480EA0102101000000024000000
B1230175640702N01356491EA0102101004000024000000
B1230215640788N01356501EA0101900998000024000000
B1230255640875N01356511EA0101400994000024000000
B1230295640961N01356526EA0100900990000024000000
B1230335641044N01356539EA0100600986000020000000
B1230375641127N01356553EA0099900973000024000000
B1230415641214N01356563EA0098000960000024000000
B1230455641299N01356565EA0097700954000024000000
B1230495641383N01356566EA0097000951000024000000
B1230535641466N01356579EA0096800947000024000000
B1230575641548N01356602EA0096300941000028000000
B1231015641634N01356622EA0095900945000028000000
B1231055641708N01356636EA0097700971000024000000
B1231095641778N01356651EA0098900964000024000000
B1231135641859N01356666EA0097300945000024000000
B1231175641945N01356680EA0096400948000024000000
B1231215642029N01356696EA0097000954000024000000
B1231255642110N01356710EA0097400958000024000000
B1231295642189N01356727EA0097700955000024000000
B1231335642271N01356740EA0096300935000024000000
B1231375642355N01356761EA0095200934000024000000
B1231415642436N01356775EA0095100931000024000000
B1231455642518N01356788EA0094600925000024000000
B1231495642602N01356803EA0094700943000024000000
B1231535642679N01356816EA0096100935000024000000
B1231575642760N01356830EA0094600929000024000000
B1232015642839N01356847EA0094300912000024000000
B1232055642924N01356859EA0092400908000028000000
B1232095643004N01356875EA0092300893000028000000
B1232135643085N01356892EA0091200893000028000000
B1232175643167N01356907EA0090400876000028000000
B1232215643245N01356930EA0090200905000028000000
B1232255643310N01356951EA0093400918000024000000
B1232295643349N01356890EA0094200920000024000000
B1232335643325N01356818EA0094000921000020015000
B1232375643272N01356822EA0094100920000020015000
B1232415643243N01356930EA0094000920000020000000
B1232455643269N01357056EA0094100921000016000000
B1232495643314N01357160EA0094900935000016000000
B1232535643364N01357230EA0095600931000016000000
B1232575643407N01357181EA0094400917000024000000
B1233015643377N01357122EA0094000920000020000000
B1233055643325N01357167EA0093800917000020015000
B1233095643295N01357282EA0094500928000020000000
B1233135643290N01357410EA0095500935000020000000
B1233175643337N01357510EA0095600937000020000000
B1233215643392N01357588EA0096100945000020000000
B1233255643449N01357661EA0096000933000016000000
B1233295643515N01357733EA0094200913000020000000
B1233335643587N01357806EA0092900911000024000000
B1233375643653N01357866EA0094200931000020000000
B1233415643718N01357892EA0095500943000020000000
B1233455643743N01357824EA0097200950000024015000
B1233495643691N01357802EA0097300958000024000000
B1233535643665N01357908EA0098900975000020000000
B1233575643702N01358003EA0099700974000020000000
B1234015643752N01357971EA0099900982000020000000
B1234055643731N01357900EA0101100993000020000000
B1234095643678N01357940EA0102101004000020000000
B1234135643676N01358057EA0103101010000016000000
B1234175643731N01358114EA0102901008000016000000
B1234215643762N01358047EA0103701024000016000000
B1234255643722N01358005EA0105301035000016000000
B1234295643679N01358090EA0106001045000016000000
B1234335643698N01358207EA0106901048000016000000
B1234375643757N01358224EA0106901052000016000000
B1234415643766N01358143EA0107901066000016000000
B1234455643714N01358127EA0108901071000020000000
B1234495643681N01358231EA0109701084000020000000
B1234535643707N01358339EA0110901089000020000000
B1234575643766N01358356EA0111101094000020000000
B1235015643785N01358282EA0112201108000020000000
B1235055643746N01358231EA0112901110000020000000
B1235095643689N01358277EA0113401120000020000000
B1235135643668N01358390EA0114501125000016000000
B1235175643692N01358504EA0114501123000016000000
B1235215643744N01358563EA0114901134000016000000
B1235255643791N01358537EA0115901138000016000000
B1235295643798N01358458EA0116101139000016000000
B1235335643753N01358411EA0116301145000016000000
B1235375643698N01358461EA0117201156000016000000
B1235415643683N01358578EA0117901159000016000000
B1235455643717N01358685EA0117501154000016000000
B1235495643772N01358702EA0117901164000016000000
B1235535643802N01358636EA0118701163000016000000
B1235575643804N01358551EA0119601176000016000000
B1236015643765N01358508EA0119901172000020000000
B1236055643726N01358602EA0119801179000020000000
B1236095643756N01358705EA0121001188000020000000
B1236135643808N01358754EA0121201195000020000000
B1236175643861N01358770EA0122201199000020000000
B1236215643912N01358740EA0122101188000020000000
B1236255643979N01358714EA0119001143000020000000
B1236295644064N01358677EA0115301126000024000000
B1236335644149N01358634EA0113901111000024000000
B1236375644234N01358582EA0112401098000024000000
B1236415644317N01358520EA0111401093000024000000
B1236455644395N01358456EA0111401089000024000000
B1236495644472N01358386EA0111101091000028000000
B1236535644541N01358322EA0111901096000024000000
B1236575644612N01358257EA0111101082000024000000
B1237015644680N01358200EA0110401087000024000000
B1237055644740N01358146EA0110701077000024000000
B1237095644806N01358086EA0108901054000028000000
B1237135644877N01358023EA0106601036000028000000
B1237175644948N01357964EA0105601034000028000000
B1237215645020N01357901EA0104401020000028000000
B1237255645095N01357844EA0104201022000028000000
B1237295645167N01357785EA0104701035000028000000
B1237335645225N01357743EA0108401078000020000000
B1237375645278N01357731EA0111001090000020000000
B1237415645308N01357835EA0110801077000024000000
B1237455645261N01357912EA0111401103000024000000
B1237495645217N01357895EA0114201119000028000000
B1237535645223N01357819EA0113901114000024000000
B1237575645280N01357847EA0114001127000024000000
B1238015645291N01357965EA0115501136000020000000
B1238055645247N01358051EA0116401153000020000000
B1238095645202N01358034EA0118301165000020000000
B1238135645215N01357958EA0118801161000020000000
B1238175645277N01357970EA0119301181000020000000
B1238215645308N01358069EA0121301195000016000000
B1238255645278N01358164EA0122201201000016000000
B1238295645236N01358129EA0123001210000016000000
B1238335645266N01358064EA0124301221000016000000
B1238375645321N01358122EA0125201233000016000000
B1238415645313N01358239EA0126601247000016000000
B1238455645261N01358252EA0127701255000016000000
B1238495645260N01358170EA0128501263000016000000
B1238535645313N01358143EA0129801280000020000000
B1238575645362N01358205EA0131001284000020000000
B1239015645355N01358329EA0130701283000028000000
B1239055645303N01358369EA0132301307000024000000
B1239095645266N01358330EA0133701309000024000000
B1239135645295N01358259EA0133001300000028000000
B1239175645344N01358328EA0133801320000028000000
B1239215645321N01358434EA0135001328000024000000
B1239255645269N01358473EA0136401338000020000000
B1239295645235N01358413EA0136401340000020000000
B1239335645251N01358333EA0137401356000020000000
B1239375645301N01358321EA0138501358000020000000
B1239415645334N01358419EA0138501358000020000000
B1239455645299N01358517EA0138901369000020000000
B1239495645245N01358550EA0140501384000016000000
B1239535645206N01358507EA0141501390000020000000
B1239575645219N01358426EA0141101381000020000000
B1240015645271N01358386EA0140901383000020000000
B1240055645336N01358356EA0138201334000020000000
B1240095645422N01358315EA0135201330000024000000
B1240135645505N01358270EA0135301326000028000000
B1240175645590N01358221EA0133801308000028000000
B1240215645678N01358172EA0132601297000024000000
B1240255645758N01358097EA0132301302000024000000
B1240295645829N01358012EA0132301300000024000000
B1240335645898N01357932EA0132601304000024000000
B1240375645968N01357852EA0132301293000024000000
B1240415646041N01357769EA0131101284000024000000
B1240455646112N01357683EA0130401281000024000000
B1240495646184N01357606EA0131101292000024000000
B1240535646246N01357548EA0133401313000020000000
B1240575646311N01357501EA0134101314000020000000
B1241015646387N01357467EA0133801302000020000000
B1241055646475N01357446EA0132201295000024000000
B1241095646564N01357431EA0132801307000024000000
B1241135646649N01357415EA0133201302000024000000
B1241175646739N01357398EA0131701281000024000000
B1241215646833N01357377EA0130001280000024000000
B1241255646921N01357358EA0130501282000024000000
B1241295647008N01357336EA0129801271000024000000
B1241335647097N01357317EA0128001249000024000000
B1241375647193N01357302EA0124801216000028000000
B1241415647289N01357290EA0124301238000028000000
B1241455647355N01357286EA0128701273000024000000
B1241495647422N01357285EA0128601242000024000000
B1241535647507N01357278EA0124701213000024000000
B1241575647600N01357269EA0122301197000028000000
B1242015647691N01357260EA0121501195000028000000
B1242055647776N01357247EA0121501199000028000000
B1242095647860N01357237EA0121401192000028000000
B1242135647944N01357226EA0120701187000028000000
B1242175648033N01357220EA0119801174000028000000
B1242215648124N01357216EA0119501177000028000000
B1242255648212N01357212EA0119601172000028000000
B1242295648303N01357212EA0118301150000024000000
B1242335648399N01357216EA0116001136000028000000
B1242375648495N01357220EA0114901125000028000000
B1242415648593N01357225EA0113701120000028000000
B1242455648684N01357232EA0114701136000028000000
B1242495648772N01357237EA0114601122000028000000
B1242535648865N01357241EA0113201111000024000000
B1242575648958N01357239EA0112701106000024000000
B1243015649049N01357232EA0112501109000024000000
B1243055649139N01357221EA0112501101000024000000
B1243095649231N01357215EA0111001083000024000000
B1243135649322N01357207EA0110701094000028000000
B1243175649411N01357197EA0110501080000028000000
B1243215649496N01357180EA0110001078000028000000
B1243255649583N01357155EA0109301079000032000000
B1243295649663N01357146EA0111001103000028000000
B1243335649736N01357150EA0112101097000028000000
B1243375649815N01357161EA0110301064000024000000
B1243415649903N01357147EA0107801065000024000000
B1243455649981N01357116EA0108101056000024000000
B1243495650059N01357069EA0106701038000024000000
B1243535650137N01357003EA0104301011000024000000
B1243575650219N01356924EA0102101003000028000000
B1244015650282N01356866EA0104501053000024000000
B1244055650341N01356822EA0106501030000024000000
B1244095650415N01356762EA0103301006000024000000
B1244135650491N01356699EA0103101024000024000000
B1244175650561N01356640EA0103901015000020000000
B1244215650636N01356576EA0102000987000020000000
B1244255650711N01356502EA0100400992000024000000
B1244295650782N01356433EA0100700987000020000000
B1244335650855N01356366EA0099700977000020000000
B1244375650929N01356300EA0099200974000020000000
B1244415650997N01356241EA0099700981000024000000
B1244455651059N01356189EA0100300993000024000000
B1244495651120N01356150EA0101300998000024000000
B1244535651181N01356123EA0101901012000024000000
B1244575651237N01356111EA0103901019000020000000
B1245015651296N01356101EA0103701022000020000000
B1245055651351N01356080EA0104101022000020000000
B1245095651380N01356015EA0104601033000016000000
B1245135651368N01355951EA0105801034000016000000
B1245175651322N01355937EA0104801022000020000000
B1245215651273N01356012EA0104501025000016000000
B1245255651270N01356141EA0104601024000016000000
B1245295651315N01356242EA0104701029000016000000
B1245335651374N01356283EA0105601037000016000000
B1245375651431N01356305EA0106001041000016000000
B1245415651489N01356319EA0106101035000016000000
B1245455651556N01356322EA0105101024000016000000
B1245495651628N01356309EA0102800993000020000000
B1245535651710N01356272EA0099700970000020000000
B1245575651793N01356240EA0098800970000024000000
B1246015651873N01356201EA0098600966000024000000
B1246055651951N01356163EA0098100967000024000000
B1246095652020N01356131EA0099100973000020000000
B1246135652094N01356094EA0097500947000020000000
B1246175652173N01356054EA0095600938000024000000
B1246215652250N01356019EA0095800947000024000000
B1246255652319N01355988EA0096800962000020000000
B1246295652364N01355936EA0099300985000020000000
B1246335652350N01355872EA0100900993000020000000
B1246375652297N01355891EA0099700970000020000000
B1246415652272N01356021EA0098600972000020000000
B1246455652290N01356150EA0099500980000016000000
B1246495652332N01356244EA0100200984000016000000
B1246535652391N01356251EA0099500969000016000000
B1246575652459N01356224EA0097300949000020000000
B1247015652532N01356189EA0096400950000020000000
B1247055652602N01356154EA0096500944000020000000
B1247095652676N01356116EA0095000930000024000000
B1247135652755N01356084EA0094400925000024000000
B1247175652839N01356072EA0093900920000024000000
B1247215652924N01356062EA0092800903000024000000
B1247255653009N01356049EA0092000908000024000000
B1247295653090N01356034EA0092000899000024000000
B1247335653173N01356019EA0090900888000024000000
B1247375653255N01356008EA0090800896000024000000
B1247415653335N01356002EA0090800886000024000000
B1247455653420N01356001EA0090500899000024000000
B1247495653498N01356006EA0091800899000024000000
B1247535653577N01356011EA0091500901000024000000
B1247575653659N01356015EA0090900889000024000000
B1248015653737N01356008EA0091100898000024000000
B1248055653814N01356003EA0090800878000024000000
B1248095653899N01355991EA0088300862000024000000
B1248135653983N01355978EA0087800860000024000000
B1248175654066N01355969EA0087100854000024000000
B1248215654146N01355971EA0087300857000024000000
B1248255654226N01355972EA0086700849000024000000
B1248295654304N01355977EA0086500849000024000000
B1248335654384N01355982EA0085900841000024000000
B1248375654465N01355988EA0085800845000024000000
B1248415654546N01355989EA0086000846000024000000
B1248455654622N01355991EA0086800855000024000000
B1248495654700N01355994EA0086300836000024000000
B1248535654785N01355977EA0084500832000024000000
B1248575654867N01355952EA0084600831000024000000
B1249015654950N01355928EA0084400831000024000000
B1249055655028N01355902EA0084900836000024000000
B1249095655105N01355874EA0084600832000024000000
B1249135655179N01355846EA0084700831000024000000
B1249175655251N01355817EA0084200824000028000000
B1249215655326N01355789EA0083300810000024000000
B1249255655398N01355755EA0082300808000024000000
B1249295655467N01355722EA0082300811000024000000
B1249335655536N01355694EA0082500809000024000000
B1249375655606N01355664EA0081800794000028000000
B1249415655679N01355638EA0080800794000024000000
B1249455655752N01355609EA0080800791000024000000
B1249495655829N01355587EA0079800778000024000000
B1249535655911N01355574EA0078600769000024000000
B1249575655994N01355564EA0078500771000024000000
B1250015656073N01355556EA0079000780000024000000
B1250055656152N01355551EA0079300770000024000000
B1250095656236N01355548EA0078100767000024000000
B1250135656315N01355549EA0078200766000020000000
B1250175656394N01355548EA0077300752000024000000
B1250215656477N01355538EA0075900739000024000000
B1250255656558N01355520EA0074900732000024000000
B1250295656639N01355503EA0074600734000028000000
B1250335656718N01355484EA0074500731000028000000
B1250375656796N01355469EA0074700735000028000000
B1250415656873N01355455EA0075100734000024000000
B1250455656952N01355431EA0074000719000024000000
B1250495657029N01355399EA0073400721000020000000
B1250535657100N01355364EA0073600724000020000000
B1250575657170N01355327EA0073700720000020000000
B1251015657242N01355280EA0073300722000024000000
B1251055657313N01355247EA0074600736000024000000
B1251095657361N01355343EA0076100745000028000000
B1251135657329N01355458EA0075400735000028000000
B1251175657278N01355449EA0075900747000024000000
B1251215657259N01355373EA0076300750000024000000
B1251255657285N01355295EA0077100759000020000000
B1251295657341N01355326EA0077900760000020000000
B1251335657346N01355461EA0077200751000024000000
B1251375657295N01355523EA0077200758000024000000
B1251415657255N01355481EA0078000766000020000000
B1251455657247N01355403EA0078900774000020000000
B1251495657299N01355375EA0079800782000020000000
B1251535657339N01355470EA0080500789000020000000
