ACAM3X6
HFDTE040606
HFFXA050
HFPLTPILOT:Peter Cutting           
HFGTYGLIDERTYPE:LS8-b       
HFGIDGLIDERID:SE-USP      
HFDTM100GPSDATUM:
HFRFWFIRMWAREVERSION:F2.6
HFRHWHARDWAREVERSION:300 Series Version 2
HFFTYFRTYPE:CAMBRIDGE AERO INSTRUMENTS, 302+
HFGPS:GARMIN,LVS-25,12,18000
HFPRSPRESSALTSENSOR:INTERSEMA, MS5534-AP, 20000
I033638FXA3941ENL4247REX
LCAMSBVER:5FWVER:F26300
C040606100914040606000101
C0000000N00000000WTAKEOFF     
C5535817N01340567ESovde flp   
C5657250N01355583EFeringe flp 
C5535817N01340567ESovde flp   
C0000000N00000000WLANDING     
B1226325535642N01340876EA0003800043000300000000
B1226345535642N01340876EA0003800042000236000000
B1226365535642N01340876EA0003800043000184000000
B1226385535642N01340876EA0003800043000144000000
B1226405535642N01340876EA0003800043000116000000
B1226425535642N01340876EA0003800043000104000000
B1226445535642N01340876EA0003700043000080000000
B1226465535642N01340876EA0003700042000068000000
B1226485535642N01340876EA0003700043000056000000
B1226505535642N01340876EA0003800043000044000000
B1226525535642N01340876EA0003800043000040000000
B1226545535642N01340876EA0003700043000036000000
B1226565535642N01340875EA0003700043000028000000
B1226585535643N01340874EA0003700043000028000000
B1227005535645N01340869EA0003800042000032000000
B1227055535656N01340845EA0003700042000100000000
B1227095535672N01340814EA0003700042000192000000
B1227135535693N01340771EA0003700041000248000000
B1227175535719N01340718EA0003600042000192000000
B1227215535750N01340653EA0003900044000176000000
B1227255535784N01340580EA0004200050000176000000
B1227295535818N01340510EA0005200064000152000000
B1227335535853N01340442EA0006500074000148000000
B1227375535888N01340372EA0007800087000152000000
B1227415535920N01340299EA0009200101000144000000
B1227455535951N01340229EA0010500112000132000000
B1227495535987N01340161EA0011500122000136000000
B1227535536018N01340092EA0012600137000144000000
B1227575536048N01340026EA0014200147000152000000
B1228015536079N01339962EA0015300160000144000000
B1228055536107N01339896EA0016200166000152000000
B1228095536137N01339829EA0016900173000144000000
B1228135536167N01339761EA0017600182000152000000
B1228175536196N01339693EA0018400191000156000000
B1228215536223N01339623EA0019200196000148000000
B1228255536250N01339554EA0020100208000148000000
B1228295536274N01339483EA0021000216000148000000
B1228335536297N01339413EA0022000224000144000000
B1228375536319N01339336EA0022700232000136000000
B1228415536339N01339257EA0023300238000136000000
B1228455536357N01339181EA0024500254000104000000
B1228495536374N01339103EA0025700261000072000000
B1228535536390N01339023EA0026200267000064000000
B1228575536400N01338938EA0027000273000048000000
B1229015536395N01338843EA0027500279000048000000
B1229055536383N01338746EA0027800285000044000000
B1229095536370N01338648EA0028400286000040000000
B1229135536366N01338551EA0028400288000036000000
B1229175536371N01338456EA0028700295000044000000
B1229215536388N01338373EA0029700308000036000000
B1229255536406N01338291EA0030800317000036000000
B1229295536429N01338207EA0031300319000036000000
B1229335536451N01338124EA0031700327000036000000
B1229375536471N01338044EA0032500338000036000000
B1229415536492N01337966EA0033900349000032000000
B1229455536513N01337885EA0034400349000032000000
B1229495536535N01337808EA0034900358000032000000
B1229535536559N01337732EA0035400365000032000000
B1229575536578N01337658EA0036400374000032000000
B1230015536596N01337581EA0037300383000032000000
B1230055536613N01337500EA0038000386000032000000
B1230095536633N01337418EA0038200389000032000000
B1230135536657N01337339EA0038500393000032000000
B1230175536689N01337266EA0039000398000036000000
B1230215536733N01337218EA0039500401000036000000
B1230255536787N01337197EA0040000409000036000000
B1230295536848N01337208EA0040500412000036000000
B1230335536908N01337244EA0040800419000036000000
B1230375536968N01337294EA0041500419000040000000
B1230415537028N01337356EA0041700422000040000000
B1230455537088N01337437EA0042200430000044000000
B1230495537140N01337539EA0043100445000040000000
B1230535537188N01337651EA0044300454000044000000
B1230575537227N01337771EA0045400467000040000000
B1231015537268N01337877EA0047100486000036000000
B1231055537309N01337980EA0049100507000036000000
B1231095537353N01338050EA0051100522000032000000
B1231135537394N01338038EA0051300512000028000000
B1231175537398N01337962EA0049800502000024000000
B1231215537358N01337890EA0049200499000024000000
B1231255537303N01337841EA0049500503000024000000
B1231295537237N01337828EA0049700504000020000000
B1231335537164N01337847EA0049500501000024000000
B1231375537093N01337895EA0049500502000020000000
B1231415537023N01337950EA0049200492000020000000
B1231455536949N01337997EA0048400490000020000000
B1231495536886N01338080EA0048400490000020000000
B1231535536850N01338205EA0048400490000020000000
B1231575536869N01338314EA0048600496000020000000
B1232015536912N01338331EA0049300498000020000000
B1232055536932N01338276EA0049000494000020000000
B1232095536910N01338201EA0048300488000020000000
B1232135536851N01338162EA0048100484000020000000
B1232175536777N01338176EA0047200477000020000000
B1232215536704N01338239EA0047000476000020000000
B1232255536640N01338335EA0046500467000020000000
B1232295536588N01338456EA0045700460000020000000
B1232335536556N01338592EA0045000454000020000000
B1232375536539N01338737EA0044000443000028000000
B1232415536533N01338882EA0043400440000032000000
B1232455536526N01339033EA0041900405000040000000
B1232495536517N01339223EA0036600358000128000000
B1232535536510N01339400EA0038500417000496000000
B1232575536516N01339536EA0043100442000548000000
B1233015536531N01339660EA0044100448000560000000
B1233055536565N01339762EA0044200444000592000000
B1233095536613N01339839EA0044000444000580000000
B1233135536661N01339894EA0044300455000640000000
B1233175536715N01339927EA0044100438000712000000
B1233215536767N01339923EA0043400445000768000000
B1233255536793N01339883EA0044800460000796000000
B1233295536793N01339821EA0045200455000868000000
B1233335536765N01339748EA0044500450000776000000
B1233375536707N01339712EA0044900459000688000000
B1233415536635N01339739EA0045700464000652000000
B1233455536575N01339830EA0046200471000636000000
B1233495536543N01339960EA0046800474000636000000
B1233535536546N01340092EA0047100477000624000000
B1233575536572N01340200EA0047200476000624000000
B1234015536613N01340280EA0046900475000612000000
B1234055536656N01340346EA0047100479000608000000
B1234095536696N01340410EA0047400484000624000000
B1234135536737N01340471EA0047800485000644000000
B1234175536778N01340528EA0047600485000636000000
B1234215536820N01340583EA0048000490000644000000
B1234255536859N01340635EA0048600496000632000000
B1234295536897N01340683EA0049200499000720000000
B1234335536937N01340726EA0049100498000720000000
B1234375536978N01340767EA0049100496000684000000
B1234415537024N01340800EA0049000499000656000000
B1234455537071N01340823EA0049200502000620000000
B1234495537119N01340840EA0049500509000592000000
B1234535537157N01340819EA0050100513000620000000
B1234575537175N01340759EA0049900509000604000000
B1235015537192N01340692EA0050000515000588000000
B1235055537209N01340629EA0050700518000632000000
B1235095537225N01340566EA0050800518000608000000
B1235135537246N01340505EA0050700515000612000000
B1235175537270N01340447EA0050700515000608000000
B1235215537300N01340401EA0050800515000596000000
B1235255537333N01340362EA0050900518000584000000
B1235295537368N01340326EA0051000517000556000000
B1235335537405N01340294EA0051100519000548000000
B1235375537441N01340263EA0051300522000564000000
B1235415537480N01340234EA0051400521000552000000
B1235455537523N01340211EA0051400525000548000000
B1235495537563N01340196EA0051900528000568000000
B1235535537602N01340187EA0052000530000576000000
B1235575537641N01340182EA0051900527000600000000
B1236015537683N01340177EA0051900530000612000000
B1236055537723N01340176EA0052500537000596000000
B1236095537761N01340174EA0053200542000592000000
B1236135537801N01340180EA0053800548000612000000
B1236175537840N01340185EA0054200556000620000000
B1236215537881N01340187EA0055000564000672000000
B1236255537924N01340191EA0055700573000632000000
B1236295537968N01340199EA0057000584000656000000
B1236335538012N01340203EA0057600586000716000000
B1236375538060N01340200EA0058500602000684000000
B1236415538095N01340177EA0060100615000632000000
B1236455538081N01340107EA0060600614000592000000
B1236495538016N01340076EA0060500615000572000000
B1236535537939N01340108EA0060500614000564000000
B1236575537872N01340196EA0060500617000592000000
B1237015537831N01340324EA0061000621000580000000
B1237055537833N01340459EA0061400627000668000000
B1237095537865N01340567EA0063000647000668000000
B1237135537905N01340655EA0064200652000676000000
B1237175537951N01340723EA0064300650000688000000
B1237215538003N01340774EA0064000645000736000000
B1237255538061N01340815EA0063300638000844000000
B1237295538124N01340849EA0062900635000996000000
B1237335538189N01340876EA0062700635000996000000
B1237375538252N01340901EA0062800638000996000000
B1237415538315N01340923EA0063100640000996000000
B1237455538377N01340944EA0063300641000996000000
B1237495538438N01340963EA0063400644000996000000
B1237535538499N01340982EA0063600645000996000000
B1237575538562N01341002EA0063700644000996000000
B1238015538624N01341022EA0063600646000996000000
B1238055538687N01341044EA0063900651000996000000
B1238095538746N01341066EA0064500656000996000000
B1238135538805N01341087EA0065100666000996000000
B1238175538860N01341105EA0066400678000996000000
B1238215538912N01341121EA0067600687000996000000
B1238255538961N01341118EA0068400692000956000000
B1238295539005N01341082EA0068200690000956000000
B1238335539056N01341064EA0068600696000908000000
B1238375539110N01341071EA0069000701000876000000
B1238415539166N01341096EA0069300702000872000000
B1238455539224N01341123EA0069300704000908000000
B1238495539282N01341155EA0069500706000916000000
B1238535539341N01341187EA0069700707000924000000
B1238575539398N01341220EA0069900709000968000000
B1239015539456N01341252EA0070100711000996000000
B1239055539512N01341285EA0070300713000996000000
B1239095539569N01341320EA0070500716000996000000
B1239135539627N01341353EA0070600716000996000000
B1239175539686N01341387EA0070600718000996000000
B1239215539742N01341421EA0071200726000996000000
B1239255539796N01341454EA0072100732000996000000
B1239295539848N01341483EA0072400734000996000000
B1239335539898N01341508EA0073000741000944000000
B1239375539946N01341530EA0073800747000860000000
B1239415539996N01341545EA0074300752000820000000
B1239455540045N01341561EA0075100765000756000000
B1239495540093N01341581EA0076100771000700000000
B1239535540137N01341577EA0076800776000692000000
B1239575540139N01341503EA0077100778000716000000
B1240015540084N01341456EA0077600787000704000000
B1240055540018N01341493EA0078800796000612000000
B1240095539966N01341589EA0079000797000564000000
B1240135539940N01341715EA0079400802000592000000
B1240175539942N01341840EA0080200811000572000000
B1240215539968N01341945EA0080700815000576000000
B1240255540010N01342016EA0081000819000576000000
B1240295540058N01342042EA0081200819000656000000
B1240335540098N01342018EA0081600826000640000000
B1240375540126N01341963EA0081800822000636000000
B1240415540169N01341931EA0081500824000680000000
B1240455540218N01341935EA0081800826000700000000
B1240495540269N01341950EA0082000832000668000000
B1240535540321N01341966EA0082200830000560000000
B1240575540369N01341981EA0082200833000500000000
B1241015540412N01342001EA0082400832000368000000
B1241055540453N01342016EA0082000824000228000000
B1241095540496N01342039EA0081000816000148000000
B1241135540540N01342058EA0080300810000108000000
B1241175540586N01342074EA0079400797000072000000
B1241215540637N01342093EA0077900782000056000000
B1241255540694N01342111EA0076600773000044000000
B1241295540754N01342130EA0076000769000032000000
B1241335540813N01342150EA0076200773000032000000
B1241375540869N01342175EA0076400773000024000000
B1241415540923N01342200EA0076200771000024000000
B1241455540975N01342228EA0076100766000024000000
B1241495541029N01342266EA0075100760000024000000
B1241535541086N01342304EA0074700757000024000000
B1241575541146N01342349EA0073700742000028000000
B1242015541209N01342406EA0072700732000028000000
B1242055541272N01342466EA0071800730000028000000
B1242095541336N01342518EA0072100733000032000000
B1242135541396N01342569EA0072500733000032000000
B1242175541458N01342621EA0071700721000032000000
B1242215541522N01342676EA0070600715000032000000
B1242255541586N01342726EA0070000708000032000000
B1242295541649N01342776EA0069100699000036000000
B1242335541714N01342824EA0068200690000036000000
B1242375541778N01342872EA0067800683000036000000
B1242415541842N01342929EA0066700674000032000000
B1242455541907N01342989EA0065900661000036000000
B1242495541972N01343053EA0065100662000036000000
B1242535542034N01343114EA0065200657000036000000
B1242575542095N01343183EA0064700657000036000000
B1243015542158N01343251EA0065100662000036000000
B1243055542212N01343263EA0066300678000032000000
B1243095542227N01343197EA0067000674000024000000
B1243135542185N01343127EA0066400672000024000000
B1243175542115N01343114EA0066200669000024000000
B1243215542056N01343197EA0066200670000020000000
B1243255542045N01343323EA0066000661000020000000
B1243295542084N01343430EA0064400641000024000000
B1243335542147N01343495EA0062800634000028000000
B1243375542215N01343537EA0062500630000028000000
B1243415542282N01343565EA0062100631000032000000
B1243455542350N01343587EA0061900624000032000000
B1243495542419N01343608EA0061100618000032000000
B1243535542485N01343634EA0060600612000036000000
B1243575542553N01343657EA0059400597000036000000
B1244015542626N01343677EA0058300590000036000000
B1244055542693N01343695EA0058100592000032000000
B1244095542752N01343673EA0058100587000036000000
B1244135542797N01343615EA0057200580000032000000
B1244175542835N01343540EA0056400572000032000000
B1244215542861N01343450EA0055600562000032000000
B1244255542897N01343363EA0054200548000032000000
B1244295542956N01343329EA0053600546000032000000
B1244335543018N01343348EA0053400541000032000000
B1244375543082N01343387EA0052700532000032000000
B1244415543148N01343422EA0051600523000036000000
B1244455543215N01343459EA0051100520000036000000
B1244495543281N01343510EA0050700512000032000000
B1244535543347N01343566EA0050300515000032000000
B1244575543408N01343592EA0051500529000032000000
B1245015543438N01343530EA0052500539000028000000
B1245055543432N01343448EA0053600545000028000000
B1245095543373N01343426EA0054100548000028000000
B1245135543325N01343527EA0054300549000028000000
B1245175543322N01343653EA0054600552000036000000
B1245215543360N01343729EA0054600554000028000000
B1245255543400N01343701EA0054600551000024000000
B1245295543389N01343622EA0054700560000024000000
B1245335543334N01343596EA0056000573000020000000
B1245375543273N01343651EA0056500567000020000000
B1245415543252N01343773EA0055900563000020000000
B1245455543285N01343862EA0056100572000020000000
B1245495543330N01343882EA0056500571000016000000
B1245535543364N01343836EA0056300571000016000000
B1245575543355N01343757EA0056900579000016000000
B1246015543300N01343718EA0057500586000016000000
B1246055543238N01343782EA0058100592000016000000
B1246095543224N01343903EA0058500593000016000000
B1246135543264N01343959EA0058600597000016000000
B1246175543293N01343911EA0058800596000016000000
B1246215543265N01343835EA0058700599000020000000
B1246255543199N01343846EA0059600610000020000000
B1246295543166N01343953EA0060200610000016000000
B1246335543196N01344038EA0059900609000020000000
B1246375543230N01344002EA0060100609000020000000
B1246415543228N01343922EA0060500619000020000000
B1246455543186N01343864EA0061400621000016000000
B1246495543120N01343905EA0060800614000016000000
B1246535543099N01344029EA0060400609000016000000
B1246575543135N01344109EA0060400613000020000000
B1247015543170N01344083EA0061200619000016000000
B1247055543146N01344008EA0061200622000020000000
B1247095543077N01344015EA0061500623000020000000
B1247135543033N01344120EA0061500622000020000000
B1247175543048N01344232EA0061100617000016000000
B1247215543094N01344277EA0061400625000016000000
B1247255543133N01344269EA0061800626000016000000
B1247295543125N01344197EA0061800628000016000000
B1247335543064N01344171EA0062400636000020000000
B1247375543004N01344242EA0062900638000020000000
B1247415542995N01344355EA0063300641000016000000
B1247455543031N01344416EA0063100637000016000000
B1247495543066N01344388EA0063300643000016000000
B1247535543056N01344317EA0064000649000020000000
B1247575543001N01344278EA0064500656000016000000
B1248015542935N01344306EA0064700654000016000000
B1248055542891N01344405EA0064400652000016000000
B1248095542895N01344519EA0064300648000016000000
B1248135542932N01344589EA0063800646000016000000
B1248175542974N01344613EA0064100651000016000000
B1248215543000N01344567EA0064200650000016000000
B1248255542977N01344494EA0064300653000016000000
B1248295542917N01344470EA0064700658000016000000
B1248335542856N01344525EA0065100659000016000000
B1248375542828N01344636EA0065000655000016000000
B1248415542851N01344732EA0064300648000016000000
B1248455542896N01344759EA0063800646000020000000
B1248495542931N01344720EA0063700647000016000000
B1248535542927N01344644EA0064300652000016000000
B1248575542878N01344594EA0064500652000016000000
B1249015542808N01344611EA0064300648000016000000
B1249055542757N01344704EA0064000647000020000000
B1249095542739N01344826EA0063600642000020000000
B1249135542756N01344935EA0063000633000020000000
B1249175542801N01344971EA0062300631000016000000
B1249215542832N01344926EA0062500634000016000000
B1249255542812N01344853EA0062800634000020000000
B1249295542744N01344883EA0062700631000020000000
B1249335542728N01345005EA0062400627000020000000
B1249375542758N01345101EA0062100629000020000000
B1249415542801N01345155EA0062500633000020000000
B1249455542844N01345148EA0062500629000020000000
B1249495542856N01345079EA0062400632000016000000
B1249535542821N01345017EA0062700634000016000000
B1249575542756N01345051EA0062700629000016000000
B1250015542734N01345173EA0062200631000020000000
B1250055542769N01345244EA0062700633000016000000
B1250095542808N01345220EA0062300627000020000000
B1250135542804N01345146EA0062300630000016000000
B1250175542753N01345103EA0062400631000020000000
B1250215542688N01345138EA0062500628000016000000
B1250255542646N01345250EA0061600623000016000000
B1250295542662N01345356EA0062100629000016000000
B1250335542704N01345382EA0061900621000016000000
B1250375542737N01345339EA0061200616000016000000
B1250415542763N01345279EA0061100621000016000000
B1250455542787N01345220EA0061300620000016000000
B1250495542810N01345156EA0061200619000016000000
B1250535542832N01345087EA0061100613000016000000
B1250575542856N01345012EA0060000608000020000000
B1251015542825N01344944EA0060300606000024000000
B1251055542760N01344987EA0059700602000024000000
B1251095542736N01345103EA0059500600000024000000
B1251135542758N01345198EA0059200595000020000000
B1251175542800N01345235EA0058600588000020000000
B1251215542847N01345230EA0057000571000024000000
B1251255542893N01345194EA0056200569000020000000
B1251295542935N01345142EA0056100570000020000000
B1251335542952N01345069EA0057000578000024000000
B1251375542953N01344986EA0056600568000024000000
B1251415542981N01344921EA0055900565000024000000
B1251455543009N01344862EA0055900565000024000000
B1251495543036N01344804EA0055500562000024000000
B1251535543061N01344746EA0055500559000024000000
B1251575543090N01344692EA0054600546000024000000
B1252015543120N01344633EA0053700547000032000000
B1252055543146N01344581EA0054400553000036000000
B1252095543166N01344533EA0055400562000036000000
B1252135543178N01344470EA0054700545000036000000
B1252175543159N01344375EA0050900498000048000000
B1252215543112N01344264EA0047600488000500000000
B1252255543042N01344221EA0050100517000716000000
B1252295542971N01344259EA0052200532000700000000
B1252335542922N01344362EA0052500531000680000000
B1252375542908N01344496EA0052300531000676000000
B1252415542929N01344611EA0052700536000684000000
B1252455542971N01344685EA0052800535000704000000
B1252495543025N01344718EA0052600533000704000000
B1252535543081N01344733EA0053000541000676000000
B1252575543135N01344745EA0053900549000664000000
B1253015543189N01344748EA0055000561000656000000
B1253055543238N01344749EA0056000571000668000000
B1253095543285N01344750EA0057200581000668000000
B1253135543330N01344749EA0057700587000680000000
B1253175543374N01344748EA0058000588000700000000
B1253215543419N01344748EA0058100589000696000000
B1253255543463N01344752EA0058100590000684000000
B1253295543508N01344758EA0058600596000676000000
B1253335543554N01344765EA0059100598000680000000
B1253375543602N01344767EA0059300599000676000000
B1253415543649N01344769EA0059300600000644000000
B1253455543694N01344771EA0059700606000620000000
B1253495543740N01344774EA0060100610000616000000
B1253535543787N01344775EA0060200608000596000000
B1253575543833N01344775EA0060400616000600000000
B1254015543878N01344774EA0061000618000584000000
B1254055543922N01344770EA0061400623000604000000
B1254095543965N01344769EA0061900624000644000000
B1254135544008N01344758EA0061700624000656000000
B1254175544047N01344730EA0061900624000696000000
B1254215544084N01344691EA0062800637000668000000
B1254255544084N01344614EA0063900641000720000000
B1254295544031N01344568EA0063700643000768000000
B1254335543965N01344616EA0064000650000752000000
B1254375543919N01344723EA0064600655000664000000
B1254415543896N01344848EA0064800657000632000000
B1254455543906N01344962EA0065300660000596000000
B1254495543941N01345045EA0065300661000560000000
B1254535543987N01345090EA0065800669000564000000
B1254575544035N01345104EA0066400672000544000000
B1255015544080N01345092EA0066700676000528000000
B1255055544122N01345066EA0067000674000512000000
B1255095544162N01345032EA0066800674000500000000
B1255135544201N01344993EA0066800677000504000000
B1255175544236N01344953EA0067600684000520000000
B1255215544270N01344909EA0068000686000520000000
B1255255544303N01344861EA0068400690000520000000
B1255295544336N01344810EA0068500693000544000000
B1255335544370N01344763EA0069000696000544000000
B1255375544404N01344718EA0069700703000584000000
B1255415544438N01344668EA0069900705000588000000
B1255455544468N01344613EA0070100708000568000000
B1255495544495N01344551EA0070900720000580000000
B1255535544521N01344494EA0072200733000576000000
B1255575544548N01344445EA0073200742000584000000
B1256015544576N01344397EA0074000747000612000000
B1256055544606N01344347EA0074100751000592000000
B1256095544633N01344299EA0074800756000644000000
B1256135544660N01344251EA0074900756000632000000
B1256175544687N01344200EA0074900755000628000000
B1256215544719N01344147EA0074700756000592000000
B1256255544750N01344091EA0075600768000604000000
B1256295544782N01344034EA0076900775000576000000
B1256335544817N01343978EA0076500770000608000000
B1256375544853N01343924EA0076400771000632000000
B1256415544885N01343870EA0076400770000668000000
B1256455544923N01343810EA0075700763000764000000
B1256495544963N01343744EA0075800767000884000000
B1256535545003N01343678EA0076300776000968000000
B1256575545045N01343610EA0077100787000996000000
B1257015545087N01343541EA0078200794000996000000
B1257055545131N01343471EA0078300791000996000000
B1257095545175N01343396EA0078100790000996000000
B1257135545220N01343315EA0077600783000996000000
B1257175545266N01343231EA0077600789000996000000
B1257215545310N01343144EA0077800786000996000000
B1257255545354N01343055EA0077800789000996000000
B1257295545396N01342967EA0078000791000996000000
B1257335545438N01342878EA0078200791000996000000
B1257375545478N01342787EA0078000790000996000000
B1257415545516N01342700EA0078600803000996000000
B1257455545548N01342630EA0080700823000996000000
B1257495545575N01342569EA0082300835000996000000
B1257535545604N01342510EA0082900834000884000000
B1257575545635N01342447EA0082900837000796000000
B1258015545662N01342386EA0083400842000664000000
B1258055545678N01342313EA0083600843000608000000
B1258095545675N01342227EA0083600845000600000000
B1258135545659N01342141EA0083700844000584000000
B1258175545636N01342053EA0083800850000632000000
B1258215545612N01341966EA0084300851000648000000
B1258255545582N01341880EA0084500856000696000000
B1258295545551N01341801EA0085200864000716000000
B1258335545519N01341720EA0086200872000660000000
B1258375545486N01341637EA0087000880000720000000
B1258415545453N01341552EA0087800893000740000000
B1258455545418N01341469EA0089000903000720000000
B1258495545380N01341392EA0089800909000708000000
B1258535545344N01341317EA0090100911000680000000
B1258575545306N01341240EA0090400914000688000000
B1259015545266N01341169EA0090800918000632000000
B1259055545227N01341097EA0091100918000600000000
B1259095545189N01341022EA0090600912000580000000
B1259135545153N01340943EA0090000909000592000000
B1259175545118N01340865EA0090000907000568000000
B1259215545083N01340788EA0089600902000540000000
B1259255545048N01340709EA0089200898000520000000
B1259295545010N01340631EA0088800897000576000000
B1259335544972N01340550EA0088900899000544000000
B1259375544936N01340469EA0089100901000536000000
B1259415544897N01340388EA0089400909000628000000
B1259455544859N01340308EA0090300914000584000000
B1259495544821N01340229EA0090900922000560000000
B1259535544785N01340151EA0091800930000616000000
B1259575544746N01340074EA0092600937000584000000
B1300015544707N01339996EA0093100944000580000000
B1300055544667N01339918EA0093800951000620000000
B1300095544624N01339844EA0094400955000620000000
B1300135544580N01339774EA0094400952000540000000
B1300175544534N01339709EA0094200948000360000000
B1300215544489N01339649EA0093700943000252000000
B1300255544440N01339592EA0093000937000164000000
B1300295544394N01339536EA0092300930000120000000
B1300335544346N01339479EA0091700923000084000000
B1300375544295N01339423EA0091000914000056000000
B1300415544239N01339371EA0090000905000044000000
B1300455544179N01339324EA0089100897000032000000
B1300495544117N01339277EA0088400893000028000000
B1300535544053N01339233EA0088100889000024000000
B1300575543989N01339190EA0087600887000024000000
B1301015543926N01339150EA0087500888000020000000
B1301055543863N01339110EA0087600888000020000000
B1301095543802N01339067EA0087600887000020000000
B1301135543741N01339025EA0087500886000020000000
B1301175543680N01338986EA0087500887000020000000
B1301215543619N01338948EA0087400886000020000000
B1301255543555N01338911EA0087300883000020000000
B1301295543490N01338876EA0087200884000020000000
B1301335543425N01338848EA0087500890000020000000
B1301375543365N01338818EA0088200893000016000000
B1301415543326N01338752EA0088000889000016000000
B1301455543342N01338687EA0087700887000016000000
B1301495543384N01338709EA0087600886000016000000
B1301535543397N01338812EA0087600887000020000000
B1301575543360N01338916EA0087500889000020000000
B1302015543302N01338984EA0087700891000020000000
B1302055543233N01338999EA0087400886000020000000
B1302095543172N01338959EA0086800880000020000000
B1302135543109N01338916EA0086600878000020000000
B1302175543048N01338872EA0086000874000020000000
B1302215542986N01338828EA0085800872000020000000
B1302255542921N01338792EA0085700870000020000000
B1302295542851N01338772EA0085300864000020000000
B1302335542775N01338760EA0083900841000020000000
B1302375542685N01338746EA0081300827000024000000
B1302415542597N01338735EA0080500825000024000000
B1302455542511N01338729EA0080500816000024000000
B1302495542422N01338725EA0079000804000028000000
B1302535542332N01338721EA0078000795000028000000
B1302575542241N01338720EA0076700776000028000000
B1303015542143N01338718EA0074400759000028000000
B1303055542045N01338718EA0074000756000028000000
B1303095541948N01338717EA0073600753000024000000
B1303135541851N01338714EA0072900746000028000000
B1303175541751N01338712EA0072300741000024000000
B1303215541653N01338709EA0072500749000028000000
B1303255541564N01338707EA0073600757000024000000
B1303295541479N01338705EA0073900759000024000000
B1303335541396N01338700EA0073700756000024000000
B1303375541311N01338695EA0073300751000020000000
B1303415541228N01338687EA0073000749000020000000
B1303455541144N01338681EA0073000744000016000000
B1303495541058N01338672EA0072400737000020000000
B1303535540969N01338669EA0071800730000020000000
B1303575540880N01338665EA0071100727000024000000
B1304015540795N01338661EA0071800734000024000000
B1304055540711N01338666EA0072100737000024000000
B1304095540644N01338714EA0074200763000020000000
B1304135540617N01338817EA0074200739000020000000
B1304175540630N01338941EA0072000729000020000000
B1304215540663N01339025EA0072000729000024000000
B1304255540707N01339076EA0071300713000028000000
B1304295540759N01339094EA0069600697000036000000
B1304335540813N01339088EA0067500660000044000000
B1304375540877N01339039EA0063000637000164000000
B1304415540914N01338976EA0064800682000616000000
B1304455540927N01338913EA0068200693000704000000
B1304495540921N01338839EA0068400691000668000000
B1304535540894N01338765EA0068400695000672000000
B1304575540850N01338704EA0069200701000668000000
B1305015540790N01338664EA0069600704000720000000
B1305055540717N01338657EA0069700702000704000000
B1305095540644N01338705EA0069600704000668000000
B1305135540592N01338808EA0069800707000704000000
B1305175540579N01338939EA0069800703000760000000
B1305215540609N01339039EA0070300715000868000000
B1305255540656N01339056EA0071300720000884000000
B1305295540690N01339003EA0071300720000868000000
B1305335540691N01338912EA0071500728000980000000
B1305375540665N01338822EA0072600733000896000000
B1305415540620N01338735EA0072100718000964000000
B1305455540553N01338647EA0069700699000996000000
B1305495540469N01338583EA0069300703000996000000
B1305535540381N01338539EA0069700705000996000000
B1305575540291N01338505EA0069800708000996000000
B1306015540201N01338474EA0070300715000996000000
B1306055540113N01338447EA0071000722000996000000
B1306095540024N01338426EA0071500725000996000000
B1306135539935N01338412EA0071700726000996000000
B1306175539850N01338400EA0072000735000828000000
B1306215539776N01338396EA0073100744000724000000
B1306255539708N01338395EA0073700743000464000000
B1306295539642N01338396EA0073000734000324000000
B1306335539576N01338401EA0072500734000204000000
B1306375539511N01338425EA0072500727000132000000
B1306415539464N01338526EA0071500719000100000000
B1306455539472N01338633EA0071000714000068000000
B1306495539512N01338661EA0070100702000056000000
B1306535539552N01338642EA0069200696000052000000
B1306575539578N01338591EA0068900692000044000000
B1307015539564N01338521EA0068400688000040000000
B1307055539524N01338470EA0067800683000032000000
B1307095539471N01338432EA0067000672000032000000
B1307135539413N01338406EA0066300666000032000000
B1307175539354N01338380EA0065600660000032000000
B1307215539292N01338363EA0065400661000032000000
B1307255539226N01338367EA0065100653000044000000
B1307295539170N01338449EA0064300649000036000000
B1307335539165N01338566EA0063800643000028000000
B1307375539203N01338634EA0063100635000024000000
B1307415539248N01338661EA0062400633000024000000
B1307455539290N01338659EA0062500633000020000000
B1307495539329N01338626EA0062000620000020000000
B1307535539355N01338560EA0060900618000024000000
B1307575539368N01338484EA0060900616000024000000
B1308015539377N01338400EA0059800600000024000000
B1308055539380N01338302EA0058400593000024000000
B1308095539334N01338224EA0059000600000024000000
B1308135539265N01338181EA0058400589000024000000
B1308175539187N01338158EA0057900587000024000000
B1308215539107N01338145EA0057300578000024000000
B1308255539022N01338135EA0056000567000024000000
B1308295538935N01338127EA0055000560000028000000
B1308335538850N01338126EA0054900557000028000000
B1308375538766N01338135EA0055000564000032000000
B1308415538700N01338101EA0056400583000032000000
B1308455538698N01338028EA0057700584000028000000
B1308495538743N01338053EA0057600585000024000000
B1308535538753N01338168EA0057700584000024000000
B1308575538720N01338293EA0057400578000024000000
B1309015538658N01338369EA0057100584000024000000
B1309055538605N01338327EA0057900588000024000000
B1309095538616N01338261EA0057900587000028000000
B1309135538659N01338310EA0058200590000028000000
B1309175538653N01338444EA0058000588000024000000
B1309215538587N01338521EA0058200597000024000000
B1309255538531N01338484EA0059200602000020000000
B1309295538557N01338440EA0059000600000024000000
B1309335538588N01338535EA0059500610000024000000
B1309375538572N01338659EA0060700618000020000000
B1309415538506N01338711EA0060600612000020000000
B1309455538464N01338648EA0060100606000024000000
B1309495538486N01338591EA0059300603000024000000
B1309535538535N01338627EA0059600606000024000000
B1309575538564N01338730EA0059300606000024000000
B1310015538529N01338852EA0059500607000020000000
B1310055538458N01338867EA0059700609000020000000
B1310095538423N01338799EA0059900609000020000000
B1310135538444N01338746EA0060100610000020000000
B1310175538485N01338792EA0060000610000020000000
B1310215538484N01338919EA0060200613000020000000
B1310255538433N01339015EA0060200612000020000000
B1310295538368N01339004EA0060000608000020000000
B1310335538351N01338928EA0059300601000020000000
B1310375538392N01338902EA0058900598000024000000
B1310415538428N01338985EA0058900604000024000000
B1310455538408N01339104EA0059700607000024000000
B1310495538355N01339186EA0060000607000020000000
B1310535538291N01339215EA0059700601000020000000
B1310575538233N01339195EA0059200599000016000000
B1311015538194N01339143EA0058200582000020000000
B1311055538167N01339064EA0056300568000020000000
B1311095538129N01338986EA0055800569000024000000
B1311135538089N01338919EA0056400573000024000000
B1311175538098N01338856EA0056400572000024000000
B1311215538135N01338902EA0056400577000024000000
B1311255538120N01339016EA0057100580000024000000
B1311295538055N01339072EA0057100579000024000000
B1311335538009N01339023EA0057300581000020000000
B1311375538025N01338971EA0057000575000020000000
B1311415538063N01338999EA0056700577000020000000
B1311455538070N01339104EA0057100577000020000000
B1311495538025N01339212EA0056800573000020000000
B1311535537959N01339257EA0057100583000020000000
B1311575537904N01339225EA0057000572000024000000
B1312015537899N01339153EA0056300569000024000000
B1312055537903N01339084EA0055900568000024000000
B1312095537899N01339007EA0055100553000020000000
B1312135537878N01338922EA0053400540000020000000
B1312175537827N01338857EA0052600533000020000000
B1312215537760N01338842EA0052900538000020000000
B1312255537691N01338834EA0052700533000024000000
B1312295537617N01338843EA0052300535000024000000
B1312335537557N01338925EA0053100542000024000000
B1312375537573N01339030EA0053300539000028000000
B1312415537614N01339029EA0052900533000028015000
B1312455537648N01338978EA0052500532000028000000
B1312495537641N01338907EA0052900540000032000000
B1312535537580N01338904EA0054000546000028000000
B1312575537537N01339007EA0053700542000028000000
B1313015537562N01339099EA0053300542000024000000
B1313055537597N01339082EA0054000550000024000000
B1313095537604N01339016EA0053900546000024000000
B1313135537567N01338955EA0054800558000024000000
B1313175537504N01338960EA0055000554000020000000
B1313215537448N01339038EA0054400546000020000000
B1313255537439N01339162EA0053700546000020000000
B1313295537471N01339244EA0053800543000020000000
B1313335537518N01339277EA0053700548000020000000
B1313375537562N01339276EA0054400553000020000000
B1313415537597N01339241EA0054500551000016000000
B1313455537631N01339193EA0054400555000020000000
B1313495537626N01339117EA0055400566000020000000
B1313535537563N01339110EA0056000567000024000000
B1313575537521N01339211EA0056100570000028000000
B1314015537545N01339309EA0056200571000028000000
B1314055537588N01339331EA0057000580000028000000
B1314095537592N01339262EA0057300583000028000000
B1314135537537N01339229EA0057800587000028000000
B1314175537478N01339311EA0057800590000028000000
B1314215537479N01339428EA0058600600000024000000
B1314255537522N01339465EA0059200603000024000000
B1314295537543N01339407EA0059600609000020000000
B1314335537504N01339350EA0060300615000024000000
B1314375537439N01339366EA0060800613000024000000
B1314415537387N01339458EA0060700621000024000000
B1314455537388N01339569EA0061900628000020000000
B1314495537431N01339595EA0061600626000020000000
B1314535537435N01339523EA0061900637000020000000
B1314575537380N01339485EA0063500648000020000000
B1315015537316N01339539EA0063900648000024000000
B1315055537303N01339652EA0064600659000024000000
B1315095537336N01339723EA0065400664000020000000
B1315135537375N01339731EA0065700664000024000000
B1315175537366N01339661EA0065400667000024000000
B1315215537303N01339647EA0066100670000024000000
B1315255537248N01339738EA0065800670000024000000
B1315295537266N01339842EA0066600682000020000000
B1315335537306N01339840EA0067700688000020000000
B1315375537305N01339770EA0068000693000020000000
B1315415537249N01339735EA0068900695000020000000
B1315455537183N01339795EA0068400691000020000000
B1315495537162N01339913EA0068700701000020000000
B1315535537196N01339979EA0069400702000016000000
B1315575537228N01339942EA0069400704000016000000
B1316015537205N01339866EA0069900710000020000000
B1316055537137N01339858EA0070400712000020000000
B1316095537079N01339942EA0070400711000016000000
B1316135537071N01340060EA0070700716000020000000
B1316175537102N01340142EA0071400722000020000000
B1316215537144N01340156EA0071600726000016000000
B1316255537155N01340091EA0071700725000016000000
B1316295537107N01340030EA0071300726000028000000
B1316335537036N01340072EA0071700731000024000000
B1316375537002N01340187EA0072000730000024000000
B1316415537024N01340286EA0072400736000024000000
B1316455537067N01340293EA0072700738000024000000
B1316495537077N01340222EA0072900741000020000000
B1316535537027N01340173EA0073700749000020000000
B1316575536963N01340229EA0073700744000020000000
B1317015536947N01340352EA0073100745000020000000
B1317055536989N01340407EA0073900753000020000000
B1317095537019N01340360EA0074100753000020000000
B1317135536989N01340287EA0074600760000016000000
B1317175536919N01340297EA0074600755000020000000
B1317215536868N01340398EA0074700758000020000000
B1317255536872N01340515EA0074900761000020000000
B1317295536915N01340559EA0075200760000020000000
B1317335536945N01340514EA0075300761000020000000
B1317375536925N01340434EA0075400766000020000000
B1317415536860N01340412EA0075400762000020000000
B1317455536802N01340493EA0075500766000020000000
B1317495536782N01340615EA0075300757000020000000
B1317535536807N01340726EA0074600758000016000000
B1317575536850N01340767EA0075600765000016000000
B1318015536885N01340733EA0075400762000020000000
B1318055536886N01340650EA0075500770000024000000
B1318095536851N01340593EA0076800783000024000000
B1318135536793N01340583EA0076900769000024000000
B1318175536722N01340625EA0075800770000020000000
B1318215536670N01340703EA0076800779000020000000
B1318255536642N01340815EA0076500766000020000000
B1318295536639N01340935EA0075800766000020000000
B1318335536660N01341030EA0075700766000020000000
B1318375536691N01341097EA0075900763000020000000
B1318415536734N01341139EA0075100759000020000000
B1318455536776N01341148EA0075800769000024000000
B1318495536804N01341109EA0076100773000020000000
B1318535536787N01341038EA0076100767000020000000
B1318575536721N01341021EA0075600766000020000000
B1319015536672N01341112EA0075900771000024000000
B1319055536690N01341223EA0075900766000024000000
B1319095536743N01341248EA0075700770000024000000
B1319135536770N01341187EA0076500785000024000000
B1319175536750N01341126EA0078700802000024000000
B1319215536689N01341113EA0078800788000020000000
B1319255536620N01341174EA0078200801000020000000
B1319295536583N01341270EA0080000808000020000000
B1319335536575N01341389EA0079500804000020000000
B1319375536600N01341485EA0079900811000020000000
B1319415536639N01341528EA0080700818000020000000
B1319455536674N01341513EA0081100818000020000000
B1319495536691N01341463EA0081200821000020000000
B1319535536692N01341404EA0081700826000020000000
B1319575536685N01341335EA0081400816000016000000
B1320015536655N01341268EA0081000818000016000000
B1320055536600N01341235EA0080700811000016000000
B1320095536536N01341230EA0080500813000016000000
B1320135536470N01341240EA0080600814000016000000
B1320175536405N01341260EA0080900813000016000000
B1320215536339N01341281EA0080100805000020000000
B1320255536271N01341294EA0079600801000020000000
B1320295536204N01341295EA0079300796000020000000
B1320335536135N01341327EA0078500786000020000000
B1320375536087N01341425EA0077700780000020000000
B1320415536092N01341535EA0076600765000020000000
B1320455536131N01341591EA0075400758000016000000
B1320495536170N01341580EA0075000755000016000000
B1320535536193N01341529EA0074700751000016000000
B1320575536205N01341457EA0073700737000020000000
B1321015536223N01341373EA0071400713000024000000
B1321055536248N01341275EA0068800690000024000000
B1321095536276N01341169EA0067100676000028000000
B1321135536308N01341061EA0066000668000032000000
B1321175536338N01340957EA0065600666000032000000
B1321215536367N01340858EA0065500671000036000000
B1321255536396N01340772EA0066600673000032000000
B1321295536423N01340683EA0065800665000032000000
B1321335536452N01340593EA0065300658000032000000
B1321375536479N01340498EA0064400655000032000000
B1321415536509N01340407EA0064300652000032000000
B1321455536546N01340336EA0064400660000032000000
B1321495536591N01340299EA0065400660000028000000
B1321535536637N01340267EA0064800648000028000000
B1321575536685N01340232EA0063700645000028000000
B1322015536729N01340189EA0063700645000024000000
B1322055536770N01340138EA0063700644000028000000
B1322095536811N01340078EA0063600644000024000000
B1322135536837N01340003EA0064100651000028000000
B1322175536822N01339912EA0064600658000024000000
B1322215536763N01339890EA0066500677000024000000
B1322255536708N01339968EA0066400668000024000000
B1322295536708N01340085EA0066400674000020000000
B1322335536746N01340126EA0066800675000020000000
B1322375536773N01340083EA0067000681000020000000
B1322415536757N01340017EA0067500683000020000000
B1322455536702N01339991EA0067600681000016000000
B1322495536639N01340042EA0067300679000020000000
B1322535536608N01340151EA0067100677000016000000
B1322575536624N01340256EA0066900676000016000000
B1323015536665N01340303EA0067100681000020000000
B1323055536696N01340272EA0067900687000020000000
B1323095536678N01340200EA0067900685000020000000
B1323135536617N01340185EA0067700684000020000000
B1323175536561N01340264EA0067700682000020000000
B1323215536562N01340380EA0067400681000020000000
B1323255536603N01340450EA0067800689000020000000
B1323295536647N01340469EA0068700694000020000000
B1323335536660N01340407EA0068900694000016000000
B1323375536612N01340356EA0068800693000020000000
B1323415536547N01340410EA0068900695000020000000
B1323455536517N01340520EA0069100698000020000000
B1323495536529N01340622EA0069100697000020000000
B1323535536566N01340677EA0069300702000016000000
B1323575536607N01340690EA0069600701000016000000
B1324015536648N01340676EA0069400702000020000000
B1324055536687N01340655EA0069900705000020000000
B1324095536722N01340629EA0070100707000020000000
B1324135536760N01340606EA0069700700000020000000
B1324175536799N01340583EA0068900689000020000000
B1324215536841N01340558EA0068100687000020000000
B1324255536882N01340538EA0067900687000020000000
B1324295536920N01340516EA0068600694000020000000
B1324335536956N01340497EA0068500686000016000000
B1324375536993N01340466EA0067800682000016000000
B1324415537028N01340434EA0067900685000016000000
B1324455537064N01340399EA0067900681000016000000
B1324495537099N01340358EA0067200676000016000000
B1324535537128N01340307EA0066600671000016000000
B1324575537138N01340239EA0066400671000016000000
B1325015537120N01340164EA0065900656000016000000
B1325055537085N01340081EA0063800640000020000000
B1325095537049N01339995EA0063300641000024000000
B1325135537019N01339914EA0063700645000024000000
B1325175537002N01339832EA0063400636000024000000
B1325215537020N01339764EA0062300626000024000000
B1325255537054N01339709EA0062000620000024000000
B1325295537092N01339647EA0060900613000024000000
B1325335537121N01339583EA0061600631000024000000
B1325375537129N01339509EA0062100622000024000000
B1325415537149N01339437EA0060500598000024000000
B1325455537188N01339362EA0057300573000028000000
B1325495537232N01339288EA0056400572000032000000
B1325535537276N01339219EA0056200565000032000000
B1325575537323N01339146EA0055200551000032000000
B1326015537368N01339065EA0053900541000032000000
B1326055537409N01338982EA0053800552000032000000
B1326095537437N01338909EA0055900574000028000000
B1326135537441N01338837EA0057900585000028000000
B1326175537391N01338795EA0058700592000024000000
B1326215537326N01338811EA0058900589000024000000
B1326255537272N01338902EA0058700591000020000000
B1326295537263N01339021EA0059300602000016000000
B1326335537288N01339111EA0060300608000016000000
B1326375537327N01339149EA0060800613000016000000
B1326415537365N01339140EA0060800607000016000000
B1326455537389N01339089EA0060400612000016000000
B1326495537393N01339019EA0061100618000016000000
B1326535537372N01338946EA0061300618000016000000
B1326575537324N01338890EA0061700626000020000000
B1327015537259N01338868EA0061700623000016000000
B1327055537189N01338900EA0061700623000016000000
B1327095537129N01338981EA0061300619000016000000
B1327135537095N01339097EA0061100619000016000000
B1327175537114N01339201EA0061300619000016000000
B1327215537154N01339212EA0061100618000016000000
B1327255537176N01339159EA0061100621000016000000
B1327295537190N01339099EA0061100613000020000000
B1327335537206N01339025EA0059800606000024000000
B1327375537218N01338951EA0060000609000020000000
B1327415537225N01338878EA0060300611000020000000
B1327455537236N01338802EA0059800607000020000000
B1327495537248N01338722EA0059800607000020000000
B1327535537258N01338642EA0060300619000024000000
B1327575537275N01338582EA0061300622000020000000
B1328015537315N01338612EA0061200620000020000000
B1328055537323N01338727EA0061200621000020000000
B1328095537284N01338835EA0061400621000020000000
B1328135537224N01338915EA0061100619000020000000
B1328175537158N01338947EA0061300626000020000000
B1328215537092N01338939EA0061500626000016000000
B1328255537027N01338930EA0061800627000016000000
B1328295536968N01338894EA0061600623000020000000
B1328335536906N01338855EA0060900618000020000000
B1328375536842N01338821EA0060800615000020000000
B1328415536773N01338786EA0059900602000024000000
B1328455536699N01338757EA0058800595000024000000
B1328495536622N01338730EA0058500597000024000000
B1328535536549N01338705EA0058600595000020000000
B1328575536474N01338679EA0057900585000020000000
B1329015536396N01338649EA0056800577000024000000
B1329055536317N01338621EA0056400575000020000000
B1329095536240N01338597EA0056500575000020000000
B1329135536165N01338571EA0055900570000020000000
B1329175536091N01338553EA0055900572000020000000
B1329215536020N01338538EA0056400576000024000000
B1329255535954N01338521EA0056700580000020000000
B1329295535886N01338505EA0056900580000020000000
B1329335535829N01338467EA0057500585000020000000
B1329375535831N01338399EA0057400581000020000000
B1329415535875N01338412EA0057300583000020000000
B1329455535906N01338501EA0057500583000020000000
B1329495535923N01338616EA0057400584000020000000
B1329535535902N01338737EA0057900589000020000000
B1329575535838N01338759EA0058100592000024000000
B1330015535824N01338685EA0058800599000020000000
B1330055535863N01338672EA0058900598000020000000
B1330095535886N01338766EA0059200602000020000000
B1330135535873N01338883EA0059500603000020000000
B1330175535820N01338967EA0059300596000016000000
B1330215535764N01338932EA0058600594000016000000
B1330255535764N01338851EA0058900601000016000000
B1330295535807N01338839EA0059400605000016000000
B1330335535837N01338928EA0059800607000020000000
B1330375535811N01339043EA0059200596000024000000
B1330415535745N01339063EA0058400592000024000000
B1330455535695N01339006EA0058900601000024000000
B1330495535690N01338933EA0059100600000024000000
B1330535535730N01338951EA0059200601000020000000
B1330575535729N01339064EA0058800596000020000000
B1331015535672N01339142EA0058900599000020000000
B1331055535607N01339137EA0059800610000020000000
B1331095535572N01339080EA0060100607000020000000
B1331135535599N01339042EA0059300600000020000000
B1331175535632N01339115EA0059200602000020000000
B1331215535623N01339234EA0059500606000020000000
B1331255535564N01339302EA0059800608000020000000
B1331295535515N01339254EA0059800610000020000000
B1331335535526N01339194EA0060300611000020000000
B1331375535567N01339221EA0060000610000020000000
B1331415535573N01339336EA0060200613000020000000
B1331455535521N01339427EA0060600619000020000000
B1331495535457N01339426EA0061100623000020000000
B1331535535425N01339361EA0061200623000020000000
B1331575535441N01339301EA0060900615000016000000
B1332015535482N01339303EA0060200609000016000000
B1332055535513N01339387EA0059900613000016000000
B1332095535495N01339502EA0060700620000016000000
B1332135535433N01339567EA0060900618000020000000
B1332175535378N01339523EA0060600617000020000000
B1332215535385N01339453EA0060700620000020000000
B1332255535425N01339470EA0061100621000020000000
B1332295535451N01339567EA0061000623000020000000
B1332335535441N01339689EA0061100621000024000000
B1332375535373N01339736EA0060700619000024000000
B1332415535330N01339671EA0060800620000024000000
B1332455535348N01339610EA0061000625000020000000
B1332495535387N01339647EA0061700633000020000000
B1332535535392N01339757EA0062100633000020000000
B1332575535347N01339860EA0061700627000020000000
B1333015535278N01339879EA0061500630000020000000
B1333055535235N01339819EA0061900629000020000000
B1333095535243N01339748EA0061800629000020000000
B1333135535283N01339748EA0061900631000020000000
B1333175535304N01339842EA0062500637000020000000
B1333215535281N01339962EA0062500634000020000000
B1333255535261N01340086EA0062500637000020000000
B1333295535281N01340183EA0063000641000020000000
B1333335535321N01340246EA0062700628000020000000
B1333375535370N01340308EA0060800611000020000000
B1333415535429N01340368EA0058700589000028000000
B1333455535496N01340427EA0056600577000028000000
B1333495535565N01340475EA0056400579000032000000
B1333535535629N01340521EA0056500574000028000000
B1333575535695N01340562EA0055600566000028000000
B1334015535763N01340598EA0054800561000028000000
B1334055535829N01340627EA0054600562000028000000
B1334095535896N01340650EA0054500553000028000000
B1334135535962N01340672EA0053800549000028000000
B1334175536027N01340700EA0053700552000028000000
B1334215536088N01340724EA0053700543000028000000
B1334255536150N01340748EA0052600532000032000000
B1334295536211N01340772EA0051600525000032000000
B1334335536274N01340800EA0051000516000032000000
B1334375536338N01340833EA0049900502000032000000
B1334415536405N01340867EA0048400485000032000000
B1334455536478N01340904EA0046800483000032000000
B1334495536538N01340956EA0048600511000032000000
B1334535536588N01341017EA0050500518000032000000
B1334575536635N01341023EA0051000524000028000000
B1335015536639N01340960EA0051700524000024000000
B1335055536588N01340911EA0051000523000024000000
B1335095536523N01340961EA0051900533000020000000
B1335135536492N01341074EA0052200532000020000000
B1335175536490N01341192EA0051900530000016000000
B1335215536496N01341311EA0052100532000016000000
B1335255536512N01341421EA0052800538000016000000
B1335295536555N01341457EA0052100528000016000000
B1335335536570N01341392EA0051800534000016000000
B1335375536526N01341344EA0053000545000020000000
B1335415536461N01341374EA0053700545000020000000
B1335455536425N01341491EA0053300541000020000000
B1335495536460N01341568EA0053200544000020000000
B1335535536479N01341511EA0053200541000024000000
B1335575536438N01341447EA0053900551000024000000
B1336015536373N01341496EA0054400554000024000000
B1336055536361N01341623EA0054400554000024000000
B1336095536400N01341672EA0054900560000024000000
B1336135536419N01341616EA0055000563000020000000
B1336175536378N01341560EA0055900573000020000000
B1336215536314N01341604EA0056000569000020000000
B1336255536315N01341724EA0054400545000028000000
B1336295536362N01341699EA0053300549000032000000
B1336335536370N01341623EA0055100568000028000000
B1336375536326N01341577EA0056000573000028000000
B1336415536271N01341675EA0055800573000024000000
B1336455536289N01341779EA0056100577000024000000
B1336495536330N01341797EA0056700582000024000000
B1336535536356N01341766EA0057100584000020000000
B1336575536348N01341706EA0057300585000020000000
B1337015536302N01341662EA0057200580000020000000
B1337055536236N01341672EA0056300569000020000000
B1337095536178N01341758EA0055700566000020000000
B1337135536139N01341875EA0055300563000020000000
B1337175536110N01341998EA0054900560000020000000
B1337215536084N01342122EA0055300568000020000000
B1337255536075N01342241EA0056000571000020000000
B1337295536107N01342312EA0055900562000020000000
B1337335536149N01342314EA0055500570000020000000
B1337375536188N01342304EA0056200569000020000000
B1337415536223N01342278EA0056200574000020000000
B1337455536256N01342247EA0056800576000020000000
B1337495536273N01342192EA0056600573000016000000
B1337535536265N01342119EA0056200569000020000000
B1337575536265N01342048EA0056700578000020000000
B1338015536266N01341976EA0056600568000020000000
B1338055536274N01341898EA0055600561000020000000
B1338095536287N01341818EA0054900555000020000000
B1338135536301N01341736EA0054100543000020000000
B1338175536321N01341639EA0051900521000024000000
B1338215536344N01341534EA0050100505000028000000
B1338255536374N01341426EA0048400495000032000000
B1338295536408N01341329EA0048300493000032000000
B1338335536442N01341236EA0047700486000032000000
B1338375536474N01341149EA0047100481000032000000
B1338415536507N01341065EA0046100466000032000000
B1338455536540N01340973EA0044600451000032000000
B1338495536575N01340882EA0043800443000032000000
B1338535536609N01340793EA0043200440000032000000
B1338575536646N01340701EA0041700421000032000000
B1339015536683N01340611EA0041100428000032000000
B1339055536717N01340536EA0042100431000028000000
B1339095536751N01340462EA0041700426000028000000
B1339135536778N01340391EA0042500447000024000000
B1339175536800N01340336EA0044400454000024000000
B1339215536803N01340271EA0044700458000024000000
B1339255536767N01340215EA0044100441000024000000
B1339295536751N01340141EA0042700432000024000000
B1339335536782N01340092EA0041900421000020000000
B1339375536826N01340061EA0040500412000024000000
B1339415536871N01340034EA0039900406000024000000
B1339455536911N01339998EA0039400402000024000000
B1339495536921N01339929EA0039400401000024000000
B1339535536884N01339870EA0038900394000028000000
B1339575536819N01339874EA0038400391000032000000
B1340015536750N01339925EA0037500373000036000000
B1340055536674N01339994EA0035400357000040000000
B1340095536595N01340078EA0032000313000096000000
B1340135536513N01340198EA0029700312000688000000
B1340175536477N01340347EA0032000340000996000000
B1340215536487N01340485EA0033800349000952000000
B1340255536526N01340583EA0034200353000936000000
B1340295536575N01340624EA0034600353000820000000
B1340335536624N01340614EA0034200349000772000000
B1340375536664N01340579EA0034200350000812000000
B1340415536694N01340524EA0034300351000772000000
B1340455536716N01340455EA0034200352000736000000
B1340495536733N01340385EA0034700357000768000000
B1340535536750N01340317EA0034700358000756000000
B1340575536765N01340254EA0035500366000696000000
B1341015536770N01340189EA0035800369000740000000
B1341055536765N01340118EA0036000368000736000000
B1341095536754N01340053EA0035800365000552000000
B1341135536718N01340000EA0035400357000388000000
B1341175536663N01339977EA0034700353000244000000
B1341215536601N01339981EA0034300351000160000000
B1341255536542N01340001EA0034000347000112000000
B1341295536478N01340018EA0032700332000076000000
B1341335536414N01340018EA0032400332000056000000
B1341375536352N01340011EA0032400335000040000000
B1341415536291N01339994EA0033100342000032000000
B1341455536247N01339947EA0033600342000032000000
B1341495536265N01339899EA0033200340000028000000
B1341535536308N01339957EA0033100339000024000000
B1341575536309N01340085EA0033100340000020000000
B1342015536263N01340191EA0033100342000020000000
B1342055536200N01340241EA0033500343000020000000
B1342095536158N01340194EA0033100335000020000000
B1342135536188N01340156EA0032700337000020000000
B1342175536228N01340228EA0033100341000020000000
B1342215536227N01340355EA0033100340000020000000
B1342255536191N01340476EA0033100340000020000000
B1342295536128N01340506EA0032900337000020000000
B1342335536105N01340449EA0032800336000020000000
B1342375536132N01340408EA0032600338000020000000
B1342415536175N01340424EA0033100338000020000000
B1342455536204N01340529EA0032700336000020000000
B1342495536176N01340650EA0033000339000020000000
B1342535536118N01340697EA0033100337000020000000
B1342575536076N01340655EA0032500332000016000000
B1343015536068N01340586EA0032400332000020000000
B1343055536098N01340555EA0032600336000020000000
B1343095536140N01340614EA0032500329000020000000
B1343135536143N01340744EA0031400319000020000000
B1343175536092N01340841EA0031100322000020000000
B1343215536029N01340854EA0030800316000020000000
B1343255535992N01340802EA0030900321000020000000
B1343295536000N01340746EA0031100318000020000000
B1343335536042N01340797EA0030600314000024000000
B1343375536037N01340923EA0030600316000020000000
B1343415535977N01340996EA0030500311000020000000
B1343455535923N01340978EA0030200314000020000000
B1343495535925N01340921EA0030300312000020000000
B1343535535968N01340952EA0030400313000024000000
B1343575535976N01341075EA0030600318000020000000
B1344015535933N01341179EA0031100319000020000000
B1344055535870N01341214EA0030800314000020000000
B1344095535814N01341183EA0030200311000020000000
B1344135535773N01341121EA0030200312000020000000
B1344175535764N01341044EA0030600320000020000000
B1344215535797N01341013EA0031700332000020000000
B1344255535824N01341101EA0032200327000020000000
B1344295535789N01341223EA0031300322000020000000
B1344335535723N01341265EA0031500326000020000000
B1344375535669N01341225EA0032100333000016000000
B1344415535642N01341156EA0032800340000016000000
B1344455535669N01341118EA0033400344000024000000
B1344495535701N01341201EA0033700349000024000000
B1344535535663N01341305EA0034100351000024000000
B1344575535606N01341295EA0034200353000020000000
B1345015535607N01341230EA0034500356000024000000
B1345055535647N01341256EA0035200359000020000000
B1345095535649N01341376EA0034600358000024000000
B1345135535594N01341446EA0035400367000024000000
B1345175535539N01341424EA0035700367000024000000
B1345215535517N01341360EA0036000371000020000000
B1345255535533N01341309EA0035900365000020000000
B1345295535574N01341317EA0035400361000020000000
B1345335535598N01341417EA0035500368000020000000
B1345375535569N01341524EA0036600378000020000000
B1345415535511N01341561EA0037100379000020000000
B1345455535468N01341516EA0036800377000020000000
B1345495535474N01341454EA0036600373000016000000
B1345535535515N01341442EA0035800367000024000000
B1345575535551N01341517EA0035900369000020000000
B1346015535539N01341639EA0036100376000020000000
B1346055535487N01341710EA0037500382000020000000
B1346095535439N01341663EA0036800374000020000000
B1346135535465N01341617EA0036800379000024000000
B1346175535504N01341682EA0037300384000024000000
B1346215535500N01341797EA0037900387000020000000
B1346255535441N01341864EA0037700385000020000000
B1346295535390N01341819EA0038000395000020000000
B1346335535396N01341759EA0038900399000020000000
B1346375535434N01341766EA0038900397000020000000
B1346415535463N01341847EA0039000400000020000000
B1346455535442N01341966EA0039000401000020000000
B1346495535379N01342020EA0039500409000020000000
B1346535535331N01341976EA0040200413000020000000
B1346575535337N01341914EA0040400414000020000000
B1347015535377N01341923EA0040300413000020000000
B1347055535396N01342024EA0040700418000020000000
B1347095535361N01342133EA0041000420000020000000
B1347135535294N01342162EA0041600430000020000000
B1347175535251N01342114EA0042300435000016000000
B1347215535253N01342050EA0042000430000020000000
B1347255535294N01342046EA0041900431000020000000
B1347295535321N01342135EA0042000427000020000000
B1347335535305N01342260EA0042000435000020000000
B1347375535261N01342358EA0042900440000024000000
B1347415535201N01342344EA0043100441000020000000
B1347455535207N01342282EA0042900439000020000000
B1347495535248N01342315EA0042800437000020000000
B1347535535260N01342429EA0043300450000024000000
B1347575535236N01342542EA0044500450000028000000
B1348015535170N01342574EA0044000453000024000000
B1348055535131N01342513EA0044700461000024000000
B1348095535147N01342456EA0045000459000020000000
B1348135535191N01342481EA0044600459000024000000
B1348175535212N01342581EA0045500468000024000000
B1348215535181N01342691EA0046100471000024000000
B1348255535116N01342733EA0046300474000024000000
B1348295535069N01342682EA0046500476000020000000
B1348335535084N01342625EA0046700475000020000000
B1348375535127N01342664EA0046200473000020000000
B1348415535132N01342780EA0047100487000020000000
B1348455535095N01342880EA0048300495000020000000
B1348495535032N01342910EA0049000499000020000000
B1348535534997N01342850EA0049000500000020000000
B1348575535022N01342807EA0048900494000020000000
B1349015535062N01342867EA0048500500000024000000
B1349055535064N01342984EA0050100509000028000000
B1349095535013N01343069EA0050000511000028000000
B1349135534957N01343042EA0050800522000024000000
B1349175534957N01342982EA0051400524000024000000
B1349215534995N01342995EA0051800527000020000000
B1349255535013N01343097EA0052200532000024000000
B1349295534982N01343202EA0052800543000024000000
B1349335534922N01343229EA0053900549000020000000
B1349375534889N01343175EA0054000549000020000000
B1349415534908N01343131EA0054000548000020000000
B1349455534947N01343158EA0054300556000020000000
B1349495534966N01343249EA0055100558000020000000
B1349535534940N01343365EA0054400552000024000000
B1349575534880N01343423EA0055400572000020000000
B1350015534830N01343402EA0057100582000020000000
B1350055534813N01343345EA0057000577000020000000
B1350095534835N01343307EA0056400575000020000000
B1350135534874N01343349EA0056700578000020000000
B1350175534880N01343459EA0057100579000020000000
B1350215534837N01343558EA0057200589000020000000
B1350255534775N01343576EA0058800600000020000000
B1350295534742N01343521EA0058900594000016000000
B1350335534762N01343472EA0058400594000016000000
B1350375534802N01343501EA0058700600000020000000
B1350415534820N01343600EA0059300605000020000000
B1350455534801N01343710EA0060000609000020000000
B1350495534742N01343777EA0060000612000020000000
B1350535534684N01343758EA0060400616000020000000
B1350575534663N01343692EA0060200610000020000000
B1351015534688N01343652EA0060000610000020000000
B1351055534729N01343686EA0060000609000020000000
B1351095534753N01343787EA0060200612000016000000
B1351135534732N01343907EA0060800623000020000000
B1351175534674N01343961EA0062000632000020000000
B1351215534625N01343920EA0062300631000016000000
B1351255534631N01343856EA0061900630000020000000
B1351295534672N01343868EA0062000628000020000000
B1351335534713N01343930EA0062400633000024000000
B1351375534716N01344044EA0062800639000024000000
B1351415534662N01344115EA0062700637000028000000
B1351455534612N01344070EA0063800653000028000000
B1351495534623N01344007EA0064800660000024000000
B1351535534663N01344039EA0065400667000024000000
B1351575534666N01344155EA0065800668000024000000
B1352015534625N01344255EA0066500678000024000000
B1352055534568N01344242EA0067100682000024000000
B1352095534558N01344169EA0067600691000024000000
B1352135534596N01344160EA0068700697000020000000
B1352175534625N01344249EA0068900698000020000000
B1352215534602N01344367EA0069300705000020000000
B1352255534541N01344408EA0070200710000020000000
B1352295534492N01344358EA0069800706000020000000
B1352335534501N01344288EA0070300716000020000000
B1352375534542N01344297EA0071500725000020000000
B1352415534572N01344386EA0071800725000020000000
B1352455534567N01344512EA0071700732000020000000
B1352495534525N01344605EA0072900744000020000000
B1352535534464N01344642EA0073600743000020000000
B1352575534406N01344618EA0073200742000020000000
B1353015534388N01344550EA0073300743000020000000
B1353055534417N01344512EA0073400744000020000000
B1353095534460N01344558EA0073600746000016000000
B1353135534476N01344670EA0074300756000020000000
B1353175534445N01344776EA0075200762000020000000
B1353215534382N01344819EA0075300761000020000000
B1353255534330N01344774EA0075000760000020000000
B1353295534328N01344701EA0075100761000020000000
B1353335534368N01344685EA0075300764000020000000
B1353375534411N01344745EA0075600767000020000000
B1353415534428N01344857EA0076200773000020000000
B1353455534408N01344979EA0076500773000020000000
B1353495534352N01345057EA0077000782000016000000
B1353535534290N01345065EA0077300777000016000000
B1353575534246N01345000EA0076100770000020000000
B1354015534248N01344925EA0076400778000020000000
B1354055534285N01344889EA0076600777000020000000
B1354095534330N01344936EA0076900780000020000000
B1354135534356N01345044EA0076900780000020000000
B1354175534339N01345170EA0077100786000020000000
B1354215534284N01345247EA0077500781000020000000
B1354255534221N01345233EA0076800779000020000000
B1354295534187N01345166EA0077000781000020000000
B1354335534182N01345086EA0076200763000020000000
B1354375534199N01344986EA0073100729000028000000
B1354415534235N01344879EA0071300735000032000000
B1354455534268N01344784EA0072800741000032000000
B1354495534303N01344688EA0071900730000036000000
B1354535534339N01344597EA0071700728000032000000
B1354575534376N01344505EA0071200722000032000000
B1355015534412N01344414EA0070600713000028000000
B1355055534449N01344317EA0069700705000028000000
B1355095534486N01344226EA0069000702000032000000
B1355135534527N01344141EA0068800697000032000000
B1355175534564N01344055EA0068800698000032000000
B1355215534599N01343974EA0069200705000032000000
B1355255534636N01343896EA0069400705000032000000
B1355295534675N01343822EA0070100718000032000000
B1355335534654N01343761EA0072500748000032000000
B1355375534598N01343822EA0073400736000036000000
B1355415534607N01343939EA0073100748000032000000
B1355455534649N01343963EA0074100750000024000000
B1355495534651N01343896EA0073900745000024000000
B1355535534594N01343868EA0074000756000024000000
B1355575534545N01343940EA0075800773000020000000
B1356015534544N01344050EA0076300767000020000000
B1356055534585N01344086EA0076000771000020000000
B1356095534589N01344026EA0076400770000024000000
B1356135534541N01343972EA0076400775000020000000
B1356175534481N01343982EA0077300785000020000000
B1356215534451N01344091EA0077800785000020000000
B1356255534488N01344167EA0077600788000020000000
B1356295534516N01344120EA0078300795000020000000
B1356335534486N01344051EA0079000799000020000000
B1356375534423N01344057EA0079400804000020000000
B1356415534371N01344141EA0080000811000020000000
B1356455534365N01344256EA0080500814000020000000
B1356495534403N01344320EA0080900817000020000000
B1356535534438N01344281EA0080900818000020000000
B1356575534421N01344206EA0081300822000020000000
B1357015534363N01344187EA0081800827000020000000
B1357055534308N01344260EA0082100828000020000000
B1357095534307N01344376EA0082400832000020000000
B1357135534347N01344424EA0082700835000020000000
B1357175534377N01344376EA0082900840000020000000
B1357215534354N01344304EA0083600847000020000000
B1357255534291N01344303EA0084000849000016000000
B1357295534248N01344398EA0084100851000020000000
B1357335534268N01344498EA0083800847000016000000
B1357375534311N01344498EA0084000856000020000000
B1357415534320N01344431EA0084900862000016000000
B1357455534284N01344371EA0085200861000020000000
B1357495534219N01344381EA0085000860000016000000
B1357535534172N01344472EA0085000861000016000000
B1357575534174N01344583EA0085000858000016000000
B1358015534217N01344624EA0084400855000016000000
B1358055534245N01344574EA0084800860000020000000
B1358095534226N01344497EA0085100863000016000000
B1358135534170N01344470EA0085500863000016000000
B1358175534108N01344523EA0085200860000016000000
B1358215534078N01344631EA0085100858000016000000
B1358255534092N01344737EA0084500852000020000000
B1358295534134N01344789EA0084300852000016000000
B1358335534178N01344784EA0084600859000016000000
B1358375534221N01344771EA0085200860000020000000
B1358415534265N01344748EA0084600854000020000000
B1358455534299N01344697EA0084100849000020000000
B1358495534328N01344624EA0082700833000024000000
B1358535534359N01344536EA0081400823000024000000
B1358575534393N01344451EA0081300830000024000000
B1359015534423N01344371EA0081900821000028000000
B1359055534458N01344280EA0080200808000024000000
B1359095534490N01344180EA0079200803000028000000
B1359135534518N01344077EA0079100802000024000000
B1359175534544N01343979EA0079300812000032000000
B1359215534570N01343907EA0081100821000032000000
B1359255534594N01343842EA0080900815000036000000
B1359295534623N01343775EA0079800799000040000000
B1359335534661N01343692EA0076200757000080000000
B1359375534710N01343595EA0073100752000604000000
B1359415534744N01343521EA0076400800000820000000
B1359455534768N01343458EA0079800814000808000000
B1359495534794N01343400EA0080500816000812000000
B1359535534822N01343340EA0080800820000816000000
B1359575534850N01343288EA0081600828000772000000
B1400015534879N01343240EA0082300834000772000000
B1400055534906N01343196EA0082900837000688000000
B1400095534939N01343157EA0082900835000584000000
B1400135534974N01343119EA0082000824000384000000
B1400175535006N01343071EA0081300819000276000000
B1400215535038N01343019EA0080500807000196000000
B1400255535073N01342967EA0079500795000132000000
B1400295535116N01342899EA0076500752000116000000
B1400335535161N01342821EA0074600776000640000000
B1400375535190N01342767EA0078700805000704000000
B1400415535216N01342712EA0079700805000752000000
B1400455535244N01342651EA0079900809000844000000
B1400495535273N01342590EA0080300813000880000000
B1400535535303N01342531EA0081100820000872000000
B1400575535334N01342475EA0081600822000876000000
B1401015535363N01342418EA0081600822000684000000
B1401055535390N01342364EA0081300819000448000000
B1401095535418N01342313EA0081100817000312000000
B1401135535447N01342262EA0080700812000220000000
B1401175535474N01342208EA0080200806000164000000
B1401215535504N01342152EA0079400801000104000000
B1401255535537N01342096EA0078700794000068000000
B1401295535571N01342036EA0078000787000052000000
B1401335535602N01341977EA0078000792000036000000
B1401375535628N01341935EA0079000799000032000000
B1401415535659N01341906EA0078700791000028000000
B1401455535697N01341883EA0077700784000024000000
B1401495535736N01341857EA0077300781000020000000
B1401535535769N01341823EA0077200778000020000000
B1401575535803N01341782EA0076600770000020000000
B1402015535840N01341741EA0076000768000020000000
B1402055535877N01341711EA0076300770000020000000
B1402095535915N01341681EA0076100762000020000000
B1402135535954N01341649EA0075500759000020000000
B1402175535992N01341633EA0075500760000020000000
B1402215536029N01341613EA0074700743000020000000
B1402255536070N01341564EA0072500728000024000000
B1402295536110N01341513EA0071800727000024000000
B1402335536152N01341469EA0071700724000024000000
B1402375536193N01341428EA0071500721000020000000
B1402415536235N01341387EA0070900715000024000000
B1402455536270N01341343EA0071000719000020000000
B1402495536293N01341294EA0071300719000020000000
B1402535536317N01341246EA0070800711000020000000
B1402575536348N01341200EA0069800702000020000000
B1403015536379N01341151EA0069300700000020000000
B1403055536410N01341105EA0069200702000016000000
B1403095536438N01341061EA0069600708000016000000
B1403135536465N01341021EA0069700698000016000000
B1403175536496N01340962EA0067700680000020000000
B1403215536527N01340893EA0066700677000024000000
B1403255536553N01340819EA0067000679000024000000
B1403295536582N01340735EA0065400652000024000000
B1403335536620N01340632EA0062600636000032000000
B1403375536663N01340524EA0062400637000032000000
B1403415536679N01340420EA0064600673000032000000
B1403455536630N01340373EA0067100677000028000000
B1403495536569N01340436EA0066500673000024000000
B1403535536533N01340542EA0066200667000024000000
B1403575536495N01340646EA0065700664000020000000
B1404015536471N01340758EA0065500657000020000000
B1404055536492N01340850EA0065100657000020000000
B1404095536534N01340870EA0065200660000020000000
B1404135536553N01340815EA0065500662000020000000
B1404175536522N01340748EA0065500660000016000000
B1404215536456N01340761EA0065000656000016000000
B1404255536419N01340866EA0064800653000016000000
B1404295536426N01340979EA0065000657000016000000
B1404335536440N01341084EA0065200658000020000000
B1404375536468N01341178EA0065000651000020000000
B1404415536516N01341235EA0065000647000048000000
B1404455536568N01341257EA0063800620000052000000
B1404495536620N01341209EA0061400628000044000000
B1404535536642N01341136EA0063400645000036000000
B1404575536655N01341056EA0064400634000044000000
B1405015536668N01340956EA0063200595000056000000
B1405055536685N01340837EA0059000589000060000000
B1405095536695N01340746EA0060400624000044000000
B1405135536700N01340675EA0062600632000036000000
B1405175536683N01340598EA0062100626000028000000
B1405215536651N01340527EA0061600620000024000000
B1405255536617N01340453EA0061100610000024000000
B1405295536583N01340368EA0059300596000024000000
B1405335536552N01340274EA0058200586000024000000
B1405375536522N01340182EA0057900585000024000000
B1405415536499N01340092EA0058000585000020000000
B1405455536474N01340005EA0058100587000020000000
B1405495536449N01339926EA0058500589000020000000
B1405535536423N01339853EA0058300586000020000000
B1405575536397N01339777EA0057400575000020000000
B1406015536371N01339693EA0056500569000020000000
B1406055536345N01339611EA0056300567000020000000
B1406095536319N01339531EA0056400569000020000000
B1406135536293N01339450EA0056700572000020000000
B1406175536262N01339371EA0056600570000020000000
B1406215536232N01339293EA0056500567000020000000
B1406255536198N01339216EA0056200566000020000000
B1406295536167N01339140EA0056000564000020000000
B1406335536133N01339063EA0055700562000020000000
B1406375536100N01338985EA0055500558000016000000
B1406415536063N01338909EA0054700550000016000000
B1406455536009N01338859EA0054300546000020000000
B1406495535941N01338883EA0054200549000020000000
B1406535535894N01338986EA0054300544000020000000
B1406575535890N01339120EA0053300534000020000000
B1407015535931N01339214EA0052600532000016000000
B1407055535980N01339250EA0052500531000016000000
B1407095536027N01339263EA0052300526000020000000
B1407135536075N01339276EA0051400519000020000000
B1407175536123N01339289EA0051000516000020000000
B1407215536165N01339270EA0050900514000020000000
B1407255536184N01339207EA0049900504000020000000
B1407295536162N01339129EA0049600507000020000000
B1407335536105N01339091EA0049800504000020000000
B1407375536033N01339111EA0049200498000020000000
B1407415535971N01339189EA0049000499000020000000
B1407455535936N01339305EA0048800492000020000000
B1407495535938N01339436EA0047800481000020000000
B1407535535979N01339531EA0047000475000020000000
B1407575536027N01339541EA0046800475000020000000
B1408015536052N01339485EA0046300473000020000000
B1408055536041N01339410EA0046300470000020000000
B1408095536000N01339345EA0046000465000024000000
B1408135535933N01339335EA0045400460000024000000
B1408175535871N01339414EA0044700456000024000000
B1408215535854N01339545EA0044700454000024000000
B1408255535885N01339652EA0043800441000020000000
B1408295535935N01339666EA0043300444000020000000
B1408335535950N01339608EA0043500443000020000000
B1408375535920N01339539EA0042600431000024000000
B1408415535857N01339514EA0041500424000024000000
B1408455535790N01339563EA0041700427000020000000
B1408495535743N01339669EA0041400420000020000000
B1408535535734N01339803EA0040600412000020000000
B1408575535764N01339909EA0040000408000020000000
B1409015535810N01339953EA0039800410000020000000
B1409055535842N01339933EA0040200411000020000000
B1409095535844N01339870EA0039700404000020000000
B1409135535806N01339812EA0038800397000020000000
B1409175535745N01339801EA0038400396000016000000
B1409215535685N01339858EA0038400394000016000000
B1409255535643N01339969EA0037300380000020000000
B1409295535643N01340099EA0036600378000020000000
B1409335535681N01340181EA0036600374000020000000
B1409375535727N01340189EA0035700367000020000000
B1409415535759N01340143EA0035300362000016000000
B1409455535786N01340089EA0034800359000020000000
B1409495535810N01340031EA0034300354000052000000
B1409535535828N01339972EA0033900348000072000000
B1409575535840N01339907EA0033100338000068000000
B1410015535842N01339834EA0032300326000068000000
B1410055535841N01339757EA0031600328000072000000
B1410095535833N01339682EA0031400321000072000000
B1410135535806N01339604EA0030800317000080000000
B1410175535753N01339557EA0030500316000084000000
B1410215535684N01339570EA0030200309000088000000
B1410255535616N01339643EA0029100298000104000000
B1410295535559N01339744EA0028300295000116000000
B1410335535500N01339845EA0027800289000104000000
B1410375535443N01339951EA0027000281000096000000
B1410415535382N01340053EA0026400273000092000000
B1410455535322N01340159EA0025700267000084000000
B1410495535264N01340271EA0025100269000084000000
B1410535535207N01340375EA0025900279000100000000
B1410575535151N01340471EA0026900286000104000000
B1411015535096N01340567EA0027300285000092000000
B1411055535041N01340670EA0026300274000088000000
B1411095534986N01340774EA0025400268000088000000
B1411135534932N01340884EA0025300265000096000000
B1411175534904N01341015EA0025500270000108000000
B1411215534906N01341155EA0025400263000112000000
B1411255534932N01341282EA0024500255000124000000
B1411295534975N01341379EA0024300254000128000000
B1411335535022N01341463EA0023800248000120000000
B1411375535073N01341538EA0023200240000108000000
B1411415535127N01341599EA0022400232000108000000
B1411455535183N01341639EA0022000228000104000000
B1411495535240N01341660EA0021600222000116000000
B1411535535287N01341633EA0021100217000132000000
B1411575535322N01341580EA0020400204000152000000
B1412015535357N01341521EA0018800187000148000000
B1412055535391N01341460EA0017200175000148000000
B1412095535421N01341395EA0015800158000160000000
B1412135535450N01341327EA0013900140000156000000
B1412175535480N01341265EA0012300125000140000000
B1412215535511N01341200EA0010700109000128000000
B1412255535542N01341134EA0009400095000120000000
B1412295535574N01341062EA0007900083000128000000
B1412335535608N01340993EA0007000068000132000000
B1412375535639N01340918EA0005000053000120000000
B1412415535673N01340848EA0003900041000120000000
B1412455535703N01340784EA0003200038000248000000
B1412495535723N01340737EA0003200038000432000000
B1412535535733N01340700EA0003300038000444000000
B1412575535736N01340671EA0003300037000392000000
B1413015535734N01340655EA0003300037000324000000
B1413055535733N01340654EA0003400037000252000000
B1413095535733N01340654EA0003400037000168000000
B1413135535733N01340654EA0003400037000132000000
B1413175535733N01340654EA0003500037000084000000
B1413215535733N01340655EA0003400037000056000000
B1413255535733N01340655EA0003400038000040000000
G000300000027A3F4CD0000000000000000000000000000000000000000000000
GAFA03247823A41D1672E48C4623A58431AA95404000000003524895C74DC135C
G81A6F01C72476B9D60A5C2A891DB7B0957CA134B0000000000000000D4DC5126
