ACAM3X6
HFDTE060606
HFFXA050
HFPLTPILOT:Peter Cutting           
HFGTYGLIDERTYPE:LS8-b       
HFGIDGLIDERID:SE-USP      
HFDTM100GPSDATUM:
HFRFWFIRMWAREVERSION:F2.6
HFRHWHARDWAREVERSION:300 Series Version 2
HFFTYFRTYPE:CAMBRIDGE AERO INSTRUMENTS, 302+
HFGPS:GARMIN,LVS-25,12,18000
HFPRSPRESSALTSENSOR:INTERSEMA, MS5534-AP, 20000
I033638FXA3941ENL4247REX
LCAMSBVER:5FWVER:F26300
C040606100914040606000101
C0000000N00000000WTAKEOFF     
C5535817N01340567ESovde flp   
C5657250N01355583EFeringe flp 
C5535817N01340567ESovde flp   
C0000000N00000000WLANDING     
B1015565535650N01340893EA-005100038000048000000
B1015585535650N01340893EA-005100038000044000000
B1016005535650N01340893EA-005100038000040000000
B1016025535650N01340893EA-005100038000036000000
B1016045535650N01340893EA-005100038000028000000
B1016065535650N01340893EA-005100037000024000000
B1016085535650N01340893EA-005200037000024000000
B1016105535650N01340893EA-005200037000020000000
B1016125535650N01340893EA-005100037000024000000
B1016145535650N01340893EA-005100037000020000000
B1016165535650N01340892EA-005100037000016000000
B1016185535651N01340891EA-005100037000016000000
B1016205535652N01340888EA-005200037000020000000
B1016225535655N01340883EA-005200036000048000000
B1016245535659N01340875EA-005200036000076000000
B1016275535665N01340861EA-005200036000096000000
B1016315535678N01340832EA-005200036000240000000
B1016355535695N01340797EA-005200036000296000000
B1016395535715N01340753EA-005300036000388000000
B1016435535740N01340701EA-005300037000508000000
B1016475535768N01340640EA-005400036000532000000
B1016515535801N01340570EA-005400036000464000000
B1016555535838N01340489EA-005300038000324000000
B1016595535881N01340398EA-005200039000260000000
B1017035535929N01340299EA-005000041000208000000
B1017075535977N01340199EA-004400051000184000000
B1017115536026N01340100EA-003300062000184000000
B1017155536074N01340003EA-002200072000172000000
B1017195536123N01339907EA-001200082000176000000
B1017235536170N01339812EA0000000095000172000000
B1017275536215N01339721EA0001300109000156000000
B1017315536260N01339637EA0002300122000148000000
B1017355536304N01339554EA0003400133000148000000
B1017395536348N01339476EA0004600144000136000000
B1017435536391N01339398EA0005600151000128000000
B1017475536436N01339319EA0006000151000136000000
B1017515536483N01339238EA0006200157000104000000
B1017555536535N01339164EA0006900167000076000000
B1017595536587N01339093EA0008200177000060000000
B1018035536639N01339025EA0008900186000048000000
B1018075536691N01338961EA0009900195000040000000
B1018115536744N01338902EA0010500201000036000000
B1018155536796N01338843EA0011200209000032000000
B1018195536850N01338789EA0012000215000032000000
B1018235536906N01338751EA0012400218000028000000
B1018275536967N01338748EA0012600220000028000000
B1018315537023N01338792EA0012800224000032000000
B1018355537066N01338872EA0013500232000032000000
B1018395537095N01338967EA0014300238000032000000
B1018435537127N01339062EA0014800246000032000000
B1018475537160N01339150EA0015600253000028000000
B1018515537193N01339240EA0016200261000028000000
B1018555537224N01339325EA0016900270000036000000
B1018595537254N01339411EA0018100279000036000000
B1019035537284N01339497EA0018600283000036000000
B1019075537315N01339583EA0019200288000032000000
B1019115537345N01339673EA0019800294000032000000
B1019155537376N01339762EA0020300302000036000000
B1019195537407N01339849EA0021200309000032000000
B1019235537440N01339938EA0021800314000032000000
B1019275537471N01340027EA0022300321000044000000
B1019315537504N01340116EA0023200329000048000000
B1019355537536N01340203EA0024100339000044000000
B1019395537582N01340268EA0025000345000044000000
B1019435537640N01340295EA0025500350000036000000
B1019475537701N01340304EA0026000355000032000000
B1019515537761N01340316EA0026500363000032000000
B1019555537821N01340324EA0027200367000028000000
B1019595537881N01340326EA0027800375000028000000
B1020035537940N01340333EA0028500381000028000000
B1020075538000N01340347EA0028900385000028000000
B1020115538056N01340376EA0029200389000028000000
B1020155538109N01340419EA0029800394000028000000
B1020195538161N01340469EA0030100396000028000000
B1020235538213N01340529EA0030300397000028000000
B1020275538264N01340589EA0030800403000028000000
B1020315538315N01340650EA0031400410000028000000
B1020355538364N01340715EA0031900414000028000000
B1020395538411N01340780EA0032700422000028000000
B1020435538458N01340845EA0033200428000028000000
B1020475538503N01340914EA0033600432000028000000
B1020515538548N01340988EA0034200437000032000000
B1020555538593N01341065EA0034600440000032000000
B1020595538637N01341148EA0034900446000032000000
B1021035538684N01341233EA0035800452000028000000
B1021075538731N01341314EA0036300460000028000000
B1021115538778N01341392EA0037100467000028000000
B1021155538823N01341469EA0038000475000028000000
B1021195538870N01341546EA0038500480000028000000
B1021235538918N01341623EA0038900485000028000000
B1021275538969N01341690EA0039700494000028000000
B1021315539021N01341750EA0040400501000028000000
B1021355539074N01341810EA0041100507000028000000
B1021395539125N01341871EA0041700513000028000000
B1021435539175N01341933EA0042400519000028000000
B1021475539226N01341997EA0042900523000028000000
B1021515539279N01342059EA0043400529000028000000
B1021555539334N01342117EA0044000536000028000000
B1021595539390N01342170EA0045100549000028000000
B1022035539447N01342217EA0046000559000028000000
B1022075539506N01342260EA0047200570000028000000
B1022115539564N01342296EA0048400581000032000000
B1022155539617N01342276EA0048900582000028000000
B1022195539668N01342239EA0048300572000024000000
B1022235539725N01342247EA0047700569000020000000
B1022275539777N01342295EA0047300564000020000000
B1022315539828N01342357EA0046400553000020000000
B1022355539881N01342426EA0045300546000020000000
B1022395539932N01342497EA0045000545000020000000
B1022435539983N01342566EA0044900543000024000000
B1022475540031N01342635EA0044500538000032000000
B1022515540080N01342705EA0043900517000036000000
B1022555540145N01342787EA0040200464000052000000
B1022595540221N01342878EA0036100469000392000000
B1023035540269N01342938EA0040200524000556000000
B1023075540308N01342994EA0043500528000632000000
B1023115540342N01343073EA0043400531000736000000
B1023155540355N01343173EA0044100537000748000000
B1023195540338N01343280EA0044500543000792000000
B1023235540293N01343361EA0045500556000828000000
B1023275540236N01343394EA0047000567000784000000
B1023315540173N01343383EA0047400568000820000000
B1023355540121N01343318EA0047900580000860000000
B1023395540092N01343229EA0048900590000832000000
B1023435540091N01343133EA0049800596000780000000
B1023475540115N01343055EA0050500601000736000000
B1023515540161N01343014EA0051000605000748000000
B1023555540209N01343029EA0051500613000716000000
B1023595540245N01343101EA0051900613000756000000
B1024035540257N01343205EA0052200620000768000000
B1024075540248N01343311EA0053100630000796000000
B1024115540222N01343410EA0054300642000796000000
B1024155540173N01343476EA0055200649000848000000
B1024195540111N01343465EA0055700652000868000000
B1024235540076N01343378EA0055900658000980000000
B1024275540087N01343281EA0057000670000932000000
B1024315540127N01343223EA0057900678000908000000
B1024355540179N01343219EA0058700684000864000000
B1024395540221N01343280EA0059200688000912000000
B1024435540236N01343380EA0059900700000864000000
B1024475540238N01343484EA0061100710000836000000
B1024515540228N01343587EA0061900718000812000000
B1024555540209N01343684EA0062600725000792000000
B1024595540179N01343777EA0063400734000792000000
B1025035540143N01343860EA0064400744000756000000
B1025075540105N01343937EA0065400749000724000000
B1025115540062N01344009EA0065900755000720000000
B1025155540014N01344074EA0066800764000688000000
B1025195539965N01344137EA0067400771000688000000
B1025235539914N01344197EA0068100776000700000000
B1025275539863N01344259EA0068600781000720000000
B1025315539812N01344312EA0069100789000644000000
B1025355539766N01344356EA0069600787000412000000
B1025395539715N01344397EA0069100781000264000000
B1025435539658N01344399EA0068700776000184000000
B1025475539612N01344337EA0068000771000124000000
B1025515539598N01344239EA0067600768000092000000
B1025555539602N01344137EA0067100762000064000000
B1025595539582N01344034EA0066400758000048000000
B1026035539532N01343974EA0066400759000036000000
B1026075539468N01343953EA0066100748000032000000
B1026115539396N01343948EA0064700737000032000000
B1026155539331N01343974EA0064900752000032000000
B1026195539315N01344067EA0066200758000032000000
B1026235539343N01344148EA0066100755000028000000
B1026275539395N01344174EA0065900753000024000000
B1026315539446N01344139EA0065400747000028000000
B1026355539472N01344047EA0064500732000028000000
B1026395539450N01343929EA0062300720000032000000
B1026435539394N01343855EA0062900725000028000000
B1026475539330N01343813EA0062900728000028000000
B1026515539270N01343777EA0063300729000028000000
B1026555539209N01343740EA0063300727000028000000
B1026595539146N01343703EA0062800719000028000000
B1027035539077N01343662EA0061300700000028000000
B1027075538999N01343621EA0059700691000028000000
B1027115538918N01343580EA0059000688000028000000
B1027155538836N01343541EA0058600681000028000000
B1027195538754N01343505EA0058200677000028000000
B1027235538671N01343462EA0057100664000032000000
B1027275538588N01343419EA0056300656000032000000
B1027315538505N01343374EA0055500649000028000000
B1027355538421N01343328EA0054900643000028000000
B1027395538338N01343283EA0054300639000028000000
B1027435538258N01343238EA0054100643000028000000
B1027475538185N01343197EA0055100650000028000000
B1027515538112N01343155EA0054700639000028000000
B1027555538037N01343111EA0053800631000028000000
B1027595537961N01343066EA0053000626000028000000
B1028035537885N01343019EA0052600620000028000000
B1028075537808N01342972EA0052000616000028000000
B1028115537732N01342926EA0052200625000028000000
B1028155537658N01342903EA0053200623000028000000
B1028195537578N01342897EA0052100616000032000000
B1028235537498N01342895EA0052300620000028000000
B1028275537423N01342908EA0052400617000028000000
B1028315537348N01342930EA0051200599000028000000
B1028355537264N01342946EA0049900596000028000000
B1028395537184N01342956EA0050100599000028000000
B1028435537103N01342960EA0050000596000028000000
B1028475537023N01342964EA0049700592000028000000
B1028515536945N01342964EA0049400592000028000000
B1028555536869N01342960EA0049000586000028000000
B1028595536791N01342955EA0048100570000028000000
B1029035536709N01342949EA0046100551000032000000
B1029075536624N01342937EA0044800550000032000000
B1029115536557N01342964EA0047100580000032000000
B1029155536538N01343053EA0048400580000032000000
B1029195536572N01343123EA0048100578000028000000
B1029235536625N01343119EA0048100576000028000000
B1029275536669N01343047EA0047700570000028000000
B1029315536699N01342949EA0047200569000028000000
B1029355536707N01342838EA0047100564000028000000
B1029395536696N01342728EA0046200555000028000000
B1029435536663N01342626EA0044700532000028000000
B1029475536599N01342560EA0042500516000028000000
B1029515536522N01342531EA0041100500000028000000
B1029555536442N01342509EA0039500490000032000000
B1029595536362N01342492EA0039100485000032000000
B1030035536282N01342478EA0038000463000032000000
B1030075536191N01342464EA0035600449000032000000
B1030115536102N01342456EA0035400458000036000000
B1030155536023N01342464EA0036600463000040000000
B1030195535951N01342503EA0036600459000044000000
B1030235535893N01342578EA0036000441000044000000
B1030275535841N01342695EA0031800389000088000000
B1030315535810N01342830EA0031200429000520000000
B1030355535789N01342943EA0034400443000580000000
B1030395535771N01343054EA0035200451000644000000
B1030435535756N01343159EA0036300460000668000000
B1030475535743N01343262EA0037100468000676000000
B1030515535732N01343363EA0037700473000680000000
B1030555535720N01343465EA0038100476000680000000
B1030595535714N01343563EA0038400480000680000000
B1031035535707N01343662EA0038600483000672000000
B1031075535702N01343760EA0039000486000668000000
B1031115535697N01343859EA0039300491000668000000
B1031155535693N01343956EA0039900497000656000000
B1031195535689N01344052EA0040600502000656000000
B1031235535686N01344148EA0041100507000660000000
B1031275535681N01344245EA0041500512000656000000
B1031315535675N01344343EA0041600509000660000000
B1031355535668N01344446EA0041500509000660000000
B1031395535662N01344549EA0041500510000656000000
B1031435535655N01344652EA0041600511000656000000
B1031475535649N01344754EA0041700514000660000000
B1031515535642N01344853EA0042200518000660000000
B1031555535637N01344949EA0042500523000672000000
B1031595535633N01345040EA0043300534000676000000
B1032035535626N01345127EA0044000536000648000000
B1032075535620N01345217EA0044200536000632000000
B1032115535612N01345311EA0044200538000624000000
B1032155535603N01345407EA0044800548000652000000
B1032195535595N01345499EA0045700556000652000000
B1032235535589N01345590EA0046400564000644000000
B1032275535593N01345676EA0047500571000620000000
B1032315535632N01345731EA0047400563000636000000
B1032355535682N01345714EA0046800564000668000000
B1032395535706N01345630EA0046900560000632000000
B1032435535689N01345533EA0046200555000636000000
B1032475535638N01345478EA0046000555000660000000
B1032515535582N01345490EA0046200559000652000000
B1032555535539N01345550EA0046900565000648000000
B1032595535502N01345623EA0047300572000644000000
B1033035535467N01345701EA0048000577000660000000
B1033075535437N01345781EA0048300578000640000000
B1033115535409N01345863EA0048200574000624000000
B1033155535383N01345954EA0047800570000624000000
B1033195535359N01346053EA0047200563000664000000
B1033235535335N01346153EA0047000566000672000000
B1033275535313N01346248EA0047300568000644000000
B1033315535292N01346343EA0047100563000624000000
B1033355535273N01346440EA0046500557000636000000
B1033395535253N01346538EA0046400562000628000000
B1033435535235N01346631EA0047000566000612000000
B1033475535217N01346726EA0047100566000604000000
B1033515535199N01346821EA0047200569000612000000
B1033555535179N01346912EA0047600571000604000000
B1033595535161N01347002EA0047700571000600000000
B1034035535143N01347093EA0047600568000596000000
B1034075535125N01347187EA0047200567000588000000
B1034115535105N01347279EA0047400570000600000000
B1034155535110N01347372EA0047800572000652000000
B1034195535156N01347422EA0048000576000712000000
B1034235535205N01347391EA0048600584000684000000
B1034275535226N01347309EA0049000583000656000000
B1034315535204N01347218EA0048600581000704000000
B1034355535158N01347166EA0049000586000676000000
B1034395535103N01347149EA0049000582000640000000
B1034435535044N01347166EA0048600582000656000000
B1034475534992N01347215EA0049000591000704000000
B1034515534943N01347266EA0049900599000660000000
B1034555534895N01347320EA0050700606000644000000
B1034595534848N01347380EA0051700618000632000000
B1035035534802N01347443EA0052900629000656000000
B1035075534759N01347508EA0054000639000664000000
B1035115534714N01347566EA0055000648000672000000
B1035155534658N01347579EA0055700657000672000000
B1035195534611N01347528EA0056500663000688000000
B1035235534589N01347436EA0057000670000764000000
B1035275534602N01347341EA0058000681000752000000
B1035315534644N01347274EA0058800685000736000000
B1035355534701N01347252EA0059200691000736000000
B1035395534755N01347283EA0059800696000780000000
B1035435534794N01347353EA0060300705000760000000
B1035475534819N01347441EA0061300714000776000000
B1035515534828N01347541EA0062200722000748000000
B1035555534824N01347647EA0063100732000760000000
B1035595534813N01347751EA0064500747000724000000
B1036035534797N01347853EA0065900759000708000000
B1036075534766N01347943EA0066700764000724000000
B1036115534711N01347990EA0066800762000772000000
B1036155534648N01347978EA0066700762000836000000
B1036195534584N01347976EA0067400770000820000000
B1036235534523N01348020EA0067900774000756000000
B1036275534472N01348100EA0067900774000748000000
B1036315534430N01348194EA0068200782000788000000
B1036355534394N01348292EA0069000789000804000000
B1036395534358N01348386EA0069900800000820000000
B1036435534326N01348477EA0071000807000792000000
B1036475534326N01348571EA0071000800000664000000
B1036515534367N01348619EA0070000787000424000000
B1036555534415N01348592EA0069300784000272000000
B1036595534450N01348527EA0068600774000192000000
B1037035534451N01348425EA0067500767000128000000
B1037075534417N01348333EA0067300771000096000000
B1037115534364N01348275EA0067700767000072000000
B1037155534297N01348266EA0066800757000052000000
B1037195534224N01348281EA0065700747000044000000
B1037235534143N01348295EA0064200734000040000000
B1037275534060N01348311EA0063400733000032000000
B1037315533977N01348327EA0063200726000032000000
B1037355533890N01348344EA0062500721000028000000
B1037395533804N01348359EA0062100721000032000000
B1037435533739N01348407EA0063800755000032000000
B1037475533740N01348494EA0066700751000028000000
B1037515533792N01348511EA0065100742000028000000
B1037555533830N01348445EA0065300744000028000000
B1037595533843N01348344EA0064800738000028000000
B1038035533832N01348230EA0063900726000028000000
B1038075533792N01348126EA0062700716000028000000
B1038115533722N01348068EA0061600707000028000000
B1038155533645N01348050EA0061800721000028000000
B1038195533596N01347978EA0063100721000028000000
B1038235533611N01347870EA0062500720000028000000
B1038275533665N01347847EA0062900723000028000000
B1038315533702N01347911EA0063000724000028000000
B1038355533693N01348004EA0063200726000028000000
B1038395533645N01348071EA0063000719000028000000
B1038435533582N01348110EA0062200709000024000000
B1038475533515N01348155EA0061200701000024000000
B1038515533442N01348207EA0059900687000024000000
B1038555533363N01348255EA0058800684000024000000
B1038595533289N01348276EA0059700692000024000000
B1039035533214N01348295EA0059300686000024000000
B1039075533136N01348324EA0058600671000020000000
B1039115533055N01348350EA0057000656000024000000
B1039155532973N01348379EA0056100656000020000000
B1039195532898N01348407EA0056300647000016000000
B1039235532816N01348428EA0054900639000020000000
B1039275532737N01348442EA0054800642000020000000
B1039315532659N01348454EA0054800646000020000000
B1039355532587N01348464EA0056000657000016000000
B1039395532529N01348513EA0056900662000016000000
B1039435532518N01348619EA0056500648000016000000
B1039475532565N01348696EA0055500645000016000000
B1039515532627N01348709EA0055300640000016000000
B1039555532686N01348663EA0054700637000016000000
B1039595532731N01348578EA0054200632000016000000
B1040035532774N01348483EA0053600625000020000000
B1040075532799N01348377EA0054200636000020000000
B1040115532800N01348262EA0054200628000020000000
B1040155532805N01348139EA0053200624000020000000
B1040195532818N01348021EA0053200624000024000000
B1040235532826N01347902EA0052900619000028000000
B1040275532831N01347774EA0052200604000032000000
B1040315532831N01347632EA0049500574000044000000
B1040355532833N01347480EA0047200578000300000000
B1040395532831N01347379EA0051300620000608000000
B1040435532828N01347283EA0052700616000704000000
B1040475532824N01347172EA0052200614000728000000
B1040515532818N01347062EA0052700621000724000000
B1040555532812N01346953EA0053200624000704000000
B1040595532804N01346843EA0053300625000724000000
B1041035532799N01346734EA0053900632000716000000
B1041075532792N01346624EA0054000632000728000000
B1041115532785N01346511EA0054000630000756000000
B1041155532776N01346394EA0053800629000772000000
B1041195532765N01346275EA0053900628000832000000
B1041235532756N01346156EA0054000632000888000000
B1041275532744N01346040EA0054500638000880000000
B1041315532734N01345932EA0055300648000812000000
B1041355532724N01345828EA0056000654000760000000
B1041395532713N01345723EA0056600658000740000000
B1041435532703N01345615EA0057100664000712000000
B1041475532695N01345503EA0057100662000748000000
B1041515532691N01345387EA0057100664000760000000
B1041555532687N01345270EA0057400669000772000000
B1041595532685N01345153EA0057800673000776000000
B1042035532686N01345035EA0058200675000748000000
B1042075532691N01344913EA0058200675000752000000
B1042115532698N01344791EA0058300677000812000000
B1042155532705N01344670EA0058700682000816000000
B1042195532716N01344548EA0059200684000824000000
B1042235532726N01344424EA0059400690000924000000
B1042275532738N01344306EA0060200702000920000000
B1042315532750N01344190EA0061400710000848000000
B1042355532761N01344076EA0061900714000868000000
B1042395532770N01343963EA0062500722000880000000
B1042435532779N01343856EA0063700733000796000000
B1042475532787N01343751EA0064600739000736000000
B1042515532795N01343644EA0064600736000724000000
B1042555532802N01343540EA0064600737000720000000
B1042595532809N01343439EA0064500734000720000000
B1043035532818N01343332EA0064300734000676000000
B1043075532828N01343223EA0063900728000668000000
B1043115532837N01343111EA0063600731000700000000
B1043155532844N01343002EA0064200734000676000000
B1043195532854N01342889EA0064400737000684000000
B1043235532865N01342776EA0064900742000704000000
B1043275532878N01342665EA0065500749000696000000
B1043315532893N01342556EA0066100752000684000000
B1043355532906N01342448EA0066500757000704000000
B1043395532922N01342341EA0066800761000712000000
B1043435532945N01342240EA0067300765000700000000
B1043475532972N01342141EA0067500765000708000000
B1043515533003N01342042EA0067600770000732000000
B1043555533034N01341946EA0068100773000768000000
B1043595533064N01341853EA0068600782000760000000
B1044035533093N01341763EA0069600791000708000000
B1044075533120N01341676EA0070300796000684000000
B1044115533150N01341590EA0070800800000664000000
B1044155533179N01341504EA0071500807000600000000
B1044195533206N01341422EA0071800808000492000000
B1044235533231N01341342EA0071800807000312000000
B1044275533259N01341262EA0071500803000220000000
B1044315533298N01341197EA0071400800000152000000
B1044355533351N01341200EA0070700792000100000000
B1044395533390N01341272EA0069900786000076000000
B1044435533419N01341363EA0069700785000056000000
B1044475533449N01341452EA0069200779000048000000
B1044515533483N01341546EA0068200767000036000000
B1044555533519N01341642EA0067100760000032000000
B1044595533563N01341728EA0066900760000028000000
B1045035533606N01341808EA0066800758000028000000
B1045075533653N01341886EA0066500751000028000000
B1045115533704N01341958EA0065800748000028000000
B1045155533756N01342024EA0065600743000024000000
B1045195533812N01342085EA0065000736000024000000
B1045235533873N01342132EA0064200727000024000000
B1045275533943N01342161EA0063000718000024000000
B1045315534014N01342172EA0062400713000024000000
B1045355534086N01342176EA0061800709000028000000
B1045395534155N01342175EA0061400704000028000000
B1045435534222N01342171EA0061000699000028000000
B1045475534291N01342167EA0060100684000028000000
B1045515534363N01342166EA0058800678000028000000
B1045555534433N01342163EA0057800660000028000000
B1045595534511N01342159EA0055300636000028000000
B1046035534592N01342159EA0053700625000028000000
B1046075534674N01342161EA0052700614000028000000
B1046115534754N01342158EA0052000612000028000000
B1046155534835N01342158EA0051900621000028000000
B1046195534897N01342157EA0054200641000028000000
B1046235534958N01342136EA0054200619000028000000
B1046275535021N01342078EA0052500613000028000000
B1046315535075N01342002EA0051800607000028000000
B1046355535113N01341906EA0051300607000028000000
B1046395535114N01341806EA0052500620000028000000
B1046435535069N01341746EA0053300624000028000000
B1046475535009N01341771EA0053900629000024000000
B1046515534979N01341864EA0054000628000024000000
B1046555534999N01341961EA0053900626000024000000
B1046595535048N01341997EA0053700623000024000000
B1047035535103N01341984EA0053000610000028000000
B1047075535161N01341961EA0051600605000028000000
B1047115535217N01341927EA0051100595000028000000
B1047155535277N01341872EA0049500580000028000000
B1047195535331N01341808EA0049700594000028000000
B1047235535363N01341720EA0050700594000028000000
B1047275535403N01341649EA0051100604000028000000
B1047315535455N01341656EA0051800610000028000000
B1047355535478N01341745EA0052300612000024000000
B1047395535450N01341833EA0052600619000024000000
B1047435535394N01341851EA0053400621000024000000
B1047475535350N01341790EA0053300621000024000000
B1047515535347N01341703EA0053800629000024000000
B1047555535379N01341645EA0054000625000024000000
B1047595535431N01341652EA0053900628000024000000
B1048035535469N01341716EA0054500636000024000000
B1048075535477N01341811EA0055000638000024000000
B1048115535448N01341898EA0055400641000024000000
B1048155535394N01341932EA0055600641000024000000
B1048195535343N01341892EA0055400637000024000000
B1048235535326N01341806EA0055300640000024000000
B1048275535346N01341728EA0055700645000024000000
B1048315535389N01341686EA0056000650000024000000
B1048355535439N01341699EA0056500653000024000000
B1048395535480N01341764EA0056700655000024000000
B1048435535490N01341862EA0057000661000020000000
B1048475535469N01341953EA0057600664000016000000
B1048515535418N01342005EA0057500660000016000000
B1048555535364N01341990EA0057500661000016000000
B1048595535327N01341925EA0057200657000016000000
B1049035535318N01341841EA0057100660000016000000
B1049075535343N01341772EA0057500659000016000000
B1049115535389N01341743EA0057500661000016000000
B1049155535439N01341766EA0057800662000012000000
B1049195535478N01341833EA0058100667000012000000
B1049235535496N01341927EA0058600675000012000000
B1049275535487N01342023EA0059100676000012000000
B1049315535447N01342093EA0058900669000016000000
B1049355535389N01342100EA0057900664000016000000
B1049395535340N01342057EA0057700662000016000000
B1049435535312N01341980EA0057200661000016000000
B1049475535312N01341897EA0057800667000016000000
B1049515535334N01341825EA0058000666000016000000
B1049555535377N01341777EA0057900668000012000000
B1049595535430N01341784EA0058100668000012000000
B1050035535461N01341871EA0058100669000012000000
B1050075535433N01341967EA0058300673000016000000
B1050115535376N01341983EA0058800676000016000000
B1050155535337N01341920EA0058600672000016000000
B1050195535347N01341829EA0058600676000016000000
B1050235535385N01341767EA0059100679000016000000
B1050275535438N01341776EA0059100680000016000000
B1050315535467N01341866EA0059500686000012000000
B1050355535443N01341964EA0059800686000012000000
B1050395535389N01342006EA0059700686000012000000
B1050435535335N01341974EA0059700685000012000000
B1050475535312N01341890EA0059800691000012000000
B1050515535326N01341808EA0060400696000016000000
B1050555535368N01341751EA0060700696000016000000
B1050595535421N01341759EA0061000703000016000000
B1051035535456N01341832EA0061500707000012000000
B1051075535452N01341936EA0061400705000012000000
B1051115535407N01342003EA0061400705000016000000
B1051155535352N01341996EA0061400706000016000000
B1051195535317N01341935EA0061400702000016000000
B1051235535307N01341850EA0061300706000016000000
B1051275535313N01341767EA0061400703000016000000
B1051315535339N01341691EA0060900701000016000000
B1051355535379N01341637EA0061000702000016000000
B1051395535428N01341602EA0061100703000012000000
B1051435535480N01341585EA0061300709000012000000
B1051475535530N01341610EA0061700712000012000000
B1051515535552N01341698EA0061900712000012000000
B1051555535524N01341794EA0061800713000012000000
B1051595535464N01341815EA0062200718000012000000
B1052035535422N01341756EA0062600720000012000000
B1052075535417N01341669EA0062600718000012000000
B1052115535446N01341602EA0062600720000012000000
B1052155535491N01341576EA0062800719000016000000
B1052195535543N01341554EA0062000710000016000000
B1052235535590N01341493EA0061700712000016000000
B1052275535626N01341413EA0062600723000016000000
B1052315535632N01341318EA0063700732000016000000
B1052355535589N01341253EA0064300737000012000000
B1052395535532N01341279EA0064800741000012000000
B1052435535507N01341374EA0065100740000012000000
B1052475535533N01341461EA0065100742000012000000
B1052515535585N01341470EA0065400745000012000000
B1052555535634N01341441EA0065600749000012000000
B1052595535669N01341369EA0066300754000016000000
B1053035535646N01341285EA0066800761000016000000
B1053075535587N01341292EA0067200764000016000000
B1053115535559N01341385EA0067500767000016000000
B1053155535585N01341469EA0067900770000016000000
B1053195535632N01341512EA0068200776000016000000
B1053235535682N01341500EA0068700780000016000000
B1053275535701N01341416EA0069000783000016000000
B1053315535665N01341342EA0069600789000016000000
B1053355535607N01341350EA0070100790000016000000
B1053395535573N01341439EA0070100791000016000000
B1053435535584N01341538EA0070400796000016000000
B1053475535625N01341589EA0070800803000012000000
B1053515535672N01341568EA0071500808000012000000
B1053555535697N01341494EA0071800810000012000000
B1053595535685N01341400EA0072000813000012000000
B1054035535636N01341346EA0072600822000008000000
B1054075535578N01341365EA0073300827000012000000
B1054115535538N01341444EA0073300827000012000000
B1054155535534N01341546EA0073400829000012000000
B1054195535567N01341624EA0073500830000012000000
B1054235535616N01341639EA0073900835000012000000
B1054275535663N01341611EA0074300840000012000000
B1054315535697N01341547EA0074700839000012000000
B1054355535685N01341455EA0074400838000012000000
B1054395535626N01341424EA0074500842000012000000
B1054435535572N01341483EA0075100845000012000000
B1054475535554N01341591EA0075200846000012000000
B1054515535576N01341684EA0075600851000012000000
B1054555535620N01341717EA0075900851000012000000
B1054595535665N01341682EA0075800851000012000000
B1055035535686N01341603EA0075900852000012000000
B1055075535690N01341509EA0076100855000012000000
B1055115535664N01341420EA0076300855000012000000
B1055155535602N01341411EA0076600862000012000000
B1055195535568N01341500EA0077500871000012000000
B1055235535586N01341591EA0077700869000012000000
B1055275535630N01341639EA0077500869000012000000
B1055315535678N01341626EA0077500869000012000000
B1055355535704N01341552EA0077500868000012000000
B1055395535691N01341461EA0077700871000012000000
B1055435535643N01341402EA0077900873000012000000
B1055475535582N01341415EA0078100873000012000000
B1055515535539N01341499EA0078200874000012000000
B1055555535538N01341603EA0078400875000012000000
B1055595535572N01341672EA0078300873000012000000
B1056035535620N01341684EA0078000869000016000000
B1056075535662N01341634EA0077700866000016000000
B1056115535668N01341542EA0077700869000016000000
B1056155535629N01341467EA0077900873000012000000
B1056195535568N01341473EA0078400871000016000000
B1056235535525N01341556EA0078100870000016000000
B1056275535528N01341658EA0078200872000016000000
B1056315535568N01341711EA0078000867000016000000
B1056355535615N01341691EA0077500861000016000000
B1056395535650N01341621EA0077000856000016000000
B1056435535682N01341548EA0076800857000016000000
B1056475535724N01341490EA0076900859000012000000
B1056515535773N01341454EA0077000859000012000000
B1056555535829N01341465EA0077000859000016000000
B1056595535880N01341521EA0077100860000012000000
B1057035535925N01341595EA0077100861000012000000
B1057075535964N01341685EA0077200863000012000000
B1057115535983N01341792EA0077800870000012000000
B1057155535968N01341898EA0078200876000012000000
B1057195535922N01341968EA0078700879000012000000
B1057235535862N01341975EA0078700876000012000000
B1057275535812N01341919EA0078600878000012000000
B1057315535779N01341840EA0078900878000012000000
B1057355535772N01341745EA0078800875000012000000
B1057395535795N01341656EA0078400872000016000000
B1057435535837N01341598EA0078700880000012000000
B1057475535889N01341607EA0078700875000016000000
B1057515535914N01341701EA0078800880000016000000
B1057555535889N01341803EA0079200882000016000000
B1057595535836N01341863EA0079500884000016000000
B1058035535775N01341870EA0079900890000016000000
B1058075535729N01341814EA0080200884000016000000
B1058115535733N01341715EA0078500868000020000000
B1058155535780N01341671EA0078200877000016000000
B1058195535825N01341706EA0079000878000016000000
B1058235535858N01341782EA0078900878000012000000
B1058275535876N01341881EA0078900875000012000000
B1058315535899N01341985EA0078200868000012000000
B1058355535937N01342083EA0077500862000016000000
B1058395535985N01342178EA0076600852000016000000
B1058435536041N01342271EA0075800843000016000000
B1058475536104N01342364EA0075000840000016000000
B1058515536166N01342451EA0075000840000016000000
B1058555536228N01342534EA0075100838000016000000
B1058595536293N01342614EA0074600834000016000000
B1059035536357N01342691EA0074600834000016000000
B1059075536419N01342770EA0074400831000016000000
B1059115536481N01342852EA0074300829000016000000
B1059155536540N01342937EA0073900828000016000000
B1059195536599N01343020EA0073600824000012000000
B1059235536659N01343107EA0073200819000016000000
B1059275536720N01343190EA0072500812000016000000
B1059315536782N01343263EA0072500815000016000000
B1059355536842N01343331EA0072700819000016000000
B1059395536898N01343388EA0073300820000012000000
B1059435536958N01343431EA0073100817000012000000
B1059475537023N01343456EA0072100796000016000000
B1059515537095N01343452EA0070500800000016000000
B1059555537158N01343428EA0071700804000012000000
B1059595537219N01343397EA0071400802000012000000
B1100035537277N01343366EA0071300800000012000000
B1100075537339N01343337EA0070800791000012000000
B1100115537401N01343305EA0069800783000012000000
B1100155537469N01343276EA0069100778000012000000
B1100195537536N01343248EA0068700775000012000000
B1100235537604N01343212EA0068400774000012000000
B1100275537670N01343176EA0068300773000012000000
B1100315537725N01343107EA0068300770000012000000
B1100355537761N01343004EA0067400755000012000000
B1100395537779N01342878EA0066100747000016000000
B1100435537794N01342751EA0065500745000012000000
B1100475537807N01342626EA0065700755000016000000
B1100515537810N01342510EA0067400767000016000000
B1100555537778N01342429EA0069600786000024000000
B1100595537723N01342465EA0070200786000028000000
B1101035537722N01342564EA0070300785000036000000
B1101075537765N01342618EA0070000783000028000000
B1101115537818N01342618EA0070000791000024000000
B1101155537860N01342556EA0070700794000020000000
B1101195537877N01342460EA0071200802000016000000
B1101235537853N01342370EA0071500802000020000000
B1101275537794N01342354EA0071600809000020000000
B1101315537753N01342429EA0072900821000016000000
B1101355537771N01342526EA0073400824000016000000
B1101395537826N01342531EA0074400839000016000000
B1101435537856N01342447EA0075300844000016000000
B1101475537831N01342356EA0076100856000016000000
B1101515537778N01342332EA0077200866000016000000
B1101555537732N01342403EA0078100873000016000000
B1101595537740N01342509EA0078900882000016000000
B1102035537791N01342556EA0079700889000016000000
B1102075537838N01342501EA0080900904000016000000
B1102115537835N01342403EA0081900911000016000000
B1102155537787N01342340EA0082500923000016000000
B1102195537731N01342362EA0084300941000016000000
B1102235537703N01342449EA0085800948000012000000
B1102275537725N01342540EA0085800946000016015000
B1102315537782N01342561EA0086400958000016000000
B1102355537825N01342497EA0087800970000016000000
B1102395537826N01342393EA0088800981000016000000
B1102435537781N01342325EA0090400996000012000000
B1102475537718N01342338EA0091601009000012000000
B1102515537688N01342427EA0092801021000016000000
B1102555537708N01342522EA0093501024000016015000
B1102595537764N01342539EA0093801028000012000000
B1103035537797N01342460EA0094701042000016000000
B1103075537783N01342364EA0096401059000012000000
B1103115537734N01342313EA0098101076000012000000
B1103155537677N01342332EA0099101083000012000000
B1103195537647N01342421EA0100001092000012000000
B1103235537661N01342521EA0100201089000012000000
B1103275537712N01342570EA0100401102000016000000
B1103315537768N01342552EA0101601109000012000000
B1103355537799N01342466EA0102401120000012000000
B1103395537782N01342370EA0104101139000012000000
B1103435537730N01342332EA0105901154000012000000
B1103475537679N01342379EA0107101165000012000000
B1103515537666N01342479EA0108201171000012015000
B1103555537701N01342565EA0109001182000012000000
B1103595537756N01342586EA0110601197000012000000
B1104035537805N01342546EA0111301203000012000000
B1104075537829N01342453EA0111801210000016000000
B1104115537808N01342360EA0112701220000016000000
B1104155537755N01342317EA0113501226000016000000
B1104195537700N01342360EA0114501241000012000000
B1104235537682N01342461EA0116201254000012000000
B1104275537714N01342555EA0116901258000012000000
B1104315537775N01342568EA0118001273000012000000
B1104355537823N01342507EA0119101282000016000000
B1104395537836N01342404EA0119601284000012000000
B1104435537810N01342308EA0119301277000016000000
B1104475537753N01342247EA0118701275000016000000
B1104515537687N01342258EA0119101284000016000000
B1104555537645N01342349EA0120001291000016000000
B1104595537664N01342456EA0121401311000016000000
B1105035537718N01342479EA0123701332000016000000
B1105075537757N01342412EA0125301348000016000000
B1105115537757N01342309EA0126301353000012000000
B1105155537717N01342227EA0126901359000016000000
B1105195537654N01342217EA0127401361000016000000
B1105235537600N01342288EA0127601367000016000000
B1105275537595N01342401EA0128701383000016000000
B1105315537635N01342475EA0130701403000012000000
B1105355537688N01342468EA0132601419000012000000
B1105395537714N01342382EA0134401439000012000000
B1105435537687N01342297EA0135901449000012000000
B1105475537630N01342283EA0136501452000012000000
B1105515537579N01342352EA0137301461000016000000
B1105555537558N01342458EA0138401475000016000000
B1105595537587N01342546EA0139201478000016015000
B1106035537641N01342544EA0139701491000016000000
B1106075537665N01342453EA0141301505000016000000
B1106115537630N01342367EA0143101528000016000000
B1106155537569N01342361EA0144801538000016000000
B1106195537523N01342445EA0145601548000016000000
B1106235537524N01342555EA0146801557000016000000
B1106275537566N01342622EA0147501565000016000000
B1106315537619N01342620EA0148601575000016000000
B1106355537662N01342557EA0149501592000016000000
B1106395537670N01342462EA0151401607000016000000
B1106435537640N01342370EA0152701616000016000000
B1106475537595N01342284EA0152901613000016000000
B1106515537541N01342192EA0152701613000016000000
B1106555537478N01342094EA0151101581000020000000
B1106595537393N01341984EA0146801534000024000000
B1107035537289N01341863EA0142201496000032000000
B1107075537177N01341737EA0138601466000052000000
B1107115537064N01341613EA0137101456000068000000
B1107155536958N01341504EA0136001441000068000000
B1107195536855N01341405EA0133901417000068000000
B1107235536756N01341311EA0131801400000068000000
B1107275536660N01341222EA0129801379000064000000
B1107315536562N01341140EA0127501353000064000000
B1107355536464N01341064EA0124801327000060000000
B1107395536364N01340995EA0121801299000060000000
B1107435536265N01340932EA0119201273000064000000
B1107475536166N01340872EA0117201262000056000000
B1107515536072N01340820EA0117701273000040000000
B1107555535987N01340775EA0118101273000036000000
B1107595535901N01340732EA0117901269000028000000
B1108035535816N01340690EA0117201261000024000000
B1108075535732N01340650EA0116801262000020000000
B1108115535647N01340615EA0116701259000020000000
B1108155535563N01340583EA0115901250000020000000
B1108195535477N01340544EA0115401245000016000000
B1108235535394N01340501EA0115201242000016000000
B1108275535313N01340445EA0114801239000016000000
B1108315535259N01340341EA0114701235000016000000
B1108355535233N01340213EA0114101232000020000000
B1108395535234N01340086EA0113601228000020000000
B1108435535265N01339986EA0113201224000020000000
B1108475535320N01339931EA0112401212000020000000
B1108515535387N01339940EA0111101201000020000000
B1108555535443N01340025EA0110401197000020000000
B1108595535468N01340152EA0110101190000020000000
B1109035535459N01340294EA0109501183000020000000
B1109075535430N01340433EA0108601173000020000000
B1109115535409N01340576EA0107801166000020000000
B1109155535370N01340707EA0107001164000020000000
B1109195535300N01340787EA0107201167000020000000
B1109235535218N01340804EA0107101165000020000000
B1109275535140N01340775EA0106601158000020000000
B1109315535067N01340715EA0106001153000016000000
B1109355535005N01340623EA0105501147000016000000
B1109395534957N01340510EA0105201148000020000000
B1109435534926N01340385EA0105401144000016000000
B1109475534910N01340250EA0104501137000016000000
B1109515534913N01340115EA0104201134000016000000
B1109555534939N01339996EA0103801130000016000000
B1109595534987N01339913EA0103501130000016000000
B1110035535045N01339877EA0103401124000016000000
B1110075535106N01339891EA0102501111000016000000
B1110115535158N01339961EA0101401105000016000000
B1110155535195N01340065EA0100701097000016000000
B1110195535217N01340186EA0100001091000016000000
B1110235535235N01340312EA0099301082000016000000
B1110275535251N01340443EA0098201072000016000000
B1110315535256N01340583EA0097301064000016000000
B1110355535235N01340713EA0097101065000016000000
B1110395535181N01340806EA0097001061000016000000
B1110435535106N01340806EA0096701058000016000000
B1110475535064N01340711EA0096101051000016000000
B1110515535079N01340599EA0095501044000016000000
B1110555535134N01340534EA0094401029000016000000
B1110595535205N01340515EA0092701014000016000000
B1111035535282N01340508EA0091501002000016000000
B1111075535363N01340511EA0090000989000016000000
B1111115535442N01340538EA0089500987000016000000
B1111155535517N01340585EA0089100984000016000000
B1111195535590N01340638EA0089200985000016000000
B1111235535660N01340698EA0089000981000016000000
B1111275535728N01340765EA0088700980000016000000
B1111315535798N01340833EA0088200971000016000000
B1111355535867N01340909EA0087500967000016000000
B1111395535936N01340982EA0087400966000016000000
B1111435536003N01341054EA0087100959000016000000
B1111475536072N01341131EA0086100949000016000000
B1111515536141N01341210EA0085300944000016000000
B1111555536208N01341288EA0084900938000016000000
B1111595536274N01341369EA0084000927000016000000
B1112035536339N01341450EA0083400928000016000000
B1112075536400N01341535EA0083300925000016000000
B1112115536458N01341625EA0083100925000016000000
B1112155536514N01341717EA0083200924000016000000
B1112195536570N01341810EA0082800916000016000000
B1112235536624N01341912EA0082100911000016000000
B1112275536676N01342016EA0081600903000016000000
B1112315536733N01342120EA0080300890000016000000
B1112355536789N01342222EA0079900895000016000000
B1112395536842N01342319EA0080600902000016000000
B1112435536893N01342413EA0081000905000016000000
B1112475536943N01342504EA0081200906000016000000
B1112515536998N01342592EA0081100905000016000000
B1112555537055N01342674EA0081300913000016000000
B1112595537110N01342747EA0082500924000016000000
B1113035537168N01342804EA0083100918000016000000
B1113075537237N01342842EA0081700903000016000000
B1113115537314N01342858EA0081000905000016000000
B1113155537389N01342867EA0081600915000016000000
B1113195537461N01342874EA0083200932000016000000
B1113235537515N01342838EA0085400955000020000000
B1113275537518N01342754EA0086500953000020000000
B1113315537469N01342699EA0085600945000020000000
B1113355537410N01342735EA0086100956000020000000
B1113395537370N01342820EA0086600958000024000000
B1113435537341N01342923EA0086900968000020000000
B1113475537344N01343034EA0087700968000016000000
B1113515537380N01343129EA0087400965000016000000
B1113555537432N01343202EA0087200963000016000000
B1113595537493N01343266EA0086700964000016000000
B1114035537550N01343318EA0087500971000016000000
B1114075537609N01343367EA0087500967000016000000
B1114115537671N01343409EA0086800959000016000000
B1114155537735N01343406EA0087000971000016000000
B1114195537769N01343346EA0088700979000016000000
B1114235537748N01343255EA0088000970000016000000
B1114275537691N01343248EA0088300979000016000000
B1114315537652N01343324EA0088700975000016000000
B1114355537644N01343444EA0087600959000020000000
B1114395537665N01343574EA0085900944000020000000
B1114435537703N01343700EA0084900945000020000000
B1114475537742N01343817EA0085300950000016000000
B1114515537782N01343929EA0085800954000016000000
B1114555537822N01344039EA0085700948000016000000
B1114595537865N01344152EA0084900941000016000000
B1115035537911N01344263EA0084400938000016000000
B1115075537976N01344328EA0084300938000016000000
B1115115538046N01344308EA0084500935000016000000
B1115155538103N01344229EA0083800926000020000000
B1115195538142N01344113EA0082900919000016000000
B1115235538169N01343983EA0082100917000020000000
B1115275538184N01343852EA0082200916000020000000
B1115315538190N01343723EA0082400933000020000000
B1115355538155N01343643EA0085300959000020000000
B1115395538100N01343666EA0086700959000016000000
B1115435538082N01343768EA0086400955000016000000
B1115475538116N01343855EA0086300955000016000000
B1115515538165N01343904EA0086300952000016000000
B1115555538220N01343891EA0085500948000020000000
B1115595538260N01343825EA0085000942000016000000
B1116035538285N01343734EA0085100950000020000000
B1116075538307N01343648EA0085900956000016000000
B1116115538340N01343573EA0086400959000016000000
B1116155538395N01343602EA0086300954000020000000
B1116195538406N01343714EA0086100960000016000000
B1116235538368N01343797EA0086900968000016000000
B1116275538315N01343809EA0087700972000016000000
B1116315538278N01343748EA0087700973000016000000
B1116355538285N01343662EA0088000978000016000000
B1116395538332N01343619EA0088400981000016000000
B1116435538386N01343653EA0089000989000016000000
B1116475538432N01343730EA0089000970000016000000
B1116515538496N01343812EA0086700961000016000000
B1116555538564N01343890EA0086600961000016000000
B1116595538631N01343961EA0087000970000016000000
B1117035538697N01344030EA0087100964000016000000
B1117075538769N01344098EA0085700947000016000000
B1117115538847N01344168EA0084100933000016000000
B1117155538927N01344239EA0083700941000016000000
B1117195538999N01344297EA0085100963000020000000
B1117235539043N01344246EA0088200978000024000000
B1117275539021N01344156EA0088100970000032000000
B1117315538965N01344141EA0087600971000028000000
B1117355538914N01344195EA0087100956000028000000
B1117395538871N01344282EA0085700952000024000000
B1117435538843N01344386EA0085800956000024000000
B1117475538848N01344501EA0086200958000020000000
B1117515538889N01344593EA0086100954000020000000
B1117555538949N01344658EA0085900956000020000000
B1117595539008N01344715EA0086300970000020000000
B1118035539065N01344770EA0087800980000020000000
B1118075539100N01344860EA0088800992000020000000
B1118115539078N01344958EA0089500995000020000000
B1118155539022N01344988EA0089600994000020000000
B1118195538974N01344936EA0089801003000020000000
B1118235538962N01344849EA0091001013000016000000
B1118275538988N01344775EA0092001019000016000000
B1118315539040N01344741EA0092401023000016000000
B1118355539097N01344761EA0092901027000016000000
B1118395539140N01344837EA0093301032000016000000
B1118435539147N01344944EA0094001040000016000000
B1118475539116N01345038EA0094501042000016000000
B1118515539060N01345074EA0094801046000016000000
B1118555539009N01345040EA0095501055000012000000
B1118595538990N01344958EA0096601067000012000000
B1119035539009N01344878EA0097601073000012000000
B1119075539060N01344837EA0098001077000012000000
B1119115539116N01344870EA0098601083000012000000
B1119155539142N01344960EA0099401091000012000000
B1119195539125N01345061EA0099701093000012000000
B1119235539070N01345109EA0099901095000012000000
B1119275539016N01345073EA0100301103000016000000
B1119315538996N01344987EA0101501117000012000000
B1119355539018N01344905EA0102601124000012000000
B1119395539070N01344870EA0103101127000012000000
B1119435539127N01344899EA0103501131000012000000
B1119475539159N01344988EA0103701136000016000000
B1119515539144N01345091EA0104601142000016000000
B1119555539092N01345151EA0104801139000016000000
B1119595539039N01345105EA0104601142000016000000
B1120035539048N01345010EA0105401153000016000000
B1120075539104N01344988EA0106101152000016000000
B1120115539156N01345048EA0106201157000020000000
B1120155539156N01345157EA0106501161000020000000
B1120195539101N01345213EA0107001165000016000000
B1120235539052N01345164EA0107501170000020000000
B1120275539055N01345068EA0108301177000016000000
B1120315539101N01345016EA0108801182000016000000
B1120355539161N01345023EA0109101179000016000000
B1120395539225N01345053EA0108601179000020000000
B1120435539283N01345082EA0109701194000016000000
B1120475539344N01345112EA0109901182000016000000
B1120515539415N01345148EA0108501166000016000000
B1120555539494N01345185EA0107101167000016000000
B1120595539572N01345220EA0107801178000016000000
B1121035539636N01345251EA0110401208000016000000
B1121075539686N01345312EA0111701209000020000000
B1121115539698N01345415EA0112201217000016000000
B1121155539662N01345493EA0112601216000016000000
B1121195539608N01345471EA0112701222000016000000
B1121235539594N01345380EA0113401228000012000000
B1121275539624N01345296EA0114101235000016000000
B1121315539671N01345242EA0114501239000012000000
B1121355539727N01345204EA0114901242000012000000
B1121395539785N01345169EA0115101244000012000000
B1121435539844N01345131EA0115801251000012000000
B1121475539901N01345096EA0116301255000012000000
B1121515539958N01345064EA0116601258000012000000
B1121555540017N01345032EA0116901260000008000000
B1121595540075N01345000EA0116901260000012000000
B1122035540135N01344967EA0117101263000012000000
B1122075540192N01344934EA0117301269000012000000
B1122115540249N01344905EA0118201277000016000000
B1122155540306N01344878EA0118601276000016000000
B1122195540364N01344848EA0118501274000016000000
B1122235540422N01344819EA0118301273000016000000
B1122275540483N01344792EA0118101274000016000000
B1122315540543N01344766EA0118201269000016000000
B1122355540609N01344739EA0116801252000016000000
B1122395540683N01344711EA0115401239000016000000
B1122435540764N01344678EA0113101213000020000000
B1122475540850N01344645EA0112001208000020000000
B1122515540936N01344610EA0111401206000020000000
B1122555541011N01344577EA0112401230000020000000
B1122595541080N01344550EA0114001232000016000000
B1123035541146N01344520EA0114101232000016000000
B1123075541215N01344486EA0113901232000020000000
B1123115541276N01344453EA0115101249000016000000
B1123155541335N01344423EA0116001251000012000000
B1123195541395N01344393EA0116201253000016000000
B1123235541453N01344362EA0116101249000012000000
B1123275541517N01344330EA0115701244000012000000
B1123315541582N01344297EA0115001239000012000000
B1123355541651N01344263EA0114401236000012000000
B1123395541720N01344229EA0114301235000012000000
B1123435541787N01344191EA0114101233000016000000
B1123475541850N01344161EA0115201252000016000000
B1123515541909N01344129EA0115601242000012000000
B1123555541973N01344096EA0114601236000012000000
B1123595542039N01344067EA0114201233000012000000
B1124035542107N01344033EA0114001231000008000000
B1124075542173N01344000EA0114001232000012000000
B1124115542238N01343968EA0114001233000012000000
B1124155542303N01343937EA0114001229000012000000
B1124195542370N01343901EA0113601222000012000000
B1124235542436N01343866EA0112901214000012000000
B1124275542506N01343825EA0111501201000016000000
B1124315542579N01343778EA0110201186000016000000
B1124355542657N01343729EA0108301168000016000000
B1124395542734N01343679EA0107201162000016000000
B1124435542809N01343631EA0106901157000016000000
B1124475542883N01343584EA0106301152000016000000
B1124515542957N01343541EA0106001150000016000000
B1124555543029N01343495EA0105501143000016000000
B1124595543100N01343444EA0104801135000016000000
B1125035543170N01343393EA0103901128000016000000
B1125075543241N01343340EA0102501101000020000000
B1125115543320N01343271EA0099301076000020000000
B1125155543398N01343202EA0098201079000020000000
B1125195543471N01343142EA0098501080000020000000
B1125235543542N01343082EA0098401074000020000000
B1125275543610N01343024EA0097901072000020000000
B1125315543679N01342985EA0098001072000020000000
B1125355543736N01343046EA0098001071000020000000
B1125395543735N01343179EA0097101055000020000000
B1125435543673N01343284EA0095701042000024000000
B1125475543592N01343354EA0093701018000024000000
B1125515543503N01343423EA0091401000000024000000
B1125555543410N01343488EA0089900992000024000000
B1125595543320N01343545EA0089900992000024000000
B1126035543230N01343600EA0089100979000024000000
B1126075543139N01343652EA0088100971000020000000
B1126115543051N01343703EA0087500964000020000000
B1126155542961N01343747EA0086600952000020000000
B1126195542870N01343790EA0085600946000020000000
B1126235542780N01343834EA0084900946000020000000
B1126275542698N01343878EA0085500946000020000000
B1126315542615N01343926EA0084700938000016000000
B1126355542533N01343974EA0084000930000016000000
B1126395542450N01344025EA0082900917000016000000
B1126435542368N01344074EA0082200911000016000000
B1126475542284N01344124EA0081300900000016000000
B1126515542199N01344174EA0080300893000016000000
B1126555542113N01344223EA0079600886000016000000
B1126595542028N01344269EA0079200886000020000000
B1127035541948N01344314EA0079700890000016000000
B1127075541869N01344359EA0079500886000016000000
B1127115541791N01344405EA0079100883000016000000
B1127155541714N01344453EA0078900883000012000000
B1127195541638N01344502EA0078800882000012000000
B1127235541564N01344553EA0078900880000012000000
B1127275541488N01344598EA0078500875000012000000
B1127315541409N01344635EA0077800871000012000000
B1127355541328N01344665EA0077400866000012000000
B1127395541248N01344691EA0077200865000056000000
B1127435541167N01344713EA0077300863000080000000
B1127475541086N01344733EA0077100871000064000000
B1127515541021N01344749EA0079600897000040000000
B1127555540962N01344765EA0080400896000032000000
B1127595540901N01344810EA0080200890000024000000
B1128035540854N01344910EA0080000891000024000000
B1128075540807N01345012EA0079800891000020000000
B1128115540745N01345083EA0079600888000016000000
B1128155540674N01345118EA0079000884000016000000
B1128195540603N01345114EA0078700883000016000000
B1128235540533N01345092EA0078800881000016000000
B1128275540460N01345101EA0078400877000016000000
B1128315540391N01345151EA0078300876000016000000
B1128355540325N01345201EA0078100878000016000000
B1128395540257N01345244EA0078200876000016000000
B1128435540188N01345278EA0077900872000012000000
B1128475540119N01345315EA0077300863000012000000
B1128515540045N01345347EA0076400853000012000000
B1128555539968N01345380EA0075700852000016000000
B1128595539894N01345411EA0075900855000012000000
B1129035539823N01345450EA0075900853000012000000
B1129075539751N01345493EA0075700852000012000000
B1129115539681N01345530EA0075700853000012000000
B1129155539611N01345563EA0075800849000012000000
B1129195539539N01345597EA0075500849000012000000
B1129235539468N01345632EA0075600853000012000000
B1129275539402N01345664EA0076300863000016000000
B1129315539338N01345675EA0077200865000016000000
B1129355539290N01345621EA0077200867000016000000
B1129395539282N01345530EA0077500871000016000000
B1129435539312N01345456EA0077800873000016000000
B1129475539364N01345425EA0077900876000016000000
B1129515539420N01345446EA0078200879000016000000
B1129555539465N01345515EA0078500880000016000000
B1129595539487N01345617EA0078800883000016000000
B1130035539484N01345729EA0078900882000016000000
B1130075539448N01345828EA0078700881000016000000
B1130115539393N01345884EA0078700883000016000000
B1130155539333N01345916EA0078900881000016000000
B1130195539266N01345940EA0078200869000016000000
B1130235539192N01345954EA0077100862000016000000
B1130275539116N01345967EA0076700861000016000000
B1130315539039N01345980EA0076800863000016000000
B1130355538962N01345992EA0077200867000016000000
B1130395538887N01346005EA0077400869000016000000
B1130435538813N01346017EA0077800875000016000000
B1130465538758N01346026EA0078400882000016000000
B1130515538668N01346041EA0079100886000016000000
B1130555538597N01346053EA0079600892000016000000
B1130595538528N01346061EA0080700902000016000000
B1131035538475N01346018EA0081700914000016000000
B1131075538479N01345929EA0082300917000016000000
B1131115538528N01345900EA0082800920000020000000
B1131155538581N01345959EA0082500916000016000000
B1131195538589N01346078EA0082700924000020000000
B1131235538554N01346179EA0083800934000020000000
B1131275538506N01346256EA0084300933000020000000
B1131315538449N01346230EA0083900931000020000000
B1131355538449N01346135EA0084000936000020000000
B1131395538502N01346102EA0084500939000016000000
B1131435538554N01346165EA0084700942000016000000
B1131475538564N01346286EA0085000945000016000000
B1131515538524N01346387EA0085400950000016000000
B1131555538459N01346417EA0085900955000016000000
B1131595538407N01346369EA0086400959000020000000
B1132035538393N01346275EA0086600962000016000000
B1132075538423N01346197EA0087100964000016000000
B1132115538480N01346182EA0087400966000020000000
B1132155538535N01346235EA0087500968000020000000
B1132195538562N01346345EA0087700972000016000000
B1132235538546N01346465EA0088200977000016000000
B1132275538503N01346561EA0088500983000016000000
B1132315538455N01346643EA0089200989000012000000
B1132355538405N01346713EA0089700993000012000000
B1132395538351N01346777EA0090100995000012000000
B1132435538294N01346841EA0090601002000016000000
B1132475538237N01346856EA0091701014000016000000
B1132515538207N01346787EA0092601016000016000000
B1132555538229N01346702EA0092801022000016000000
B1132595538285N01346667EA0093501030000016000000
B1133035538343N01346708EA0093901032000016000000
B1133075538375N01346815EA0094001032000016000000
B1133115538362N01346936EA0094501041000016000000
B1133155538317N01347025EA0095001042000016000000
B1133195538255N01347049EA0095001042000016000000
B1133235538203N01347003EA0095601052000016000000
B1133275538178N01346920EA0096301059000016000000
B1133315538181N01346828EA0097001062000016000000
B1133355538213N01346747EA0097301067000016000000
B1133395538271N01346719EA0097701073000016000000
B1133435538329N01346756EA0098201072000016000000
B1133475538364N01346856EA0098001073000016000000
B1133515538359N01346979EA0098401077000016000000
B1133555538317N01347075EA0098701082000016000000
B1133595538255N01347115EA0099101085000016000000
B1134035538200N01347080EA0099901095000016000000
B1134075538180N01346997EA0100501099000016000000
B1134115538195N01346910EA0101001105000016000000
B1134155538241N01346849EA0101601108000016000000
B1134195538302N01346847EA0101701113000016000000
B1134235538349N01346921EA0102501121000016000000
B1134275538358N01347036EA0102901119000016000000
B1134315538329N01347149EA0102701120000016000000
B1134355538284N01347245EA0103101125000016000000
B1134395538234N01347337EA0103301126000016000000
B1134435538186N01347432EA0103701127000016000000
B1134475538130N01347514EA0104001131000016000000
B1134515538065N01347519EA0104601140000016000000
B1134555538035N01347443EA0105401147000016000000
B1134595538054N01347358EA0105901151000016000000
B1135035538102N01347319EA0106501160000016000000
B1135075538158N01347343EA0107301164000016000000
B1135115538200N01347424EA0107701167000016000000
B1135155538210N01347547EA0108201173000016000000
B1135195538181N01347657EA0108701176000016000000
B1135235538126N01347730EA0108901178000016000000
B1135275538063N01347746EA0109201183000016000000
B1135315538015N01347691EA0109701193000016000000
B1135355538002N01347605EA0110701201000016000000
B1135395538022N01347522EA0111201200000016000000
B1135435538070N01347474EA0111201204000016000000
B1135475538132N01347475EA0111901208000016000000
B1135515538191N01347522EA0112501215000016000000
B1135555538236N01347612EA0113301222000012000000
B1135595538255N01347731EA0113901227000016000000
B1136035538241N01347852EA0114201229000012000000
B1136075538202N01347956EA0114201226000016000000
B1136115538146N01348026EA0114001225000016000000
B1136155538083N01348043EA0113901220000016000000
B1136195538035N01347982EA0113301222000016000000
B1136235538017N01347890EA0113901227000020000000
B1136275538033N01347801EA0114201228000020000000
B1136315538068N01347727EA0114301233000016000000
B1136355538108N01347658EA0115001238000016000000
B1136395538160N01347616EA0115401243000016000000
B1136435538215N01347675EA0115901249000016000000
B1136475538212N01347799EA0116401253000016000000
B1136515538152N01347873EA0116801256000020000000
B1136555538082N01347874EA0117101258000020000000
B1136595538034N01347799EA0117601268000016000000
B1137035538041N01347700EA0118901279000016000000
B1137075538095N01347661EA0119401279000016000000
B1137115538152N01347720EA0119701283000016000000
B1137155538168N01347847EA0120001287000016000000
B1137195538124N01347960EA0120101290000016000000
B1137235538050N01347977EA0120401293000016000000
B1137275538008N01347892EA0121201304000016000000
B1137315538038N01347801EA0122101306000016000000
B1137355538103N01347827EA0122201308000020000000
B1137395538128N01347956EA0122501310000016000000
B1137435538100N01348100EA0122501308000016000000
B1137475538072N01348245EA0122401311000016000000
B1137515538069N01348389EA0122701316000016000000
B1137555538111N01348493EA0123201321000016000000
B1137595538172N01348540EA0123601321000020000000
B1138035538230N01348609EA0123301318000016000000
B1138075538249N01348739EA0123301323000016000000
B1138115538204N01348851EA0123701326000016000000
B1138155538133N01348905EA0124301331000016000000
B1138195538067N01348957EA0125101344000016000000
B1138235537998N01348992EA0126101346000016000000
B1138275537929N01348979EA0126101347000016000000
B1138315537862N01348944EA0126501353000016000000
B1138355537796N01348906EA0126901355000016000000
B1138395537730N01348870EA0127201359000016000000
B1138435537673N01348815EA0127601364000016000000
B1138475537636N01348731EA0128101367000016000000
B1138515537626N01348632EA0128401368000016000000
B1138555537627N01348529EA0128201362000016000000
B1138595537626N01348418EA0127501354000020000000
B1139035537630N01348303EA0127001359000016000000
B1139075537635N01348190EA0127801363000016000000
B1139115537636N01348071EA0127801364000016000000
B1139155537635N01347952EA0128401370000016000000
B1139195537606N01347853EA0129101374000016000000
B1139235537547N01347872EA0130001391000020000000
B1139275537519N01347963EA0130901391000016000000
B1139315537528N01348078EA0130401385000016000000
B1139355537562N01348180EA0130401395000016000000
B1139395537615N01348234EA0131301401000016000000
B1139435537671N01348210EA0132101408000016000000
B1139475537699N01348123EA0132601410000016000000
B1139515537699N01348017EA0132601410000016000000
B1139555537666N01347925EA0132501405000016000000
B1139595537601N01347946EA0131701394000020000000
B1140035537612N01348078EA0130701386000024000000
B1140075537656N01348193EA0130701397000024000000
B1140115537669N01348319EA0132401414000020000000
B1140155537644N01348433EA0133601424000016000000
B1140195537621N01348545EA0134601430000016000000
B1140235537592N01348659EA0135001432000016000000
B1140275537530N01348696EA0134901431000020000000
B1140315537492N01348610EA0134601427000020000000
B1140355537514N01348505EA0134901435000020000000
B1140395537537N01348405EA0135701447000016000000
B1140435537550N01348303EA0136801455000016000000
B1140475537550N01348201EA0137401458000016000000
B1140515537540N01348097EA0137801461000016000000
B1140555537515N01347999EA0137901463000012000000
B1140595537475N01347915EA0138201463000016000000
B1141035537415N01347912EA0138601469000016000000
B1141075537376N01348002EA0139101472000016000000
B1141115537387N01348116EA0139001469000016000000
B1141155537433N01348214EA0138601465000020000000
B1141195537474N01348316EA0138801476000016000000
B1141235537484N01348431EA0140001489000016000000
B1141275537475N01348540EA0141201496000016000000
B1141315537443N01348636EA0141701499000016000000
B1141355537392N01348702EA0142301507000016000000
B1141395537329N01348715EA0143101515000016000000
B1141435537271N01348683EA0143901520000016000000
B1141475537231N01348601EA0144101524000016000000
B1141515537233N01348498EA0144701532000016000000
B1141555537283N01348440EA0145201531000016000000
B1141595537345N01348485EA0145101532000016000000
B1142035537359N01348604EA0145701541000016000000
B1142075537314N01348691EA0146601546000016000000
B1142115537249N01348659EA0146601548000016000000
B1142155537211N01348559EA0147101554000016000000
B1142195537180N01348450EA0147901561000016000000
B1142235537141N01348346EA0148301564000016000000
B1142275537088N01348267EA0148601572000016000000
B1142315537027N01348216EA0149601575000016000000
B1142355536956N01348162EA0149001563000016000000
B1142395536886N01348095EA0148401567000016000000
B1142435536829N01348011EA0149301576000016000000
B1142475536791N01347900EA0150101580000016000000
B1142515536738N01347822EA0150801586000016000000
B1142555536670N01347831EA0150901588000016000000
B1142595536604N01347861EA0150601578000012000000
B1143035536527N01347879EA0148201551000016000000
B1143075536438N01347896EA0145701538000020000000
B1143115536354N01347911EA0147101558000016000000
B1143155536274N01347922EA0147401545000016000000
B1143195536191N01347933EA0146101541000016000000
B1143235536110N01347947EA0146201546000016000000
B1143275536033N01347959EA0146801552000016000000
B1143315535958N01347972EA0147301557000016000000
B1143355535886N01347982EA0147801561000012000000
B1143395535816N01347989EA0148201562000016000000
B1143435535745N01347991EA0148301563000012000000
B1143475535673N01347990EA0148501568000012000000
B1143515535607N01347990EA0149001575000012000000
B1143555535539N01347991EA0149501576000016000000
B1143595535473N01347994EA0149501577000012000000
B1144035535405N01347996EA0149301573000012000000
B1144075535338N01348002EA0149501580000012000000
B1144115535273N01348006EA0150101580000012000000
B1144155535208N01348006EA0150001580000012000000
B1144195535142N01348004EA0149601576000012000000
B1144235535071N01348003EA0149201573000012000000
B1144275535001N01348003EA0149001567000012000000
B1144315534927N01348003EA0148301559000012000000
B1144355534849N01348004EA0147601552000012000000
B1144395534774N01348006EA0147301563000012000000
B1144435534710N01348009EA0149001574000012000000
B1144475534642N01348015EA0148401552000012000000
B1144515534564N01348026EA0146601542000012000000
B1144555534485N01348041EA0146201542000012000000
B1144595534406N01348055EA0145901537000012000000
B1145035534325N01348071EA0145101528000012000000
B1145075534242N01348089EA0144601525000012000000
B1145115534161N01348107EA0144601526000012000000
B1145155534082N01348125EA0144501523000016000000
B1145195534004N01348147EA0144301521000012000000
B1145235533925N01348171EA0144001516000016000000
B1145275533844N01348193EA0143601513000012000000
B1145315533765N01348216EA0143301510000012000000
B1145355533686N01348237EA0142901505000012000000
B1145395533604N01348255EA0142301501000012000000
B1145435533523N01348273EA0141801496000012000000
B1145475533441N01348297EA0141301490000012000000
B1145515533357N01348327EA0140701482000012000000
B1145555533271N01348355EA0140101477000016000000
B1145595533185N01348381EA0139201468000016000000
B1146035533098N01348407EA0138601463000012000000
B1146075533010N01348432EA0138201460000012000000
B1146115532924N01348461EA0137901458000012000000
B1146155532841N01348493EA0137701456000012000000
B1146195532757N01348528EA0137401453000012000000
B1146235532674N01348558EA0136901446000012000000
B1146275532588N01348580EA0136101436000012000000
B1146315532500N01348600EA0135201429000016000000
B1146355532413N01348618EA0134701424000016000000
B1146395532326N01348636EA0133901416000016000000
B1146435532240N01348658EA0133201412000012000000
B1146475532155N01348678EA0133001411000012000000
B1146515532074N01348695EA0132801409000012000000
B1146555531992N01348715EA0132501403000012000000
B1146595531910N01348735EA0131701396000012000000
B1147035531827N01348754EA0131301390000012000000
B1147075531743N01348773EA0130601382000012000000
B1147115531658N01348788EA0129601374000012000000
B1147155531573N01348802EA0129001370000012000000
B1147195531487N01348818EA0128601366000012000000
B1147235531403N01348835EA0128101361000012000000
B1147275531320N01348852EA0127601357000012000000
B1147315531235N01348870EA0127201353000012000000
B1147355531152N01348891EA0126901350000012000000
B1147395531071N01348914EA0126701349000008000000
B1147435530991N01348939EA0126601348000008000000
B1147475530911N01348966EA0126401345000012000000
B1147515530833N01348995EA0126101340000012000000
B1147555530755N01349025EA0125601336000012000000
B1147595530680N01349055EA0125301334000012000000
B1148035530605N01349081EA0125101330000012000000
B1148075530529N01349103EA0124401324000012000000
B1148115530454N01349118EA0123901320000012000000
B1148155530384N01349091EA0123501320000012000000
B1148195530337N01349004EA0123401317000012000000
B1148235530333N01348886EA0122801307000008000000
B1148275530373N01348791EA0122001302000012000000
B1148315530436N01348743EA0121701299000012000000
B1148355530503N01348722EA0121101290000016000000
B1148395530575N01348705EA0120201281000016000000
B1148435530650N01348688EA0119301273000016000000
B1148475530724N01348670EA0118901273000016000000
B1148515530797N01348652EA0118901274000016000000
B1148555530868N01348630EA0118901274000016000000
B1148595530939N01348606EA0118901270000012000000
B1149035531009N01348579EA0118401265000012000000
B1149075531079N01348553EA0118101265000012000000
B1149115531148N01348528EA0118101265000012000000
B1149155531214N01348500EA0117901261000012000000
B1149195531282N01348458EA0117501252000012000000
B1149235531352N01348412EA0116701245000016000000
B1149275531425N01348367EA0115801235000016000000
B1149315531498N01348307EA0114801228000016000000
B1149355531569N01348254EA0114701232000016000000
B1149395531643N01348212EA0114701229000016000000
B1149435531715N01348176EA0114801231000012000000
B1149475531789N01348145EA0114001220000012000000
B1149515531867N01348124EA0113301217000016000000
B1149555531945N01348116EA0113301219000016000000
B1149595532019N01348117EA0113601223000012000000
B1150035532092N01348129EA0113901222000016000000
B1150075532166N01348138EA0113501215000016000000
B1150115532243N01348134EA0112801207000016000000
B1150155532322N01348121EA0112201204000016000000
B1150195532402N01348119EA0111601198000016000000
B1150235532482N01348133EA0111601202000016000000
B1150275532557N01348155EA0112001209000016000000
B1150315532631N01348171EA0112101205000016000000
B1150355532708N01348173EA0111601194000012000000
B1150395532791N01348167EA0110001180000016000000
B1150435532874N01348164EA0109601188000016000000
B1150475532947N01348168EA0111201202000012000000
B1150515533016N01348168EA0111601197000012000000
B1150555533089N01348162EA0110601189000012000000
B1150595533162N01348156EA0110401190000012000000
B1151035533234N01348149EA0110601191000012000000
B1151075533303N01348143EA0110701194000012000000
B1151115533372N01348137EA0110901194000012000000
B1151155533440N01348126EA0111001195000012000000
B1151195533506N01348111EA0111101196000016000000
B1151235533572N01348093EA0111401199000012000000
B1151275533635N01348073EA0111901203000012000000
B1151315533696N01348052EA0112201205000012000000
B1151355533757N01348030EA0112201205000016000000
B1151395533818N01348011EA0112301206000012000000
B1151435533879N01347998EA0112301207000012000000
B1151475533942N01347985EA0112101203000012000000
B1151515534004N01347969EA0111901205000012000000
B1151555534060N01347954EA0112501214000012000000
B1151595534111N01347939EA0113301217000012000000
B1152035534160N01347922EA0113401213000020000000
B1152075534209N01347905EA0112601198000032000000
B1152115534273N01347898EA0110701188000028000000
B1152155534330N01347896EA0111101200000020000000
B1152195534380N01347898EA0112101200000024000000
B1152235534432N01347899EA0110601170000040000000
B1152275534494N01347916EA0108101158000044000000
B1152315534554N01347899EA0107601163000032000000
B1152355534590N01347837EA0108201168000024000000
B1152395534611N01347759EA0108301165000020000000
B1152435534624N01347669EA0107601159000016000000
B1152475534631N01347577EA0107401161000012000000
B1152515534632N01347484EA0107401158000012000000
B1152555534633N01347392EA0107301158000012000000
B1152595534631N01347300EA0107201159000012000000
B1153035534620N01347211EA0107701165000008000000
B1153075534601N01347129EA0108201168000012000000
B1153115534576N01347049EA0108301167000012000000
B1153155534553N01346967EA0108401171000012000000
B1153195534532N01346888EA0108901175000012000000
B1153235534510N01346808EA0109201178000012000000
B1153275534486N01346729EA0109701183000012000000
B1153315534475N01346648EA0110201183000012000000
B1153355534508N01346600EA0109801184000016000000
B1153395534557N01346633EA0110301189000016000000
B1153435534581N01346733EA0110401188000016000000
B1153475534562N01346854EA0110201188000016000000
B1153515534505N01346925EA0110501193000016000000
B1153555534445N01346907EA0110801192000016000000
B1153595534429N01346824EA0110401189000020000000
B1154035534468N01346776EA0110901196000016000000
B1154075534511N01346755EA0111801206000020000000
B1154115534541N01346707EA0112201204000016000000
B1154155534550N01346631EA0112001206000020000000
B1154195534544N01346553EA0112501210000016000000
B1154235534536N01346477EA0112301206000016000000
B1154275534523N01346396EA0112001203000016000000
B1154315534505N01346318EA0111901201000016000000
B1154355534489N01346235EA0111201194000020000000
B1154395534476N01346147EA0110401188000020000000
B1154435534467N01346052EA0109401174000020000000
B1154475534462N01345948EA0108401170000020000000
B1154515534451N01345849EA0108201167000016000000
B1154555534403N01345776EA0107701160000016000000
B1154595534329N01345781EA0106601146000016000000
B1155035534256N01345853EA0105701140000016000000
B1155075534183N01345936EA0104501113000016000000
B1155115534100N01346033EA0101001090000016000000
B1155155534020N01346147EA0100501095000016000000
B1155195533953N01346253EA0101901120000016000000
B1155235533895N01346342EA0104101131000016000000
B1155275533840N01346423EA0104801134000016000000
B1155315533787N01346507EA0104801132000012000000
B1155355533738N01346596EA0104601132000012000000
B1155395533693N01346690EA0104401130000012000000
B1155435533654N01346791EA0104301129000008000000
B1155475533630N01346904EA0104101125000012000000
B1155515533634N01347029EA0103601118000008000000
B1155555533666N01347141EA0103301114000012000000
B1155595533710N01347241EA0102701112000012000000
B1156035533760N01347328EA0102601114000012000000
B1156075533810N01347405EA0103101117000012000000
B1156115533861N01347480EA0102801112000012000000
B1156155533917N01347554EA0102301108000012000000
B1156195533973N01347623EA0102201107000008000000
B1156235534029N01347691EA0101901103000008000000
B1156275534082N01347762EA0101501099000008000000
B1156315534137N01347835EA0101001094000008000000
B1156355534193N01347905EA0100701089000008000000
B1156395534250N01347973EA0100401089000008000000
B1156435534306N01348039EA0100101084000012000000
B1156475534363N01348107EA0099701079000012000000
B1156515534420N01348176EA0099001073000012000000
B1156555534481N01348246EA0098401072000012000000
B1156595534538N01348307EA0099801090000012000000
B1157035534581N01348384EA0100801088000016000000
B1157075534622N01348479EA0100401086000016000000
B1157115534674N01348552EA0100001086000012000000
B1157155534729N01348617EA0100101089000012000000
B1157195534783N01348678EA0100701096000012000000
B1157235534836N01348736EA0101201098000012000000
B1157275534891N01348793EA0101401102000012000000
B1157315534943N01348851EA0101701104000012000000
B1157355534997N01348903EA0101901104000012000000
B1157395535052N01348949EA0101901104000012000000
B1157435535108N01349004EA0101901104000012000000
B1157475535165N01349060EA0101901103000012000000
B1157515535212N01349151EA0102001107000012000000
B1157555535227N01349277EA0102201108000016000000
B1157595535222N01349408EA0102301108000016000000
B1158035535238N01349532EA0102601114000016000000
B1158075535277N01349633EA0102901115000016000000
B1158115535326N01349716EA0102701113000016000000
B1158155535381N01349793EA0102701114000016000000
B1158195535433N01349874EA0102801115000016000000
B1158235535486N01349949EA0102901115000016000000
B1158275535541N01350023EA0102901115000016000000
B1158315535590N01350110EA0103001113000016000000
B1158355535639N01350205EA0102501109000016000000
B1158395535694N01350292EA0102301107000016000000
B1158435535751N01350377EA0102201109000016000000
B1158475535806N01350464EA0102501112000016000000
B1158515535860N01350551EA0102801113000016000000
B1158555535915N01350635EA0102901118000016000000
B1158595535971N01350711EA0103901124000016000000
B1159035536032N01350712EA0103901118000016000000
B1159075536075N01350647EA0102901107000016000000
B1159115536081N01350557EA0101901099000016000000
B1159155536045N01350491EA0100801084000020000000
B1159195535987N01350477EA0099301073000020000000
B1159235535925N01350507EA0098601069000020000000
B1159275535868N01350564EA0098201068000020000000
B1159315535810N01350615EA0098001064000020000000
B1159355535746N01350622EA0097801065000020000000
B1159395535689N01350589EA0097801062000020000000
B1159435535634N01350539EA0097301056000020000000
B1159475535576N01350489EA0096501051000016000000
B1159515535521N01350434EA0096301051000016000000
B1159555535467N01350378EA0096501052000020000000
B1159595535413N01350322EA0096301051000016000000
B1200035535360N01350265EA0096001047000016000000
B1200075535304N01350205EA0095601042000016000000
B1200115535247N01350145EA0095301042000016000000
B1200155535190N01350092EA0095501045000020000000
B1200195535130N01350047EA0095801047000020000000
B1200235535070N01350004EA0096001045000020000000
B1200275535010N01349953EA0095901047000016000000
B1200315534952N01349900EA0096201052000020000000
B1200355534895N01349848EA0096701056000016000000
B1200395534835N01349797EA0097401061000016000000
B1200435534774N01349766EA0098501075000024000000
B1200475534727N01349833EA0100201087000028000000
B1200515534724N01349956EA0099801083000024000000
B1200555534763N01350057EA0099901092000024000000
B1200595534820N01350096EA0100701095000020000000
B1201035534875N01350063EA0100301088000020000000
B1201075534898N01349975EA0100001089000020000000
B1201115534887N01349884EA0100801098000020000000
B1201155534846N01349826EA0101501106000020000000
B1201195534792N01349809EA0102301115000020000000
B1201235534735N01349831EA0103401123000020000000
B1201275534684N01349893EA0104101130000020000000
B1201315534658N01349995EA0104801138000016000000
B1201355534662N01350110EA0105501143000020000000
B1201395534687N01350217EA0105901149000020000000
B1201435534726N01350305EA0106301151000020000000
B1201475534783N01350360EA0106201150000016000000
B1201515534844N01350355EA0106301151000016000000
B1201555534887N01350292EA0106301151000016000000
B1201595534892N01350203EA0106701157000016000000
B1202035534856N01350143EA0107301161000016000000
B1202075534800N01350164EA0107301160000016000000
B1202115534761N01350253EA0107401167000016000000
B1202155534754N01350372EA0108401172000016000000
B1202195534787N01350476EA0108701177000020000000
B1202235534844N01350528EA0108901178000020000000
B1202275534906N01350512EA0108901178000016000000
B1202315534950N01350444EA0109101181000016000000
B1202355534962N01350351EA0109601185000016000000
B1202395534932N01350275EA0110201193000016000000
B1202435534879N01350252EA0111101199000020000000
B1202475534820N01350266EA0111201202000016000000
B1202515534768N01350323EA0112401213000020000000
B1202555534740N01350422EA0113201222000016000000
B1202595534744N01350538EA0113901226000016000000
B1203035534784N01350633EA0114301231000016000000
B1203075534846N01350664EA0114901236000016000000
B1203115534901N01350624EA0115301240000020000000
B1203155534926N01350535EA0115801246000024000000
B1203195534914N01350444EA0116301250000024000000
B1203235534872N01350383EA0117001258000020000000
B1203275534818N01350372EA0118001268000020000000
B1203315534765N01350412EA0119001277000020000000
B1203355534726N01350498EA0119801284000020000000
B1203395534713N01350608EA0120301293000020000000
B1203435534727N01350720EA0121301301000016000000
B1203475534765N01350811EA0121801305000020000000
B1203515534823N01350859EA0122001304000020000000
B1203555534884N01350833EA0121901303000020000000
B1203595534910N01350739EA0122101309000020000000
B1204035534882N01350652EA0123201319000020000000
B1204075534827N01350620EA0123901325000020000000
B1204115534759N01350633EA0123301307000020000000
B1204155534677N01350635EA0121701301000016000000
B1204195534602N01350582EA0122001310000016000000
B1204235534529N01350512EA0122601315000016000000
B1204275534456N01350451EA0123501328000016000000
B1204315534381N01350398EA0124701332000016000000
B1204355534298N01350382EA0124801330000020000000
B1204395534211N01350427EA0124601326000020000000
B1204435534122N01350495EA0123801323000020000000
B1204475534029N01350526EA0124301335000020000000
B1204515533944N01350503EA0126101356000020000000
B1204555533878N01350439EA0128701380000016000000
B1204595533812N01350413EA0130401391000016000000
B1205035533760N01350496EA0130101375000016000000
B1205075533757N01350656EA0127601351000016000000
B1205115533749N01350825EA0126501352000020000000
B1205155533699N01350950EA0127501369000020000000
B1205195533626N01350977EA0129101380000016000000
B1205235533556N01350940EA0129601378000016000000
B1205275533487N01350885EA0129101371000016000000
B1205315533418N01350807EA0128301362000016000000
B1205355533362N01350695EA0127601362000016000000
B1205395533327N01350557EA0127501357000016000000
B1205435533306N01350403EA0126601349000020000000
B1205475533281N01350256EA0127501373000016000000
B1205515533259N01350135EA0130201395000016000000
B1205555533232N01350021EA0130801384000016000000
B1205595533184N01349900EA0128601366000016000000
B1206035533115N01349794EA0127901363000020000000
B1206075533037N01349707EA0128301372000020000000
B1206115532967N01349612EA0129301385000020000000
B1206155532902N01349510EA0129701376000016000000
B1206195532826N01349406EA0128501362000020000000
B1206235532748N01349290EA0127301354000024000000
B1206275532677N01349160EA0127201364000024000000
B1206315532590N01349074EA0128501368000024000000
B1206355532486N01349056EA0127501356000024000000
B1206395532376N01349053EA0127201361000024000000
B1206435532274N01349031EA0128101372000024000000
B1206475532179N01349007EA0130101390000024000000
B1206515532088N01348994EA0130801403000024000000
B1206555532007N01348981EA0132501417000024000000
B1206595531932N01348964EA0133501421000020000000
B1207035531855N01348943EA0133401412000020000000
B1207075531777N01348918EA0132501409000020000000
B1207115531699N01348890EA0132401409000020000000
B1207155531624N01348860EA0132401409000016000000
B1207195531547N01348831EA0132201406000016000000
B1207235531470N01348804EA0131701400000016000000
B1207275531390N01348778EA0130901391000016000000
B1207315531309N01348744EA0130601389000016000000
B1207355531230N01348710EA0130201388000016000000
B1207395531151N01348682EA0130501388000016000000
B1207435531073N01348650EA0129801380000016000000
B1207475530998N01348598EA0129301378000016000000
B1207515530928N01348531EA0129201377000016000000
B1207555530858N01348472EA0129301376000016000000
B1207595530787N01348422EA0129301381000016000000
B1208035530716N01348386EA0129801383000016000000
B1208075530644N01348364EA0129601380000016000000
B1208115530571N01348351EA0129501381000016000000
B1208155530501N01348334EA0129501382000016000000
B1208195530432N01348325EA0129701381000016000000
B1208235530359N01348329EA0129401376000012000000
B1208275530286N01348336EA0129001374000012000000
B1208315530212N01348329EA0129101376000012000000
B1208355530142N01348311EA0129201378000012000000
B1208395530070N01348295EA0129301379000016000000
B1208435529999N01348284EA0129301376000012000000
B1208475529923N01348271EA0128901372000016000000
B1208515529847N01348247EA0128501368000016000000
B1208555529770N01348214EA0128201367000016000000
B1208595529693N01348181EA0128301372000016000000
B1209035529618N01348147EA0129101379000016000000
B1209075529548N01348111EA0129601386000016000000
B1209115529480N01348068EA0130201392000012000000
B1209155529420N01348025EA0131301409000012000000
B1209195529366N01347982EA0132701416000012000000
B1209235529310N01347944EA0133201416000012000000
B1209275529245N01347942EA0133001416000012000000
B1209315529181N01347987EA0133301419000012000000
B1209355529119N01348045EA0133701424000012000000
B1209395529055N01348082EA0134501434000012000000
B1209435528993N01348097EA0135401442000012000000
B1209475528933N01348090EA0136001447000012000000
B1209515528872N01348080EA0136301449000012000000
B1209555528809N01348074EA0136401451000012000000
B1209595528744N01348074EA0136401447000012000000
B1210035528674N01348072EA0136101447000012000000
B1210075528604N01348067EA0136301449000012000000
B1210115528534N01348061EA0136501451000012000000
B1210155528463N01348059EA0136601453000016000000
B1210195528395N01348064EA0137001456000012000000
B1210235528324N01348077EA0137201459000012000000
B1210275528257N01348094EA0137701464000012000000
B1210315528190N01348108EA0138101467000012000000
B1210355528125N01348126EA0138301470000012000000
B1210395528060N01348146EA0138601473000012000000
B1210435527997N01348163EA0139001476000012000000
B1210475527933N01348180EA0139301478000012000000
B1210515527871N01348201EA0139301479000012000000
B1210555527807N01348221EA0139401479000016000000
B1210595527745N01348243EA0139401479000012000000
B1211035527682N01348272EA0139301478000012000000
B1211075527620N01348303EA0139301476000012000000
B1211115527557N01348340EA0139001472000012000000
B1211155527492N01348377EA0138401464000012000000
B1211195527427N01348415EA0137901463000012000000
B1211235527362N01348449EA0137801461000008000000
B1211275527297N01348484EA0137401458000012000000
B1211315527232N01348523EA0137301455000012000000
B1211355527169N01348567EA0136901452000008000000
B1211395527106N01348614EA0136601449000012000000
B1211435527044N01348661EA0136401449000016000000
B1211475526981N01348706EA0136301445000012000000
B1211515526918N01348750EA0135801439000012000000
B1211555526854N01348796EA0135401435000012000000
B1211595526792N01348845EA0135001433000012000000
B1212035526729N01348897EA0134701429000012000000
B1212075526667N01348951EA0134101423000012000000
B1212115526601N01349004EA0133401416000012000000
B1212155526534N01349055EA0132901412000012000000
B1212195526467N01349105EA0132401409000012000000
B1212235526400N01349152EA0132101407000012000000
B1212275526333N01349198EA0131801404000008000000
B1212315526266N01349241EA0131701403000012000000
B1212355526201N01349282EA0131501400000012000000
B1212395526135N01349321EA0131301395000008000000
B1212435526066N01349358EA0130601390000008000000
B1212475525997N01349394EA0130101384000008000000
B1212515525927N01349429EA0129601381000008000000
B1212555525858N01349463EA0129201377000012000000
B1212595525788N01349497EA0128801372000012000000
B1213035525717N01349530EA0128301369000008000000
B1213075525646N01349563EA0128101368000008000000
B1213115525577N01349594EA0128001366000008000000
B1213155525509N01349627EA0127601362000008000000
B1213195525438N01349659EA0127401359000008000000
B1213235525368N01349693EA0127201357000008000000
B1213275525298N01349729EA0126901355000008000000
B1213315525228N01349768EA0126701350000008000000
B1213355525154N01349784EA0126201347000008000000
B1213395525085N01349748EA0126101348000008000000
B1213435525031N01349668EA0126201348000008000000
B1213475524999N01349562EA0125901344000008000000
B1213515524989N01349442EA0125301339000012000000
B1213555524998N01349322EA0125101336000012000000
B1213595525022N01349213EA0124801333000016000000
B1214035525063N01349120EA0124301327000016000000
B1214075525115N01349048EA0123701323000016000000
B1214115525176N01349000EA0123401317000016000000
B1214155525242N01348975EA0122901311000016000000
B1214195525311N01348975EA0122101305000016000000
B1214235525375N01349017EA0121801301000020000000
B1214275525432N01349088EA0121101290000020000000
B1214315525501N01349131EA0120001281000016000000
B1214355525575N01349124EA0119201274000016000000
B1214395525649N01349096EA0118401269000016000000
B1214435525723N01349068EA0118101266000016000000
B1214475525795N01349035EA0117701262000016000000
B1214515525866N01348999EA0117401257000012000000
B1214555525938N01348958EA0116701251000012000000
B1214595526009N01348918EA0116101246000012000000
B1215035526079N01348879EA0115601243000012000000
B1215075526149N01348841EA0115401240000012000000
B1215115526220N01348808EA0114901236000008000000
B1215155526290N01348775EA0114501233000008000000
B1215195526359N01348741EA0114101231000008000000
B1215235526426N01348705EA0113801226000008000000
B1215275526495N01348669EA0113301222000008000000
B1215315526563N01348632EA0112901219000008000000
B1215355526630N01348601EA0112601216000008000000
B1215395526701N01348572EA0112101210000008000000
B1215435526771N01348545EA0111601207000008000000
B1215475526840N01348513EA0111301204000008000000
B1215515526907N01348476EA0111101202000008000000
B1215555526974N01348440EA0110901199000008000000
B1215595527040N01348401EA0110601196000008000000
B1216035527105N01348359EA0110201193000012000000
B1216075527171N01348321EA0110001189000012000000
B1216115527239N01348294EA0109701189000012000000
B1216155527305N01348269EA0109601186000008000000
B1216195527373N01348245EA0109201182000008000000
B1216235527443N01348217EA0109101181000012000000
B1216275527512N01348193EA0108901182000012000000
B1216315527578N01348171EA0109401188000012000000
B1216355527643N01348152EA0110001193000012000000
B1216395527706N01348137EA0110501198000012000000
B1216435527767N01348121EA0110901202000012000000
B1216475527828N01348102EA0111201203000012000000
B1216515527890N01348077EA0111301205000012000000
B1216555527951N01348050EA0111501207000012000000
B1216595528014N01348024EA0111601207000012000000
B1217035528077N01347995EA0111501204000016000000
B1217075528142N01347965EA0111101200000012000000
B1217115528207N01347938EA0110601194000012000000
B1217155528276N01347915EA0109401177000016000000
B1217195528354N01347890EA0107301154000016000000
B1217235528436N01347864EA0105901148000016000000
B1217275528518N01347842EA0105501144000016000000
B1217315528599N01347822EA0105101139000016000000
B1217355528679N01347803EA0104801138000016000000
B1217395528760N01347786EA0104701138000016000000
B1217435528833N01347774EA0106101161000016000000
B1217475528891N01347768EA0108201172000012000000
B1217515528951N01347764EA0108001169000012000000
B1217555529012N01347756EA0108001172000012000000
B1217595529072N01347749EA0108301175000012000000
B1218035529129N01347744EA0108701178000012000000
B1218075529186N01347738EA0108901180000012000000
B1218115529240N01347731EA0109401187000012000000
B1218155529292N01347726EA0110001191000012000000
B1218195529345N01347718EA0110201193000016000000
B1218235529399N01347710EA0110501197000016000000
B1218275529455N01347709EA0110601192000016000000
B1218315529515N01347707EA0110101193000016000000
B1218355529571N01347700EA0110701199000016000000
B1218395529631N01347694EA0110601196000016000000
B1218435529692N01347686EA0110601201000016000000
B1218475529750N01347674EA0111201208000016000000
B1218515529805N01347665EA0112001216000016000000
B1218555529860N01347656EA0112501219000016000000
B1218595529914N01347649EA0112501216000016000000
B1219035529969N01347642EA0112401214000016000000
B1219075530025N01347631EA0112001210000016000000
B1219115530082N01347618EA0111801212000016000000
B1219155530140N01347610EA0111701205000016000000
B1219195530205N01347603EA0110801191000016000000
B1219235530274N01347593EA0109001167000016000000
B1219275530352N01347561EA0105501126000020000000
B1219315530433N01347495EA0103101119000020000000
B1219355530510N01347426EA0102601115000020000000
B1219395530585N01347357EA0102201115000020000000
B1219435530651N01347300EA0103501147000020000000
B1219475530698N01347258EA0107001167000016000000
B1219515530745N01347214EA0107401161000012000000
B1219555530800N01347163EA0106401148000016000000
B1219595530857N01347103EA0105601146000016000000
B1220035530915N01347044EA0105701148000012000000
B1220075530975N01346986EA0105801149000016000000
B1220115531035N01346930EA0105901150000016000000
B1220155531095N01346876EA0106001152000016000000
B1220195531154N01346821EA0106201154000016000000
B1220235531214N01346768EA0106401156000016000000
B1220275531274N01346717EA0106501154000012000000
B1220315531334N01346665EA0106201154000012000000
B1220355531394N01346612EA0106401156000016000000
B1220395531451N01346557EA0106701160000016000000
B1220435531505N01346505EA0107201164000016000000
B1220475531560N01346455EA0107301162000012000000
B1220515531615N01346403EA0106701152000012000000
B1220555531673N01346353EA0105701145000016000000
B1220595531732N01346306EA0105101137000016000000
B1221035531794N01346257EA0104001124000016000000
B1221075531863N01346204EA0102401109000016000000
B1221115531929N01346150EA0102301123000016000000
B1221155531989N01346100EA0103101117000016000000
B1221195532053N01346044EA0101801106000016000000
B1221235532118N01345993EA0101401107000016000000
B1221275532183N01345950EA0101701108000012000000
B1221315532246N01345907EA0101401105000012000000
B1221355532308N01345858EA0101301105000012000000
B1221395532367N01345807EA0101301104000012000000
B1221435532427N01345758EA0101301102000012000000
B1221475532487N01345707EA0100901097000012000000
B1221515532545N01345655EA0100701097000016000000
B1221555532603N01345607EA0100401087000016000000
B1221595532664N01345551EA0098301057000016000000
B1222035532733N01345491EA0095201026000016000000
B1222075532809N01345421EA0092301010000020000000
B1222115532882N01345347EA0091801014000024000000
B1222155532939N01345290EA0094201047000020000000
B1222195532991N01345238EA0095501046000020000000
B1222235533041N01345183EA0095801045000016000000
B1222275533094N01345121EA0094601029000016000000
B1222315533149N01345053EA0093801027000016000000
B1222355533207N01344982EA0093001013000016000000
B1222395533266N01344909EA0092501016000016000000
B1222435533323N01344836EA0092101004000016000000
B1222475533383N01344758EA0091201001000016000000
B1222515533442N01344683EA0090800994000016000000
B1222555533500N01344605EA0090200990000016000000
B1222595533558N01344527EA0089700987000016000000
B1223035533619N01344454EA0089800985000016000000
B1223075533678N01344380EA0089800993000016000000
B1223115533732N01344307EA0090000988000016000000
B1223155533790N01344229EA0089200980000016000000
B1223195533849N01344156EA0088500978000016000000
B1223235533910N01344085EA0088200974000016000000
B1223275533972N01344021EA0088200974000012000000
B1223315534034N01343956EA0088000971000012000000
B1223355534092N01343887EA0088100973000012000000
B1223395534151N01343820EA0087900969000012000000
B1223435534211N01343752EA0087500965000012000000
B1223475534271N01343687EA0087200962000012000000
B1223515534332N01343622EA0087100963000012000000
B1223555534391N01343557EA0087200965000012000000
B1223595534447N01343484EA0087300964000012000000
B1224035534503N01343413EA0087300964000012000000
B1224075534560N01343346EA0087400965000012000000
B1224115534619N01343284EA0087200961000012000000
B1224155534680N01343222EA0087000962000012000000
B1224195534740N01343154EA0087000961000012000000
B1224235534801N01343088EA0086800959000012000000
B1224275534862N01343027EA0086800964000012000000
B1224315534918N01342967EA0087500966000012000000
B1224355534975N01342907EA0087200960000012000000
B1224395535034N01342842EA0086800957000012000000
B1224435535093N01342773EA0086000951000012000000
B1224475535152N01342702EA0086300958000012000000
B1224515535207N01342633EA0086400954000012000000
B1224555535261N01342564EA0086000948000012000000
B1224595535317N01342491EA0085000937000012000000
B1225035535374N01342419EA0084300933000012000000
B1225075535431N01342348EA0083800928000012000000
B1225115535487N01342275EA0083500928000012000000
B1225155535541N01342202EA0083600928000012000000
B1225195535591N01342127EA0083400925000012000000
B1225235535639N01342048EA0083100921000012000000
B1225275535689N01341964EA0082200908000012000000
B1225315535746N01341885EA0081100898000012000000
B1225355535807N01341811EA0080400898000012000000
B1225395535867N01341742EA0080400894000012000000
B1225435535928N01341671EA0079800887000016000000
B1225475535985N01341590EA0079200882000012000000
B1225515536040N01341499EA0078600877000016000000
B1225555536089N01341409EA0078400877000012000000
B1225595536137N01341325EA0078600880000012000000
B1226035536187N01341246EA0078600877000016000000
B1226075536231N01341161EA0078700882000012000000
B1226115536263N01341064EA0079000883000012000000
B1226155536275N01340957EA0079300886000012000000
B1226195536260N01340852EA0079300882000012000000
B1226235536221N01340754EA0078500875000016000000
B1226275536174N01340664EA0078100871000016000000
B1226315536124N01340571EA0077300863000016000000
B1226355536071N01340480EA0076800861000016000000
B1226395536014N01340397EA0076700859000016000000
B1226435535955N01340316EA0076300853000016000000
B1226475535896N01340234EA0075800853000012000000
B1226515535836N01340157EA0076100855000016000000
B1226555535776N01340087EA0076200855000016000000
B1226595535715N01340020EA0076100854000012000000
B1227035535652N01339962EA0076100856000012000000
B1227075535587N01339918EA0076400858000012000000
B1227115535522N01339875EA0076600859000012000000
B1227155535461N01339835EA0076800860000012000000
B1227195535399N01339799EA0076200853000012000000
B1227235535334N01339751EA0075600844000012000000
B1227275535277N01339678EA0075200846000012000000
B1227315535247N01339579EA0075400848000012000000
B1227355535249N01339480EA0075800852000012000000
B1227395535281N01339405EA0075800848000012000000
B1227435535333N01339368EA0075400844000012000000
B1227475535392N01339374EA0075000843000012000000
B1227515535452N01339414EA0074900843000016000000
B1227555535504N01339479EA0074900842000016000000
B1227595535551N01339559EA0074900843000016000000
B1228035535589N01339653EA0074700838000016000000
B1228075535621N01339756EA0074000832000016000000
B1228115535647N01339868EA0073400825000016000000
B1228155535669N01339982EA0072800822000016000000
B1228195535694N01340096EA0072600818000016000000
B1228235535711N01340216EA0072100815000016000000
B1228275535710N01340345EA0071800811000016000000
B1228315535694N01340471EA0071600812000016000000
B1228355535673N01340589EA0071900813000012000000
B1228395535634N01340690EA0071800809000012000000
B1228435535569N01340744EA0071000800000012000000
B1228475535496N01340718EA0069900789000012000000
B1228515535448N01340624EA0069400788000016000000
B1228555535443N01340508EA0069600794000016000000
B1228595535478N01340427EA0070300798000016000000
B1229035535538N01340406EA0070200793000016000000
B1229075535599N01340462EA0069500785000016000000
B1229115535637N01340576EA0069000784000016000000
B1229155535641N01340713EA0068900781000016000000
B1229195535607N01340844EA0068300767000016000000
B1229235535533N01340939EA0065700736000016000000
B1229275535433N01340983EA0062700705000020000000
B1229315535320N01340983EA0059700682000024000000
B1229355535200N01340969EA0057000648000032000000
B1229395535073N01340950EA0054000623000036000000
B1229435534941N01340928EA0052100606000036000000
B1229475534810N01340904EA0050900600000036000000
B1229515534680N01340879EA0050500597000036000000
B1229555534554N01340857EA0050400605000036000000
B1229595534456N01340804EA0054400668000032000000
B1230035534410N01340706EA0059600704000028000000
B1230075534419N01340606EA0061300711000024000000
B1230115534473N01340589EA0061900716000020000000
B1230155534524N01340649EA0062000712000020000000
B1230195534575N01340722EA0061700708000020000000
B1230235534618N01340814EA0061400707000016000000
B1230275534619N01340936EA0061300705000016000000
B1230315534566N01341023EA0060800699000016000000
B1230355534492N01341044EA0060300697000016000000
B1230395534416N01341047EA0060300696000020000000
B1230435534342N01341051EA0060100696000016000000
B1230475534267N01341054EA0060100692000020000000
B1230515534189N01341057EA0059600687000020000000
B1230555534105N01341045EA0058300666000020000000
B1230595534021N01340980EA0055100629000020000000
B1231035533955N01340837EA0051500594000024000000
B1231075533933N01340642EA0048900579000028000000
B1231115533948N01340445EA0048300573000032000000
B1231155533974N01340251EA0047900570000032000000
B1231195534000N01340061EA0047500565000032000000
B1231235534026N01339871EA0047000559000032000000
B1231275534053N01339684EA0046100551000032000000
B1231315534083N01339497EA0045200543000036000000
B1231355534112N01339311EA0044500537000032000000
B1231395534142N01339127EA0043800529000032000000
B1231435534173N01338942EA0043000522000032000000
B1231475534202N01338760EA0042700520000036000000
B1231515534230N01338582EA0042300514000036000000
B1231555534281N01338421EA0041800513000036000000
B1231595534363N01338313EA0041500506000036000000
B1232035534464N01338254EA0040300491000036000000
B1232075534575N01338232EA0038700474000036000000
B1232115534689N01338226EA0036900459000036000000
B1232155534804N01338214EA0036200450000036000000
B1232195534918N01338201EA0035400445000036000000
B1232235535030N01338197EA0034900443000036000000
B1232275535113N01338144EA0036800489000032000000
B1232315535092N01338036EA0041200506000032000000
B1232355535021N01338061EA0041300509000028000000
B1232395534973N01338161EA0041400508000024000000
B1232435534961N01338295EA0041200507000024000000
B1232475534975N01338423EA0041200506000020000000
B1232515535013N01338530EA0041000503000020000000
B1232555535070N01338601EA0040600500000020000000
B1232595535132N01338642EA0040400500000020000000
B1233035535197N01338668EA0039900492000016000000
B1233075535265N01338691EA0039400487000016000000
B1233115535334N01338711EA0039000484000016000000
B1233155535404N01338727EA0038700481000012000000
B1233195535472N01338743EA0038500481000012000000
B1233235535539N01338760EA0038500479000012000000
B1233275535606N01338778EA0038400479000012000000
