ACAM3X6
HFDTE100606
HFFXA050
HFPLTPILOT:Peter Cutting           
HFGTYGLIDERTYPE:LS8-b       
HFGIDGLIDERID:SE-USP      
HFDTM100GPSDATUM:
HFRFWFIRMWAREVERSION:F2.6
HFRHWHARDWAREVERSION:300 Series Version 2
HFFTYFRTYPE:CAMBRIDGE AERO INSTRUMENTS, 302+
HFGPS:GARMIN,LVS-25,12,18000
HFPRSPRESSALTSENSOR:INTERSEMA, MS5534-AP, 20000
I033638FXA3941ENL4247REX
LCAMSBVER:5FWVER:F26300
C040606100914040606000101
C0000000N00000000WTAKEOFF     
C5535817N01340567ESovde flp   
C5657250N01355583EFeringe flp 
C5535817N01340567ESovde flp   
C0000000N00000000WLANDING     
B1010365535649N01340869EA-007600039000012000000
B1010385535649N01340869EA-007500039000012000000
B1010405535649N01340869EA-007600039000012000000
B1010425535649N01340869EA-007400039000012000000
B1010445535649N01340869EA-007500039000008000000
B1010465535649N01340869EA-007500039000008000000
B1010485535649N01340869EA-007500039000008000000
B1010505535649N01340869EA-007400039000008000000
B1010525535649N01340867EA-007400040000012000000
B1010545535649N01340867EA-007400040000012000000
B1010565535649N01340867EA-007400040000016000000
B1010585535649N01340867EA-007400040000012000000
B1011005535649N01340866EA-007400039000016000000
B1011025535651N01340863EA-007500039000024000000
B1011045535654N01340857EA-007400039000044000000
B1011075535660N01340843EA-007500039000076000000
B1011115535673N01340815EA-007400039000264000000
B1011155535690N01340776EA-007500039000616000000
B1011195535714N01340729EA-007400039000684000000
B1011235535741N01340672EA-007400039000696000000
B1011275535775N01340605EA-007400038000644000000
B1011315535812N01340527EA-007300040000536000000
B1011355535857N01340441EA-007200042000404000000
B1011395535901N01340350EA-007000052000300000000
B1011435535949N01340261EA-005700063000212000000
B1011475535997N01340167EA-005100069000184000000
B1011515536042N01340068EA-004300077000148000000
B1011555536084N01339965EA-003400089000132000000
B1011595536126N01339861EA-002200100000120000000
B1012035536167N01339760EA-001000111000116000000
B1012075536204N01339656EA0000000121000112000000
B1012115536244N01339552EA0000700127000100000000
B1012155536284N01339449EA0001400137000104000000
B1012195536322N01339348EA0002600150000100000000
B1012235536361N01339245EA0003400151000100000000
B1012275536403N01339142EA0003700158000096000000
B1012315536445N01339038EA0004500167000100000000
B1012355536490N01338933EA0005500178000104000000
B1012395536534N01338829EA0007100197000112000000
B1012435536573N01338726EA0008900216000108000000
B1012475536614N01338623EA0010500228000104000000
B1012515536653N01338519EA0011500235000100000000
B1012555536694N01338419EA0012100244000092000000
B1012595536735N01338324EA0013500257000092000000
B1013035536776N01338228EA0014400265000092000000
B1013075536816N01338126EA0014900269000100000000
B1013115536855N01338022EA0015300277000100000000
B1013155536895N01337919EA0016400289000108000000
B1013195536934N01337816EA0017400298000112000000
B1013235536977N01337713EA0018300302000088000000
B1013275537016N01337606EA0019100315000072000000
B1013315537055N01337502EA0020900337000060000000
B1013355537093N01337398EA0022700351000052000000
B1013395537125N01337287EA0023400360000052000000
B1013435537132N01337166EA0024600371000048000000
B1013475537101N01337062EA0025600378000048000000
B1013515537040N01337013EA0026200387000044000000
B1013555536977N01337036EA0027100398000044000000
B1013595536936N01337121EA0028300406000040000000
B1014035536908N01337225EA0029400419000040000000
B1014075536884N01337327EA0030600432000036000000
B1014115536856N01337430EA0031700444000036000000
B1014155536834N01337534EA0033200458000036000000
B1014195536811N01337638EA0034700473000036000000
B1014235536789N01337743EA0035600487000032000000
B1014275536765N01337849EA0037300503000036000000
B1014315536767N01337951EA0038200506000032000000
B1014355536819N01337975EA0037600487000028000000
B1014395536858N01337892EA0035900479000024000000
B1014435536876N01337794EA0035600477000024000000
B1014475536886N01337694EA0035200473000020000000
B1014515536889N01337591EA0034900472000020000000
B1014555536887N01337489EA0035100476000020000000
B1014595536878N01337375EA0033700453000020000000
B1015035536826N01337329EA0033500465000020000000
B1015075536794N01337391EA0034700467000020000000
B1015115536786N01337482EA0034200463000020000000
B1015155536783N01337574EA0033800461000020000000
B1015195536796N01337667EA0033700461000028000000
B1015235536845N01337715EA0033700461000028000000
B1015275536897N01337669EA0033800463000024000000
B1015315536891N01337576EA0033900463000024000000
B1015355536845N01337544EA0033900461000024000000
B1015395536798N01337577EA0033700460000020000000
B1015435536763N01337638EA0033600459000020000000
B1015475536764N01337728EA0033700463000016000000
B1015515536816N01337755EA0033500455000020000000
B1015555536838N01337659EA0032700451000024000000
B1015595536794N01337607EA0033200460000020000000
B1016035536754N01337648EA0033800462000020000000
B1016075536755N01337742EA0033400462000020000000
B1016115536799N01337799EA0033900469000020000000
B1016155536852N01337772EA0034400473000020000000
B1016195536868N01337682EA0034700473000020000000
B1016235536833N01337616EA0034100465000020000000
B1016275536787N01337647EA0034300473000020000000
B1016315536764N01337728EA0034600467000020000000
B1016355536800N01337806EA0033800466000020000000
B1016395536855N01337777EA0034400472000020000000
B1016435536860N01337682EA0034700473000020000000
B1016475536816N01337641EA0034700471000020000000
B1016515536778N01337704EA0034300471000020000000
B1016555536790N01337802EA0034700472000020000000
B1016595536837N01337863EA0034700471000020000000
B1017035536890N01337833EA0034700473000016000000
B1017075536903N01337742EA0034700470000020000000
B1017115536860N01337695EA0034500471000020000000
B1017155536830N01337764EA0034700473000020000000
B1017195536861N01337842EA0034800474000016000000
B1017235536916N01337830EA0034900474000020000000
B1017275536937N01337743EA0034700473000020000000
B1017315536902N01337687EA0035000475000020000000
B1017355536860N01337721EA0034800471000024000000
B1017395536860N01337811EA0034600472000020000000
B1017435536904N01337859EA0034900475000020000000
B1017475536955N01337823EA0034600466000020000000
B1017515536967N01337728EA0033800465000020000000
B1017555536933N01337671EA0034300469000016000000
B1017595536887N01337685EA0034600471000016000000
B1018035536855N01337743EA0034800471000020000000
B1018075536842N01337828EA0034400463000016000000
B1018115536851N01337929EA0033500458000016000000
B1018155536867N01338041EA0032500439000020000000
B1018195536884N01338170EA0030600426000024000000
B1018235536903N01338304EA0029900423000024000000
B1018275536921N01338436EA0029500420000024000000
B1018315536942N01338569EA0029300415000024000000
B1018355536959N01338703EA0029300424000024000000
B1018395536976N01338830EA0030100427000024000000
B1018435536995N01338943EA0030900436000024000000
B1018475537016N01339054EA0030600422000020000000
B1018515537042N01339179EA0028600408000020000000
B1018555537066N01339306EA0028200408000020000000
B1018595537081N01339428EA0028500409000024000000
B1019035537081N01339550EA0028200409000020000000
B1019075537077N01339667EA0028500410000020000000
B1019115537069N01339774EA0028900419000020000000
B1019155537063N01339877EA0029100411000020000000
B1019195537041N01339970EA0028700410000020000000
B1019235536988N01339998EA0028300405000020000000
B1019275536946N01339926EA0027900403000024000000
B1019315536956N01339818EA0028300410000024000000
B1019355536988N01339719EA0028500405000024000000
B1019395537032N01339634EA0027900400000024000000
B1019435537093N01339613EA0027600399000024000000
B1019475537133N01339684EA0026900390000024000000
B1019515537128N01339780EA0026700389000024000000
B1019555537105N01339864EA0026700390000020000000
B1019595537068N01339931EA0026500387000020000000
B1020035537023N01339975EA0026200380000020000000
B1020075536965N01340014EA0024800370000020000000
B1020115536912N01340051EA0025500380000028000000
B1020155536865N01340108EA0025300370000024000000
B1020195536808N01340157EA0023700357000024000000
B1020235536744N01340196EA0022800350000024000000
B1020275536679N01340233EA0022200348000024000000
B1020315536621N01340261EA0023100359000032000000
B1020355536565N01340291EA0023300356000040000000
B1020395536503N01340334EA0021700319000048000000
B1020435536430N01340416EA0017500287000160000000
B1020475536384N01340520EA0018800337000532000000
B1020515536378N01340628EA0022400355000620000000
B1020555536409N01340718EA0023500359000592000000
B1020595536469N01340748EA0023800360000608000000
B1021035536531N01340715EA0023900362000596000000
B1021075536575N01340632EA0024300365000568000000
B1021115536591N01340523EA0024300367000580000000
B1021155536573N01340425EA0025100377000668000000
B1021195536527N01340382EA0026300389000604000000
B1021235536477N01340410EA0026800389000588000000
B1021275536447N01340502EA0026800392000604000000
B1021315536458N01340610EA0027400401000572000000
B1021355536510N01340671EA0027900400000652000000
B1021395536575N01340676EA0027800400000648000000
B1021435536640N01340668EA0027900402000576000000
B1021475536704N01340654EA0028200405000544000000
B1021515536768N01340642EA0028500409000520000000
B1021555536832N01340625EA0028800413000504000000
B1021595536894N01340609EA0029300418000492000000
B1022035536954N01340589EA0030000430000496000000
B1022075537012N01340567EA0030900435000520000000
B1022115537071N01340546EA0031400441000500000000
B1022155537129N01340524EA0032100452000504000000
B1022195537186N01340501EA0033300460000520000000
B1022235537244N01340481EA0033700464000500000000
B1022275537303N01340464EA0034100468000496000000
B1022315537362N01340450EA0034600473000492000000
B1022355537423N01340433EA0035000481000476000000
B1022395537483N01340416EA0035900487000484000000
B1022435537545N01340398EA0036000486000484000000
B1022475537609N01340386EA0036000487000472000000
B1022515537673N01340376EA0036300493000468000000
B1022555537735N01340372EA0037000500000460000000
B1022595537795N01340373EA0037700507000460000000
B1023035537852N01340376EA0038400513000468000000
B1023075537909N01340380EA0038800518000472000000
B1023115537965N01340382EA0039300524000468000000
B1023155538021N01340386EA0039800526000472000000
B1023195538077N01340390EA0040100530000456000000
B1023235538134N01340393EA0040500535000448000000
B1023275538189N01340398EA0041000539000444000000
B1023315538246N01340404EA0041200541000456000000
B1023355538304N01340408EA0041700546000456000000
B1023395538363N01340414EA0042400552000480000000
B1023435538421N01340419EA0042900559000484000000
B1023475538479N01340424EA0043600565000512000000
B1023515538535N01340429EA0043900567000500000000
B1023555538592N01340438EA0044000568000544000000
B1023595538649N01340449EA0044600576000580000000
B1024035538706N01340458EA0045400582000552000000
B1024075538765N01340469EA0045600585000536000000
B1024115538826N01340482EA0046000588000624000000
B1024155538886N01340497EA0046500596000652000000
B1024195538945N01340510EA0047400604000656000000
B1024235539006N01340525EA0047900611000672000000
B1024275539066N01340540EA0048700619000664000000
B1024315539125N01340553EA0049400628000652000000
B1024355539183N01340567EA0050100633000644000000
B1024395539240N01340583EA0050600638000668000000
B1024435539298N01340597EA0051200644000628000000
B1024475539354N01340612EA0051600647000576000000
B1024515539408N01340631EA0051900651000584000000
B1024555539461N01340651EA0052400658000572000000
B1024595539513N01340672EA0053200665000524000000
B1025035539564N01340693EA0053700670000504000000
B1025075539616N01340714EA0054000674000480000000
B1025115539668N01340735EA0054400679000476000000
B1025155539720N01340757EA0054900681000472000000
B1025195539771N01340776EA0055300687000472000000
B1025235539823N01340796EA0055700692000456000000
B1025275539875N01340813EA0056400698000464000000
B1025315539927N01340830EA0056800700000456000000
B1025355539979N01340845EA0057300702000472000000
B1025395540033N01340862EA0057400704000468000000
B1025435540087N01340879EA0057400705000460000000
B1025475540140N01340896EA0057500706000456000000
B1025515540193N01340911EA0057600705000448000000
B1025555540247N01340930EA0057300701000444000000
B1025595540303N01340949EA0057100702000468000000
B1026035540358N01340971EA0057300703000464000000
B1026075540414N01340996EA0057700708000488000000
B1026115540472N01341022EA0058100713000488000000
B1026155540527N01341047EA0058600717000480000000
B1026195540583N01341073EA0058900721000484000000
B1026235540638N01341100EA0059300727000480000000
B1026275540691N01341127EA0060000732000456000000
B1026315540746N01341153EA0060500738000460000000
B1026355540798N01341179EA0061000744000448000000
B1026395540851N01341204EA0061400747000428000000
B1026435540906N01341231EA0061700749000448000000
B1026475540960N01341259EA0062200756000448000000
B1026515541014N01341285EA0062600756000456000000
B1026555541067N01341309EA0062700761000484000000
B1026595541122N01341333EA0063200764000488000000
B1027035541175N01341356EA0063400767000484000000
B1027075541229N01341376EA0063800770000488000000
B1027115541284N01341396EA0064000772000492000000
B1027155541339N01341415EA0064100772000480000000
B1027195541393N01341434EA0064000771000500000000
B1027235541448N01341459EA0064100773000496000000
B1027275541502N01341489EA0064100774000488000000
B1027315541556N01341517EA0064300776000468000000
B1027355541610N01341546EA0064600779000456000000
B1027395541665N01341577EA0064700781000492000000
B1027435541720N01341610EA0065000787000524000000
B1027475541774N01341641EA0065500793000516000000
B1027515541829N01341671EA0066200800000540000000
B1027555541882N01341697EA0066900806000528000000
B1027595541937N01341720EA0067400812000532000000
B1028035541990N01341742EA0068200818000532000000
B1028075542042N01341764EA0068700823000532000000
B1028115542095N01341784EA0069300828000536000000
B1028155542146N01341805EA0069700833000532000000
B1028195542198N01341824EA0070100837000540000000
B1028235542250N01341842EA0070700842000516000000
B1028275542302N01341858EA0070900845000512000000
B1028315542354N01341873EA0071200848000532000000
B1028355542405N01341890EA0071600850000532000000
B1028395542459N01341902EA0071800852000592000000
B1028435542514N01341912EA0072000856000604000000
B1028475542570N01341920EA0072400859000632000000
B1028515542624N01341929EA0072700863000648000000
B1028555542679N01341941EA0073100867000664000000
B1028595542734N01341954EA0073500871000652000000
B1029035542788N01341966EA0073800874000652000000
B1029075542843N01341977EA0074200876000644000000
B1029115542897N01341990EA0074300878000680000000
B1029155542952N01342003EA0074600882000668000000
B1029195543007N01342016EA0074900884000708000000
B1029235543061N01342027EA0075100885000708000000
B1029275543116N01342029EA0075100886000696000000
B1029315543173N01342024EA0075200885000740000000
B1029355543229N01342018EA0075100886000780000000
B1029395543286N01342010EA0075200887000828000000
B1029435543343N01341997EA0075500893000840000000
B1029475543397N01341983EA0076100898000804000000
B1029515543449N01341967EA0076600902000804000000
B1029555543501N01341950EA0077000907000800000000
B1029595543551N01341931EA0077500911000776000000
B1030035543601N01341902EA0078000914000748000000
B1030075543647N01341863EA0078300919000728000000
B1030115543694N01341821EA0078800921000636000000
B1030155543742N01341781EA0078800923000688000000
B1030195543790N01341736EA0079300927000660000000
B1030235543837N01341686EA0079600931000652000000
B1030275543884N01341637EA0079800934000668000000
B1030315543931N01341586EA0080200937000644000000
B1030355543979N01341534EA0080400939000656000000
B1030395544028N01341478EA0080600942000680000000
B1030435544078N01341422EA0081000946000724000000
B1030475544125N01341364EA0081500951000680000000
B1030515544171N01341308EA0081800956000692000000
B1030555544218N01341253EA0082200958000664000000
B1030595544266N01341199EA0082300960000700000000
B1031035544316N01341145EA0082600963000724000000
B1031075544365N01341093EA0083100966000744000000
B1031115544414N01341043EA0083300970000760000000
B1031155544461N01340992EA0083700972000736000000
B1031195544508N01340941EA0084000977000788000000
B1031235544551N01340880EA0084500981000804000000
B1031275544580N01340793EA0084800983000812000000
B1031315544583N01340685EA0085100985000780000000
B1031355544557N01340580EA0085100985000816000000
B1031395544505N01340511EA0085300988000776000000
B1031435544444N01340498EA0085400987000844000000
B1031475544392N01340546EA0085500989000852000000
B1031515544362N01340627EA0085600990000880000000
B1031555544349N01340718EA0085800994000892000000
B1031595544343N01340809EA0086200997000908000000
B1032035544339N01340900EA0086500999000936000000
B1032075544339N01340991EA0086601000000892000000
B1032115544342N01341082EA0086701003000956000000
B1032155544360N01341161EA0087101006000964000000
B1032195544407N01341175EA0087101004000896000000
B1032235544453N01341112EA0086801001000908000000
B1032275544499N01341044EA0086801003000952000000
B1032315544548N01340991EA0087201008000988000000
B1032355544594N01340939EA0087701013000928000000
B1032395544635N01340883EA0088301018000864000000
B1032435544678N01340824EA0088801023000844000000
B1032475544721N01340765EA0089101025000788000000
B1032515544764N01340702EA0089401029000828000000
B1032555544804N01340638EA0089601032000792000000
B1032595544845N01340572EA0090001034000808000000
B1033035544884N01340502EA0089901035000848000000
B1033075544924N01340430EA0090201036000820000000
B1033115544963N01340359EA0090301039000836000000
B1033155545001N01340286EA0090601042000904000000
B1033195545035N01340208EA0090801043000864000000
B1033235545055N01340108EA0091001045000904000000
B1033275545055N01339996EA0091201049000888000000
B1033315545036N01339888EA0091501053000892000000
B1033355544998N01339796EA0091901056000880000000
B1033395544946N01339734EA0092201057000904000000
B1033435544885N01339709EA0092301059000956000000
B1033475544828N01339730EA0092601062000932000000
B1033515544785N01339788EA0092701062000936000000
B1033555544758N01339868EA0092701062000952000000
B1033595544738N01339955EA0092601062000976000000
B1034035544723N01340043EA0092601063000996000000
B1034075544713N01340134EA0092801065000996000000
B1034115544710N01340225EA0093001067000996000000
B1034155544711N01340316EA0093101067000996000000
B1034195544715N01340408EA0093301070000996000000
B1034235544724N01340497EA0093601073000996000000
B1034275544737N01340583EA0094001076000988000000
B1034315544751N01340667EA0094301080000996000000
B1034355544768N01340750EA0094701084000996000000
B1034395544786N01340831EA0095301089000996000000
B1034435544804N01340911EA0095801096000988000000
B1034475544824N01340987EA0096401101000952000000
B1034515544850N01341056EA0096901105000908000000
B1034555544885N01341110EA0097401110000856000000
B1034595544931N01341138EA0097801115000756000000
B1035035544981N01341139EA0098201117000764000000
B1035075545033N01341127EA0098401119000660000000
B1035115545084N01341116EA0098301118000508000000
B1035155545135N01341103EA0098101116000316000000
B1035195545185N01341091EA0098001114000232000000
B1035235545236N01341079EA0098001115000164000000
B1035275545285N01341057EA0098001114000108000000
B1035315545335N01341028EA0097801112000072000000
B1035355545383N01340987EA0097801114000052000000
B1035395545413N01340900EA0097701108000040000000
B1035435545418N01340781EA0096901102000032000000
B1035475545396N01340671EA0097101107000028000000
B1035515545352N01340594EA0097201106000024000000
B1035555545295N01340555EA0097001102000028000000
B1035595545233N01340533EA0096701099000024000000
B1036035545172N01340523EA0096501098000024000000
B1036075545110N01340521EA0096301094000028000000
B1036115545048N01340523EA0095901091000024000000
B1036155544988N01340540EA0095401087000020000000
B1036195544937N01340585EA0095001083000020000000
B1036235544901N01340654EA0094601079000024000000
B1036275544882N01340735EA0094301077000020000000
B1036315544880N01340815EA0094201075000020000000
B1036355544886N01340895EA0093901072000020000000
B1036395544889N01340975EA0093601071000016000000
B1036435544886N01341057EA0093401068000016000000
B1036475544863N01341134EA0093101066000020000000
B1036515544815N01341178EA0093001065000020000000
B1036555544758N01341173EA0092701059000020000000
B1036595544706N01341113EA0091801052000016000000
B1037035544681N01341012EA0091401046000016000000
B1037075544691N01340911EA0090801042000016000000
B1037115544725N01340848EA0090401037000016000000
B1037155544771N01340830EA0089801031000016000000
B1037195544817N01340824EA0089401030000024000000
B1037235544863N01340815EA0089201026000024000000
B1037275544908N01340805EA0088701021000020000000
B1037315544958N01340802EA0088201014000020000000
B1037355545010N01340802EA0087201005000020000000
B1037395545067N01340807EA0086601000000020000000
B1037435545128N01340810EA0086000998000024000000
B1037475545185N01340813EA0086301000000024000000
B1037515545241N01340810EA0086701006000024000000
B1037555545296N01340805EA0086800999000024000000
B1037595545356N01340798EA0085800990000024000000
B1038035545419N01340794EA0085200987000020000000
B1038075545483N01340791EA0084800984000024000000
B1038115545547N01340787EA0084500981000028000000
B1038155545610N01340781EA0084200977000032000000
B1038195545674N01340774EA0083800973000036000000
B1038235545737N01340768EA0083600969000040000000
B1038275545799N01340761EA0083200965000036000000
B1038315545864N01340754EA0082500958000032000000
B1038355545929N01340750EA0081800952000028000000
B1038395545997N01340745EA0081100943000032000000
B1038435546065N01340737EA0080300937000032000000
B1038475546136N01340731EA0080000935000028000000
B1038515546203N01340728EA0079700932000032000000
B1038555546271N01340729EA0079500929000032000000
B1038595546338N01340732EA0079200927000032000000
B1039035546403N01340732EA0079100924000032000000
B1039075546470N01340728EA0078600920000036000000
B1039115546536N01340724EA0078200912000036000000
B1039155546604N01340720EA0077300904000036000000
B1039195546676N01340716EA0075800884000032000000
B1039235546756N01340715EA0074000871000036000000
B1039275546836N01340728EA0073700872000032000000
B1039315546914N01340741EA0073600869000032000000
B1039355546987N01340753EA0073700872000028000000
B1039395547060N01340762EA0073600869000024000000
B1039435547131N01340770EA0073500869000020000000
B1039475547203N01340776EA0073100866000024000000
B1039515547273N01340780EA0073000863000024000000
B1039555547343N01340787EA0072500859000024000000
B1039595547416N01340796EA0072100853000024000000
B1040035547489N01340801EA0071700855000024000000
B1040075547558N01340807EA0071500849000024000000
B1040115547628N01340818EA0070800842000028000000
B1040155547700N01340831EA0070400837000024000000
B1040195547770N01340845EA0070000837000028000000
B1040235547837N01340854EA0070100833000028000000
B1040275547908N01340866EA0069000821000032000000
B1040315547980N01340876EA0068000812000032000000
B1040355548057N01340891EA0066800798000036000000
B1040395548138N01340908EA0065500788000032000000
B1040435548218N01340923EA0065300786000032000000
B1040475548295N01340937EA0065300786000032000000
B1040515548373N01340952EA0064800780000028000000
B1040555548452N01340967EA0064200771000028000000
B1040595548532N01340982EA0063500769000028000000
B1041035548608N01340997EA0063100759000028000000
B1041075548689N01341014EA0061600748000028000000
B1041115548771N01341025EA0061100740000028000000
B1041155548850N01341034EA0060700740000028000000
B1041195548927N01341043EA0060700739000032000000
B1041235549000N01341047EA0060600736000028000000
B1041275549072N01341052EA0059900729000028000000
B1041315549148N01341053EA0059200717000028000000
B1041355549226N01341053EA0058100711000032000000
B1041395549299N01341053EA0058300718000032000000
B1041435549370N01341051EA0058000704000028000000
B1041475549445N01341051EA0056900699000028000000
B1041515549522N01341056EA0056500695000028000000
B1041555549599N01341057EA0056000692000028000000
B1041595549668N01341038EA0056800705000024000000
B1042035549737N01341012EA0056500686000024000000
B1042075549811N01340973EA0055000680000024000000
B1042115549886N01340932EA0054400671000028000000
B1042155549962N01340895EA0054200674000024000000
B1042195550036N01340857EA0054200667000024000000
B1042235550112N01340815EA0053100658000024000000
B1042275550188N01340778EA0053000662000024000000
B1042315550262N01340742EA0052900658000024000000
B1042355550336N01340703EA0052600654000024000000
B1042395550411N01340666EA0052200652000024000000
B1042435550485N01340625EA0052200651000024000000
B1042475550560N01340583EA0051900648000028000000
B1042515550634N01340537EA0051700648000028000000
B1042555550708N01340493EA0051800646000028000000
B1042595550781N01340451EA0051200638000028000000
B1043035550860N01340408EA0050300630000028000000
B1043075550937N01340363EA0050200639000028000000
B1043115551009N01340321EA0050700630000028000000
B1043155551089N01340280EA0049300621000028000000
B1043195551171N01340233EA0048400607000028000000
B1043235551249N01340185EA0048300631000032000000
B1043275551273N01340100EA0052400661000036000000
B1043315551245N01340025EA0052900655000032000000
B1043355551187N01340022EA0052900662000032000000
B1043395551142N01340077EA0052800642000032000000
B1043435551122N01340190EA0050600633000032000000
B1043475551159N01340286EA0050900634000028000000
B1043515551223N01340336EA0049900623000024000000
B1043555551293N01340350EA0050000631000032000000
B1043595551358N01340356EA0050400634000028000000
B1044035551416N01340352EA0051600644000024000000
B1044075551464N01340306EA0051600645000024000000
B1044115551472N01340209EA0051700640000024000000
B1044155551481N01340105EA0051100646000024000000
B1044195551512N01340021EA0052000647000024000000
B1044235551571N01340007EA0051800646000028000000
B1044275551629N01340055EA0051500638000032000000
B1044315551681N01340125EA0051900646000032000000
B1044355551733N01340195EA0051500637000028000000
B1044395551793N01340269EA0050600633000028000000
B1044435551850N01340351EA0050500633000028000000
B1044475551906N01340436EA0050100619000032000000
B1044515551965N01340534EA0047800597000032000000
B1044555552019N01340635EA0048300629000032000000
B1044595552053N01340720EA0052000653000028000000
B1045035552035N01340807EA0052300646000028000000
B1045075551987N01340802EA0051700642000028000000
B1045115551971N01340719EA0051900646000032000000
B1045155551975N01340627EA0052000649000032000000
B1045195552010N01340551EA0052700657000028000000
B1045235552068N01340536EA0052700650000024000000
B1045275552122N01340596EA0052700659000024000000
B1045315552144N01340693EA0053100660000024000000
B1045355552112N01340766EA0053600668000020000000
B1045395552068N01340741EA0054400679000020000000
B1045435552066N01340651EA0055200682000020000000
B1045475552117N01340605EA0055500685000020000000
B1045515552172N01340658EA0055800690000016000000
B1045555552190N01340761EA0056200691000016000000
B1045595552151N01340822EA0056200696000016000000
B1046035552109N01340775EA0056900703000020000000
B1046075552118N01340685EA0057600712000016000000
B1046115552170N01340649EA0058100711000020000000
B1046155552227N01340696EA0058100712000020000000
B1046195552248N01340797EA0058300711000016000000
B1046235552222N01340882EA0058300718000016000000
B1046275552178N01340913EA0058700718000020000000
B1046315552142N01340850EA0059100728000024000000
B1046355552160N01340765EA0060300737000024000000
B1046395552216N01340763EA0060600736000032000000
B1046435552248N01340854EA0060300734000032000000
B1046475552227N01340949EA0060800740000028000000
B1046515552181N01340980EA0060900740000032000000
B1046555552148N01340910EA0060900741000032000000
B1046595552172N01340820EA0061500753000036000000
B1047035552230N01340817EA0062400753000036000000
B1047075552259N01340915EA0061600750000036000000
B1047115552220N01340975EA0062300760000032000000
B1047155552170N01340935EA0062900762000040000000
B1047195552147N01340846EA0063100769000036000000
B1047235552185N01340768EA0064000778000036000000
B1047275552246N01340793EA0064500779000032000000
B1047315552269N01340895EA0064500779000032000000
B1047355552235N01340971EA0064800785000032000000
B1047395552183N01340953EA0065300788000032015000
B1047435552166N01340859EA0065400789000032000000
B1047475552211N01340785EA0065800798000028000000
B1047515552278N01340794EA0066100789000024000000
B1047555552350N01340845EA0064700773000028000000
B1047595552426N01340908EA0062700761000032000000
B1048035552502N01340969EA0062600762000032000000
B1048075552576N01341028EA0062200757000032000000
B1048115552647N01341095EA0061900758000036015000
B1048155552714N01341156EA0062700766000036000000
B1048195552779N01341210EA0062800766000032000000
B1048235552846N01341257EA0062800760000032000000
B1048275552916N01341301EA0062400762000032000000
B1048315552983N01341339EA0062700760000032000000
B1048355553048N01341377EA0062000752000032000000
B1048395553119N01341409EA0060300729000032000000
B1048435553196N01341431EA0058500713000032000000
B1048475553279N01341438EA0057500712000032000000
B1048515553348N01341439EA0059400736000028000000
B1048555553416N01341441EA0059200716000024000000
B1048595553494N01341433EA0057300701000028000000
B1049035553576N01341416EA0056500688000032000000
B1049075553650N01341390EA0057000730000036000000
B1049115553694N01341330EA0060300722000032000000
B1049155553756N01341278EA0057200699000032000000
B1049195553832N01341243EA0055800683000032000000
B1049235553911N01341236EA0055000682000032000000
B1049275553985N01341236EA0055500693000032000000
B1049315554059N01341236EA0054800668000032000000
B1049355554141N01341251EA0053200666000032000000
B1049395554219N01341265EA0053400659000032000000
B1049435554301N01341279EA0051800649000036000000
B1049475554382N01341299EA0051900648000036000000
B1049515554466N01341330EA0050500629000036000000
B1049555554553N01341373EA0049700631000036000000
B1049595554631N01341415EA0050900641000036000000
B1050035554709N01341463EA0050300636000036000000
B1050075554788N01341516EA0050000627000036000000
B1050115554868N01341586EA0049300634000036000000
B1050155554925N01341565EA0052300667000036000000
B1050195554920N01341477EA0052800655000032000000
B1050235554869N01341444EA0052800661000032000000
B1050275554814N01341473EA0053100665000032000000
B1050315554779N01341559EA0053300663000024000000
B1050355554774N01341673EA0052800661000024000000
B1050395554790N01341788EA0052500652000024000000
B1050435554827N01341899EA0050800636000028000000
B1050475554890N01341979EA0050800647000028000000
B1050515554952N01342039EA0052100658000024000000
B1050555555011N01342097EA0052700665000024000000
B1050595555071N01342148EA0052800660000024000000
B1051035555138N01342170EA0052500660000020000000
B1051075555207N01342174EA0051800646000024000000
B1051115555284N01342169EA0050100634000024000000
B1051155555359N01342163EA0049900632000028000000
B1051195555438N01342148EA0048900621000028000000
B1051235555507N01342102EA0049900646000028000000
B1051275555527N01342011EA0052100654000024000000
B1051315555494N01341932EA0051800642000024000000
B1051355555436N01341959EA0051100651000024000000
B1051395555414N01342058EA0052200656000020000000
B1051435555432N01342161EA0052500662000020000000
B1051475555481N01342219EA0052900658000020000000
B1051515555545N01342222EA0051900655000024000000
B1051555555588N01342157EA0052700663000024000000
B1051595555614N01342062EA0051700639000024000000
B1052035555653N01341951EA0049200619000024000000
B1052075555706N01341855EA0048300618000028000000
B1052115555762N01341775EA0048100615000032000000
B1052155555818N01341698EA0047500604000036000000
B1052195555879N01341624EA0046300597000036000000
B1052235555940N01341554EA0046300593000036000000
B1052275556004N01341483EA0045300579000036000000
B1052315556074N01341418EA0044100568000032000000
B1052355556148N01341364EA0042900558000032000000
B1052395556226N01341318EA0042400550000036000000
B1052435556308N01341283EA0041100539000036000000
B1052475556390N01341256EA0040500534000032000000
B1052515556463N01341236EA0041300551000032000000
B1052555556532N01341223EA0041500530000032000000
B1052595556608N01341220EA0039700518000032000000
B1053035556689N01341216EA0038400511000032000000
B1053075556763N01341217EA0038700514000032000000
B1053115556832N01341218EA0039300523000028000000
B1053155556901N01341223EA0039100513000028000000
B1053195556962N01341200EA0039800539000028000000
B1053235556976N01341121EA0042100546000024000000
B1053275556932N01341069EA0041700550000024000000
B1053315556883N01341110EA0042800559000024000000
B1053355556878N01341212EA0043600566000024000000
B1053395556922N01341283EA0043900568000020000000
B1053435556983N01341279EA0044400577000024000000
B1053475557031N01341229EA0045500590000020000000
B1053515557023N01341139EA0046800597000024000000
B1053555556970N01341138EA0047400607000024000000
B1053595556949N01341230EA0048400618000024000000
B1054035556987N01341312EA0049500628000020000000
B1054075557044N01341296EA0050500638000020000000
B1054115557062N01341207EA0051700652000020000000
B1054155557022N01341152EA0052700656000024000000
B1054195556980N01341218EA0053300666000024000000
B1054235557001N01341322EA0054300677000024000000
B1054275557049N01341383EA0055500687000020000000
B1054315557097N01341335EA0056300692000020000000
B1054355557088N01341240EA0056400699000020000000
B1054395557039N01341214EA0057600715000020000000
B1054435556998N01341282EA0058900726000020000000
B1054475557008N01341382EA0060100739000020000000
B1054515557060N01341428EA0061100745000020000000
B1054555557106N01341372EA0061600748000020000000
B1054595557095N01341278EA0062200760000020000000
B1055035557044N01341261EA0063300775000020000000
B1055075557000N01341317EA0064600780000020000000
B1055115557006N01341422EA0065300788000020000000
B1055155557061N01341474EA0065900798000020000000
B1055195557113N01341428EA0066600800000020000000
B1055235557115N01341325EA0066800806000024000000
B1055275557067N01341277EA0068100824000024000000
B1055315557017N01341322EA0069600832000020000000
B1055355557002N01341433EA0070300842000020000000
B1055395557035N01341525EA0071600856000016000000
B1055435557092N01341535EA0072500862000020000000
B1055475557134N01341465EA0073000869000024000000
B1055515557130N01341365EA0073400873000024000000
B1055555557080N01341329EA0074600893000020000000
B1055595557039N01341398EA0076200904000020000000
B1056035557049N01341506EA0077200913000028000000
B1056075557104N01341547EA0078300924000024000000
B1056115557153N01341496EA0079300934000028000000
B1056155557161N01341400EA0079900936000028000000
B1056195557119N01341333EA0080700951000024000000
B1056235557065N01341360EA0081800961000024000000
B1056275557040N01341464EA0082600974000024000000
B1056315557070N01341559EA0083900984000024000000
B1056355557127N01341568EA0085000995000020000000
B1056395557164N01341494EA0086001004000020000000
B1056435557153N01341398EA0086601008000020000000
B1056475557102N01341355EA0087601023000020000000
B1056515557049N01341402EA0088901035000020000000
B1056555557034N01341511EA0089901041000024000000
B1056595557070N01341603EA0090801053000024000000
B1057035557128N01341615EA0091901061000020000000
B1057075557169N01341547EA0092501071000020000000
B1057115557162N01341452EA0093501079000020000000
B1057155557113N01341408EA0094401091000020000000
B1057195557067N01341461EA0095901104000024000000
B1057235557063N01341567EA0096901111000024000000
B1057275557110N01341633EA0097601122000024000000
B1057315557165N01341606EA0098501128000020000000
B1057355557190N01341516EA0099101135000020000000
B1057395557162N01341431EA0099901144000020000000
B1057435557105N01341430EA0100901154000020000000
B1057475557069N01341517EA0101901164000020000000
B1057515557083N01341626EA0102501171000020000000
B1057555557138N01341675EA0103301181000020000000
B1057595557196N01341646EA0103801182000020000000
B1058035557230N01341558EA0104101188000020000000
B1058075557217N01341459EA0105501204000020000000
B1058115557173N01341403EA0106701212000024000000
B1058155557131N01341464EA0107601222000024000000
B1058195557143N01341571EA0108201225000028000000
B1058235557197N01341625EA0108601235000024000000
B1058275557257N01341611EA0109701244000024000000
B1058315557305N01341550EA0110401252000024000000
B1058355557321N01341451EA0111201255000020000000
B1058395557342N01341347EA0111101259000024000000
B1058435557373N01341253EA0111701257000024000000
B1058475557403N01341140EA0109901222000024000000
B1058515557433N01340995EA0106301206000028000000
B1058555557466N01340852EA0105901204000032000000
B1058595557502N01340710EA0104801185000032000000
B1059035557535N01340558EA0103201177000032000000
B1059075557569N01340406EA0103001177000032000000
B1059115557603N01340258EA0102901172000036000000
B1059155557637N01340113EA0102801176000036000000
B1059195557673N01339973EA0102301166000040000000
B1059235557713N01339840EA0102001163000040000000
B1059275557758N01339708EA0100601130000036000000
B1059315557806N01339557EA0097501124000036000000
B1059355557850N01339409EA0097601121000036000000
B1059395557888N01339283EA0099601154000036000000
B1059435557924N01339158EA0099001119000036000000
B1059475557966N01339012EA0095901096000036000000
B1059515558007N01338857EA0094601099000036000000
B1059555558040N01338722EA0097001113000036000000
B1059595558072N01338581EA0096101104000036000000
B1100035558106N01338444EA0096801119000036000000
B1100075558137N01338313EA0097201104000040000000
B1100115558171N01338171EA0095601101000036000000
B1100155558205N01338033EA0095801102000032000000
B1100195558233N01337895EA0096101109000032000000
B1100235558265N01337760EA0095901098000028000000
B1100275558300N01337624EA0095001094000032000000
B1100315558337N01337491EA0095001094000028000000
B1100355558373N01337360EA0094601092000032000000
B1100395558408N01337230EA0094901093000028000000
B1100435558440N01337106EA0095501107000028000000
B1100475558474N01336984EA0095301086000028000000
B1100515558512N01336855EA0093801083000032000000
B1100555558549N01336725EA0093501081000032000000
B1100595558586N01336597EA0093401068000028000000
B1101035558626N01336455EA0091001051000032000000
B1101075558666N01336319EA0090701050000032000000
B1101115558708N01336186EA0089601035000032000000
B1101155558755N01336052EA0088101023000036000000
B1101195558807N01335922EA0087101016000036000000
B1101235558860N01335795EA0087001023000036000000
B1101275558909N01335672EA0087401012000036000000
B1101315558965N01335554EA0086601013000036000000
B1101355559021N01335440EA0086501021000036000000
B1101395559060N01335349EA0089901053000032000000
B1101435559099N01335259EA0089801029000028000000
B1101475559147N01335156EA0087901033000028000000
B1101515559195N01335065EA0088901036000028000000
B1101555559245N01334977EA0088301023000028000000
B1101595559302N01334890EA0087201011000028000000
B1102035559364N01334804EA0086401010000028000000
B1102075559435N01334764EA0087801032000028000000
B1102115559496N01334785EA0089801050000024000000
B1102155559515N01334889EA0091001049000024000000
B1102195559472N01334960EA0090501046000024000000
B1102235559432N01334908EA0091001054000020000000
B1102275559444N01334817EA0091301051000020000000
B1102315559485N01334742EA0091401055000024000000
B1102355559544N01334731EA0091901066000024000000
B1102395559570N01334825EA0093001072000024000000
B1102435559528N01334891EA0093501080000024000000
B1102475559488N01334847EA0094501085000024000000
B1102515559497N01334757EA0094501084000024000000
B1102555559549N01334717EA0095301093000024000000
B1102595559601N01334751EA0095801099000028000000
B1103035559606N01334848EA0096901111000024000000
B1103075559562N01334904EA0097301116000024000000
B1103115559526N01334842EA0098001124000024000000
B1103155559541N01334756EA0098601131000024000000
B1103195559593N01334734EA0098901133000020000000
B1103235559632N01334808EA0099601140000020000000
B1103275559619N01334912EA0099801142000020000000
B1103315559565N01334950EA0100401149000020000000
B1103355559518N01334898EA0101001155000020000000
B1103395559505N01334804EA0101801160000020000000
B1103435559536N01334720EA0101801159000020000000
B1103475559597N01334712EA0102201170000020000000
B1103515559654N01334744EA0103401181000024000000
B1103555559670N01334846EA0104001184000020000000
B1103595559622N01334909EA0104201183000024000000
B1104035559574N01334853EA0104401186000020000000
B1104075559570N01334755EA0104801193000020000000
B1104115559602N01334675EA0105601199000016000000
B1104155559654N01334651EA0105901201000020000000
B1104195559697N01334722EA0105901199000020000000
B1104235559693N01334829EA0105701197000024000000
B1104275559637N01334868EA0105601199000024000000
B1104315559585N01334817EA0106001201000020000000
B1104355559553N01334729EA0106001203000024000000
B1104395559554N01334635EA0106701210000024000000
B1104435559605N01334625EA0106701205000024000000
B1104475559626N01334722EA0106201206000020000000
B1104515559589N01334805EA0106901213000020000000
B1104555559536N01334850EA0107401213000020000000
B1104595559479N01334838EA0106901208000020000000
B1105035559440N01334766EA0107101213000020000000
B1105075559420N01334675EA0107401223000016000000
B1105115559418N01334580EA0108701232000020000000
B1105155559465N01334552EA0109701240000020000000
B1105195559500N01334634EA0110001239000020000000
B1105235559470N01334717EA0110001240000024000000
B1105275559415N01334694EA0110301252000020000000
B1105315559376N01334629EA0111901263000020000000
B1105355559381N01334539EA0112201264000024000000
B1105395559439N01334543EA0112701275000020000000
B1105435559458N01334643EA0114001287000020000000
B1105475559422N01334722EA0114801295000024000000
B1105515559366N01334722EA0115701306000024000000
B1105555559331N01334657EA0117301324000024000000
B1105595559341N01334566EA0118501328000024000000
B1106035559396N01334551EA0119301341000024000000
B1106075559428N01334640EA0120201348000024000000
B1106115559400N01334740EA0120901361000024000000
B1106155559344N01334751EA0122401371000024000000
B1106195559302N01334692EA0123901387000024000000
B1106235559311N01334603EA0124601392000024000000
B1106275559367N01334600EA0125301401000020000000
B1106315559385N01334707EA0126201410000020000000
B1106355559344N01334788EA0127201422000020000000
B1106395559286N01334770EA0128601436000024000000
B1106435559257N01334684EA0129701443000020000000
B1106475559276N01334590EA0130301454000020000000
B1106515559333N01334599EA0131501464000020000000
B1106555559345N01334708EA0132301477000020000000
B1106595559297N01334782EA0133601491000020000000
B1107035559240N01334757EA0135001500000020000000
B1107075559207N01334669EA0135701507000016000000
B1107115559205N01334561EA0136301513000016000000
B1107155559231N01334471EA0137101519000016000000
B1107195559283N01334422EA0137801529000020000000
B1107235559332N01334383EA0138901540000016000000
B1107275559384N01334357EA0139801547000020000000
B1107315559441N01334341EA0140201547000020000000
B1107355559502N01334331EA0140001544000020000000
B1107395559570N01334319EA0139101526000020000000
B1107435559647N01334298EA0136901511000024000000
B1107475559727N01334274EA0135501499000024000000
B1107515559808N01334242EA0134601488000028000000
B1107555559894N01334203EA0132801468000028000000
B1107595559982N01334167EA0131301467000036000000
B1108035600064N01334136EA0132301469000032000000
B1108075600147N01334105EA0130701451000032000000
B1108115600229N01334076EA0130401457000036000000
B1108155600307N01334044EA0130801454000036000000
B1108195600385N01334011EA0130401453000032000000
B1108235600460N01333981EA0130701453000032000000
B1108275600536N01333953EA0130101446000028000000
B1108315600611N01333923EA0129801444000028000000
B1108355600689N01333893EA0129101434000028000000
B1108395600768N01333859EA0128601437000028000000
B1108435600844N01333830EA0129001439000024000000
B1108475600919N01333808EA0128601430000028000000
B1108515600996N01333789EA0128101426000028000000
B1108555601073N01333777EA0127801422000028000000
B1108595601148N01333764EA0127401418000028000000
B1109035601223N01333746EA0126901411000024000000
B1109075601300N01333722EA0126001403000028000000
B1109115601378N01333703EA0125701403000032000000
B1109155601451N01333686EA0126001406000036000000
B1109195601525N01333670EA0125701397000032000000
B1109235601602N01333661EA0124701388000032000000
B1109275601681N01333650EA0123901380000032000000
B1109315601762N01333634EA0123101372000032000000
B1109355601834N01333613EA0123901406000032000000
B1109395601896N01333587EA0126101390000028000000
B1109435601971N01333557EA0123201372000028000000
B1109475602050N01333524EA0122701376000028000000
B1109515602127N01333487EA0123601387000028000000
B1109555602204N01333449EA0123401371000028000000
B1109595602287N01333407EA0121901364000032000000
B1110035602369N01333364EA0121501357000032000000
B1110075602452N01333326EA0120801354000032000000
B1110115602534N01333290EA0121001364000028000000
B1110155602608N01333260EA0122801371000028000000
B1110195602687N01333228EA0121801363000028000000
B1110235602764N01333197EA0122601368000028000000
B1110275602848N01333169EA0121101348000028000000
B1110315602938N01333143EA0120001344000028000000
B1110355603029N01333124EA0119701344000032000000
B1110395603115N01333118EA0120601355000028000000
B1110435603194N01333111EA0121901388000032000000
B1110475603248N01333101EA0126601412000024000000
B1110515603309N01333088EA0126401407000024000000
B1110555603372N01333072EA0126801405000020000000
B1110595603445N01333059EA0125901417000020000000
B1111035603502N01333049EA0129201441000016000000
B1111075603565N01333036EA0129401435000016000000
B1111115603634N01333020EA0129501453000016000000
B1111155603695N01333007EA0132001467000016000000
B1111195603758N01332994EA0132201470000016000000
B1111235603822N01332981EA0132301463000016000000
B1111275603900N01332965EA0129801436000024000000
B1111315603986N01332946EA0128801435000024000000
B1111355604070N01332929EA0128301429000028000000
B1111395604151N01332924EA0128801432000028000000
B1111435604228N01332915EA0129001455000024000000
B1111475604298N01332909EA0131001450000024000000
B1111515604377N01332905EA0129201434000024000000
B1111555604462N01332900EA0128801436000024000000
B1111595604544N01332900EA0128801430000024000000
B1112035604628N01332900EA0128201430000024000000
B1112075604706N01332902EA0129101439000028000000
B1112115604787N01332901EA0129001427000028000000
B1112155604874N01332898EA0127601419000028000000
B1112195604957N01332889EA0127801431000028000000
B1112235605039N01332880EA0128001409000028000000
B1112275605131N01332875EA0125901405000028000000
B1112315605221N01332872EA0126201408000028000000
B1112355605295N01332876EA0127501446000032000000
B1112395605356N01332883EA0130301434000028000000
B1112435605433N01332905EA0127601404000024000000
B1112475605515N01332939EA0125501401000028000000
B1112515605597N01332975EA0125101387000028000000
B1112555605685N01333024EA0123101361000032000000
B1112595605775N01333080EA0121501360000032000000
B1113035605855N01333160EA0121301355000032000000
B1113075605924N01333261EA0121201356000032000000
B1113115605985N01333364EA0121501364000032000000
B1113155606049N01333462EA0120701342000032000000
B1113195606115N01333566EA0118901331000032000000
B1113235606188N01333664EA0117601314000032000000
B1113275606271N01333730EA0117101315000032000000
B1113315606361N01333750EA0116901312000032000000
B1113355606451N01333748EA0116301308000032000000
B1113395606538N01333742EA0116501304000032000000
B1113435606628N01333730EA0115001289000032000000
B1113475606715N01333716EA0114901295000032000000
B1113515606797N01333743EA0115001291000028000000
B1113555606869N01333820EA0114101285000032000000
B1113595606936N01333912EA0113901278000032000000
B1114035607001N01334014EA0112901267000032000000
B1114075607072N01334101EA0112401267000032000000
B1114115607148N01334175EA0112101267000028000000
B1114155607224N01334244EA0111701252000028000000
B1114195607300N01334285EA0111401275000028000000
B1114235607372N01334323EA0112201242000032000000
B1114275607460N01334365EA0109101234000036000000
B1114315607543N01334402EA0109301240000036000000
B1114355607616N01334443EA0109801242000032000000
B1114395607688N01334489EA0109301231000028000000
B1114435607757N01334556EA0108401215000028000000
B1114475607834N01334610EA0107101208000028000000
B1114515607915N01334583EA0106601206000028000000
B1114555607986N01334512EA0106501206000028000000
B1114595608051N01334441EA0106601205000028000000
B1115035608124N01334374EA0104401168000032000000
B1115075608204N01334302EA0102001159000032000000
B1115115608282N01334228EA0101301153000032000000
B1115155608359N01334159EA0101301155000028000000
B1115195608433N01334088EA0100801143000028000000
B1115235608509N01334012EA0099701137000028000000
B1115275608585N01333941EA0099401133000028000000
B1115315608661N01333873EA0099001128000028000000
B1115355608737N01333816EA0098701131000028000000
B1115395608814N01333769EA0098801122000028000000
B1115435608896N01333739EA0098001118000028000000
B1115475608982N01333758EA0097401109000028000000
B1115515609064N01333811EA0096301096000024000000
B1115555609144N01333878EA0095401100000028000000
B1115595609220N01333949EA0095401089000028000000
B1116035609294N01334024EA0095001093000028000000
B1116075609364N01334107EA0094901083000028000000
B1116115609439N01334185EA0093901081000028000000
B1116155609514N01334245EA0094501091000028000000
B1116195609580N01334287EA0096501108000028000000
B1116235609646N01334291EA0097101105000024000000
B1116275609705N01334224EA0096501106000024000000
B1116315609741N01334128EA0097501120000024000000
B1116355609738N01334029EA0098701130000024000000
B1116395609688N01334014EA0099601138000020000000
B1116435609658N01334090EA0100101137000020000000
B1116475609684N01334183EA0099701133000016000000
B1116515609744N01334193EA0099901142000020000000
B1116555609794N01334140EA0101001150000020000000
B1116595609803N01334046EA0101301152000020000000
B1117035609757N01334012EA0101601158000020000000
B1117075609727N01334093EA0102101162000020000000
B1117115609761N01334179EA0102501164000020000000
B1117155609822N01334168EA0102801168000016000000
B1117195609854N01334084EA0103301177000020000000
B1117235609835N01334001EA0104001179000020000000
B1117275609789N01334041EA0103801177000024000000
B1117315609814N01334136EA0104301185000020000000
B1117355609875N01334154EA0105201193000020000000
B1117395609918N01334077EA0105701204000024000000
B1117435609893N01333995EA0106601207000020000000
B1117475609845N01334034EA0106601210000020000000
B1117515609859N01334137EA0107301216000020000000
B1117555609917N01334187EA0108401229000020000000
B1117595609974N01334155EA0109301237000020000000
B1118035609974N01334062EA0110301246000020000000
B1118075609920N01334055EA0110401245000016000000
B1118115609914N01334154EA0110901256000020000000
B1118155609969N01334206EA0112401270000020000000
B1118195610028N01334192EA0113301272000024000000
B1118235610032N01334090EA0113501280000024000000
B1118275609979N01334068EA0114501286000024000000
B1118315609958N01334167EA0114701292000020000000
B1118355610006N01334227EA0115901304000020000000
B1118395610052N01334162EA0116401307000020000000
B1118435610024N01334077EA0116801315000020000000
B1118475609972N01334107EA0117601322000020000000
B1118515609974N01334210EA0118301333000020000000
B1118555610030N01334241EA0119301340000020000000
B1118595610071N01334166EA0119501339000020000000
B1119035610043N01334081EA0120001349000020000000
B1119075609991N01334106EA0120801352000020000000
B1119115609991N01334211EA0121001359000020000000
B1119155610048N01334242EA0121701363000020000000
B1119195610087N01334163EA0122301371000020000000
B1119235610058N01334077EA0122901376000020000000
B1119275610005N01334102EA0123401379000020000000
B1119315610004N01334207EA0123601383000020000000
B1119355610056N01334275EA0124301391000020000000
B1119395610117N01334304EA0125101399000020000000
B1119435610182N01334319EA0125901408000016000000
B1119475610249N01334330EA0126501406000016000000
B1119515610323N01334331EA0126101403000024000000
B1119555610404N01334326EA0123901366000024000000
B1119595610500N01334315EA0119701333000032000000
B1120035610600N01334279EA0118001314000036000000
B1120075610694N01334231EA0117601334000036000000
B1120115610780N01334179EA0118701325000036000000
B1120155610869N01334132EA0117701323000036000000
B1120195610950N01334094EA0119001347000032000000
B1120235611029N01334059EA0119501329000032000000
B1120275611115N01334023EA0117401319000032000000
B1120315611200N01333988EA0117601319000032000000
B1120355611289N01333946EA0116301301000028000000
B1120395611367N01333912EA0117201345000032000000
B1120435611427N01333885EA0121301353000024000000
B1120475611497N01333854EA0119101319000024000000
B1120515611584N01333819EA0117201327000028000000
B1120555611644N01333787EA0121901381000024000000
B1120595611699N01333760EA0123501369000024000000
B1121035611772N01333732EA0120601340000024000000
B1121075611855N01333713EA0119701342000024000000
B1121115611941N01333713EA0119401333000024000000
B1121155612032N01333734EA0118601325000024000000
B1121195612124N01333769EA0117501312000028000000
B1121235612211N01333821EA0116701334000032000000
B1121275612272N01333858EA0121401368000028000000
B1121315612335N01333897EA0121901347000024000000
B1121355612411N01333950EA0118501318000024000000
B1121395612494N01334008EA0116501300000028000000
B1121435612578N01334072EA0115701316000032000000
B1121475612637N01334116EA0119801351000028000000
B1121515612700N01334161EA0119401326000024000000
B1121555612774N01334222EA0117501318000024000000
B1121595612842N01334288EA0118401328000024000000
B1122035612907N01334352EA0119601349000028000000
B1122075612965N01334411EA0121101357000024000000
B1122115613021N01334471EA0122801377000024000000
B1122155613073N01334530EA0123801385000020000000
B1122195613126N01334590EA0124401393000020000000
B1122235613178N01334651EA0125201394000016000000
B1122275613233N01334720EA0124901384000016000000
B1122315613297N01334804EA0122901369000024000000
B1122355613347N01334903EA0123801400000024000000
B1122395613375N01334996EA0127201424000024000000
B1122435613350N01335074EA0128701430000024000000
B1122475613300N01335043EA0128901437000020000000
B1122515613303N01334947EA0129901448000020000000
B1122555613356N01334913EA0131101457000020000000
B1122595613411N01334952EA0131801464000020000000
B1123035613450N01335026EA0132501474000024000000
B1123075613464N01335123EA0133001472000028000000
B1123115613433N01335208EA0132801477000028000000
B1123155613378N01335211EA0133901492000024000000
B1123195613347N01335130EA0135601509000024000000
B1123235613367N01335039EA0136801515000020000000
B1123275613427N01335015EA0137001518000020000000
B1123315613475N01335076EA0137801525000020000000
B1123355613494N01335176EA0137901524000020000000
B1123395613516N01335286EA0137601518000016000000
B1123435613541N01335396EA0138201542000016000000
B1123475613570N01335488EA0139601537000020000000
B1123515613610N01335596EA0137801505000020000000
B1123555613663N01335718EA0134901496000028000000
B1123595613719N01335839EA0134701495000032000000
B1124035613774N01335958EA0134801494000032000000
B1124075613831N01336081EA0134101488000032000000
B1124115613887N01336205EA0133601485000032000000
B1124155613940N01336321EA0134801506000032000000
B1124195613988N01336433EA0135401494000028000000
B1124235614041N01336554EA0134501496000028000000
B1124275614091N01336670EA0135401502000028000000
B1124315614142N01336783EA0135601504000028000000
B1124355614200N01336875EA0135901505000024000000
B1124395614273N01336910EA0136401525000024000000
B1124435614338N01336897EA0139101546000024000000
B1124475614398N01336876EA0140701552000020000000
B1124515614463N01336848EA0140301544000024000000
B1124555614525N01336815EA0140801557000020000000
B1124595614593N01336776EA0140701560000024000000
B1125035614652N01336741EA0142901583000024000000
B1125075614715N01336706EA0143101575000024000000
B1125115614780N01336666EA0143301578000020000000
B1125155614854N01336632EA0142001573000024000000
B1125195614923N01336607EA0144201597000024000000
B1125235614993N01336589EA0143601567000024000000
B1125275615084N01336605EA0139601543000028000000
B1125315615174N01336646EA0139301544000032000000
B1125355615261N01336702EA0139201544000032000000
B1125395615344N01336767EA0139201533000032000000
B1125435615427N01336840EA0137801518000036000000
B1125475615512N01336920EA0137001516000036000000
B1125515615594N01336996EA0136801511000032000000
B1125555615676N01337071EA0136101502000032000000
B1125595615760N01337151EA0135101496000032000000
B1126035615842N01337229EA0135001493000036000000
B1126075615924N01337307EA0134801490000032000000
B1126115616003N01337386EA0134601490000032000000
B1126155616081N01337460EA0134601488000032000000
B1126195616158N01337534EA0134301486000032000000
B1126235616231N01337607EA0134401489000032000000
B1126275616300N01337672EA0134901487000032000000
B1126315616372N01337732EA0133901479000028000000
B1126355616445N01337790EA0133501474000028000000
B1126395616522N01337843EA0132601462000028000000
B1126435616600N01337898EA0131801462000028000000
B1126475616675N01337946EA0132001459000028000000
B1126515616752N01337996EA0131701457000024000000
B1126555616826N01338038EA0131701459000024000000
B1126595616900N01338080EA0131501453000024000000
B1127035616976N01338127EA0131101451000024000000
B1127075617050N01338179EA0131201454000024000000
B1127115617126N01338227EA0130901442000024000000
B1127155617207N01338274EA0129501431000024000000
B1127195617289N01338321EA0128601422000028000000
B1127235617372N01338369EA0127601413000028000000
B1127275617453N01338417EA0126901403000028000000
B1127315617533N01338471EA0126101398000028000000
B1127355617611N01338529EA0125501392000028000000
B1127395617691N01338590EA0124501378000028000000
B1127435617772N01338652EA0123401373000032000000
B1127475617853N01338714EA0123101365000028000000
B1127515617935N01338782EA0122001358000028000000
B1127555618016N01338850EA0121601352000028000000
B1127595618097N01338921EA0120701345000028000000
B1128035618179N01338990EA0120101341000028000000
B1128075618261N01339054EA0119901337000028000000
B1128115618341N01339111EA0119701346000028000000
B1128155618413N01339163EA0120901347000024000000
B1128195618489N01339218EA0119801326000024000000
B1128235618565N01339283EA0118301319000028000000
B1128275618634N01339354EA0118601326000028000000
B1128315618701N01339429EA0118201315000028000000
B1128355618768N01339506EA0117301309000028000000
B1128395618837N01339583EA0116401298000028000000
B1128435618909N01339665EA0115401294000032000000
B1128475618979N01339748EA0115701302000032000000
B1128515619037N01339818EA0117901326000024000000
B1128555619097N01339888EA0118301321000024000000
B1128595619157N01339960EA0118401326000024000000
B1129035619218N01340031EA0118301320000024000000
B1129075619282N01340113EA0117801319000024000000
B1129115619348N01340194EA0117901315000024000000
B1129155619412N01340273EA0118401337000024000000
B1129195619466N01340349EA0120301342000020000000
B1129235619522N01340434EA0119801330000020000000
B1129275619582N01340540EA0118201314000024000000
B1129315619638N01340653EA0118001328000024000000
B1129355619693N01340757EA0118901328000024000000
B1129395619751N01340858EA0118501322000024000000
B1129435619819N01340943EA0118201320000024000000
B1129475619894N01341014EA0117401307000024000000
B1129515619975N01341069EA0116801306000024000000
B1129555620058N01341105EA0116701301000028000000
B1129595620144N01341138EA0116001289000028000000
B1130035620232N01341158EA0114501292000032000000
B1130075620311N01341171EA0115901298000028000000
B1130115620389N01341183EA0115801294000028000000
B1130155620469N01341195EA0115101284000028000000
B1130195620553N01341205EA0113901279000028000000
B1130235620635N01341216EA0114001280000028000000
B1130275620717N01341231EA0113701273000028000000
B1130315620800N01341230EA0113101269000028000000
B1130355620878N01341205EA0112901265000028000000
B1130395620959N01341179EA0112301260000028000000
B1130435621039N01341151EA0111501246000028000000
B1130475621123N01341121EA0110701245000028000000
B1130515621204N01341093EA0110301239000028000000
B1130555621284N01341066EA0109701238000028000000
B1130595621363N01341053EA0109701232000028000000
B1131035621444N01341049EA0108701219000028000000
B1131075621526N01341048EA0107701214000028000000
B1131115621602N01341044EA0107401209000028000000
B1131155621682N01341045EA0106101189000028000000
B1131195621765N01341062EA0103801179000036000000
B1131235621835N01341096EA0106001204000040000000
B1131275621895N01341122EA0108301232000036000000
B1131315621945N01341134EA0110101236000028000000
B1131355621977N01341061EA0109901236000024000000
B1131395621944N01340980EA0110401242000024000000
B1131435621886N01341008EA0111201256000024000000
B1131475621856N01341099EA0112401264000024000000
B1131515621870N01341196EA0112801263000020000000
B1131555621921N01341222EA0112801271000020000000
B1131595621938N01341144EA0113601272000020000000
B1132035621886N01341096EA0113201269000024000000
B1132075621847N01341170EA0113301273000024000000
B1132115621866N01341264EA0113701280000024000000
B1132155621901N01341343EA0114701286000024000000
B1132195621953N01341335EA0114901286000024000000
B1132235621956N01341240EA0115201299000024000000
B1132275621901N01341225EA0116501301000024000000
B1132315621869N01341325EA0116001298000024000000
B1132355621905N01341404EA0117101314000024000000
B1132395621957N01341431EA0117401310000024000000
B1132435621992N01341363EA0117001308000024000000
B1132475621983N01341262EA0117701320000024000000
B1132515621932N01341222EA0118501332000024000000
B1132555621883N01341285EA0119401338000024000000
B1132595621878N01341390EA0119901343000020000000
B1133035621917N01341452EA0120401342000020000000
B1133075621965N01341422EA0120201342000020000000
B1133115621982N01341326EA0120401344000016000000
B1133155621983N01341220EA0120701362000020000000
B1133195621943N01341162EA0123201373000024000000
B1133235621896N01341236EA0123001366000028000000
B1133275621935N01341317EA0122501369000032000000
B1133315621991N01341299EA0124101389000028000000
B1133355621997N01341216EA0125501398000028000000
B1133395621938N01341203EA0125701399000032000000
B1133435621914N01341309EA0126301409000028000000
B1133475621952N01341392EA0127201419000024000000
B1133515622005N01341394EA0128001422000020000000
B1133555622036N01341307EA0128101426000020000000
B1133595622068N01341229EA0129701447000020000000
B1134035622112N01341182EA0131101450000020000000
B1134075622165N01341235EA0130601451000020000000
B1134115622203N01341331EA0130901446000020000000
B1134155622265N01341373EA0130601445000020000000
B1134195622337N01341379EA0129401423000020000000
B1134235622416N01341390EA0126501395000024000000
B1134275622502N01341408EA0124601386000028000000
B1134315622588N01341428EA0123501366000028000000
B1134355622679N01341460EA0121301360000032000000
B1134395622763N01341489EA0122401364000032000000
B1134435622844N01341519EA0122601369000028000000
B1134475622923N01341548EA0122101357000028000000
B1134515623008N01341578EA0121001344000028000000
B1134555623092N01341610EA0120101342000028000000
B1134595623175N01341630EA0120001339000028000000
B1135035623258N01341649EA0119301334000028000000
B1135075623339N01341662EA0119301333000028000000
B1135115623422N01341671EA0118801325000028000000
B1135155623502N01341681EA0118801342000028000000
B1135195623570N01341691EA0120401344000024000000
B1135235623645N01341702EA0119301326000024000000
B1135275623725N01341708EA0117701315000024000000
B1135315623806N01341714EA0117101312000028000000
B1135355623884N01341719EA0116801305000028000000
B1135395623963N01341732EA0115601293000028000000
B1135435624037N01341771EA0115401298000028000000
B1135475624102N01341828EA0116201316000028000000
B1135515624155N01341890EA0118001318000024000000
B1135555624213N01341957EA0117501317000024000000
B1135595624270N01342020EA0118001320000020000000
B1136035624321N01342087EA0119001336000020000000
B1136075624348N01342185EA0119901336000020000000
B1136115624393N01342258EA0120301347000024000000
B1136155624451N01342252EA0120901349000020000000
B1136195624473N01342165EA0121001353000020000000
B1136235624436N01342089EA0120901343000020000000
B1136275624371N01342102EA0120301352000020000000
B1136315624321N01342167EA0121801365000020000000
B1136355624291N01342262EA0122401367000020000000
B1136395624293N01342375EA0122901370000016000000
B1136435624343N01342452EA0122401366000020000000
B1136475624406N01342448EA0123101378000020000000
B1136515624461N01342406EA0124701390000020000000
B1136555624477N01342315EA0124801387000016000000
B1136595624434N01342247EA0124901394000016000000
B1137035624371N01342248EA0125401395000020000000
B1137075624318N01342213EA0125901406000016000000
B1137115624300N01342120EA0126501409000020000000
B1137155624331N01342032EA0127101415000020000000
B1137195624387N01342045EA0127701420000016000000
B1137235624387N01342154EA0127601421000020000000
B1137275624331N01342167EA0128301429000020000000
B1137315624314N01342071EA0129101437000020000000
B1137355624344N01341985EA0129901442000020000000
B1137395624395N01342013EA0130001444000020000000
B1137435624396N01342115EA0130001443000020000000
B1137475624341N01342144EA0130501450000020000000
B1137515624297N01342080EA0131201455000020000000
B1137555624285N01341979EA0131501463000020000000
B1137595624330N01341918EA0132301467000020000000
B1138035624365N01341998EA0132301466000024000000
B1138075624323N01342076EA0132701473000024000000
B1138115624262N01342068EA0133301483000024000000
B1138155624220N01341997EA0134601495000020000000
B1138195624241N01341902EA0135001489000020000000
B1138235624300N01341927EA0134701500000020000000
B1138275624313N01342032EA0136201507000020000000
B1138315624280N01342124EA0136401511000020000000
B1138355624220N01342139EA0136901515000020000000
B1138395624183N01342055EA0136801509000020000000
B1138435624178N01341940EA0136501509000020000000
B1138475624201N01341825EA0136101504000020000000
B1138515624237N01341740EA0137901534000020000000
B1138555624279N01341677EA0139301538000020000000
B1138595624328N01341728EA0139201537000020000000
B1139035624319N01341840EA0139301539000024000000
B1139075624258N01341885EA0140001552000024000000
B1139115624200N01341859EA0140901555000020000000
B1139155624191N01341759EA0141301563000020000000
B1139195624244N01341746EA0141701563000020000000
B1139235624267N01341855EA0141801569000020000000
B1139275624224N01341949EA0142801577000020000000
B1139315624163N01341987EA0143701583000020000000
B1139355624113N01341927EA0143401578000020000000
B1139395624123N01341825EA0143401583000020000000
B1139435624170N01341779EA0144601593000020000000
B1139475624224N01341758EA0144301582000020000000
B1139515624285N01341750EA0143801592000024000000
B1139555624345N01341747EA0144601583000024000000
B1139595624417N01341772EA0143301585000024000000
B1140035624482N01341827EA0144501596000024000000
B1140075624545N01341896EA0144501590000020000000
B1140115624617N01341975EA0143101570000024000000
B1140155624695N01342063EA0142401578000028000000
B1140195624766N01342153EA0143401579000028000000
B1140235624843N01342245EA0141801563000024000000
B1140275624919N01342338EA0141101550000028000000
B1140315624997N01342431EA0139701537000024000000
B1140355625073N01342523EA0138701535000028000000
B1140395625147N01342612EA0138801533000028000000
B1140435625224N01342695EA0138001520000028000000
B1140475625302N01342782EA0136901514000028000000
B1140515625379N01342867EA0136601510000028000000
B1140555625457N01342950EA0136101505000028000000
B1140595625536N01343033EA0134801490000028000000
B1141035625614N01343121EA0134201487000024000000
B1141075625688N01343210EA0134101490000024000000
B1141115625760N01343294EA0134401489000024000000
B1141155625829N01343374EA0134201484000024000000
B1141195625897N01343453EA0133901483000024000000
B1141235625965N01343531EA0133701480000020000000
B1141275626034N01343605EA0133201473000020000000
B1141315626104N01343669EA0132801473000020000000
B1141355626173N01343732EA0132801472000020000000
B1141395626241N01343800EA0132501463000020000000
B1141435626311N01343873EA0130901441000020000000
B1141475626385N01343944EA0129601453000024000000
B1141515626443N01343996EA0132801479000024000000
B1141555626501N01344050EA0133001468000020000000
B1141595626562N01344106EA0132301467000020000000
B1142035626622N01344159EA0132001456000024000000
B1142075626690N01344223EA0129701431000024000000
B1142115626765N01344297EA0128001424000024000000
B1142155626839N01344372EA0128101425000024000000
B1142195626911N01344449EA0127701421000028000000
B1142235626976N01344506EA0129701462000024000000
B1142275627031N01344548EA0132601463000020000000
B1142315627092N01344593EA0131301466000020000000
B1142355627149N01344637EA0132801462000020000000
B1142395627218N01344689EA0131401467000024000000
B1142435627278N01344735EA0133601484000020000000
B1142475627338N01344780EA0133501469000020000000
B1142515627411N01344835EA0131301457000024000000
B1142555627481N01344888EA0131801458000024000000
B1142595627558N01344941EA0129901432000024000000
B1143035627642N01344996EA0128101427000024000000
B1143075627723N01345045EA0128801437000028000000
B1143115627790N01345088EA0131701475000024000000
B1143155627847N01345125EA0134101489000016000000
B1143195627902N01345160EA0135201497000016000000
B1143235627962N01345195EA0135101492000020000000
B1143275628024N01345234EA0135201500000020000000
B1143315628083N01345273EA0136201506000020000000
B1143355628141N01345315EA0135701498000020000000
B1143395628209N01345361EA0133401469000020000000
B1143435628283N01345416EA0131701454000024000000
B1143475628361N01345474EA0130601448000024000000
B1143515628436N01345532EA0130201452000024000000
B1143555628504N01345589EA0131101451000024000000
B1143595628575N01345650EA0129601434000024000000
B1144035628651N01345718EA0128601428000024000000
B1144075628724N01345788EA0128501428000024000000
B1144115628798N01345858EA0127901421000024000000
B1144155628872N01345926EA0127201414000024000000
B1144195628945N01345993EA0127001418000028000000
B1144235629015N01346053EA0127501411000024000000
B1144275629092N01346108EA0125701395000024000000
B1144315629172N01346152EA0124701387000024000000
B1144355629253N01346182EA0124401385000028000000
B1144395629335N01346206EA0123801376000028000000
B1144435629418N01346235EA0122701371000028000000
B1144475629491N01346257EA0124301408000024000000
B1144515629550N01346274EA0126901410000024000000
B1144555629613N01346287EA0127001420000020000000
B1144595629662N01346329EA0129001441000020000000
B1145035629666N01346433EA0130201446000016000000
B1145075629617N01346487EA0130901461000016000000
B1145115629570N01346449EA0132701474000016000000
B1145155629554N01346364EA0133401477000016000000
B1145195629586N01346288EA0133501481000016000000
B1145235629636N01346303EA0134701492000016000000
B1145275629677N01346371EA0135301496000016000000
B1145315629671N01346477EA0135601502000016000000
B1145355629615N01346511EA0136001514000016000000
B1145395629584N01346434EA0137801532000016000000
B1145435629612N01346364EA0139001538000016000000
B1145475629658N01346404EA0139201537000020000000
B1145515629658N01346512EA0139701547000020000000
B1145555629627N01346605EA0140401552000020000000
B1145595629571N01346625EA0141201561000020000000
B1146035629547N01346540EA0141501560000020000000
B1146075629583N01346472EA0142101577000020000000
B1146115629628N01346514EA0144101587000016000000
B1146155629612N01346618EA0143601581000020000000
B1146195629553N01346594EA0144101593000024000000
B1146235629524N01346513EA0146101608000024000000
B1146275629547N01346433EA0145601604000024000000
B1146315629596N01346474EA0146601618000024000000
B1146355629609N01346586EA0147601628000024000000
B1146395629621N01346683EA0149801646000020000000
B1146435629632N01346793EA0149801647000016000000
B1146475629645N01346911EA0150301655000016000000
B1146515629661N01347036EA0151001661000016000000
B1146555629704N01347131EA0152001673000016000000
B1146595629766N01347168EA0153101685000016000000
B1147035629822N01347140EA0154701702000016000000
B1147075629843N01347046EA0155601703000020000000
B1147115629865N01346943EA0156101713000016000000
B1147155629903N01346852EA0157401727000016000000
B1147195629959N01346821EA0158501736000016000000
B1147235630021N01346836EA0158401726000020000000
B1147275630096N01346830EA0156101703000020000000
B1147315630182N01346821EA0154801703000024000000
B1147355630256N01346812EA0157301724000024000000
B1147395630333N01346803EA0156501700000024000000
B1147435630420N01346790EA0153501670000024000000
B1147475630515N01346780EA0151101658000024000000
B1147515630610N01346772EA0150201650000024000000
B1147555630700N01346768EA0150701668000028000000
B1147595630782N01346764EA0152201676000028000000
B1148035630861N01346759EA0152301665000024000000
B1148075630948N01346761EA0149801638000024000000
B1148115631039N01346765EA0148501637000024000000
B1148155631127N01346745EA0148601634000024000000
B1148195631217N01346717EA0147601626000028000000
B1148235631303N01346687EA0148001641000028000000
B1148275631377N01346656EA0149501631000028000000
B1148315631461N01346612EA0146401609000024000000
B1148355631545N01346563EA0146401621000028000000
B1148395631628N01346514EA0146401604000028000000
B1148435631715N01346468EA0144801602000028000000
B1148475631801N01346433EA0145001598000028000000
B1148515631888N01346405EA0144001589000028000000
B1148555631972N01346378EA0144501601000024000000
B1148595632052N01346352EA0144501592000024000000
B1149035632132N01346323EA0143901591000028000000
B1149075632208N01346295EA0144201586000028000000
B1149115632290N01346270EA0142701574000028000000
B1149155632373N01346257EA0142401582000028000000
B1149195632447N01346252EA0144801624000028000000
B1149235632482N01346316EA0149701652000024000000
B1149275632446N01346403EA0149701639000024000000
B1149315632382N01346379EA0150201667000024000000
B1149355632344N01346305EA0152801679000020000000
B1149395632347N01346204EA0153401683000020000000
B1149435632392N01346152EA0153601683000020000000
B1149475632440N01346209EA0153701687000020000000
B1149515632461N01346318EA0155101704000020000000
B1149555632435N01346420EA0156201713000016000000
B1149595632378N01346395EA0156701718000024000000
B1150035632395N01346304EA0157801733000024000000
B1150075632446N01346325EA0159701753000020000000
B1150115632465N01346413EA0161101759000016000000
B1150155632423N01346498EA0160801759000016000000
B1150195632369N01346459EA0161401771000016000000
B1150235632377N01346360EA0162501782000016000000
B1150275632427N01346326EA0164001799000016000000
B1150315632466N01346394EA0165001794000016000000
B1150355632434N01346494EA0164301794000020000000
B1150395632377N01346455EA0165401815000020000000
B1150435632356N01346358EA0167301828000020000000
B1150475632362N01346256EA0168201835000020000000
B1150515632408N01346197EA0168801841000024000000
B1150555632469N01346199EA0168901841000024000000
B1150595632534N01346217EA0169301852000024000000
B1151035632598N01346243EA0170101854000028000000
B1151075632667N01346278EA0169201834000024000000
B1151115632743N01346314EA0168001830000024000000
B1151155632821N01346353EA0167301817000024000000
B1151195632906N01346404EA0165601805000024000000
B1151235632986N01346457EA0165501810000024000000
B1151275633063N01346509EA0165901809000024000000
B1151315633140N01346568EA0164601792000024000000
B1151355633220N01346629EA0162901777000024000000
B1151395633301N01346694EA0162201775000024000000
B1151435633380N01346761EA0162401782000028000000
B1151475633453N01346826EA0163601789000024000000
B1151515633528N01346894EA0163101782000024000000
B1151555633608N01346958EA0162801777000024000000
B1151595633682N01347015EA0163801800000024000000
B1152035633752N01347073EA0163901777000024000000
B1152075633821N01347137EA0164001820000024000000
B1152115633872N01347185EA0168501840000020000000
B1152155633925N01347235EA0168801837000016000000
B1152195633987N01347296EA0167401813000016000000
B1152235634063N01347378EA0165001804000020000000
B1152275634136N01347466EA0165201801000024000000
B1152315634206N01347560EA0164901811000024000000
B1152355634258N01347647EA0167301834000024000000
B1152395634312N01347725EA0167601810000020000000
B1152435634393N01347751EA0163801786000024000000
B1152475634479N01347721EA0163001782000024000000
B1152515634561N01347674EA0162601779000024000000
B1152555634640N01347617EA0162301770000024000000
B1152595634721N01347551EA0160701753000024000000
B1153035634804N01347483EA0159701748000024000000
B1153075634886N01347417EA0159501749000024000000
B1153115634966N01347354EA0159501748000028000000
B1153155635042N01347298EA0160901772000024000000
B1153195635111N01347249EA0161601753000024000000
B1153235635192N01347196EA0158601730000024000000
B1153275635276N01347149EA0158001733000028000000
B1153315635358N01347109EA0157601724000028000000
B1153355635443N01347068EA0156401714000028000000
B1153395635525N01347028EA0156001713000028000000
B1153435635605N01346986EA0155901709000028000000
B1153475635686N01346951EA0155001700000028000000
B1153515635771N01346925EA0154201692000032000000
B1153555635855N01346908EA0154301704000032000000
B1153595635913N01346898EA0159001746000028000000
B1154035635974N01346890EA0159001730000024000000
B1154075636047N01346886EA0157201721000024000000
B1154115636121N01346886EA0156901717000024000000
B1154155636192N01346888EA0156801730000024000000
B1154195636257N01346889EA0158301739000024000000
B1154235636320N01346890EA0158801752000020000000
B1154275636370N01346890EA0160801758000016000000
B1154315636427N01346886EA0160701767000016000000
B1154355636483N01346886EA0162301780000020000000
B1154395636535N01346924EA0163501785000020000000
B1154435636543N01347041EA0163101782000020000000
B1154475636486N01347089EA0163601799000020000000
B1154515636437N01347049EA0165701815000020000000
B1154555636407N01346971EA0166601822000020000000
B1154595636411N01346877EA0167301826000020000000
B1155035636459N01346816EA0167101824000020000000
B1155075636520N01346795EA0167101826000020000000
B1155115636582N01346811EA0168001837000020000000
B1155155636642N01346841EA0169001848000020000000
B1155195636702N01346871EA0169501848000020000000
B1155235636769N01346891EA0168701825000020000000
B1155275636851N01346889EA0165701804000024000000
B1155315636936N01346871EA0164701794000024000000
B1155355637020N01346843EA0163201784000028000000
B1155395637103N01346813EA0163001787000024000000
B1155435637184N01346789EA0163001784000024000000
B1155475637269N01346782EA0162101768000024000000
B1155515637356N01346800EA0160701763000024000000
B1155555637441N01346837EA0160401756000024000000
B1155595637523N01346889EA0160001750000028000000
B1156035637608N01346945EA0158801734000024000000
B1156075637695N01347005EA0157301722000028000000
B1156115637782N01347062EA0157001727000024000000
B1156155637868N01347106EA0157301727000024000000
B1156195637955N01347133EA0157001718000024000000
B1156235638045N01347157EA0155301701000024000000
B1156275638137N01347176EA0154401699000024000000
B1156315638228N01347190EA0154201685000024000000
B1156355638323N01347211EA0152401669000028000000
B1156395638419N01347235EA0150701658000024000000
B1156435638511N01347266EA0150501658000024000000
B1156475638601N01347305EA0150001650000024000000
B1156515638687N01347362EA0149601646000024000000
B1156555638769N01347437EA0149001644000024000000
B1156595638839N01347530EA0149601649000024000000
B1157035638903N01347640EA0149601647000024000000
B1157075638961N01347762EA0149201642000024000000
B1157115639016N01347892EA0148701637000024000000
B1157155639069N01348028EA0148201635000024000000
B1157195639122N01348163EA0148401645000024000000
B1157235639167N01348284EA0150801671000024000000
B1157275639200N01348396EA0153301689000024000000
B1157315639235N01348507EA0153501680000020000000
B1157355639278N01348628EA0153001684000024000000
B1157395639325N01348706EA0156601730000020000000
B1157435639377N01348679EA0157901722000020000000
B1157475639365N01348576EA0157201730000020000000
B1157515639308N01348588EA0158801739000020000000
B1157555639267N01348672EA0159801759000020000000
B1157595639245N01348766EA0161701770000024000000
B1158035639271N01348854EA0162801781000020000000
B1158075639315N01348925EA0162801773000020000000
B1158115639365N01349013EA0161501764000020000000
B1158155639421N01349117EA0160401747000020000000
B1158195639486N01349221EA0159501758000024000000
B1158235639550N01349308EA0160801755000024000000
B1158275639619N01349411EA0158401722000024000000
B1158315639693N01349525EA0156501721000028000000
B1158355639766N01349637EA0156101709000032000000
B1158395639840N01349748EA0155301705000032000000
B1158435639913N01349846EA0155401720000032000000
B1158475639974N01349933EA0157101715000028000000
B1158515640045N01350027EA0154201690000028000000
B1158555640122N01350117EA0153501687000028000000
B1158595640199N01350203EA0153401685000028000000
B1159035640277N01350281EA0152801675000028000000
B1159075640357N01350365EA0151501662000024000000
B1159115640439N01350455EA0150001648000028000000
B1159155640524N01350542EA0148701643000028000000
B1159195640603N01350625EA0149001644000028000000
B1159235640681N01350702EA0148501635000028000000
B1159275640763N01350776EA0147101619000028000000
B1159315640846N01350855EA0146201616000028000000
B1159355640928N01350934EA0145901614000028000000
B1159395641002N01351010EA0146701626000028000000
B1159435641072N01351081EA0147201621000024000000
B1159475641141N01351155EA0146201611000024000000
B1159515641204N01351226EA0146801639000024000000
B1159555641253N01351283EA0150201655000020000000
B1159595641300N01351344EA0151201662000024000000
B1200035641349N01351408EA0152101682000020000000
B1200075641401N01351430EA0154001691000016000000
B1200115641457N01351435EA0154501698000016000000
B1200155641518N01351451EA0154201684000016000000
B1200195641594N01351464EA0151701662000024000000
B1200235641678N01351478EA0150701662000028000000
B1200275641756N01351488EA0151501677000028000000
B1200315641829N01351497EA0152601674000024000000
B1200355641903N01351504EA0151801664000020000000
B1200395641982N01351509EA0150901660000020000000
B1200435642060N01351522EA0150701655000020000000
B1200475642141N01351542EA0149801647000020000000
B1200515642222N01351566EA0149301649000020000000
B1200555642300N01351592EA0149401641000020000000
B1200595642383N01351623EA0148101630000024000000
B1201035642467N01351657EA0147601628000024000000
B1201075642548N01351695EA0147601631000024000000
B1201115642622N01351737EA0147501621000024000000
B1201155642699N01351789EA0145901594000024000000
B1201195642784N01351850EA0142601568000028000000
B1201235642869N01351911EA0141801570000032000000
B1201275642953N01351968EA0141301564000028000000
B1201315643030N01352017EA0142801588000028000000
B1201355643098N01352062EA0145101614000024000000
B1201395643150N01352094EA0148901650000020000000
B1201435643207N01352112EA0150101655000020000000
B1201475643263N01352133EA0152401682000020000000
B1201515643295N01352069EA0154201690000024000000
B1201555643258N01351991EA0155001707000024000000
B1201595643197N01352013EA0157201730000020000000
B1202035643152N01352102EA0158801740000020000000
B1202075643151N01352225EA0160001759000024000000
B1202115643191N01352310EA0162301778000024000000
B1202155643251N01352323EA0163301790000024000000
B1202195643289N01352253EA0164701810000024000000
B1202235643278N01352154EA0166101816000020000000
B1202275643228N01352093EA0167601841000024000000
B1202315643167N01352119EA0169401851000024000000
B1202355643142N01352233EA0170701866000020000000
B1202395643174N01352340EA0172101881000020000000
B1202435643236N01352346EA0173701897000016000000
B1202475643252N01352253EA0175201910000016000000
B1202515643204N01352180EA0176101918000016000000
B1202555643147N01352245EA0177901942000016000000
B1202595643156N01352367EA0179901956000016000000
B1203035643216N01352397EA0181501977000016000000
B1203075643238N01352310EA0183301988000016000000
B1203115643191N01352238EA0183801996000016000000
B1203155643137N01352311EA0185202013000020000000
B1203195643150N01352435EA0186702027000016000000
B1203235643203N01352517EA0188002042000016000000
B1203275643264N01352567EA0189802057000016000000
B1203315643329N01352601EA0190202052000016000000
B1203355643403N01352628EA0187802021000020000000
B1203395643488N01352644EA0186102015000024000000
B1203435643575N01352654EA0184601997000024000000
B1203475643666N01352665EA0183101985000032000000
B1203515643758N01352675EA0183601999000032000000
B1203555643843N01352683EA0185202017000032000000
B1203595643926N01352692EA0185101987000028000000
B1204035644019N01352713EA0182201979000028000000
B1204075644112N01352744EA0182001976000028000000
B1204115644203N01352779EA0181301970000028000000
B1204155644289N01352821EA0181701988000032000000
B1204195644367N01352866EA0183301981000028000000
B1204235644452N01352923EA0181501965000032000000
B1204275644542N01352981EA0180301958000028000000
B1204315644633N01353039EA0179701959000028000000
B1204355644720N01353092EA0180701967000024000000
B1204395644802N01353146EA0181001978000024000000
B1204435644870N01353189EA0183701990000024000000
B1204475644946N01353233EA0181701970000024000000
B1204515645027N01353285EA0180401954000024000000
B1204555645114N01353346EA0178901943000028000000
B1204595645202N01353397EA0178801937000028000000
B1205035645292N01353442EA0178101937000032000000
B1205075645382N01353473EA0178401954000032000000
B1205115645459N01353488EA0181401972000032000000
B1205155645530N01353502EA0182501970000028000000
B1205195645615N01353506EA0179001926000032000000
B1205235645706N01353489EA0177301933000032000000
B1205275645791N01353453EA0177901933000032000000
B1205315645876N01353406EA0177401925000032000000
B1205355645962N01353351EA0176101913000032000000
B1205395646049N01353295EA0175801912000032000000
B1205435646135N01353242EA0175401905000036000000
B1205475646218N01353191EA0175801921000032000000
B1205515646297N01353141EA0175901906000032000000
B1205555646379N01353095EA0175201913000028000000
B1205595646458N01353050EA0175701910000032000000
B1206035646536N01353007EA0175301901000028000000
B1206075646622N01352981EA0173901884000032000000
B1206115646713N01352999EA0172201873000032000000
B1206155646801N01353035EA0172001884000032000000
B1206195646870N01353060EA0175401912000028000000
B1206235646942N01353086EA0174701894000028000000
B1206275647013N01353113EA0175901926000024000000
B1206315647074N01353142EA0177801925000024000000
B1206355647146N01353199EA0176101903000024000000
B1206395647210N01353277EA0176401948000024000000
B1206435647259N01353346EA0180401964000024000000
B1206475647312N01353423EA0181001965000020000000
B1206515647366N01353503EA0182501985000020000000
B1206555647419N01353586EA0183501997000020000000
B1206595647474N01353668EA0184902013000020000000
B1207035647528N01353752EA0186402026000020000000
B1207075647583N01353840EA0187302033000020000000
B1207115647637N01353939EA0187702033000020000000
B1207155647696N01354052EA0187202039000024000000
B1207195647745N01354145EA0190102060000020000000
B1207235647801N01354248EA0187402011000024000000
B1207275647882N01354363EA0183101986000028000000
B1207315647969N01354461EA0182501982000024000000
B1207355648055N01354556EA0182201979000028000000
B1207395648140N01354642EA0182001974000028000000
B1207435648226N01354724EA0181101965000028000000
B1207475648311N01354803EA0181001975000024000000
B1207515648393N01354877EA0181201964000028000000
B1207555648478N01354951EA0179901951000028000000
B1207595648568N01355024EA0179001947000028000000
B1208035648653N01355093EA0179401955000028000000
B1208075648736N01355163EA0179801957000024000000
B1208115648816N01355231EA0179901956000024000000
B1208155648896N01355299EA0180001959000024000000
B1208195648974N01355367EA0180001954000024000000
B1208235649053N01355436EA0179401950000020000000
B1208275649135N01355499EA0178901941000024000000
B1208315649218N01355560EA0178001937000024000000
B1208355649301N01355618EA0178001934000024000000
B1208395649381N01355677EA0178401947000024000000
B1208435649457N01355738EA0178601935000024000000
B1208475649538N01355803EA0177801936000024000000
B1208515649616N01355864EA0178301948000024000000
B1208555649691N01355916EA0179401949000024000000
B1208595649765N01355971EA0179401954000024000000
B1209035649838N01356027EA0179401944000020000000
B1209075649916N01356088EA0177901929000020000000
B1209115649997N01356151EA0177001926000020000000
B1209155650076N01356215EA0176801922000020000000
B1209195650155N01356277EA0176501920000024000000
B1209235650233N01356340EA0176101914000020000000
B1209275650310N01356404EA0175701912000024000000
B1209315650386N01356467EA0175401906000020000000
B1209355650461N01356534EA0174701899000024000000
B1209395650535N01356601EA0174001889000020000000
B1209435650610N01356674EA0172501875000024000000
B1209475650686N01356748EA0171201866000028000000
B1209515650760N01356823EA0170601858000028000000
B1209555650834N01356898EA0170001845000028000000
B1209595650913N01356965EA0168401839000024000000
B1210035650990N01357024EA0168501839000024000000
B1210075651068N01357081EA0168001831000024000000
B1210115651145N01357137EA0167601831000024000000
B1210155651220N01357189EA0167401832000024000000
B1210195651294N01357242EA0167401820000028000000
B1210235651367N01357303EA0166901824000028000000
B1210275651436N01357362EA0167901860000028000000
B1210315651485N01357337EA0172701891000024000000
B1210355651491N01357233EA0174101893000024000000
B1210395651436N01357191EA0175401914000020000000
B1210435651377N01357220EA0176601919000020000000
B1210475651332N01357302EA0176601916000016000000
B1210515651332N01357424EA0176801922000016000000
B1210555651363N01357533EA0177801937000020000000
B1210595651375N01357639EA0180501961000020000000
B1211035651324N01357702EA0180801958000024000000
B1211075651281N01357614EA0181001971000028000000
B1211115651305N01357523EA0183301990000024000000
B1211155651354N01357505EA0184202003000024000000
B1211195651394N01357576EA0185602012000024000000
B1211235651431N01357649EA0186902036000020000000
B1211275651479N01357692EA0188702040000016000000
B1211315651536N01357713EA0189102054000016000000
B1211355651589N01357722EA0190302049000016000000
B1211395651662N01357727EA0187202018000020000000
B1211435651741N01357736EA0187602049000020000000
B1211475651813N01357746EA0190302065000020000000
B1211515651886N01357753EA0190502057000020000000
B1211555651960N01357762EA0190602055000020000000
B1211595652039N01357763EA0187802025000024000000
B1212035652120N01357759EA0186502022000024000000
B1212075652198N01357758EA0185802011000024000000
B1212115652280N01357756EA0184001994000028000000
B1212155652360N01357749EA0183601993000028000000
B1212195652440N01357752EA0183001981000028000000
B1212235652520N01357759EA0181601968000028000000
B1212275652603N01357769EA0179701943000032000000
B1212315652689N01357774EA0178401930000032000000
B1212355652775N01357776EA0177501946000032000000
B1212395652853N01357782EA0179301946000032000000
B1212435652934N01357788EA0178201927000028000000
B1212475653019N01357792EA0176101911000028000000
B1212515653105N01357797EA0175001904000028000000
B1212555653187N01357805EA0174801908000032000000
B1212595653260N01357810EA0177001929000028000000
B1213035653330N01357810EA0177901944000024000000
B1213075653394N01357810EA0180001964000024000000
B1213115653456N01357809EA0181501964000024000000
B1213155653530N01357814EA0179201933000024000000
B1213195653615N01357848EA0177501933000024000000
B1213235653694N01357896EA0177601931000028000000
B1213275653773N01357949EA0177101925000028000000
B1213315653853N01358003EA0176401916000024000000
B1213355653936N01358057EA0174901898000028000000
B1213395654020N01358109EA0174401901000024000000
B1213435654104N01358156EA0174401894000024000000
B1213475654189N01358204EA0173101877000024000000
B1213515654279N01358257EA0171801873000028000000
B1213555654366N01358312EA0172101878000028000000
B1213595654449N01358367EA0173101891000028000000
B1214035654523N01358426EA0175101907000028000000
B1214075654595N01358484EA0174401885000028000000
B1214115654673N01358549EA0171601865000032000000
B1214155654755N01358611EA0170301853000032000000
B1214195654834N01358677EA0169701848000032000000
B1214235654910N01358742EA0169401844000028000000
B1214275654984N01358809EA0168701836000028000000
B1214315655058N01358871EA0167801824000028000000
B1214355655133N01358932EA0166801819000028000000
B1214395655205N01358997EA0166801820000028000000
B1214435655275N01359059EA0166701814000028000000
B1214475655352N01359119EA0165301802000028000000
B1214515655428N01359171EA0165001803000028000000
B1214555655504N01359221EA0165001802000028000000
B1214595655575N01359273EA0165201803000028000000
B1215035655644N01359335EA0164701795000028000000
B1215075655716N01359403EA0164001786000028000000
B1215115655787N01359468EA0163201785000024000000
B1215155655860N01359521EA0163501783000024000000
B1215195655934N01359577EA0162801779000024000000
B1215235656007N01359634EA0162201769000028000000
B1215275656073N01359674EA0163301803000024000000
B1215315656129N01359707EA0165701807000024000000
B1215355656190N01359741EA0165401815000024000000
B1215395656243N01359767EA0167301825000020000000
B1215435656303N01359793EA0166601800000020000000
B1215475656380N01359821EA0163301771000024000000
B1215515656460N01359842EA0162401781000024000000
B1215555656540N01359860EA0163101784000024000000
B1215595656616N01359875EA0164001812000028000000
B1216035656672N01359891EA0168101848000024000000
B1216075656724N01359907EA0169701835000024000000
B1216115656788N01359916EA0168101835000024000000
B1216155656848N01359925EA0169201850000024000000
B1216195656900N01359933EA0171001875000016000000
B1216235656948N01359943EA0172901882000016000000
B1216275657005N01359956EA0173401889000016000000
B1216315657061N01359971EA0174501900000016000000
B1216355657123N01359989EA0174901902000016000000
B1216395657188N01400008EA0175201899000016000000
B1216435657261N01400023EA0173501870000024000000
B1216475657343N01400033EA0171101862000028000000
B1216515657425N01400041EA0170701857000028000000
B1216555657503N01400057EA0170801861000028000000
B1216595657584N01400070EA0170501858000028000000
B1217035657660N01400081EA0170901866000028000000
B1217075657736N01400093EA0171401869000028000000
B1217115657812N01400102EA0171301860000024000000
B1217155657893N01400111EA0170101846000028000000
B1217195657978N01400123EA0169301843000028000000
B1217235658063N01400131EA0168501829000028000000
B1217275658148N01400132EA0167401825000028000000
B1217315658232N01400135EA0167001820000028000000
B1217355658316N01400140EA0166401813000028000000
B1217395658400N01400146EA0165401804000028000000
B1217435658483N01400148EA0164801799000028000000
B1217475658566N01400145EA0163901786000028000000
B1217515658651N01400146EA0163201781000028000000
B1217555658734N01400148EA0162601777000028000000
B1217595658813N01400148EA0162301770000028000000
B1218035658891N01400148EA0161401756000028000000
B1218075658972N01400150EA0160101749000028000000
B1218115659049N01400153EA0160001754000028000000
B1218155659122N01400159EA0160601758000028000000
B1218195659193N01400162EA0160901761000024000000
B1218235659261N01400164EA0161501771000024000000
B1218275659327N01400167EA0162201767000024000000
B1218315659402N01400168EA0160301741000024000000
B1218355659484N01400167EA0159001747000028000000
B1218395659561N01400172EA0159701745000028000000
B1218435659639N01400181EA0159701752000028000000
B1218475659714N01400189EA0160401751000028000000
B1218515659792N01400197EA0159801751000028000000
B1218555659868N01400209EA0160701770000028000000
B1218595659935N01400224EA0162601780000028000000
B1219035700004N01400240EA0162501768000028000000
B1219075700082N01400253EA0161201764000028000000
B1219115700158N01400270EA0161701769000028000000
B1219155700236N01400284EA0161401763000028000000
B1219195700314N01400296EA0161201761000024000000
B1219235700393N01400311EA0160401748000028000000
B1219275700472N01400327EA0159601744000028000000
B1219315700553N01400341EA0158601731000028000000
B1219355700633N01400353EA0157801722000028000000
B1219395700717N01400362EA0156701710000028000000
B1219435700799N01400374EA0156001711000028000000
B1219475700882N01400383EA0155801704000028000000
B1219515700966N01400398EA0155701714000028000000
B1219555701043N01400415EA0157301730000028000000
B1219595701118N01400431EA0157901721000024000000
B1220035701202N01400444EA0156601721000024000000
B1220075701283N01400452EA0157301720000024000000
B1220115701365N01400461EA0156801721000028000000
B1220155701445N01400474EA0157301722000024000000
B1220195701528N01400483EA0156901717000024000000
B1220235701611N01400497EA0157001728000028000000
B1220275701688N01400509EA0158501742000028000000
B1220315701759N01400523EA0159601744000028000000
B1220355701835N01400539EA0158601730000028000000
B1220395701915N01400556EA0158201733000028000000
B1220435701993N01400575EA0158301726000028000000
B1220475702076N01400596EA0156301697000032000000
B1220515702162N01400625EA0154801713000032000000
B1220555702234N01400645EA0157401721000028000000
B1220595702308N01400660EA0155801693000028000000
B1221035702386N01400643EA0154301686000028000000
B1221075702460N01400587EA0152901671000028000000
B1221115702530N01400512EA0151901665000028000000
B1221155702599N01400435EA0151201659000028000000
B1221195702667N01400350EA0150701651000032000000
B1221235702736N01400268EA0150401660000032000000
B1221275702802N01400193EA0150801648000032000000
B1221315702872N01400111EA0149301642000032000000
B1221355702941N01400027EA0149301642000032000000
B1221395703003N01359941EA0149901650000032000000
B1221435703067N01359855EA0149701642000032000000
B1221475703132N01359768EA0149501646000032000000
B1221515703194N01359680EA0149801645000032000000
B1221555703262N01359596EA0149601652000032000000
B1221595703322N01359524EA0151301668000028000000
B1222035703380N01359456EA0152301675000028000000
B1222075703436N01359395EA0153401687000024000000
B1222115703497N01359342EA0153701683000024000000
B1222155703564N01359322EA0154201690000024000000
B1222195703635N01359313EA0153401666000024000000
B1222235703718N01359293EA0150701654000028000000
B1222275703802N01359275EA0151101658000028000000
B1222315703887N01359258EA0150201647000028000000
B1222355703971N01359236EA0150201652000028000000
B1222395704054N01359218EA0150201653000028000000
B1222435704133N01359206EA0151001669000032000000
B1222475704207N01359193EA0152001660000028000000
B1222515704286N01359182EA0149601632000028000000
B1222555704372N01359184EA0147701619000032000000
B1222595704462N01359184EA0146201605000032000000
B1223035704553N01359189EA0145001595000032000000
B1223075704643N01359193EA0144201591000032000000
B1223115704728N01359199EA0144301591000032000000
B1223155704813N01359204EA0144001585000032000000
B1223195704899N01359215EA0143201574000028000000
B1223235704986N01359232EA0142201562000028000000
B1223275705076N01359249EA0141101556000028000000
B1223315705163N01359269EA0140701552000028000000
B1223355705250N01359293EA0139901538000028000000
B1223395705338N01359319EA0138501529000028000000
B1223435705427N01359329EA0138201526000028000000
B1223475705511N01359329EA0137901526000028000000
B1223515705597N01359321EA0137301514000032000000
B1223555705679N01359313EA0137101524000028000000
B1223595705757N01359306EA0137601514000028000000
B1224035705835N01359288EA0136201495000032000000
B1224075705910N01359270EA0135601515000032000000
B1224115705973N01359257EA0138101533000028000000
B1224155706030N01359241EA0139101535000024000000
B1224195706088N01359215EA0139901559000024000000
B1224235706142N01359222EA0142901584000024000000
B1224275706160N01359323EA0144301587000024000000
B1224315706113N01359395EA0145001607000024000000
B1224355706062N01359362EA0147101619000020000000
B1224395706049N01359262EA0147101618000020000000
B1224435706070N01359162EA0148901642000020000000
B1224475706116N01359121EA0150801665000020000000
B1224515706145N01359201EA0153101683000020000000
B1224555706110N01359300EA0154101693000020000000
B1224595706057N01359271EA0156601723000020000000
B1225035706044N01359180EA0158801738000020000000
B1225075706088N01359130EA0159901756000020000000
B1225115706126N01359200EA0162401780000020000000
B1225155706097N01359305EA0163401785000020000000
B1225195706036N01359299EA0165001809000020000000
B1225235706028N01359199EA0167101823000020000000
B1225275706080N01359179EA0169001852000020000000
B1225315706106N01359274EA0171301868000020000000
B1225355706061N01359362EA0172201881000020000000
B1225395706008N01359309EA0174001899000020000000
B1225435706032N01359214EA0175401914000020000000
B1225475706090N01359195EA0177901938000024000000
B1225515706116N01359305EA0178901944000024000000
B1225555706060N01359383EA0180401972000020000000
B1225595706014N01359317EA0183101990000016000000
B1226035706041N01359232EA0184402002000020000000
B1226075706099N01359231EA0186002022000020000000
B1226115706123N01359336EA0187502030000020000000
B1226155706078N01359431EA0188202044000020000000
B1226195706013N01359409EA0190002060000020000000
B1226235705984N01359316EA0191702081000020000000
B1226275706005N01359230EA0193302091000020000000
B1226315706060N01359247EA0193902096000016000000
B1226355706075N01359365EA0194202101000016000000
B1226395706021N01359443EA0195402118000020000000
B1226435705954N01359425EA0197302137000016000000
B1226475705913N01359343EA0199102146000016000000
B1226515705936N01359253EA0199502154000020000000
B1226555705991N01359258EA0200602165000020000000
B1226595706018N01359361EA0201202172000020000000
B1227035706006N01359485EA0202502184000020000000
B1227075705995N01359617EA0202502183000020000000
B1227115705996N01359758EA0202902183000020000000
B1227155706015N01359907EA0200202146000024000000
B1227195706067N01400053EA0198302139000028000000
B1227235706129N01400154EA0199602174000028000000
B1227275706192N01400232EA0201602169000024000000
B1227315706260N01400301EA0200802148000024000000
B1227355706340N01400376EA0198002131000028000000
B1227395706411N01400439EA0199702180000028000000
B1227435706470N01400491EA0202502166000028000000
B1227475706548N01400552EA0198302122000032000000
B1227515706637N01400613EA0196802127000032000000
B1227555706725N01400665EA0196902122000032000000
B1227595706812N01400716EA0196602124000032000000
B1228035706898N01400757EA0196402113000032000000
B1228075706984N01400792EA0196202120000032000000
