ACAM3X6
HFDTE050710
HFFXA050
HFPLTPILOT:Peter Cutting           
HFGTYGLIDERTYPE:LS 8        
HFGIDGLIDERID:P           
HFDTM100GPSDATUM:
HFRFWFIRMWAREVERSION:F2.6
HFRHWHARDWAREVERSION:300 Series Version 2
HFFTYFRTYPE:CAMBRIDGE AERO INSTRUMENTS, 302+
HFGPS:GARMIN,LVS-25,12,18000
HFPRSPRESSALTSENSOR:INTERSEMA, MS5534-AP, 20000
I033638FXA3941ENL4247REX
LCAMSBVER:5FWVER:F26300
C050710110022050710000104
C0000000N00000000WTAKEOFF     
C5958433N01727550EStart-Alpha 
C6002967N01659017EHuddunge    
C6000533N01604850EKarbenning  
C6015650N01712633EToften      
C5951400N01726333EBrunna      
C5955233N01731833EFinnishline 
C0000000N00000000WLANDING     
B1125335955504N01732358EA0002600020000556000000
B1125355955504N01732358EA0002700020000556000000
B1125375955504N01732358EA0002600020000564000000
B1125395955504N01732358EA0002500020000572000000
B1125415955504N01732358EA0002500020000576000000
B1125435955504N01732358EA0002700020000572000000
B1125455955504N01732358EA0002700020000588000000
B1125475955504N01732358EA0002800020000592000000
B1125495955504N01732358EA0002600020000588000000
B1125515955504N01732358EA0002500020000600000000
B1125535955504N01732358EA0002700020000624000000
B1125555955504N01732358EA0002700020000636000000
B1125575955504N01732358EA0002400020000632000000
B1125595955504N01732358EA0002400020000624000000
B1126015955502N01732352EA0002700020000656000000
B1126045955494N01732332EA0002700020000852000000
B1126105955468N01732256EA0003000019000996000000
B1126165955428N01732135EA0002900020000996000000
B1126225955373N01731975EA0003200022000884000000
B1126285955312N01731798EA0004400040000800000000
B1126345955252N01731625EA0006900067000760000000
B1126405955196N01731457EA0009600095000728000000
B1126465955143N01731288EA0011900116000728000000
B1126525955082N01731132EA0013400140000732000000
B1126585955022N01730979EA0016200161000716000000
B1127045954962N01730823EA0017600178000692000000
B1127105954911N01730662EA0019800199000692000000
B1127165954867N01730498EA0021900216000692000000
B1127225954822N01730333EA0023200232000704000000
B1127285954772N01730168EA0024400245000704000000
B1127345954727N01729999EA0026400269000712000000
B1127405954684N01729822EA0027800280000696000000
B1127465954640N01729646EA0030000308000664000000
B1127525954594N01729471EA0032800336000632000000
B1127585954547N01729295EA0035600365000620000000
B1128045954498N01729121EA0038800397000612000000
B1128105954462N01728950EA0042300436000604000000
B1128165954424N01728785EA0044500452000600000000
B1128225954389N01728609EA0046400475000596000000
B1128285954358N01728428EA0048200494000596000000
B1128345954338N01728242EA0050100509000592000000
B1128405954338N01728051EA0051100526000592000000
B1128465954356N01727859EA0053300542000596000000
B1128525954395N01727673EA0054300556000592000000
B1128585954441N01727485EA0055700567000592000000
B1129045954488N01727301EA0057700591000592000000
B1129105954538N01727118EA0059700607000592000000
B1129165954592N01726935EA0060700621000588000000
B1129225954645N01726751EA0062300642000588000000
B1129285954697N01726576EA0065500675000588000000
B1129345954759N01726396EA0068400703000592000000
B1129405954820N01726207EA0070900726000592000000
B1129465954892N01726027EA0072400744000592000000
B1129525954974N01725873EA0074000756000592000000
B1129585955061N01725731EA0075100768000588000000
B1130045955147N01725588EA0076600785000584000000
B1130105955238N01725451EA0077500794000584000000
B1130165955325N01725324EA0078600799000580000000
B1130225955374N01725186EA0079400812000576000000
B1130285955425N01725056EA0076500766000568000000
B1130345955503N01724870EA0070700722000596000000
B1130405955572N01724756EA0074400759000648000000
B1130465955646N01724630EA0070200690000616000000
B1130525955746N01724462EA0066700713000804000000
B1130585955836N01724354EA0071700735000996000000
B1131045955951N01724346EA0072500748000996000000
B1131105956059N01724466EA0073200743000996000000
B1131165956145N01724661EA0073500756000996000000
B1131225956217N01724859EA0075300771000996000000
B1131285956287N01725060EA0075900779000996000000
B1131345956361N01725255EA0078200804000996000000
B1131405956458N01725310EA0079200804000940015000
B1131465956523N01725187EA0077900794000764000000
B1131525956500N01725055EA0077600788000660000000
B1131585956427N01725003EA0077000782000608000000
B1132045956345N01724977EA0076100779000584000000
B1132105956265N01725046EA0076300778000572000000
B1132165956223N01725213EA0077800801000568000000
B1132225956302N01725324EA0079300810000568015000
B1132285956366N01725220EA0079300806000568000000
B1132345956340N01725081EA0078400801000564000000
B1132405956263N01725044EA0078100795000560000000
B1132465956197N01725159EA0077300785000556000000
B1132525956217N01725369EA0077700796000560000000
B1132585956291N01725524EA0079100810000560000000
B1133045956348N01725403EA0080200821000560000000
B1133105956279N01725392EA0081000837000560000000
B1133165956258N01725580EA0083900865000556000000
B1133225956347N01725670EA0086400876000568000000
B1133285956365N01725524EA0085400874000576000000
B1133345956283N01725541EA0088000897000576000000
B1133405956267N01725727EA0088900911000564000000
B1133465956362N01725753EA0089600915000564015000
B1133525956366N01725602EA0091100933000564000000
B1133585956293N01725593EA0093100949000564015000
B1134045956297N01725776EA0092100939000568000000
B1134105956399N01725806EA0092800948000580000000
B1134165956451N01725672EA0094000966000568000000
B1134225956392N01725596EA0095400973000568000000
B1134285956361N01725770EA0096000981000560000000
B1134345956449N01725858EA0096200986000556015000
B1134405956516N01725733EA0098001005000556000000
B1134465956481N01725597EA0099001010000556000000
B1134525956408N01725701EA0099201011000556000000
B1134585956457N01725879EA0099501013000556000000
B1135045956552N01725828EA0100401029000552000000
B1135105956564N01725662EA0101901043000552000000
B1135165956482N01725655EA0103001047000552000000
B1135225956471N01725857EA0101901030000552000000
B1135285956559N01726030EA0101001039000556000000
B1135345956663N01726086EA0102901053000548015000
B1135405956679N01725918EA0103301055000552000000
B1135465956596N01725934EA0104601072000548000000
B1135525956573N01726131EA0105601081000552000000
B1135585956670N01726221EA0106801096000544000000
B1136045956728N01726077EA0107901101000540000000
B1136105956661N01725983EA0108701117000540000000
B1136165956585N01726097EA0109701121000544000000
B1136225956625N01726308EA0110201130000544000000
B1136285956725N01726286EA0112201146000544015000
B1136345956712N01726134EA0112601148000548000000
B1136405956630N01726220EA0113701169000548000000
B1136465956670N01726421EA0114101170000544000000
B1136525956774N01726504EA0116101188000544000000
B1136585956845N01726400EA0117201197000544000000
B1137045956798N01726278EA0117101196000544000000
B1137105956708N01726296EA0117601201000544000000
B1137165956660N01726477EA0118001203000544000000
B1137225956737N01726632EA0118301212000548000000
B1137285956804N01726532EA0120001227000540015000
B1137345956741N01726459EA0120101228000540000000
B1137405956696N01726633EA0120901231000544000000
B1137465956757N01726822EA0120901234000544000000
B1137525956855N01726807EA0121801248000540000000
B1137585956864N01726653EA0122501248000540000000
B1138045956783N01726705EA0123101257000548000000
B1138105956811N01726905EA0123401262000544000000
B1138165956916N01726944EA0124201268000536000000
B1138225956977N01726812EA0124101268000532000000
B1138285956924N01726688EA0124601273000540000000
B1138345956839N01726757EA0124501271000540000000
B1138405956830N01726966EA0124801276000540000000
B1138465956910N01727115EA0125401279000540000000
B1138525957003N01727063EA0125901288000536000000
B1138585957025N01726907EA0126101290000536000000
B1139045956963N01726823EA0126301289000536000000
B1139105956894N01726945EA0125801284000536000000
B1139165956913N01727157EA0126501290000536000000
B1139225957008N01727277EA0126501291000544000000
B1139285957107N01727212EA0126501290000536015000
B1139345957116N01727031EA0126201288000536000000
B1139405957045N01726922EA0126201288000536000000
B1139465956954N01726981EA0125501280000528000000
B1139525956930N01727191EA0125001275000528000000
B1139585957002N01727355EA0125501281000528000000
B1140045957110N01727377EA0126101290000524000000
B1140105957151N01727225EA0126901293000532000000
B1140165957077N01727212EA0127401301000536000000
B1140225957066N01727413EA0127001296000536000000
B1140285957157N01727550EA0127701301000540000000
B1140345957240N01727465EA0128401308000536015000
B1140405957196N01727353EA0127801309000536000000
B1140465957133N01727482EA0128601315000532000000
B1140525957180N01727665EA0129701321000532000000
B1140585957279N01727669EA0129701322000532015000
B1141045957313N01727521EA0129801319000536000000
B1141105957235N01727470EA0128901317000536000000
B1141165957192N01727644EA0129501320000536000000
B1141225957270N01727800EA0129401322000532000000
B1141285957375N01727819EA0129801322000536000000
B1141345957424N01727676EA0129701319000532000000
B1141405957376N01727547EA0129101319000540000000
B1141465957290N01727586EA0129401321000536000000
B1141525957292N01727790EA0129901325000536000000
B1141585957387N01727847EA0130501333000536000000
B1142045957418N01727704EA0130301327000532000000
B1142105957339N01727683EA0130101327000532000000
B1142165957318N01727882EA0130401334000528000000
B1142225957402N01728045EA0129201309000536000000
B1142285957534N01728163EA0127301300000536000000
B1142345957675N01728263EA0126101284000536000000
B1142405957822N01728361EA0126201303000540000000
B1142465957959N01728443EA0128301319000540000000
B1142525958091N01728500EA0128801315000524000000
B1142585958174N01728366EA0128201309000524000000
B1143045958180N01728174EA0127201303000536000000
B1143105958147N01728006EA0127601304000544000000
B1143165958093N01727847EA0125801288000536000000
B1143225958030N01727707EA0127401304000544000000
B1143285957974N01727598EA0128201312000540000000
B1143345957903N01727555EA0127901303000536000000
B1143405957831N01727659EA0127701308000532000000
B1143465957855N01727858EA0127801302000528000000
B1143525957952N01727916EA0126701287000516015000
B1143585958013N01727786EA0125001272000516000000
B1144045957998N01727618EA0124001268000532000000
B1144105957951N01727494EA0124701275000532000000
B1144165957879N01727609EA0125201283000532000000
B1144225957927N01727798EA0126401291000524000000
B1144285958031N01727776EA0126501292000524000000
B1144345958054N01727620EA0127101302000528000000
B1144405957986N01727559EA0127501301000528000000
B1144465957911N01727655EA0127101294000524000000
B1144525957916N01727860EA0127401301000524000000
B1144585958017N01727941EA0127601301000528000000
B1145045958082N01727810EA0127701305000528015000
B1145105958035N01727696EA0128501309000520000000
B1145165957987N01727847EA0127801303000528000000
B1145225958068N01727973EA0128201308000524000000
B1145285958156N01727895EA0128501309000528000000
B1145345958173N01727745EA0127801297000520000000
B1145405958107N01727660EA0126601297000524000000
B1145465958037N01727778EA0127301296000528000000
B1145525958037N01728005EA0125901281000524000000
B1145585958126N01728144EA0126501287000536000000
B1146045958237N01728164EA0125801282000536000000
B1146105958303N01728037EA0125701283000536000000
B1146165958303N01727864EA0123701245000524000000
B1146225958273N01727637EA0118101207000532000000
B1146285958236N01727409EA0118601223000536000000
B1146345958200N01727218EA0122001256000536000000
B1146405958129N01727219EA0123401250000532000000
B1146465958117N01727438EA0121101237000524000000
B1146525958193N01727607EA0122101248000528000000
B1146585958293N01727609EA0121701243000528015000
B1147045958342N01727447EA0121601240000532000000
B1147105958377N01727286EA0123401260000524000000
B1147165958308N01727273EA0123801257000520015000
B1147225958304N01727481EA0120801224000512000000
B1147285958411N01727543EA0121001233000516000000
B1147345958509N01727474EA0121101238000520000000
B1147405958579N01727343EA0122301249000524000000
B1147465958580N01727180EA0123601260000516000000
B1147525958506N01727232EA0124201265000520015000
B1147585958533N01727433EA0123601261000520000000
B1148045958640N01727435EA0125401283000524015000
B1148105958670N01727290EA0127101297000516015000
B1148165958598N01727321EA0127401301000520015000
B1148225958618N01727521EA0127501297000524000000
B1148285958722N01727624EA0129101316000520000000
B1148345958795N01727516EA0129401329000516015000
B1148405958746N01727421EA0131101340000516000000
B1148465958693N01727551EA0131901350000516000000
B1148525958743N01727734EA0133201362000512000000
B1148585958839N01727726EA0134301372000516015000
B1149045958858N01727583EA0135001382000512000000
B1149105958791N01727553EA0135601386000516015000
B1149165958759N01727732EA0136001391000516000000
B1149225958840N01727881EA0136901402000516015000
B1149285958928N01727834EA0137901408000520015000
B1149345958914N01727698EA0138101413000520000000
B1149405958840N01727735EA0138301413000516015000
B1149465958843N01727943EA0138701420000516000000
B1149525958940N01728015EA0140101431000516015000
B1149585958984N01727888EA0140701437000516000000
B1150045958939N01727782EA0140201433000516000000
B1150105958866N01727873EA0140801436000520000000
B1150165958852N01728079EA0140701439000520000000
B1150225958943N01728187EA0141101443000520000000
B1150285959003N01728075EA0142001455000516015000
B1150345958949N01727989EA0142101451000516015000
B1150405958892N01728127EA0141401442000516015000
B1150465958958N01728288EA0141301442000520000000
B1150525959057N01728241EA0141601449000516015000
B1150585959099N01728096EA0141201441000520000000
B1151045959032N01728027EA0141101439000524015000
B1151105958973N01728163EA0140801437000524000000
B1151165959016N01728357EA0140501436000520000000
B1151225959116N01728388EA0140901437000512015000
B1151285959179N01728261EA0140901440000512015000
B1151345959139N01728148EA0140001429000512015000
B1151405959053N01728188EA0138201412000512015000
B1151465959006N01728367EA0138201413000516000000
B1151525959070N01728528EA0138201416000516000000
B1151585959165N01728502EA0138701422000504015000
B1152045959143N01728379EA0139901425000512000000
B1152105959081N01728514EA0138101410000508000000
B1152165959135N01728709EA0139301426000516000000
B1152225959226N01728682EA0139101417000524015000
B1152285959198N01728552EA0139301429000524000000
B1152345959123N01728643EA0138801416000524000000
B1152405959127N01728865EA0139701429000524000000
B1152465959218N01728941EA0140301430000516015000
B1152525959227N01728801EA0139701429000512000000
B1152585959144N01728812EA0140601435000520015000
B1153045959099N01728994EA0140401433000516000000
B1153105959166N01729169EA0141201440000512000000
B1153165959253N01729107EA0141501446000516015000
B1153225959238N01728963EA0141601446000512000000
B1153285959151N01728983EA0141701446000516015000
B1153345959127N01729197EA0141201441000512000000
B1153405959220N01729299EA0141801449000512015000
B1153465959282N01729178EA0142201448000520015000
B1153525959268N01729021EA0142101444000520000000
B1153585959226N01728853EA0139301411000524000000
B1154045959169N01728679EA0137801413000520000000
B1154105959121N01728509EA0138301416000516000000
B1154165959078N01728335EA0137801410000508000000
B1154225959040N01728161EA0137401405000508000000
B1154285959004N01727986EA0136501396000516000000
B1154345958967N01727803EA0135501383000512000000
B1154405958931N01727612EA0134401373000508000000
B1154465958902N01727421EA0134301378000504015000
B1154525958876N01727239EA0134301372000508015000
B1154585958843N01727063EA0133901371000512015000
B1155045958798N01726905EA0134401376000520015000
B1155105958746N01726773EA0135101378000516015000
B1155165958675N01726666EA0133501362000512015000
B1155225958611N01726528EA0132401361000516015000
B1155285958532N01726415EA0132201354000520015000
B1155345958470N01726286EA0133601370000520015000
B1155405958397N01726407EA0135201380000532015000
B1155465958442N01726619EA0134801375000524015000
B1155525958544N01726706EA0134901380000524015000
B1155585958605N01726610EA0135901387000520015000
B1156045958562N01726485EA0135101381000520015000
B1156105958480N01726554EA0136601398000512015000
B1156165958476N01726771EA0136601394000512015000
B1156225958567N01726881EA0136501399000516015000
B1156285958637N01726788EA0137101401000512015000
B1156345958611N01726641EA0136601397000520015000
B1156405958524N01726632EA0137201402000516015000
B1156465958490N01726836EA0137301404000512015000
B1156525958570N01726958EA0138001409000512015000
B1156585958640N01726864EA0137501400000516015000
B1157045958676N01726705EA0137101408000520015000
B1157105958691N01726554EA0138801418000512015000
B1157165958691N01726404EA0139801426000512015000
B1157225958678N01726248EA0139201418000516015000
B1157285958642N01726117EA0139601422000516015000
B1157345958629N01725966EA0138601419000520015000
B1157405958684N01725818EA0139901425000520015000
B1157465958654N01725679EA0140601442000516015000
B1157525958583N01725765EA0141801450000508015000
B1157585958598N01725980EA0142501450000508015000
B1158045958706N01726053EA0142701464000508015000
B1158105958771N01725934EA0144001472000508015000
B1158165958718N01725844EA0144501481000512015000
B1158225958648N01725956EA0145201486000512015000
B1158285958661N01726172EA0146401494000512015000
B1158345958762N01726243EA0146601503000512015000
B1158405958808N01726109EA0147201504000508015000
B1158465958743N01726040EA0147301503000504015000
B1158525958687N01726212EA0147801513000504015000
B1158585958756N01726399EA0148401515000508015000
B1159045958841N01726317EA0149101523015508015000
B1159105958808N01726175EA0148401516000512015000
B1159165958718N01726247EA0148901527000512015000
B1159225958724N01726471EA0150501537000508015000
B1159285958826N01726512EA0150301532000508015000
B1159345958847N01726357EA0150701545015512015000
B1159405958772N01726330EA0151501550000512015000
B1159465958739N01726525EA0152201558000508015000
B1159525958824N01726671EA0152401557000508015000
B1159585958904N01726582EA0152701565000512015000
B1200045958869N01726460EA0153001560000512015000
B1200105958782N01726539EA0152701561000512015000
B1200165958782N01726776EA0153501566000512015000
B1200225958886N01726851EA0153801573000512015000
B1200285958901N01726718EA0154601579000516015000
B1200345958821N01726711EA0155501586000516015000
B1200405958779N01726897EA0156601598000512015000
B1200465958860N01727046EA0156201586000512015000
B1200525958917N01726923EA0155301588000516015000
B1200585958874N01726802EA0156401596000520015000
B1201045958792N01726849EA0156301594000516015000
B1201105958759N01727066EA0156801599000524015000
B1201165958841N01727235EA0157101603000524015000
B1201225958919N01727169EA0157001599000524015000
B1201285958889N01727039EA0157101607000516015000
B1201345958802N01727054EA0158101614000512015000
B1201405958789N01727273EA0158401617000516015000
B1201465958883N01727355EA0159101621000512015000
B1201525958947N01727236EA0160001629000516015000
B1201585958912N01727113EA0160601635000516015000
B1202045958844N01727239EA0160401636000512015000
B1202105958897N01727431EA0160101634000512015000
B1202165958996N01727399EA0161001641000516015000
B1202225959004N01727258EA0161401649000516015000
B1202285958926N01727306EA0161401642000516015000
B1202345958935N01727527EA0160801640000516015000
B1202405959032N01727617EA0161101645000520015000
B1202465959083N01727488EA0161301645000520015000
B1202525959027N01727394EA0161701651000524015000
B1202585958943N01727491EA0161401647000520015000
B1203045958953N01727715EA0161401646000516015000
B1203105959049N01727802EA0162201655000516015000
B1203165959121N01727698EA0161801648000516015000
B1203225959086N01727555EA0162101651000516015000
B1203285958997N01727626EA0162201652000516015000
B1203345958986N01727850EA0162501658000516015000
B1203405959073N01727967EA0163401663000516015000
B1203465959136N01727855EA0163201666000516015000
B1203525959083N01727748EA0164401676000520015000
B1203585959010N01727877EA0163801670000512015000
B1204045959042N01728083EA0163901669000516015000
B1204105959136N01728119EA0164201674000516015000
B1204165959174N01727976EA0164301678000512015000
B1204225959110N01727877EA0165001678000516015000
B1204285959049N01728037EA0164001672000520015000
B1204345959113N01728205EA0164001670000520015000
B1204405959217N01728218EA0164301676000520015000
B1204465959287N01728105EA0164501675000520015000
B1204525959237N01728007EA0164401681000516015000
B1204585959192N01728172EA0164601670000516015000
B1205045959270N01728343EA0164801682000516015000
B1205105959373N01728353EA0164601672000512015000
B1205165959386N01728202EA0163201655000512015000
B1205225959309N01728145EA0162601656000520015000
B1205285959238N01728257EA0163101662000520015000
B1205345959263N01728467EA0162501655000504015000
B1205405959368N01728519EA0163101661000508015000
B1205465959391N01728376EA0162201650000508015000
B1205525959320N01728310EA0161701649000516015000
B1205585959234N01728393EA0162101653000520015000
B1206045959199N01728595EA0162101649000520015000
B1206105959272N01728759EA0160901640000516015000
B1206165959370N01728749EA0162301650000520015000
B1206225959411N01728603EA0161101639000520015000
B1206285959354N01728492EA0160701637000520015000
B1206345959261N01728548EA0161401646000516015000
B1206405959248N01728761EA0160501634000516015000
B1206465959347N01728826EA0160001627000520015000
B1206525959393N01728668EA0160801644000516015000
B1206585959354N01728531EA0161801647000520015000
B1207045959283N01728652EA0162001647000512015000
B1207105959331N01728855EA0160601630000512015000
B1207165959430N01728830EA0160401633000516015000
B1207225959456N01728671EA0160901637000524015000
B1207285959387N01728579EA0161101635000524015000
B1207345959321N01728733EA0160801634000524015000
B1207405959389N01728900EA0160001624000516015000
B1207465959487N01728848EA0159601627000516015000
B1207525959525N01728694EA0159901628000512015000
B1207585959455N01728605EA0160001630000516015000
B1208045959374N01728718EA0159601623000512015000
B1208105959372N01728950EA0158701614000512015000
B1208165959445N01729128EA0157501600000516015000
B1208225959552N01729119EA0157601608000516015000
B1208285959627N01728993EA0157701601000520015000
B1208345959660N01728813EA0157001600000524015000
B1208405959624N01728647EA0156901599000528015000
B1208465959567N01728508EA0156601601000528015000
B1208525959511N01728378EA0155901582000528015000
B1208585959454N01728237EA0155601593000524015000
B1209045959411N01728114EA0156701585000520015000
B1209105959350N01727960EA0153201561000520015000
B1209165959277N01727823EA0153101569000520015000
B1209225959204N01727712EA0153201562000520015000
B1209285959139N01727577EA0152301557000524015000
B1209345959078N01727455EA0152901558000516015000
B1209405959014N01727325EA0151601548000512000000
B1209465958952N01727188EA0151201539000516000000
B1209525958887N01727039EA0150001530000512000000
B1209585958818N01726898EA0149601526000512000000
B1210045958748N01726770EA0149401529000500000000
B1210105958685N01726667EA0150101530000508015000
B1210165958616N01726558EA0148301512000504015000
B1210225958545N01726446EA0147801508000516015000
B1210285958466N01726376EA0147501507000516015000
B1210345958375N01726361EA0147001503000516015000
B1210405958280N01726357EA0145901491000520015000
B1210465958185N01726313EA0145001480000512015000
B1210525958096N01726233EA0143901470000512015000
B1210585958002N01726144EA0141501441000516015000
B1211045957907N01726017EA0139901435000520015000
B1211105957827N01725871EA0139801435000516015000
B1211165957753N01725745EA0140501441000516015000
B1211225957686N01725609EA0139801423000508015000
B1211285957626N01725446EA0138501422000508015000
B1211345957566N01725298EA0139001424000516015000
B1211405957478N01725278EA0139001419000512015000
B1211465957396N01725415EA0137601407000520000000
B1211525957319N01725558EA0137701408000528015000
B1211585957248N01725698EA0136701389000524000000
B1212045957223N01725917EA0135601389000528000000
B1212105957293N01726078EA0135901382000536015000
B1212165957370N01725986EA0135001376000528015000
B1212225957315N01725879EA0133901362000524000000
B1212285957224N01725861EA0132201350000520000000
B1212345957136N01725847EA0132901368000524000000
B1212405957062N01725927EA0134201380000520000000
B1212465957101N01726113EA0134301373000520000000
B1212525957198N01726100EA0135201390000516015000
B1212585957227N01725965EA0136301396000520000000
B1213045957157N01725918EA0136501398000520015000
B1213105957121N01726095EA0137101404000516000000
B1213165957203N01726234EA0137601408000520015000
B1213225957275N01726136EA0138901424000516015000
B1213285957240N01726019EA0139301428000516000000
B1213345957171N01726114EA0139701428000520015000
B1213405957202N01726318EA0140101432000524000000
B1213465957297N01726330EA0140401438000520015000
B1213525957314N01726182EA0140901444000524000000
B1213585957241N01726140EA0141001445000520015000
B1214045957206N01726312EA0142001455000516000000
B1214105957279N01726461EA0142401461000512000000
B1214165957361N01726395EA0142301452000520015000
B1214225957322N01726289EA0142401458000524000000
B1214285957263N01726417EA0142301454000524015000
B1214345957294N01726624EA0143701471000524000000
B1214405957380N01726673EA0144201473000516015000
B1214465957388N01726524EA0144401475000520000000
B1214525957307N01726559EA0144401475000528015000
B1214585957296N01726759EA0145201484000528000000
B1215045957376N01726876EA0145201487000524015000
B1215105957439N01726771EA0147101504000520015000
B1215165957391N01726669EA0147201504000520000000
B1215225957328N01726802EA0146901498000524015000
B1215285957375N01726988EA0147601508000524000000
B1215345957467N01727044EA0148801520000520000000
B1215405957498N01726905EA0148601521000520000000
B1215465957423N01726909EA0149201518000524015000
B1215525957420N01727119EA0148701521000520000000
B1215585957502N01727239EA0150001530000516000000
B1216045957554N01727113EA0149801535000520015000
B1216105957496N01727040EA0151101541000520000000
B1216165957452N01727209EA0150001527000520000000
B1216225957509N01727401EA0151101547000524000000
B1216285957601N01727401EA0151601549000520015000
B1216345957596N01727257EA0151901551000520015000
B1216405957514N01727314EA0152701559000520015000
B1216465957527N01727521EA0153601570000520000000
B1216525957621N01727564EA0154001572000516015000
B1216585957645N01727425EA0154601578000516000000
B1217045957576N01727369EA0154701579000520000000
B1217105957528N01727531EA0155601588000520000000
B1217165957588N01727706EA0156201592000520000000
B1217225957680N01727690EA0156301598000520000000
B1217285957692N01727551EA0156601594000524000000
B1217345957614N01727540EA0156601595000524000000
B1217405957576N01727728EA0156901603000520000000
B1217465957625N01727914EA0157701607000520000000
B1217525957713N01727894EA0157201603000520000000
B1217585957699N01727764EA0157201602000516000000
B1218045957612N01727791EA0157301611000520015000
B1218105957573N01727977EA0158401616000516000000
B1218165957648N01728105EA0157901606000516000000
B1218225957705N01728001EA0157101603000524000000
B1218285957640N01727925EA0158101613000524000000
B1218345957557N01728025EA0158501618000524000000
B1218405957579N01728226EA0158101603000516000000
B1218465957671N01728205EA0156501594000516000000
B1218525957662N01728049EA0156601599000524000000
B1218585957578N01728002EA0157201604000528000000
B1219045957536N01728190EA0157401602000520000000
B1219105957618N01728304EA0155901584000512000000
B1219165957645N01728171EA0155901590000520000000
B1219225957589N01728063EA0155901593000524000000
B1219285957501N01728107EA0156301596000524000000
B1219345957521N01728317EA0156501593000524000000
B1219405957608N01728318EA0155401578000516000000
B1219465957644N01728183EA0155001578000528000000
B1219525957601N01728058EA0154901583000528000000
B1219585957518N01728122EA0155401585000524000000
B1220045957523N01728335EA0156201595000516000000
B1220105957612N01728385EA0156001588000516000000
B1220165957612N01728241EA0155101584000524000000
B1220225957531N01728194EA0156301597000524000000
B1220285957476N01728350EA0156901601000524000000
B1220345957548N01728510EA0157101604000524000000
B1220405957619N01728441EA0158601620000524000000
B1220465957582N01728320EA0158601620000520000000
B1220525957496N01728344EA0159001620000520000000
B1220585957445N01728522EA0158801615000524000000
B1221045957517N01728705EA0158601617000524000000
B1221105957609N01728695EA0159201627000524000000
B1221165957576N01728584EA0159801627000532000000
B1221225957492N01728687EA0159801630000532000000
B1221285957446N01728885EA0160701636000520000000
B1221345957502N01729067EA0159401621000516000000
B1221405957584N01729029EA0158501613000524000000
B1221465957631N01728899EA0158201617000532000000
B1221525957677N01728768EA0158301617000532000000
B1221585957727N01728631EA0157701609000528000000
B1222045957753N01728454EA0156801594000520000000
B1222105957782N01728254EA0155101584000520000000
B1222165957813N01728046EA0154501576000516000000
B1222225957839N01727860EA0155701607000528000000
B1222285957856N01727702EA0156401593000524000000
B1222345957868N01727522EA0155401586000524000000
B1222405957887N01727344EA0154601582000516000000
B1222465957909N01727161EA0153301550000516000000
B1222525957940N01726942EA0150601544000524000000
B1222585957974N01726733EA0151501557000524000000
B1223045958008N01726536EA0152101552000528000000
B1223105958041N01726344EA0153001564000532000000
B1223165958070N01726152EA0152301548000532000000
B1223225958099N01725934EA0151201553000528000000
B1223285958134N01725735EA0152801561000528000000
B1223345958169N01725532EA0152701556000528000000
B1223405958200N01725340EA0153801578000520000000
B1223465958228N01725156EA0153201559000512000000
B1223525958268N01724939EA0150101534000520000000
B1223585958316N01724725EA0149801533000520000000
B1224045958364N01724508EA0149001523000520000000
B1224105958414N01724293EA0148601523000520000000
B1224165958447N01724133EA0152101548000520000000
B1224225958481N01723947EA0149001529000524000000
B1224285958516N01723748EA0148401521000520000000
B1224345958546N01723585EA0150901528000524000000
B1224405958572N01723373EA0146901500000524000000
B1224465958598N01723157EA0148601527000532000000
B1224525958620N01722958EA0147801511000532000000
B1224585958645N01722766EA0147901500000524000000
B1225045958687N01722546EA0145201484000524000000
B1225105958744N01722334EA0144501473000524000000
B1225165958804N01722116EA0143601466000532000000
B1225225958856N01721891EA0142601464000532000000
B1225285958899N01721687EA0143301468000524000000
B1225345958934N01721494EA0144101468000520000000
B1225405958966N01721298EA0143301456000524000000
B1225465959000N01721089EA0141601448000524000000
B1225525959035N01720874EA0140501434000528000000
B1225585959069N01720667EA0140201426000516000000
B1226045959120N01720462EA0138401418000524000000
B1226105959192N01720275EA0137501404000524000000
B1226165959273N01720094EA0138801432000528000000
B1226225959347N01719924EA0140301440000528000000
B1226285959426N01719744EA0138501401000524000000
B1226345959512N01719547EA0137801419000524000000
B1226405959595N01719380EA0139201411000524000000
B1226465959692N01719181EA0135001376000528000000
B1226525959788N01718976EA0134001380000532000000
B1226585959870N01718791EA0134901372000532000000
B1227045959953N01718594EA0133201363000528000000
B1227106000035N01718398EA0132701353000528000000
B1227166000111N01718201EA0133001349000524000000
B1227226000186N01717992EA0130801327000520000000
B1227286000258N01717768EA0129801321000524000000
B1227346000329N01717547EA0128301292000524000000
B1227406000399N01717315EA0127401308000528000000
B1227466000459N01717117EA0129201317000532000000
B1227526000505N01716943EA0130301307000528000000
B1227586000559N01716731EA0127701287000520000000
B1228046000612N01716501EA0126101279000524000000
B1228106000665N01716260EA0123301247000532000000
B1228166000706N01716055EA0127901295000532000000
B1228226000755N01715857EA0126701282000532000000
B1228286000810N01715664EA0127301286000536000000
B1228346000865N01715473EA0128301311000532000000
B1228406000915N01715297EA0130201328000532000000
B1228466000966N01715115EA0129301312000524000000
B1228526001023N01714919EA0127601282000524000000
B1228586001088N01714682EA0125001270000524000000
B1229046001144N01714472EA0127101302000528000000
B1229106001198N01714260EA0125301267000532000000
B1229166001253N01714048EA0126101277000536000000
B1229226001314N01713827EA0124601259000528000000
B1229286001383N01713610EA0123601254000524000000
B1229346001450N01713399EA0122901246000524000000
B1229406001513N01713183EA0121701235000516000000
B1229466001575N01712967EA0120701219000516000000
B1229526001634N01712743EA0119401212000520000000
B1229586001690N01712518EA0117801194000520000000
B1230046001742N01712285EA0117301188000520000000
B1230106001800N01712046EA0115701166000520000000
B1230166001856N01711808EA0114501160000520000000
B1230226001912N01711573EA0112401132000520000000
B1230286001965N01711331EA0110701118000520000000
B1230346002022N01711090EA0110201119000520000000
B1230406002078N01710851EA0108701102000512000000
B1230466002125N01710611EA0108501101000516000000
B1230526002172N01710370EA0107701094000520000000
B1230586002217N01710139EA0108501109000528000000
B1231046002264N01709944EA0110801130000524000000
B1231106002314N01709729EA0109101117000524000000
B1231166002359N01709563EA0113301144000524000000
B1231226002407N01709377EA0112001141000528000000
B1231286002451N01709209EA0114701181000528000000
B1231346002479N01709051EA0116201175000524000000
B1231406002519N01708849EA0113301132000528000000
B1231466002588N01708623EA0111501138000532000000
B1231526002656N01708415EA0112201136000528000000
B1231586002723N01708198EA0111201121000524000000
B1232046002787N01707979EA0110201127000520000000
B1232106002844N01707769EA0109501113000516000000
B1232166002897N01707548EA0108201095000516000000
B1232226002955N01707322EA0107401090000516000000
B1232286003005N01707094EA0106601086000512000000
B1232346003056N01706867EA0105801069000508000000
B1232406003105N01706627EA0104001051000512000000
B1232466003152N01706386EA0103701056000512000000
B1232526003198N01706162EA0103801047000512000000
B1232586003238N01705919EA0101501027000516000000
B1233046003281N01705678EA0100801019000512000000
B1233106003325N01705443EA0099601010000516000000
B1233166003364N01705214EA0098500992000516000000
B1233226003406N01704970EA0095400971000520000000
B1233286003441N01704767EA0100001015000524000000
B1233346003403N01704607EA0102201033000536000000
B1233406003345N01704463EA0100401026000536000000
B1233466003334N01704270EA0099401000000532000000
B1233526003369N01704034EA0097000983000528000000
B1233586003402N01703844EA0101901052000532000000
B1234046003335N01703844EA0103801044000544000000
B1234106003347N01704049EA0104501064000536000000
B1234166003458N01704091EA0105201074000536000000
B1234226003547N01704009EA0105501074000536000000
B1234286003575N01703845EA0105601070000544000000
B1234346003614N01703665EA0107301100000532000000
B1234406003711N01703636EA0108301094000536000000
B1234466003723N01703853EA0108201102000548000000
B1234526003642N01703890EA0110901131000540000000
B1234586003627N01703757EA0112701148000536000000
B1235046003731N01703766EA0113201148000536000000
B1235106003735N01703990EA0114001166000536000000
B1235166003664N01704081EA0115801183000524000000
B1235226003667N01703940EA0117401197000528000000
B1235286003772N01703994EA0118401203000528000000
B1235346003758N01704199EA0120001226000528000000
B1235406003693N01704176EA0121901241000532000000
B1235466003748N01704048EA0123601258000528000000
B1235526003829N01704195EA0123801259000532000000
B1235586003779N01704358EA0126101285000532000000
B1236046003722N01704291EA0126901297000528000000
B1236106003803N01704217EA0128601311000528000000
B1236166003852N01704420EA0129301324000532000000
B1236226003781N01704475EA0131301341000528000000
B1236286003801N01704332EA0132601358000536000000
B1236346003906N01704378EA0133401362000532000000
B1236406003904N01704582EA0134901381000532000000
B1236466003839N01704549EA0135501386000528000000
B1236526003850N01704377EA0136301381000536000000
B1236586003876N01704155EA0134201389000536000000
B1237046003881N01703935EA0134501353000532000000
B1237106003857N01703688EA0132101362000532000000
B1237166003829N01703490EA0135501399000532000000
B1237226003796N01703290EA0133301352000528000000
B1237286003754N01703065EA0134201404000532000000
B1237346003728N01702909EA0138601405000528000000
B1237406003698N01702690EA0134601372000532000000
B1237466003672N01702449EA0133101359000528000000
B1237526003638N01702210EA0131801346000528000000
B1237586003564N01702016EA0131201337000528000000
B1238046003485N01701836EA0130501337000532000000
B1238106003432N01701641EA0130301317000536000000
B1238166003385N01701422EA0128301306000532000000
B1238226003338N01701217EA0128501301000532000000
B1238286003300N01700988EA0127101301000536000000
B1238346003273N01700764EA0127301305000536000000
B1238406003246N01700538EA0127001302000532000000
B1238466003215N01700324EA0128701317000536000000
B1238526003181N01700117EA0127401288000532000000
B1238586003140N01659886EA0124701270000536000000
B1239046003103N01659646EA0123001245000532000000
B1239106003075N01659394EA0121901244000528000000
B1239166003075N01659132EA0120101222000528000000
B1239226003120N01658877EA0119101216000528000000
B1239286003196N01658649EA0117901201000532000000
B1239346003269N01658419EA0116801187000524000000
B1239406003328N01658212EA0118501209000532000000
B1239466003380N01657986EA0116701191000532000000
B1239526003417N01657746EA0116801208000532000000
B1239586003442N01657582EA0123801285000520000000
B1240046003468N01657427EA0121901223000520000000
B1240106003508N01657179EA0117301188000528000000
B1240166003549N01656914EA0117401197000532000000
B1240226003585N01656664EA0117001180000524000000
B1240286003620N01656396EA0114101151000528000000
B1240346003650N01656143EA0114201175000524000000
B1240406003673N01655917EA0115201175000524000000
B1240466003698N01655684EA0113301149000524000000
B1240526003733N01655430EA0110801126000524000000
B1240586003780N01655165EA0108901109000528000000
B1241046003820N01654913EA0108501111000524000000
B1241106003849N01654663EA0107701095000520000000
B1241166003871N01654406EA0106401085000524000000
B1241226003891N01654143EA0105301073000524000000
B1241286003909N01653885EA0105001072000524000000
B1241346003926N01653634EA0104801091000532000000
B1241406003940N01653447EA0109601111000528000000
B1241466003967N01653214EA0104501035000532000000
B1241526004005N01652938EA0100701022000524000000
B1241586004028N01652664EA0099901016000524000000
B1242046004031N01652414EA0100901025000524000000
B1242106004037N01652170EA0099901012000520000000
B1242166004057N01651918EA0098501002000528000000
B1242226004075N01651690EA0100201022000524000000
B1242286004087N01651507EA0103601061000524000000
B1242346004019N01651473EA0105401069000536000000
B1242406004014N01651683EA0106101070000544015000
B1242466004117N01651741EA0106201078000536000000
B1242526004210N01651660EA0106801087000532000000
B1242586004273N01651523EA0105701062000532000000
B1243046004295N01651304EA0102901046000536000000
B1243106004282N01651104EA0103901078000536000000
B1243166004266N01650966EA0106701074000536000000
B1243226004236N01650760EA0103401045000536000000
B1243286004190N01650536EA0099800997000536000000
B1243346004127N01650307EA0097700992000536000000
B1243406004063N01650086EA0096600973000536000000
B1243466003995N01649870EA0095800996000532000000
B1243526003933N01649682EA0096100963000528000000
B1243586003872N01649462EA0093700959000528000000
B1244046003827N01649275EA0097501022000524000000
B1244106003797N01649135EA0100701029000520000000
B1244166003749N01648972EA0099001008000524000000
B1244226003710N01648765EA0096800976000524000000
B1244286003650N01648544EA0094000948000528000000
B1244346003569N01648343EA0092800969000528000000
B1244406003482N01648184EA0093400954000528000000
B1244466003410N01648082EA0098401017000524000000
B1244526003384N01647950EA0099201002000524000000
B1244586003382N01647753EA0095500960000528000000
B1245046003399N01647521EA0092700951000524000000
B1245106003458N01647331EA0094300962000528000000
B1245166003497N01647156EA0097101000000524000000
B1245226003528N01647012EA0099001004000524000000
B1245286003530N01646843EA0098401001000524000000
B1245346003465N01646720EA0097800990000524000000
B1245406003389N01646614EA0098501011000528000000
B1245466003317N01646535EA0100901029000520000000
B1245526003338N01646377EA0100901032000524000000
B1245586003439N01646442EA0102401041000528000000
B1246046003428N01646648EA0103401058000524000000
B1246106003346N01646707EA0104201062000520000000
B1246166003348N01646545EA0105001074000524000000
B1246226003449N01646549EA0106501088000512000000
B1246286003467N01646753EA0107301101000516000000
B1246346003390N01646779EA0108701114000512000000
B1246406003399N01646626EA0109701124000520000000
B1246466003499N01646666EA0111101134000516000000
B1246526003498N01646863EA0112301148000516000000
B1246586003419N01646926EA0113501154000520000000
B1247046003404N01646780EA0113601162000520000000
B1247106003495N01646736EA0114601162000520000000
B1247166003536N01646948EA0113601164000528000000
B1247226003460N01647064EA0115801181000528000000
B1247286003406N01646943EA0115601174000532000000
B1247346003424N01646746EA0114601153000528000000
B1247406003456N01646496EA0110101120000540000000
B1247466003486N01646289EA0115801193000536000000
B1247526003512N01646116EA0118501222000524000000
B1247586003538N01645955EA0117701174000520000000
B1248046003576N01645704EA0110201113000524000000
B1248106003616N01645432EA0109201127000532000000
B1248166003653N01645203EA0111201119000528000000
B1248226003685N01644941EA0107601082000536000000
B1248286003731N01644674EA0105701082000532000000
B1248346003770N01644418EA0105401072000528000000
B1248406003806N01644165EA0104501065000520000000
B1248466003841N01643914EA0104401060000524000000
B1248526003874N01643723EA0109701126000524000000
B1248586003904N01643532EA0107401084000524000000
B1249046003933N01643290EA0105101071000524000000
B1249106003966N01643057EA0106001084000528000000
B1249166003991N01642888EA0110001121000524000000
B1249226004026N01642693EA0106401065000528000000
B1249286004050N01642469EA0104701072000524000000
B1249346003985N01642315EA0103601041000528000000
B1249406003875N01642204EA0100001010000528000000
B1249466003751N01642117EA0098100996000528000000
B1249526003629N01642029EA0096500980000524000000
B1249586003507N01641934EA0094700957000524000000
B1250046003385N01641821EA0092900938000528000000
B1250106003264N01641709EA0092100940000524000000
B1250166003150N01641595EA0090300912000528000000
B1250226003038N01641446EA0087900889000528000000
B1250286002931N01641270EA0085800868000536000000
B1250346002836N01641095EA0086300904000532000000
B1250406002760N01640967EA0089200895000524000000
B1250466002676N01640839EA0089500912000524000000
B1250526002594N01640718EA0090000933000516000000
B1250586002532N01640626EA0093300949000520000000
B1251046002463N01640522EA0090900927000520000000
B1251106002399N01640427EA0093300955000520000000
B1251166002334N01640323EA0091900927000520000000
B1251226002254N01640198EA0091400941000524000000
B1251286002221N01640066EA0095500974000524000000
B1251346002242N01639903EA0095400977000524000000
B1251406002328N01639788EA0096200978000524000000
B1251466002401N01639637EA0095700979000520000000
B1251526002409N01639474EA0098101005000512000000
B1251586002337N01639457EA0099501010000516000000
B1252046002308N01639634EA0099801015000520000000
B1252106002407N01639760EA0098601004000520000000
B1252166002518N01639807EA0100401024000520000000
B1252226002628N01639804EA0100101015000524000000
B1252286002718N01639673EA0097600980000528000000
B1252346002727N01639465EA0098801032000528000000
B1252406002813N01639422EA0102401037000528000000
B1252466002821N01639616EA0103101063000524000000
B1252526002753N01639674EA0106301084000516000000
B1252586002745N01639526EA0106701094000516000000
B1253046002840N01639535EA0109901125000512000000
B1253106002861N01639733EA0111701145000500000000
B1253166002795N01639785EA0115001168000512000000
B1253226002802N01639633EA0114601169000520000000
B1253286002900N01639674EA0118401210000516000000
B1253346002900N01639875EA0120101232000512000000
B1253406002827N01639869EA0122501248000512000000
B1253466002864N01639729EA0123701262000516000000
B1253526002955N01639840EA0126201294000512000000
B1253586002947N01640045EA0128901325000512000000
B1254046002874N01640096EA0130401314000516000000
B1254106002896N01639932EA0128401304000528000000
B1254166003005N01639929EA0130901340000520000000
B1254226003072N01640093EA0131901348000516000000
B1254286003009N01640172EA0134001370000508000000
B1254346002992N01640029EA0135501388000508000000
B1254406003068N01639936EA0137601402000508000000
B1254466003134N01640109EA0137801406000508000000
B1254526003078N01640237EA0140301435000508000000
B1254586003056N01640116EA0142501453000512000000
B1255046003142N01640058EA0142701453000516000000
B1255106003221N01640215EA0143401462000520000000
B1255166003208N01640419EA0144201476000516000000
B1255226003135N01640517EA0146401491000512000000
B1255286003074N01640431EA0145801482000512000000
B1255346003131N01640282EA0147501513000512000000
B1255406003231N01640292EA0147801503000520000000
B1255466003233N01640492EA0149801526000516000000
B1255526003160N01640484EA0150901542000520000000
B1255586003177N01640347EA0152701552000516000000
B1256046003276N01640379EA0151801539000516000000
B1256106003303N01640609EA0152001546000524000000
B1256166003261N01640802EA0153501563000512000000
B1256226003190N01640744EA0153301549000520000000
B1256286003124N01640584EA0150401548000520000000
B1256346003066N01640465EA0155301582000516000000
B1256406003007N01640345EA0155601603000516000000
B1256466002945N01640224EA0152401515000524000000
B1256526002845N01640006EA0145501481000524000000
B1256586002741N01639824EA0148201520000528000000
B1257046002650N01639700EA0151801558000524000000
B1257106002557N01639594EA0151001522000528000000
B1257166002445N01639465EA0150101546000532000000
B1257226002344N01639349EA0150401516000528000000
B1257286002230N01639208EA0148001516000532000000
B1257346002132N01639041EA0148601513000528000000
B1257406002052N01638826EA0145501465000516000000
B1257466001990N01638549EA0141101432000524000000
B1257526001937N01638257EA0138501404000532000000
B1257586001894N01637962EA0138101412000532000000
B1258046001863N01637706EA0140201435000528000000
B1258106001838N01637457EA0139501414000520000000
B1258166001812N01637193EA0138301402000524000000
B1258226001790N01636941EA0139701445000520000000
B1258286001772N01636735EA0142701450000524000000
B1258346001752N01636509EA0141301446000520000000
B1258406001739N01636280EA0140401420000520000000
B1258466001742N01636079EA0146301502000524000000
B1258526001749N01635891EA0144901471000520000000
B1258586001773N01635694EA0146301520000516000000
B1259046001808N01635565EA0150301526000512000000
B1259106001848N01635417EA0149801538000516000000
B1259166001864N01635282EA0153501565000504000000
B1259226001831N01635154EA0154401575000508000000
B1259286001818N01634998EA0155201568000508000000
B1259346001855N01634762EA0150101528000520000000
B1259406001898N01634539EA0152501533000524000000
B1259466001942N01634290EA0149601527000520000000
B1259526001986N01634043EA0147801501000516000000
B1259586002030N01633795EA0147401510000508000000
B1300046002072N01633549EA0146001479000512000000
B1300106002108N01633277EA0143001457000512000000
B1300166002136N01633008EA0142701455000516000000
B1300226002155N01632739EA0141401436000520000000
B1300286002152N01632482EA0141601444000520000000
B1300346002134N01632237EA0142001450000528000000
B1300406002112N01632045EA0146701512000524000000
B1300466002091N01631916EA0150101524000516000000
B1300526002067N01631729EA0145701471000520000000
B1300586002043N01631482EA0142801454000524000000
B1301046002006N01631230EA0141401436000520000000
B1301106001950N01630984EA0139901417000520000000
B1301166001891N01630740EA0138201400000524000000
B1301226001833N01630495EA0136801391000520000000
B1301286001779N01630249EA0134701363000524000000
B1301346001725N01629993EA0132201344000520000000
B1301406001662N01629754EA0132301341000520000000
B1301466001596N01629505EA0129201308000520000000
B1301526001530N01629252EA0128301306000520000000
B1301586001463N01629005EA0126901282000524000000
B1302046001397N01628753EA0126101291000524000000
B1302106001344N01628546EA0129701323000528000000
B1302166001292N01628350EA0129601337000528000000
B1302226001261N01628225EA0134901368000532000000
B1302286001211N01628056EA0131201333000536000000
B1302346001164N01627893EA0133001350000532000000
B1302406001180N01627724EA0135401390000528000000
B1302466001279N01627692EA0137301392000528000000
B1302526001336N01627895EA0136001380000532000000
B1302586001279N01628078EA0137401408000536000000
B1303046001197N01628158EA0137601393000528000000
B1303106001107N01628093EA0137601420000532000000
B1303166001041N01628023EA0140901433000516000000
B1303226000959N01627973EA0139801415000528000000
B1303286000937N01627783EA0135201363000536000000
B1303346001002N01627538EA0130301317000536000000
B1303406001102N01627302EA0129801319000540000000
B1303466001193N01627064EA0129101320000536000000
B1303526001259N01626825EA0131301338000532000000
B1303586001307N01626578EA0131201334000528000000
B1304046001350N01626321EA0130501339000524000000
B1304106001375N01626169EA0137401384000528000000
B1304166001411N01625959EA0131301324000532000000
B1304226001445N01625705EA0128501307000528000000
B1304286001487N01625454EA0127501292000516000000
B1304346001545N01625226EA0128601330000524000000
B1304406001603N01625053EA0132601352000524000000
B1304466001647N01624888EA0134801365000524000000
B1304526001632N01624709EA0134801377000524000000
B1304586001569N01624565EA0134801390000528000000
B1305046001501N01624448EA0135001353000528000000
B1305106001402N01624284EA0129801323000532000000
B1305166001297N01624126EA0129101309000528000000
B1305226001187N01623978EA0128401310000532000000
B1305286001080N01623834EA0127401290000528000000
B1305346000973N01623691EA0126901290000528000000
B1305406000868N01623548EA0125701274000524000000
B1305466000772N01623382EA0124301262000524000000
B1305526000676N01623226EA0123301249000524000000
B1305586000582N01623083EA0124201266000520000000
B1306046000490N01622950EA0122901244000516000000
B1306106000384N01622819EA0121401230000516000000
B1306166000280N01622665EA0119501216000516000000
B1306226000174N01622513EA0118901209000512000000
B1306286000072N01622353EA0118901217000520000000
B1306345959975N01622201EA0119101217000520000000
B1306405959879N01622059EA0119301220000520000000
B1306465959784N01621915EA0118801208000512000000
B1306525959699N01621783EA0120801236000516000000
B1306585959611N01621647EA0118101187000516000000
B1307045959512N01621490EA0116401183000512000000
B1307105959420N01621326EA0116001179000516000000
B1307165959339N01621146EA0116001202000524000000
B1307225959291N01621039EA0122901247000528000000
B1307285959212N01621082EA0122401248000528000000
B1307345959222N01621308EA0122401246000532000000
B1307405959320N01621429EA0123601257000528000000
B1307465959393N01621322EA0123101244000532000000
B1307525959372N01621134EA0121201231000536000000
B1307585959328N01620936EA0119301215000544000000
B1308045959272N01620733EA0117901197000532000000
B1308105959209N01620527EA0116801185000528000000
B1308165959144N01620321EA0115601184000536000000
B1308225959087N01620147EA0117201171000528000000
B1308285959022N01619942EA0113201147000528000000
B1308345958948N01619740EA0112201143000524000000
B1308405958870N01619553EA0112001139000524000000
B1308465958792N01619383EA0112501150000532000000
B1308525958719N01619222EA0112501145000532000000
B1308585958645N01619067EA0113601178000536000000
B1309045958588N01618939EA0116901195000528000000
B1309105958529N01618816EA0117301199000528000000
B1309165958471N01618694EA0117401194000532000000
B1309225958415N01618546EA0115501175000536000000
B1309285958410N01618358EA0116501203000540000000
B1309345958468N01618211EA0117401192000536000000
B1309405958506N01618039EA0116301185000540000000
B1309465958511N01617851EA0115501167000532000000
B1309525958509N01617633EA0112801155000532000000
B1309585958497N01617452EA0115201162000532000000
B1310045958445N01617259EA0110901122000536000000
B1310105958369N01617061EA0108901103000528000000
B1310165958288N01616867EA0108001102000532000000
B1310225958204N01616690EA0108801120000536000000
B1310285958137N01616550EA0112201145000536000000
B1310345958072N01616416EA0110601105000536000000
B1310405957978N01616258EA0106701083000536000000
B1310465957887N01616087EA0106501094000532000000
B1310525957823N01615944EA0111301138000536000000
B1310585957872N01615814EA0112501141000540000000
B1311045957937N01615975EA0113001150000544000000
B1311105957875N01616100EA0114301163000540000000
B1311165957794N01616113EA0114201163000524000000
B1311225957748N01615991EA0115301174000524000000
B1311285957822N01615912EA0116001181000536000000
B1311345957900N01616055EA0116901192000536000000
B1311405957883N01616260EA0118101205000536000000
B1311465957804N01616303EA0118801209000544000000
B1311525957800N01616167EA0119601223000540000000
B1311585957894N01616167EA0121001230000536000000
B1312045957935N01616369EA0121701240000536000000
B1312105957866N01616484EA0122901247000536000000
B1312165957814N01616373EA0123001252000540000000
B1312225957877N01616261EA0124301267000536000000
B1312285957956N01616402EA0124601268000540000000
B1312345957904N01616566EA0126101285000536000000
B1312405957827N01616528EA0126601284000540000000
B1312465957849N01616386EA0127501300000544000000
B1312525957950N01616443EA0128301308000540000000
B1312585957957N01616650EA0130101322000532000000
B1313045957879N01616662EA0129901318000536000000
B1313105957903N01616512EA0131001333000540000000
B1313165958000N01616479EA0131201336000544000000
B1313225958044N01616681EA0132501351000540000000
B1313285957969N01616759EA0134001364000540000000
B1313345957957N01616632EA0133601360000516000000
B1313405958055N01616579EA0135101377000528000000
B1313465958147N01616706EA0135401380000528000000
B1313525958111N01616871EA0136701390000536000000
B1313585958047N01616791EA0136801391000540000000
B1314045958090N01616641EA0137901402000544000000
B1314105958194N01616650EA0138501407000548000000
B1314165958221N01616856EA0138201402000544000000
B1314225958143N01616931EA0138901409000544000000
B1314285958073N01616810EA0136601381000544000000
B1314345958063N01616638EA0140401425000552000000
B1314405958160N01616710EA0138301396000556000000
B1314465958107N01616879EA0139501422000560000000
B1314525958041N01616858EA0140701431000556000000
B1314585958048N01616724EA0140001426000548000000
B1315045958146N01616672EA0140001421000548000000
B1315105958256N01616761EA0139201420000544000000
B1315165958303N01616971EA0140201428000544000000
B1315225958276N01617166EA0140001427000544000000
B1315285958199N01617144EA0141001436000540000000
B1315345958142N01617065EA0142501455000540000000
B1315405958094N01616963EA0141301432000540000000
B1315465958039N01616789EA0138001402000544000000
B1315525957989N01616627EA0141201441000532000000
B1315585957947N01616495EA0141501424000536000000
B1316045957885N01616303EA0136401386000540000000
B1316105957809N01616103EA0136101402000540000000
B1316165957756N01615969EA0141901435000540000000
B1316225957690N01615842EA0141501461000536000000
B1316285957627N01615730EA0140601399000536000000
B1316345957548N01615505EA0134401364000544000000
B1316405957466N01615289EA0135501394000540000000
B1316465957389N01615097EA0136101377000544000000
B1316525957309N01614883EA0133601364000540000000
B1316585957232N01614685EA0134401372000536000000
B1317045957160N01614500EA0134401357000536000000
B1317105957081N01614302EA0132401342000532000000
B1317165957006N01614096EA0130901327000528000000
B1317225956941N01613864EA0128401303000532000000
B1317285956894N01613638EA0129601319000536000000
B1317345956852N01613396EA0126401290000536000000
B1317405956822N01613186EA0129101309000532000000
B1317465956793N01612941EA0125001265000532000000
B1317525956773N01612677EA0124801266000528000000
B1317585956777N01612445EA0126501326000536000000
B1318045956800N01612286EA0131201330000512000000
B1318105956841N01612091EA0128101298000524000000
B1318165956867N01611879EA0127801315000536000000
B1318225956882N01611695EA0128101297000532000000
B1318285956864N01611492EA0127001299000536000000
B1318345956815N01611325EA0128101306000536000000
B1318405956774N01611193EA0131001345000544000000
B1318465956754N01611051EA0131801342000540000000
B1318525956820N01610920EA0132701352000544000000
B1318585956936N01610987EA0132801348000544000000
B1319045956964N01611220EA0132001334000544000000
B1319105956887N01611389EA0130101321000544000000
B1319165956804N01611451EA0132101350000544000000
B1319225956734N01611410EA0132601350000540000000
B1319285956755N01611245EA0132101334000544000000
B1319345956806N01611043EA0130901334000544000000
B1319405956819N01610825EA0130101301000548000000
B1319465956859N01610557EA0124901269000544000000
B1319525956958N01610343EA0125201275000548000000
B1319585957062N01610172EA0126101289000548000000
B1320045957160N01610005EA0126201278000536000000
B1320105957259N01609815EA0124501261000540000000
B1320165957365N01609629EA0123501253000536000000
B1320225957475N01609460EA0122901245000520000000
B1320285957584N01609282EA0120901222000532000000
B1320345957695N01609091EA0118401202000536000000
B1320405957803N01608913EA0118501203000536000000
B1320465957912N01608732EA0117201191000540000000
B1320525958016N01608555EA0116901186000540000000
B1320585958117N01608378EA0116401187000540000000
B1321045958215N01608207EA0116201172000536000000
B1321105958315N01608027EA0115001164000532000000
B1321165958411N01607837EA0113801159000532000000
B1321225958506N01607650EA0113601155000536000000
B1321285958603N01607471EA0113001151000536000000
B1321345958707N01607311EA0112801149000532000000
B1321405958815N01607182EA0114201162000540000000
B1321465958923N01607052EA0113801158000536000000
B1321525959025N01606903EA0113101141000536000000
B1321585959129N01606736EA0111601136000532000000
B1322045959226N01606571EA0111101126000536000000
B1322105959334N01606422EA0110001114000536000000
B1322165959458N01606289EA0108101097000536000000
B1322225959581N01606151EA0107501095000532000000
B1322285959698N01606023EA0107701096000528000000
B1322345959810N01605891EA0107601091000528000000
B1322405959919N01605755EA0106801083000528000000
B1322466000028N01605612EA0105901069000536000000
B1322526000139N01605464EA0105201069000532000000
B1322586000258N01605336EA0104201051000536000000
B1323046000395N01605236EA0103101045000528000000
B1323106000543N01605206EA0102701045000524000000
B1323166000668N01605362EA0103401047000536000000
B1323226000711N01605633EA0103601051000536000000
B1323286000738N01605906EA0103701051000536000000
B1323346000764N01606201EA0101101026000536000000
B1323406000789N01606500EA0100801018000528000000
B1323466000812N01606810EA0099601011000532000000
B1323526000834N01607112EA0099901009000528000000
B1323586000852N01607420EA0099401009000524000000
B1324046000873N01607722EA0099901013000532000000
B1324106000894N01608022EA0099301009000536000000
B1324166000915N01608326EA0098000990000536000000
B1324226000942N01608630EA0097200986000528000000
B1324286000976N01608926EA0096700981000524000000
B1324346001021N01609222EA0095400967000532000000
B1324406001072N01609518EA0094800963000528000000
B1324466001124N01609816EA0093700946000532000000
B1324526001176N01610112EA0092600940000520000000
B1324586001231N01610422EA0090300907000532000000
B1325046001281N01610735EA0089500915000532000000
B1325106001327N01611045EA0088100880000536000000
B1325166001378N01611379EA0085700867000532000000
B1325226001430N01611698EA0086300882000528000000
B1325286001479N01612016EA0084900856000528000000
B1325346001517N01612346EA0083500833000528000000
B1325406001547N01612677EA0083600857000540000000
B1325466001570N01612975EA0085300861000536000000
B1325526001593N01613282EA0083100837000536000000
B1325586001617N01613599EA0081600822000536000000
B1326046001640N01613918EA0079900798000536000000
B1326106001662N01614259EA0077700788000536000000
B1326166001682N01614600EA0076800775000532000000
B1326226001690N01614938EA0076000767000532000000
B1326286001694N01615273EA0075300761000536000000
B1326346001697N01615604EA0074700754000532000000
B1326406001691N01615936EA0074000744000536000000
B1326466001681N01616267EA0073400744000536000000
B1326526001666N01616602EA0072200724000536000000
B1326586001658N01616944EA0071300725000544000000
B1327046001651N01617251EA0073200739000536000000
B1327106001639N01617561EA0071300718000524000000
B1327166001612N01617871EA0070600708000524000000
B1327226001583N01618170EA0070600719000536000000
B1327286001552N01618465EA0069500693000532000000
B1327346001514N01618776EA0067400675000532000000
B1327406001479N01619089EA0066500673000532000000
B1327466001452N01619402EA0066300671000536000000
B1327526001427N01619675EA0069000702000540000000
B1327586001395N01619947EA0066800666000536000000
B1328046001344N01620226EA0065600663000536000000
B1328106001289N01620488EA0066100668000536000000
B1328166001235N01620746EA0065900663000528000000
B1328226001176N01621000EA0065000655000524000000
B1328286001111N01621265EA0063000629000528000000
B1328346001050N01621549EA0063000637000532000000
B1328406000989N01621801EA0064700669000532000000
B1328466000962N01622006EA0069300706000532000000
B1328526001051N01622113EA0070200705000540000000
B1328586001096N01621987EA0070800716000544000000
B1329046001015N01621944EA0071900734000544000000
B1329106000937N01622039EA0072900744000536000000
B1329166000924N01622245EA0075000758000532000000
B1329226001005N01622384EA0075600771000536000000
B1329286001096N01622353EA0076800780000528000000
B1329346001059N01622238EA0076600778000536000000
B1329406000980N01622344EA0077600794000540000000
B1329466000955N01622543EA0078600802000540000000
B1329526001028N01622702EA0079500806000536000000
B1329586001110N01622643EA0080100812000532000000
B1330046001075N01622503EA0080600818000540000000
B1330106000997N01622561EA0082100839000536000000
B1330166000998N01622769EA0082200834000536000000
B1330226001093N01622867EA0082700841000536000000
B1330286001166N01622755EA0083600847000536000000
B1330346001174N01622578EA0084000851000540000000
B1330406001167N01622407EA0085700868000536000000
B1330466001096N01622381EA0087700893000544000000
B1330526001093N01622594EA0088400901000544000000
B1330586001193N01622603EA0091100926000536000000
B1331046001220N01622439EA0092000937000540000000
B1331106001153N01622390EA0093000947000540000000
B1331166001119N01622590EA0093600955000536000000
B1331226001188N01622780EA0095800977000528000000
B1331286001278N01622726EA0097600987000532000000
B1331346001242N01622611EA0098601005000536000000
B1331406001184N01622752EA0099701008000524000000
B1331466001259N01622920EA0101601034000528000000
B1331526001352N01622855EA0102501038000532000000
B1331586001333N01622704EA0103101048000532000000
B1332046001252N01622735EA0103001048000536000000
B1332106001241N01622955EA0104501066000536000000
B1332166001343N01623006EA0105701077000532000000
B1332226001359N01622851EA0106501082000536000000
B1332286001284N01622799EA0107501094000536000000
B1332346001235N01622982EA0108401105000540000000
B1332406001311N01623144EA0110901130000532000000
B1332466001382N01623034EA0112101142000528000000
B1332526001339N01622923EA0113401161000528000000
B1332586001272N01623042EA0113601148000536000000
B1333046001323N01623257EA0115401176000536000000
B1333106001426N01623271EA0116801184000528000000
B1333166001424N01623118EA0117401196000536000000
B1333226001344N01623150EA0118801209000532000000
B1333286001349N01623358EA0120501232000524000000
B1333346001452N01623408EA0122101245000520000000
B1333406001487N01623261EA0123201255000524000000
B1333466001418N01623215EA0124301265000536000000
B1333526001370N01623387EA0125001273000536000000
B1333586001432N01623574EA0126801291000520000000
B1334046001531N01623519EA0127201296000524000000
B1334106001518N01623366EA0128201307000532000000
B1334166001436N01623348EA0129401315000536000000
B1334226001378N01623502EA0128901307000536000000
B1334286001415N01623742EA0127901305000540000000
B1334346001475N01623952EA0129001302000536000000
B1334406001564N01624204EA0124201255000532000000
B1334466001662N01624461EA0124601283000536000000
B1334526001748N01624683EA0127501294000536000000
B1334586001838N01624895EA0129101327000536000000
B1335046001917N01625090EA0129101288000532000000
B1335106002029N01625346EA0122701248000532000000
B1335166002145N01625607EA0122301242000536000000
B1335226002268N01625871EA0120501226000532000000
B1335286002394N01626123EA0119601217000536000000
B1335346002501N01626344EA0123301258000536000000
B1335406002609N01626574EA0122101249000540000000
B1335466002704N01626782EA0126901310000536000000
B1335526002810N01626907EA0128601301000536000000
B1335586002873N01627141EA0127601283000536000000
B1336046002944N01627434EA0122601235000536000000
B1336106003022N01627696EA0125001309000536000000
B1336166003081N01627886EA0128601307000532000000
B1336226003153N01628145EA0122401229000536000000
B1336286003247N01628465EA0119101223000536000000
B1336346003338N01628765EA0119601221000532000000
B1336406003410N01629086EA0118101204000528000000
B1336466003472N01629414EA0118401215000532000000
B1336526003529N01629702EA0121101233000536000000
B1336586003582N01629965EA0122801255000532000000
B1337046003637N01630252EA0118701192000532000000
B1337106003698N01630581EA0116501183000532000000
B1337166003763N01630890EA0116101183000532000000
B1337226003829N01631163EA0118101214000532000000
B1337286003828N01631393EA0122401253000532000000
B1337346003753N01631474EA0123801256000528000000
B1337406003729N01631330EA0124701267000540000000
B1337466003823N01631295EA0125201272000544000000
B1337526003870N01631484EA0126201286000536000000
B1337586003840N01631666EA0128301305000528000000
B1338046003759N01631669EA0128201306000528000000
B1338106003792N01631542EA0130201325000524000000
B1338166003878N01631653EA0129801324000528000000
B1338226003844N01631847EA0131901346000528000000
B1338286003761N01631839EA0132601346000520000000
B1338346003787N01631692EA0133301359000528000000
B1338406003883N01631733EA0134301366000536000000
B1338466003914N01631936EA0135701384000532000000
B1338526003866N01632102EA0136001383000532000000
B1338586003793N01632038EA0135501378000536000000
B1339046003849N01631913EA0136201385000544000000
B1339106003946N01632006EA0136101385000544000000
B1339166004009N01632206EA0137001395000544000000
B1339226004061N01632420EA0138201417000536000000
B1339286004092N01632643EA0139801425000524000000
B1339346004079N01632887EA0139001404000532000000
B1339406004105N01633200EA0134501359000536000000
B1339466004147N01633535EA0133201353000532000000
B1339526004191N01633867EA0131901339000536000000
B1339586004245N01634198EA0130201314000536000000
B1340046004316N01634542EA0126001276000536000000
B1340106004386N01634880EA0126501292000532000000
B1340166004452N01635196EA0126601290000532000000
B1340226004516N01635512EA0125601273000524000000
B1340286004586N01635836EA0123801257000524000000
B1340346004659N01636158EA0123601255000524000000
B1340406004729N01636473EA0123401257000532000000
B1340466004793N01636778EA0123201246000516000000
B1340526004846N01637102EA0121201235000516000000
B1340586004894N01637414EA0121401235000512000000
B1341046004942N01637719EA0120201213000524000000
B1341106004992N01638039EA0118501204000520000000
B1341166005037N01638359EA0118401212000524000000
B1341226005075N01638625EA0122701255000528000000
B1341286005090N01638871EA0123401250000536000000
B1341346005085N01639160EA0120201211000536000000
B1341406005110N01639498EA0117001192000532000000
B1341466005153N01639827EA0117201197000532000000
B1341526005198N01640123EA0118001194000520000000
B1341586005239N01640445EA0116001179000524000000
B1342046005265N01640755EA0117201207000532000000
B1342106005291N01641050EA0117901203000536000000
B1342166005319N01641357EA0115801178000532000000
B1342226005347N01641653EA0117501184000532000000
B1342286005384N01641972EA0113701153000528000000
B1342346005425N01642289EA0113201149000528000000
B1342406005464N01642611EA0112001138000524000000
B1342466005505N01642924EA0111701131000528000000
B1342526005555N01643252EA0109401106000528000000
B1342586005616N01643577EA0108501099000524000000
B1343046005687N01643901EA0107601098000524000000
B1343106005755N01644180EA0111501156000528000000
B1343166005781N01644421EA0115001164000532000000
B1343226005820N01644661EA0116301185000532000000
B1343286005882N01644868EA0117801202000528000000
B1343346005951N01645069EA0116001166000532000000
B1343406006055N01645301EA0113401160000540000000
B1343466006141N01645474EA0118201202000536000000
B1343526006216N01645670EA0119301216000532000000
B1343586006260N01645916EA0119001193000528000000
B1344046006355N01646178EA0115501176000536000000
B1344106006424N01646463EA0117201202000536000000
B1344166006480N01646743EA0117801204000536000000
B1344226006528N01647008EA0118301198000532000000
B1344286006567N01647313EA0115201162000540000000
B1344346006606N01647636EA0113301140000540000000
B1344406006643N01647962EA0112701146000540000000
B1344466006669N01648219EA0119301216000532000000
B1344526006661N01648440EA0120701227000532000000
B1344586006592N01648422EA0122001243000532000000
B1345046006650N01648313EA0123901259000540000000
B1345106006751N01648439EA0125501276000540000000
B1345166006790N01648674EA0127001290000524000000
B1345226006728N01648799EA0127801300000528000000
B1345286006693N01648676EA0128901314000540000000
B1345346006752N01648568EA0130501331000536000000
B1345406006835N01648720EA0131801339000528000000
B1345466006784N01648889EA0133101356000536000000
B1345526006712N01648849EA0134001370000536000000
B1345586006751N01648729EA0135901384000540000000
B1346046006844N01648864EA0136801390000540000000
B1346106006817N01649081EA0138401411000540000000
B1346166006740N01649071EA0139601424000536000000
B1346226006786N01648953EA0140901437000536000000
B1346286006857N01649124EA0142801453000540000000
B1346346006796N01649283EA0144101465000540000000
B1346406006744N01649202EA0145101479000536000000
B1346466006825N01649140EA0146501491000532000000
B1346526006886N01649336EA0147801501000532000000
B1346586006821N01649471EA0148401514000532000000
B1347046006786N01649354EA0149401518000532000000
B1347106006871N01649272EA0150601533000536000000
B1347166006983N01649354EA0150501525000536000000
B1347226007090N01649518EA0152001556000532000000
B1347286007185N01649677EA0153601563000536000000
B1347346007284N01649846EA0153601565000516000000
B1347406007384N01650004EA0154901573000520000000
B1347466007499N01650159EA0151401524000528000000
B1347526007648N01650306EA0147801499000532000000
B1347586007780N01650441EA0151001557000532000000
B1348046007889N01650561EA0152801548000536000000
B1348106008022N01650698EA0148601502000528000000
B1348166008157N01650892EA0147301495000524000000
B1348226008270N01651112EA0149001511000536000000
B1348286008382N01651365EA0145301476000532000000
B1348346008455N01651647EA0149301532000540000000
B1348406008496N01651910EA0150801527000540000000
B1348466008555N01652197EA0149001510000540000000
B1348526008673N01652390EA0148801510000536000000
B1348586008816N01652455EA0146801482000532000000
B1349046008981N01652464EA0143601463000540000000
B1349106009102N01652473EA0151401557000536000000
B1349166009213N01652543EA0151001520000532000000
B1349226009362N01652577EA0146301483000532000000
B1349286009523N01652576EA0145701487000528000000
B1349346009677N01652576EA0146401515000536000000
B1349406009806N01652586EA0149801521000536000000
B1349466009955N01652602EA0145701460000536000000
B1349526010123N01652593EA0143301462000532000000
B1349586010284N01652602EA0142301426000532000000
B1350046010448N01652655EA0142401464000536000000
B1350106010563N01652736EA0148801512000528000000
B1350166010592N01652957EA0149601514000532000000
B1350226010630N01653209EA0147701504000532000000
B1350286010717N01653431EA0147501489000536000000
B1350346010803N01653699EA0145301479000536000000
B1350406010885N01653977EA0145101470000536000000
B1350466010963N01654244EA0146601493000532000000
B1350526011047N01654513EA0144001448000532000000
B1350586011132N01654822EA0141501432000528000000
B1351046011217N01655135EA0140801428000532000000
B1351106011311N01655394EA0143901454000532000000
B1351166011431N01655619EA0142001435000536000000
B1351226011559N01655830EA0141201435000536000000
B1351286011672N01656019EA0143201470000536000000
B1351346011774N01656204EA0141801419000540000000
B1351406011902N01656426EA0137001381000540000000
B1351466012038N01656634EA0137801409000540000000
B1351526012152N01656841EA0139801420000536000000
B1351586012253N01657075EA0139301412000532000000
B1352046012331N01657360EA0138401407000512000000
B1352106012385N01657674EA0137301386000512000000
B1352166012430N01658012EA0135301370000524015000
B1352226012474N01658357EA0134101356000520015000
B1352286012512N01658708EA0132401345000528000000
B1352346012555N01659056EA0131201329000524000000
B1352406012599N01659395EA0131501333000524015000
B1352466012641N01659723EA0130901325000528000000
B1352526012679N01700049EA0129801314000528000000
B1352586012712N01700370EA0129001304000528000000
B1353046012741N01700682EA0128701307000532000000
B1353106012763N01700993EA0127701310000540000000
B1353166012779N01701232EA0132901356000540000000
B1353226012789N01701451EA0134501370000536000000
B1353286012845N01701656EA0134401363000536000000
B1353346012954N01701760EA0135401382000540000000
B1353406013052N01701706EA0136701386000532000000
B1353466013031N01701551EA0136001387000540000000
B1353526012961N01701648EA0136601391000544000000
B1353586012970N01701877EA0138301415000548000000
B1354046012994N01702093EA0138701387000544000000
B1354106013037N01702385EA0132701352000548000000
B1354166013075N01702638EA0136701396000548000000
B1354226013111N01702872EA0138101402000532000000
B1354286013156N01703146EA0133101353000536015000
B1354346013209N01703453EA0131501332000536000000
B1354406013258N01703765EA0131401353000532000000
B1354466013305N01704055EA0132201338000528015000
B1354526013358N01704372EA0130201323000528000000
B1354586013413N01704680EA0131101335000532015000
B1355046013464N01704980EA0130301321000524015000
B1355106013511N01705295EA0128901315000524015000
B1355166013556N01705600EA0129201310000516015000
B1355226013591N01705914EA0128001298000524000000
B1355286013612N01706237EA0127401298000532000000
B1355346013637N01706538EA0128101295000532000000
B1355406013664N01706851EA0126601294000536000000
B1355466013691N01707153EA0126201274000536000000
B1355526013721N01707479EA0121701221000544000000
B1355586013758N01707831EA0118901200000544000000
B1356046013798N01708173EA0118201213000544000000
B1356106013824N01708493EA0118501198000544000000
B1356166013797N01708798EA0118501213000548000000
B1356226013732N01709073EA0116701186000544000000
B1356286013664N01709350EA0116701187000540000000
B1356346013599N01709623EA0116101178000536000000
B1356406013547N01709892EA0116201204000528000000
B1356466013516N01710105EA0120901236000532000000
B1356526013478N01710297EA0121401235000536000000
B1356586013439N01710505EA0121301238000532000000
B1357046013397N01710698EA0123301254000532000000
B1357106013370N01710900EA0124001264000532000000
B1357166013459N01711038EA0125001270000536000000
B1357226013559N01710975EA0125601282000536000000
B1357286013600N01710816EA0126601292000532000000
B1357346013577N01710669EA0128101308000536000000
B1357406013495N01710707EA0128501308000544000000
B1357466013473N01710913EA0129801325000548000000
B1357526013542N01711089EA0130901339000536000000
B1357586013651N01711112EA0131201341000536000000
B1358046013733N01710988EA0131901351000536000000
B1358106013752N01710809EA0133101361000528000000
B1358166013683N01710783EA0134701370000540000000
B1358226013682N01710995EA0134801374000536000000
B1358286013752N01711214EA0134701386000528000000
B1358346013828N01711404EA0136901399000528000000
B1358406013914N01711562EA0139001417000532000000
B1358466014025N01711678EA0136801391000548000000
B1358526014136N01711890EA0135401387000536015000
B1358586014237N01712102EA0136001386000532015000
B1359046014343N01712325EA0134101369000544015000
B1359106014432N01712515EA0137901418000544015000
B1359166014512N01712692EA0138501411000552015000
B1359226014596N01712871EA0139201429000548015000
B1359286014694N01713019EA0138701421000548015000
B1359346014807N01713110EA0139501434000544015000
B1359406014915N01713104EA0140301430000544000000
B1359466015032N01713030EA0137801419000552000000
B1359526015134N01712965EA0141301445000552000000
B1359586015233N01712886EA0142501459000548000000
B1400046015327N01712802EA0143501466000548000000
B1400106015416N01712718EA0143601462000552000000
B1400166015497N01712626EA0143601458000556000000
B1400226015471N01712479EA0141101417000552000000
B1400286015379N01712579EA0140101425000548000000
B1400346015311N01712743EA0140601427000548000000
B1400406015243N01712945EA0137901401000552000000
B1400466015143N01713034EA0138101415000552000000
B1400526015058N01713049EA0139801418000544000000
B1400586014960N01713084EA0138501402000548000000
B1401046014870N01713237EA0138301414000540000000
B1401106014804N01713411EA0140001430000520000000
B1401166014748N01713586EA0141501444000532000000
B1401226014697N01713766EA0142001439000540000000
B1401286014609N01713887EA0139901410000544000000
B1401346014493N01713845EA0136301376000540000000
B1401406014375N01713755EA0134601372000540000000
B1401466014272N01713672EA0136801419000540000000
B1401526014206N01713621EA0140801430000536000000
B1401586014137N01713550EA0141801449000532000000
B1402046014071N01713477EA0143101453000532000000
B1402106013995N01713382EA0141001425000536000000
B1402166013901N01713272EA0139301426000540000000
B1402226013804N01713177EA0139401406000536000000
B1402286013699N01713065EA0137101398000540000000
B1402346013599N01712964EA0137101383000536000000
B1402406013487N01712835EA0133701356000540000000
B1402466013375N01712701EA0132101339000540000000
B1402526013253N01712596EA0130101320000540000000
B1402586013122N01712554EA0128901301000540000000
B1403046012984N01712529EA0126701281000540000000
B1403106012841N01712502EA0124101262000544000000
B1403166012701N01712473EA0123101254000544000000
B1403226012573N01712440EA0122601237000548000000
B1403286012445N01712368EA0121201236000544000000
B1403346012329N01712319EA0122001233000540000000
B1403406012212N01712242EA0119601197000540000000
B1403466012088N01712145EA0117801190000544000000
B1403526011969N01712039EA0117401191000540000000
B1403586011861N01711973EA0119601229000540000000
B1404046011771N01711938EA0120701219000540000000
B1404106011658N01711914EA0117801193000544000000
B1404166011535N01711904EA0116401181000544000000
B1404226011421N01711913EA0118801211000540000000
B1404286011312N01711916EA0116501173000536000000
B1404346011180N01711918EA0114201158000532000000
B1404406011046N01711952EA0113401147000528000000
B1404466010922N01712008EA0112801139000528000000
B1404526010792N01712104EA0109901117000532000000
B1404586010664N01712177EA0110101114000528000000
B1405046010543N01712239EA0109801112000532000000
B1405106010423N01712324EA0108501092000532000000
B1405166010298N01712408EA0106501091000532000000
B1405226010196N01712463EA0110301134000536000000
B1405286010119N01712420EA0112801143000536000000
B1405346010159N01712265EA0113601160000548000000
B1405406010261N01712321EA0115901176000528000000
B1405466010267N01712532EA0115901179000540000000
B1405526010189N01712616EA0117001186000544000000
B1405586010133N01712523EA0117401191000544000000
B1406046010184N01712367EA0117201196000544000000
B1406106010280N01712303EA0118501203000540000000
B1406156010342N01712447EA0118101200000544000000
B1406226010287N01712633EA0119301218000540000000
B1406286010224N01712567EA0121201234000536000000
B1406346010285N01712450EA0121701240000540000000
B1406406010376N01712579EA0122301245000544000000
B1406466010375N01712793EA0123101259000540000000
B1406526010303N01712818EA0124601265000536000000
B1406586010316N01712657EA0125001274000544000000
B1407046010423N01712655EA0126501288000540000000
B1407106010488N01712840EA0126701287000544000000
B1407166010432N01712986EA0128101299000544000000
B1407226010378N01712884EA0128401306000548000000
B1407286010454N01712778EA0129701316000544000000
B1407346010543N01712915EA0130401326000540000000
B1407406010521N01713117EA0131301337000536000000
B1407466010448N01713105EA0131901341000540000000
B1407526010471N01712939EA0132001346000540000000
B1407586010583N01712919EA0133101355000520000000
B1408046010653N01713104EA0133501359000528000000
B1408106010605N01713277EA0134301367000536000000
B1408166010528N01713237EA0134201369000544000000
B1408226010521N01713064EA0135301378000544000000
B1408286010583N01712912EA0135901388000544000000
B1408346010675N01713030EA0137701404000540000000
B1408406010647N01713222EA0137201400000544000000
B1408466010576N01713164EA0138201410000552000000
B1408526010532N01713032EA0138601421000548000000
B1408586010545N01712882EA0138401399000552000000
B1409046010653N01712886EA0137501403000548000000
B1409106010691N01713096EA0137201393000544000000
B1409166010667N01713322EA0136801411000544000000
B1409226010615N01713455EA0138601400000536000000
B1409286010584N01713320EA0138401420000544000000
B1409346010674N01713259EA0140201433000540000000
B1409406010774N01713373EA0140001428000544000000
B1409466010820N01713602EA0140701435000548000000
B1409526010790N01713823EA0140901440000544000000
B1409586010742N01714010EA0141601453000544000000
B1410046010696N01714199EA0142001444000544000000
B1410106010644N01714426EA0140001420000544000000
B1410166010592N01714659EA0141301448000540000000
B1410226010535N01714846EA0143301457000540000000
B1410286010485N01715042EA0143901470000536000000
B1410346010445N01715253EA0143201447000544000000
B1410406010411N01715513EA0142201450000544000000
B1410466010352N01715747EA0140901431000536000000
B1410526010249N01715917EA0139401414000536000000
B1410586010133N01716051EA0137801403000532000000
B1411046010008N01716158EA0136001384000532000000
B1411106009878N01716202EA0134801369000536000000
B1411166009742N01716190EA0132101338000536000000
B1411226009601N01716147EA0130701327000536000000
B1411286009464N01716099EA0130001330000532000000
B1411346009336N01716056EA0130901332000528000000
B1411406009209N01716009EA0129201316000528000000
B1411466009084N01715951EA0129001317000528000000
B1411526008962N01715878EA0128601304000528000000
B1411586008837N01715801EA0126901291000528000000
B1412046008715N01715729EA0126801296000532000000
B1412106008598N01715666EA0126801286000524000000
B1412166008476N01715605EA0124601270000524000000
B1412226008357N01715548EA0124601270000532000000
B1412286008239N01715492EA0123401252000512000000
B1412346008112N01715447EA0121301241000524000000
B1412406007991N01715392EA0120601220000524000000
B1412466007865N01715326EA0118801203000528000000
B1412526007732N01715259EA0115001166000536000000
B1412586007599N01715190EA0115101180000536000000
B1413046007486N01715132EA0116701206000540000000
B1413106007414N01715099EA0122001249000544000000
B1413166007337N01715072EA0121101234000544000000
B1413226007254N01715025EA0120201218000548000000
B1413286007154N01714990EA0118901223000552000000
B1413346007082N01714925EA0122301242000556000000
B1413406007104N01714745EA0122201245000560000000
B1413466007215N01714755EA0123301260000568000000
B1413526007246N01714949EA0123201252000564000000
B1413586007173N01715010EA0123301254000560000000
B1414046007108N01714930EA0123301251000556000000
B1414106007044N01714832EA0123201273000548000000
B1414166006974N01714767EA0122301225000552000000
B1414226006855N01714794EA0119201215000540000000
B1414286006741N01714894EA0118101201000544000000
B1414346006626N01715018EA0116001183000548000000
B1414406006511N01715151EA0114201157000544000000
B1414466006403N01715272EA0115101205000524000000
B1414526006316N01715385EA0116301168000544000000
B1414586006211N01715523EA0114001161000544000000
B1415046006102N01715678EA0112701151000540000000
B1415106005991N01715840EA0112701172000540000000
B1415166005922N01715947EA0118301197000548000000
B1415226005824N01716087EA0114201160000552000000
B1415286005717N01716240EA0112601163000544000000
B1415346005618N01716379EA0111501133000548000000
B1415406005509N01716544EA0109301115000548000000
B1415466005395N01716709EA0107701095000536000000
B1415526005278N01716875EA0105601081000536000000
B1415586005161N01717047EA0103801056000536000000
B1416046005040N01717221EA0101801046000536000000
B1416106004923N01717391EA0099901030000540000000
B1416166004814N01717558EA0100101009000536000000
B1416226004697N01717736EA0096600994000536000000
B1416286004578N01717917EA0094200958000532000000
B1416346004461N01718099EA0094100967000528000000
B1416406004352N01718274EA0093300951000528000000
B1416466004236N01718447EA0091400934000532000000
B1416526004122N01718615EA0091000923000528000000
B1416586004005N01718765EA0089900914000524000000
B1417046003893N01718908EA0089900937000524000000
B1417106003824N01719031EA0095700972000532000000
B1417166003832N01719241EA0096600983000536000000
B1417226003935N01719287EA0097800995000544000000
B1417286003965N01719148EA0099201006000544000000
B1417346003893N01719096EA0099101008000540000000
B1417406003826N01719209EA0101001027000536000000
B1417466003857N01719408EA0102101033000536000000
B1417526003961N01719425EA0103301052000536000000
B1417586003972N01719282EA0103901053000544000000
B1418046003900N01719321EA0105401070000536015000
B1418106003887N01719517EA0106301078000544000000
B1418166003956N01719696EA0106701086000540000000
B1418226004041N01719643EA0108601099000536000000
B1418286004019N01719506EA0108401101000536000000
B1418346003946N01719545EA0109801115000536000000
B1418406003931N01719753EA0110401125000540000000
B1418466004009N01719915EA0112301142000532000000
B1418526004095N01719856EA0113001147000528000000
B1418586004074N01719717EA0113001144000532000000
B1419046004000N01719798EA0114301164000532000000
B1419106003992N01720003EA0116101178000524000000
B1419166004084N01720107EA0117301187000516000000
B1419226004135N01719982EA0117601189000524000000
B1419286004078N01719882EA0117201188000528000000
B1419346004006N01719869EA0120101221000520000000
B1419406003936N01719960EA0120801229000520000000
B1419466003969N01720164EA0122201243000524015000
B1419526004058N01720132EA0124501264000528015000
B1419586004036N01719991EA0125601280000524000000
B1420046003952N01720016EA0127801297000524000000
B1420106003956N01720225EA0129401312000524000000
B1420166004061N01720253EA0129701320000528015000
B1420226004075N01720099EA0131401339000528000000
B1420286003997N01720046EA0132801341000524000000
B1420346003894N01720091EA0132201328000524000000
B1420406003762N01720163EA0129401311000528000000
B1420466003618N01720247EA0127801303000536000000
B1420526003488N01720340EA0129901325000536000000
B1420586003367N01720442EA0131501334000540000000
B1421046003231N01720552EA0129601319000536000000
B1421106003094N01720658EA0130301327000536000000
B1421166002964N01720762EA0130901327000536000000
B1421226002828N01720849EA0128601305000536000000
B1421286002684N01720908EA0126901291000528000000
B1421346002542N01720957EA0126801290000512000000
B1421406002399N01721012EA0124701264000516000000
B1421466002254N01721076EA0124201262000520000000
B1421526002106N01721150EA0121901238000516000000
B1421586001957N01721221EA0121901248000524000000
B1422046001817N01721291EA0122801251000524000000
B1422106001677N01721356EA0121901242000524000000
B1422166001532N01721420EA0121601238000528000000
B1422226001391N01721482EA0121601241000528000000
B1422286001252N01721544EA0120201218000528000000
B1422346001112N01721598EA0118501205000524000000
B1422406000966N01721648EA0116001177000524000000
B1422466000819N01721685EA0115301178000528000000
B1422526000678N01721714EA0116101180000528000000
B1422586000538N01721739EA0115601180000532000000
B1423046000397N01721762EA0115801177000536000000
B1423106000248N01721800EA0115901187000536000000
B1423166000102N01721844EA0115101158000532000000
B1423225959946N01721897EA0112701143000528000000
B1423285959790N01721947EA0111201134000528000000
B1423345959640N01721983EA0110401115000524000000
B1423405959485N01722021EA0108801097000524000000
B1423465959330N01722087EA0108101101000524000000
B1423525959186N01722158EA0108101098000508000000
B1423585959042N01722231EA0106001073000520000000
B1424045958896N01722325EA0103601052000524000000
B1424105958748N01722424EA0102301044000528000000
B1424165958607N01722520EA0102101029000528000000
B1424225958458N01722620EA0098400995000528000000
B1424285958306N01722702EA0096900982000532000000
B1424345958147N01722782EA0094200956000528000000
B1424405957992N01722850EA0094200964000524000000
B1424465957844N01722914EA0093400958000524000000
B1424525957704N01722967EA0093600953000532000000
B1424585957558N01723023EA0091500926000528000000
B1425045957406N01723076EA0091100943000528000000
B1425105957268N01723133EA0092100932000532000000
B1425165957121N01723193EA0089300903000532000000
B1425225956969N01723241EA0087300895000532000000
B1425285956819N01723284EA0086400882000532000000
B1425345956668N01723321EA0085000867000528000000
B1425405956521N01723360EA0084300857000528000000
B1425465956373N01723425EA0082200838000536000000
B1425525956231N01723503EA0081800832000536000000
B1425585956085N01723573EA0079700815000536000000
B1426045955946N01723659EA0079500818000516000000
B1426105955819N01723760EA0079200800000524000000
B1426165955684N01723869EA0076500779000520000000
B1426225955547N01723962EA0075600770000528000000
B1426285955408N01724041EA0073600750000528000000
B1426345955269N01724127EA0072400738000524000000
B1426405955127N01724214EA0071100728000528000000
B1426465954984N01724301EA0068900708000532000000
B1426525954846N01724388EA0069500726000540000000
B1426585954718N01724475EA0069800702000536000000
B1427045954579N01724566EA0067300681000536000000
B1427105954437N01724648EA0065700672000528000000
B1427165954300N01724723EA0065200662000528000000
B1427225954163N01724794EA0063500639000528000000
B1427285954022N01724856EA0061800629000532000000
B1427345953887N01724924EA0062200634000532000000
B1427405953757N01724994EA0063300642000540000000
B1427465953623N01725069EA0061900623000544000000
B1427525953483N01725148EA0060700614000544000000
B1427585953345N01725223EA0059700602000544000000
B1428045953206N01725297EA0057800573000544000000
B1428105953056N01725367EA0055100546000544000000
B1428165952903N01725428EA0053100531000544000000
B1428225952752N01725485EA0052000520000528000000
B1428285952603N01725544EA0050600513000536000000
B1428345952467N01725602EA0052700534000544000000
B1428405952340N01725687EA0053200531000552000000
B1428465952211N01725789EA0052100525000552000000
B1428525952083N01725914EA0050000491000548000000
B1428585951945N01726055EA0046600465000552000000
B1429045951814N01726195EA0047000487000552000000
B1429105951697N01726339EA0048100483000556000000
B1429165951590N01726504EA0047400484000552000000
B1429225951581N01726734EA0048900490000548000000
B1429285951668N01726957EA0045300439000544000000
B1429345951790N01727170EA0042400418000548000000
B1429405951925N01727368EA0039400384000548000000
B1429465952068N01727569EA0037500375000544000000
B1429525952213N01727754EA0036700366000544000000
B1429585952362N01727906EA0036600363000548015000
B1430045952509N01728067EA0036000352000556015000
B1430105952652N01728252EA0034400335000556015000
B1430165952795N01728449EA0032600315000544015000
B1430225952938N01728660EA0031400308000552015000
B1430285953080N01728861EA0031200302000552015000
B1430345953237N01729017EA0030600295000552015000
B1430405953401N01729155EA0029100282000544015000
B1430465953567N01729289EA0028100267000544015000
B1430525953732N01729436EA0026500255000552015000
B1430585953901N01729593EA0024900235000560015000
B1431045954069N01729760EA0023600218000556015000
B1431105954238N01729943EA0021300201000556015000
B1431165954404N01730139EA0020400183000572015000
B1431225954568N01730374EA0017700156000568015000
B1431285954724N01730638EA0015700137000580015000
B1431345954878N01730914EA0013700115000592000000
B1431405955025N01731213EA0011200091000592000000
B1431465955166N01731530EA0009400074000600000000
B1431525955294N01731866EA0007500054000592000000
B1431585955379N01732217EA0007900092000588000000
B1432045955373N01732487EA0015700154000644000000
B1432105955368N01732746EA0013700127000680000000
B1432165955411N01732993EA0013800131000680000000
B1432225955512N01733130EA0013400125000668000000
B1432285955619N01733085EA0013700118000652015000
B1432345955662N01732916EA0010900090000648000000
B1432405955630N01732753EA0008400068000644000000
B1432465955574N01732623EA0006400051000636000000
B1432525955521N01732487EA0005100038000612000000
B1432585955472N01732341EA0004100028000608000000
B1433045955431N01732192EA0003700024000608000000
B1433105955403N01732068EA0003500024000856000000
B1433165955387N01731986EA0003300024000904000000
B1433225955383N01731945EA0003200024000832000000
B1433285955383N01731938EA0003400024000680000000
B1433345955383N01731938EA0003500024000560000000
B1433405955383N01731938EA0003600025000480000000
B1433465955383N01731938EA0003400026000452000000
G00030000004D2D1F430000000000000000000000000000000000000000000000
G9A1A1745BE9A6CF8C6652D142CD43B9BFB1B66EF0000000060D4B85695E2B939
G1255F64E2ED16B074BA0ABB463BD678B72C8B0670000000000000000F383DD48
