ACAM3RL
HFDTE140703
HFFXA050
HFPLTPILOT:Peter Cutting           
HFGTYGLIDERTYPE:LS8-t       
HFGIDGLIDERID:SE-USP      
HFDTM100GPSDATUM:
HFRFWFIRMWAREVERSION:F2.6
HFRHWHARDWAREVERSION:300 Series Version 2
HFFTYFRTYPE:CAMBRIDGE AERO INSTRUMENTS, 302+
HFGPS:GARMIN,LVS-25,12,18000
HFPRSPRESSALTSENSOR:INTERSEMA, MS5534-AP, 20000
I033638FXA3941ENL4247REX
LCAMSBVER:5FWVER:F26300
C100703105523100703000101
C0000000N00000000WTAKEOFF     
C5535815N01340565ESovde flp   
C5604800N01342050EBronnestadka
C5535815N01340565ESovde flp   
C0000000N00000000WLANDING     
B1259185656897N01355226EA0009900171000040000000
B1259205656897N01355226EA0009800170000040000000
B1259225656897N01355226EA0009800170000040000000
B1259245656897N01355226EA0009700170000044000000
B1259265656897N01355226EA0009800170000048000000
B1259285656897N01355226EA0009800170000052000000
B1259305656897N01355226EA0009800170000048000000
B1259325656897N01355226EA0009800170000048000000
B1259345656897N01355226EA0009900170000044000000
B1259365656897N01355226EA0009900170000040000000
B1259385656897N01355226EA0010000170000044000000
B1259405656897N01355226EA0010000170000052000000
B1259425656897N01355226EA0010000170000096000000
B1259445656899N01355226EA0009900171000096000000
B1259465656901N01355228EA0009900171000088000000
B1259495656912N01355234EA0009800171000100000000
B1259515656923N01355240EA0009900171000116000000
B1259535656939N01355248EA0009900171000160000000
B1259555656958N01355258EA0009900171000224000000
B1259575656979N01355270EA0010000171000312000000
B1259595657004N01355283EA0010000171000308000000
B1300015657031N01355297EA0010000172000292000000
B1300035657058N01355315EA0010200174000276000000
B1300055657088N01355331EA0010300177000280000000
B1300075657120N01355348EA0010500181000272000000
B1300095657149N01355366EA0011000188000264000000
B1300115657179N01355383EA0011700197000272000000
B1300135657208N01355400EA0012500204000276000000
B1300155657238N01355414EA0013100210000284000000
B1300175657268N01355426EA0013700217000276000000
B1300195657298N01355439EA0014400222000276000000
B1300215657329N01355449EA0014900228000252000000
B1300235657359N01355464EA0015500236000224000000
B1300255657386N01355479EA0016300245000216000000
B1300275657413N01355495EA0017100254000220000000
B1300295657442N01355507EA0017900260000224000000
B1300315657471N01355520EA0018500266000220000000
B1300335657499N01355533EA0019100273000232000000
B1300355657526N01355547EA0019700279000240000000
B1300375657555N01355561EA0020200284000240000000
B1300395657582N01355577EA0020800293000236000000
B1300415657611N01355587EA0021700302000236000000
B1300435657638N01355596EA0022500309000244000000
B1300455657666N01355607EA0023100314000236000000
B1300475657693N01355620EA0023600319000236000000
B1300495657720N01355635EA0024000322000240000000
B1300515657747N01355646EA0024300327000244000000
B1300535657776N01355652EA0024800332000248000000
B1300555657803N01355647EA0025300338000264000000
B1300575657831N01355626EA0026000343000264000000
B1300595657854N01355595EA0026400346000268000000
B1301015657876N01355551EA0026600348000268000000
B1301035657897N01355500EA0026800350000244000000
B1301055657916N01355451EA0027200356000224000000
B1301075657939N01355401EA0027700362000212000000
B1301095657961N01355351EA0028200367000220000000
B1301115657981N01355300EA0028900375000220000000
B1301135658002N01355248EA0029200382000220000000
B1301155658023N01355196EA0029900389000204000000
B1301175658044N01355148EA0030500400000204000000
B1301195658066N01355102EA0031500408000208000000
B1301215658087N01355055EA0032500417000212000000
B1301235658109N01355006EA0033300426000204000000
B1301255658131N01354958EA0034100430000212000000
B1301275658153N01354909EA0034700436000244000000
B1301295658174N01354858EA0035200443000228000000
B1301315658196N01354807EA0035800448000232000000
B1301335658217N01354758EA0036400454000228000000
B1301355658238N01354708EA0037000463000236000000
B1301375658260N01354659EA0037800471000244000000
B1301395658280N01354610EA0038600479000256000000
B1301415658301N01354559EA0039500489000252000000
B1301435658322N01354508EA0040400497000248000000
B1301455658343N01354460EA0040900505000240000000
B1301475658366N01354413EA0041600510000236000000
B1301495658387N01354364EA0042100515000232000000
B1301515658409N01354314EA0042600518000232000000
B1301535658429N01354265EA0043000523000236000000
B1301555658448N01354216EA0043600532000236000000
B1301575658469N01354170EA0044300539000220000000
B1301595658491N01354126EA0044900542000228000000
B1302015658513N01354079EA0045200544000236000000
B1302035658534N01354031EA0045500547000236000000
B1302055658556N01353982EA0046000552000248000000
B1302075658576N01353931EA0046500559000236000000
B1302095658598N01353880EA0047100564000208000000
B1302115658620N01353831EA0047700571000184000000
B1302135658643N01353779EA0048500583000184000000
B1302155658667N01353727EA0049600592000188000000
B1302175658690N01353672EA0050600603000208000000
B1302195658712N01353616EA0051600615000220000000
B1302215658734N01353563EA0052000623000208000000
B1302235658756N01353510EA0053000629000200000000
B1302255658778N01353459EA0053600637000164000000
B1302275658799N01353410EA0054300646000132000000
B1302295658820N01353358EA0055200656000108000000
B1302315658841N01353304EA0056000664000088000000
B1302335658862N01353250EA0056800670000084000000
B1302355658881N01353191EA0057500677000068000000
B1302375658902N01353134EA0058300688000060000000
B1302395658921N01353076EA0059500701000056000000
B1302415658941N01353020EA0060600712000048000000
B1302435658958N01352966EA0061800725000044000000
B1302455658975N01352913EA0063200741000044000000
B1302475658992N01352862EA0064500750000040000000
B1302495659008N01352813EA0065300757000036000000
B1302515659027N01352762EA0066000762000032000000
B1302535659045N01352710EA0066700773000032000000
B1302555659062N01352658EA0067800783000032000000
B1302575659080N01352608EA0068700794000028000000
B1302595659098N01352559EA0069300804000028000000
B1303015659116N01352510EA0070300815000028000000
B1303035659132N01352459EA0071400826000028000000
B1303055659149N01352409EA0072500836000028000000
B1303075659164N01352357EA0073500846000028000000
B1303095659180N01352306EA0074500855000028000000
B1303115659194N01352258EA0075500864000028000000
B1303135659210N01352208EA0076300871000024000000
B1303155659226N01352159EA0076900876000028000000
B1303175659236N01352110EA0077500881000024000000
B1303195659233N01352056EA0077900885000024000000
B1303215659218N01352007EA0078300886000020000000
B1303235659192N01351969EA0078400885000016000000
B1303255659159N01351947EA0078300880000016000000
B1303275659123N01351947EA0077800878000016000000
B1303295659088N01351965EA0077700879000016000000
B1303315659059N01352002EA0077900881000016000000
B1303335659036N01352045EA0078100882000016000000
B1303355659015N01352093EA0078100882000016000000
B1303375658995N01352141EA0078300884000016000000
B1303395658977N01352190EA0078400886000016000000
B1303415658962N01352240EA0078600890000016000000
B1303435658947N01352289EA0079000892000016000000
B1303455658934N01352340EA0079300894000016000000
B1303475658924N01352393EA0079400897000016000000
B1303495658915N01352448EA0079600898000016000000
B1303515658906N01352502EA0079800900000016000000
B1303535658901N01352557EA0080000904000016000000
B1303555658897N01352610EA0080300908000016000000
B1303575658897N01352663EA0080700911000016000000
B1303595658908N01352709EA0080900913000016000000
B1304015658928N01352741EA0081300918000016000000
B1304035658951N01352754EA0081800926000016000000
B1304055658976N01352748EA0082500932000016000000
B1304075658995N01352723EA0083200938000016000000
B1304095659008N01352682EA0083600942000016000000
B1304115659011N01352628EA0083900944000016000000
B1304135658999N01352574EA0084400951000016000000
B1304155658979N01352530EA0085200958000016000000
B1304175658950N01352500EA0085300959000016000000
B1304195658917N01352488EA0085600961000016000000
B1304215658884N01352500EA0085900964000016000000
B1304235658855N01352531EA0086100967000016000000
B1304255658832N01352575EA0086500973000016000000
B1304275658815N01352624EA0087000976000016000000
B1304295658803N01352678EA0087300975000016000000
B1304315658803N01352734EA0087200977000020000000
B1304335658812N01352783EA0087500982000020000000
B1304355658830N01352818EA0087900988000020000000
B1304375658852N01352831EA0088500995000020000000
B1304395658876N01352822EA0089101000000020000000
B1304415658893N01352791EA0089901008000016000000
B1304435658902N01352745EA0090601015000016000000
B1304455658899N01352692EA0091201020000016000000
B1304475658886N01352643EA0091501024000016000000
B1304495658863N01352605EA0092001026000016000000
B1304515658832N01352585EA0092001028000016000000
B1304535658799N01352585EA0092501033000016000000
B1304555658768N01352606EA0092701037000016000000
B1304575658742N01352641EA0093101038000016000000
B1304595658725N01352691EA0093301038000016000000
B1305015658720N01352745EA0093301040000016000000
B1305035658724N01352796EA0093501042000016000000
B1305055658738N01352838EA0093701046000016000000
B1305075658758N01352865EA0093901048000016000000
B1305095658781N01352877EA0094101049000016000000
B1305115658806N01352874EA0094301053000016000000
B1305135658829N01352856EA0094801060000016000000
B1305155658847N01352822EA0095501069000016000000
B1305175658856N01352777EA0096301073000016000000
B1305195658851N01352723EA0096801078000016000000
B1305215658832N01352676EA0097301082000020000000
B1305235658803N01352648EA0097701086000016000000
B1305255658769N01352644EA0098201089000016000000
B1305275658738N01352669EA0098601094000016000000
B1305295658716N01352712EA0098801097000016000000
B1305315658703N01352765EA0099101096000016000000
B1305335658703N01352822EA0099101101000020000000
B1305355658716N01352868EA0099401107000024000000
B1305375658738N01352896EA0099901111000028000000
B1305395658764N01352904EA0100401116000028000000
B1305415658789N01352888EA0101101125000024000000
B1305435658808N01352858EA0101801129000024000000
B1305455658820N01352812EA0102201130000020000000
B1305475658819N01352757EA0102401133000020000000
B1305495658806N01352701EA0102701138000020000000
B1305515658784N01352656EA0103301145000020000000
B1305535658754N01352624EA0103801149000024000000
B1305555658720N01352611EA0104201152000028000000
B1305575658686N01352622EA0104501154000028000000
B1305595658655N01352652EA0104701157000028000000
B1306015658631N01352699EA0105001158000028000000
B1306035658618N01352757EA0105001156000028000000
B1306055658620N01352818EA0105001162000028000000
B1306075658634N01352868EA0105301169000028000000
B1306095658656N01352899EA0105901175000024000000
B1306115658683N01352904EA0106501180000024000000
B1306135658707N01352882EA0107101188000024000000
B1306155658721N01352840EA0107801192000020000000
B1306175658722N01352788EA0108301195000020000000
B1306195658708N01352736EA0108601198000020000000
B1306215658682N01352697EA0109001204000020000000
B1306235658650N01352675EA0109501208000016000000
B1306255658616N01352680EA0110001212000016000000
B1306275658586N01352712EA0110401216000016000000
B1306295658566N01352760EA0110701216000012000000
B1306315658561N01352817EA0110701217000016000000
B1306335658574N01352866EA0110901226000016000000
B1306355658595N01352892EA0111701235000016000000
B1306375658620N01352896EA0112601240000016000000
B1306395658642N01352875EA0113101244000016000000
B1306415658657N01352839EA0113401246000016000000
B1306435658665N01352791EA0113601248000016000000
B1306455658667N01352736EA0113801251000016000000
B1306475658667N01352682EA0114101255000016000000
B1306495658667N01352626EA0114301261000016000000
B1306515658665N01352570EA0114901265000016000000
B1306535658663N01352515EA0115301269000016000000
B1306555658661N01352458EA0115601272000020000000
B1306575658659N01352401EA0116001278000016000000
B1306595658651N01352345EA0116501281000016000000
B1307015658629N01352299EA0116901286000016000000
B1307035658596N01352277EA0117301287000016000000
B1307055658561N01352285EA0117401286000016000000
B1307075658533N01352320EA0117401289000016000000
B1307095658517N01352371EA0117701293000016000000
B1307115658514N01352423EA0118101296000016000000
B1307135658524N01352471EA0118301296000016000000
B1307155658544N01352502EA0118501301000016000000
B1307175658570N01352509EA0118901306000016000000
B1307195658595N01352489EA0119301310000016000000
B1307215658613N01352446EA0119701314000016000000
B1307235658618N01352389EA0120001317000016000000
B1307255658609N01352331EA0120601325000016000000
B1307275658587N01352281EA0121201329000016000000
B1307295658557N01352250EA0121401333000016000000
B1307315658522N01352242EA0122101336000012000000
B1307335658488N01352258EA0122201335000016000000
B1307355658462N01352297EA0122301336000012000000
B1307375658448N01352349EA0122301339000012000000
B1307395658447N01352405EA0122601341000016000000
B1307415658447N01352462EA0122801342000016000000
B1307435658447N01352522EA0122901345000016000000
B1307455658448N01352579EA0123301350000016000000
B1307475658449N01352636EA0123801355000016000000
B1307495658451N01352691EA0124301360000016000000
B1307515658452N01352747EA0124801366000016000000
B1307535658455N01352800EA0125401371000016000000
B1307555658459N01352853EA0125901375000016000000
B1307575658462N01352905EA0126301377000016000000
B1307595658472N01352955EA0126601376000016000000
B1308015658491N01352994EA0126501375000016000000
B1308035658516N01353016EA0126601380000016000000
B1308055658543N01353022EA0126801384000016000000
B1308075658569N01353024EA0127301386000016000000
B1308095658596N01353021EA0127501387000020000000
B1308115658624N01353012EA0127501386000016000000
B1308135658650N01352991EA0127501387000020000000
B1308155658672N01352960EA0127701393000020000000
B1308175658691N01352925EA0128101393000020000000
B1308195658711N01352887EA0128001388000020000000
B1308215658730N01352848EA0127601381000020000000
B1308235658750N01352806EA0126901375000020000000
B1308255658769N01352762EA0126201372000020000000
B1308275658787N01352719EA0125801371000020000000
B1308295658804N01352674EA0125601367000020000000
B1308315658821N01352630EA0125301364000020000000
B1308335658838N01352584EA0125001361000020000000
B1308355658854N01352539EA0124501358000020000000
B1308375658871N01352492EA0124201355000020000000
B1308395658885N01352441EA0123901352000020000000
B1308415658891N01352383EA0123501348000016000000
B1308435658884N01352322EA0123301347000016000000
B1308455658865N01352267EA0123201346000020000000
B1308475658839N01352224EA0123101343000020000000
B1308495658810N01352190EA0122901339000020000000
B1308515658777N01352162EA0122401335000016000000
B1308535658743N01352137EA0122001332000020000000
B1308555658708N01352116EA0121701329000020000000
B1308575658672N01352095EA0121401327000020000000
B1308595658637N01352075EA0121201325000020000000
B1309015658600N01352056EA0120901322000020000000
B1309035658563N01352051EA0120601320000020000000
B1309055658525N01352063EA0120401321000020000000
B1309075658491N01352089EA0120701327000020000000
B1309095658461N01352128EA0121401333000020000000
B1309115658449N01352181EA0122101342000020000000
B1309135658455N01352228EA0122901350000020000000
B1309155658473N01352250EA0123501355000016000000
B1309175658494N01352245EA0124001356000016000000
B1309195658509N01352216EA0124001352000016000000
B1309215658514N01352168EA0123701350000020000000
B1309235658501N01352115EA0123401350000020000000
B1309255658474N01352080EA0123601356000016000000
B1309275658440N01352071EA0124301363000016000000
B1309295658407N01352080EA0125001366000016000000
B1309315658375N01352106EA0125201370000016000000
B1309335658355N01352153EA0125501375000016000000
B1309355658351N01352205EA0125901382000016000000
B1309375658362N01352246EA0126601388000016000000
B1309395658384N01352263EA0127301391000016000000
B1309415658407N01352250EA0127601396000016000000
B1309435658421N01352214EA0127901401000016000000
B1309455658425N01352166EA0128401404000016000000
B1309475658414N01352114EA0128701405000016000000
B1309495658390N01352075EA0129001410000016000000
B1309515658358N01352054EA0129301415000012000000
B1309535658323N01352049EA0129801421000016000000
B1309555658291N01352060EA0130401425000016000000
B1309575658264N01352095EA0130701426000016000000
B1309595658249N01352146EA0131001430000012000000
B1310015658252N01352198EA0131201437000012000000
B1310035658266N01352234EA0131801438000012000000
B1310055658291N01352249EA0131901438000016000000
B1310075658316N01352236EA0132101443000016000000
B1310095658334N01352199EA0132501447000016000000
B1310115658340N01352146EA0132801449000016000000
B1310135658334N01352088EA0133201454000016000000
B1310155658314N01352037EA0133301458000016000000
B1310175658284N01351999EA0133801464000016000000
B1310195658249N01351981EA0134301469000016000000
B1310215658215N01351987EA0134801474000016000000
B1310235658186N01352016EA0135301477000020000000
B1310255658167N01352060EA0135801480000020000000
B1310275658161N01352112EA0136101484000016000000
B1310295658166N01352158EA0136501490000016000000
B1310315658180N01352193EA0137001492000016000000
B1310335658200N01352218EA0137301491000012000000
B1310355658223N01352231EA0137301492000016000000
B1310375658248N01352221EA0137301496000016000000
B1310395658267N01352192EA0137601500000016000000
B1310415658278N01352147EA0137901502000016000000
B1310435658278N01352094EA0138101502000016000000
B1310455658266N01352041EA0138401505000020000000
B1310475658244N01351997EA0138701509000020000000
B1310495658214N01351968EA0139001513000020000000
B1310515658180N01351963EA0139501518000020000000
B1310535658149N01351977EA0139901523000016000000
B1310555658122N01352007EA0140101525000016000000
B1310575658101N01352049EA0140201524000016000000
B1310595658085N01352098EA0140301525000016000000
B1311015658075N01352151EA0140401526000020000000
B1311035658067N01352206EA0140401526000016000000
B1311055658059N01352264EA0140401527000020000000
B1311075658052N01352322EA0140501532000020000000
B1311095658045N01352379EA0141001538000020000000
B1311115658041N01352437EA0141401541000020000000
B1311135658037N01352496EA0141601536000020000000
B1311155658035N01352559EA0141001522000020000000
B1311175658033N01352632EA0139801512000020000000
B1311195658033N01352708EA0139001511000024000000
B1311215658035N01352784EA0138701512000024000000
B1311235658037N01352861EA0138701514000024000000
B1311255658040N01352936EA0139001517000024000000
B1311275658043N01353011EA0139301517000024000000
B1311295658045N01353086EA0139401516000024000000
B1311315658048N01353161EA0139301517000024000000
B1311335658050N01353237EA0139401518000024000000
B1311355658053N01353312EA0139401517000028000000
B1311375658056N01353386EA0139301516000028000000
B1311395658059N01353462EA0139101510000028000000
B1311415658065N01353534EA0138701508000028000000
B1311435658069N01353606EA0138401507000028000000
B1311455658072N01353676EA0138201503000028000000
B1311475658076N01353746EA0137901501000028000000
B1311495658083N01353815EA0137701500000028000000
B1311515658091N01353882EA0137601497000028000000
B1311535658098N01353949EA0137201492000028000000
B1311555658104N01354015EA0136801491000028000000
B1311575658109N01354082EA0136601489000028000000
B1311595658111N01354149EA0136301485000028000000
B1312015658115N01354218EA0135901480000028000000
B1312035658119N01354287EA0135401478000028000000
B1312055658122N01354357EA0135201478000028000000
B1312075658124N01354426EA0135301481000028000000
B1312095658126N01354493EA0135801493000028000000
B1312115658127N01354555EA0136801500000028000000
B1312135658130N01354615EA0137601503000024000000
B1312155658137N01354671EA0138001508000024000000
B1312175658158N01354708EA0138701518000024000000
B1312195658183N01354720EA0139701529000024000000
B1312215658209N01354708EA0140501531000020000000
B1312235658230N01354672EA0140801535000020000000
B1312255658239N01354619EA0141101539000020000000
B1312275658234N01354561EA0141501542000020000000
B1312295658215N01354511EA0142001546000020000000
B1312315658188N01354477EA0142201551000020000000
B1312335658157N01354463EA0142701556000020000000
B1312355658127N01354464EA0143101556000020000000
B1312375658097N01354483EA0143201555000020000000
B1312395658070N01354515EA0143201555000020000000
B1312415658046N01354550EA0143201556000020000000
B1312435658023N01354586EA0143401560000020000000
B1312455658002N01354624EA0143601558000020000000
B1312475657987N01354669EA0143401553000020000000
B1312495657979N01354723EA0142901548000020000000
B1312515657984N01354776EA0142501547000020000000
B1312535658001N01354819EA0142701554000020000000
B1312555658026N01354840EA0143501564000020000000
B1312575658052N01354840EA0144201569000020000000
B1312595658076N01354818EA0144601571000020000000
B1313015658095N01354773EA0144801574000020000000
B1313035658102N01354719EA0145101578000020000000
B1313055658097N01354660EA0145501582000020000000
B1313075658083N01354608EA0145801584000020000000
B1313095658058N01354568EA0146101585000020000000
B1313115658028N01354543EA0146201588000020000000
B1313135657996N01354534EA0146301588000020000000
B1313155657962N01354538EA0146301586000020000000
B1313175657931N01354556EA0146201586000020000000
B1313195657903N01354584EA0146201589000020000000
B1313215657879N01354617EA0146501589000016000000
B1313235657861N01354662EA0146401585000020000000
B1313255657857N01354714EA0146201586000020000000
B1313275657867N01354758EA0146401589000016000000
B1313295657888N01354779EA0146601593000020000000
B1313315657913N01354782EA0147001596000020000000
B1313335657939N01354777EA0147301601000016000000
B1313355657963N01354769EA0147801604000016000000
B1313375657988N01354760EA0147901605000016000000
B1313395658013N01354749EA0148201607000016000000
B1313415658036N01354736EA0148401611000016000000
B1313435658059N01354719EA0148601612000016000000
B1313455658083N01354697EA0148701611000016000000
B1313475658105N01354672EA0148601610000016000000
B1313495658128N01354646EA0148501607000016000000
B1313515658150N01354617EA0148401606000016000000
B1313535658173N01354587EA0148201607000016000000
B1313555658193N01354558EA0148201605000016000000
B1313575658218N01354532EA0148001600000016000000
B1313595658244N01354515EA0147601597000016000000
B1314015658271N01354504EA0147201595000016000000
B1314035658300N01354496EA0146901594000016000000
B1314055658327N01354490EA0146801594000016000000
B1314075658356N01354486EA0146801592000016000000
B1314095658383N01354482EA0146501589000016000000
B1314115658410N01354478EA0146101584000016000000
B1314135658438N01354473EA0145601580000016000000
B1314155658465N01354467EA0145401579000016000000
B1314175658491N01354456EA0145201578000016000000
B1314195658517N01354446EA0145101577000020000000
B1314215658543N01354434EA0145101577000020000000
B1314235658568N01354420EA0145101577000020000000
B1314255658590N01354389EA0145001574000020000000
B1314275658604N01354340EA0144801573000020000000
B1314295658608N01354285EA0144601573000016000000
B1314315658603N01354226EA0144601572000020000000
B1314335658591N01354170EA0144701573000016000000
B1314355658576N01354117EA0144701572000016000000
B1314375658559N01354065EA0144501568000016000000
B1314395658539N01354009EA0143801559000020000000
B1314415658518N01353950EA0142901548000020000000
B1314435658495N01353891EA0141701539000020000000
B1314455658470N01353830EA0140901536000024000000
B1314475658446N01353768EA0140501531000024000000
B1314495658420N01353707EA0140101528000024000000
B1314515658394N01353645EA0139901523000024000000
B1314535658366N01353584EA0139301519000024000000
B1314555658338N01353523EA0138901516000028000000
B1314575658310N01353462EA0138501514000028000000
B1314595658282N01353402EA0138401514000028000000
B1315015658254N01353343EA0138401514000028000000
B1315035658226N01353286EA0138401512000028000000
B1315055658199N01353229EA0138101506000028000000
B1315075658170N01353170EA0137501502000028000000
B1315095658141N01353113EA0137101500000028000000
B1315115658115N01353055EA0136901500000028000000
B1315135658088N01352996EA0136901500000028000000
B1315155658061N01352939EA0136701498000028000000
B1315175658032N01352883EA0136501497000028000000
B1315195658004N01352827EA0136201496000028000000
B1315215657975N01352771EA0136201496000028000000
B1315235657945N01352717EA0136301498000028000000
B1315255657915N01352662EA0136201499000028000000
B1315275657885N01352610EA0136501500000028000000
B1315295657854N01352558EA0136501500000028000000
B1315315657823N01352506EA0136501501000028000000
B1315335657792N01352454EA0136501500000028000000
B1315355657760N01352402EA0136501499000028000000
B1315375657729N01352348EA0136401499000028000000
B1315395657699N01352294EA0136301500000028000000
B1315415657668N01352242EA0136501502000028000000
B1315435657638N01352190EA0136501504000028000000
B1315455657608N01352140EA0136901506000024000000
B1315475657577N01352089EA0136901501000024000000
B1315495657546N01352038EA0136301495000024000000
B1315515657513N01351987EA0135901494000028000000
B1315535657480N01351938EA0135701494000028000000
B1315555657446N01351887EA0135601495000028000000
B1315575657413N01351838EA0135601495000028000000
B1315595657380N01351789EA0135701496000028000000
B1316015657348N01351743EA0135801498000028000000
B1316035657317N01351696EA0136001497000024000000
B1316055657289N01351647EA0136001494000024000000
B1316075657259N01351595EA0135701490000024000000
B1316095657230N01351542EA0135401488000024000000
B1316115657201N01351484EA0135301485000028000000
B1316135657172N01351428EA0135201482000024000000
B1316155657143N01351371EA0135101481000024000000
B1316175657114N01351313EA0134901481000024000000
B1316195657086N01351254EA0134801480000020000000
B1316215657058N01351194EA0134901479000020000000
B1316235657031N01351135EA0134901479000020000000
B1316255657004N01351075EA0134901480000020000000
B1316275656975N01351019EA0134901482000020000000
B1316295656944N01350964EA0135101484000020000000
B1316315656914N01350912EA0135201486000020000000
B1316335656882N01350862EA0135401487000020000000
B1316355656848N01350810EA0135501487000020000000
B1316375656815N01350758EA0135501488000020000000
B1316395656783N01350704EA0135501492000020000000
B1316415656753N01350647EA0135801495000024000000
B1316435656726N01350591EA0136301502000024000000
B1316455656694N01350550EA0137001511000024000000
B1316475656659N01350535EA0137601517000020000000
B1316495656628N01350548EA0138201521000016000000
B1316515656606N01350587EA0138701524000016000000
B1316535656600N01350637EA0138901523000012000000
B1316555656606N01350681EA0139001525000012000000
B1316575656620N01350715EA0139301528000012000000
B1316595656639N01350738EA0139601531000012000000
B1317015656658N01350755EA0140001531000012000000
B1317035656681N01350755EA0140101527000012000000
B1317055656706N01350737EA0139701522000012000000
B1317075656730N01350703EA0139501524000012000000
B1317095656746N01350656EA0139801529000016000000
B1317115656759N01350607EA0140101531000016000000
B1317135656770N01350554EA0140301528000016000000
B1317155656779N01350495EA0140101521000016000000
B1317175656785N01350431EA0139701516000016000000
B1317195656789N01350366EA0139201515000016000000
B1317215656791N01350299EA0139101514000016000000
B1317235656789N01350232EA0139101512000016000000
B1317255656788N01350165EA0138801508000016000000
B1317275656784N01350097EA0138501502000016000000
B1317295656780N01350027EA0138101497000020000000
B1317315656779N01349956EA0137601493000020000000
B1317335656778N01349884EA0137401491000020000000
B1317355656775N01349814EA0137201491000020000000
B1317375656772N01349745EA0137201490000020000000
B1317395656769N01349675EA0137201488000020000000
B1317415656765N01349606EA0137001487000020000000
B1317435656759N01349537EA0136901485000020000000
B1317455656748N01349472EA0136901486000020000000
B1317475656728N01349411EA0136901488000020000000
B1317495656705N01349356EA0137301494000020000000
B1317515656681N01349308EA0137701502000020000000
B1317535656657N01349264EA0138401503000020000000
B1317555656631N01349225EA0138701504000020000000
B1317575656605N01349189EA0138701502000020000000
B1317595656576N01349157EA0138701501000020000000
B1318015656546N01349131EA0138501499000020000000
B1318035656516N01349105EA0138301497000020000000
B1318055656488N01349075EA0138101494000020000000
B1318075656457N01349049EA0137801492000020000000
B1318095656423N01349031EA0137601490000020000000
B1318115656390N01349018EA0137501489000020000000
B1318135656356N01349018EA0137301486000020000000
B1318155656324N01349035EA0136901481000020000000
B1318175656295N01349072EA0136501479000020000000
B1318195656271N01349116EA0136401480000020000000
B1318215656250N01349163EA0136601484000020000000
B1318235656234N01349215EA0136901482000020000000
B1318255656229N01349272EA0136801477000020000000
B1318275656241N01349320EA0136501487000020000000
B1318295656264N01349343EA0137501494000020000000
B1318315656291N01349334EA0137801492000020000000
B1318335656310N01349294EA0137801490000016000000
B1318355656314N01349237EA0137701490000016000000
B1318375656302N01349183EA0137601493000020000000
B1318395656284N01349139EA0138001497000020000000
B1318415656262N01349104EA0138401499000016000000
B1318435656236N01349077EA0138401499000016000000
B1318455656207N01349060EA0138401499000016000000
B1318475656176N01349053EA0138401504000016000000
B1318495656147N01349062EA0138901506000016000000
B1318515656126N01349096EA0139101498000016000000
B1318535656120N01349144EA0138701496000016000000
B1318555656129N01349185EA0138401499000016000000
B1318575656148N01349208EA0138401498000016000000
B1318595656171N01349217EA0138301491000016000000
B1319015656197N01349221EA0137701481000016000000
B1319035656225N01349226EA0136901478000016000000
B1319055656252N01349239EA0136501476000020000000
B1319075656275N01349268EA0136301474000020000000
B1319095656290N01349311EA0136301477000020000000
B1319115656303N01349352EA0136701483000020000000
B1319135656325N01349368EA0137301487000020000000
B1319155656346N01349347EA0137401488000020000000
B1319175656356N01349302EA0137501488000016000000
B1319195656349N01349251EA0137501487000016000000
B1319215656329N01349211EA0137401486000020000000
B1319235656301N01349194EA0137401489000020000000
B1319255656273N01349202EA0137501493000020000000
B1319275656252N01349228EA0137701487000020000000
B1319295656238N01349269EA0137001474000020000000
B1319315656226N01349321EA0136101469000020000000
B1319335656216N01349376EA0135801472000020000000
B1319355656207N01349429EA0135901476000020000000
B1319375656199N01349480EA0136401481000020000000
B1319395656197N01349528EA0136901485000020000000
B1319415656207N01349567EA0137301490000020000000
B1319435656229N01349580EA0137701494000016000000
B1319455656252N01349564EA0138001494000016000000
B1319475656269N01349524EA0138101494000012000000
B1319495656275N01349471EA0138201497000012000000
B1319515656267N01349417EA0138401500000012000000
B1319535656246N01349374EA0138601499000012000000
B1319555656215N01349354EA0138501496000012000000
B1319575656184N01349355EA0138401495000012000000
B1319595656155N01349377EA0138301495000012000000
B1320015656132N01349413EA0138101492000012000000
B1320035656113N01349458EA0138101494000012000000
B1320055656099N01349503EA0138301499000012000000
B1320075656086N01349550EA0138701502000012000000
B1320095656077N01349599EA0138901505000012000000
B1320115656068N01349649EA0139301507000016000000
B1320135656068N01349699EA0139801513000016000000
B1320155656082N01349733EA0140101520000012000000
B1320175656107N01349740EA0140701525000012000000
B1320195656129N01349714EA0141101528000012000000
B1320215656142N01349666EA0141501531000012000000
B1320235656141N01349610EA0141801535000012000000
B1320255656128N01349559EA0142101536000012000000
B1320275656107N01349516EA0142301536000012000000
B1320295656080N01349484EA0142201536000012000000
B1320315656050N01349465EA0142201535000012000000
B1320335656017N01349471EA0142301536000012000000
B1320355655992N01349506EA0142601540000012000000
B1320375655981N01349558EA0142801542000012000000
B1320395655986N01349608EA0143101550000012000000
B1320415656003N01349638EA0143701559000012000000
B1320435656026N01349641EA0144601565000012000000
B1320455656048N01349620EA0145001564000012000000
B1320475656064N01349576EA0145101564000012000000
B1320495656067N01349517EA0145101568000012000000
B1320515656056N01349462EA0145401572000012000000
B1320535656037N01349416EA0145601574000012000000
B1320555656008N01349386EA0145801574000012000000
B1320575655976N01349378EA0145901574000012000000
B1320595655946N01349394EA0146101581000016000000
B1321015655920N01349424EA0146901589000016000000
B1321035655899N01349462EA0147201588000016000000
B1321055655891N01349510EA0147301582000016000000
B1321075655900N01349554EA0146901580000016000000
B1321095655921N01349579EA0146601583000016000000
B1321115655946N01349584EA0146801588000016000000
B1321135655969N01349572EA0147101592000012000000
B1321155655991N01349546EA0147501593000012000000
B1321175656007N01349504EA0147701593000012000000
B1321195656011N01349450EA0147801596000012000000
B1321215655999N01349397EA0148001599000012000000
B1321235655977N01349355EA0148201601000012000000
B1321255655948N01349332EA0148501602000012000000
B1321275655917N01349332EA0148601602000012000000
B1321295655888N01349356EA0148801605000012000000
B1321315655869N01349399EA0149001606000012000000
B1321335655856N01349449EA0149001602000016000000
B1321355655849N01349506EA0148601598000016000000
B1321375655844N01349563EA0148501606000016000000
B1321395655842N01349618EA0149001614000016000000
B1321415655838N01349670EA0149501618000016000000
B1321435655835N01349722EA0150001625000016000000
B1321455655834N01349772EA0150701632000016000000
B1321475655840N01349819EA0151401637000016000000
B1321495655860N01349850EA0152001645000016000000
B1321515655887N01349850EA0152801654000016000000
B1321535655909N01349822EA0153601658000016000000
B1321555655924N01349772EA0154101660000012000000
B1321575655925N01349712EA0154301663000016000000
B1321595655911N01349658EA0154601668000012000000
B1322015655886N01349624EA0155101673000012000000
B1322035655856N01349614EA0155501676000012000000
B1322055655826N01349631EA0155801676000012000000
B1322075655805N01349670EA0155801678000012000000
B1322095655796N01349722EA0156201686000012000000
B1322115655799N01349770EA0156901696000012000000
B1322135655808N01349813EA0158001705000012000000
B1322155655823N01349845EA0158901712000012000000
B1322175655843N01349866EA0159601716000012000000
B1322195655868N01349871EA0159901716000012000000
B1322215655891N01349858EA0159801715000012000000
B1322235655912N01349824EA0159801717000012000000
B1322255655924N01349777EA0159901719000012000000
B1322275655927N01349724EA0159901719000012000000
B1322295655921N01349670EA0160001718000008000000
B1322315655904N01349621EA0160001720000008000000
B1322335655879N01349588EA0160101722000008000000
B1322355655851N01349572EA0160301721000008000000
B1322375655820N01349577EA0160301721000008000000
B1322395655794N01349603EA0160401726000008000000
B1322415655774N01349638EA0160701732000008000000
B1322435655758N01349681EA0161301736000012000000
B1322455655747N01349727EA0161701741000008000000
B1322475655744N01349775EA0162201745000012000000
B1322495655752N01349816EA0162701752000012000000
B1322515655769N01349845EA0163501760000012000000
B1322535655791N01349857EA0164201762000012000000
B1322555655816N01349849EA0164401762000012000000
B1322575655839N01349824EA0164401762000012000000
B1322595655856N01349783EA0164501764000012000000
B1323015655862N01349731EA0164501765000012000000
B1323035655861N01349675EA0164601765000012000000
B1323055655848N01349623EA0164601766000012000000
B1323075655826N01349581EA0164701768000012000000
B1323095655799N01349558EA0164801772000012000000
B1323115655770N01349551EA0165201776000012000000
B1323135655742N01349560EA0165501778000012000000
B1323155655716N01349584EA0165601777000012000000
B1323175655695N01349621EA0165701781000012000000
B1323195655679N01349664EA0166201789000012000000
B1323215655669N01349710EA0166901796000012000000
B1323235655664N01349754EA0167601803000012000000
B1323255655664N01349800EA0168201807000012000000
B1323275655669N01349842EA0168601810000012000000
B1323295655680N01349883EA0168801810000012000000
B1323315655699N01349911EA0169001815000012000000
B1323335655722N01349922EA0169501822000012000000
B1323355655745N01349911EA0170201828000012000000
B1323375655766N01349887EA0170701829000012000000
B1323395655782N01349846EA0170701825000012000000
B1323415655788N01349792EA0170501823000012000000
B1323435655782N01349735EA0170301826000012000000
B1323455655765N01349686EA0170501830000012000000
B1323475655740N01349653EA0170801832000012000000
B1323495655710N01349637EA0170901834000012000000
B1323515655682N01349638EA0171201835000012000000
B1323535655654N01349659EA0171401838000012000000
B1323555655635N01349694EA0171801844000012000000
B1323575655623N01349737EA0172301850000012000000
B1323595655615N01349781EA0172801854000012000000
B1324015655610N01349827EA0173101855000012000000
B1324035655605N01349874EA0173401860000012000000
B1324055655601N01349922EA0173801864000012000000
B1324075655599N01349969EA0174301869000012000000
B1324095655599N01350015EA0174601872000012000000
B1324115655600N01350062EA0175001873000012000000
B1324135655605N01350109EA0175101873000012000000
B1324155655612N01350156EA0175001874000012000000
B1324175655618N01350200EA0175101879000012000000
B1324195655623N01350243EA0175301885000012000000
B1324215655628N01350284EA0175901887000012000000
B1324235655634N01350326EA0176201887000008000000
B1324255655639N01350369EA0176201888000008000000
B1324275655647N01350408EA0176401887000008000000
B1324295655664N01350435EA0176401886000008000000
B1324315655686N01350443EA0176201884000012000000
B1324335655709N01350430EA0176101884000012000000
B1324355655727N01350396EA0176001882000012000000
B1324375655735N01350347EA0175901880000008000000
B1324395655734N01350291EA0175701877000012000000
B1324415655725N01350235EA0175501878000012000000
B1324435655713N01350180EA0175601881000012000000
B1324455655700N01350127EA0175701882000012000000
B1324475655690N01350074EA0175801881000012000000
B1324495655678N01350021EA0175801879000012000000
B1324515655664N01349967EA0175701877000012000000
B1324535655645N01349919EA0175401871000012000000
B1324555655619N01349875EA0174301859000016000000
B1324575655587N01349836EA0173901856000016000000
B1324595655553N01349801EA0173501861000016000000
B1325015655522N01349774EA0173901872000016000000
B1325035655491N01349758EA0174801881000016000000
B1325055655461N01349754EA0175801887000012000000
B1325075655433N01349759EA0176301893000012000000
B1325095655407N01349775EA0176901897000012000000
B1325115655384N01349803EA0177301901000012000000
B1325135655367N01349842EA0177601903000012000000
B1325155655355N01349887EA0177901903000012000000
B1325175655352N01349937EA0178001904000012000000
B1325195655354N01349989EA0178001903000012000000
B1325215655361N01350043EA0177901900000012000000
B1325235655371N01350101EA0177401891000012000000
B1325255655383N01350164EA0176801889000016000000
B1325275655398N01350226EA0176801895000016000000
B1325295655414N01350284EA0177301901000020000000
B1325315655430N01350342EA0177601907000016000000
B1325335655443N01350396EA0178501913000016000000
B1325355655457N01350447EA0178901920000016000000
B1325375655472N01350498EA0179401912000016000000
B1325395655489N01350550EA0179201907000020000000
B1325415655508N01350603EA0178301901000020000000
B1325435655526N01350656EA0177901897000020000000
B1325455655543N01350712EA0177301887000020000000
B1325475655560N01350773EA0176601882000020000000
B1325495655576N01350836EA0176001879000020000000
B1325515655591N01350901EA0175801878000020000000
B1325535655605N01350964EA0175701878000020000000
B1325555655619N01351027EA0175701880000020000000
B1325575655632N01351088EA0175801880000020000000
B1325595655644N01351149EA0175801881000020000000
B1326015655657N01351206EA0175901882000020000000
B1326035655669N01351262EA0176001883000020000000
B1326055655680N01351317EA0176001883000020000000
B1326075655692N01351370EA0176001881000020000000
B1326095655704N01351426EA0175701877000020000000
B1326115655712N01351482EA0175601875000020000000
B1326135655718N01351540EA0175201872000020000000
B1326155655726N01351597EA0175101870000020000000
B1326175655735N01351653EA0174901868000020000000
B1326195655745N01351708EA0174601865000020000000
B1326215655757N01351763EA0174201862000020000000
B1326235655769N01351817EA0173901855000020000000
B1326255655782N01351876EA0173301850000020000000
B1326275655795N01351933EA0172901850000020000000
B1326295655808N01351987EA0172801850000020000000
B1326315655822N01352042EA0172801851000020000000
B1326335655835N01352095EA0172801852000020000000
B1326355655846N01352149EA0173001856000020000000
B1326375655857N01352199EA0173301858000020000000
B1326395655868N01352250EA0173401858000016000000
B1326415655878N01352301EA0173401858000016000000
B1326435655887N01352354EA0173501858000016000000
B1326455655894N01352409EA0173501857000016000000
B1326475655895N01352466EA0173401855000020000000
B1326495655892N01352524EA0173301852000020000000
B1326515655888N01352584EA0173001848000020000000
B1326535655882N01352643EA0172601844000020000000
B1326555655874N01352704EA0172201836000020000000
B1326575655864N01352766EA0171501826000020000000
B1326595655852N01352831EA0170601820000020000000
B1327015655840N01352897EA0170001817000020000000
B1327035655829N01352961EA0169701817000020000000
B1327055655816N01353024EA0169701817000020000000
B1327075655803N01353085EA0169601814000020000000
B1327095655791N01353146EA0169201810000020000000
B1327115655778N01353207EA0168801807000020000000
B1327135655764N01353268EA0168601807000020000000
B1327155655749N01353326EA0168601810000020000000
B1327175655734N01353384EA0168801809000020000000
B1327195655718N01353441EA0168601805000020000000
B1327215655700N01353499EA0168301801000020000000
B1327235655680N01353557EA0168201800000020000000
B1327255655660N01353611EA0168001807000020000000
B1327275655638N01353661EA0168701814000020000000
B1327295655618N01353709EA0169101815000020000000
B1327315655597N01353757EA0169401823000020000000
B1327335655579N01353801EA0169901830000016000000
B1327355655560N01353844EA0170601833000016000000
B1327375655543N01353887EA0171201837000012000000
B1327395655536N01353936EA0171601836000012000000
B1327415655544N01353982EA0171501837000012000000
B1327435655561N01354013EA0171601843000012000000
B1327455655584N01354022EA0172001849000012000000
B1327475655608N01354008EA0172601852000012000000
B1327495655625N01353974EA0172901853000012000000
B1327515655632N01353924EA0172901850000008000000
B1327535655630N01353869EA0172701847000012000000
B1327555655614N01353815EA0172401848000012000000
B1327575655589N01353776EA0172601852000008000000
B1327595655560N01353754EA0172901853000008000000
B1328015655527N01353752EA0173001852000012000000
B1328035655496N01353767EA0172801849000008000000
B1328055655469N01353800EA0172701849000012000000
B1328075655452N01353846EA0172801851000008000000
B1328095655446N01353897EA0173001857000008000000
B1328115655453N01353943EA0173601863000012000000
B1328135655466N01353982EA0174001857000012000000
B1328155655485N01354017EA0173901852000012000000
B1328175655510N01354045EA0173301852000012000000
B1328195655535N01354071EA0173301855000016000000
B1328215655560N01354093EA0173401854000016000000
B1328235655586N01354114EA0173401850000016000000
B1328255655613N01354136EA0172901846000016000000
B1328275655640N01354157EA0172601845000016000000
B1328295655667N01354181EA0172501842000016000000
B1328315655695N01354205EA0172201836000020000000
B1328335655722N01354230EA0171601832000020000000
B1328355655751N01354253EA0171201831000020000000
B1328375655779N01354278EA0171101833000020000000
B1328395655807N01354303EA0171101833000020000000
B1328415655834N01354327EA0171101834000020000000
B1328435655861N01354351EA0171101834000020000000
B1328455655888N01354374EA0171101834000020000000
B1328475655914N01354398EA0171101832000020000000
B1328495655942N01354420EA0171101831000020000000
B1328515655969N01354442EA0170801829000020000000
B1328535655998N01354465EA0170601826000020000000
B1328555656026N01354487EA0170501826000020000000
B1328575656054N01354512EA0170401825000020000000
B1328595656081N01354535EA0170301824000020000000
B1329015656108N01354558EA0170101821000020000000
B1329035656135N01354580EA0170001821000020000000
B1329055656163N01354604EA0169801817000016000000
B1329075656191N01354628EA0169401811000016000000
B1329095656220N01354652EA0168801803000016000000
B1329115656250N01354677EA0168001796000016000000
B1329135656281N01354704EA0167401791000016000000
B1329155656312N01354729EA0167001790000020000000
B1329175656343N01354750EA0166801790000016000000
B1329195656373N01354772EA0166801790000016000000
B1329215656403N01354793EA0166701788000020000000
B1329235656434N01354814EA0166501783000020000000
B1329255656466N01354833EA0166101779000016000000
B1329275656497N01354850EA0165801779000020000000
B1329295656529N01354864EA0165701779000020000000
B1329315656562N01354875EA0165701779000016000000
B1329335656594N01354883EA0165701777000020000000
B1329355656627N01354890EA0165501776000020000000
B1329375656659N01354898EA0165301775000016000000
B1329395656692N01354906EA0165201775000020000000
B1329415656724N01354912EA0165201774000020000000
B1329435656757N01354919EA0165101771000020000000
B1329455656789N01354925EA0164901769000020000000
B1329475656823N01354931EA0164701767000020000000
B1329495656856N01354935EA0164501766000020000000
B1329515656888N01354938EA0164401765000016000000
B1329535656922N01354938EA0164201762000020000000
B1329555656956N01354938EA0163901759000020000000
B1329575656990N01354936EA0163701758000020000000
B1329595657023N01354929EA0163501757000020000000
B1330015657057N01354920EA0163301754000020000000
B1330035657091N01354912EA0162901750000016000000
B1330055657126N01354902EA0162701746000016000000
B1330075657161N01354890EA0162401743000020000000
B1330095657195N01354879EA0162101740000020000000
B1330115657230N01354867EA0161601736000020000000
B1330135657264N01354855EA0161301733000020000000
B1330155657299N01354844EA0160901728000020000000
B1330175657333N01354831EA0160601724000020000000
B1330195657368N01354819EA0160001719000020000000
B1330215657403N01354807EA0159501714000020000000
B1330235657438N01354795EA0159101710000020000000
B1330255657472N01354785EA0158701706000020000000
B1330275657507N01354775EA0158301702000020000000
B1330295657541N01354764EA0157801699000020000000
B1330315657576N01354755EA0157601696000020000000
B1330335657610N01354745EA0157301693000020000000
B1330355657643N01354736EA0157001690000016000000
B1330375657677N01354725EA0156801687000020000000
B1330395657711N01354716EA0156201682000020000000
B1330415657745N01354706EA0156001679000020000000
B1330435657779N01354695EA0155601676000020000000
B1330455657812N01354685EA0155301673000020000000
B1330475657845N01354676EA0155101671000020000000
B1330495657879N01354667EA0154801666000020000000
B1330515657913N01354658EA0154301659000020000000
B1330535657948N01354647EA0153701652000020000000
B1330555657984N01354637EA0153001646000020000000
B1330575658020N01354625EA0152401642000020000000
B1330595658057N01354613EA0151901638000020000000
B1331015658093N01354600EA0151501633000016000000
B1331035658131N01354587EA0151001628000016000000
B1331055658167N01354573EA0150701625000020000000
B1331075658204N01354561EA0150501627000020000000
B1331095658239N01354548EA0150501628000020000000
B1331115658273N01354535EA0150501629000020000000
B1331135658306N01354522EA0150601626000020000000
B1331155658339N01354509EA0150401623000020000000
B1331175658373N01354499EA0150201620000020000000
B1331195658407N01354487EA0149901616000020000000
B1331215658442N01354477EA0149401609000020000000
B1331235658477N01354465EA0148801603000020000000
B1331255658512N01354454EA0148201599000020000000
B1331275658547N01354441EA0147801596000020000000
B1331295658582N01354429EA0147501595000020000000
B1331315658617N01354418EA0147301593000020000000
B1331335658652N01354407EA0147101590000020000000
B1331355658687N01354394EA0146801588000020000000
B1331375658721N01354381EA0146501584000020000000
B1331395658756N01354366EA0146201581000020000000
B1331415658791N01354351EA0145901579000020000000
B1331435658826N01354337EA0145701576000020000000
B1331455658862N01354324EA0145601574000020000000
B1331475658897N01354311EA0145401572000020000000
B1331495658932N01354299EA0145101570000016000000
B1331515658967N01354286EA0145101566000016000000
B1331535659003N01354274EA0144701563000016000000
B1331555659038N01354264EA0144401558000020000000
B1331575659075N01354252EA0144001558000016000000
B1331595659111N01354240EA0143701554000016000000
B1332015659149N01354229EA0143301549000016000000
B1332035659185N01354216EA0143101546000016000000
B1332055659223N01354203EA0142801544000016000000
B1332075659259N01354192EA0142501542000020000000
B1332095659296N01354184EA0142301541000020000000
B1332115659331N01354178EA0142201543000020000000
B1332135659366N01354170EA0142301542000020000000
B1332155659401N01354161EA0142201540000020000000
B1332175659436N01354152EA0142101541000020000000
B1332195659471N01354142EA0142201547000020000000
B1332215659505N01354132EA0142601548000020000000
B1332235659539N01354122EA0142801544000020000000
B1332255659574N01354110EA0142501542000020000000
B1332275659610N01354099EA0142201540000020000000
B1332295659647N01354088EA0142001541000020000000
B1332315659682N01354078EA0142001544000016000000
B1332335659717N01354067EA0142301540000016000000
B1332355659752N01354057EA0142101535000020000000
B1332375659788N01354048EA0141701532000020000000
B1332395659826N01354040EA0141301532000020000000
B1332415659860N01354032EA0141301544000024000000
B1332435659890N01354026EA0142301555000020000000
B1332455659920N01354019EA0143201553000020000000
B1332475659951N01354013EA0143301548000020000000
B1332495659983N01354006EA0142901540000020000000
B1332515700020N01354000EA0142301536000024000000
B1332535700056N01353992EA0141801535000020000000
B1332555700093N01353982EA0141601536000020000000
B1332575700128N01353971EA0141601538000020000000
B1332595700163N01353960EA0141801538000020000000
B1333015700197N01353948EA0141801536000020000000
B1333035700230N01353937EA0141601532000020000000
B1333055700264N01353926EA0141401532000020000000
B1333075700297N01353913EA0141201531000020000000
B1333095700331N01353900EA0141101529000020000000
B1333115700363N01353885EA0140901527000016000000
B1333135700396N01353872EA0140701526000016000000
B1333155700428N01353858EA0140501524000016000000
B1333175700461N01353844EA0140301521000020000000
B1333195700493N01353830EA0140201516000020000000
B1333215700527N01353815EA0139701507000020000000
B1333235700563N01353801EA0138901500000020000000
B1333255700600N01353788EA0138201496000020000000
B1333275700636N01353774EA0137901494000020000000
B1333295700672N01353758EA0137601492000020000000
B1333315700709N01353741EA0137401491000020000000
B1333335700744N01353726EA0137301489000020000000
B1333355700779N01353711EA0137201486000020000000
B1333375700814N01353700EA0136801481000020000000
B1333395700851N01353688EA0136401475000020000000
B1333415700887N01353676EA0135801472000020000000
B1333435700925N01353664EA0135201467000020000000
B1333455700961N01353653EA0134901465000020000000
B1333475700997N01353642EA0134701461000020000000
B1333495701034N01353632EA0134101457000024000000
B1333515701070N01353623EA0134001456000024000000
B1333535701105N01353612EA0133801456000024000000
B1333555701139N01353601EA0133701453000024000000
B1333575701174N01353589EA0133701452000024000000
B1333595701209N01353577EA0133401450000020000000
B1334015701244N01353566EA0133201448000020000000
B1334035701280N01353553EA0133001447000020000000
B1334055701315N01353540EA0132801444000020000000
B1334075701350N01353527EA0132801443000020000000
B1334095701384N01353515EA0132501439000020000000
B1334115701417N01353502EA0132101433000020000000
B1334135701452N01353490EA0131601430000020000000
B1334155701486N01353479EA0131301427000020000000
B1334175701521N01353466EA0130901421000020000000
B1334195701556N01353454EA0130501417000020000000
B1334215701593N01353443EA0130001413000020000000
B1334235701628N01353434EA0129801418000024000000
B1334255701662N01353427EA0129901424000024000000
B1334275701692N01353421EA0130701441000024000000
B1334295701719N01353415EA0132001447000020000000
B1334315701746N01353410EA0132701440000020000000
B1334335701776N01353404EA0132401436000020000000
B1334355701807N01353399EA0131901434000020000000
B1334375701840N01353394EA0131701433000020000000
B1334395701872N01353388EA0131501427000020000000
B1334415701906N01353381EA0131101423000020000000
B1334435701941N01353373EA0130701419000020000000
B1334455701978N01353367EA0130301415000020000000
B1334475702013N01353362EA0129901412000020000000
B1334495702049N01353355EA0129501407000020000000
B1334515702087N01353349EA0129101403000020000000
B1334535702123N01353342EA0128601399000020000000
B1334555702161N01353336EA0128201395000020000000
B1334575702199N01353329EA0127901392000020000000
B1334595702235N01353324EA0127501388000020000000
B1335015702273N01353319EA0127301389000020000000
B1335035702310N01353316EA0127301399000024000000
B1335055702339N01353310EA0128701433000024000000
B1335075702362N01353303EA0131001443000024000000
B1335095702387N01353297EA0132201428000024000000
B1335115702417N01353290EA0131201414000020000000
B1335135702450N01353285EA0129801402000024000000
B1335155702485N01353278EA0128701396000024000000
B1335175702520N01353271EA0128001393000020000000
B1335195702555N01353263EA0127601384000020000000
B1335215702591N01353256EA0127101378000020000000
B1335235702628N01353248EA0126501374000024000000
B1335255702664N01353239EA0126101371000024000000
B1335275702700N01353229EA0125801371000020000000
B1335295702737N01353220EA0125701374000020000000
B1335315702773N01353211EA0125901381000020000000
B1335335702806N01353202EA0126601391000020000000
B1335355702837N01353194EA0127401397000020000000
B1335375702868N01353185EA0127901398000020000000
B1335395702897N01353177EA0128301408000020000000
B1335415702924N01353169EA0129001413000020000000
B1335435702951N01353161EA0129501410000020000000
B1335455702980N01353154EA0129301406000020000000
B1335475703010N01353143EA0129201414000020000000
B1335495703036N01353130EA0129701424000020000000
B1335515703062N01353118EA0130501426000020000000
B1335535703089N01353105EA0130801426000016000000
B1335555703115N01353092EA0130901424000016000000
B1335575703145N01353078EA0130701420000020000000
B1335595703175N01353065EA0130301417000020000000
B1336015703206N01353052EA0130001415000020000000
B1336035703237N01353038EA0129801412000020000000
B1336055703269N01353018EA0129501409000020000000
B1336075703300N01352994EA0129201405000020000000
B1336095703332N01352960EA0128801397000020000000
B1336115703363N01352918EA0128201392000020000000
B1336135703392N01352869EA0127701394000016000000
B1336155703418N01352813EA0127801397000020000000
B1336175703443N01352753EA0128101402000020000000
B1336195703462N01352691EA0128501402000020000000
B1336215703482N01352624EA0128701398000020000000
B1336235703499N01352554EA0128301397000020000000
B1336255703516N01352483EA0128101398000020000000
B1336275703531N01352411EA0128301404000020000000
B1336295703545N01352340EA0128901413000020000000
B1336315703557N01352272EA0129901423000020000000
B1336335703568N01352208EA0130901436000020000000
B1336355703578N01352149EA0132101448000020000000
B1336375703591N01352094EA0133201453000020000000
B1336395703614N01352056EA0133901460000016000000
B1336415703640N01352047EA0134701469000016000000
B1336435703662N01352068EA0135601479000016000000
B1336455703673N01352104EA0136701489000016000000
B1336475703670N01352143EA0137501494000016000000
B1336495703656N01352177EA0138001496000016000000
B1336515703629N01352193EA0138101498000016000000
B1336535703597N01352186EA0138201499000016000000
B1336555703568N01352153EA0138201501000016000000
B1336575703545N01352099EA0138501510000016000000
B1336595703534N01352038EA0139201519000016000000
B1337015703532N01351974EA0140101521000016000000
B1337035703542N01351911EA0140501525000016000000
B1337055703557N01351855EA0141001534000016000000
B1337075703579N01351809EA0142001549000020000000
B1337095703605N01351781EA0143201556000020000000
B1337115703630N01351782EA0144101563000016000000
B1337135703646N01351812EA0144801570000012000000
B1337155703644N01351851EA0145401575000016000000
B1337175703625N01351880EA0145801583000016000000
B1337195703596N01351886EA0146601591000012000000
B1337215703566N01351868EA0147501599000016000000
B1337235703543N01351825EA0148201605000016000000
B1337255703532N01351765EA0148801613000016000000
B1337275703538N01351705EA0149701623000016000000
B1337295703555N01351662EA0150901638000016000000
B1337315703577N01351642EA0152101645000016000000
B1337335703600N01351644EA0152601643000016000000
B1337355703616N01351673EA0152501642000016000000
B1337375703618N01351714EA0152601648000016000000
B1337395703607N01351753EA0153101654000016000000
B1337415703584N01351783EA0153601661000016000000
B1337435703555N01351792EA0154501671000016000000
B1337455703523N01351777EA0155501679000016000000
B1337475703499N01351737EA0155801686000012000000
B1337495703484N01351677EA0156401690000012000000
B1337515703484N01351612EA0157001696000016000000
B1337535703499N01351558EA0157801708000016000000
B1337555703521N01351521EA0158701718000016000000
B1337575703547N01351500EA0159501719000016000000
B1337595703573N01351503EA0159901722000012000000
B1338015703595N01351522EA0160101724000012000000
B1338035703614N01351549EA0160301725000016000000
B1338055703631N01351582EA0160601728000016000000
B1338075703640N01351625EA0160901731000016000000
B1338095703629N01351668EA0161301737000016000000
B1338115703605N01351692EA0161701743000016000000
B1338135703575N01351694EA0162301746000016000000
B1338155703547N01351673EA0162701748000016000000
B1338175703521N01351630EA0163001752000016000000
B1338195703499N01351578EA0163401762000016000000
B1338215703482N01351522EA0163801770000016000000
B1338235703473N01351461EA0164701777000016000000
B1338255703470N01351399EA0165501779000016000000
B1338275703473N01351335EA0165801780000016000000
B1338295703477N01351271EA0165901785000016000000
B1338315703483N01351210EA0166201787000016000000
B1338335703491N01351150EA0166401785000016000000
B1338355703500N01351088EA0166201775000020000000
B1338375703510N01351023EA0165201755000020000000
B1338395703526N01350953EA0163401740000020000000
B1338415703545N01350880EA0161901730000024000000
B1338435703568N01350808EA0161101727000024000000
B1338455703590N01350737EA0160601723000024000000
B1338475703613N01350667EA0160101720000028000000
B1338495703636N01350600EA0160401737000028000000
B1338515703656N01350542EA0161901758000024000000
B1338535703673N01350491EA0163801777000024000000
B1338555703687N01350444EA0165301784000020000000
B1338575703701N01350396EA0166001788000020000000
B1338595703714N01350352EA0166801801000016000000
B1339015703725N01350308EA0167701805000016000000
B1339035703738N01350262EA0168201808000016000000
B1339055703750N01350217EA0168701817000016000000
B1339075703763N01350173EA0169301819000016000000
B1339095703776N01350126EA0169301813000016000000
B1339115703792N01350073EA0168801809000016000000
B1339135703811N01350017EA0168301803000020000000
B1339155703830N01349956EA0167801793000020000000
B1339175703854N01349892EA0166801786000020000000
B1339195703877N01349826EA0166501784000020000000
B1339215703900N01349758EA0166201785000024000000
B1339235703924N01349692EA0166201786000024000000
B1339255703946N01349628EA0166501800000024000000
B1339275703965N01349568EA0167301802000024000000
B1339295703985N01349510EA0167801794000024000000
B1339315704006N01349449EA0167301781000020000000
B1339335704028N01349385EA0165901764000020000000
B1339355704054N01349315EA0164501755000024000000
B1339375704078N01349246EA0163501752000024000000
B1339395704106N01349177EA0163101754000024000000
B1339415704129N01349114EA0163501771000024000000
B1339435704150N01349057EA0164701786000024000000
B1339455704168N01349003EA0166001791000024000000
B1339475704186N01348949EA0166601786000020000000
B1339495704206N01348895EA0166001772000020000000
B1339515704228N01348835EA0164901760000020000000
B1339535704251N01348774EA0163901755000020000000
B1339555704275N01348711EA0163301753000020000000
B1339575704298N01348649EA0163001752000024000000
B1339595704320N01348592EA0163301765000024000000
B1340015704341N01348540EA0164401775000020000000
B1340035704362N01348489EA0165201777000024000000
B1340055704383N01348437EA0165501779000020000000
B1340075704402N01348388EA0166001792000020000000
B1340095704420N01348341EA0167001800000020000000
B1340115704437N01348295EA0167701805000020000000
B1340135704454N01348251EA0168501813000020000000
B1340155704474N01348212EA0168801816000020000000
B1340175704493N01348173EA0169301821000020000000
B1340195704513N01348132EA0169601818000020000000
B1340215704535N01348090EA0169501813000020000000
B1340235704558N01348047EA0169101815000020000000
B1340255704582N01348004EA0169201823000020000000
B1340275704604N01347965EA0169701827000020000000
B1340295704627N01347929EA0170501839000020000000
B1340315704645N01347895EA0171401852000016000000
B1340335704663N01347863EA0172501855000016000000
B1340355704682N01347829EA0173101855000016000000
B1340375704702N01347792EA0173201856000016000000
B1340395704727N01347765EA0173501861000012000000
B1340415704754N01347755EA0173901868000016000000
B1340435704779N01347765EA0174601877000016000000
B1340455704799N01347795EA0175401882000016000000
B1340475704808N01347839EA0175901885000016000000
B1340495704804N01347886EA0176101887000016000000
B1340515704787N01347926EA0176501894000020000000
B1340535704760N01347947EA0176901899000020000000
B1340555704728N01347946EA0177301907000016000000
B1340575704699N01347924EA0178101918000020000000
B1340595704674N01347886EA0179101924000020000000
B1341015704654N01347835EA0179701925000020000000
B1341035704640N01347775EA0180101933000020000000
B1341055704634N01347714EA0180601939000020000000
B1341075704630N01347652EA0181201937000020000000
B1341095704628N01347586EA0181301933000020000000
B1341115704628N01347518EA0181001933000020000000
B1341135704628N01347449EA0181001934000020000000
B1341155704624N01347382EA0181001932000020000000
B1341175704621N01347310EA0180701915000020000000
B1341195704615N01347231EA0179501904000020000000
B1341215704610N01347146EA0178301895000024000000
B1341235704605N01347059EA0177301888000024000000
B1341255704597N01346972EA0176801891000024000000
B1341275704587N01346888EA0176901894000024000000
B1341295704578N01346804EA0177001891000024000000
B1341315704570N01346720EA0176801888000024000000
B1341335704562N01346634EA0176601885000024000000
B1341355704554N01346550EA0176401885000024000000
B1341375704546N01346465EA0176301882000024000000
B1341395704539N01346381EA0176101881000028000000
B1341415704530N01346297EA0175801877000028000000
B1341435704522N01346214EA0175401871000028000000
B1341455704514N01346128EA0174901865000028000000
B1341475704506N01346043EA0174501864000028000000
B1341495704502N01345958EA0174401859000028000000
B1341515704500N01345872EA0174001853000024000000
B1341535704502N01345788EA0173301850000024000000
B1341555704507N01345706EA0173001849000024000000
B1341575704515N01345625EA0172901848000024000000
B1341595704524N01345547EA0172901849000028000000
B1342015704536N01345472EA0172901855000028000000
B1342035704549N01345406EA0173401868000024000000
B1342055704562N01345346EA0174401873000024000000
B1342075704578N01345287EA0174901871000024000000
B1342095704593N01345230EA0174901868000020000000
B1342115704613N01345173EA0174301856000020000000
B1342135704634N01345109EA0173301848000024000000
B1342155704654N01345042EA0172701846000024000000
B1342175704674N01344973EA0172601855000024000000
B1342195704688N01344914EA0173801881000024000000
B1342215704700N01344862EA0175701894000024000000
B1342235704712N01344810EA0176601888000020000000
B1342255704725N01344750EA0176101874000024000000
B1342275704740N01344680EA0174801859000024000000
B1342295704757N01344603EA0173601856000024000000
B1342315704773N01344524EA0173201852000024000000
B1342335704788N01344444EA0172801849000024000000
B1342355704804N01344364EA0172701854000028000000
B1342375704817N01344290EA0173001861000024000000
B1342395704829N01344216EA0173401859000024000000
B1342415704840N01344141EA0173401855000020000000
B1342435704851N01344067EA0173101851000020000000
B1342455704862N01343991EA0172601847000020000000
B1342475704874N01343916EA0172301843000020000000
B1342495704887N01343842EA0171901838000016000000
B1342515704900N01343765EA0171401835000020000000
B1342535704914N01343690EA0171101829000020000000
B1342555704929N01343612EA0170601825000020000000
B1342575704943N01343535EA0170301831000020000000
B1342595704956N01343462EA0170601833000020000000
B1343015704970N01343391EA0170801830000020000000
B1343035704987N01343320EA0170501824000020000000
B1343055705003N01343250EA0170101822000020000000
B1343075705020N01343179EA0169701819000020000000
B1343095705035N01343107EA0169401816000020000000
B1343115705050N01343037EA0169401818000020000000
B1343135705063N01342969EA0169401817000020000000
B1343155705078N01342900EA0169301810000020000000
B1343175705095N01342832EA0168801802000020000000
B1343195705116N01342764EA0168101799000020000000
B1343215705143N01342709EA0167801800000024000000
B1343235705176N01342665EA0167801802000024000000
B1343255705207N01342626EA0167901806000024000000
B1343275705238N01342592EA0168301810000024000000
B1343295705271N01342564EA0168801812000024000000
B1343315705303N01342539EA0168801809000024000000
B1343335705338N01342517EA0168701807000020000000
B1343355705373N01342495EA0168501806000020000000
B1343375705408N01342474EA0168601812000020000000
B1343395705442N01342455EA0168901816000020000000
B1343415705476N01342434EA0169201813000020000000
B1343435705511N01342414EA0168601802000024000000
B1343455705547N01342393EA0167701794000024000000
B1343475705584N01342370EA0167401792000024000000
B1343495705622N01342345EA0167001795000024000000
B1343515705658N01342322EA0167201803000028000000
B1343535705690N01342300EA0167901813000024000000
B1343555705722N01342276EA0168701812000024000000
B1343575705754N01342250EA0168601802000024000000
B1343595705789N01342224EA0167901795000024000000
B1344015705826N01342196EA0167201792000024000000
B1344035705863N01342167EA0166901788000024000000
B1344055705901N01342139EA0166401784000024000000
B1344075705939N01342111EA0166001778000024000000
B1344095705975N01342083EA0165601777000028000000
B1344115706013N01342054EA0165501776000028000000
B1344135706049N01342026EA0165201772000024000000
B1344155706086N01341997EA0164701765000024000000
B1344175706125N01341970EA0163901754000024000000
B1344195706165N01341940EA0162901743000024000000
B1344215706207N01341912EA0162501743000024000000
B1344235706249N01341888EA0162101744000028000000
B1344255706290N01341868EA0162201749000028000000
B1344275706329N01341850EA0162601751000028000000
B1344295706368N01341831EA0162901749000028000000
B1344315706408N01341811EA0162701748000028000000
B1344335706448N01341792EA0162501750000028000000
B1344355706487N01341775EA0162801762000028000000
B1344375706524N01341758EA0163801775000024000000
B1344395706559N01341738EA0164901779000024000000
B1344415706593N01341716EA0165701790000028000000
B1344435706623N01341691EA0166501796000024000000
B1344455706654N01341664EA0166901785000024000000
B1344475706688N01341632EA0166001765000024000000
B1344495706725N01341589EA0164201752000024000000
B1344515706764N01341537EA0163201751000028000000
B1344535706799N01341481EA0163101766000028000000
B1344555706823N01341433EA0165001803000028000000
B1344575706844N01341389EA0167501815000024000000
B1344595706863N01341344EA0168601807000024000000
B1345015706885N01341295EA0167801784000020000000
B1345035706911N01341239EA0165801762000024000000
B1345055706941N01341177EA0163601742000024000000
B1345075706974N01341110EA0162001733000024000000
B1345095707006N01341045EA0161101731000028000000
B1345115707037N01340982EA0161401743000028000000
B1345135707065N01340922EA0162101746000028000000
B1345155707093N01340862EA0162401746000028000000
B1345175707120N01340802EA0162301742000028000000
B1345195707149N01340744EA0161801734000028000000
B1345215707179N01340684EA0161301725000028000000
B1345235707208N01340623EA0160501719000028000000
B1345255707236N01340559EA0159901715000028000000
B1345275707265N01340494EA0159301707000028000000
B1345295707293N01340428EA0158801701000028000000
B1345315707322N01340359EA0158201697000028000000
B1345335707349N01340289EA0157701693000028000000
B1345355707378N01340220EA0157301691000028000000
B1345375707408N01340152EA0157001690000028000000
B1345395707438N01340087EA0156901692000028000000
B1345415707466N01340022EA0157101697000028000000
B1345435707494N01339961EA0157501704000028000000
B1345455707517N01339908EA0158501731000028000000
B1345475707536N01339860EA0160301740000028000000
B1345495707556N01339813EA0161401727000024000000
B1345515707578N01339758EA0160601710000024000000
B1345535707604N01339699EA0159201702000024000000
B1345555707630N01339640EA0159001720000028000000
B1345575707651N01339595EA0159901749000024000000
B1345595707670N01339550EA0162101757000024000000
B1346015707690N01339506EA0163201750000024000000
B1346035707712N01339457EA0162901741000024000000
B1346055707737N01339405EA0162401748000024000000
B1346075707760N01339351EA0162501746000024000000
B1346095707783N01339297EA0162501742000024000000
B1346115707808N01339241EA0162001729000024000000
B1346135707835N01339180EA0161101721000024000000
B1346155707867N01339120EA0160101722000024000000
B1346175707893N01339072EA0160501750000028000000
B1346195707915N01339028EA0162301764000024000000
B1346215707936N01338985EA0163701752000024000000
B1346235707960N01338937EA0163301736000024000000
B1346255707988N01338882EA0161801725000024000000
B1346275708016N01338824EA0160101715000028000000
B1346295708046N01338763EA0159801710000028000000
B1346315708077N01338701EA0159101707000028000000
B1346335708108N01338640EA0158901708000028000000
B1346355708140N01338581EA0158901709000028000000
B1346375708170N01338521EA0159001709000028000000
B1346395708198N01338462EA0159101726000028000000
B1346415708220N01338409EA0160301743000028000000
B1346435708242N01338358EA0161701736000024000000
B1346455708267N01338305EA0161501718000024000000
B1346475708296N01338246EA0160001707000024000000
B1346495708326N01338187EA0158901701000024000000
B1346515708355N01338126EA0158301698000028000000
B1346535708385N01338064EA0158001693000028000000
B1346555708417N01338002EA0157501689000028000000
B1346575708446N01337940EA0157101685000028000000
B1346595708478N01337877EA0156601681000028000000
B1347015708508N01337815EA0156201677000028000000
B1347035708540N01337754EA0155701674000028000000
B1347055708573N01337693EA0155501671000028000000
B1347075708604N01337632EA0155201671000028000000
B1347095708634N01337573EA0155401679000028000000
B1347115708662N01337515EA0155801683000028000000
B1347135708690N01337457EA0156301684000028000000
B1347155708717N01337400EA0156401684000024000000
B1347175708744N01337343EA0156501685000024000000
B1347195708771N01337287EA0156601685000028000000
B1347215708797N01337231EA0156601684000024000000
B1347235708825N01337174EA0156401682000028000000
B1347255708851N01337117EA0156201678000024000000
B1347275708878N01337058EA0155701671000028000000
B1347295708905N01337000EA0155301667000028000000
B1347315708934N01336939EA0154801659000028000000
B1347335708963N01336878EA0154101656000028000000
B1347355708991N01336816EA0153801652000028000000
B1347375709021N01336754EA0153401646000028000000
B1347395709051N01336694EA0153101654000028000000
B1347415709080N01336638EA0153501658000028000000
B1347435709108N01336581EA0153901654000028000000
B1347455709137N01336523EA0153501643000028000000
B1347475709167N01336462EA0152701635000028000000
B1347495709199N01336399EA0151901631000028000000
B1347515709230N01336334EA0151501630000028000000
B1347535709259N01336276EA0151601647000028000000
B1347555709286N01336221EA0152401653000028000000
B1347575709312N01336165EA0153301653000024000000
B1347595709338N01336111EA0153301651000024000000
B1348015709366N01336053EA0153301661000024000000
B1348035709390N01336001EA0154001667000024000000
B1348055709415N01335948EA0154601660000020000000
B1348075709442N01335892EA0154101646000024000000
B1348095709472N01335832EA0152901642000024000000
B1348115709502N01335771EA0152501644000024000000
B1348135709532N01335714EA0152501648000024000000
B1348155709562N01335659EA0152801649000024000000
B1348175709593N01335605EA0153001651000024000000
B1348195709622N01335554EA0153301664000028000000
B1348215709649N01335506EA0154201670000024000000
B1348235709676N01335455EA0155001676000024000000
B1348255709700N01335407EA0155901695000024000000
B1348275709720N01335363EA0157301707000020000000
B1348295709736N01335312EA0158501714000020000000
B1348315709739N01335253EA0159301720000020000000
B1348335709727N01335194EA0159901725000020000000
B1348355709705N01335149EA0160501731000020000000
B1348375709675N01335125EA0161101739000016000000
B1348395709646N01335124EA0161701744000016000000
B1348415709622N01335142EA0162301746000016000000
B1348435709609N01335180EA0162601749000016000000
B1348455709609N01335220EA0162801750000012000000
B1348475709622N01335256EA0162901748000012000000
B1348495709645N01335275EA0163001753000012000000
B1348515709671N01335271EA0163601764000016000000
B1348535709696N01335253EA0164401768000016000000
B1348555709720N01335223EA0164701769000016000000
B1348575709741N01335181EA0165001773000016000000
B1348595709761N01335136EA0165401779000016000000
B1349015709776N01335084EA0165901781000016000000
B1349035709782N01335024EA0166201783000016000000
B1349055709774N01334963EA0166201782000016000000
B1349075709756N01334905EA0166001779000020000000
B1349095709737N01334844EA0165901780000020000000
B1349115709723N01334779EA0165901786000020000000
B1349135709710N01334716EA0166401791000020000000
B1349155709700N01334651EA0166901796000020000000
B1349175709689N01334587EA0167401802000016000000
B1349195709681N01334525EA0167901805000016000000
B1349215709674N01334461EA0168201806000016000000
B1349235709666N01334396EA0168401808000020000000
B1349255709662N01334328EA0168501809000020000000
B1349275709666N01334262EA0168601810000020000000
B1349295709676N01334200EA0168701812000016000000
B1349315709694N01334141EA0168701810000016000000
B1349335709718N01334097EA0168701811000016000000
B1349355709746N01334070EA0168901813000016000000
B1349375709776N01334060EA0169001813000016000000
B1349395709805N01334068EA0168901810000016000000
B1349415709835N01334079EA0168601807000016000000
B1349435709865N01334076EA0168601806000016000000
B1349455709896N01334062EA0168301804000016000000
B1349475709926N01334038EA0168001797000016000000
B1349495709957N01334005EA0167501789000020000000
B1349515709987N01333962EA0166601779000016000000
B1349535710017N01333914EA0165701770000020000000
B1349555710045N01333859EA0164801760000020000000
B1349575710077N01333803EA0163901754000020000000
B1349595710109N01333755EA0163201752000020000000
B1350015710144N01333717EA0163001752000020000000
B1350035710179N01333685EA0163001750000020000000
B1350055710214N01333655EA0162801748000020000000
B1350075710250N01333626EA0162601746000020000000
B1350095710285N01333599EA0162401741000024000000
B1350115710320N01333572EA0161801736000020000000
B1350135710356N01333542EA0161101727000024000000
B1350155710393N01333512EA0160301716000024000000
B1350175710432N01333483EA0159301710000024000000
B1350195710469N01333453EA0159101711000024000000
B1350215710506N01333423EA0159001710000028000000
B1350235710542N01333392EA0159001712000028000000
B1350255710577N01333366EA0159101719000028000000
B1350275710610N01333342EA0159501719000024000000
B1350295710643N01333318EA0159701718000024000000
B1350315710677N01333296EA0159701719000024000000
B1350335710712N01333278EA0159701721000024000000
B1350355710746N01333267EA0160001728000020000000
B1350375710779N01333267EA0160601739000020000000
B1350395710809N01333275EA0161401742000020000000
B1350415710838N01333291EA0161801738000020000000
B1350435710866N01333321EA0161401732000020000000
B1350455710884N01333371EA0161101730000020000000
B1350475710888N01333433EA0160901730000020000000
B1350495710881N01333496EA0160801729000020000000
B1350515710866N01333557EA0160701727000020000000
B1350535710841N01333611EA0160601727000020000000
B1350555710810N01333655EA0160501727000020000000
B1350575710775N01333689EA0160601733000020000000
B1350595710740N01333720EA0161101737000020000000
B1351015710705N01333747EA0161501734000020000000
B1351035710668N01333771EA0160901722000020000000
B1351055710629N01333794EA0159801708000020000000
B1351075710586N01333817EA0158401695000020000000
B1351095710542N01333837EA0157501691000024000000
B1351115710498N01333856EA0157401693000024000000
B1351135710455N01333873EA0157501698000024000000
B1351155710415N01333889EA0157901700000024000000
B1351175710373N01333906EA0158101697000024000000
B1351195710333N01333924EA0157701694000024000000
B1351215710292N01333943EA0157501694000024000000
B1351235710253N01333963EA0157701696000024000000
B1351255710216N01333984EA0157701694000024000000
B1351275710178N01334008EA0157501689000020000000
B1351295710140N01334036EA0157101685000024000000
B1351315710101N01334064EA0156901684000024000000
B1351335710064N01334092EA0156701680000024000000
B1351355710025N01334119EA0156301679000020000000
B1351375709986N01334148EA0156201678000020000000
B1351395709947N01334179EA0156101677000020000000
B1351415709910N01334211EA0156001676000020000000
B1351435709873N01334246EA0155901674000020000000
B1351455709836N01334280EA0155701671000024000000
B1351475709798N01334314EA0155601672000024000000
B1351495709761N01334344EA0155701677000024000000
B1351515709724N01334372EA0155901679000020000000
B1351535709688N01334402EA0156201678000020000000
B1351555709653N01334435EA0156201677000020000000
B1351575709618N01334469EA0155901676000020000000
B1351595709584N01334505EA0155801672000020000000
B1352015709550N01334545EA0155601669000020000000
B1352035709520N01334591EA0155401668000020000000
B1352055709493N01334642EA0155201668000020000000
B1352075709470N01334697EA0155201670000020000000
B1352095709454N01334757EA0155501679000020000000
B1352115709446N01334817EA0156201687000020000000
B1352135709447N01334873EA0157101694000020000000
B1352155709457N01334925EA0157701695000020000000
B1352175709475N01334968EA0157901698000020000000
B1352195709498N01335002EA0158201701000020000000
B1352215709523N01335029EA0158401702000020000000
B1352235709550N01335054EA0158601702000020000000
B1352255709577N01335081EA0158501699000020000000
B1352275709606N01335111EA0158201697000020000000
B1352295709635N01335143EA0158001696000020000000
B1352315709663N01335177EA0157901693000020000000
B1352335709692N01335215EA0157701691000020000000
B1352355709720N01335256EA0157401690000024000000
B1352375709749N01335299EA0157401692000024000000
B1352395709778N01335345EA0157501691000024000000
B1352415709804N01335392EA0157501690000024000000
B1352435709831N01335440EA0157501695000028000000
B1352455709856N01335488EA0157801699000024000000
B1352475709879N01335537EA0158101698000024000000
B1352495709902N01335588EA0158201699000024000000
B1352515709925N01335636EA0158501710000024000000
B1352535709944N01335678EA0159501721000024000000
B1352555709962N01335721EA0160301718000020000000
B1352575709982N01335766EA0160101714000020000000
B1352595710001N01335814EA0159801711000020000000
B1353015710021N01335864EA0159701714000020000000
B1353035710040N01335912EA0159701716000020000000
B1353055710060N01335960EA0159901715000020000000
B1353075710082N01336004EA0159901713000020000000
B1353095710107N01336046EA0159801709000020000000
B1353115710135N01336083EA0159501704000020000000
B1353135710164N01336120EA0159001698000020000000
B1353155710195N01336155EA0158401695000020000000
B1353175710226N01336185EA0158001694000020000000
B1353195710257N01336216EA0157801693000020000000
B1353215710289N01336246EA0157601689000020000000
B1353235710321N01336276EA0157301687000020000000
B1353255710352N01336307EA0157001685000020000000
B1353275710383N01336338EA0156701682000020000000
B1353295710415N01336368EA0156501683000020000000
B1353315710445N01336397EA0156501681000020000000
B1353335710476N01336425EA0156201677000020000000
B1353355710507N01336455EA0156001674000020000000
B1353375710538N01336485EA0155801671000020000000
B1353395710571N01336516EA0155401668000020000000
B1353415710602N01336547EA0155301667000024000000
B1353435710634N01336580EA0155101666000020000000
B1353455710667N01336608EA0155001665000020000000
B1353475710698N01336638EA0154801664000020000000
B1353495710731N01336667EA0154701662000020000000
B1353515710763N01336698EA0154601661000020000000
B1353535710794N01336728EA0154401660000020000000
B1353555710827N01336759EA0154301660000020000000
B1353575710858N01336789EA0154301662000020000000
B1353595710888N01336818EA0154501663000020000000
B1354015710918N01336846EA0154501661000020000000
B1354035710948N01336876EA0154301658000020000000
B1354055710979N01336905EA0153901655000020000000
B1354075711009N01336933EA0153701653000020000000
B1354095711040N01336959EA0153601651000020000000
B1354115711070N01336987EA0153501649000020000000
B1354135711100N01337015EA0153301645000020000000
B1354155711131N01337045EA0152901641000020000000
B1354175711162N01337075EA0152601637000020000000
B1354195711192N01337104EA0152201634000020000000
B1354215711223N01337132EA0151801632000020000000
B1354235711254N01337161EA0151501630000020000000
B1354255711286N01337188EA0151301628000016000000
B1354275711317N01337216EA0151101626000020000000
B1354295711348N01337244EA0150901624000020000000
B1354315711378N01337271EA0150701621000020000000
B1354335711409N01337297EA0150501620000020000000
B1354355711439N01337323EA0150301620000020000000
B1354375711469N01337349EA0150101618000020000000
B1354395711499N01337377EA0150001617000020000000
B1354415711530N01337401EA0150001616000020000000
B1354435711560N01337427EA0149901614000020000000
B1354455711590N01337452EA0149801613000020000000
B1354475711621N01337478EA0149601611000020000000
B1354495711651N01337504EA0149501607000020000000
B1354515711682N01337529EA0149201606000020000000
B1354535711713N01337554EA0149001605000020000000
B1354555711745N01337578EA0148901601000020000000
B1354575711776N01337603EA0148601597000016000000
B1354595711808N01337629EA0148201594000020000000
B1355015711841N01337656EA0148101596000020000000
B1355035711871N01337685EA0148201600000020000000
B1355055711901N01337713EA0148401598000020000000
B1355075711930N01337742EA0148201595000020000000
B1355095711962N01337768EA0147801592000016000000
B1355115711993N01337794EA0147501589000016000000
B1355135712024N01337817EA0147201585000016000000
B1355155712055N01337842EA0147101582000020000000
B1355175712086N01337868EA0146801580000020000000
B1355195712118N01337897EA0146501577000020000000
B1355215712149N01337927EA0146301574000020000000
B1355235712180N01337957EA0146001573000020000000
B1355255712210N01337988EA0145801573000020000000
B1355275712241N01338019EA0145801573000020000000
B1355295712270N01338049EA0145701573000020000000
B1355315712300N01338080EA0145701573000020000000
B1355335712328N01338111EA0145701570000020000000
B1355355712358N01338144EA0145501566000020000000
B1355375712388N01338176EA0145101563000020000000
B1355395712419N01338207EA0144901558000020000000
B1355415712450N01338240EA0144301551000020000000
B1355435712483N01338278EA0143601543000020000000
B1355455712515N01338318EA0142801534000024000000
B1355475712549N01338361EA0142001528000024000000
B1355495712583N01338402EA0141701529000024000000
B1355515712616N01338441EA0141701529000024000000
B1355535712648N01338478EA0141801531000028000000
B1355555712681N01338509EA0141901533000024000000
B1355575712713N01338540EA0142001532000028000000
B1355595712744N01338571EA0141801529000024000000
B1356015712777N01338603EA0141501526000024000000
B1356035712807N01338633EA0141401528000024000000
B1356055712837N01338662EA0141401529000024000000
B1356075712866N01338691EA0141501529000024000000
B1356095712895N01338717EA0141501529000024000000
B1356115712924N01338742EA0141501528000024000000
B1356135712952N01338765EA0141501529000024000000
B1356155712981N01338786EA0141501527000024000000
B1356175713008N01338808EA0141401524000024000000
B1356195713038N01338828EA0141101520000020000000
B1356215713068N01338846EA0140501515000020000000
B1356235713098N01338864EA0140301511000020000000
B1356255713129N01338882EA0139901510000020000000
B1356275713160N01338902EA0139701510000020000000
B1356295713191N01338921EA0139701510000020000000
B1356315713221N01338941EA0139701510000020000000
B1356335713251N01338963EA0139701509000020000000
B1356355713281N01338985EA0139701509000020000000
B1356385713324N01339020EA0139701508000020000000
B1356405713353N01339045EA0139601510000020000000
B1356425713379N01339068EA0139701509000020000000
B1356445713406N01339094EA0139601508000020000000
B1356465713432N01339119EA0139601509000020000000
B1356485713458N01339143EA0139601509000020000000
B1356505713483N01339169EA0139501509000020000000
B1356525713509N01339194EA0139501508000020000000
B1356545713533N01339219EA0139501508000020000000
B1356565713558N01339245EA0139501507000020000000
B1356585713584N01339270EA0139301504000020000000
B1357005713610N01339294EA0139201502000020000000
B1357025713636N01339319EA0139001504000020000000
B1357045713661N01339344EA0138901502000020000000
B1357065713688N01339368EA0138901501000020000000
B1357085713714N01339392EA0138701501000020000000
B1357105713740N01339416EA0138701498000020000000
B1357125713766N01339440EA0138501492000020000000
B1357145713793N01339466EA0138101486000020000000
B1357165713822N01339494EA0137101478000020000000
B1357185713852N01339523EA0136501472000020000000
B1357205713882N01339552EA0136201468000020000000
B1357225713910N01339582EA0135701467000020000000
B1357245713939N01339611EA0135601467000020000000
B1357265713966N01339643EA0135601465000020000000
B1357285713994N01339674EA0135501465000020000000
B1357305714021N01339705EA0135201462000020000000
B1357325714047N01339736EA0135101461000020000000
B1357345714073N01339769EA0134901458000020000000
B1357365714099N01339801EA0134701455000020000000
B1357385714124N01339835EA0134401454000020000000
B1357405714148N01339870EA0134201453000020000000
B1357425714172N01339905EA0134101454000020000000
B1357445714196N01339939EA0134301456000020000000
B1357465714220N01339972EA0134601465000020000000
B1357485714242N01340003EA0135301470000020000000
B1357505714263N01340035EA0135701467000020000000
B1357525714283N01340069EA0135601464000020000000
B1357545714306N01340105EA0135401463000020000000
B1357565714328N01340144EA0135401469000020000000
B1357585714348N01340185EA0135901478000020000000
B1358005714361N01340230EA0137001493000020000000
B1358025714364N01340277EA0138801505000020000000
B1358045714352N01340319EA0139301511000020000000
B1358065714326N01340342EA0140101518000020000000
B1358085714296N01340338EA0140901529000020000000
B1358105714269N01340311EA0141801541000016000000
B1358125714248N01340267EA0142801548000016000000
B1358145714238N01340209EA0143501554000016000000
B1358165714238N01340150EA0144101559000012000000
B1358185714250N01340095EA0144601564000012000000
B1358205714272N01340056EA0145201570000012000000
B1358225714296N01340039EA0145801579000012000000
B1358245714321N01340040EA0146601586000012000000
B1358265714342N01340057EA0147301592000012000000
B1358285714358N01340087EA0147901597000012000000
B1358305714365N01340128EA0148301601000012000000
B1358325714363N01340172EA0148701605000012000000
B1358345714350N01340213EA0149201612000016000000
B1358365714326N01340241EA0149501621000012000000
B1358385714296N01340242EA0150401632000012000000
B1358405714267N01340219EA0151401642000016000000
B1358425714246N01340173EA0152501651000016000000
B1358445714237N01340115EA0153501660000012000000
B1358465714238N01340055EA0154201665000012000000
B1358485714252N01340005EA0154801672000012000000
B1358505714273N01339973EA0155401680000012000000
B1358525714298N01339964EA0156201687000012000000
B1358545714319N01339979EA0156901691000012000000
B1358565714334N01340012EA0157201691000012000000
B1358585714337N01340056EA0157301692000012000000
B1359005714325N01340102EA0157401697000016000000
B1359025714303N01340137EA0158001703000016000000
B1359045714277N01340161EA0158901714000016000000
B1359065714247N01340170EA0159801724000016000000
B1359085714217N01340154EA0160801734000016000000
B1359105714192N01340115EA0161701742000016000000
B1359125714177N01340060EA0162101746000016000000
B1359145714177N01339998EA0162601750000016000000
B1359165714194N01339949EA0163101758000016000000
B1359185714220N01339923EA0163701761000016000000
B1359205714246N01339927EA0164201765000016000000
B1359225714268N01339956EA0164501771000016000000
B1359245714278N01339999EA0165001777000016000000
B1359265714276N01340048EA0165701783000016000000
B1359285714257N01340091EA0166401789000016000000
B1359305714230N01340115EA0167001799000016000000
B1359325714198N01340109EA0167901806000016000000
B1359345714170N01340077EA0168701814000012000000
B1359365714155N01340025EA0169301820000012000000
B1359385714151N01339966EA0169701822000012000000
B1359405714163N01339912EA0170101825000012000000
B1359425714186N01339877EA0170601833000012000000
B1359445714212N01339865EA0171201840000012000000
B1359465714237N01339877EA0171601842000016000000
B1359485714254N01339910EA0171901846000016000000
B1359505714259N01339957EA0172301851000016000000
B1359525714250N01340004EA0172801857000016000000
B1359545714231N01340044EA0173501864000016000000
B1359565714207N01340076EA0174301870000016000000
B1359585714178N01340091EA0174701873000016000000
B1400005714150N01340078EA0175001874000016000000
B1400025714127N01340038EA0175201875000012000000
B1400045714117N01339982EA0175301878000012000000
B1400065714117N01339923EA0175501881000012000000
B1400085714125N01339868EA0175801887000012000000
B1400105714144N01339823EA0176401893000012000000
B1400125714170N01339809EA0177201901000012000000
B1400145714192N01339826EA0177801908000012000000
B1400165714204N01339866EA0178301910000012000000
B1400185714202N01339917EA0178701912000012000000
B1400205714183N01339962EA0179001919000012000000
B1400225714156N01339990EA0179801928000012000000
B1400245714126N01339998EA0180701935000016000000
B1400265714098N01339982EA0181201938000012000000
B1400285714074N01339946EA0181301941000012000000
B1400305714060N01339895EA0181601941000012000000
B1400325714056N01339836EA0181601941000012000000
B1400345714061N01339777EA0181801948000012000000
B1400365714075N01339727EA0182301958000012000000
B1400385714098N01339693EA0183201966000016000000
B1400405714124N01339679EA0184001973000016000000
B1400425714148N01339688EA0184601972000016000000
B1400445714168N01339718EA0184701974000016000000
B1400465714176N01339765EA0184701978000016000000
B1400485714172N01339816EA0185201979000012000000
B1400505714157N01339866EA0185401978000016000000
B1400525714133N01339908EA0185601982000016000000
B1400545714103N01339935EA0186101989000016000000
B1400565714070N01339942EA0186501995000016000000
B1400585714042N01339918EA0186901995000016000000
B1401005714020N01339875EA0187001995000016000000
B1401025714000N01339825EA0186901995000012000000
B1401045713986N01339769EA0187101997000012000000
B1401065713979N01339708EA0187302001000012000000
B1401085713988N01339652EA0187502008000012000000
B1401105714009N01339613EA0188102015000012000000
B1401125714035N01339601EA0188702019000016000000
B1401145714057N01339622EA0189502023000016000000
B1401165714066N01339666EA0189802025000016000000
B1401185714060N01339718EA0189902024000012000000
B1401205714036N01339758EA0190002026000012000000
B1401225714001N01339771EA0190302034000012000000
B1401245713966N01339760EA0190902042000016000000
B1401265713935N01339728EA0191402047000016000000
B1401285713910N01339683EA0192002051000012000000
B1401305713892N01339626EA0192602056000012000000
B1401325713887N01339561EA0193102063000012000000
B1401345713895N01339500EA0193702071000012000000
B1401365713913N01339450EA0194502081000012000000
B1401385713938N01339423EA0195602091000012000000
B1401405713964N01339418EA0196502098000012000000
B1401425713988N01339433EA0197102101000012000000
B1401445714007N01339471EA0197202102000012000000
B1401465714017N01339518EA0197302104000012000000
B1401485714020N01339572EA0197502106000016000000
B1401505714014N01339627EA0197602110000016000000
B1401525713999N01339678EA0198602119000012000000
B1401545713977N01339721EA0199302125000012000000
B1401565713949N01339756EA0199802128000012000000
B1401585713919N01339779EA0199902128000016000000
B1402005713884N01339783EA0200002128000016000000
B1402025713852N01339765EA0200002129000016000000
B1402045713821N01339732EA0200102134000016000000
B1402065713793N01339691EA0200502139000016000000
B1402085713774N01339640EA0201102146000016000000
B1402105713765N01339580EA0201802153000016000000
B1402125713769N01339522EA0202502160000016000000
B1402145713784N01339474EA0203202167000016000000
B1402165713808N01339442EA0203802173000012000000
B1402185713834N01339431EA0204402180000012000000
B1402205713858N01339441EA0205102184000012000000
B1402225713879N01339470EA0205502185000012000000
B1402245713897N01339509EA0205402183000012000000
B1402265713913N01339557EA0205402184000012000000
B1402285713930N01339609EA0205702190000012000000
B1402305713939N01339666EA0206302197000012000000
B1402325713940N01339728EA0206702198000016000000
B1402345713934N01339793EA0206602188000020000000
B1402365713916N01339857EA0206202185000020000000
B1402385713890N01339916EA0205602180000020000000
B1402405713862N01339973EA0205202182000020000000
B1402425713840N01340031EA0205202185000020000000
B1402445713818N01340091EA0205402185000020000000
B1402465713799N01340150EA0205502185000020000000
B1402485713779N01340209EA0205602185000020000000
B1402505713760N01340268EA0205502184000020000000
B1402525713740N01340326EA0205402184000020000000
B1402545713722N01340388EA0205402179000020000000
B1402565713702N01340450EA0204702167000020000000
B1402585713684N01340516EA0203702156000020000000
B1403005713667N01340588EA0202702150000020000000
B1403025713650N01340661EA0202202145000020000000
B1403045713632N01340732EA0201702140000020000000
B1403065713615N01340806EA0201102133000024000000
B1403085713597N01340882EA0200402126000024000000
B1403105713578N01340956EA0200102124000024000000
B1403125713558N01341026EA0199902132000028000000
B1403145713541N01341093EA0200402135000028000000
B1403165713523N01341161EA0200802131000024000000
B1403185713505N01341227EA0200502127000024000000
B1403205713487N01341295EA0200002123000024000000
B1403225713466N01341361EA0199702119000024000000
B1403245713446N01341429EA0199202115000024000000
B1403265713424N01341499EA0198602105000024000000
B1403285713402N01341571EA0197902097000028000000
B1403305713380N01341645EA0197102093000028000000
B1403325713360N01341720EA0196802093000028000000
B1403345713342N01341797EA0196802096000028000000
B1403365713329N01341870EA0197402111000024000000
B1403385713319N01341935EA0198602124000024000000
B1403405713307N01341998EA0199502118000024000000
B1403425713295N01342067EA0198902106000024000000
B1403445713285N01342139EA0197902099000020000000
B1403465713276N01342214EA0197202092000020000000
B1403485713267N01342291EA0196602086000024000000
B1403505713256N01342367EA0196102083000020000000
B1403525713245N01342443EA0195802082000020000000
B1403545713232N01342517EA0195702081000020000000
B1403565713220N01342592EA0195602077000020000000
B1403585713208N01342666EA0195302074000020000000
B1404005713194N01342742EA0194902069000020000000
B1404025713180N01342816EA0194202064000020000000
B1404045713167N01342889EA0193802064000020000000
B1404065713152N01342962EA0193702063000020000000
B1404085713139N01343034EA0193602061000020000000
B1404105713126N01343105EA0193502061000020000000
B1404125713112N01343176EA0193402058000020000000
B1404145713099N01343248EA0193302058000020000000
B1404165713086N01343319EA0193102056000020000000
B1404185713073N01343391EA0192902052000020000000
B1404205713059N01343462EA0192802052000020000000
B1404225713045N01343532EA0192802057000020000000
B1404245713029N01343600EA0193002057000020000000
B1404265713013N01343667EA0192902052000020000000
B1404285712999N01343739EA0192802047000020000000
B1404305712986N01343810EA0192402046000020000000
B1404325712973N01343883EA0192102046000020000000
B1404345712957N01343952EA0192102048000020000000
B1404365712941N01344021EA0192202050000020000000
B1404385712925N01344086EA0192502052000020000000
B1404405712908N01344151EA0192602051000020000000
B1404425712892N01344216EA0192602049000020000000
B1404445712877N01344282EA0192402046000020000000
B1404465712860N01344349EA0192102043000020000000
B1404485712844N01344418EA0191802041000020000000
B1404505712829N01344485EA0191702040000020000000
B1404525712813N01344553EA0191502037000020000000
B1404545712796N01344622EA0191102033000020000000
B1404565712779N01344691EA0190702030000020000000
B1404585712764N01344761EA0190502027000020000000
B1405005712748N01344831EA0190202024000020000000
B1405025712731N01344901EA0190102021000020000000
B1405045712714N01344973EA0189802021000020000000
B1405065712697N01345042EA0189702022000020000000
B1405085712681N01345109EA0189702020000016000000
B1405105712664N01345178EA0189702018000016000000
B1405125712648N01345246EA0189402015000016000000
B1405145712632N01345313EA0189102013000016000000
B1405165712616N01345382EA0188802011000016000000
B1405185712600N01345450EA0188702010000016000000
B1405205712584N01345519EA0188602009000020000000
B1405225712567N01345586EA0188502007000020000000
B1405245712552N01345655EA0188302005000020000000
B1405265712536N01345725EA0187902002000020000000
B1405285712522N01345797EA0187701999000020000000
B1405305712505N01345868EA0187501995000020000000
B1405325712489N01345941EA0187301992000020000000
B1405345712475N01346014EA0186801991000020000000
B1405365712461N01346085EA0186701989000020000000
B1405385712445N01346157EA0186701990000020000000
B1405405712431N01346228EA0186701990000020000000
B1405425712415N01346299EA0186701991000020000000
B1405445712401N01346368EA0186801992000020000000
B1405465712388N01346436EA0186901992000016000000
B1405485712375N01346505EA0186801990000020000000
B1405505712363N01346576EA0186601986000020000000
B1405525712352N01346647EA0186301982000016000000
B1405545712341N01346720EA0185901979000016000000
B1405565712331N01346791EA0185701977000016000000
B1405585712320N01346864EA0185601976000016000000
B1406005712310N01346936EA0185501978000016000000
B1406025712301N01347006EA0185601981000020000000
B1406045712292N01347075EA0185701981000020000000
B1406065712283N01347144EA0185701982000020000000
B1406085712275N01347211EA0185901983000020000000
B1406105712267N01347278EA0185901983000016000000
B1406125712259N01347344EA0186001983000016000000
B1406145712253N01347410EA0186001981000016000000
B1406165712246N01347476EA0185801976000016000000
B1406185712240N01347545EA0185201970000016000000
B1406205712233N01347617EA0184901970000016000000
B1406225712227N01347687EA0184801969000016000000
B1406245712222N01347757EA0184701967000016000000
B1406265712216N01347826EA0184401967000016000000
B1406285712211N01347895EA0184401967000016000000
B1406305712207N01347963EA0184401967000020000000
B1406325712203N01348030EA0184401966000020000000
B1406345712200N01348098EA0184301966000016000000
B1406365712197N01348164EA0184301967000016000000
B1406385712193N01348230EA0184301968000016000000
B1406405712190N01348295EA0184401968000016000000
B1406425712188N01348360EA0184401967000016000000
B1406445712187N01348425EA0184301967000016000000
B1406465712185N01348490EA0184301969000016000000
B1406485712185N01348554EA0184401969000016000000
B1406505712185N01348617EA0184401966000016000000
B1406525712184N01348682EA0184201965000016000000
B1406545712183N01348747EA0184001964000016000000
B1406565712183N01348810EA0184001964000012000000
B1406585712181N01348874EA0183901963000012000000
B1407005712181N01348939EA0183701960000016000000
B1407025712181N01349004EA0183401957000016000000
B1407045712181N01349068EA0183301957000016000000
B1407065712183N01349133EA0183201954000016000000
B1407085712183N01349199EA0182801951000016000000
B1407105712183N01349265EA0182501945000016000000
B1407125712185N01349335EA0182001938000016000000
B1407145712187N01349406EA0181201932000016000000
B1407165712189N01349478EA0180601930000016000000
B1407185712193N01349549EA0180401930000016000000
B1407205712196N01349619EA0180401929000016000000
B1407225712198N01349688EA0180401928000016000000
B1407245712202N01349758EA0180301927000020000000
B1407265712205N01349826EA0180201926000020000000
B1407285712206N01349893EA0180101925000020000000
B1407305712209N01349962EA0180001923000020000000
B1407325712210N01350030EA0179801921000020000000
B1407345712213N01350097EA0179501919000020000000
B1407365712215N01350165EA0179301918000020000000
B1407385712219N01350232EA0179201917000020000000
B1407405712224N01350299EA0179201915000020000000
B1407425712229N01350365EA0179001914000020000000
B1407445712236N01350431EA0178801913000020000000
B1407465712241N01350498EA0178701912000020000000
B1407485712248N01350564EA0178701911000016000000
B1407505712255N01350629EA0178601910000016000000
B1407525712262N01350694EA0178401909000020000000
B1407545712268N01350759EA0178401909000020000000
B1407565712276N01350823EA0178401908000020000000
B1407585712283N01350886EA0178301905000020000000
B1408005712291N01350951EA0178001903000020000000
B1408025712298N01351016EA0177801902000020000000
B1408045712307N01351081EA0177701901000020000000
B1408065712315N01351145EA0177701902000020000000
B1408085712324N01351207EA0177801906000020000000
B1408105712332N01351266EA0178101909000016000000
B1408125712340N01351326EA0178301907000016000000
B1408145712348N01351386EA0178201903000016000000
B1408165712356N01351448EA0177901902000016000000
B1408185712363N01351509EA0177701899000016000000
B1408205712372N01351571EA0177501897000020000000
