ACAM3RL
HFDTE150703
HFFXA050
HFPLTPILOT:Peter Cutting           
HFGTYGLIDERTYPE:LS8-t       
HFGIDGLIDERID:SE-USP      
HFDTM100GPSDATUM:
HFRFWFIRMWAREVERSION:F2.6
HFRHWHARDWAREVERSION:300 Series Version 2
HFFTYFRTYPE:CAMBRIDGE AERO INSTRUMENTS, 302+
HFGPS:GARMIN,LVS-25,12,18000
HFPRSPRESSALTSENSOR:INTERSEMA, MS5534-AP, 20000
I033638FXA3941ENL4247REX
LCAMSBVER:5FWVER:F26300
C150703090800150703000102
C0000000N00000000WTAKEOFF     
C5657250N01355580EFeringe flp 
C5636300N01353830EHangsjnSspts
C5718330N01332530EGislaved ka 
C5657250N01355580EFeringe flp 
C0000000N00000000WLANDING     
B1145315656895N01355224EA0011600165000056000000
B1145335656896N01355224EA0011600165000048000000
B1145355656896N01355224EA0011600165000044000000
B1145375656896N01355224EA0011600166000044000000
B1145395656896N01355224EA0011600166000040000000
B1145415656896N01355224EA0011700166000040000000
B1145435656896N01355226EA0011600166000036000000
B1145455656896N01355226EA0011600167000028000000
B1145475656896N01355226EA0011700167000036000000
B1145495656896N01355226EA0011800167000040000000
B1145515656896N01355226EA0011700168000032000000
B1145535656896N01355226EA0011700168000028000000
B1145555656896N01355226EA0011600169000024000000
B1145575656897N01355227EA0011700169000020000000
B1145595656901N01355228EA0011700169000028000000
B1146005656905N01355231EA0011700169000040000000
B1146025656914N01355236EA0011700169000080000000
B1146045656927N01355243EA0011700169000136000000
B1146065656944N01355252EA0011700169000172000000
B1146085656965N01355263EA0011700169000204000000
B1146105656988N01355275EA0011600169000352000000
B1146125657013N01355289EA0011700169000412000000
B1146145657040N01355305EA0011700170000360000000
B1146165657069N01355321EA0011700172000316000000
B1146185657100N01355336EA0012000175000296000000
B1146205657130N01355354EA0012300180000276000000
B1146225657160N01355371EA0012700186000268000000
B1146245657190N01355388EA0013300193000272000000
B1146265657218N01355404EA0013900198000264000000
B1146285657250N01355417EA0014500202000248000000
B1146305657279N01355436EA0015000209000220000000
B1146325657309N01355460EA0015600215000212000000
B1146345657341N01355477EA0016100217000212000000
B1146365657372N01355494EA0016400224000224000000
B1146385657402N01355510EA0016900229000224000000
B1146405657430N01355529EA0017500236000220000000
B1146425657459N01355549EA0018200242000212000000
B1146445657486N01355569EA0018800248000216000000
B1146465657513N01355587EA0019400255000228000000
B1146485657541N01355604EA0020000261000220000000
B1146505657568N01355618EA0020600266000220000000
B1146525657597N01355633EA0021000266000196000000
B1146545657625N01355648EA0021100267000188000000
B1146565657653N01355665EA0021300270000180000000
B1146585657682N01355679EA0021600274000188000000
B1147005657714N01355691EA0022000280000192000000
B1147025657744N01355703EA0022400284000188000000
B1147045657773N01355716EA0022700287000192000000
B1147065657802N01355728EA0023100294000192000000
B1147085657831N01355739EA0023900301000200000000
B1147105657859N01355747EA0024600309000204000000
B1147125657889N01355754EA0025300315000188000000
B1147145657919N01355757EA0026000322000188000000
B1147165657949N01355754EA0026600326000188000000
B1147185657979N01355741EA0026900329000192000000
B1147205658009N01355720EA0027300334000196000000
B1147225658037N01355695EA0027400335000188000000
B1147245658063N01355668EA0028000343000184000000
B1147265658088N01355633EA0028300350000188000000
B1147285658111N01355590EA0029000353000188000000
B1147305658131N01355536EA0029400357000204000000
B1147325658145N01355478EA0029900365000204000000
B1147345658157N01355416EA0030600370000204000000
B1147365658166N01355349EA0031000371000216000000
B1147385658169N01355279EA0031300372000216000000
B1147405658166N01355208EA0031400377000224000000
B1147425658158N01355137EA0031800383000224000000
B1147445658147N01355068EA0032300387000220000000
B1147465658130N01355002EA0032700390000228000000
B1147485658109N01354938EA0032900390000228000000
B1147505658084N01354880EA0033100392000224000000
B1147525658054N01354828EA0033300397000236000000
B1147545658023N01354781EA0033700399000240000000
B1147565657988N01354741EA0034000402000252000000
B1147585657952N01354706EA0034300406000256000000
B1148005657914N01354676EA0034500414000244000000
B1148025657875N01354654EA0035200423000232000000
B1148045657837N01354643EA0036000434000240000000
B1148065657798N01354637EA0037000442000224000000
B1148085657759N01354632EA0037900451000220000000
B1148105657721N01354630EA0038700462000220000000
B1148125657682N01354636EA0039600470000204000000
B1148145657645N01354643EA0040600476000192000000
B1148165657608N01354655EA0041300485000188000000
B1148185657572N01354671EA0042100494000172000000
B1148205657536N01354686EA0042900501000176000000
B1148225657499N01354703EA0043600505000176000000
B1148245657464N01354721EA0043900507000188000000
B1148265657430N01354741EA0044200510000176000000
B1148285657395N01354763EA0044300511000180000000
B1148305657360N01354786EA0044600514000188000000
B1148325657325N01354810EA0045000518000176000000
B1148345657291N01354833EA0045200522000176000000
B1148365657257N01354857EA0045500525000192000000
B1148385657224N01354881EA0045900529000184000000
B1148405657191N01354906EA0046300533000184000000
B1148425657159N01354931EA0046700537000196000000
B1148445657127N01354958EA0047100542000188000000
B1148465657095N01354985EA0047500546000196000000
B1148485657064N01355013EA0048000550000204000000
B1148505657031N01355041EA0048400553000200000000
B1148525657000N01355071EA0048800556000196000000
B1148545656969N01355102EA0049000559000176000000
B1148565656938N01355132EA0049400564000176000000
B1148585656906N01355161EA0049800568000188000000
B1149005656878N01355191EA0050300571000188000000
B1149025656849N01355221EA0050500574000188000000
B1149045656822N01355253EA0050900580000196000000
B1149065656793N01355284EA0051400586000184000000
B1149085656765N01355315EA0051800587000180000000
B1149105656736N01355347EA0051900587000184000000
B1149125656707N01355378EA0052100589000184000000
B1149145656680N01355410EA0052100593000176000000
B1149165656652N01355442EA0052500596000164000000
B1149185656624N01355475EA0052800596000168000000
B1149205656597N01355510EA0052800596000168000000
B1149225656568N01355544EA0052800595000176000000
B1149245656538N01355578EA0052800598000192000000
B1149265656509N01355612EA0053000606000204000000
B1149285656480N01355648EA0053800614000188000000
B1149305656449N01355682EA0054700621000184000000
B1149325656420N01355718EA0055300627000180000000
B1149345656393N01355756EA0055800634000168000000
B1149365656364N01355791EA0056600645000160000000
B1149385656334N01355825EA0057500650000164000000
B1149405656306N01355863EA0057900653000180000000
B1149425656277N01355900EA0058400657000180000000
B1149445656249N01355938EA0058600662000184000000
B1149465656221N01355976EA0059000666000192000000
B1149485656195N01356014EA0059500676000176000000
B1149505656169N01356050EA0060300685000180000000
B1149525656143N01356086EA0061200689000180000000
B1149545656117N01356128EA0061900694000164000000
B1149565656089N01356170EA0062300697000152000000
B1149585656061N01356214EA0062700700000148000000
B1150005656033N01356259EA0062900704000156000000
B1150025656005N01356305EA0063400711000156000000
B1150045655977N01356346EA0063900718000156000000
B1150065655950N01356388EA0064800727000164000000
B1150085655925N01356431EA0065500734000156000000
B1150105655898N01356472EA0066200739000140000000
B1150125655872N01356514EA0066700745000140000000
B1150145655844N01356557EA0067200747000156000000
B1150165655817N01356601EA0067300747000160000000
B1150185655790N01356645EA0067400749000152000000
B1150205655761N01356690EA0067500752000152000000
B1150225655734N01356730EA0067800756000172000000
B1150245655710N01356777EA0068200761000168000000
B1150265655687N01356822EA0068600768000152000000
B1150285655662N01356865EA0069200773000148000000
B1150305655640N01356911EA0069800776000164000000
B1150325655622N01356960EA0070000777000168000000
B1150345655608N01357012EA0070200779000172000000
B1150365655597N01357065EA0070400781000192000000
B1150385655591N01357119EA0070700785000196000000
B1150405655588N01357173EA0071000789000188000000
B1150425655588N01357228EA0071300791000200000000
B1150445655592N01357280EA0071500793000200000000
B1150465655599N01357330EA0071900798000204000000
B1150485655612N01357379EA0072400804000220000000
B1150505655628N01357423EA0072700805000220000000
B1150525655647N01357464EA0072900806000208000000
B1150545655667N01357506EA0072900807000220000000
B1150565655691N01357541EA0073000812000232000000
B1150585655713N01357574EA0073300818000236000000
B1151005655736N01357601EA0073900825000232000000
B1151025655761N01357626EA0074600829000216000000
B1151045655788N01357648EA0075100830000196000000
B1151065655816N01357666EA0075100830000204000000
B1151085655843N01357678EA0075200833000204000000
B1151105655872N01357684EA0075300838000216000000
B1151125655899N01357687EA0076000844000192000000
B1151145655926N01357692EA0076500847000180000000
B1151165655956N01357696EA0076800848000180000000
B1151185655987N01357697EA0076800844000196000000
B1151205656017N01357696EA0076700846000204000000
B1151225656047N01357697EA0076800849000188000000
B1151245656074N01357698EA0077200856000184000000
B1151265656104N01357697EA0077700860000188000000
B1151285656135N01357692EA0078200860000172000000
B1151305656168N01357693EA0078200858000172000000
B1151325656203N01357693EA0078000859000192000000
B1151345656238N01357684EA0078000863000212000000
B1151365656273N01357676EA0078400871000200000000
B1151385656307N01357671EA0079000877000192000000
B1151405656338N01357662EA0079800886000200000000
B1151425656369N01357649EA0080600895000196000000
B1151445656399N01357636EA0081500903000204000000
B1151465656429N01357622EA0082300909000188000000
B1151485656460N01357609EA0082900910000168000000
B1151505656493N01357598EA0083100913000156000000
B1151525656525N01357589EA0083300915000188000000
B1151545656558N01357574EA0083500920000188000000
B1151565656592N01357562EA0084000926000188000000
B1151585656624N01357550EA0084600933000200000000
B1152005656655N01357536EA0085000934000192000000
B1152025656685N01357519EA0085000928000184000000
B1152045656718N01357498EA0084100915000164000000
B1152065656753N01357475EA0083100905000160000000
B1152085656789N01357447EA0082300899000152000000
B1152105656824N01357420EA0082000897000152000000
B1152125656861N01357392EA0081600896000148000000
B1152145656895N01357363EA0081500898000160000000
B1152165656927N01357334EA0081600898000144000000
B1152185656960N01357304EA0081700897000116000000
B1152205656991N01357275EA0081600897000092000000
B1152225657022N01357246EA0081500895000076000000
B1152245657055N01357219EA0081200890000060000000
B1152265657088N01357190EA0080800882000056000000
B1152285657122N01357163EA0080100877000048000000
B1152305657157N01357134EA0079500871000044000000
B1152325657194N01357106EA0079000867000036000000
B1152345657229N01357077EA0078600862000036000000
B1152365657265N01357051EA0078000856000036000000
B1152385657302N01357024EA0077600854000032000000
B1152405657338N01356994EA0077200849000032000000
B1152425657373N01356961EA0077000845000032000000
B1152445657409N01356930EA0076600847000032000000
B1152465657442N01356898EA0076700861000032000000
B1152485657471N01356868EA0077700871000028000000
B1152505657498N01356840EA0079200874000024000000
B1152525657525N01356813EA0079300871000024000000
B1152545657554N01356787EA0079100867000024000000
B1152565657585N01356762EA0078700860000020000000
B1152585657617N01356738EA0078200852000020000000
B1153005657651N01356716EA0077400848000020000000
B1153025657686N01356697EA0076800842000020000000
B1153045657721N01356680EA0076300834000020000000
B1153065657759N01356664EA0075500826000020000000
B1153085657797N01356649EA0074900823000024000000
B1153105657835N01356636EA0074500821000024000000
B1153125657872N01356625EA0074300822000024000000
B1153145657909N01356614EA0074300823000024000000
B1153165657944N01356602EA0074600837000024000000
B1153185657974N01356591EA0075800847000024000000
B1153205658004N01356579EA0076600845000020000000
B1153225658033N01356567EA0076600846000020000000
B1153245658063N01356554EA0076600847000020000000
B1153265658093N01356543EA0076800850000020000000
B1153285658121N01356534EA0077000854000020000000
B1153305658148N01356535EA0077300854000020000000
B1153325658169N01356558EA0077300854000020000000
B1153345658180N01356595EA0077400856000020000000
B1153365658182N01356636EA0077500856000016000000
B1153385658173N01356678EA0077500854000016000000
B1153405658153N01356714EA0077400853000016000000
B1153425658128N01356742EA0077200852000016000000
B1153445658100N01356758EA0077000850000016000000
B1153465658067N01356760EA0076900848000016000000
B1153485658035N01356739EA0076800848000016000000
B1153505658009N01356699EA0076800851000020000000
B1153525657991N01356645EA0077100857000020000000
B1153545657988N01356582EA0077600863000020000000
B1153565658006N01356535EA0078300869000020000000
B1153585658035N01356524EA0078800868000024000000
B1154005658056N01356553EA0078700862000024000000
B1154025658052N01356600EA0078100859000024000000
B1154045658026N01356628EA0077800858000024000000
B1154065657992N01356628EA0077700858000024000000
B1154085657959N01356600EA0077800865000024000000
B1154105657936N01356552EA0078500874000024000000
B1154125657928N01356488EA0079400882000020000000
B1154145657939N01356432EA0080300891000020000000
B1154165657961N01356401EA0081100896000020000000
B1154185657987N01356397EA0081300895000020000000
B1154205658006N01356420EA0081200889000020000000
B1154225658013N01356465EA0080700885000020000000
B1154245658007N01356511EA0080600888000020000000
B1154265657994N01356552EA0080700888000020000000
B1154285657972N01356580EA0080600887000020000000
B1154305657942N01356587EA0080500883000020000000
B1154325657911N01356562EA0080400883000020000000
B1154345657893N01356510EA0080400889000020000000
B1154365657892N01356449EA0080700896000020000000
B1154385657909N01356400EA0081300901000016000000
B1154405657935N01356383EA0081900907000016000000
B1154425657958N01356400EA0082400913000016000000
B1154445657967N01356439EA0083000916000016000000
B1154465657959N01356479EA0083300915000016000000
B1154485657937N01356505EA0083300912000016000000
B1154505657907N01356501EA0083000907000016000000
B1154525657881N01356458EA0082600907000016000000
B1154545657867N01356398EA0082600918000020000000
B1154565657861N01356337EA0083400925000020000000
B1154585657870N01356281EA0084200926000020000000
B1155005657892N01356246EA0084400929000020000000
B1155025657919N01356246EA0084600933000020000000
B1155045657936N01356277EA0085000937000020000000
B1155065657937N01356322EA0085300935000020000000
B1155085657918N01356357EA0085300935000020000000
B1155105657885N01356367EA0085200938000024000000
B1155125657855N01356342EA0085600948000024000000
B1155145657832N01356294EA0086300953000020000000
B1155165657825N01356232EA0086800955000020000000
B1155185657838N01356179EA0087000957000020000000
B1155205657864N01356154EA0087300960000020000000
B1155225657889N01356164EA0087700963000020000000
B1155245657903N01356201EA0088000965000020000000
B1155265657907N01356245EA0088200968000020000000
B1155285657905N01356289EA0088500971000020000000
B1155305657885N01356326EA0088500969000020000000
B1155325657855N01356336EA0088400969000020000000
B1155345657825N01356310EA0088500974000020000000
B1155365657807N01356258EA0088900977000020000000
B1155385657806N01356197EA0089000981000020000000
B1155405657820N01356146EA0089400984000020000000
B1155425657844N01356120EA0089800987000016000000
B1155445657870N01356121EA0090200989000016000000
B1155465657889N01356147EA0090400993000016000000
B1155485657898N01356185EA0090700992000020000000
B1155505657897N01356231EA0090700989000020000000
B1155525657881N01356268EA0090400989000016000000
B1155545657855N01356289EA0090400988000016000000
B1155565657825N01356281EA0090400991000016000000
B1155585657799N01356249EA0090500995000016000000
B1156005657784N01356197EA0091000999000016000000
B1156025657783N01356141EA0091301001000016000000
B1156045657794N01356090EA0091400999000016000000
B1156065657816N01356054EA0091401000000016000000
B1156085657844N01356040EA0091401004000016000000
B1156105657868N01356047EA0091701008000016000000
B1156125657888N01356073EA0092101007000016000000
B1156145657896N01356115EA0092001002000016000000
B1156165657889N01356158EA0091701001000016000000
B1156185657870N01356190EA0091400998000016000000
B1156205657840N01356202EA0091200994000016000000
B1156225657810N01356183EA0091000996000016000000
B1156245657788N01356138EA0091201000000020000000
B1156265657780N01356080EA0091501005000020000000
B1156285657785N01356021EA0091901007000020000000
B1156305657797N01355968EA0092301012000020000000
B1156325657814N01355921EA0092701017000016000000
B1156345657837N01355895EA0093201018000016000000
B1156365657861N01355903EA0093301020000016000000
B1156385657874N01355934EA0093301017000016000000
B1156405657871N01355976EA0093201011000016000000
B1156425657851N01356008EA0092701008000016000000
B1156445657823N01356017EA0092301004000020000000
B1156465657792N01356001EA0091901001000020000000
B1156485657768N01355951EA0091701001000020000000
B1156505657759N01355885EA0091701005000020000000
B1156525657763N01355821EA0092101013000020000000
B1156545657779N01355767EA0092801020000020000000
B1156565657799N01355729EA0093401022000020000000
B1156585657824N01355708EA0093601023000020000000
B1157005657850N01355703EA0093701022000016000000
B1157025657875N01355702EA0093501022000016000000
B1157045657901N01355704EA0093401018000016000000
B1157065657929N01355708EA0093001009000020000000
B1157085657961N01355711EA0092101000000020000000
B1157105657992N01355720EA0091700991000020000000
B1157125658026N01355737EA0090800977000024000000
B1157145658061N01355759EA0089600965000024000000
B1157165658097N01355785EA0088200950000028000000
B1157185658134N01355815EA0087000948000028000000
B1157205658169N01355846EA0086500949000028000000
B1157225658204N01355876EA0086500949000028000000
B1157245658238N01355904EA0086400948000028000000
B1157265658271N01355932EA0086400949000028000000
B1157285658303N01355960EA0086400947000028000000
B1157305658334N01355989EA0086100937000028000000
B1157325658368N01356019EA0085200926000032000000
B1157345658401N01356050EA0084500925000032000000
B1157365658435N01356077EA0084200925000032000000
B1157385658468N01356106EA0084200930000032000000
B1157405658494N01356134EA0085100950000032000000
B1157425658509N01356170EA0086700959000028000000
B1157445658513N01356212EA0087400957000028000000
B1157465658509N01356263EA0086900945000028000000
B1157485658501N01356319EA0085700930000024000000
B1157505658491N01356381EA0084400919000024000000
B1157525658477N01356446EA0083300911000024000000
B1157545658462N01356514EA0082600907000028000000
B1157565658446N01356583EA0082600905000028000000
B1157585658433N01356652EA0082200906000028000000
B1158005658420N01356717EA0082300919000028000000
B1158025658407N01356774EA0083300928000028000000
B1158045658396N01356830EA0084300932000028000000
B1158065658384N01356885EA0084700934000028000000
B1158085658373N01356937EA0084900935000024000000
B1158105658362N01356990EA0085000936000024000000
B1158125658351N01357041EA0085100940000028000000
B1158145658340N01357091EA0085600944000024000000
B1158165658330N01357139EA0086000943000024000000
B1158185658318N01357190EA0086000936000024000000
B1158205658306N01357245EA0085200929000024000000
B1158225658295N01357301EA0084500927000024000000
B1158245658284N01357354EA0084400926000024000000
B1158265658274N01357407EA0084200920000024000000
B1158285658264N01357462EA0083700913000024000000
B1158305658256N01357516EA0082900902000024000000
B1158325658248N01357576EA0081800883000024000000
B1158345658239N01357642EA0080000864000028000000
B1158365658230N01357715EA0078200848000028000000
B1158385658222N01357792EA0076800846000032000000
B1158405658214N01357861EA0077100868000036000000
B1158425658208N01357919EA0078900883000036000000
B1158445658201N01357973EA0080300890000032000000
B1158465658196N01358023EA0080800887000028000000
B1158485658189N01358077EA0080600883000028000000
B1158505658183N01358133EA0080100880000028000000
B1158525658178N01358188EA0080100882000028000000
B1158545658173N01358243EA0080200885000028000000
B1158565658167N01358296EA0080400887000028000000
B1158585658162N01358348EA0080700890000028000000
B1159005658157N01358399EA0080900893000028000000
B1159025658152N01358448EA0081100885000024000000
B1159045658144N01358502EA0080600873000024000000
B1159065658124N01358554EA0079500865000024000000
B1159085658092N01358597EA0078600861000028000000
B1159105658057N01358632EA0078100860000028000000
B1159125658020N01358663EA0077900856000028000000
B1159145657984N01358690EA0077600848000028000000
B1159165657942N01358711EA0076900837000028000000
B1159185657900N01358724EA0075900832000028000000
B1159205657855N01358736EA0075300827000028000000
B1159225657810N01358746EA0074900824000028000000
B1159245657766N01358755EA0074600824000028000000
B1159265657723N01358760EA0074600827000028000000
B1159285657684N01358763EA0075200839000028000000
B1159305657647N01358764EA0076100845000024000000
B1159325657612N01358764EA0076700845000024000000
B1159345657576N01358764EA0076600842000024000000
B1159365657539N01358763EA0076300840000024000000
B1159385657503N01358762EA0076000836000020000000
B1159405657465N01358757EA0075700830000020000000
B1159425657426N01358751EA0075200826000020000000
B1159445657386N01358742EA0075000831000020000000
B1159465657348N01358729EA0075200837000020000000
B1159485657313N01358702EA0075800844000024000000
B1159505657287N01358653EA0076500857000024000000
B1159525657276N01358594EA0077600869000020000000
B1159545657277N01358534EA0078700874000020000000
B1159565657291N01358485EA0079500879000020000000
B1159585657312N01358456EA0079900884000020000000
B1200005657335N01358450EA0080300887000020000000
B1200025657357N01358464EA0080700887000020000000
B1200045657370N01358500EA0080700886000020000000
B1200065657369N01358547EA0080700887000020000000
B1200085657367N01358597EA0080700882000020000000
B1200105657380N01358638EA0080400881000020000000
B1200125657406N01358646EA0080200887000016000000
B1200145657425N01358617EA0080700893000016000000
B1200165657434N01358568EA0081300894000016000000
B1200185657432N01358512EA0081300890000016000000
B1200205657419N01358458EA0081100889000016000000
B1200225657402N01358404EA0081100890000016000000
B1200245657385N01358352EA0081100891000016000000
B1200265657367N01358299EA0081100890000016000000
B1200285657348N01358244EA0081100890000016000000
B1200305657330N01358191EA0080900890000016000000
B1200325657313N01358136EA0081100893000016000000
B1200345657290N01358086EA0081300893000016000000
B1200365657260N01358053EA0081300894000016000000
B1200385657227N01358048EA0081300898000016000000
B1200405657201N01358070EA0081500897000016000000
B1200425657185N01358109EA0081500893000020000000
B1200445657181N01358156EA0081300894000020000000
B1200465657191N01358194EA0081300894000020000000
B1200485657211N01358214EA0081300892000020000000
B1200505657237N01358216EA0081300893000020000000
B1200525657261N01358203EA0081300896000020000000
B1200545657285N01358185EA0081500899000020000000
B1200565657307N01358162EA0081900898000020000000
B1200585657328N01358123EA0081800895000020000000
B1201005657338N01358066EA0081600897000020000000
B1201025657337N01358005EA0081800902000020000000
B1201045657324N01357945EA0082200904000020000000
B1201065657299N01357899EA0082400906000020000000
B1201085657268N01357873EA0082600906000016000000
B1201105657235N01357869EA0082500907000016000000
B1201125657205N01357884EA0082700910000016000000
B1201145657185N01357917EA0082700913000016000000
B1201165657178N01357957EA0082900911000016000000
B1201185657186N01357996EA0082900909000016000000
B1201205657205N01358017EA0082800911000020000000
B1201225657230N01358017EA0082900915000020000000
B1201245657253N01357999EA0083300917000020000000
B1201265657274N01357967EA0083500915000020000000
B1201285657295N01357928EA0083500916000020000000
B1201305657315N01357886EA0083500918000016000000
B1201325657334N01357841EA0083700922000016000000
B1201345657351N01357795EA0083900923000016000000
B1201365657363N01357740EA0084000919000020000000
B1201385657363N01357678EA0083600915000020000000
B1201405657352N01357614EA0083400914000020000000
B1201425657333N01357557EA0083200914000020000000
B1201445657307N01357511EA0083200913000020000000
B1201465657274N01357483EA0083100911000020000000
B1201485657240N01357475EA0082700906000020000000
B1201505657208N01357489EA0082300901000020000000
B1201525657182N01357524EA0081800899000016000000
B1201545657168N01357570EA0081700898000020000000
B1201565657165N01357620EA0081600896000020000000
B1201585657175N01357667EA0081500896000020000000
B1202005657194N01357702EA0081400898000020000000
B1202025657218N01357718EA0081600900000020000000
B1202045657246N01357710EA0081700900000020000000
B1202065657272N01357680EA0081800900000020000000
B1202085657287N01357629EA0081800897000020000000
B1202105657292N01357566EA0081500894000020000000
B1202125657282N01357501EA0081300895000020000000
B1202145657261N01357445EA0081400896000020000000
B1202165657231N01357403EA0081300893000020000000
B1202185657198N01357384EA0081100889000020000000
B1202205657162N01357386EA0080700888000020000000
B1202225657134N01357411EA0080600888000020000000
B1202245657114N01357450EA0080500886000020000000
B1202265657107N01357499EA0080300882000020000000
B1202285657110N01357549EA0080100885000020000000
B1202305657121N01357593EA0080200887000020000000
B1202325657136N01357631EA0080400888000020000000
B1202345657157N01357661EA0080600889000020000000
B1202365657182N01357679EA0080600888000020000000
B1202385657209N01357681EA0080700890000020000000
B1202405657238N01357670EA0080800890000020000000
B1202425657265N01357646EA0080900891000020000000
B1202445657290N01357610EA0080900890000020000000
B1202465657309N01357559EA0081100888000020000000
B1202485657320N01357497EA0080800884000020000000
B1202505657320N01357429EA0080400883000020000000
B1202525657309N01357363EA0080300883000020000000
B1202545657292N01357303EA0080200883000020000000
B1202565657268N01357252EA0080100879000020000000
B1202585657235N01357215EA0079800873000020000000
B1203005657199N01357193EA0079300870000020000000
B1203025657161N01357187EA0079100869000020000000
B1203045657127N01357200EA0079000866000020000000
B1203065657096N01357228EA0078700862000020000000
B1203085657066N01357260EA0078300859000020000000
B1203105657035N01357289EA0078200861000020000000
B1203125657006N01357320EA0078200868000020000000
B1203145656983N01357356EA0078800871000020000000
B1203165656966N01357399EA0079100873000020000000
B1203185656961N01357447EA0079300874000020000000
B1203205656967N01357492EA0079500877000020000000
B1203225656983N01357524EA0079800880000016000000
B1203245657008N01357541EA0080100884000020000000
B1203265657034N01357533EA0080500887000016000000
B1203285657057N01357502EA0080800888000016000000
B1203305657073N01357450EA0080800886000016000000
B1203325657075N01357386EA0080800887000020000000
B1203345657066N01357321EA0080800885000020000000
B1203365657045N01357264EA0080500883000020000000
B1203385657016N01357223EA0080200880000020000000
B1203405656980N01357203EA0080100879000020000000
B1203425656944N01357207EA0080000881000020000000
B1203445656915N01357234EA0080000885000020000000
B1203465656896N01357276EA0080500887000020000000
B1203485656889N01357327EA0080800887000020000000
B1203505656897N01357376EA0080700883000024000000
B1203525656914N01357416EA0080500886000024000000
B1203545656939N01357442EA0080800894000020000000
B1203565656967N01357449EA0081400898000020000000
B1203585656992N01357418EA0081900902000020000000
B1204005657000N01357358EA0082200907000020000000
B1204025656987N01357299EA0082800914000020000000
B1204045656961N01357264EA0083500921000020000000
B1204065656932N01357254EA0084100921000016000000
B1204085656906N01357272EA0084000916000016000000
B1204105656892N01357316EA0083600915000016000000
B1204125656895N01357362EA0083800924000016000000
B1204145656909N01357395EA0084500930000016000000
B1204165656931N01357414EA0084900931000016000000
B1204185656956N01357405EA0085400937000016000000
B1204205656975N01357368EA0085900944000016000000
B1204225656983N01357315EA0086200948000016000000
B1204245656977N01357259EA0086800950000016000000
B1204265656957N01357212EA0086900951000016000000
B1204285656928N01357180EA0087000953000016000000
B1204305656897N01357163EA0087200957000016000000
B1204325656867N01357161EA0087500961000016000000
B1204345656843N01357185EA0087800962000016000000
B1204365656828N01357225EA0088000964000012000000
B1204385656827N01357271EA0088100965000016000000
B1204405656839N01357310EA0088300966000016000000
B1204425656860N01357333EA0088300971000020000000
B1204445656886N01357334EA0088700976000020000000
B1204465656910N01357314EA0089300979000020000000
B1204485656930N01357273EA0089600981000020000000
B1204505656940N01357215EA0089700982000020000000
B1204525656936N01357150EA0089800983000020000000
B1204545656921N01357091EA0090000988000020000000
B1204565656895N01357048EA0090400993000020000000
B1204585656865N01357025EA0090800999000020000000
B1205005656836N01357018EA0091501001000020000000
B1205025656808N01357028EA0091500999000020000000
B1205045656784N01357055EA0091501000000020000000
B1205065656769N01357094EA0091601004000020000000
B1205085656763N01357139EA0091901007000020000000
B1205105656771N01357180EA0092101010000020000000
B1205125656789N01357207EA0092401011000020000000
B1205145656814N01357213EA0092501012000016000000
B1205165656840N01357195EA0092601013000016000000
B1205185656858N01357150EA0092801017000020000000
B1205205656866N01357091EA0093101022000020000000
B1205225656858N01357031EA0093601026000020000000
B1205245656837N01356982EA0093901029000020000000
B1205265656809N01356953EA0094201032000020000000
B1205285656779N01356953EA0094601035000020000000
B1205305656753N01356978EA0094901040000020000000
B1205325656740N01357018EA0095301043000020000000
B1205345656739N01357064EA0095601047000020000000
B1205365656750N01357102EA0096001051000020000000
B1205385656769N01357125EA0096201053000020000000
B1205405656793N01357137EA0096601055000020000000
B1205425656819N01357126EA0096701055000020000000
B1205445656843N01357093EA0096901060000020000000
B1205465656858N01357042EA0097201066000020000000
B1205485656862N01356982EA0097801069000020000000
B1205505656857N01356922EA0098101071000020000000
B1205525656840N01356869EA0098401075000020000000
B1205545656814N01356830EA0098701077000020000000
B1205565656783N01356814EA0098801077000020000000
B1205585656753N01356822EA0098901080000020000000
B1206005656730N01356853EA0099201084000020000000
B1206025656720N01356898EA0099601088000020000000
B1206045656724N01356942EA0100101093000020000000
B1206065656740N01356974EA0100501097000020000000
B1206085656763N01356989EA0100601097000020000000
B1206105656792N01356976EA0100801098000020000000
B1206125656815N01356937EA0100801104000020000000
B1206145656827N01356881EA0101101109000020000000
B1206165656828N01356821EA0101801112000020000000
B1206185656818N01356764EA0102201116000020000000
B1206205656798N01356716EA0102501120000020000000
B1206225656772N01356682EA0102801120000020000000
B1206245656744N01356667EA0102901120000020000000
B1206265656715N01356675EA0102901120000016000000
B1206285656696N01356706EA0103001123000016000000
B1206305656689N01356748EA0103201125000016000000
B1206325656697N01356788EA0103401126000016000000
B1206345656717N01356813EA0103501129000016000000
B1206365656743N01356814EA0103801134000016000000
B1206385656767N01356794EA0104301139000016000000
B1206405656789N01356758EA0104701142000016000000
B1206425656805N01356713EA0105001143000020000000
B1206445656814N01356658EA0105101143000020000000
B1206465656814N01356601EA0105201140000020000000
B1206485656811N01356541EA0105001131000020000000
B1206505656805N01356475EA0103601121000020000000
B1206525656796N01356405EA0102601111000020000000
B1206545656784N01356332EA0101701102000024000000
B1206565656771N01356255EA0101201096000024000000
B1206585656753N01356183EA0100501094000028000000
B1207005656726N01356124EA0100401095000028000000
B1207025656691N01356088EA0100401096000028000000
B1207045656653N01356068EA0100501093000028000000
B1207065656615N01356055EA0100201088000028000000
B1207085656576N01356041EA0099701085000028000000
B1207105656538N01356028EA0099401082000028000000
B1207125656501N01356017EA0099201082000028000000
B1207145656463N01356010EA0099301087000028000000
B1207165656427N01356002EA0099801094000028000000
B1207185656392N01355997EA0100501103000028000000
B1207205656363N01355968EA0101501116000028000000
B1207225656347N01355920EA0102401117000028000000
B1207245656347N01355864EA0102401109000024000000
B1207265656366N01355821EA0101801105000024000000
B1207285656393N01355809EA0101501107000020000000
B1207305656415N01355824EA0101601112000020000000
B1207325656432N01355854EA0102001116000020000000
B1207345656441N01355891EA0102501121000020000000
B1207365656442N01355933EA0103101126000020000000
B1207385656431N01355971EA0103601133000020000000
B1207405656406N01355989EA0104401143000020000000
B1207425656379N01355982EA0104801146000020000000
B1207445656353N01355949EA0105301143000020000000
B1207465656340N01355890EA0105101141000020000000
B1207485656345N01355829EA0105001149000020000000
B1207505656360N01355783EA0105501156000020000000
B1207525656381N01355756EA0106101158000020000000
B1207545656405N01355744EA0106401157000020000000
B1207565656428N01355756EA0106401159000020000000
B1207585656444N01355789EA0106601165000020000000
B1208005656445N01355828EA0107001167000020000000
B1208025656436N01355865EA0107301165000020000000
B1208045656418N01355895EA0107101163000020000000
B1208065656392N01355910EA0107001165000020000000
B1208085656363N01355902EA0107201170000020000000
B1208105656336N01355872EA0107701174000020000000
B1208125656319N01355822EA0108001177000020000000
B1208145656314N01355767EA0108401179000020000000
B1208165656323N01355713EA0108601181000020000000
B1208185656340N01355677EA0108801185000020000000
B1208205656363N01355661EA0109001186000020000000
B1208225656386N01355668EA0109101188000020000000
B1208245656405N01355695EA0109301186000020000000
B1208265656410N01355738EA0109201183000020000000
B1208285656401N01355781EA0108701176000020000000
B1208305656377N01355815EA0108001171000020000000
B1208325656346N01355832EA0107801176000020000000
B1208345656314N01355832EA0108001179000020000000
B1208365656281N01355821EA0108401183000020000000
B1208385656251N01355795EA0108901186000020000000
B1208405656230N01355747EA0109301185000020000000
B1208425656229N01355685EA0109301183000024000000
B1208445656247N01355639EA0109201188000024000000
B1208465656273N01355627EA0109301191000024000000
B1208485656294N01355652EA0109601194000024000000
B1208505656298N01355698EA0110001200000024000000
B1208525656280N01355735EA0110501203000024000000
B1208545656247N01355739EA0110801207000024000000
B1208565656219N01355711EA0111201213000020000000
B1208585656198N01355661EA0111701216000020000000
B1209005656191N01355601EA0112101217000020000000
B1209025656199N01355544EA0112201217000020000000
B1209045656220N01355505EA0112201220000020000000
B1209065656246N01355490EA0112501224000020000000
B1209085656272N01355495EA0112701225000020000000
B1209105656294N01355518EA0112901228000020000000
B1209125656306N01355555EA0113201233000020000000
B1209145656306N01355596EA0113701240000020000000
B1209165656293N01355633EA0114401243000020000000
B1209185656271N01355657EA0114801247000020000000
B1209205656243N01355664EA0115001248000020000000
B1209225656213N01355650EA0114901245000020000000
B1209245656189N01355612EA0114701244000020000000
B1209265656173N01355557EA0114701245000020000000
B1209285656167N01355499EA0114801245000020000000
B1209305656165N01355438EA0114801246000020000000
B1209325656168N01355379EA0114901251000020000000
B1209345656172N01355322EA0115301256000020000000
B1209365656177N01355265EA0115801256000020000000
B1209385656182N01355206EA0115801254000020000000
B1209405656189N01355146EA0115601254000020000000
B1209425656195N01355088EA0115601254000020000000
B1209445656200N01355028EA0115601252000020000000
B1209465656207N01354967EA0115401249000020000000
B1209485656213N01354907EA0115101247000020000000
B1209505656220N01354845EA0114801242000020000000
B1209525656226N01354780EA0114301235000024000000
B1209545656232N01354712EA0113801234000024000000
B1209565656237N01354645EA0113501235000028000000
B1209585656241N01354577EA0113501236000028000000
B1210005656245N01354509EA0113901243000028000000
B1210025656246N01354443EA0114701250000028000000
B1210045656246N01354377EA0115101249000028000000
B1210065656247N01354307EA0115101248000028000000
B1210085656249N01354236EA0114901245000028000000
B1210105656250N01354164EA0114601243000028000000
B1210125656251N01354091EA0114301245000028000000
B1210145656252N01354019EA0114401248000028000000
B1210165656252N01353950EA0114701253000028000000
B1210185656254N01353884EA0115101255000028000000
B1210205656255N01353819EA0115501255000028000000
B1210225656256N01353753EA0115501253000024000000
B1210245656259N01353687EA0115301254000024000000
B1210265656260N01353620EA0115301258000024000000
B1210285656263N01353558EA0115701263000024000000
B1210305656265N01353497EA0116201267000024000000
B1210325656268N01353436EA0116701269000020000000
B1210345656268N01353373EA0116901269000020000000
B1210365656258N01353312EA0116901268000020000000
B1210385656237N01353259EA0116801268000020000000
B1210405656208N01353221EA0116601267000020000000
B1210425656174N01353203EA0116701269000024000000
B1210445656141N01353200EA0117001275000020000000
B1210465656111N01353215EA0117401276000020000000
B1210485656089N01353247EA0117401276000020000000
B1210505656078N01353290EA0117401276000020000000
B1210525656077N01353336EA0117401276000020000000
B1210545656086N01353375EA0117401279000020000000
B1210565656100N01353407EA0117701282000020000000
B1210585656119N01353432EA0117901280000020000000
B1211005656138N01353454EA0117701276000020000000
B1211025656163N01353472EA0117301276000020000000
B1211045656187N01353485EA0117201273000020000000
B1211065656216N01353495EA0117001269000020000000
B1211085656246N01353501EA0116701270000020000000
B1211105656275N01353502EA0116801275000020000000
B1211125656302N01353498EA0117201278000020000000
B1211145656329N01353486EA0117401276000020000000
B1211165656356N01353460EA0117301275000020000000
B1211185656380N01353419EA0117101275000020000000
B1211205656397N01353363EA0117201279000024000000
B1211225656405N01353302EA0117401283000024000000
B1211245656407N01353237EA0117801284000020000000
B1211265656407N01353170EA0118001283000020000000
B1211285656402N01353103EA0117901283000020000000
B1211305656389N01353039EA0117901282000020000000
B1211325656368N01352983EA0117901281000020000000
B1211345656340N01352943EA0117901285000024000000
B1211365656308N01352918EA0118101288000024000000
B1211385656277N01352910EA0118401291000020000000
B1211405656249N01352917EA0118701293000020000000
B1211425656224N01352935EA0119001293000020000000
B1211445656203N01352964EA0118901290000020000000
B1211465656187N01353003EA0118601285000020000000
B1211485656176N01353047EA0118201283000020000000
B1211505656169N01353095EA0118101282000020000000
B1211525656172N01353143EA0117901282000020000000
B1211545656185N01353186EA0117901282000020000000
B1211565656204N01353221EA0117801279000020000000
B1211585656229N01353251EA0117701278000024000000
B1212005656254N01353277EA0117601281000024000000
B1212025656278N01353300EA0117701285000028000000
B1212045656302N01353320EA0118101287000028000000
B1212065656327N01353338EA0118401288000024000000
B1212085656350N01353356EA0118601292000028000000
B1212105656372N01353377EA0119001295000024000000
B1212125656394N01353398EA0119401297000024000000
B1212145656418N01353417EA0119801305000024000000
B1212165656440N01353434EA0120501309000024000000
B1212185656462N01353453EA0120801303000020000000
B1212205656486N01353472EA0120201289000020000000
B1212225656515N01353495EA0118701275000024000000
B1212245656545N01353521EA0117401270000028000000
B1212265656576N01353547EA0116801270000028000000
B1212285656607N01353571EA0116701270000028000000
B1212305656637N01353590EA0116801273000028000000
B1212325656667N01353607EA0117201272000028000000
B1212345656698N01353624EA0117001266000028000000
B1212365656730N01353641EA0116401263000032000000
B1212385656762N01353658EA0116301267000032000000
B1212405656789N01353672EA0116901280000028000000
B1212425656815N01353687EA0117701278000028000000
B1212445656844N01353701EA0117401269000028000000
B1212465656873N01353716EA0117001266000028000000
B1212485656902N01353731EA0116501264000028000000
B1212505656932N01353745EA0116201259000028000000
B1212525656964N01353761EA0115701256000028000000
B1212545656995N01353776EA0115201252000028000000
B1212565657027N01353792EA0114901249000028000000
B1212585657060N01353809EA0114501244000028000000
B1213005657094N01353827EA0114001238000032000000
B1213025657126N01353846EA0113501236000028000000
B1213045657160N01353863EA0113401235000032000000
B1213065657192N01353880EA0113401232000032000000
B1213085657225N01353896EA0113101229000032000000
B1213105657257N01353911EA0112801227000032000000
B1213125657290N01353924EA0112601227000032000000
B1213145657322N01353937EA0112601226000032000000
B1213165657355N01353950EA0112601227000032000000
B1213185657386N01353966EA0112901233000032000000
B1213205657412N01353980EA0113901251000028000000
B1213225657435N01353995EA0115201258000028000000
B1213245657458N01354009EA0115701257000024000000
B1213265657482N01354025EA0115901250000024000000
B1213285657510N01354041EA0115301233000024000000
B1213305657542N01354061EA0113901219000028000000
B1213325657576N01354083EA0112301212000028000000
B1213345657611N01354106EA0111501213000032000000
B1213365657645N01354126EA0111301215000032000000
B1213385657679N01354145EA0111401211000032000000
B1213405657712N01354165EA0111301207000036000000
B1213425657747N01354183EA0111001204000036000000
B1213445657783N01354201EA0110901203000032000000
B1213465657816N01354218EA0110701201000032000000
B1213485657850N01354236EA0110401199000032000000
B1213505657884N01354253EA0110401200000032000000
B1213525657916N01354269EA0110501199000028000000
B1213545657948N01354285EA0110401197000028000000
B1213565657979N01354299EA0110001192000028000000
B1213585658010N01354316EA0109601186000028000000
B1214005658041N01354334EA0109101184000028000000
B1214025658071N01354351EA0108801182000028000000
B1214045658102N01354368EA0108701177000024000000
B1214065658135N01354383EA0108401172000024000000
B1214085658167N01354400EA0107901169000028000000
B1214105658200N01354418EA0107501171000028000000
B1214125658231N01354435EA0107701178000028000000
B1214145658260N01354450EA0108301179000028000000
B1214165658290N01354464EA0108401175000024000000
B1214185658318N01354480EA0108201172000024000000
B1214205658348N01354493EA0107901171000024000000
B1214225658377N01354507EA0107701169000024000000
B1214245658407N01354521EA0107601166000024000000
B1214265658436N01354535EA0107201159000024000000
B1214285658469N01354551EA0106701154000024000000
B1214305658501N01354567EA0106301155000024000000
B1214325658534N01354581EA0106301155000024000000
B1214345658566N01354597EA0106301156000024000000
B1214365658598N01354611EA0106301157000024000000
B1214385658628N01354625EA0106501156000024000000
B1214405658659N01354639EA0106501155000024000000
B1214425658691N01354654EA0106301155000024000000
B1214445658722N01354667EA0106301155000024000000
B1214465658752N01354681EA0106401159000024000000
B1214485658781N01354694EA0106601158000024000000
B1214505658811N01354707EA0106601152000020000000
B1214525658841N01354721EA0106001147000020000000
B1214545658872N01354736EA0105501144000024000000
B1214565658904N01354751EA0105301144000024000000
B1214585658934N01354768EA0105201145000024000000
B1215005658966N01354784EA0105401144000024000000
B1215025658995N01354802EA0105301142000020000000
B1215045659027N01354819EA0105001138000020000000
B1215065659058N01354838EA0104601133000020000000
B1215085659089N01354862EA0104001127000024000000
B1215105659123N01354884EA0103501123000024000000
B1215125659157N01354905EA0103301124000024000000
B1215145659189N01354923EA0103201129000024000000
B1215165659220N01354940EA0103601128000024000000
B1215185659252N01354958EA0103501124000024000000
B1215205659284N01354975EA0103401120000024000000
B1215225659317N01354993EA0102901118000024000000
B1215245659350N01355010EA0102801116000024000000
B1215265659384N01355027EA0102601114000024000000
B1215285659418N01355044EA0102401114000028000000
B1215305659450N01355061EA0102301112000028000000
B1215325659483N01355085EA0102201112000028000000
B1215345659512N01355111EA0102301120000028000000
B1215365659540N01355136EA0103101124000028000000
B1215385659569N01355159EA0103301122000028000000
B1215405659596N01355184EA0103201120000028000000
B1215425659623N01355211EA0103001112000028000000
B1215445659649N01355248EA0102301103000028000000
B1215465659670N01355297EA0101401096000028000000
B1215485659683N01355357EA0100701095000028000000
B1215505659691N01355418EA0100601098000028000000
B1215525659694N01355478EA0100701099000028000000
B1215545659695N01355538EA0100901097000028000000
B1215565659694N01355599EA0100601092000028000000
B1215585659687N01355659EA0100201088000028000000
B1216005659675N01355717EA0099801085000028000000
B1216025659661N01355773EA0099501082000028000000
B1216045659644N01355826EA0099201079000028000000
B1216065659625N01355880EA0098801075000028000000
B1216085659603N01355929EA0098501075000028000000
B1216105659579N01355976EA0098601081000028000000
B1216125659557N01356021EA0099001076000028000000
B1216145659532N01356068EA0098501066000028000000
B1216165659508N01356119EA0097501060000032000000
B1216185659482N01356167EA0097301066000032000000
B1216205659457N01356210EA0097601070000032000000
B1216225659431N01356251EA0098001073000028000000
B1216245659406N01356292EA0098101074000028000000
B1216265659382N01356329EA0098301073000028000000
B1216285659354N01356367EA0098201068000028000000
B1216305659327N01356405EA0097901062000028000000
B1216325659297N01356444EA0097401058000028000000
B1216345659268N01356484EA0097001062000032000000
B1216365659242N01356521EA0097401072000028000000
B1216385659218N01356556EA0098101076000024000000
B1216405659193N01356589EA0098601076000024000000
B1216425659167N01356623EA0098601073000024000000
B1216445659140N01356657EA0098401067000024000000
B1216465659111N01356693EA0097801061000024000000
B1216485659079N01356729EA0097201060000024000000
B1216505659047N01356761EA0097201061000024000000
B1216525659015N01356792EA0097201060000024000000
B1216545658984N01356823EA0097101058000024000000
B1216565658951N01356856EA0097001061000024000000
B1216585658920N01356885EA0097501068000028000000
B1217005658888N01356890EA0098201077000024000000
B1217025658859N01356861EA0098801077000024000000
B1217045658842N01356807EA0098701070000024000000
B1217065658839N01356745EA0098301063000024000000
B1217085658855N01356696EA0097501064000024000000
B1217105658877N01356670EA0097501065000024000000
B1217125658903N01356665EA0097401060000024000000
B1217145658925N01356687EA0097301060000024000000
B1217165658938N01356723EA0097201064000024000000
B1217185658946N01356768EA0097401065000020000000
B1217205658946N01356817EA0097501064000020000000
B1217225658937N01356868EA0097501064000024000000
B1217245658920N01356912EA0097501066000024000000
B1217265658897N01356950EA0097601065000024000000
B1217285658871N01356982EA0097601063000020000000
B1217305658843N01357008EA0097401061000020000000
B1217325658815N01357026EA0097301062000032000000
B1217345658785N01357039EA0097101055000060000000
B1217365658750N01357048EA0096401044000052000000
B1217385658713N01357052EA0095501041000044000000
B1217405658677N01357055EA0095301040000044000000
B1217425658641N01357054EA0095301045000040000000
B1217445658605N01357050EA0095701047000036000000
B1217465658572N01357043EA0095701048000032000000
B1217485658539N01357035EA0095701045000028000000
B1217505658504N01357024EA0095601044000028000000
B1217525658472N01357011EA0095601046000028000000
B1217545658439N01356994EA0095601043000024000000
B1217565658407N01356973EA0095601038000024000000
B1217585658373N01356950EA0095001032000024000000
B1218005658338N01356924EA0094401027000024000000
B1218025658303N01356899EA0094001025000024000000
B1218045658266N01356877EA0093701019000024000000
B1218065658228N01356852EA0093101011000024000000
B1218085658189N01356825EA0092601011000024000000
B1218105658152N01356797EA0092701020000028000000
B1218125658117N01356771EA0093701034000028000000
B1218145658083N01356751EA0094701037000024000000
B1218165658050N01356732EA0095001039000024000000
B1218185658017N01356712EA0095201041000024000000
B1218205657984N01356688EA0095301039000020000000
B1218225657950N01356667EA0095101038000020000000
B1218245657916N01356647EA0095101040000020000000
B1218265657884N01356623EA0095301041000020000000
B1218285657850N01356601EA0095401042000020000000
B1218305657818N01356578EA0095501043000020000000
B1218325657784N01356556EA0095501042000020000000
B1218345657751N01356535EA0095501039000020000000
B1218365657718N01356524EA0095201036000020000000
B1218385657684N01356524EA0095001035000020000000
B1218405657651N01356530EA0094901037000020000000
B1218425657620N01356536EA0095001038000020000000
B1218445657590N01356543EA0095001036000020000000
B1218465657559N01356553EA0094901033000020000000
B1218485657529N01356567EA0094601031000020000000
B1218505657500N01356583EA0094301029000020000000
B1218525657473N01356602EA0094201029000020000000
B1218545657446N01356621EA0094101027000016000000
B1218565657419N01356641EA0093801020000020000000
B1218585657391N01356664EA0093401018000020000000
B1219005657363N01356686EA0093101019000020000000
B1219025657335N01356709EA0092901016000020000000
B1219045657307N01356734EA0092801011000020000000
B1219065657278N01356761EA0092301000000016000000
B1219085657250N01356792EA0091300988000020000000
B1219105657218N01356829EA0090200979000024000000
B1219125657188N01356869EA0089300973000024000000
B1219145657160N01356912EA0088800972000024000000
B1219165657134N01356953EA0088600974000028000000
B1219185657107N01356992EA0088800977000028000000
B1219205657081N01357029EA0089000978000028000000
B1219225657056N01357067EA0089100981000028000000
B1219245657031N01357102EA0089400986000028000000
B1219265657009N01357138EA0089800989000024000000
B1219285656986N01357173EA0090200991000024000000
B1219305656962N01357208EA0090400994000024000000
B1219325656941N01357245EA0090700997000024000000
B1219345656923N01357285EA0091001000000020000000
B1219365656921N01357332EA0091301002000020000000
B1219385656939N01357363EA0091701010000020000000
B1219405656964N01357364EA0092401016000020000000
B1219425656987N01357343EA0092701016000020000000
B1219445657008N01357301EA0092801013000020000000
B1219465657018N01357245EA0092701017000020000000
B1219485657019N01357185EA0092801019000020000000
B1219505657014N01357125EA0093201020000020000000
B1219525657003N01357067EA0093301018000020000000
B1219545656980N01357020EA0093301018000020000000
B1219565656951N01356996EA0093301021000020000000
B1219585656922N01356998EA0093501025000020000000
B1220005656897N01357018EA0093801027000020000000
B1220025656882N01357055EA0094001028000016000000
B1220045656878N01357098EA0094101030000020000000
B1220065656888N01357137EA0094401033000016000000
B1220085656909N01357159EA0094701035000020000000
B1220105656936N01357154EA0094801038000020000000
B1220125656961N01357121EA0095101040000020000000
B1220145656978N01357068EA0095201040000020000000
B1220165656982N01357004EA0095301041000016000000
B1220185656973N01356940EA0095601045000020000000
B1220205656953N01356888EA0095801046000020000000
B1220225656926N01356851EA0095901045000020000000
B1220245656893N01356831EA0095801044000020000000
B1220265656861N01356838EA0095701046000020000000
B1220285656836N01356868EA0095901053000020000000
B1220305656822N01356908EA0096501059000020000000
B1220325656821N01356951EA0097001063000020000000
B1220345656828N01356989EA0097301062000020000000
B1220365656848N01357017EA0097401063000020000000
B1220385656874N01357022EA0097501067000020000000
B1220405656900N01357002EA0098001072000020000000
B1220425656919N01356957EA0098401074000020000000
B1220445656930N01356900EA0098601073000020000000
B1220465656927N01356835EA0098501072000020000000
B1220485656910N01356777EA0098401074000016000000
B1220505656886N01356735EA0098701080000016000000
B1220525656858N01356712EA0099301089000016000000
B1220545656832N01356705EA0100101096000016000000
B1220565656809N01356714EA0100701097000016000000
B1220585656788N01356735EA0100801094000016000000
B1221005656771N01356769EA0100601095000016000000
B1221025656762N01356805EA0100801102000016000000
B1221045656759N01356840EA0101301107000012000000
B1221065656761N01356873EA0101701108000012000000
B1221085656769N01356904EA0101701109000012000000
B1221105656782N01356930EA0101801110000016000000
B1221125656800N01356947EA0102101111000012000000
B1221145656819N01356956EA0102101108000016000000
B1221165656843N01356956EA0101901103000016000000
B1221185656869N01356938EA0101401097000016000000
B1221205656891N01356899EA0100901093000016000000
B1221225656905N01356844EA0100301087000016000000
B1221245656910N01356779EA0099801081000020000000
B1221265656904N01356714EA0099401082000020000000
B1221285656887N01356656EA0099501085000020000000
B1221305656866N01356605EA0099701086000020000000
B1221325656840N01356560EA0099901089000020000000
B1221345656814N01356519EA0100101090000016000000
B1221365656783N01356495EA0100101089000020000000
B1221385656752N01356498EA0100201094000020000000
B1221405656731N01356530EA0100701100000020000000
B1221425656723N01356570EA0101101102000020000000
B1221445656732N01356606EA0101201101000020000000
B1221465656754N01356625EA0101301102000020000000
B1221485656780N01356615EA0101301102000020000000
B1221505656802N01356576EA0101301098000020000000
B1221525656811N01356515EA0101001100000020000000
B1221545656808N01356453EA0101301105000020000000
B1221565656795N01356396EA0101601107000020000000
B1221585656771N01356350EA0101701107000020000000
B1222005656741N01356331EA0101901111000020000000
B1222025656715N01356342EA0102201117000020000000
B1222045656697N01356370EA0102601117000020000000
B1222065656688N01356407EA0102701113000020000000
B1222085656691N01356450EA0102301109000020000000
B1222105656705N01356488EA0102001111000020000000
B1222125656726N01356514EA0102101116000020000000
B1222145656750N01356519EA0102501118000020000000
B1222165656776N01356498EA0102801119000020000000
B1222185656796N01356454EA0102801114000020000000
B1222205656806N01356393EA0102501112000020000000
B1222225656800N01356328EA0102301116000016000000
B1222245656783N01356274EA0102701123000020000000
B1222265656758N01356235EA0103201125000020000000
B1222285656728N01356210EA0103401125000020000000
B1222305656698N01356202EA0103401127000020000000
B1222325656670N01356212EA0103501128000020000000
B1222345656648N01356237EA0103701128000020000000
B1222365656631N01356272EA0103701121000020000000
B1222385656620N01356315EA0103101112000020000000
B1222405656613N01356363EA0102301112000020000000
B1222425656605N01356411EA0102201116000020000000
B1222445656597N01356457EA0102501117000020000000
B1222465656590N01356504EA0102801122000024000000
B1222485656593N01356552EA0103101128000024000000
B1222505656613N01356580EA0103801138000024000000
B1222525656639N01356575EA0104601142000024000000
B1222545656661N01356536EA0105101141000020000000
B1222565656670N01356479EA0105001139000020000000
B1222585656659N01356418EA0104901140000020000000
B1223005656635N01356375EA0105001141000020000000
B1223025656605N01356355EA0105101146000020000000
B1223045656575N01356358EA0105701153000020000000
B1223065656550N01356378EA0106201153000020000000
B1223085656537N01356419EA0106101151000020000000
B1223105656542N01356466EA0106201161000020000000
B1223125656562N01356497EA0107101173000020000000
B1223145656588N01356505EA0108001177000020000000
B1223165656615N01356480EA0108401180000020000000
B1223185656631N01356430EA0108701183000020000000
B1223205656632N01356367EA0108801182000020000000
B1223225656616N01356311EA0108801183000020000000
B1223245656588N01356280EA0109101188000020000000
B1223265656559N01356279EA0109401197000020000000
B1223285656535N01356297EA0110701207000020000000
B1223305656515N01356327EA0111101209000020000000
B1223325656509N01356371EA0111501208000020000000
B1223345656522N01356414EA0111501217000020000000
B1223365656545N01356435EA0112201227000024000000
B1223385656572N01356433EA0113001230000020000000
B1223405656598N01356406EA0113401228000020000000
B1223425656616N01356354EA0113301228000020000000
B1223445656619N01356290EA0113301228000024000000
B1223465656603N01356232EA0113401231000020000000
B1223485656576N01356197EA0113701238000020000000
B1223505656546N01356188EA0114301242000020000000
B1223525656520N01356205EA0114801248000020000000
B1223545656505N01356238EA0115501255000020000000
B1223565656498N01356280EA0115901258000020000000
B1223585656507N01356322EA0116301262000020000000
B1224005656529N01356345EA0116701270000020000000
B1224025656555N01356346EA0117401272000020000000
B1224045656583N01356326EA0117601273000020000000
B1224065656603N01356283EA0117501271000020000000
B1224085656614N01356224EA0117301268000020000000
B1224105656614N01356160EA0117201268000020000000
B1224125656602N01356099EA0117201270000020000000
B1224145656581N01356051EA0117501276000020000000
B1224165656555N01356019EA0117901281000020000000
B1224185656525N01356006EA0118501284000020000000
B1224205656497N01356010EA0119001289000020000000
B1224225656471N01356028EA0119301291000020000000
B1224245656453N01356062EA0119401290000020000000
B1224265656446N01356107EA0119401293000020000000
B1224285656454N01356150EA0119701301000020000000
B1224305656472N01356179EA0120401307000020000000
B1224325656497N01356190EA0120901310000020000000
B1224345656524N01356183EA0121301313000020000000
B1224365656548N01356151EA0121401313000020000000
B1224385656563N01356099EA0121401311000020000000
B1224405656567N01356037EA0121401310000020000000
B1224425656559N01355976EA0121301311000020000000
B1224445656540N01355926EA0121501315000020000000
B1224465656512N01355891EA0121701317000020000000
B1224485656484N01355873EA0122101323000020000000
B1224505656455N01355876EA0122601329000020000000
B1224525656432N01355899EA0123101332000020000000
B1224545656418N01355939EA0123201329000020000000
B1224565656420N01355986EA0123201329000020000000
B1224585656438N01356023EA0123101334000020000000
B1225005656466N01356029EA0123601343000020000000
B1225025656493N01356016EA0124301349000020000000
B1225045656518N01355988EA0124801347000020000000
B1225065656536N01355936EA0124801341000020000000
B1225085656540N01355869EA0124301340000020000000
B1225105656528N01355806EA0124201346000020000000
B1225125656510N01355750EA0124601351000020000000
B1225145656486N01355703EA0125201354000020000000
B1225165656460N01355661EA0125601358000020000000
B1225185656431N01355642EA0125901359000020000000
B1225205656401N01355652EA0126001359000020000000
B1225225656380N01355685EA0126201367000020000000
B1225245656375N01355729EA0126901375000020000000
B1225265656385N01355767EA0127501380000020000000
B1225285656407N01355785EA0128001381000020000000
B1225305656434N01355780EA0127901376000020000000
B1225325656460N01355746EA0127701381000020000000
B1225345656476N01355695EA0128301387000020000000
B1225365656483N01355634EA0128701388000020000000
B1225385656476N01355570EA0128901391000020000000
B1225405656457N01355517EA0129201395000020000000
B1225425656429N01355482EA0129401400000020000000
B1225445656399N01355466EA0130001404000020000000
B1225465656371N01355464EA0130401402000020000000
B1225485656342N01355473EA0130201393000020000000
B1225505656310N01355486EA0129501388000020000000
B1225525656276N01355503EA0128801391000024000000
B1225545656245N01355520EA0129201408000024000000
B1225565656219N01355536EA0130401412000024000000
B1225585656193N01355553EA0131001404000024000000
B1226005656164N01355574EA0130401393000024000000
B1226025656132N01355596EA0129301382000024000000
B1226045656096N01355620EA0128001371000024000000
B1226065656059N01355647EA0126901362000024000000
B1226085656021N01355678EA0126101360000028000000
B1226105655985N01355709EA0126101373000028000000
B1226125655952N01355734EA0127301394000028000000
B1226145655924N01355756EA0129101404000028000000
B1226165655895N01355778EA0130101402000024000000
B1226185655864N01355802EA0130001397000024000000
B1226205655833N01355826EA0129701399000024000000
B1226225655804N01355851EA0129801398000024000000
B1226245655773N01355880EA0129501389000024000000
B1226265655740N01355910EA0128701383000024000000
B1226285655708N01355942EA0128001378000028000000
B1226305655675N01355978EA0127601375000028000000
B1226325655643N01356017EA0127201371000028000000
B1226345655612N01356060EA0126801366000028000000
B1226365655580N01356105EA0126401362000028000000
B1226385655549N01356149EA0126101359000028000000
B1226405655518N01356193EA0125901358000028000000
B1226425655488N01356238EA0125601356000028000000
B1226445655458N01356284EA0125401353000028000000
B1226465655431N01356329EA0125301354000032000000
B1226485655404N01356374EA0125301357000032000000
B1226505655378N01356415EA0125701362000028000000
B1226525655353N01356458EA0126101362000028000000
B1226545655331N01356501EA0126201360000028000000
B1226565655310N01356547EA0126001357000028000000
B1226585655288N01356592EA0125501353000028000000
B1227005655266N01356636EA0125301353000028000000
B1227025655241N01356677EA0125201353000024000000
B1227045655215N01356717EA0124901345000024000000
B1227065655189N01356760EA0124301340000028000000
B1227085655160N01356804EA0123901337000028000000
B1227105655133N01356846EA0123601337000028000000
B1227125655106N01356887EA0123601337000028000000
B1227145655079N01356927EA0123601334000028000000
B1227165655051N01356972EA0123401328000028000000
B1227185655025N01357016EA0122601321000032000000
B1227205654997N01357061EA0122301316000032000000
B1227225654969N01357108EA0121601308000032000000
B1227245654941N01357158EA0120901301000032000000
B1227265654912N01357207EA0120301296000032000000
B1227285654884N01357256EA0119801294000032000000
B1227305654856N01357306EA0119601292000032000000
B1227325654829N01357355EA0119301287000032000000
B1227345654803N01357405EA0118901284000032000000
B1227365654778N01357455EA0118601286000032000000
B1227385654755N01357505EA0118801286000028000000
B1227405654733N01357553EA0118901288000028000000
B1227425654713N01357601EA0119201293000028000000
B1227445654694N01357646EA0119601292000028000000
B1227465654673N01357692EA0119301285000028000000
B1227485654651N01357739EA0119001279000028000000
B1227505654629N01357788EA0117901273000028000000
B1227525654605N01357836EA0117701272000028000000
B1227545654582N01357884EA0117801280000028000000
B1227565654564N01357931EA0118201290000028000000
B1227585654552N01357979EA0118901291000028000000
B1228005654553N01358031EA0119301291000028000000
B1228025654565N01358081EA0119401292000024000000
B1228045654582N01358123EA0119501295000024000000
B1228065654607N01358157EA0119701299000024000000
B1228085654635N01358175EA0120101303000024000000
B1228105654665N01358166EA0120601311000020000000
B1228125654690N01358134EA0121301316000020000000
B1228145654704N01358082EA0121801320000020000000
B1228165654705N01358027EA0122101323000020000000
B1228185654695N01357977EA0122401321000016000000
B1228205654674N01357935EA0122101314000016000000
B1228225654646N01357912EA0121601309000016000000
B1228245654616N01357913EA0121201311000016000000
B1228265654591N01357936EA0121401314000016000000
B1228285654575N01357973EA0121401313000016000000
B1228305654569N01358021EA0121401311000016000000
B1228325654572N01358070EA0121401316000016000000
B1228345654581N01358116EA0121901321000016000000
B1228365654594N01358157EA0122101320000016000000
B1228385654614N01358191EA0122101319000016000000
B1228405654642N01358208EA0122101322000020000000
B1228425654670N01358207EA0122201324000016000000
B1228445654699N01358190EA0122401321000016000000
B1228465654726N01358159EA0122201317000016000000
B1228485654750N01358114EA0121901317000020000000
B1228505654767N01358060EA0121801318000020000000
B1228525654774N01357997EA0121801318000020000000
B1228545654772N01357934EA0121901320000020000000
B1228565654757N01357875EA0122201322000020000000
B1228585654738N01357823EA0122501324000020000000
B1229005654718N01357774EA0122501324000020000000
B1229025654696N01357726EA0122401322000020000000
B1229045654676N01357678EA0122201321000020000000
B1229065654653N01357629EA0122001320000020000000
B1229085654633N01357584EA0122001320000020000000
B1229105654612N01357540EA0122001320000020000000
B1229125654591N01357494EA0122001316000020000000
B1229145654569N01357447EA0121701310000020000000
B1229165654547N01357399EA0121201307000020000000
B1229185654523N01357351EA0120901304000020000000
B1229205654499N01357302EA0120501298000020000000
B1229225654474N01357250EA0120101299000020000000
B1229245654451N01357202EA0120101305000020000000
B1229265654427N01357154EA0120501310000020000000
B1229285654404N01357107EA0121001313000020000000
B1229305654380N01357060EA0121401315000020000000
B1229325654357N01357012EA0121501317000020000000
B1229345654335N01356961EA0121801319000020000000
B1229365654319N01356901EA0122001321000020000000
B1229385654317N01356833EA0122101325000020000000
B1229405654326N01356770EA0122501329000020000000
B1229425654348N01356727EA0123001333000020000000
B1229445654377N01356709EA0123301336000020000000
B1229465654404N01356714EA0123601335000020000000
B1229485654426N01356742EA0123501336000020000000
B1229505654438N01356782EA0123601339000020000000
B1229525654439N01356827EA0123801342000016000000
B1229545654431N01356870EA0124001341000020000000
B1229565654414N01356908EA0124001342000020000000
B1229585654391N01356935EA0124201347000016000000
B1230005654364N01356950EA0124601351000020000000
B1230025654335N01356951EA0124901354000016000000
B1230045654304N01356937EA0125201357000020000000
B1230065654278N01356901EA0125601359000020000000
B1230085654258N01356851EA0125701360000020000000
B1230105654249N01356790EA0125801362000020000000
B1230125654254N01356729EA0126001365000016000000
B1230145654270N01356678EA0126401371000020000000
B1230165654293N01356647EA0127101377000020000000
B1230185654319N01356638EA0127501379000020000000
B1230205654341N01356649EA0127701381000016000000
B1230225654357N01356677EA0127801381000020000000
B1230245654367N01356713EA0127901380000016000000
B1230265654371N01356753EA0127801380000016000000
B1230285654371N01356796EA0127801382000016000000
B1230305654369N01356839EA0128001387000016000000
B1230325654364N01356881EA0128401390000016000000
B1230345654348N01356920EA0128801390000016000000
B1230365654325N01356948EA0128901393000016000000
B1230385654296N01356960EA0129201397000016000000
B1230405654265N01356947EA0129501398000016000000
B1230425654236N01356912EA0129501398000020000000
B1230445654215N01356861EA0129601400000020000000
B1230465654206N01356801EA0129801399000020000000
B1230485654210N01356739EA0129701397000020000000
B1230505654228N01356687EA0129501397000020000000
B1230525654254N01356656EA0129501401000020000000
B1230545654282N01356645EA0129901404000016000000
B1230565654309N01356651EA0130101405000020000000
B1230585654332N01356670EA0130301405000020000000
B1231005654351N01356701EA0130301406000016000000
B1231025654361N01356744EA0130401408000016000000
B1231045654360N01356791EA0130601411000016000000
B1231065654348N01356834EA0131001416000016000000
B1231085654327N01356865EA0131301421000016000000
B1231105654299N01356882EA0131801422000016000000
B1231125654267N01356877EA0131901427000016000000
B1231145654236N01356856EA0132301434000016000000
B1231165654210N01356820EA0132801437000016000000
B1231185654191N01356770EA0133201434000016000000
B1231205654179N01356710EA0133001430000016000000
B1231225654178N01356647EA0132601428000016000000
B1231245654188N01356588EA0132401426000016000000
B1231265654208N01356541EA0132201426000016000000
B1231285654234N01356514EA0132201427000020000000
B1231305654262N01356510EA0132301431000020000000
B1231325654287N01356526EA0132701434000020000000
B1231345654305N01356556EA0133001438000020000000
B1231365654315N01356595EA0133401437000020000000
B1231385654315N01356641EA0133201436000020000000
B1231405654304N01356684EA0133201437000020000000
B1231425654283N01356718EA0133301439000020000000
B1231445654254N01356736EA0133501442000020000000
B1231465654223N01356732EA0133701445000020000000
B1231485654192N01356706EA0133901446000020000000
B1231505654166N01356664EA0134101446000020000000
B1231525654150N01356606EA0134201444000020000000
B1231545654144N01356543EA0134001439000020000000
B1231565654152N01356479EA0133401434000020000000
B1231585654170N01356426EA0133101435000020000000
B1232005654195N01356391EA0133101437000020000000
B1232025654223N01356368EA0133201437000020000000
B1232045654253N01356363EA0133201435000020000000
B1232065654282N01356372EA0133101436000020000000
B1232085654310N01356389EA0133101436000020000000
B1232105654338N01356409EA0133201438000020000000
B1232125654364N01356431EA0133501441000020000000
B1232145654387N01356459EA0133701439000020000000
B1232165654406N01356498EA0133401434000020000000
B1232185654425N01356543EA0132801428000020000000
B1232205654442N01356592EA0132201420000020000000
B1232225654460N01356641EA0131601415000024000000
B1232245654479N01356692EA0131201414000024000000
B1232265654497N01356743EA0131201415000024000000
B1232285654514N01356794EA0131101414000024000000
B1232305654533N01356846EA0131201415000024000000
B1232325654551N01356895EA0131301417000028000000
B1232345654568N01356943EA0131501414000024000000
B1232365654586N01356992EA0131101409000024000000
B1232385654601N01357043EA0130701406000024000000
B1232405654618N01357095EA0130301402000024000000
B1232425654637N01357147EA0130101400000024000000
B1232445654655N01357198EA0129901402000024000000
B1232465654672N01357245EA0130101410000028000000
B1232485654694N01357281EA0130701415000024000000
B1232505654722N01357294EA0131301417000024000000
B1232525654754N01357288EA0131401415000024000000
B1232545654783N01357268EA0131301412000024000000
B1232565654812N01357237EA0131101412000024000000
B1232585654835N01357193EA0131001408000020000000
B1233005654850N01357133EA0130601405000020000000
B1233025654850N01357069EA0130401405000020000000
B1233045654837N01357012EA0130401404000020000000
B1233065654820N01356960EA0130401402000020000000
B1233085654802N01356907EA0130201402000020000000
B1233105654785N01356855EA0130101402000020000000
B1233125654765N01356807EA0130101398000020000000
B1233145654739N01356765EA0129601389000020000000
B1233165654711N01356729EA0128901386000020000000
B1233185654678N01356700EA0128401384000020000000
B1233205654646N01356682EA0128201382000020000000
B1233225654612N01356671EA0128101380000020000000
B1233245654579N01356666EA0127901378000020000000
B1233265654547N01356661EA0127601375000020000000
B1233285654514N01356654EA0127301373000020000000
B1233305654481N01356647EA0127101370000020000000
B1233325654447N01356640EA0127101374000024000000
B1233345654416N01356634EA0127501383000024000000
B1233365654386N01356625EA0128401388000020000000
B1233385654356N01356609EA0128701390000020000000
B1233405654331N01356575EA0129001390000020000000
B1233425654315N01356522EA0129001392000020000000
B1233445654315N01356461EA0129101393000020000000
B1233465654327N01356402EA0129201393000020000000
B1233485654349N01356355EA0129301398000020000000
B1233505654377N01356329EA0129701401000020000000
B1233525654405N01356322EA0130001402000020000000
B1233545654431N01356339EA0130201405000020000000
B1233565654449N01356372EA0130401404000020000000
B1233585654458N01356415EA0130401403000020000000
B1234005654453N01356461EA0130201399000020000000
B1234025654439N01356500EA0129901398000020000000
B1234045654416N01356528EA0129701401000020000000
B1234065654391N01356544EA0129901401000020000000
B1234085654362N01356545EA0129801397000020000000
B1234105654332N01356532EA0129401391000020000000
B1234125654305N01356498EA0128801384000020000000
B1234145654283N01356445EA0128301383000020000000
B1234165654270N01356381EA0128301385000020000000
B1234185654269N01356314EA0128501388000024000000
B1234205654278N01356246EA0128701390000024000000
B1234225654292N01356183EA0129001393000024000000
B1234245654309N01356123EA0129201396000020000000
B1234265654330N01356066EA0129401395000020000000
B1234285654352N01356011EA0129401394000020000000
B1234305654377N01355963EA0129201398000024000000
B1234325654405N01355925EA0129601405000024000000
B1234345654435N01355907EA0130201408000024000000
B1234365654465N01355916EA0130701412000020000000
B1234385654488N01355945EA0130901408000020000000
B1234405654505N01355984EA0130601401000024000000
B1234425654521N01356025EA0129901396000024000000
B1234445654543N01356060EA0129401392000024000000
B1234465654572N01356085EA0128701380000024000000
B1234485654608N01356092EA0127501366000028000000
B1234505654650N01356081EA0126101355000028000000
B1234525654692N01356062EA0125301353000032000000
B1234545654734N01356040EA0125201352000032000000
B1234565654774N01356012EA0124901347000032000000
B1234585654815N01355982EA0124601343000032000000
B1235005654855N01355950EA0124101341000032000000
B1235025654894N01355916EA0124001340000032000000
B1235045654933N01355881EA0123901338000032000000
B1235065654972N01355846EA0123601334000032000000
B1235085655011N01355809EA0123301331000032000000
B1235105655050N01355774EA0122901324000032000000
B1235125655092N01355737EA0122301317000032000000
B1235145655133N01355698EA0121601312000036000000
B1235165655175N01355659EA0121101311000036000000
B1235185655215N01355620EA0121001313000036000000
B1235205655253N01355582EA0121501331000036000000
B1235225655284N01355549EA0123301351000032000000
B1235245655311N01355520EA0125101357000028000000
B1235265655340N01355490EA0125501354000028000000
B1235285655370N01355458EA0125001347000024000000
B1235305655401N01355426EA0124401341000028000000
B1235325655433N01355392EA0124001338000028000000
B1235345655465N01355358EA0123801338000028000000
B1235365655497N01355323EA0123701334000028000000
B1235385655532N01355289EA0123401331000028000000
B1235405655566N01355257EA0123101336000028000000
B1235425655599N01355222EA0123401339000028000000
B1235445655631N01355189EA0123801344000028000000
B1235465655662N01355157EA0124301349000028000000
B1235485655693N01355124EA0124801350000028000000
B1235505655725N01355093EA0124901349000028000000
B1235525655757N01355065EA0124701345000028000000
B1235545655791N01355035EA0124301341000028000000
B1235565655825N01355003EA0124101342000028000000
B1235585655859N01354972EA0124101342000028000000
B1236005655891N01354938EA0124001338000028000000
B1236025655924N01354905EA0123601333000028000000
B1236045655956N01354868EA0123001327000028000000
B1236065655990N01354832EA0122501321000028000000
B1236085656024N01354794EA0121901315000028000000
B1236105656059N01354758EA0121401312000028000000
B1236125656094N01354720EA0121201311000028000000
B1236145656129N01354682EA0121001308000028000000
B1236165656164N01354646EA0120701304000028000000
B1236185656200N01354612EA0120401305000028000000
B1236205656236N01354581EA0120401306000032000000
B1236225656269N01354552EA0120601307000028000000
B1236245656304N01354522EA0120701310000028000000
B1236265656337N01354493EA0121101314000028000000
B1236285656369N01354463EA0121301311000028000000
B1236305656403N01354434EA0121101306000028000000
B1236325656437N01354405EA0120701302000028000000
B1236345656471N01354376EA0120201298000028000000
B1236365656505N01354346EA0119901295000028000000
B1236385656540N01354317EA0119701295000028000000
B1236405656574N01354290EA0119701296000028000000
B1236425656609N01354262EA0119801300000028000000
B1236445656641N01354236EA0120501312000028000000
B1236465656672N01354216EA0121801324000028000000
B1236485656701N01354196EA0122401329000028000000
B1236505656726N01354157EA0122901333000028000000
B1236525656735N01354099EA0123301340000024000000
B1236545656728N01354040EA0123901342000024000000
B1236565656709N01353991EA0124201341000020000000
B1236585656681N01353961EA0124301341000020000000
B1237005656652N01353956EA0124301345000020000000
B1237025656626N01353967EA0124601350000016000000
B1237045656603N01353989EA0125001350000016000000
B1237065656587N01354022EA0125001347000016000000
B1237085656576N01354062EA0124901347000016000000
B1237105656572N01354105EA0124801349000016000000
B1237125656572N01354149EA0124901350000020000000
B1237145656575N01354195EA0125101355000020000000
B1237165656579N01354238EA0125801362000020000000
B1237185656588N01354279EA0126101360000020000000
B1237205656607N01354311EA0126001358000020000000
B1237225656633N01354324EA0125901359000016000000
B1237245656662N01354321EA0125901358000016000000
B1237265656691N01354305EA0125901357000016000000
B1237285656718N01354277EA0125701359000016000000
B1237305656743N01354235EA0125901364000016000000
B1237325656758N01354182EA0126301369000016000000
B1237345656766N01354122EA0126901373000020000000
B1237365656763N01354057EA0127301374000020000000
B1237385656748N01353997EA0127501379000020000000
B1237405656722N01353950EA0127901386000020000000
B1237425656692N01353924EA0128601392000016000000
B1237445656662N01353918EA0129201394000020000000
B1237465656633N01353934EA0129401395000020000000
B1237485656614N01353967EA0129601402000020000000
B1237505656606N01354009EA0130301407000020000000
B1237525656610N01354051EA0130701409000020000000
B1237545656627N01354083EA0130901413000016000000
B1237565656652N01354096EA0131101414000020000000
B1237585656680N01354088EA0131401417000020000000
B1238005656709N01354062EA0131501421000020000000
B1238025656731N01354019EA0132001425000020000000
B1238045656745N01353961EA0132301428000016000000
B1238065656748N01353896EA0132601428000016000000
B1238085656740N01353826EA0132701429000020000000
B1238105656718N01353767EA0132901437000016000000
B1238125656688N01353731EA0133401444000016000000
B1238145656655N01353719EA0134101450000020000000
B1238165656627N01353732EA0134701453000020000000
B1238185656607N01353767EA0135101454000020000000
B1238205656597N01353811EA0135401461000020000000
B1238225656598N01353854EA0135901470000020000000
B1238245656609N01353892EA0136701475000020000000
B1238265656627N01353922EA0137301478000020000000
B1238285656650N01353939EA0137501480000020000000
B1238305656680N01353939EA0137601480000020000000
B1238325656709N01353919EA0137701483000020000000
B1238345656732N01353878EA0138101488000020000000
B1238365656746N01353820EA0138301490000020000000
B1238385656749N01353755EA0138701494000020000000
B1238405656737N01353693EA0138801496000020000000
B1238425656715N01353645EA0139101498000020000000
B1238445656684N01353618EA0139401505000020000000
B1238465656654N01353610EA0140001511000020000000
B1238485656627N01353624EA0140601514000020000000
B1238505656606N01353654EA0141001516000020000000
B1238525656594N01353696EA0141101519000020000000
B1238545656593N01353741EA0141501525000020000000
B1238565656600N01353784EA0142001529000020000000
B1238585656611N01353826EA0142201525000020000000
B1239005656627N01353865EA0141901522000024000000
B1239025656649N01353895EA0141801524000024000000
B1239045656675N01353913EA0142101533000020000000
B1239065656704N01353915EA0142601532000024000000
B1239085656733N01353902EA0142401524000024000000
B1239105656762N01353865EA0141801520000024000000
B1239125656780N01353805EA0141401518000024000000
B1239145656784N01353733EA0141201516000024000000
B1239165656772N01353666EA0141201522000024000000
B1239185656753N01353609EA0141601524000020000000
B1239205656730N01353557EA0141901527000020000000
B1239225656706N01353507EA0142201532000020000000
B1239245656681N01353460EA0142601540000020000000
B1239265656657N01353417EA0143301545000020000000
B1239285656629N01353382EA0143901548000020000000
B1239305656598N01353368EA0144301550000020000000
B1239325656568N01353377EA0144401551000020000000
B1239345656545N01353403EA0144401551000020000000
B1239365656535N01353446EA0144601556000020000000
B1239385656538N01353489EA0145001562000020000000
B1239405656557N01353518EA0145601565000020000000
B1239425656583N01353525EA0146001572000020000000
B1239445656610N01353512EA0146501572000020000000
B1239465656636N01353481EA0146501571000016000000
B1239485656659N01353436EA0146501574000020000000
B1239505656678N01353380EA0146701577000020000000
B1239525656691N01353316EA0147001581000020000000
B1239545656693N01353248EA0147601588000020000000
B1239565656687N01353182EA0147801593000020000000
B1239585656670N01353124EA0148401597000020000000
B1240005656646N01353082EA0148901600000020000000
B1240025656618N01353059EA0149201604000020000000
B1240045656589N01353055EA0149501607000020000000
B1240065656564N01353069EA0149801606000020000000
B1240085656546N01353102EA0149801603000020000000
B1240105656540N01353144EA0149501602000020000000
B1240125656542N01353189EA0149401607000020000000
B1240145656554N01353226EA0150001612000020000000
B1240165656571N01353258EA0150301614000020000000
B1240185656596N01353278EA0150701618000020000000
B1240205656623N01353289EA0151101625000016000000
B1240225656652N01353284EA0151601631000016000000
B1240245656680N01353261EA0152201634000016000000
B1240265656706N01353224EA0152501636000020000000
B1240275656717N01353199EA0152701638000020000000
B1240305656739N01353111EA0153001638000020000000
B1240325656746N01353042EA0153001638000020000000
B1240345656744N01352973EA0153101643000020000000
B1240365656732N01352910EA0153301647000020000000
B1240385656711N01352860EA0153701650000020000000
B1240405656685N01352823EA0154001650000020000000
B1240425656655N01352803EA0154101651000020000000
B1240445656627N01352803EA0154301651000020000000
B1240465656601N01352821EA0154301650000020000000
B1240485656583N01352856EA0154101649000020000000
B1240505656570N01352899EA0154101651000020000000
B1240525656562N01352943EA0154301656000020000000
B1240545656554N01352987EA0154501655000020000000
B1240565656549N01353034EA0154601656000020000000
B1240585656549N01353081EA0154701662000024000000
B1241005656551N01353128EA0155101658000024000000
B1241025656557N01353176EA0154601651000024000000
B1241045656564N01353226EA0154101653000028000000
B1241065656576N01353273EA0154201653000028000000
B1241085656592N01353317EA0154301653000028000000
B1241105656609N01353358EA0154301651000028000000
B1241125656626N01353399EA0154101650000028000000
B1241145656642N01353441EA0154001651000028000000
B1241165656659N01353481EA0154101654000028000000
B1241185656679N01353519EA0154401659000028000000
B1241205656697N01353554EA0154701663000024000000
B1241225656717N01353590EA0155201662000024000000
B1241245656736N01353629EA0155201659000024000000
B1241265656759N01353670EA0155001662000024000000
B1241285656784N01353709EA0155101667000028000000
B1241305656808N01353748EA0155501664000028000000
B1241325656834N01353787EA0155401657000028000000
B1241345656860N01353828EA0154801652000028000000
B1241365656886N01353870EA0154101647000028000000
B1241385656914N01353905EA0153601643000028000000
B1241405656945N01353940EA0153301641000028000000
B1241425656975N01353973EA0153201641000028000000
B1241445657004N01354006EA0153201644000028000000
B1241465657032N01354044EA0153401645000028000000
B1241485657058N01354082EA0153501646000028000000
B1241505657086N01354121EA0153601648000028000000
B1241525657112N01354160EA0153801650000028000000
B1241545657136N01354199EA0154001650000028000000
B1241565657162N01354236EA0154001649000028000000
B1241585657190N01354274EA0154101651000028000000
B1242005657214N01354311EA0154201656000028000000
B1242025657238N01354344EA0154501658000024000000
B1242045657263N01354376EA0154701656000024000000
B1242065657286N01354408EA0154701651000024000000
B1242085657311N01354442EA0154201640000024000000
B1242105657338N01354477EA0153201630000024000000
B1242125657364N01354517EA0152201625000024000000
B1242145657390N01354560EA0151701620000028000000
B1242165657416N01354606EA0151201616000028000000
B1242185657439N01354654EA0150801617000028000000
B1242205657458N01354707EA0150801616000028000000
B1242225657471N01354766EA0150701612000028000000
B1242245657478N01354828EA0150201607000028000000
B1242265657481N01354893EA0149801605000028000000
B1242285657478N01354957EA0149601605000028000000
B1242305657473N01355020EA0149601608000032000000
B1242325657468N01355080EA0150001614000028000000
B1242345657463N01355136EA0150501615000028000000
B1242365657455N01355192EA0150601611000028000000
B1242385657446N01355249EA0150201603000028000000
B1242405657435N01355308EA0149601596000028000000
B1242425657428N01355366EA0148801592000028000000
B1242445657426N01355426EA0148401590000028000000
B1242465657434N01355481EA0148201592000028000000
B1242485657448N01355530EA0148301592000028000000
B1242505657468N01355573EA0148201589000028000000
B1242525657493N01355608EA0148001583000028000000
B1242545657524N01355634EA0147301575000028000000
B1242565657558N01355651EA0146501570000028000000
B1242585657595N01355661EA0146201570000028000000
B1243005657632N01355664EA0146101570000028000000
B1243025657669N01355661EA0146201570000028000000
B1243045657706N01355656EA0146201571000028000000
B1243065657742N01355650EA0146201567000028000000
B1243085657780N01355639EA0145801561000028000000
B1243105657819N01355626EA0145201558000028000000
B1243125657857N01355613EA0145101557000028000000
B1243145657894N01355601EA0144901556000024000000
B1243165657931N01355599EA0144801554000024000000
B1243185657965N01355614EA0144601553000024000000
B1243205657993N01355642EA0144501551000024000000
B1243225658018N01355674EA0144401552000024000000
B1243245658043N01355705EA0144401555000024000000
B1243265658066N01355737EA0144601550000028000000
B1243285658091N01355768EA0144201540000024000000
B1243305658117N01355804EA0143301528000024000000
B1243325658143N01355846EA0142401527000028000000
B1243345658169N01355887EA0142201531000028000000
B1243365658189N01355933EA0142401533000028000000
B1243385658206N01355982EA0142701535000028000000
B1243405658222N01356033EA0142801537000028000000
B1243425658238N01356082EA0142901538000028000000
B1243445658253N01356132EA0143201539000028000000
B1243465658270N01356181EA0143201541000028000000
B1243485658288N01356228EA0143501546000028000000
B1243505658304N01356276EA0143901549000028000000
B1243525658318N01356327EA0144001547000028000000
B1243545658331N01356380EA0143901544000028000000
B1243565658345N01356437EA0143701540000028000000
B1243585658358N01356498EA0143201534000028000000
B1244005658370N01356561EA0142901546000028000000
B1244025658387N01356608EA0143901568000028000000
B1244045658413N01356626EA0145901582000028000000
B1244065658439N01356617EA0147301587000024000000
B1244085658461N01356587EA0147901583000024000000
B1244105658477N01356536EA0147501574000020000000
B1244125658482N01356472EA0146801570000020000000
B1244145658479N01356410EA0146401574000020000000
B1244165658470N01356353EA0146701576000020000000
B1244185658457N01356302EA0147001578000016000000
B1244205658442N01356254EA0147101576000016000000
B1244225658423N01356206EA0146901572000016000000
B1244245658404N01356153EA0146601570000016000000
B1244265658384N01356102EA0146401573000016000000
B1244285658365N01356054EA0146701578000016000000
B1244305658344N01356008EA0147001580000016000000
B1244325658322N01355965EA0147201578000016000000
B1244345658297N01355923EA0147001578000016000000
B1244365658270N01355882EA0147101582000016000000
B1244385658243N01355848EA0147501582000016000000
B1244405658213N01355821EA0147501583000016000000
B1244425658182N01355802EA0147801586000036000000
B1244445658152N01355795EA0148401589000080000000
B1244465658122N01355795EA0148801592000120000000
B1244485658093N01355799EA0149001593000152000000
B1244505658067N01355812EA0149201592000168000000
B1244525658044N01355838EA0149101588000180000000
B1244545658030N01355877EA0148801587000196000000
B1244565658027N01355923EA0148501583000200000000
B1244585658035N01355968EA0148201578000216000000
B1245005658053N01356006EA0147701575000220000000
B1245025658080N01356025EA0147101576000196000000
B1245045658110N01356027EA0146901577000160000000
B1245065658141N01356006EA0147001577000124000000
B1245085658169N01355965EA0146801572000100000000
B1245105658188N01355904EA0146401570000084000000
B1245125658199N01355833EA0146301573000076000000
B1245145658202N01355761EA0146601578000064000000
B1245165658202N01355691EA0146801583000056000000
B1245185658193N01355626EA0147301589000048000000
B1245205658171N01355574EA0147901592000040000000
B1245225658143N01355543EA0148201593000040000000
B1245245658113N01355536EA0148401595000036000000
B1245265658087N01355549EA0148601596000028000000
B1245285658069N01355579EA0148701594000028000000
B1245305658061N01355620EA0148501594000024000000
B1245325658067N01355659EA0148501598000024000000
B1245345658083N01355687EA0148901600000020000000
B1245365658108N01355699EA0149101600000020000000
B1245385658135N01355694EA0149201600000020000000
B1245405658161N01355674EA0149201601000020000000
B1245425658186N01355640EA0149201601000020000000
B1245445658204N01355592EA0149201603000020000000
B1245465658213N01355533EA0149501607000020000000
B1245485658210N01355471EA0149801610000020000000
B1245505658197N01355414EA0150001611000016000000
B1245525658175N01355369EA0150101610000016000000
B1245545658148N01355336EA0150001609000016000000
B1245565658118N01355319EA0149901610000016000000
B1245585658089N01355318EA0150001611000016000000
B1246005658063N01355334EA0150101609000016000000
B1246025658043N01355361EA0149901607000016000000
B1246045658026N01355395EA0149801607000016000000
B1246065658013N01355432EA0149801608000016000000
B1246085658004N01355473EA0149901606000020000000
B1246105658006N01355514EA0149701605000020000000
B1246125658022N01355548EA0149601604000016000000
B1246145658045N01355568EA0149501600000020000000
B1246165658072N01355579EA0149201598000020000000
B1246185658101N01355586EA0148901598000020000000
B1246205658130N01355588EA0148801596000020000000
B1246225658160N01355587EA0148801597000020000000
B1246245658189N01355583EA0148901599000020000000
B1246265658218N01355579EA0149101601000020000000
B1246285658248N01355572EA0149201600000020000000
B1246305658278N01355564EA0149201600000020000000
B1246325658308N01355553EA0149201602000020000000
B1246345658338N01355540EA0149301605000020000000
B1246365658366N01355516EA0149501606000020000000
B1246385658390N01355471EA0149701607000020000000
B1246405658401N01355409EA0149701608000020000000
B1246425658399N01355344EA0149901610000020000000
B1246445658383N01355287EA0150101611000020000000
B1246465658360N01355243EA0150201611000016000000
B1246485658332N01355215EA0150201611000016000000
B1246505658304N01355204EA0150201611000012000000
B1246525658277N01355205EA0150301613000012000000
B1246545658252N01355219EA0150301614000012000000
B1246565658232N01355244EA0150401613000016000000
B1246585658219N01355279EA0150401613000016000000
B1247005658215N01355318EA0150401614000016000000
B1247025658222N01355354EA0150501615000016000000
B1247045658241N01355378EA0150601615000020000000
B1247065658267N01355377EA0150601614000020000000
B1247085658295N01355345EA0150401610000016000000
B1247105658312N01355289EA0150101608000016000000
B1247125658314N01355223EA0150001610000020000000
B1247145658305N01355159EA0150001610000020000000
B1247165658290N01355100EA0150101610000020000000
B1247185658269N01355046EA0150201614000020000000
B1247205658247N01355000EA0150401617000020000000
B1247225658222N01354957EA0150701617000020000000
B1247245658196N01354918EA0150801617000016000000
B1247265658170N01354879EA0150701616000016000000
B1247285658141N01354844EA0150601615000016000000
B1247305658110N01354818EA0150401615000016000000
B1247325658080N01354806EA0150501616000016000000
B1247345658052N01354806EA0150701617000020000000
B1247365658023N01354814EA0150901616000016000000
B1247385657996N01354824EA0150601615000016000000
B1247405657968N01354834EA0150501614000020000000
B1247425657942N01354846EA0150501614000020000000
B1247445657915N01354855EA0150401612000020000000
B1247465657885N01354860EA0150301608000020000000
B1247485657855N01354864EA0149901603000020000000
B1247505657825N01354868EA0149401598000020000000
B1247525657794N01354872EA0149001592000020000000
B1247545657762N01354876EA0148301583000020000000
B1247565657727N01354880EA0147601576000020000000
B1247585657692N01354881EA0147001576000020000000
B1248005657656N01354880EA0146901579000020000000
B1248025657621N01354879EA0147001583000020000000
B1248045657589N01354877EA0147601589000020000000
B1248065657558N01354872EA0148001590000020000000
B1248085657526N01354870EA0148101589000020000000
B1248105657495N01354870EA0148001589000020000000
B1248125657464N01354868EA0147801586000020000000
B1248145657433N01354868EA0147601581000020000000
B1248165657399N01354867EA0147101576000020000000
B1248185657365N01354863EA0146901571000020000000
B1248205657331N01354858EA0146301568000020000000
B1248225657296N01354847EA0146001567000020000000
B1248245657261N01354827EA0145701563000020000000
B1248265657227N01354798EA0145401558000024000000
B1248285657194N01354764EA0144901552000020000000
B1248305657161N01354730EA0144301549000020000000
B1248325657127N01354703EA0144101551000020000000
B1248345657094N01354691EA0144301552000020000000
B1248365657061N01354686EA0144401551000020000000
B1248385657029N01354684EA0144401551000020000000
B1248405656996N01354684EA0144301549000020000000
B1248425656964N01354690EA0144101547000020000000
B1248445656936N01354710EA0144001548000020000000
B1248465656919N01354746EA0144001546000020000000
B1248485656917N01354792EA0143801543000020000000
B1248505656928N01354834EA0143501538000020000000
B1248525656953N01354860EA0143301538000020000000
B1248545656983N01354871EA0143201536000020000000
B1248565657014N01354876EA0143101531000020000000
B1248585657044N01354888EA0142501524000020000000
B1249005657077N01354903EA0141801512000020000000
B1249025657109N01354923EA0140601503000024000000
B1249045657143N01354946EA0139601497000024000000
B1249065657175N01354971EA0139001492000024000000
B1249085657209N01354996EA0138601490000024000000
B1249105657243N01355018EA0138401490000024000000
B1249125657276N01355039EA0138501490000024000000
B1249145657307N01355058EA0138401490000024000000
B1249165657338N01355078EA0138501490000024000000
B1249185657368N01355096EA0138601490000024000000
B1249205657398N01355114EA0138701491000024000000
B1249225657428N01355132EA0138601490000024000000
B1249245657458N01355152EA0138501489000024000000
B1249265657486N01355169EA0138501489000024000000
B1249285657516N01355185EA0138501488000024000000
B1249305657545N01355204EA0138401487000024000000
B1249325657572N01355224EA0138401487000024000000
B1249345657599N01355245EA0138501489000020000000
B1249365657627N01355263EA0138601488000020000000
B1249385657654N01355283EA0138501483000020000000
B1249405657682N01355305EA0138101485000020000000
B1249425657708N01355326EA0138201485000020000000
B1249445657737N01355347EA0138201478000020000000
B1249465657767N01355369EA0137701474000020000000
B1249485657796N01355393EA0137201473000020000000
B1249505657825N01355418EA0137101474000020000000
B1249525657854N01355442EA0137201474000024000000
B1249545657883N01355464EA0137101472000024000000
B1249565657911N01355488EA0137001472000024000000
B1249585657937N01355517EA0136901468000024000000
B1250005657965N01355546EA0136601462000024000000
B1250025657992N01355577EA0136001457000024000000
B1250045658019N01355612EA0135601458000024000000
B1250065658043N01355647EA0135701462000024000000
B1250085658066N01355679EA0136201469000028000000
B1250105658087N01355712EA0136801474000024000000
B1250125658105N01355751EA0137201474000024000000
B1250145658119N01355794EA0137201475000024000000
B1250165658132N01355841EA0137401478000024000000
B1250185658136N01355890EA0137801484000024000000
B1250205658128N01355938EA0138401492000024000000
B1250225658109N01355973EA0139101497000024000000
B1250245658082N01355990EA0139501502000024000000
B1250265658052N01355984EA0139801505000020000000
B1250285658024N01355951EA0140001506000020000000
B1250305658006N01355900EA0140101505000020000000
B1250325658001N01355838EA0140001504000020000000
B1250345658010N01355781EA0140001507000020000000
B1250365658030N01355737EA0140201509000016000000
B1250385658054N01355713EA0140501511000020000000
B1250405658082N01355711EA0140701512000016000000
B1250425658105N01355730EA0140801514000020000000
B1250445658123N01355761EA0140901515000020000000
B1250465658135N01355800EA0141001517000020000000
B1250485658140N01355843EA0141101517000020000000
B1250505658132N01355889EA0141101517000020000000
B1250525658111N01355921EA0141201519000020000000
B1250545658082N01355934EA0141501522000020000000
B1250565658050N01355924EA0141901527000020000000
B1250585658022N01355893EA0142001529000020000000
B1251005658004N01355842EA0142301531000020000000
B1251025657997N01355781EA0142401531000020000000
B1251045658005N01355724EA0142601533000020000000
B1251065658026N01355682EA0142801533000020000000
B1251085658052N01355657EA0142801531000020000000
B1251105658080N01355655EA0142801533000020000000
B1251125658106N01355669EA0142801536000020000000
B1251145658130N01355692EA0143001536000020000000
B1251165658149N01355724EA0143101535000020000000
B1251185658161N01355765EA0143101537000020000000
B1251205658162N01355813EA0143201540000020000000
B1251225658152N01355858EA0143501542000020000000
B1251245658131N01355893EA0143501541000020000000
B1251265658104N01355910EA0143701545000020000000
B1251285658074N01355903EA0144101549000020000000
B1251305658045N01355874EA0144301549000020000000
B1251325658026N01355826EA0144301552000016000000
B1251345658020N01355767EA0144501554000016000000
B1251365658027N01355709EA0144801558000016000000
B1251385658043N01355663EA0145001560000016000000
B1251405658065N01355629EA0145301562000016000000
B1251425658091N01355609EA0145601563000016000000
B1251445658117N01355601EA0145701562000016000000
B1251465658141N01355608EA0145601564000020000000
B1251485658162N01355631EA0145701564000020000000
B1251505658175N01355666EA0145801564000020000000
B1251525658180N01355708EA0145801563000020000000
B1251545658176N01355751EA0145701564000016000000
B1251565658163N01355789EA0145701565000016000000
B1251585658141N01355815EA0145801565000016000000
B1252005658114N01355826EA0145901568000016000000
B1252025658087N01355821EA0146301571000016000000
B1252045658059N01355802EA0146401571000020000000
B1252065658035N01355764EA0146401570000020000000
B1252085658019N01355713EA0146401569000016000000
B1252105658013N01355655EA0146401571000016000000
B1252125658017N01355598EA0146601574000016000000
B1252145658032N01355551EA0146701577000016000000
B1252165658054N01355521EA0147001578000016000000
B1252185658080N01355509EA0147101577000016000000
B1252205658105N01355516EA0147001576000016000000
B1252225658127N01355539EA0147001574000016000000
B1252245658140N01355578EA0146701574000016000000
B1252265658141N01355621EA0146701576000016000000
B1252285658134N01355661EA0146901579000016000000
B1252305658117N01355692EA0147101582000016000000
B1252325658093N01355711EA0147401583000012000000
B1252345658067N01355716EA0147601581000012000000
B1252365658039N01355704EA0147501580000012000000
B1252385658013N01355678EA0147201580000016000000
B1252405657992N01355638EA0147101580000016000000
B1252425657979N01355585EA0147001578000016000000
B1252445657976N01355526EA0146901578000016000000
B1252465657984N01355471EA0147101582000012000000
B1252485658002N01355430EA0147501584000012000000
B1252505658026N01355405EA0147601584000012000000
B1252525658052N01355399EA0147601584000016000000
B1252545658076N01355410EA0147701585000016000000
B1252565658096N01355438EA0147701583000016000000
B1252585658106N01355478EA0147401581000016000000
B1253005658106N01355523EA0147201579000016000000
B1253025658095N01355566EA0147101581000016000000
B1253045658078N01355600EA0147201584000016000000
B1253065658053N01355621EA0147501585000016000000
B1253085658026N01355625EA0147701584000016000000
B1253105657996N01355609EA0147701584000016000000
B1253125657970N01355577EA0147701586000016000000
B1253145657953N01355529EA0147801587000016000000
B1253165657945N01355473EA0147801584000012000000
B1253185657948N01355414EA0147601582000016000000
B1253205657962N01355362EA0147401580000016000000
B1253225657984N01355322EA0147301582000016000000
B1253245658009N01355297EA0147401586000016000000
B1253265658036N01355283EA0147801587000016000000
B1253285658062N01355279EA0147901586000020000000
B1253305658088N01355289EA0147801585000020000000
B1253325658109N01355314EA0147801585000016000000
B1253345658123N01355348EA0147801585000016000000
B1253365658131N01355390EA0147701584000016000000
B1253385658131N01355432EA0147501582000016000000
B1253405658127N01355477EA0147401581000016000000
B1253425658115N01355518EA0147301581000016000000
B1253445658098N01355556EA0147401583000020000000
B1253465658078N01355586EA0147601584000020000000
B1253485658052N01355604EA0147701585000020000000
B1253505658023N01355616EA0147601578000020000000
B1253525657997N01355639EA0146701570000020000000
B1253545657974N01355677EA0146101568000020000000
B1253565657955N01355720EA0145901572000024000000
B1253585657939N01355764EA0146101571000024000000
B1254005657923N01355811EA0145901567000024000000
B1254025657907N01355858EA0145601566000024000000
B1254045657892N01355904EA0145401562000024000000
B1254065657876N01355955EA0145201555000024000000
B1254085657858N01356007EA0144601551000024000000
B1254105657841N01356060EA0144201547000024000000
B1254125657823N01356115EA0143701543000024000000
B1254145657803N01356171EA0143401541000024000000
B1254165657784N01356227EA0143101539000028000000
B1254185657766N01356283EA0143001540000028000000
B1254205657746N01356337EA0142901539000028000000
B1254225657728N01356393EA0142801536000028000000
B1254245657710N01356449EA0142601533000028000000
B1254265657693N01356506EA0142201529000028000000
B1254285657676N01356563EA0141901527000028000000
B1254305657660N01356621EA0141601524000028000000
