ACAM3RL
HFDTE160703
HFFXA050
HFPLTPILOT:Peter Cutting           
HFGTYGLIDERTYPE:LS8-t       
HFGIDGLIDERID:SE-USP      
HFDTM100GPSDATUM:
HFRFWFIRMWAREVERSION:F2.6
HFRHWHARDWAREVERSION:300 Series Version 2
HFFTYFRTYPE:CAMBRIDGE AERO INSTRUMENTS, 302+
HFGPS:GARMIN,LVS-25,12,18000
HFPRSPRESSALTSENSOR:INTERSEMA, MS5534-AP, 20000
I033638FXA3941ENL4247REX
LCAMSBVER:5FWVER:F26300
C160703095645160703000102
C0000000N00000000WTAKEOFF     
C5657250N01355580EFeringe flp 
C5628250N01334480EMarkaryd ka 
C5636300N01353830EHangsjnSspts
C5657250N01355580EFeringe flp 
C0000000N00000000WLANDING     
B1051325656899N01355224EA0011000168000048000000
B1051345656899N01355224EA0011000168000044000000
B1051365656897N01355224EA0010900168000036000000
B1051385656897N01355224EA0010900168000032000000
B1051405656897N01355224EA0010900168000028000000
B1051425656897N01355224EA0010900168000024000000
B1051445656897N01355224EA0010900168000024000000
B1051465656897N01355224EA0010900168000020000000
B1051485656897N01355223EA0010900168000020000000
B1051505656897N01355223EA0010900168000020000000
B1051525656897N01355223EA0010800168000020000000
B1051545656897N01355223EA0010800168000016000000
B1051565656897N01355223EA0010800168000012000000
B1051585656897N01355223EA0010800168000016000000
B1052005656901N01355224EA0010900168000020000000
B1052015656904N01355226EA0010900168000028000000
B1052035656912N01355231EA0010900167000044000000
B1052055656925N01355237EA0010900168000120000000
B1052075656941N01355248EA0010900167000172000000
B1052095656961N01355258EA0010900167000208000000
B1052115656984N01355270EA0011000167000260000000
B1052135657010N01355283EA0010900168000228000000
B1052155657040N01355296EA0011100169000212000000
B1052175657070N01355310EA0011200170000200000000
B1052195657103N01355330EA0011200172000192000000
B1052215657136N01355351EA0011400174000192000000
B1052235657170N01355369EA0011600181000188000000
B1052255657204N01355387EA0012100188000180000000
B1052275657238N01355405EA0012800195000184000000
B1052295657272N01355421EA0013500204000184000000
B1052315657304N01355440EA0014300213000180000000
B1052335657337N01355457EA0015100221000180000000
B1052355657369N01355470EA0015900228000172000000
B1052375657403N01355486EA0016700236000156000000
B1052395657437N01355504EA0017300242000152000000
B1052415657471N01355520EA0017900245000148000000
B1052435657504N01355534EA0018300253000160000000
B1052455657537N01355551EA0019100264000156000000
B1052475657567N01355570EA0020000272000160000000
B1052495657599N01355588EA0021000279000156000000
B1052515657632N01355607EA0021600283000152000000
B1052535657663N01355629EA0022000288000156000000
B1052555657694N01355653EA0022200293000156000000
B1052575657727N01355676EA0023100297000164000000
B1052595657759N01355695EA0023500304000164000000
B1053015657792N01355716EA0023800310000168000000
B1053035657824N01355735EA0024400316000164000000
B1053055657855N01355755EA0025000323000156000000
B1053075657885N01355780EA0025800332000148000000
B1053095657916N01355800EA0026500337000148000000
B1053115657950N01355819EA0027200343000144000000
B1053135657983N01355841EA0027600348000144000000
B1053155658015N01355861EA0028200354000160000000
B1053175658048N01355884EA0028800360000156000000
B1053195658082N01355902EA0029300365000152000000
B1053215658115N01355921EA0029900369000144000000
B1053235658148N01355942EA0030400378000136000000
B1053255658180N01355964EA0031000384000144000000
B1053275658212N01355985EA0031700393000148000000
B1053295658245N01356006EA0032600404000160000000
B1053315658277N01356027EA0033600414000148000000
B1053335658306N01356050EA0034700427000152000000
B1053355658338N01356072EA0035800435000152000000
B1053375658366N01356094EA0036500441000148000000
B1053395658396N01356115EA0037200450000156000000
B1053415658426N01356136EA0038000456000160000000
B1053435658456N01356155EA0038700463000160000000
B1053455658487N01356175EA0039300467000168000000
B1053475658517N01356198EA0039600471000164000000
B1053495658548N01356222EA0040000472000132000000
B1053515658582N01356238EA0040100478000120000000
B1053535658615N01356255EA0040600486000096000000
B1053555658647N01356272EA0041300492000088000000
B1053575658678N01356289EA0042100503000076000000
B1053595658709N01356307EA0042800509000068000000
B1054015658742N01356324EA0043600514000060000000
B1054035658773N01356341EA0044200521000052000000
B1054055658804N01356357EA0044900531000052000000
B1054075658834N01356375EA0045700536000044000000
B1054095658864N01356394EA0046400542000040000000
B1054115658895N01356413EA0046900549000040000000
B1054135658927N01356427EA0047600557000036000000
B1054155658958N01356440EA0048300564000036000000
B1054175658989N01356454EA0049100571000036000000
B1054195659020N01356466EA0049700575000032000000
B1054215659053N01356474EA0050100580000032000000
B1054235659085N01356483EA0050500583000032000000
B1054255659118N01356493EA0050900586000032000000
B1054275659151N01356500EA0051200589000032000000
B1054295659187N01356500EA0051600596000032000000
B1054315659222N01356502EA0052200602000028000000
B1054335659255N01356505EA0052800610000028000000
B1054355659289N01356506EA0053700619000032000000
B1054375659324N01356504EA0054700631000028000000
B1054395659359N01356502EA0055600637000028000000
B1054415659396N01356501EA0056100642000032000000
B1054435659432N01356498EA0056800650000032000000
B1054455659469N01356495EA0057200655000032000000
B1054475659505N01356492EA0058000661000032000000
B1054495659540N01356484EA0058700669000032000000
B1054515659577N01356465EA0059500678000032000000
B1054535659612N01356433EA0060100682000032000000
B1054555659643N01356388EA0060400685000032000000
B1054575659668N01356331EA0060700689000028000000
B1054595659687N01356264EA0061000693000028000000
B1055015659699N01356193EA0061500697000028000000
B1055035659700N01356119EA0061800700000028000000
B1055055659696N01356045EA0062100702000028000000
B1055075659683N01355976EA0062300706000028000000
B1055095659662N01355916EA0062700709000028000000
B1055115659639N01355863EA0063100716000028000000
B1055135659616N01355809EA0063600722000028000000
B1055155659590N01355759EA0064400728000028000000
B1055175659565N01355709EA0064900732000028000000
B1055195659538N01355661EA0065400739000028000000
B1055215659512N01355616EA0065900743000028000000
B1055235659484N01355572EA0066300750000028000000
B1055255659457N01355529EA0067000759000028000000
B1055275659430N01355484EA0067800764000028000000
B1055295659402N01355443EA0068200768000028000000
B1055315659375N01355400EA0068600775000028000000
B1055335659348N01355356EA0069000781000028000000
B1055355659319N01355310EA0069900784000028000000
B1055375659291N01355267EA0070100788000028000000
B1055395659262N01355224EA0070400792000028000000
B1055415659233N01355182EA0070900797000028000000
B1055435659205N01355141EA0071700805000028000000
B1055455659176N01355101EA0072000811000028000000
B1055475659149N01355059EA0072700817000028000000
B1055495659120N01355022EA0073400827000028000000
B1055515659090N01354985EA0074200832000028000000
B1055535659063N01354945EA0074700836000028000000
B1055555659037N01354901EA0075300844000028000000
B1055575659011N01354855EA0075900850000028000000
B1055595658984N01354812EA0076700857000028000000
B1056015658956N01354767EA0077300863000028000000
B1056035658930N01354719EA0077900868000028000000
B1056055658903N01354672EA0078400874000028000000
B1056075658875N01354625EA0079100880000028000000
B1056095658847N01354577EA0079500885000028000000
B1056115658819N01354529EA0080000891000028000000
B1056135658791N01354482EA0080800899000028000000
B1056155658764N01354435EA0081500905000028000000
B1056175658737N01354389EA0082000911000028000000
B1056195658708N01354340EA0082800920000028000000
B1056215658680N01354294EA0083300932000028000000
B1056235658652N01354251EA0084400946000036000000
B1056255658625N01354214EA0085600958000032000000
B1056275658596N01354200EA0087200964000028000000
B1056295658570N01354212EA0087500964000028000000
B1056315658552N01354243EA0087600963000024000000
B1056335658548N01354288EA0087600967000024000000
B1056355658559N01354327EA0087700973000024000000
B1056375658578N01354355EA0088200975000024000000
B1056395658605N01354368EA0088500975000020000000
B1056415658635N01354363EA0088600975000020000000
B1056435658664N01354338EA0088700977000020000000
B1056455658689N01354299EA0088800980000020000000
B1056475658711N01354252EA0089100981000016000000
B1056495658724N01354194EA0089200979000020000000
B1056515658725N01354129EA0089200981000016000000
B1056535658715N01354069EA0089400988000020000000
B1056555658693N01354023EA0090000994000020000000
B1056575658665N01354001EA0090400998000020000000
B1056595658639N01354004EA0090800998000020000000
B1057015658618N01354030EA0090800995000020000000
B1057035658609N01354073EA0090700995000020000000
B1057055658617N01354118EA0090700998000020000000
B1057075658638N01354149EA0090901001000020000000
B1057095658665N01354160EA0091301005000016000000
B1057115658695N01354145EA0091701007000016000000
B1057135658722N01354116EA0092001009000016000000
B1057155658748N01354078EA0092101011000020000000
B1057175658771N01354035EA0092101012000016000000
B1057195658787N01353979EA0092101008000020000000
B1057215658790N01353913EA0092001007000020000000
B1057235658777N01353852EA0091901009000020000000
B1057255658755N01353807EA0092101016000020000000
B1057275658728N01353784EA0092801019000020000000
B1057295658700N01353788EA0093001018000020000000
B1057315658683N01353820EA0093001019000020000000
B1057335658683N01353862EA0093101020000020000000
B1057355658699N01353896EA0093301025000016000000
B1057375658724N01353911EA0093601029000016000000
B1057395658751N01353906EA0094101032000016000000
B1057415658777N01353882EA0094401036000012000000
B1057435658798N01353840EA0094701038000012000000
B1057455658813N01353791EA0094901037000012000000
B1057475658826N01353733EA0094701034000012000000
B1057495658838N01353675EA0094501034000012000000
B1057515658850N01353614EA0094401033000012000000
B1057535658860N01353550EA0094401036000012000000
B1057555658863N01353485EA0094801040000012000000
B1057575658850N01353425EA0095101044000016000000
B1057595658825N01353389EA0095601048000016000000
B1058015658800N01353384EA0096001051000016000000
B1058035658781N01353406EA0096001048000016000000
B1058055658773N01353442EA0095801044000016000000
B1058075658780N01353480EA0095501043000016000000
B1058095658799N01353507EA0095401044000016000000
B1058115658825N01353512EA0095601047000016000000
B1058135658852N01353493EA0096001052000016000000
B1058155658878N01353460EA0096301056000016000000
B1058175658901N01353421EA0096501058000016000000
B1058195658919N01353371EA0096801058000012000000
B1058215658927N01353310EA0096901058000012000000
B1058235658923N01353246EA0096801062000012000000
B1058255658906N01353193EA0097101067000012000000
B1058275658880N01353163EA0097601070000016000000
B1058295658855N01353163EA0098001070000016000000
B1058315658838N01353187EA0097801065000016000000
B1058335658837N01353229EA0097601063000020000000
B1058355658854N01353263EA0097301067000020000000
B1058375658878N01353281EA0097601071000020000000
B1058395658906N01353285EA0098001074000020000000
B1058415658936N01353261EA0098201075000016000000
B1058435658956N01353211EA0098201076000016000000
B1058455658962N01353144EA0098401078000016000000
B1058475658951N01353083EA0098601080000016000000
B1058495658927N01353043EA0098801085000016000000
B1058515658901N01353031EA0099201092000016000000
B1058535658878N01353043EA0099901096000016000000
B1058555658867N01353070EA0100401097000016000000
B1058575658867N01353105EA0100401098000016000000
B1058595658878N01353137EA0100501099000016000000
B1059015658901N01353157EA0100501100000016000000
B1059035658927N01353161EA0100801106000012000000
B1059055658955N01353150EA0101201107000012000000
B1059075658981N01353117EA0101201104000012000000
B1059095659002N01353066EA0100901102000012000000
B1059115659012N01353004EA0100901104000012000000
B1059135659012N01352940EA0100901106000012000000
B1059155659003N01352881EA0101201108000012000000
B1059175658986N01352829EA0101501109000012000000
B1059195658962N01352795EA0101601111000012000000
B1059215658936N01352780EA0101701114000016000000
B1059235658910N01352782EA0102001117000016000000
B1059255658889N01352793EA0102301116000016000000
B1059275658871N01352818EA0102201113000016000000
B1059295658862N01352853EA0102001111000020000000
B1059315658860N01352892EA0101801113000020000000
B1059335658869N01352929EA0101901117000016000000
B1059355658885N01352959EA0102101114000016000000
B1059375658908N01352982EA0101901110000016000000
B1059395658936N01352996EA0101601110000016000000
B1059415658967N01352991EA0101601112000016000000
B1059435658997N01352968EA0101801116000016000000
B1059455659023N01352930EA0102101119000016000000
B1059475659044N01352878EA0102301118000016000000
B1059495659055N01352813EA0102401118000016000000
B1059515659055N01352747EA0102401120000016000000
B1059535659046N01352684EA0102601121000012000000
B1059555659027N01352635EA0102701119000012000000
B1059575659001N01352602EA0102501115000012000000
B1059595658972N01352595EA0102101115000012000000
B1100015658949N01352611EA0102101118000012000000
B1100035658934N01352643EA0102401121000016000000
B1100055658933N01352682EA0102601124000016000000
B1100075658941N01352718EA0102901130000016000000
B1100095658958N01352744EA0103401134000016000000
B1100115658984N01352749EA0103801134000016000000
B1100135659011N01352731EA0103801133000016000000
B1100155659034N01352687EA0103801133000020000000
B1100175659047N01352627EA0103701133000016000000
B1100195659049N01352563EA0103801138000016000000
B1100215659041N01352504EA0104301141000016000000
B1100235659029N01352449EA0104501140000016000000
B1100255659014N01352400EA0104401138000016000000
B1100275658992N01352359EA0104201135000012000000
B1100295658966N01352336EA0104101136000016000000
B1100315658940N01352332EA0104101137000016000000
B1100335658920N01352349EA0104201138000016000000
B1100355658911N01352377EA0104301139000016000000
B1100375658914N01352410EA0104301138000016000000
B1100395658927N01352440EA0104401140000016000000
B1100415658945N01352461EA0104501140000016000000
B1100435658967N01352476EA0104601141000016000000
B1100455658994N01352481EA0104501143000016000000
B1100475659021N01352472EA0104701144000016000000
B1100495659050N01352454EA0104801143000016000000
B1100515659079N01352435EA0104801143000016000000
B1100535659107N01352416EA0104701147000016000000
B1100555659136N01352402EA0105001151000016000000
B1100575659163N01352388EA0105501154000016000000
B1100595659190N01352380EA0105901155000016000000
B1101015659215N01352389EA0105901155000016000000
B1101035659233N01352415EA0105901157000016000000
B1101055659244N01352448EA0106101159000012000000
B1101075659245N01352483EA0106301160000012000000
B1101095659239N01352517EA0106201160000012000000
B1101115659227N01352546EA0106301161000012000000
B1101135659209N01352569EA0106301162000012000000
B1101155659185N01352575EA0106501165000012000000
B1101175659161N01352565EA0106701167000012000000
B1101195659137N01352536EA0106901169000012000000
B1101215659118N01352493EA0107001169000012000000
B1101235659106N01352440EA0107101170000012000000
B1101255659101N01352380EA0107101170000012000000
B1101275659105N01352318EA0107001168000012000000
B1101295659120N01352259EA0106901165000012000000
B1101315659142N01352212EA0106701164000012000000
B1101335659170N01352181EA0106601165000012000000
B1101355659200N01352169EA0106601167000008000000
B1101375659226N01352175EA0106701167000012000000
B1101395659248N01352194EA0106801169000012000000
B1101415659265N01352220EA0107001173000012000000
B1101435659279N01352250EA0107401174000012000000
B1101455659285N01352285EA0107301171000012000000
B1101475659281N01352324EA0107101169000012000000
B1101495659266N01352353EA0107001171000012000000
B1101515659244N01352366EA0107201174000012000000
B1101535659219N01352358EA0107401176000012000000
B1101555659194N01352331EA0107701177000012000000
B1101575659175N01352289EA0107801178000012000000
B1101595659162N01352237EA0107801176000012000000
B1102015659157N01352175EA0107501172000012000000
B1102035659161N01352110EA0107301170000012000000
B1102055659175N01352049EA0107001169000012000000
B1102075659197N01351997EA0106901169000012000000
B1102095659223N01351959EA0106801170000012000000
B1102115659253N01351935EA0106901170000012000000
B1102135659281N01351922EA0106901169000012000000
B1102155659311N01351917EA0106901168000012000000
B1102175659340N01351920EA0106901169000012000000
B1102195659369N01351930EA0106901171000012000000
B1102215659395N01351943EA0107101175000016000000
B1102235659419N01351963EA0107501177000016000000
B1102255659435N01351997EA0107701179000016000000
B1102275659437N01352034EA0107801180000016000000
B1102295659423N01352063EA0108001183000016000000
B1102315659401N01352071EA0108201186000012000000
B1102335659376N01352052EA0108401187000012000000
B1102355659357N01352012EA0108501188000012000000
B1102375659346N01351956EA0108601189000012000000
B1102395659346N01351895EA0108601188000012000000
B1102415659359N01351837EA0108501186000012000000
B1102435659383N01351789EA0108401187000012000000
B1102455659409N01351751EA0108701194000016000000
B1102475659437N01351726EA0109201196000016000000
B1102495659466N01351725EA0109401192000016000000
B1102515659487N01351752EA0109001186000016000000
B1102535659493N01351796EA0108801188000016000000
B1102555659484N01351835EA0108901191000016000000
B1102575659465N01351856EA0109201195000016000000
B1102595659440N01351857EA0109601197000016000000
B1103015659414N01351834EA0109601197000016000000
B1103035659395N01351789EA0109601196000020000000
B1103055659384N01351730EA0109401196000020000000
B1103075659384N01351666EA0109401195000020000000
B1103095659396N01351603EA0109401195000020000000
B1103115659414N01351549EA0109501199000020000000
B1103135659436N01351504EA0109701201000020000000
B1103155659461N01351461EA0109801198000016000000
B1103175659489N01351421EA0109701198000016000000
B1103195659519N01351387EA0109701199000020000000
B1103215659551N01351360EA0109701196000020000000
B1103235659583N01351352EA0109501196000020000000
B1103255659613N01351366EA0109401199000020000000
B1103275659634N01351395EA0109701200000020000000
B1103295659645N01351432EA0109801201000020000000
B1103315659647N01351471EA0109801202000020000000
B1103335659638N01351506EA0110001204000020000000
B1103355659622N01351534EA0110201207000020000000
B1103375659603N01351549EA0110501210000020000000
B1103395659579N01351544EA0110601210000020000000
B1103415659558N01351509EA0110701208000020000000
B1103435659549N01351451EA0110501206000020000000
B1103455659554N01351386EA0110401204000020000000
B1103475659574N01351332EA0110301204000016000000
B1103495659601N01351297EA0110201205000020000000
B1103515659632N01351285EA0110301209000020000000
B1103535659661N01351292EA0110701213000016000000
B1103555659684N01351313EA0111101215000016000000
B1103575659699N01351345EA0111101215000016000000
B1103595659701N01351382EA0111301216000016000000
B1104015659695N01351413EA0111401217000012000000
B1104035659683N01351434EA0111501219000012000000
B1104055659666N01351445EA0111601218000012000000
B1104075659648N01351445EA0111501215000012000000
B1104095659626N01351432EA0111301212000012000000
B1104115659604N01351418EA0111001210000016000000
B1104135659580N01351413EA0110701206000016000000
B1104155659556N01351418EA0110101202000016000000
B1104175659531N01351430EA0109601199000016000000
B1104195659506N01351443EA0109301196000016000000
B1104215659483N01351460EA0109001190000020000000
B1104235659458N01351484EA0108601187000020000000
B1104255659435N01351513EA0108501192000020000000
B1104275659413N01351543EA0108701195000020000000
B1104295659392N01351574EA0109101196000024000000
B1104315659372N01351609EA0109401198000024000000
B1104335659356N01351646EA0109601201000024000000
B1104355659337N01351679EA0109701198000024000000
B1104375659318N01351713EA0109501193000024000000
B1104395659298N01351747EA0109001185000024000000
B1104415659279N01351781EA0108301181000024000000
B1104435659259N01351815EA0107801180000024000000
B1104455659240N01351848EA0107501178000020000000
B1104475659223N01351885EA0107401177000020000000
B1104495659206N01351920EA0107401178000020000000
B1104515659189N01351952EA0107501179000024000000
B1104535659172N01351982EA0107401177000020000000
B1104555659153N01352010EA0107301175000020000000
B1104575659135N01352038EA0107101175000020000000
B1104595659118N01352065EA0107001173000020000000
B1105015659101N01352091EA0106801169000020000000
B1105035659084N01352119EA0106501163000020000000
B1105055659066N01352147EA0106101156000020000000
B1105075659046N01352176EA0105401147000024000000
B1105095659025N01352208EA0104701142000024000000
B1105115659005N01352241EA0104001136000024000000
B1105135658982N01352275EA0103401123000024000000
B1105155658958N01352312EA0102301110000028000000
B1105175658933N01352354EA0101001104000028000000
B1105195658906N01352394EA0100201100000028000000
B1105215658880N01352435EA0099801093000032000000
B1105235658854N01352479EA0099201083000032000000
B1105255658826N01352526EA0098101068000036000000
B1105275658797N01352575EA0096701054000036000000
B1105295658765N01352626EA0095301048000036000000
B1105315658734N01352676EA0094801050000040000000
B1105335658703N01352723EA0094901051000040000000
B1105355658670N01352767EA0095201059000040000000
B1105375658641N01352806EA0095801068000040000000
B1105395658613N01352843EA0097001081000036000000
B1105415658587N01352877EA0098001089000036000000
B1105435658564N01352909EA0099101101000032000000
B1105455658547N01352949EA0100101109000032000000
B1105475658550N01352995EA0101101120000028000000
B1105495658565N01353027EA0101901125000028000000
B1105515658590N01353038EA0102301122000024000000
B1105535658618N01353018EA0102101116000024000000
B1105555658638N01352970EA0101601116000020000000
B1105575658644N01352912EA0101701119000020000000
B1105595658641N01352856EA0102001120000020000000
B1106015658631N01352803EA0102001119000016000000
B1106035658616N01352756EA0101801118000016000000
B1106055658596N01352714EA0101801119000016000000
B1106075658570N01352686EA0101901121000016000000
B1106095658542N01352680EA0102001124000016000000
B1106115658520N01352704EA0102501128000020000000
B1106135658511N01352741EA0102801135000020000000
B1106155658517N01352775EA0103401140000020000000
B1106175658537N01352799EA0103901139000020000000
B1106195658564N01352806EA0103801135000020000000
B1106215658594N01352791EA0103601134000020000000
B1106235658618N01352752EA0103601139000020000000
B1106255658630N01352696EA0104001146000020000000
B1106275658630N01352636EA0104601148000020000000
B1106295658618N01352579EA0104601142000020000000
B1106315658591N01352539EA0104401144000024000000
B1106335658561N01352532EA0104801160000024000000
B1106355658537N01352546EA0105901167000024000000
B1106375658520N01352580EA0106601165000024000000
B1106395658518N01352623EA0106701169000024000000
B1106415658533N01352658EA0106901174000020000000
B1106435658556N01352682EA0107301173000020000000
B1106455658587N01352684EA0107201170000024000000
B1106475658617N01352658EA0107001167000024000000
B1106495658639N01352604EA0106801167000024000000
B1106515658641N01352537EA0107001171000024000000
B1106535658621N01352484EA0107301175000024000000
B1106555658591N01352463EA0107801180000024000000
B1106575658563N01352476EA0108401186000024000000
B1106595658550N01352511EA0108901192000024000000
B1107015658552N01352549EA0109601197000024000000
B1107035658568N01352579EA0109901195000020000000
B1107055658594N01352591EA0109701191000020000000
B1107075658622N01352578EA0109401188000024000000
B1107095658646N01352540EA0109201187000024000000
B1107115658659N01352484EA0109001183000024000000
B1107135658654N01352424EA0108901186000024000000
B1107155658639N01352374EA0109301193000020000000
B1107175658622N01352329EA0109701201000020000000
B1107195658604N01352289EA0110501204000020000000
B1107215658583N01352250EA0111001207000020000000
B1107235658560N01352220EA0111301214000020000000
B1107255658535N01352205EA0111801215000020000000
B1107275658512N01352210EA0111901212000020000000
B1107295658492N01352236EA0111601211000020000000
B1107315658483N01352273EA0111501217000020000000
B1107335658486N01352312EA0111901225000020000000
B1107355658500N01352346EA0112501229000020000000
B1107375658524N01352368EA0113001233000020000000
B1107395658552N01352372EA0113301233000020000000
B1107415658585N01352357EA0113201230000020000000
B1107435658612N01352319EA0112901227000020000000
B1107455658634N01352266EA0112601225000020000000
B1107475658647N01352203EA0112401220000020000000
B1107495658651N01352134EA0112001214000020000000
B1107515658646N01352065EA0111701218000020000000
B1107535658638N01352000EA0112101229000020000000
B1107555658633N01351938EA0113001238000020000000
B1107575658625N01351878EA0113901244000020000000
B1107595658615N01351820EA0114501249000020000000
B1108015658600N01351764EA0114901250000020000000
B1108035658579N01351717EA0114901252000020000000
B1108055658552N01351687EA0115201255000020000000
B1108075658524N01351682EA0115501258000016000000
B1108095658499N01351695EA0115601263000016000000
B1108115658479N01351722EA0116001266000016000000
B1108135658466N01351757EA0116501270000016000000
B1108155658461N01351795EA0116901274000016000000
B1108175658462N01351834EA0117301279000016000000
B1108195658473N01351869EA0117701285000016000000
B1108215658492N01351895EA0118301290000016000000
B1108235658518N01351904EA0118801293000020000000
B1108255658550N01351894EA0119001294000016000000
B1108275658581N01351868EA0119201295000020000000
B1108295658608N01351826EA0119301299000020000000
B1108315658631N01351778EA0119801306000020000000
B1108335658650N01351726EA0120401312000020000000
B1108355658661N01351666EA0121001315000020000000
B1108375658661N01351603EA0121401322000020000000
B1108395658652N01351544EA0122101329000020000000
B1108415658634N01351495EA0122601331000020000000
B1108435658609N01351462EA0122701329000020000000
B1108455658581N01351452EA0122501329000020000000
B1108475658556N01351462EA0122701333000020000000
B1108495658537N01351487EA0122901336000020000000
B1108515658526N01351519EA0123501341000020000000
B1108535658525N01351556EA0123701346000020000000
B1108555658530N01351591EA0124101346000020000000
B1108575658546N01351623EA0124201346000020000000
B1108595658568N01351649EA0124301349000020000000
B1109015658594N01351666EA0124501349000020000000
B1109035658622N01351674EA0124501346000020000000
B1109055658654N01351683EA0124201343000020000000
B1109075658683N01351696EA0123901345000020000000
B1109095658709N01351718EA0123901343000020000000
B1109115658733N01351746EA0123801341000020000000
B1109135658750N01351779EA0123701340000020000000
B1109155658761N01351817EA0123401336000020000000
B1109175658771N01351857EA0122901322000020000000
B1109195658774N01351908EA0121501307000020000000
B1109215658776N01351963EA0120301301000024000000
B1109235658776N01352020EA0119501292000024000000
B1109255658776N01352080EA0118701284000028000000
B1109275658774N01352143EA0117901277000028000000
B1109295658772N01352210EA0117401275000032000000
B1109315658771N01352275EA0117001275000032000000
B1109335658768N01352337EA0117301289000032000000
B1109355658763N01352392EA0118601303000032000000
B1109375658755N01352436EA0120101316000028000000
B1109395658739N01352465EA0121301324000028000000
B1109415658717N01352475EA0121901326000028000000
B1109435658693N01352461EA0122101325000024000000
B1109455658670N01352427EA0121801318000024000000
B1109475658648N01352383EA0121301317000024000000
B1109495658631N01352333EA0121301322000024000000
B1109515658624N01352275EA0121701324000020000000
B1109535658629N01352214EA0121901328000020000000
B1109555658646N01352158EA0122201327000020000000
B1109575658670N01352117EA0122201324000020000000
B1109595658702N01352095EA0122101322000020000000
B1110015658733N01352093EA0121901325000020000000
B1110035658761N01352106EA0122101332000020000000
B1110055658785N01352127EA0122701337000016000000
B1110075658803N01352156EA0123201338000020000000
B1110095658813N01352192EA0123201338000020000000
B1110115658813N01352229EA0123301339000020000000
B1110135658800N01352257EA0123401341000016000000
B1110155658781N01352266EA0123601339000020000000
B1110175658759N01352257EA0123401335000016000000
B1110195658737N01352225EA0122901328000016000000
B1110215658721N01352171EA0122301326000020000000
B1110235658720N01352108EA0122201333000020000000
B1110255658733N01352052EA0122901341000016000000
B1110275658754N01352006EA0123501342000020000000
B1110295658777N01351967EA0123701343000020000000
B1110315658804N01351935EA0123901347000016000000
B1110335658832N01351912EA0124401351000016000000
B1110355658859N01351894EA0124701353000016000000
B1110375658888N01351885EA0124801351000016000000
B1110395658915N01351894EA0124401347000016000000
B1110415658938N01351921EA0124301344000016000000
B1110435658951N01351958EA0123901345000016000000
B1110455658954N01351998EA0123901345000016000000
B1110475658949N01352034EA0123901344000016000000
B1110495658941N01352069EA0123901342000016000000
B1110515658934N01352104EA0123701341000020000000
B1110535658927N01352141EA0123501337000016000000
B1110555658919N01352180EA0123101333000016000000
B1110575658910N01352218EA0122701330000020000000
B1110595658899N01352258EA0122201321000020000000
B1111015658890N01352306EA0121301308000020000000
B1111035658881N01352359EA0120201299000024000000
B1111055658872N01352415EA0119301295000024000000
B1111075658863N01352472EA0118801295000028000000
B1111095658855N01352527EA0118801298000028000000
B1111115658847N01352580EA0119101299000028000000
B1111135658838N01352631EA0119301301000028000000
B1111155658830N01352679EA0119401299000028000000
B1111175658823N01352728EA0119301297000028000000
B1111195658815N01352777EA0119101294000028000000
B1111215658808N01352826EA0118701291000028000000
B1111235658800N01352874EA0118401289000028000000
B1111255658794N01352922EA0118401289000028000000
B1111275658786N01352968EA0118301288000028000000
B1111295658780N01353013EA0118201286000028000000
B1111315658772N01353057EA0118001283000028000000
B1111335658764N01353103EA0117801281000028000000
B1111355658756N01353147EA0117601281000028000000
B1111375658748N01353190EA0117501280000028000000
B1111395658739N01353232EA0117401277000028000000
B1111415658730N01353273EA0117101272000024000000
B1111435658722N01353317EA0116801268000024000000
B1111455658715N01353363EA0116401265000024000000
B1111475658708N01353407EA0116001263000024000000
B1111495658702N01353451EA0115801260000024000000
B1111515658694N01353494EA0115501255000024000000
B1111535658687N01353538EA0115101252000028000000
B1111555658680N01353583EA0114701247000028000000
B1111575658673N01353628EA0114101240000028000000
B1111595658665N01353675EA0113501236000028000000
B1112015658657N01353722EA0113301236000028000000
B1112035658648N01353768EA0113201231000028000000
B1112055658639N01353820EA0112701219000028000000
B1112075658631N01353878EA0111801212000028000000
B1112095658621N01353937EA0111101212000032000000
B1112115658612N01353995EA0110901215000032000000
B1112135658602N01354049EA0111101216000032000000
B1112155658592N01354103EA0111301216000032000000
B1112175658582N01354155EA0111301214000032000000
B1112195658573N01354208EA0111001209000032000000
B1112215658563N01354264EA0110601204000032000000
B1112235658553N01354320EA0110401200000032000000
B1112255658544N01354376EA0110501197000028000000
B1112275658535N01354431EA0110301195000028000000
B1112295658526N01354487EA0110001192000028000000
B1112315658516N01354545EA0109701187000028000000
B1112335658505N01354602EA0109401185000028000000
B1112355658495N01354659EA0109001183000024000000
B1112375658485N01354715EA0108901181000024000000
B1112395658473N01354772EA0108701179000024000000
B1112415658462N01354829EA0108301175000024000000
B1112435658452N01354888EA0108101172000024000000
B1112455658440N01354946EA0107701167000024000000
B1112475658427N01355005EA0107301163000024000000
B1112495658414N01355065EA0107101159000024000000
B1112515658403N01355124EA0106801157000024000000
B1112535658391N01355184EA0106601158000024000000
B1112555658381N01355243EA0106501155000028000000
B1112575658370N01355301EA0106301154000028000000
B1112595658358N01355358EA0106101154000028000000
B1113015658345N01355416EA0106101152000024000000
B1113035658334N01355473EA0105901151000024000000
B1113055658323N01355530EA0105701148000024000000
B1113075658312N01355587EA0105501147000024000000
B1113095658301N01355643EA0105301146000024000000
B1113115658291N01355699EA0105201142000020000000
B1113135658279N01355756EA0105001141000020000000
B1113155658269N01355813EA0104701137000024000000
B1113175658260N01355869EA0104401135000024000000
B1113195658252N01355926EA0104201132000024000000
B1113215658244N01355982EA0103801127000024000000
B1113235658236N01356040EA0103301121000024000000
B1113255658230N01356097EA0102701116000024000000
B1113275658223N01356154EA0102101110000024000000
B1113295658215N01356212EA0102001108000024000000
B1113315658209N01356270EA0101801108000028000000
B1113335658204N01356324EA0101501102000024000000
B1113355658197N01356381EA0101201097000024000000
B1113375658191N01356439EA0100701094000028000000
B1113395658184N01356497EA0100201092000028000000
B1113415658179N01356557EA0100201092000028000000
B1113435658174N01356615EA0100101090000028000000
B1113455658170N01356674EA0099901088000028000000
B1113475658166N01356730EA0099701088000024000000
B1113495658162N01356786EA0099701086000024000000
B1113515658158N01356844EA0099401080000020000000
B1113535658154N01356907EA0099001078000024000000
B1113555658150N01356968EA0098901084000020000000
B1113575658147N01357026EA0099201089000020000000
B1113595658143N01357083EA0099601091000024000000
B1114015658139N01357139EA0099901094000024000000
B1114035658135N01357191EA0100401105000024000000
B1114055658139N01357239EA0101301109000020000000
B1114075658163N01357267EA0101701115000020000000
B1114095658195N01357260EA0102101119000020000000
B1114115658221N01357223EA0102201119000020000000
B1114135658236N01357168EA0102201118000020000000
B1114155658239N01357108EA0102101117000020000000
B1114175658232N01357052EA0102101116000020000000
B1114195658219N01357005EA0102001118000020000000
B1114215658205N01356964EA0102201120000020000000
B1114235658188N01356927EA0102301123000020000000
B1114255658167N01356899EA0102501125000020000000
B1114275658147N01356887EA0102801123000020000000
B1114295658126N01356895EA0102501122000020000000
B1114315658111N01356920EA0102501124000020000000
B1114335658101N01356951EA0102701126000020000000
B1114355658093N01356983EA0102901128000020000000
B1114375658084N01357016EA0103101130000020000000
B1114395658072N01357044EA0103101130000020000000
B1114415658052N01357052EA0103201130000020000000
B1114435658030N01357033EA0103301131000020000000
B1114455658013N01356990EA0103301134000020000000
B1114475658006N01356934EA0103601136000020000000
B1114495658015N01356875EA0103601137000020000000
B1114515658037N01356831EA0103701135000020000000
B1114535658069N01356804EA0103601131000020000000
B1114555658101N01356805EA0103301131000020000000
B1114575658126N01356831EA0103301134000020000000
B1114595658137N01356868EA0103601139000020000000
B1115015658143N01356905EA0104001141000020000000
B1115035658144N01356943EA0104201143000020000000
B1115055658141N01356978EA0104301144000020000000
B1115075658139N01357016EA0104401140000020000000
B1115095658136N01357056EA0103901136000020000000
B1115115658132N01357099EA0103801135000020000000
B1115135658124N01357141EA0103501136000024000000
B1115155658111N01357177EA0103601137000020000000
B1115175658096N01357212EA0103701138000020000000
B1115195658080N01357246EA0103801141000020000000
B1115215658066N01357281EA0104001144000020000000
B1115235658061N01357323EA0104501150000024000000
B1115255658074N01357362EA0105101156000024000000
B1115275658100N01357382EA0105601163000024000000
B1115295658130N01357380EA0106101167000020000000
B1115315658157N01357351EA0106501170000020000000
B1115335658176N01357302EA0107001176000020000000
B1115355658183N01357243EA0107601184000020000000
B1115375658178N01357186EA0108301191000020000000
B1115395658163N01357139EA0108901196000020000000
B1115415658141N01357109EA0109401196000020000000
B1115435658115N01357094EA0109401195000020000000
B1115455658091N01357098EA0109301196000020000000
B1115475658070N01357120EA0109701204000020000000
B1115495658056N01357150EA0110401211000020000000
B1115515658048N01357184EA0110901215000020000000
B1115535658048N01357223EA0111101217000020000000
B1115555658059N01357259EA0111301215000020000000
B1115575658084N01357281EA0111201215000020000000
B1115595658115N01357278EA0111201219000020000000
B1116015658143N01357251EA0111401225000020000000
B1116035658162N01357204EA0112101231000020000000
B1116055658167N01357150EA0112701236000020000000
B1116075658162N01357094EA0113201239000020000000
B1116095658148N01357048EA0113601243000020000000
B1116115658127N01357017EA0114001247000020000000
B1116135658105N01357003EA0114301251000020000000
B1116155658083N01357007EA0114701255000020000000
B1116175658066N01357024EA0115101253000020000000
B1116195658053N01357056EA0115101250000020000000
B1116215658054N01357099EA0114801251000020000000
B1116235658065N01357139EA0114901254000020000000
B1116255658085N01357168EA0115101257000020000000
B1116275658113N01357173EA0115501261000020000000
B1116295658141N01357155EA0115601260000020000000
B1116315658165N01357115EA0115501256000020000000
B1116335658180N01357060EA0115201254000020000000
B1116355658180N01356998EA0115201257000020000000
B1116375658166N01356947EA0115401261000020000000
B1116395658144N01356914EA0115801264000020000000
B1116415658119N01356900EA0116001268000020000000
B1116435658096N01356900EA0116701274000020000000
B1116455658078N01356913EA0117001276000020000000
B1116475658065N01356943EA0117101272000020000000
B1116495658056N01356981EA0117001269000020000000
B1116515658046N01357021EA0116501267000020000000
B1116535658035N01357061EA0116401266000020000000
B1116555658024N01357102EA0116301263000024000000
B1116575658015N01357146EA0116001259000024000000
B1116595658006N01357191EA0115601254000024000000
B1117015657997N01357238EA0115101250000028000000
B1117035657987N01357285EA0114801252000028000000
B1117055657976N01357330EA0114901254000028000000
B1117075657966N01357375EA0115101254000028000000
B1117095657955N01357420EA0115101257000028000000
B1117115657950N01357467EA0115601266000028000000
B1117135657955N01357512EA0116401271000028000000
B1117155657972N01357551EA0116901277000028000000
B1117175658000N01357571EA0117501282000024000000
B1117195658032N01357564EA0117901284000024000000
B1117215658061N01357529EA0118301289000020000000
B1117235658079N01357477EA0118501298000020000000
B1117255658087N01357420EA0119201305000020000000
B1117275658084N01357364EA0119901307000020000000
B1117295658071N01357314EA0120201306000020000000
B1117315658052N01357273EA0120301305000020000000
B1117335658026N01357249EA0120201307000020000000
B1117355658000N01357239EA0120301310000020000000
B1117375657975N01357245EA0120501310000020000000
B1117395657957N01357272EA0120801314000024000000
B1117415657950N01357312EA0121101321000020000000
B1117435657957N01357353EA0121701326000020000000
B1117455657975N01357385EA0122201327000020000000
B1117475658002N01357403EA0122401330000020000000
B1117495658032N01357398EA0122601335000020000000
B1117515658061N01357371EA0123101343000020000000
B1117535658080N01357325EA0123801350000020000000
B1117555658091N01357271EA0124401352000020000000
B1117575658091N01357213EA0124701352000020000000
B1117595658079N01357161EA0124601352000020000000
B1118015658059N01357122EA0124601352000020000000
B1118035658035N01357106EA0124801355000020000000
B1118055658010N01357106EA0124901354000020000000
B1118075657988N01357122EA0125001357000020000000
B1118095657970N01357150EA0125401364000020000000
B1118115657955N01357184EA0125801366000020000000
B1118135657948N01357224EA0125901367000020000000
B1118155657952N01357265EA0126101373000020000000
B1118175657970N01357301EA0126401376000020000000
B1118195657997N01357316EA0126801379000020000000
B1118215658028N01357310EA0127101385000020000000
B1118235658057N01357278EA0127601392000020000000
B1118255658076N01357233EA0128301398000020000000
B1118275658088N01357180EA0129001404000020000000
B1118295658089N01357125EA0129601411000016000000
B1118315658079N01357076EA0130401416000016000000
B1118335658061N01357038EA0130901420000016000000
B1118355658039N01357015EA0131201425000016000000
B1118375658014N01357009EA0131801431000016000000
B1118395657992N01357018EA0132401436000016000000
B1118415657975N01357041EA0132701439000020000000
B1118435657965N01357073EA0132901441000020000000
B1118455657961N01357112EA0133201443000020000000
B1118475657965N01357152EA0133701447000020000000
B1118495657967N01357195EA0134001452000020000000
B1118515657963N01357236EA0134401457000020000000
B1118535657946N01357264EA0134701462000020000000
B1118555657923N01357272EA0135301465000020000000
B1118575657897N01357259EA0135501468000020000000
B1118595657874N01357228EA0135701464000020000000
B1119015657857N01357181EA0135501460000020000000
B1119035657848N01357121EA0135001456000020000000
B1119055657853N01357057EA0134501452000020000000
B1119075657870N01357000EA0134201453000020000000
B1119095657896N01356959EA0134301457000020000000
B1119115657926N01356933EA0134601461000020000000
B1119135657957N01356924EA0134901464000020000000
B1119155657988N01356927EA0135301471000020000000
B1119175658015N01356938EA0136001477000020000000
B1119195658041N01356955EA0136501482000020000000
B1119215658065N01356978EA0137001486000020000000
B1119235658084N01357008EA0137501489000020000000
B1119255658096N01357047EA0137701492000020000000
B1119275658098N01357091EA0138001497000020000000
B1119295658095N01357134EA0138201496000020000000
B1119315658092N01357182EA0138001491000024000000
B1119335658091N01357232EA0137901487000024000000
B1119355658088N01357284EA0137401486000024000000
B1119375658087N01357336EA0137301484000024000000
B1119395658084N01357389EA0137001476000024000000
B1119415658083N01357445EA0135901464000028000000
B1119435658082N01357506EA0135401455000028000000
B1119455658082N01357568EA0134401450000028000000
B1119475658076N01357628EA0134001449000032000000
B1119495658070N01357688EA0133601445000032000000
B1119515658061N01357746EA0133201440000036000000
B1119535658049N01357804EA0132801441000036000000
B1119555658039N01357858EA0132801440000036000000
B1119575658026N01357913EA0133001443000036000000
B1119595658013N01357966EA0133301451000036000000
B1120015658001N01358017EA0134001457000036000000
B1120035657989N01358069EA0134501458000036000000
B1120055657976N01358120EA0134701459000032000000
B1120075657963N01358172EA0134801457000036000000
B1120095657949N01358222EA0134601458000036000000
B1120115657933N01358270EA0134701463000036000000
B1120135657918N01358313EA0135301471000032000000
B1120155657900N01358354EA0135901474000032000000
B1120175657877N01358385EA0136201478000032000000
B1120195657853N01358407EA0136501479000032000000
B1120215657824N01358417EA0136501477000028000000
B1120235657794N01358416EA0136401477000028000000
B1120255657764N01358404EA0136401477000028000000
B1120275657734N01358385EA0136701485000028000000
B1120295657706N01358365EA0137401496000028000000
B1120315657679N01358347EA0138501504000028000000
B1120335657651N01358329EA0139201508000028000000
B1120355657625N01358309EA0139401509000028000000
B1120375657598N01358290EA0139501508000028000000
B1120395657569N01358270EA0139401502000028000000
B1120415657538N01358252EA0139001494000028000000
B1120435657506N01358233EA0138101483000028000000
B1120455657469N01358212EA0137201477000028000000
B1120475657433N01358194EA0136501474000028000000
B1120495657396N01358181EA0136201474000032000000
B1120515657360N01358178EA0136201476000032000000
B1120535657328N01358188EA0136401481000036000000
B1120555657298N01358205EA0136801483000036000000
B1120575657269N01358226EA0137101485000032000000
B1120595657240N01358251EA0137301491000036000000
B1121015657216N01358277EA0138001504000032000000
B1121035657194N01358303EA0139201513000032000000
B1121055657174N01358330EA0140001518000032000000
B1121075657156N01358360EA0140601524000028000000
B1121095657138N01358391EA0141101527000028000000
B1121115657118N01358424EA0141101520000028000000
B1121135657097N01358461EA0140301505000028000000
B1121155657075N01358507EA0138901492000032000000
B1121175657053N01358560EA0137701483000032000000
B1121195657032N01358619EA0136701477000036000000
B1121215657012N01358679EA0136101475000036000000
B1121235656990N01358740EA0135801474000036000000
B1121255656969N01358799EA0135901477000036000000
B1121275656947N01358855EA0136101481000036000000
B1121295656923N01358911EA0136401485000036000000
B1121315656901N01358965EA0136901486000036000000
B1121335656878N01359018EA0137001484000036000000
B1121355656856N01359074EA0137001486000036000000
B1121375656835N01359132EA0137301487000040000000
B1121395656814N01359191EA0137501486000040000000
B1121415656792N01359251EA0137301486000040000000
B1121435656770N01359309EA0137301485000044000000
B1121455656745N01359368EA0137201486000044000000
B1121475656720N01359426EA0137301485000044000000
B1121495656697N01359485EA0137201485000044000000
B1121515656675N01359546EA0137301487000048000000
B1121535656653N01359603EA0137601491000048000000
B1121555656629N01359659EA0137801491000048000000
B1121575656606N01359713EA0137801489000048000000
B1121595656584N01359771EA0137501484000048000000
B1122015656563N01359830EA0137001477000048000000
B1122035656541N01359890EA0136501473000048000000
B1122055656519N01359950EA0135901467000048000000
B1122075656497N01400011EA0135501463000048000000
B1122095656475N01400072EA0135401468000048000000
B1122115656454N01400132EA0135701482000048000000
B1122135656436N01400188EA0136901497000044000000
B1122155656419N01400244EA0138201494000044000000
B1122175656405N01400305EA0138401492000044000000
B1122195656392N01400370EA0138001490000044000000
B1122215656380N01400435EA0137901491000044000000
B1122235656367N01400500EA0138001494000044000000
B1122255656354N01400562EA0138401499000044000000
B1122275656343N01400622EA0138901503000044000000
B1122295656332N01400682EA0139101491000044000000
B1122315656319N01400746EA0138101479000044000000
B1122335656304N01400811EA0137001475000044000000
B1122355656290N01400874EA0136501472000048000000
B1122375656277N01400939EA0136101469000048000000
B1122395656265N01401003EA0135901467000048000000
B1122415656254N01401067EA0135801465000048000000
B1122435656241N01401129EA0135601464000048000000
B1122455656228N01401190EA0135501461000048000000
B1122475656216N01401251EA0135301457000048000000
B1122495656204N01401311EA0135001455000048000000
B1122515656193N01401371EA0134701452000044000000
B1122535656182N01401431EA0134501449000044000000
B1122555656171N01401490EA0134301446000044000000
B1122575656158N01401548EA0134101447000044000000
B1122595656143N01401604EA0134101448000044000000
B1123015656129N01401658EA0134201451000044000000
B1123035656115N01401713EA0134501458000044000000
B1123055656103N01401763EA0135201468000040000000
B1123075656091N01401812EA0136001473000036000000
B1123095656078N01401858EA0136601476000036000000
B1123115656063N01401901EA0136901484000036000000
B1123135656044N01401938EA0137701494000032000000
B1123155656024N01401966EA0138701499000028000000
B1123175655999N01401984EA0139201504000028000000
B1123195655973N01401992EA0139501506000024000000
B1123215655946N01401992EA0139901508000024000000
B1123235655918N01401987EA0140101509000024000000
B1123255655890N01401979EA0140201511000024000000
B1123275655862N01401969EA0140301515000020000000
B1123295655835N01401956EA0140601517000020000000
B1123315655808N01401939EA0140601515000020000000
B1123335655781N01401913EA0140501513000020000000
B1123355655755N01401874EA0140301512000020000000
B1123375655734N01401822EA0140601517000020000000
B1123395655719N01401765EA0140901519000020000000
B1123415655712N01401700EA0140901517000020000000
B1123435655713N01401632EA0140801519000020000000
B1123455655723N01401570EA0140901521000020000000
B1123475655744N01401516EA0141101525000020000000
B1123495655769N01401481EA0141501530000020000000
B1123515655796N01401463EA0142001534000020000000
B1123535655823N01401463EA0142201532000020000000
B1123555655848N01401479EA0142101528000020000000
B1123575655868N01401507EA0141801525000020000000
B1123595655881N01401546EA0141501525000020000000
B1124015655888N01401589EA0141501527000020000000
B1124035655891N01401632EA0141601530000020000000
B1124055655887N01401672EA0141801534000020000000
B1124075655877N01401706EA0142201537000020000000
B1124095655860N01401731EA0142301537000020000000
B1124115655836N01401743EA0142401537000020000000
B1124135655809N01401740EA0142401536000020000000
B1124155655782N01401719EA0142401535000020000000
B1124175655756N01401691EA0142501538000020000000
B1124195655730N01401659EA0142701541000020000000
B1124215655705N01401627EA0142801543000020000000
B1124235655682N01401593EA0142801542000020000000
B1124255655660N01401549EA0142801538000020000000
B1124275655648N01401488EA0142601532000020000000
B1124295655648N01401419EA0142001526000020000000
B1124315655662N01401353EA0141501522000040000000
B1124335655687N01401301EA0141101522000040000000
B1124355655716N01401262EA0141001521000036000000
B1124375655744N01401232EA0141001520000032000000
B1124395655774N01401210EA0140901522000028000000
B1124415655804N01401193EA0141001522000028000000
B1124435655834N01401185EA0141101521000028000000
B1124455655862N01401190EA0141001520000024000000
B1124475655888N01401206EA0140801519000024000000
B1124495655911N01401232EA0140701518000020000000
B1124515655929N01401262EA0140701517000020000000
B1124535655943N01401297EA0140701517000020000000
B1124555655955N01401334EA0140601518000020000000
B1124575655963N01401373EA0140701518000020000000
B1124595655969N01401412EA0140701518000020000000
B1125015655976N01401451EA0140601516000020000000
B1125035655979N01401492EA0140501513000020000000
B1125055655985N01401533EA0140301512000020000000
B1125075655990N01401575EA0140201513000020000000
B1125095655995N01401615EA0140201516000020000000
B1125115656000N01401654EA0140501521000020000000
B1125135656007N01401693EA0141001526000020000000
B1125155656009N01401732EA0141401528000020000000
B1125175656009N01401771EA0141701530000020000000
B1125195656002N01401806EA0141801534000020000000
B1125215655987N01401834EA0142101540000020000000
B1125235655968N01401848EA0142501543000020000000
B1125255655946N01401851EA0142701541000016000000
B1125275655921N01401838EA0142601537000020000000
B1125295655895N01401806EA0142401536000020000000
B1125315655874N01401758EA0142301534000020000000
B1125335655861N01401696EA0142101534000020000000
B1125355655856N01401630EA0142001535000020000000
B1125375655857N01401563EA0142001534000020000000
B1125395655861N01401500EA0142001533000020000000
B1125415655865N01401435EA0142001534000020000000
B1125435655870N01401368EA0142201538000020000000
B1125455655875N01401305EA0142301542000020000000
B1125475655881N01401241EA0142801546000020000000
B1125495655888N01401180EA0143201551000020000000
B1125515655898N01401121EA0143601552000020000000
B1125535655912N01401065EA0143801552000020000000
B1125555655929N01401011EA0143701550000020000000
B1125575655950N01400959EA0143601549000020000000
B1125595655972N01400909EA0143501549000020000000
B1126015655994N01400861EA0143401547000020000000
B1126035656018N01400816EA0143201544000020000000
B1126055656043N01400769EA0142901542000020000000
B1126075656069N01400722EA0142701543000020000000
B1126095656096N01400675EA0142901550000020000000
B1126115656122N01400631EA0143501555000020000000
B1126135656148N01400587EA0144101558000020000000
B1126155656173N01400543EA0144301558000020000000
B1126175656197N01400493EA0144301558000020000000
B1126195656213N01400437EA0144501562000020000000
B1126215656223N01400374EA0144901567000020000000
B1126235656219N01400313EA0145201567000020000000
B1126255656203N01400258EA0145201562000020000000
B1126275656178N01400220EA0144901561000020000000
B1126295656151N01400198EA0144701565000020000000
B1126315656124N01400194EA0145001567000020000000
B1126335656099N01400206EA0145201569000020000000
B1126355656081N01400229EA0145501575000020000000
B1126375656068N01400259EA0146001579000020000000
B1126395656057N01400291EA0146501580000020000000
B1126415656050N01400324EA0146501577000020000000
B1126435656047N01400362EA0146301575000020000000
B1126455656051N01400402EA0146201574000020000000
B1126475656064N01400439EA0146101575000020000000
B1126495656085N01400465EA0146101575000020000000
B1126515656113N01400480EA0146101575000020000000
B1126535656145N01400479EA0146201576000020000000
B1126555656174N01400448EA0146301578000020000000
B1126575656190N01400389EA0146401580000020000000
B1126595656185N01400326EA0146601580000016000000
B1127015656168N01400271EA0146701579000020000000
B1127035656150N01400216EA0146601580000020000000
B1127055656132N01400163EA0146601581000020000000
B1127075656113N01400109EA0146701583000020000000
B1127095656098N01400050EA0146801583000020000000
B1127115656089N01359988EA0146901583000020000000
B1127135656083N01359921EA0146901586000020000000
B1127155656083N01359855EA0147001588000020000000
B1127175656089N01359789EA0147301591000016000000
B1127195656098N01359726EA0147601593000016000000
B1127215656111N01359667EA0147801592000016000000
B1127235656125N01359609EA0147701590000016000000
B1127255656142N01359553EA0147501588000016000000
B1127275656160N01359500EA0147301590000016000000
B1127295656181N01359449EA0147501593000016000000
B1127315656203N01359403EA0147701591000016000000
B1127335656228N01359364EA0147601585000020000000
B1127355656258N01359334EA0147001579000020000000
B1127375656290N01359312EA0146401575000020000000
B1127395656323N01359299EA0146101574000020000000
B1127415656353N01359297EA0145801571000020000000
B1127435656380N01359310EA0145701570000020000000
B1127455656401N01359332EA0145601571000020000000
B1127475656416N01359365EA0145701570000020000000
B1127495656423N01359404EA0145601568000020000000
B1127515656423N01359443EA0145501568000020000000
B1127535656415N01359479EA0145501574000020000000
B1127555656398N01359503EA0145901579000020000000
B1127575656377N01359513EA0146501582000020000000
B1127595656354N01359505EA0146701585000020000000
B1128015656330N01359473EA0147001590000020000000
B1128035656314N01359423EA0147301595000020000000
B1128055656302N01359365EA0147801595000016000000
B1128075656289N01359308EA0148001597000020000000
B1128095656271N01359257EA0148101599000020000000
B1128115656249N01359219EA0148401601000020000000
B1128135656224N01359191EA0148601601000020000000
B1128155656197N01359170EA0148601600000020000000
B1128175656171N01359156EA0148501601000020000000
B1128195656145N01359147EA0148501602000020000000
B1128215656120N01359144EA0148501603000020000000
B1128235656095N01359148EA0148501599000020000000
B1128255656073N01359156EA0148201593000020000000
B1128275656050N01359169EA0147901593000020000000
B1128295656029N01359182EA0147801593000020000000
B1128315656011N01359205EA0147701591000016000000
B1128335656003N01359238EA0147601589000016000000
B1128355656003N01359273EA0147401586000016000000
B1128375656009N01359308EA0147101582000020000000
B1128395656024N01359340EA0146701577000020000000
B1128415656041N01359369EA0146301574000016000000
B1128435656061N01359395EA0146001571000016000000
B1128455656082N01359417EA0145701571000016000000
B1128475656106N01359434EA0145601569000020000000
B1128495656130N01359446EA0145401565000020000000
B1128515656160N01359447EA0145201564000020000000
B1128535656191N01359436EA0145101566000020000000
B1128555656223N01359413EA0145201567000020000000
B1128575656251N01359379EA0145201566000020000000
B1128595656278N01359338EA0145201567000020000000
B1129015656301N01359291EA0145401572000020000000
B1129035656324N01359244EA0146101578000020000000
B1129055656345N01359197EA0146501581000020000000
B1129075656366N01359147EA0146801584000020000000
B1129095656380N01359088EA0147101588000020000000
B1129115656385N01359026EA0147301590000020000000
B1129135656381N01358965EA0147401591000020000000
B1129155656366N01358913EA0147601592000020000000
B1129175656345N01358874EA0147601593000020000000
B1129195656320N01358844EA0147801591000020000000
B1129215656295N01358819EA0147801592000016000000
B1129235656269N01358799EA0147701592000016000000
B1129255656243N01358790EA0147701589000016000000
B1129275656220N01358798EA0147401586000020000000
B1129295656203N01358823EA0147101581000020000000
B1129315656194N01358855EA0146701578000020000000
B1129335656189N01358892EA0146401576000016000000
B1129355656185N01358931EA0146101570000016000000
B1129375656182N01358971EA0145601566000020000000
B1129395656180N01359010EA0145201564000020000000
B1129415656173N01359048EA0144901561000020000000
B1129435656167N01359085EA0144701563000020000000
B1129455656161N01359122EA0144901567000020000000
B1129475656156N01359157EA0145401568000020000000
B1129495656152N01359191EA0145501569000020000000
B1129515656148N01359226EA0145401569000020000000
B1129535656147N01359262EA0145601569000020000000
B1129555656152N01359299EA0145601569000020000000
B1129575656167N01359330EA0145601573000020000000
B1129595656190N01359349EA0146101578000020000000
B1130015656216N01359356EA0146401582000020000000
B1130035656245N01359347EA0146801587000020000000
B1130055656272N01359318EA0147101588000020000000
B1130075656291N01359273EA0147301588000020000000
B1130095656301N01359213EA0147401590000020000000
B1130115656298N01359149EA0147601593000020000000
B1130135656285N01359095EA0147901596000020000000
B1130155656265N01359048EA0148101596000020000000
B1130175656241N01359013EA0148201597000020000000
B1130195656213N01358988EA0148401602000020000000
B1130215656186N01358974EA0148601601000020000000
B1130235656159N01358976EA0148501596000020000000
B1130255656135N01358997EA0148001590000020000000
B1130275656124N01359035EA0147601592000020000000
B1130295656122N01359076EA0147601597000020000000
B1130315656129N01359115EA0148201599000020000000
B1130335656139N01359152EA0148301599000020000000
B1130355656152N01359187EA0148201595000020000000
B1130375656168N01359218EA0147901591000020000000
B1130395656187N01359247EA0147601590000020000000
B1130415656208N01359267EA0147401591000020000000
B1130435656233N01359283EA0147501589000020000000
B1130455656256N01359301EA0147301584000020000000
B1130475656275N01359329EA0146901580000020000000
B1130495656286N01359361EA0146601576000020000000
B1130515656290N01359397EA0146201573000020000000
B1130535656286N01359433EA0145801568000020000000
B1130555656275N01359464EA0145401564000020000000
B1130575656256N01359488EA0145001562000020000000
B1130595656234N01359504EA0144701560000016000000
B1131015656211N01359514EA0144401558000020000000
B1131035656186N01359522EA0144201556000020000000
B1131055656161N01359527EA0144001557000020000000
B1131075656137N01359533EA0144101557000020000000
B1131095656112N01359537EA0144001554000020000000
B1131115656086N01359538EA0143601550000020000000
B1131135656060N01359534EA0143201546000020000000
B1131155656033N01359524EA0142901543000020000000
B1131175656005N01359503EA0142501537000024000000
B1131195655977N01359472EA0141801529000020000000
B1131215655950N01359425EA0141201527000020000000
B1131235655929N01359369EA0141101529000020000000
B1131255655914N01359305EA0141301527000020000000
B1131275655908N01359235EA0141001524000020000000
B1131295655912N01359162EA0140901524000020000000
B1131315655926N01359097EA0140901525000020000000
B1131335655946N01359040EA0140801521000020000000
B1131355655970N01358992EA0140701516000020000000
B1131375655999N01358952EA0140201510000020000000
B1131395656031N01358920EA0139601505000020000000
B1131415656064N01358896EA0139201502000020000000
B1131435656098N01358877EA0138701501000020000000
B1131455656130N01358861EA0138701502000020000000
B1131475656160N01358845EA0138801503000020000000
B1131495656190N01358827EA0138901501000020000000
B1131515656219N01358803EA0138701496000020000000
B1131535656247N01358775EA0138301491000020000000
B1131555656276N01358738EA0137801486000020000000
B1131575656303N01358694EA0137401485000020000000
B1131595656327N01358642EA0137301488000020000000
B1132015656347N01358588EA0137501489000020000000
B1132035656367N01358532EA0137601486000020000000
B1132055656386N01358472EA0137201483000020000000
B1132075656407N01358412EA0137001483000020000000
B1132095656427N01358354EA0137001486000020000000
B1132115656447N01358296EA0137301489000020000000
B1132135656470N01358243EA0137501495000020000000
B1132155656496N01358196EA0138201501000020000000
B1132175656523N01358157EA0138501504000020000000
B1132195656554N01358130EA0138901506000020000000
B1132215656585N01358113EA0139101509000020000000
B1132235656616N01358105EA0139501512000020000000
B1132255656646N01358103EA0139701514000020000000
B1132275656675N01358104EA0140101520000020000000
B1132295656704N01358108EA0140601526000016000000
B1132315656731N01358113EA0141101529000016000000
B1132335656761N01358120EA0141501533000016000000
B1132355656791N01358125EA0141801535000016000000
B1132375656822N01358123EA0142101539000012000000
B1132395656854N01358112EA0142501544000016000000
B1132415656884N01358084EA0143001548000016000000
B1132435656908N01358040EA0143301550000016000000
B1132455656919N01357983EA0143501552000016000000
B1132475656915N01357925EA0143701555000020000000
B1132495656904N01357876EA0144001559000020000000
B1132515656886N01357840EA0144301558000016000000
B1132535656863N01357818EA0144301556000016000000
B1132555656837N01357806EA0144001556000016000000
B1132575656813N01357802EA0143901560000020000000
B1132595656789N01357798EA0144201565000020000000
B1133015656766N01357796EA0144601566000020000000
B1133035656741N01357796EA0144801567000020000000
B1133055656717N01357796EA0144901568000020000000
B1133075656693N01357798EA0144901568000020000000
B1133095656668N01357801EA0144801566000020000000
B1133115656642N01357798EA0144601566000020000000
B1133135656616N01357792EA0144701571000020000000
B1133155656592N01357776EA0145201576000020000000
B1133175656568N01357753EA0145701581000020000000
B1133195656545N01357722EA0146001580000020000000
B1133215656525N01357681EA0146001579000020000000
B1133235656514N01357626EA0145901578000020000000
B1133255656510N01357562EA0145901578000020000000
B1133275656518N01357494EA0145801577000020000000
B1133295656536N01357434EA0145701575000020000000
B1133315656564N01357386EA0145501569000020000000
B1133335656598N01357356EA0145001564000020000000
B1133355656631N01357349EA0144601563000020000000
B1133375656659N01357358EA0144701564000020000000
B1133395656683N01357380EA0144601560000020000000
B1133415656700N01357414EA0144101555000020000000
B1133435656710N01357455EA0143901551000020000000
B1133455656717N01357498EA0143501551000020000000
B1133475656717N01357541EA0143301550000020000000
B1133495656711N01357581EA0143201547000020000000
B1133515656701N01357619EA0143101545000020000000
B1133535656684N01357653EA0142801544000020000000
B1133555656663N01357680EA0142701549000020000000
B1133575656641N01357702EA0143001553000020000000
B1133595656616N01357718EA0143301556000024000000
B1134015656590N01357723EA0143701558000024000000
B1134035656564N01357717EA0143701555000024000000
B1134055656536N01357696EA0143501547000024000000
B1134075656510N01357658EA0142801541000024000000
B1134095656489N01357602EA0142301539000020000000
B1134115656479N01357535EA0142001536000024000000
B1134135656481N01357462EA0141801532000020000000
B1134155656496N01357395EA0141501529000020000000
B1134175656520N01357343EA0141201529000020000000
B1134195656550N01357308EA0141401533000020000000
B1134215656580N01357285EA0141601532000020000000
B1134235656613N01357273EA0141501529000020000000
B1134255656645N01357272EA0141601530000044000000
B1134275656675N01357278EA0141901534000060000000
B1134295656702N01357291EA0142101532000088000000
B1134315656728N01357314EA0141901532000076000000
B1134335656748N01357345EA0141801530000064000000
B1134355656759N01357386EA0141701531000056000000
B1134375656763N01357428EA0141701535000052000000
B1134395656762N01357467EA0141901539000044000000
B1134415656753N01357502EA0142301540000036000000
B1134435656737N01357528EA0142501541000036000000
B1134455656717N01357538EA0142601544000032000000
B1134475656694N01357533EA0142901543000028000000
B1134495656672N01357511EA0142901537000024000000
B1134515656652N01357472EA0142301528000020000000
B1134535656635N01357419EA0141501517000020000000
B1134555656620N01357356EA0140701512000024000000
B1134575656615N01357291EA0140201513000020000000
B1134595656616N01357228EA0140201516000020000000
B1135015656624N01357167EA0140301512000020000000
B1135035656639N01357106EA0140101506000020000000
B1135055656658N01357048EA0139601505000020000000
B1135075656685N01357004EA0139301504000020000000
B1135095656715N01356977EA0139201502000020000000
B1135115656748N01356961EA0139201504000020000000
B1135135656778N01356955EA0139201506000020000000
B1135155656809N01356948EA0139401507000020000000
B1135175656839N01356942EA0139501506000020000000
B1135195656869N01356937EA0139501505000020000000
B1135215656899N01356935EA0139401505000020000000
B1135235656928N01356937EA0139401506000020000000
B1135255656957N01356938EA0139501505000020000000
B1135275656987N01356939EA0139501507000016000000
B1135295657018N01356939EA0139801513000016000000
B1135315657047N01356940EA0140301522000016000000
B1135335657075N01356942EA0141101527000016000000
B1135355657104N01356946EA0141601532000012000000
B1135375657133N01356955EA0142201539000016000000
B1135395657155N01356979EA0142801545000016000000
B1135415657162N01357017EA0143501550000016000000
B1135435657156N01357051EA0143901551000016000000
B1135455657136N01357068EA0144101552000016000000
B1135475657113N01357064EA0144401560000016000000
B1135495657092N01357051EA0144901568000016000000
B1135515657071N01357031EA0145701573000016000000
B1135535657055N01356996EA0146201577000016000000
B1135555657045N01356947EA0146501580000016000000
B1135575657043N01356890EA0147001584000016000000
B1135595657045N01356831EA0147301589000016000000
B1136015657051N01356774EA0147901593000016000000
B1136035657055N01356716EA0148101592000016000000
B1136055657049N01356657EA0148101591000016000000
B1136075657038N01356604EA0148001594000016000000
B1136095657022N01356563EA0148101596000016000000
B1136115657001N01356536EA0148201592000016000000
B1136135656979N01356523EA0148001586000016000000
B1136155656958N01356532EA0147501579000016000000
B1136175656945N01356562EA0146901578000016000000
B1136195656951N01356600EA0146501580000016000000
B1136215656969N01356628EA0146701582000020000000
B1136235656996N01356640EA0147001588000020000000
B1136255657023N01356641EA0147501592000020000000
B1136275657052N01356630EA0148001590000016000000
B1136295657082N01356605EA0147901589000016000000
B1136315657110N01356565EA0147701591000016000000
B1136335657131N01356510EA0148001597000016000000
B1136355657142N01356450EA0148501599000016000000
B1136375657144N01356388EA0148701597000016000000
B1136395657139N01356326EA0148701597000016000000
B1136415657134N01356262EA0148601600000016000000
B1136435657129N01356199EA0148701600000016000000
B1136455657122N01356137EA0148801598000020000000
B1136475657116N01356076EA0148601598000020000000
B1136495657105N01356017EA0148601599000020000000
B1136515657095N01355960EA0148801601000020000000
B1136535657084N01355903EA0149001602000020000000
B1136555657074N01355846EA0149101601000020000000
B1136575657064N01355789EA0148801595000020000000
B1136595657052N01355729EA0147901582000020000000
B1137015657039N01355663EA0147401574000020000000
B1137035657025N01355596EA0146501575000020000000
B1137055657010N01355533EA0146201573000020000000
B1137075656996N01355469EA0146101567000020000000
B1137095656980N01355404EA0145601559000020000000
B1137115656965N01355336EA0144901552000020000000
B1137135656949N01355263EA0144001542000024000000
B1137155656932N01355188EA0143301541000024000000
B1137175656917N01355111EA0142801542000024000000
B1137195656901N01355036EA0143001546000028000000
B1137215656887N01354963EA0143501554000028000000
B1137235656873N01354893EA0144101552000024000000
B1137255656860N01354821EA0144001545000028000000
B1137275656844N01354747EA0143301538000028000000
B1137295656830N01354671EA0142801537000028000000
B1137315656815N01354595EA0142501537000028000000
B1137335656801N01354520EA0142401536000028000000
B1137355656785N01354444EA0142401534000024000000
B1137375656771N01354370EA0142101533000024000000
B1137395656756N01354296EA0142101533000024000000
B1137415656739N01354223EA0142101532000024000000
B1137435656723N01354149EA0142001531000024000000
B1137455656706N01354077EA0141901530000024000000
B1137475656691N01354004EA0141901530000024000000
B1137495656674N01353932EA0141801529000024000000
B1137515656657N01353859EA0141701526000024000000
B1137535656639N01353788EA0141601525000024000000
B1137555656623N01353715EA0141501524000020000000
B1137575656606N01353642EA0141401520000020000000
B1137595656588N01353571EA0141101516000020000000
B1138015656570N01353498EA0140701513000020000000
B1138035656553N01353424EA0140401511000020000000
B1138055656536N01353349EA0140101509000020000000
B1138075656520N01353274EA0140001506000024000000
B1138095656505N01353199EA0139701503000020000000
B1138115656489N01353122EA0139201499000020000000
B1138135656473N01353047EA0138901495000020000000
B1138155656458N01352970EA0138601490000024000000
B1138175656441N01352894EA0138201488000024000000
B1138195656427N01352818EA0137901485000024000000
B1138215656411N01352743EA0137601483000024000000
B1138235656395N01352666EA0137401481000024000000
B1138255656381N01352591EA0137201480000024000000
B1138275656367N01352515EA0137001478000024000000
B1138295656354N01352440EA0137001477000024000000
B1138315656341N01352364EA0136801474000024000000
B1138335656327N01352288EA0136701471000028000000
B1138355656311N01352211EA0136201469000024000000
B1138375656297N01352136EA0136101469000024000000
B1138395656281N01352060EA0136101468000024000000
B1138415656265N01351986EA0135901463000028000000
B1138435656250N01351909EA0135501456000024000000
B1138455656233N01351831EA0134801448000024000000
B1138475656215N01351753EA0134101444000028000000
B1138495656197N01351674EA0133701444000028000000
B1138515656178N01351597EA0133601443000028000000
B1138535656160N01351523EA0133501442000028000000
B1138555656141N01351449EA0133401441000028000000
B1138575656121N01351375EA0133301437000028000000
B1138595656102N01351302EA0133101435000028000000
B1139015656082N01351228EA0132801434000028000000
B1139035656063N01351155EA0132701434000028000000
B1139055656044N01351083EA0132701432000028000000
B1139075656026N01351009EA0132501432000028000000
B1139095656008N01350936EA0132501430000028000000
B1139115655991N01350863EA0132401428000028000000
B1139135655974N01350790EA0132201425000028000000
B1139155655959N01350716EA0131901419000028000000
B1139175655940N01350641EA0131301411000028000000
B1139195655921N01350565EA0130601408000028000000
B1139215655903N01350490EA0130101404000028000000
B1139235655883N01350414EA0129801404000028000000
B1139255655865N01350340EA0129701400000028000000
B1139275655846N01350268EA0129501397000032000000
B1139295655826N01350195EA0129101392000032000000
B1139315655805N01350121EA0128501384000032000000
B1139335655783N01350045EA0127801383000032000000
B1139355655760N01349974EA0127601383000032000000
B1139375655735N01349902EA0127701385000032000000
B1139395655710N01349835EA0128001393000032000000
B1139415655688N01349772EA0129001408000028000000
B1139435655669N01349716EA0130401418000028000000
B1139455655649N01349663EA0131401425000028000000
B1139475655631N01349611EA0132301433000024000000
B1139495655612N01349564EA0133001439000024000000
B1139515655592N01349520EA0133501442000024000000
B1139535655571N01349478EA0133801445000024000000
B1139555655550N01349441EA0133901444000020000000
B1139575655524N01349424EA0134001441000020000000
B1139595655501N01349436EA0133701442000020000000
B1140015655488N01349469EA0133701447000020000000
B1140035655488N01349508EA0134101449000020000000
B1140055655500N01349543EA0134301449000020000000
B1140075655521N01349568EA0134501452000020000000
B1140095655545N01349585EA0134601454000020000000
B1140115655574N01349592EA0134801457000016000000
B1140135655604N01349589EA0135101464000016000000
B1140155655634N01349580EA0135701468000012000000
B1140175655665N01349563EA0136101469000012000000
B1140195655695N01349537EA0136301470000012000000
B1140215655721N01349493EA0136501474000016000000
B1140235655738N01349437EA0136901479000016000000
B1140255655739N01349373EA0137301477000016000000
B1140275655727N01349316EA0137201477000020000000
B1140295655705N01349281EA0137301481000020000000
B1140315655682N01349270EA0137701487000016000000
B1140335655664N01349280EA0138201491000016000000
B1140355655651N01349303EA0138501491000016000000
B1140375655647N01349337EA0138601492000012000000
B1140395655652N01349373EA0138701496000012000000
B1140415655665N01349404EA0138801500000016000000
B1140435655687N01349425EA0139301503000012000000
B1140455655714N01349434EA0139601507000016000000
B1140475655743N01349429EA0140101512000016000000
B1140495655773N01349410EA0140401513000016000000
B1140515655799N01349374EA0140601516000016000000
B1140535655821N01349328EA0140801518000016000000
B1140555655835N01349273EA0140901519000016000000
B1140575655842N01349213EA0141201521000016000000
B1140595655840N01349152EA0141401523000016000000
B1141015655833N01349095EA0141601527000016000000
B1141035655817N01349046EA0141901531000016000000
B1141055655797N01349007EA0142301534000016000000
B1141075655777N01348977EA0142601538000016000000
B1141095655755N01348947EA0143001540000016000000
B1141115655732N01348917EA0143201542000016000000
B1141135655709N01348887EA0143401544000020000000
B1141155655687N01348858EA0143501545000016000000
B1141175655664N01348830EA0143601544000016000000
B1141195655639N01348804EA0143601547000016000000
B1141215655615N01348779EA0143801549000016000000
B1141235655593N01348757EA0144001551000016000000
B1141255655574N01348735EA0144201553000016000000
B1141275655553N01348713EA0144301543000016000000
B1141295655527N01348692EA0143601529000020000000
B1141315655498N01348672EA0142301522000024000000
B1141335655469N01348654EA0141601521000024000000
B1141355655439N01348635EA0141201516000024000000
B1141375655407N01348614EA0140901508000024000000
B1141395655375N01348592EA0140001494000024000000
B1141415655339N01348567EA0138801487000024000000
B1141435655302N01348544EA0138001484000024000000
B1141455655264N01348519EA0137601482000024000000
B1141475655228N01348493EA0137401480000028000000
B1141495655190N01348464EA0137201477000028000000
B1141515655154N01348435EA0136901474000028000000
B1141535655118N01348398EA0136601471000032000000
B1141555655082N01348357EA0136401470000028000000
B1141575655047N01348311EA0136401472000032000000
B1141595655015N01348264EA0136601476000028000000
B1142015654984N01348219EA0136801474000028000000
B1142035654951N01348172EA0136601468000028000000
B1142055654919N01348124EA0135901463000028000000
B1142075654886N01348076EA0135601462000028000000
B1142095654854N01348029EA0135401461000032000000
B1142115654822N01347981EA0135301460000032000000
B1142135654791N01347933EA0135401460000032000000
B1142155654761N01347886EA0135301455000032000000
B1142175654730N01347839EA0134801448000032000000
B1142195654698N01347791EA0134201440000032000000
B1142215654664N01347744EA0133401434000032000000
B1142235654630N01347696EA0132701429000032000000
B1142255654596N01347647EA0132201422000032000000
B1142275654562N01347600EA0131601417000032000000
B1142295654527N01347553EA0131001413000028000000
B1142315654492N01347505EA0130601411000028000000
B1142335654457N01347458EA0130401409000032000000
B1142355654423N01347411EA0130201408000032000000
B1142375654391N01347365EA0130001407000032000000
B1142395654357N01347319EA0129901406000028000000
B1142415654325N01347272EA0129801401000032000000
B1142435654291N01347226EA0129401399000028000000
B1142455654258N01347180EA0129201398000028000000
B1142475654224N01347135EA0129001395000028000000
B1142495654191N01347089EA0128701391000028000000
B1142515654156N01347044EA0128301387000028000000
B1142535654122N01346998EA0128101385000028000000
B1142555654088N01346951EA0127801386000028000000
B1142575654055N01346903EA0127901388000028000000
B1142595654024N01346856EA0128101389000028000000
B1143015653993N01346807EA0128201390000028000000
B1143035653962N01346761EA0128301392000028000000
B1143055653929N01346716EA0128501392000028000000
B1143075653898N01346670EA0128501390000028000000
B1143095653867N01346628EA0128401389000028000000
B1143115653837N01346583EA0128301386000028000000
B1143135653806N01346538EA0127801379000028000000
B1143155653773N01346494EA0127301377000028000000
B1143175653742N01346448EA0127101375000028000000
B1143195653711N01346403EA0126801373000028000000
B1143215653678N01346356EA0126701371000028000000
B1143235653647N01346310EA0126601372000028000000
B1143255653617N01346266EA0126601371000028000000
B1143275653586N01346221EA0126401368000028000000
B1143295653555N01346175EA0126301367000028000000
B1143315653525N01346132EA0126501379000028000000
B1143335653499N01346093EA0127001387000024000000
B1143355653473N01346056EA0127901388000024000000
B1143375653448N01346019EA0128201389000024000000
B1143395653424N01345981EA0128501388000024000000
B1143415653399N01345945EA0128401385000020000000
B1143435653372N01345911EA0128101382000024000000
B1143455653344N01345883EA0127701382000024000000
B1143475653316N01345858EA0127801383000024000000
B1143495653287N01345851EA0128001388000024000000
B1143515653261N01345866EA0128501395000024000000
B1143535653239N01345889EA0129201401000020000000
B1143555653220N01345919EA0129601405000020000000
B1143575653209N01345961EA0130201413000020000000
B1143595653214N01346002EA0131101426000020000000
B1144015653229N01346036EA0132401434000020000000
B1144035653252N01346059EA0133101437000020000000
B1144055653282N01346062EA0133401442000020000000
B1144075653312N01346043EA0134001449000020000000
B1144095653337N01346002EA0134601453000020000000
B1144115653351N01345949EA0135101458000020000000
B1144135653353N01345890EA0135501461000020000000
B1144155653344N01345838EA0135701461000016000000
B1144175653325N01345801EA0135901463000020000000
B1144195653301N01345781EA0136101469000016000000
B1144215653278N01345779EA0136401476000016000000
B1144235653257N01345790EA0137101482000016000000
B1144255653243N01345816EA0137701483000020000000
B1144275653242N01345855EA0137901483000020000000
B1144295653256N01345892EA0138101489000020000000
B1144315653283N01345905EA0138401497000020000000
B1144335653313N01345890EA0139501503000020000000
B1144355653338N01345851EA0139801506000020000000
B1144375653351N01345794EA0140201507000020000000
B1144395653350N01345733EA0140301509000020000000
B1144415653335N01345682EA0140501515000016000000
B1144435653314N01345651EA0141101523000016000000
B1144455653292N01345642EA0141701529000016000000
B1144475653272N01345651EA0142201530000016000000
B1144495653257N01345679EA0142401531000016000000
B1144515653256N01345716EA0142601542000016000000
B1144535653268N01345749EA0143601554000020000000
B1144555653290N01345768EA0144801559000016000000
B1144575653320N01345771EA0145301560000016000000
B1144595653351N01345747EA0145501564000016000000
B1145015653376N01345701EA0145801570000016000000
B1145035653387N01345642EA0146601580000016000000
B1145055653389N01345586EA0147401586000016000000
B1145075653378N01345536EA0147801585000016000000
B1145095653357N01345498EA0147801583000016000000
B1145115653331N01345472EA0147901586000020000000
B1145135653304N01345450EA0148001586000020000000
B1145155653275N01345430EA0147901587000020000000
B1145175653246N01345412EA0148101590000024000000
B1145195653213N01345394EA0148201587000028000000
B1145215653181N01345374EA0147601577000028000000
B1145235653144N01345355EA0146601566000028000000
B1145255653105N01345334EA0146001558000032000000
B1145275653064N01345315EA0144701551000032000000
B1145295653023N01345292EA0144501551000032000000
B1145315652983N01345268EA0144301551000032000000
B1145335652945N01345242EA0144301556000036000000
B1145355652909N01345214EA0144601561000032000000
B1145375652874N01345186EA0145201565000032000000
B1145395652841N01345156EA0145601569000032000000
B1145415652809N01345125EA0146001567000028000000
B1145435652776N01345094EA0145901564000028000000
B1145455652744N01345062EA0145701562000028000000
B1145475652711N01345030EA0145601561000024000000
B1145495652679N01344997EA0145401560000024000000
B1145515652646N01344966EA0145201558000024000000
B1145535652614N01344935EA0145101557000024000000
B1145555652583N01344902EA0145001559000024000000
B1145575652551N01344870EA0145101561000024000000
B1145595652521N01344839EA0145401561000020000000
B1146015652490N01344809EA0145401559000020000000
B1146035652459N01344778EA0145301558000020000000
B1146055652429N01344748EA0145101557000020000000
B1146075652398N01344719EA0144901557000020000000
B1146095652367N01344693EA0144901557000020000000
B1146115652336N01344668EA0144901556000020000000
B1146135652303N01344645EA0144801553000020000000
B1146155652272N01344622EA0144601552000020000000
B1146175652241N01344600EA0144401551000020000000
B1146195652209N01344577EA0144401550000020000000
B1146215652178N01344555EA0144401550000020000000
B1146235652147N01344533EA0144401550000020000000
B1146255652116N01344509EA0144401549000020000000
B1146275652086N01344485EA0144301549000020000000
B1146295652055N01344462EA0144201547000020000000
B1146315652024N01344440EA0144001545000020000000
B1146335651992N01344418EA0143901543000020000000
B1146355651961N01344398EA0143601541000020000000
B1146375651929N01344377EA0143401539000020000000
B1146395651897N01344355EA0143201538000020000000
B1146415651865N01344332EA0143201539000020000000
B1146435651834N01344310EA0143201540000020000000
B1146455651804N01344286EA0143301540000020000000
B1146475651773N01344264EA0143201539000020000000
B1146495651743N01344243EA0143201540000020000000
B1146515651713N01344223EA0143301541000020000000
B1146535651683N01344203EA0143501542000020000000
B1146555651653N01344184EA0143501541000020000000
B1146575651623N01344167EA0143501540000020000000
B1146595651593N01344150EA0143201538000020000000
B1147015651563N01344134EA0143201536000020000000
B1147035651533N01344119EA0143001532000020000000
B1147055651501N01344103EA0142601529000020000000
B1147075651468N01344089EA0142401530000024000000
B1147095651437N01344074EA0142401537000024000000
B1147115651407N01344060EA0142901543000024000000
B1147135651380N01344048EA0143701551000024000000
B1147155651353N01344037EA0144301543000020000000
B1147175651322N01344026EA0143801532000020000000
B1147195651288N01344016EA0142801524000024000000
B1147215651251N01344005EA0142001523000028000000
B1147235651216N01343994EA0141801525000028000000
B1147255651180N01343981EA0141901526000028000000
B1147275651146N01343968EA0142001527000028000000
B1147295651111N01343953EA0142101533000028000000
B1147315651080N01343942EA0142501537000028000000
B1147335651049N01343931EA0142901538000028000000
B1147355651016N01343920EA0143001536000024000000
B1147375650985N01343911EA0142901534000024000000
B1147395650954N01343903EA0142701531000024000000
B1147415650922N01343895EA0142301528000024000000
B1147435650891N01343890EA0142201525000024000000
B1147455650859N01343887EA0141901521000024000000
B1147475650826N01343885EA0141601518000024000000
B1147495650795N01343885EA0141301517000024000000
B1147515650764N01343886EA0141201517000024000000
B1147535650734N01343887EA0141201516000020000000
B1147555650704N01343891EA0141101515000020000000
B1147575650674N01343892EA0141101514000020000000
B1147595650644N01343895EA0141001513000020000000
B1148015650614N01343896EA0140801512000020000000
B1148035650583N01343899EA0140801513000020000000
B1148055650552N01343901EA0140801511000020000000
B1148075650522N01343903EA0140701509000020000000
B1148095650491N01343905EA0140401507000024000000
B1148115650460N01343908EA0140201504000024000000
B1148135650427N01343911EA0140001504000024000000
B1148155650396N01343913EA0139901503000024000000
B1148175650365N01343916EA0139801503000024000000
B1148195650334N01343920EA0139901504000020000000
B1148215650304N01343924EA0139901502000024000000
B1148235650272N01343927EA0139701500000024000000
B1148255650241N01343931EA0139601499000024000000
B1148275650210N01343935EA0139401498000024000000
B1148295650180N01343942EA0139401497000020000000
B1148315650149N01343947EA0139201492000020000000
B1148335650118N01343953EA0139001485000020000000
B1148355650084N01343960EA0138001480000024000000
B1148375650050N01343966EA0137501472000024000000
B1148395650014N01343974EA0137101467000024000000
B1148415649979N01343981EA0136501469000028000000
B1148435649944N01343986EA0136501471000028000000
B1148455649910N01343990EA0136701473000028000000
B1148475649877N01343995EA0137001475000028000000
B1148495649846N01343999EA0137201478000024000000
B1148515649816N01344003EA0137301480000028000000
B1148535649788N01344005EA0137601477000028000000
B1148555649758N01344008EA0137501473000024000000
B1148575649726N01344009EA0137101469000024000000
B1148595649695N01344012EA0136701465000024000000
B1149015649664N01344012EA0136301463000024000000
B1149035649633N01344013EA0136101463000024000000
B1149055649600N01344015EA0136101463000024000000
B1149075649569N01344016EA0136101462000024000000
B1149095649538N01344016EA0136101461000024000000
B1149115649505N01344013EA0135901460000020000000
B1149135649473N01344009EA0135801458000020000000
B1149155649442N01344004EA0135501457000020000000
B1149175649409N01343999EA0135401455000020000000
B1149195649378N01343994EA0135301453000020000000
B1149215649346N01343989EA0135101452000020000000
B1149235649314N01343985EA0135101451000020000000
B1149255649282N01343979EA0135001449000020000000
B1149275649251N01343974EA0134801446000020000000
B1149295649217N01343970EA0134601443000020000000
B1149315649184N01343966EA0134301442000020000000
B1149335649152N01343963EA0134001441000020000000
B1149355649118N01343960EA0134001439000020000000
B1149375649084N01343959EA0133801436000016000000
B1149395649050N01343957EA0133601434000016000000
B1149415649017N01343959EA0133401432000020000000
B1149435648983N01343959EA0133201427000020000000
B1149455648948N01343960EA0132701425000020000000
B1149475648914N01343963EA0132601424000020000000
B1149495648879N01343964EA0132501422000024000000
B1149515648845N01343965EA0132301420000024000000
B1149535648809N01343966EA0132101418000024000000
B1149555648774N01343968EA0131701416000024000000
B1149575648737N01343970EA0131501416000024000000
B1149595648702N01343972EA0131501416000024000000
B1150015648668N01343974EA0131501413000024000000
B1150035648633N01343977EA0131201408000024000000
B1150055648598N01343979EA0130901404000024000000
B1150075648562N01343981EA0130201400000024000000
B1150095648527N01343985EA0130001399000028000000
B1150115648491N01343987EA0129601397000028000000
B1150135648456N01343991EA0129501393000028000000
B1150155648423N01343995EA0129301386000028000000
B1150175648386N01344002EA0128801383000028000000
B1150195648352N01344009EA0128201381000028000000
B1150215648317N01344017EA0128101373000028000000
B1150235648282N01344030EA0127601366000024000000
B1150255648247N01344044EA0126901359000028000000
B1150275648212N01344063EA0126101361000028000000
B1150295648181N01344080EA0126401371000028000000
B1150315648151N01344096EA0127301379000028000000
B1150335648124N01344111EA0127801385000024000000
B1150355648098N01344125EA0128501396000024000000
B1150375648075N01344137EA0129401404000024000000
B1150395648053N01344148EA0130301406000020000000
B1150415648031N01344163EA0130601409000020000000
B1150435648008N01344172EA0131101411000020000000
B1150455647983N01344161EA0131201409000020000000
B1150475647962N01344125EA0131101411000024000000
B1150495647951N01344070EA0131201411000020000000
B1150515647953N01344009EA0131201410000020000000
B1150535647974N01343961EA0131101407000020000000
B1150555648007N01343948EA0130701402000024000000
B1150575648033N01343970EA0130601405000024000000
B1150595648046N01344007EA0130601409000020000000
B1151015648051N01344047EA0131001411000020000000
B1151035648052N01344086EA0131101409000020000000
B1151055648049N01344126EA0130901408000020000000
B1151075648043N01344165EA0130801408000020000000
B1151095648031N01344200EA0130901411000020000000
B1151115648020N01344236EA0131201415000020000000
B1151135648009N01344272EA0131501416000020000000
B1151155648000N01344307EA0131701417000020000000
B1151175647990N01344345EA0131701413000020000000
B1151195647982N01344385EA0131401405000020000000
B1151215647978N01344432EA0130601399000020000000
B1151235647979N01344483EA0130101400000020000000
B1151255647981N01344529EA0130301407000020000000
B1151275647983N01344575EA0130901414000020000000
B1151295647987N01344619EA0131601422000020000000
B1151315647994N01344662EA0132501428000020000000
B1151335648012N01344698EA0133101430000020000000
B1151355648042N01344711EA0133501439000020000000
B1151375648073N01344696EA0134401449000020000000
B1151395648100N01344659EA0135001451000020000000
B1151415648117N01344605EA0135301454000020000000
B1151435648122N01344546EA0135701459000020000000
B1151455648116N01344492EA0135901461000020000000
B1151475648100N01344450EA0136201460000020000000
B1151495648077N01344429EA0136101458000016000000
B1151515648055N01344434EA0136001462000016000000
B1151535648040N01344460EA0136301468000020000000
B1151555648033N01344496EA0136801473000016000000
B1151575648030N01344536EA0137401477000016000000
B1151595648031N01344577EA0137701476000020000000
B1152015648035N01344622EA0137801475000020000000
B1152035648035N01344667EA0137801482000020000000
B1152055648026N01344702EA0138401489000020000000
B1152075648010N01344730EA0138701478000016000000
B1152095647990N01344753EA0137801465000016000000
B1152115647961N01344763EA0136601459000020000000
B1152135647931N01344763EA0135901455000020000000
B1152155647900N01344758EA0135501454000020000000
B1152175647869N01344746EA0135401451000020000000
B1152195647836N01344735EA0135101445000020000000
B1152215647804N01344723EA0134601441000020000000
B1152235647770N01344713EA0134301440000020000000
B1152255647737N01344701EA0134101438000020000000
B1152275647705N01344689EA0134001436000020000000
B1152295647672N01344676EA0133701435000020000000
B1152315647639N01344658EA0133501433000020000000
B1152335647606N01344636EA0133401431000020000000
B1152355647574N01344616EA0133201429000020000000
B1152375647542N01344597EA0133101427000020000000
B1152395647510N01344577EA0132901422000020000000
B1152415647476N01344558EA0132301418000024000000
B1152435647441N01344541EA0131901418000024000000
B1152455647407N01344524EA0131701415000024000000
B1152475647372N01344507EA0131601411000024000000
B1152495647337N01344490EA0131301411000024000000
B1152515647303N01344472EA0131301414000028000000
B1152535647268N01344454EA0131601417000028000000
B1152555647236N01344436EA0131801423000024000000
B1152575647204N01344416EA0132401431000024000000
B1152595647176N01344397EA0133101432000024000000
B1153015647146N01344379EA0133301429000024000000
B1153035647116N01344360EA0133101426000024000000
B1153055647086N01344342EA0132801423000020000000
B1153075647055N01344324EA0132601420000024000000
B1153095647024N01344307EA0132301420000020000000
B1153115646994N01344291EA0132201420000020000000
B1153135646964N01344275EA0132301419000020000000
B1153155646935N01344259EA0132101415000020000000
B1153175646905N01344245EA0131601404000020000000
B1153195646873N01344228EA0130501389000020000000
B1153215646838N01344212EA0129101381000024000000
B1153235646803N01344195EA0128401380000028000000
B1153255646768N01344178EA0128101377000028000000
B1153275646733N01344163EA0127801373000028000000
B1153295646697N01344147EA0127501369000028000000
B1153315646662N01344132EA0127201368000028000000
B1153335646629N01344116EA0127101368000028000000
B1153355646595N01344102EA0127201369000028000000
B1153375646561N01344086EA0127201368000028000000
B1153395646528N01344070EA0127101371000028000000
B1153415646496N01344055EA0127301374000028000000
B1153435646465N01344041EA0127601374000028000000
B1153455646434N01344025EA0127701375000028000000
B1153475646404N01344011EA0127801371000028000000
B1153495646372N01343998EA0127501370000028000000
B1153515646343N01343986EA0127301370000028000000
B1153535646311N01343974EA0127301367000024000000
B1153555646280N01343963EA0127001362000024000000
B1153575646248N01343948EA0126601360000024000000
B1153595646216N01343933EA0126401362000024000000
B1154015646188N01343921EA0126801379000024000000
B1154035646171N01343909EA0128601406000024000000
B1154055646155N01343900EA0130901412000020000000
B1154075646140N01343892EA0131401404000020000000
B1154095646118N01343885EA0130601392000020000000
B1154115646090N01343879EA0129401380000020000000
B1154135646059N01343873EA0128201369000020000000
B1154155646024N01343869EA0127201363000024000000
B1154175645989N01343869EA0126801364000024000000
B1154195645953N01343872EA0126701362000028000000
B1154215645919N01343873EA0126501360000028000000
B1154235645882N01343875EA0126201353000028000000
B1154255645847N01343879EA0125701351000028000000
B1154275645812N01343885EA0125401349000028000000
B1154295645778N01343888EA0125201349000028000000
B1154315645745N01343891EA0125301350000028000000
B1154335645711N01343888EA0125301352000028000000
B1154355645677N01343879EA0125501351000032000000
B1154375645642N01343865EA0125501351000032000000
B1154395645609N01343846EA0125501352000028000000
B1154415645578N01343820EA0125501353000028000000
B1154435645548N01343790EA0125601352000028000000
B1154455645518N01343757EA0125601351000024000000
B1154475645490N01343723EA0125501349000024000000
B1154495645460N01343688EA0125201343000024000000
B1154515645430N01343651EA0124701337000020000000
B1154535645400N01343612EA0124301332000020000000
B1154555645368N01343573EA0123701326000024000000
B1154575645335N01343534EA0123101323000024000000
B1154595645303N01343496EA0122801321000024000000
B1155015645270N01343461EA0122601324000024000000
B1155035645238N01343426EA0122801323000024000000
B1155055645206N01343385EA0122601319000024000000
B1155075645175N01343344EA0122301317000024000000
B1155095645144N01343300EA0122201315000024000000
B1155115645113N01343257EA0122001311000024000000
B1155135645082N01343211EA0121701307000024000000
B1155155645050N01343166EA0121301304000024000000
B1155175645019N01343119EA0120901302000024000000
B1155195644988N01343072EA0120601300000024000000
B1155215644957N01343027EA0120501298000024000000
B1155235644926N01342980EA0120301295000024000000
B1155255644894N01342933EA0120101291000024000000
B1155275644862N01342885EA0119601285000024000000
B1155295644831N01342835EA0119101281000024000000
B1155315644798N01342786EA0118601278000024000000
B1155335644766N01342738EA0118301278000024000000
B1155355644734N01342692EA0118201278000028000000
B1155375644703N01342648EA0118301280000028000000
B1155395644673N01342608EA0118501282000028000000
B1155415644645N01342569EA0118601280000024000000
B1155435644614N01342529EA0118401276000024000000
B1155455644584N01342490EA0118101273000028000000
B1155475644552N01342452EA0117701271000028000000
B1155495644521N01342414EA0117601269000024000000
B1155515644491N01342375EA0117501265000024000000
B1155535644460N01342335EA0117001260000024000000
B1155555644429N01342292EA0116701257000024000000
B1155575644398N01342250EA0116201255000024000000
B1155595644368N01342210EA0116001255000024000000
B1156015644337N01342171EA0115901253000024000000
B1156035644307N01342133EA0115801252000024000000
B1156055644277N01342094EA0115801250000024000000
B1156075644246N01342057EA0115601247000024000000
B1156095644216N01342019EA0115101244000020000000
B1156115644186N01341979EA0115001241000020000000
B1156135644156N01341938EA0114601237000020000000
B1156155644126N01341896EA0114301230000020000000
B1156175644095N01341853EA0113401225000024000000
B1156195644064N01341810EA0113101218000024000000
B1156215644031N01341766EA0112601211000024000000
B1156235643997N01341720EA0111901206000024000000
B1156255643964N01341675EA0111301202000028000000
B1156275643930N01341628EA0110901198000028000000
B1156295643896N01341581EA0110501195000028000000
B1156315643862N01341533EA0110201194000028000000
B1156335643828N01341483EA0110101192000028000000
B1156355643796N01341435EA0110001188000028000000
B1156375643762N01341387EA0109401187000028000000
B1156395643727N01341339EA0109301186000028000000
B1156415643693N01341294EA0109301184000028000000
B1156435643658N01341249EA0109201183000028000000
B1156455643624N01341204EA0109201180000028000000
B1156475643589N01341161EA0108901179000028000000
B1156495643555N01341118EA0108701178000028000000
B1156515643520N01341075EA0108701172000028000000
B1156535643484N01341031EA0108201166000028000000
B1156555643449N01340986EA0107601164000028000000
B1156575643414N01340939EA0107301162000028000000
B1156595643379N01340893EA0107201162000028000000
B1157015643343N01340846EA0107101160000028000000
B1157035643310N01340800EA0107001158000028000000
B1157055643276N01340752EA0106801159000032000000
B1157075643243N01340703EA0106801163000028000000
B1157095643212N01340654EA0107101162000032000000
B1157115643180N01340606EA0107201162000032000000
B1157135643150N01340557EA0107301167000032000000
B1157155643122N01340505EA0107501167000028000000
B1157175643095N01340454EA0107601164000028000000
B1157195643068N01340404EA0107501163000028000000
B1157215643043N01340351EA0107301160000032000000
B1157235643020N01340297EA0107001154000032000000
B1157255642996N01340237EA0106401146000028000000
B1157275642977N01340173EA0105601138000028000000
B1157295642956N01340107EA0104801129000028000000
B1157315642934N01340040EA0103901117000028000000
B1157335642909N01339974EA0102801110000028000000
B1157355642882N01339909EA0102001102000028000000
B1157375642852N01339845EA0101601106000032000000
B1157395642825N01339787EA0101701113000032000000
B1157415642796N01339736EA0102501121000032000000
B1157435642768N01339701EA0103401134000028000000
B1157455642739N01339679EA0104401138000028000000
B1157475642709N01339666EA0104801134000028000000
B1157495642678N01339662EA0104401131000028000000
B1157515642647N01339663EA0104401133000028000000
B1157535642615N01339669EA0104401135000028000000
B1157555642586N01339675EA0104601136000028000000
B1157575642556N01339679EA0104701136000024000000
B1157595642526N01339680EA0104801135000024000000
B1158015642496N01339684EA0104601131000024000000
B1158035642466N01339695EA0104401131000028000000
B1158055642437N01339708EA0104301127000024000000
B1158075642409N01339726EA0104001123000024000000
B1158095642380N01339749EA0103701125000028000000
B1158115642354N01339771EA0103701126000024000000
B1158135642328N01339796EA0103801121000028000000
B1158155642302N01339825EA0103601119000028000000
B1158175642279N01339855EA0103401122000028000000
B1158195642255N01339886EA0103401122000028000000
B1158215642235N01339917EA0103701127000028000000
B1158235642212N01339946EA0104001128000024000000
B1158255642193N01339978EA0104401134000024000000
B1158275642175N01340007EA0105101145000024000000
B1158295642158N01340033EA0105901151000024000000
B1158315642141N01340057EA0106501155000024000000
B1158335642125N01340081EA0107001155000020000000
B1158355642110N01340108EA0107001153000020000000
B1158375642094N01340137EA0106801152000020000000
B1158395642077N01340165EA0106601143000020000000
B1158415642059N01340198EA0105901130000020000000
B1158435642037N01340233EA0104701118000020000000
B1158455642015N01340272EA0103601111000024000000
B1158475641991N01340312EA0102801108000024000000
B1158495641967N01340352EA0102401106000024000000
B1158515641942N01340394EA0102201108000024000000
B1158535641919N01340432EA0102501121000024000000
B1158555641898N01340463EA0103501132000024000000
B1158575641878N01340492EA0104601136000024000000
B1158595641858N01340520EA0105001134000020000000
B1159015641838N01340547EA0105001132000020000000
B1159035641817N01340576EA0104801126000020000000
B1159055641794N01340603EA0104201118000020000000
B1159075641770N01340631EA0103701128000020000000
B1159095641746N01340648EA0104201134000020000000
B1159115641718N01340649EA0104801136000020000000
B1159135641692N01340629EA0105301143000020000000
B1159155641673N01340589EA0105901150000020000000
B1159175641663N01340533EA0106401153000016000000
B1159195641665N01340471EA0106801156000016000000
B1159215641683N01340416EA0107301164000016000000
B1159235641709N01340381EA0107801167000016000000
B1159255641739N01340369EA0108201168000020000000
B1159275641767N01340382EA0108201171000020000000
B1159295641782N01340412EA0108401176000020000000
B1159315641781N01340446EA0108801177000020000000
B1159335641767N01340471EA0108901173000020000000
B1159355641742N01340473EA0108601174000020000000
B1159375641718N01340447EA0108801180000020000000
B1159395641700N01340403EA0109101183000020000000
B1159415641692N01340346EA0109601188000020000000
B1159435641691N01340286EA0110101195000020000000
B1159455641703N01340229EA0110501196000020000000
B1159475641724N01340185EA0110601191000020000000
B1159495641754N01340165EA0109901179000024000000
B1159515641782N01340185EA0109301182000024000000
B1159535641802N01340213EA0109701193000024000000
B1159555641813N01340247EA0110201194000024000000
B1159575641816N01340284EA0110301194000020000000
B1159595641812N01340320EA0110401197000020000000
B1200015641802N01340351EA0110501197000020000000
B1200035641787N01340380EA0110601197000020000000
B1200055641770N01340406EA0110701199000020000000
B1200075641755N01340434EA0110701200000020000000
B1200095641738N01340463EA0110801203000020000000
B1200115641721N01340492EA0111201208000020000000
B1200135641700N01340512EA0111601211000020000000
B1200155641676N01340506EA0112101214000020000000
B1200175641651N01340469EA0112301215000020000000
B1200195641639N01340414EA0112601224000020000000
B1200215641642N01340354EA0113201229000020000000
B1200235641657N01340303EA0113701228000020000000
B1200255641685N01340269EA0113701224000020000000
B1200275641717N01340261EA0113301223000020000000
B1200295641744N01340281EA0113301230000020000000
B1200315641760N01340316EA0113901236000016000000
