ACAM3RL
HFDTE190703
HFFXA050
HFPLTPILOT:Peter Cutting           
HFGTYGLIDERTYPE:LS8-t       
HFGIDGLIDERID:SE-USP      
HFDTM100GPSDATUM:
HFRFWFIRMWAREVERSION:F2.6
HFRHWHARDWAREVERSION:300 Series Version 2
HFFTYFRTYPE:CAMBRIDGE AERO INSTRUMENTS, 302+
HFGPS:GARMIN,LVS-25,12,18000
HFPRSPRESSALTSENSOR:INTERSEMA, MS5534-AP, 20000
I033638FXA3941ENL4247REX
LCAMSBVER:5FWVER:F26300
C190703115703190703000103
C0000000N00000000WTAKEOFF     
C5657250N01355580EFeringe flp 
C5642580N01335830ETorpa ka    
C5651915N01409850ERyssby ka   
C5642015N01351330EHamneda ka  
C5657250N01355580EFeringe flp 
C0000000N00000000WLANDING     
B1215535657248N01355419EA0009700168000032000000
B1215555657248N01355419EA0009800168000028000000
B1215575657248N01355419EA0009800169000024000000
B1215595657248N01355419EA0009700169000020000000
B1216015657248N01355421EA0009700169000020000000
B1216035657248N01355421EA0009700169000016000000
B1216055657248N01355421EA0009700169000016000000
B1216075657248N01355421EA0009800169000016000000
B1216095657248N01355421EA0009700169000012000000
B1216115657248N01355421EA0009700169000012000000
B1216135657248N01355421EA0009700169000020000000
B1216155657248N01355421EA0009700169000020000000
B1216175657248N01355421EA0009600169000020000000
B1216195657248N01355419EA0009700169000016000000
B1216215657244N01355418EA0009800169000028000000
B1216225657242N01355417EA0009800169000040000000
B1216245657231N01355412EA0009800169000076000000
B1216265657218N01355404EA0009700169000112000000
B1216285657201N01355393EA0009600169000164000000
B1216305657179N01355383EA0009600168000240000000
B1216325657156N01355370EA0009600169000252000000
B1216345657129N01355356EA0009700169000220000000
B1216365657099N01355340EA0009800169000212000000
B1216385657068N01355323EA0009800170000192000000
B1216405657035N01355305EA0010000173000184000000
B1216425657001N01355287EA0010300177000176000000
B1216445656967N01355265EA0010700183000164000000
B1216465656934N01355244EA0011300191000156000000
B1216485656900N01355226EA0012000198000148000000
B1216505656867N01355208EA0012700205000148000000
B1216525656832N01355189EA0013500212000152000000
B1216545656798N01355171EA0014100218000164000000
B1216565656763N01355152EA0014800224000164000000
B1216585656730N01355128EA0015400230000160000000
B1217005656697N01355109EA0016000240000160000000
B1217025656663N01355092EA0017000250000160000000
B1217045656631N01355076EA0017500261000160000000
B1217065656598N01355061EA0018600269000160000000
B1217085656564N01355044EA0019700274000168000000
B1217105656532N01355026EA0019900279000172000000
B1217125656498N01355006EA0020500285000172000000
B1217145656464N01354987EA0021100292000180000000
B1217165656431N01354964EA0021800298000180000000
B1217185656395N01354945EA0022500307000180000000
B1217205656362N01354927EA0023400318000180000000
B1217225656328N01354907EA0024400326000168000000
B1217245656294N01354890EA0025200333000168000000
B1217265656260N01354872EA0026100344000164000000
B1217285656226N01354854EA0027000350000160000000
B1217305656194N01354833EA0027800359000164000000
B1217325656163N01354816EA0028700371000168000000
B1217345656132N01354801EA0029900380000168000000
B1217365656099N01354786EA0030700389000172000000
B1217385656069N01354773EA0031800402000172000000
B1217405656039N01354756EA0032900412000172000000
B1217425656011N01354736EA0033300418000168000000
B1217445655981N01354716EA0034100426000168000000
B1217465655951N01354699EA0035200434000168000000
B1217485655921N01354682EA0035600442000168000000
B1217505655888N01354667EA0036400445000172000000
B1217525655856N01354652EA0036800447000176000000
B1217545655825N01354636EA0037000450000184000000
B1217565655792N01354617EA0037300453000188000000
B1217585655761N01354598EA0037600456000188000000
B1218005655729N01354578EA0037900461000184000000
B1218025655696N01354564EA0038200465000192000000
B1218045655665N01354550EA0038800470000184000000
B1218065655632N01354537EA0039300476000180000000
B1218085655599N01354528EA0039900482000172000000
B1218105655565N01354516EA0040500486000164000000
B1218125655531N01354502EA0040900491000184000000
B1218145655496N01354490EA0041300496000188000000
B1218165655461N01354478EA0041900503000188000000
B1218185655426N01354468EA0042700511000180000000
B1218205655391N01354457EA0043600522000180000000
B1218225655354N01354451EA0044100531000184000000
B1218245655319N01354446EA0045100542000180000000
B1218265655284N01354442EA0046000550000172000000
B1218285655250N01354441EA0047000561000168000000
B1218305655219N01354438EA0048100573000176000000
B1218325655186N01354437EA0049100582000172000000
B1218345655154N01354439EA0050100587000164000000
B1218365655123N01354439EA0050700593000168000000
B1218385655092N01354433EA0051300601000164000000
B1218405655064N01354411EA0052000607000156000000
B1218425655042N01354376EA0052600612000164000000
B1218445655028N01354331EA0053100615000160000000
B1218465655023N01354279EA0053400619000172000000
B1218485655025N01354226EA0053800624000180000000
B1218505655037N01354174EA0054100628000148000000
B1218525655058N01354130EA0054600633000124000000
B1218545655085N01354096EA0055000637000104000000
B1218565655118N01354075EA0055500642000088000000
B1218585655154N01354071EA0056000646000084000000
B1219005655189N01354073EA0056600656000072000000
B1219025655224N01354071EA0057500667000064000000
B1219045655258N01354070EA0058600677000056000000
B1219065655290N01354069EA0059100686000052000000
B1219085655324N01354066EA0059900695000048000000
B1219105655358N01354064EA0061000706000048000000
B1219125655391N01354061EA0062100719000048000000
B1219145655424N01354061EA0063200727000044000000
B1219165655457N01354062EA0064400743000044000000
B1219185655491N01354064EA0065800756000040000000
B1219205655524N01354064EA0067000762000040000000
B1219225655558N01354066EA0067700772000040000000
B1219245655592N01354070EA0068600781000040000000
B1219265655625N01354073EA0069500789000036000000
B1219285655657N01354074EA0070300797000036000000
B1219305655691N01354077EA0070900800000036000000
B1219325655725N01354078EA0071200801000036000000
B1219345655758N01354070EA0071500805000036000000
B1219365655788N01354052EA0072000811000036000000
B1219385655814N01354022EA0072400820000036000000
B1219405655834N01353983EA0073200827000036000000
B1219425655849N01353936EA0073700831000036000000
B1219445655860N01353884EA0074200836000036000000
B1219465655866N01353831EA0074800841000036000000
B1219485655873N01353778EA0075400849000036000000
B1219505655881N01353723EA0076000855000036000000
B1219525655887N01353668EA0076600862000036000000
B1219545655894N01353615EA0077300868000032000000
B1219565655898N01353559EA0078100877000032000000
B1219585655901N01353505EA0078800883000036000000
B1220005655905N01353450EA0079500889000036000000
B1220025655909N01353395EA0080100895000036000000
B1220045655913N01353341EA0080700901000036000000
B1220065655917N01353287EA0081300907000032000000
B1220085655920N01353233EA0081800914000032000000
B1220105655922N01353180EA0082500921000032000000
B1220125655926N01353126EA0082800927000032000000
B1220145655934N01353073EA0083700933000044000000
B1220165655944N01353025EA0084000939000044000000
B1220185655947N01352977EA0084600946000040000000
B1220205655935N01352936EA0085300953000036000000
B1220225655913N01352913EA0086100957000036000000
B1220245655885N01352914EA0086400957000032000000
B1220265655857N01352942EA0086400953000028000000
B1220285655835N01352992EA0086100949000024000000
B1220305655825N01353056EA0085600947000024000000
B1220325655827N01353121EA0085500945000020000000
B1220345655843N01353180EA0085200938000020000000
B1220365655870N01353219EA0084700937000020000000
B1220385655899N01353234EA0084600940000020000000
B1220405655927N01353232EA0084800941000020000000
B1220425655952N01353219EA0084800939000020000000
B1220445655977N01353203EA0084700942000020000000
B1220465655998N01353182EA0085200948000020000000
B1220485656003N01353146EA0085800951000020000000
B1220505655986N01353115EA0086000951000024000000
B1220525655956N01353116EA0086000952000024000000
B1220545655931N01353157EA0086100955000020000000
B1220565655925N01353221EA0086300955000020000000
B1220585655937N01353280EA0086400955000020000000
B1221005655959N01353317EA0086500958000020000000
B1221025655983N01353336EA0086600962000020000000
B1221045656007N01353332EA0086900964000020000000
B1221065656016N01353300EA0087200963000020000000
B1221085656007N01353263EA0087400968000020000000
B1221105655983N01353241EA0087700973000020000000
B1221125655953N01353251EA0088200977000020000000
B1221145655930N01353293EA0088400978000020000000
B1221165655921N01353354EA0088500975000020000000
B1221185655930N01353415EA0088300973000020000000
B1221205655952N01353456EA0088100974000020000000
B1221225655979N01353471EA0088200977000020000000
B1221245656003N01353458EA0088500982000016000000
B1221265656016N01353428EA0089000984000016000000
B1221285656016N01353388EA0089400990000016000000
B1221305656000N01353355EA0089900996000016000000
B1221325655973N01353347EA0090200993000016000000
B1221345655943N01353375EA0090000990000016000000
B1221365655925N01353432EA0089900993000016000000
B1221385655924N01353497EA0090100994000016000000
B1221405655935N01353555EA0090200994000016000000
B1221425655957N01353601EA0090200999000016000000
B1221445655982N01353627EA0090801004000016000000
B1221465656008N01353629EA0091201009000016000000
B1221485656028N01353611EA0091501009000012000000
B1221505656037N01353577EA0091501007000012000000
B1221525656033N01353538EA0091601012000012000000
B1221545656016N01353508EA0092301021000012000000
B1221565655990N01353502EA0092701029000016000000
B1221585655964N01353519EA0093501033000016000000
B1222005655942N01353557EA0093901031000016000000
B1222025655926N01353609EA0093801028000012000000
B1222045655921N01353670EA0093701025000012000000
B1222065655926N01353733EA0093401026000016000000
B1222085655942N01353788EA0093401033000016000000
B1222105655964N01353824EA0093901039000016000000
B1222125655989N01353840EA0094501043000012000000
B1222145656012N01353835EA0094901044000012000000
B1222165656028N01353809EA0095001040000012000000
B1222185656035N01353770EA0094701040000012000000
B1222205656030N01353731EA0094701045000016000000
B1222225656017N01353698EA0095201053000016000000
B1222245655998N01353676EA0095901054000016000000
B1222265655969N01353687EA0096101051000020000000
B1222285655946N01353733EA0095801050000020000000
B1222305655938N01353800EA0095701054000020000000
B1222325655946N01353867EA0095801053000020000000
B1222345655970N01353917EA0095901057000020000000
B1222365656000N01353928EA0096301063000020000000
B1222385656022N01353909EA0096701063000020000000
B1222405656030N01353869EA0096701060000020000000
B1222425656018N01353827EA0096601063000020000000
B1222445655990N01353809EA0096901066000020000000
B1222465655957N01353827EA0097201069000020000000
B1222485655934N01353879EA0097401071000020000000
B1222505655927N01353950EA0097701076000020000000
B1222525655939N01354018EA0098201080000020000000
B1222545655966N01354065EA0098701084000020000000
B1222565655995N01354075EA0098901089000020000000
B1222585656017N01354057EA0099401086000020000000
B1223005656028N01354019EA0099301084000020000000
B1223025656024N01353976EA0099101087000020000000
B1223045656005N01353945EA0099201089000020000000
B1223065655977N01353939EA0099501095000020000000
B1223085655946N01353957EA0100001095000020000000
B1223105655922N01354006EA0100201096000020000000
B1223125655912N01354075EA0100201099000020000000
B1223145655918N01354144EA0100501103000020000000
B1223165655939N01354199EA0100801107000024000000
B1223185655968N01354229EA0101101109000020000000
B1223205655995N01354234EA0101501111000020000000
B1223225656018N01354218EA0101601108000020000000
B1223245656028N01354182EA0101501107000020000000
B1223265656022N01354140EA0101401109000020000000
B1223285656004N01354108EA0101401109000020000000
B1223305655977N01354099EA0101701114000020000000
B1223325655948N01354117EA0102001118000020000000
B1223345655925N01354157EA0102301118000020000000
B1223365655909N01354216EA0102601123000016000000
B1223385655904N01354279EA0102901127000016000000
B1223405655907N01354342EA0103201131000016000000
B1223425655918N01354398EA0103601135000016000000
B1223445655935N01354444EA0104101131000016000000
B1223465655957N01354489EA0103801125000016000000
B1223485655981N01354534EA0103201126000020000000
B1223505656005N01354574EA0103301132000020000000
B1223525656030N01354612EA0103701133000020000000
B1223545656056N01354650EA0104001133000020000000
B1223565656083N01354688EA0104001134000016000000
B1223585656112N01354724EA0104001138000016000000
B1224005656141N01354759EA0104401143000016000000
B1224025656172N01354780EA0105001146000020000000
B1224045656195N01354758EA0105501153000020000000
B1224065656199N01354717EA0106101159000020000000
B1224085656186N01354684EA0106401156000016000000
B1224105656160N01354667EA0106201155000016000000
B1224125656130N01354669EA0106201159000016000000
B1224145656102N01354689EA0106501160000020000000
B1224165656077N01354732EA0106701163000020000000
B1224185656061N01354792EA0106901165000016000000
B1224205656060N01354859EA0107101167000016000000
B1224225656077N01354919EA0107401170000016000000
B1224245656106N01354951EA0107601172000016000000
B1224265656135N01354949EA0107801176000016000000
B1224285656154N01354915EA0108201180000020000000
B1224305656155N01354871EA0108701185000020000000
B1224325656139N01354836EA0109201190000016000000
B1224345656115N01354823EA0109701196000016000000
B1224365656086N01354837EA0109901197000016000000
B1224385656063N01354879EA0110201197000016000000
B1224405656051N01354942EA0110201200000016000000
B1224425656056N01355010EA0110501203000016000000
B1224445656074N01355066EA0110701206000016000000
B1224465656103N01355098EA0111101211000016000000
B1224485656132N01355102EA0111601217000020000000
B1224505656156N01355081EA0112101222000020000000
B1224525656172N01355046EA0112601226000020000000
B1224545656181N01355003EA0113001229000020000000
B1224565656187N01354958EA0113201228000020000000
B1224585656194N01354912EA0113101225000020000000
B1225005656202N01354864EA0112701221000020000000
B1225025656207N01354815EA0112301217000020000000
B1225045656211N01354766EA0112001215000020000000
B1225065656216N01354715EA0111701210000020000000
B1225085656221N01354662EA0111401202000020000000
B1225105656225N01354606EA0110701196000020000000
B1225125656228N01354548EA0110201193000024000000
B1225145656230N01354491EA0110001195000028000000
B1225165656233N01354434EA0110001198000028000000
B1225185656236N01354383EA0110401216000028000000
B1225205656238N01354342EA0111701231000028000000
B1225225656242N01354304EA0113101228000028000000
B1225245656245N01354261EA0113101216000024000000
B1225265656249N01354210EA0112201209000024000000
B1225285656250N01354156EA0111301200000024000000
B1225305656247N01354096EA0110401189000028000000
B1225325656242N01354034EA0109301181000028000000
B1225345656233N01353969EA0108401175000032000000
B1225365656223N01353904EA0108001176000032000000
B1225385656210N01353843EA0108001184000032000000
B1225405656195N01353787EA0108701190000032000000
B1225425656181N01353732EA0109301192000032000000
B1225445656164N01353677EA0109301187000032000000
B1225465656148N01353622EA0108701174000032000000
B1225485656132N01353560EA0107601164000032000000
B1225505656113N01353499EA0106601157000036000000
B1225525656095N01353436EA0106001152000040000000
B1225545656078N01353372EA0105501150000036000000
B1225565656060N01353310EA0105201149000040000000
B1225585656043N01353250EA0105201151000040000000
B1226005656026N01353193EA0105601156000040000000
B1226025656009N01353138EA0105901161000040000000
B1226045655994N01353086EA0106301162000040000000
B1226065655978N01353035EA0106501158000040000000
B1226085655963N01352983EA0106101150000036000000
B1226105655946N01352929EA0105301143000036000000
B1226125655927N01352871EA0104701139000036000000
B1226145655909N01352817EA0104301136000036000000
B1226165655891N01352761EA0104001132000036000000
B1226185655872N01352706EA0103701132000040000000
B1226205655852N01352653EA0103701133000036000000
B1226225655835N01352600EA0103701133000036000000
B1226245655818N01352546EA0103601130000036000000
B1226265655803N01352492EA0103401127000036000000
B1226285655786N01352436EA0103001124000036000000
B1226305655769N01352379EA0102601119000036000000
B1226325655752N01352320EA0102301115000036000000
B1226345655735N01352263EA0102001114000036000000
B1226365655716N01352206EA0102001113000040000000
B1226385655696N01352150EA0101801112000036000000
B1226405655675N01352097EA0101701112000040000000
B1226425655656N01352043EA0101601113000036000000
B1226445655639N01351991EA0101901113000036000000
B1226465655619N01351941EA0101901112000032000000
B1226485655599N01351893EA0101701109000032000000
B1226505655578N01351843EA0101301104000032000000
B1226525655556N01351794EA0100801094000032000000
B1226545655534N01351739EA0099901087000036000000
B1226565655511N01351683EA0099201081000036000000
B1226585655489N01351625EA0098501073000040000000
B1227005655469N01351565EA0098001073000040000000
B1227025655448N01351506EA0098001078000040000000
B1227045655426N01351452EA0098501084000040000000
B1227065655406N01351399EA0098901085000040000000
B1227085655388N01351344EA0099001084000036000000
B1227105655374N01351287EA0099001080000036000000
B1227125655359N01351227EA0098701077000036000000
B1227145655346N01351165EA0098301071000036000000
B1227165655333N01351102EA0097801067000040000000
B1227185655319N01351042EA0097201065000036000000
B1227205655302N01350984EA0097001065000036000000
B1227225655287N01350928EA0097001066000036000000
B1227245655272N01350873EA0097101067000036000000
B1227265655257N01350820EA0097201067000036000000
B1227285655240N01350769EA0097201064000036000000
B1227305655223N01350719EA0096901064000032000000
B1227325655207N01350668EA0096801062000032000000
B1227345655190N01350619EA0096501060000032000000
B1227365655173N01350570EA0096401058000032000000
B1227385655158N01350522EA0096201057000028000000
B1227405655140N01350476EA0096001054000028000000
B1227425655123N01350429EA0095701052000028000000
B1227445655105N01350383EA0095601052000028000000
B1227465655088N01350338EA0095601052000028000000
B1227485655072N01350292EA0095601051000028000000
B1227505655055N01350248EA0095501049000028000000
B1227525655036N01350205EA0095301044000028000000
B1227545655015N01350162EA0094901035000028000000
B1227565654991N01350118EA0094101032000032000000
B1227585654968N01350076EA0093701035000032000000
B1228005654945N01350039EA0093801034000028000000
B1228025654920N01350001EA0093801031000028000000
B1228045654897N01349963EA0093701026000060000000
B1228065654872N01349922EA0093601018000096000000
B1228085654850N01349878EA0093301019000132000000
B1228105654830N01349837EA0093501030000152000000
B1228125654813N01349801EA0094401040000180000000
B1228145654799N01349772EA0095101047000176000000
B1228165654785N01349746EA0095401047000140000000
B1228185654770N01349716EA0094901037000112000000
B1228205654757N01349679EA0094301032000092000000
B1228225654744N01349638EA0093701031000084000000
B1228245654731N01349597EA0093501027000068000000
B1228265654720N01349553EA0093301025000060000000
B1228285654709N01349507EA0092901023000052000000
B1228305654700N01349460EA0092801022000044000000
B1228325654690N01349413EA0092701017000044000000
B1228345654681N01349364EA0092301009000040000000
B1228365654670N01349309EA0091101001000040000000
B1228385654660N01349252EA0090300992000040000000
B1228405654650N01349191EA0089600989000040000000
B1228425654639N01349129EA0089500987000040000000
B1228445654630N01349066EA0089300987000040000000
B1228465654620N01349005EA0089300991000040000000
B1228485654608N01348947EA0089600994000036000000
B1228505654598N01348888EA0089800995000036000000
B1228525654587N01348830EA0089900996000036000000
B1228545654575N01348773EA0090000994000036000000
B1228565654562N01348714EA0089900991000036000000
B1228585654547N01348656EA0089600988000036000000
B1229005654531N01348596EA0089400992000040000000
B1229025654517N01348541EA0089801006000040000000
B1229045654503N01348493EA0090901015000036000000
B1229065654488N01348448EA0092001022000036000000
B1229085654479N01348403EA0093001032000032000000
B1229105654486N01348362EA0094001043000036000000
B1229125654504N01348337EA0095001052000036000000
B1229145654527N01348334EA0095701058000032000000
B1229165654552N01348350EA0096301058000028000000
B1229185654574N01348383EA0096401053000024000000
B1229205654595N01348429EA0096001051000024000000
B1229225654611N01348485EA0095701050000024000000
B1229245654614N01348549EA0095501048000020000000
B1229265654608N01348615EA0095301046000020000000
B1229285654590N01348672EA0095101047000020000000
B1229305654568N01348719EA0095301049000020000000
B1229325654540N01348754EA0095501050000020000000
B1229345654512N01348783EA0095501051000020000000
B1229365654482N01348809EA0095701053000020000000
B1229385654452N01348834EA0095901055000020000000
B1229405654422N01348851EA0096201060000016000000
B1229425654393N01348853EA0096401066000016000000
B1229445654373N01348834EA0097001071000016000000
B1229465654362N01348801EA0097501073000020000000
B1229485654360N01348765EA0097801071000020000000
B1229505654356N01348724EA0097501066000020000000
B1229525654348N01348683EA0097301060000020000000
B1229545654339N01348637EA0096301055000020000000
B1229565654327N01348588EA0096001050000024000000
B1229585654315N01348539EA0095501050000024000000
B1230005654302N01348490EA0095501052000024000000
B1230025654284N01348448EA0095701059000028000000
B1230045654258N01348425EA0096301066000024000000
B1230065654227N01348429EA0097001071000024000000
B1230085654198N01348459EA0097501072000024000000
B1230105654176N01348510EA0097701069000020000000
B1230125654166N01348579EA0097401064000020000000
B1230145654171N01348654EA0097001063000020000000
B1230165654185N01348726EA0096901065000024000000
B1230185654204N01348793EA0097001066000020000000
B1230205654223N01348857EA0097101066000020000000
B1230225654245N01348917EA0097201065000020000000
B1230245654267N01348975EA0097101065000020000000
B1230265654289N01349033EA0097001064000020000000
B1230285654314N01349088EA0097001063000020000000
B1230305654339N01349143EA0097001066000024000000
B1230325654362N01349198EA0097101069000020000000
B1230345654387N01349251EA0097401071000024000000
B1230365654412N01349306EA0097601074000024000000
B1230385654438N01349358EA0098001076000020000000
B1230405654462N01349412EA0098201076000024000000
B1230425654488N01349468EA0098201074000024000000
B1230445654516N01349528EA0098001074000024000000
B1230465654542N01349586EA0098001075000024000000
B1230485654572N01349641EA0098101076000024000000
B1230505654603N01349694EA0098201076000028000000
B1230525654634N01349745EA0098101075000028000000
B1230545654665N01349794EA0098001075000028000000
B1230565654698N01349840EA0098101077000028000000
B1230585654730N01349884EA0098301078000028000000
B1231005654763N01349930EA0098501079000028000000
B1231025654793N01349976EA0098601080000028000000
B1231045654824N01350023EA0098601082000024000000
B1231065654854N01350070EA0098701083000024000000
B1231085654882N01350117EA0098901084000024000000
B1231105654911N01350165EA0098901079000024000000
B1231125654941N01350219EA0098501070000028000000
B1231145654971N01350279EA0097801066000028000000
B1231165655002N01350336EA0097401067000028000000
B1231185655032N01350391EA0097401071000028000000
B1231205655062N01350443EA0097801074000028000000
B1231225655090N01350491EA0098201077000028000000
B1231245655119N01350539EA0098501081000028000000
B1231265655147N01350583EA0098901085000028000000
B1231285655175N01350625EA0099301088000024000000
B1231305655202N01350667EA0099601088000024000000
B1231325655229N01350710EA0099501085000024000000
B1231345655257N01350752EA0099201083000020000000
B1231365655285N01350795EA0098901081000020000000
B1231385655314N01350840EA0098701076000020000000
B1231405655341N01350886EA0098401072000024000000
B1231425655370N01350934EA0098001068000024000000
B1231445655398N01350985EA0097501064000024000000
B1231465655426N01351038EA0097201063000024000000
B1231485655454N01351089EA0097101064000024000000
B1231505655482N01351140EA0097201066000024000000
B1231525655509N01351189EA0097401066000024000000
B1231545655537N01351237EA0097601068000024000000
B1231565655565N01351283EA0097601069000028000000
B1231585655592N01351327EA0097701070000024000000
B1232005655619N01351371EA0097701069000024000000
B1232025655647N01351415EA0097601067000024000000
B1232045655675N01351458EA0097401066000024000000
B1232065655704N01351500EA0097301067000020000000
B1232085655732N01351542EA0097401066000020000000
B1232105655761N01351583EA0097401064000020000000
B1232125655791N01351622EA0097301062000020000000
B1232145655821N01351659EA0097101063000020000000
B1232165655853N01351690EA0097001063000020000000
B1232185655885N01351718EA0096901062000020000000
B1232205655917N01351746EA0096901059000020000000
B1232225655950N01351773EA0096601054000020000000
B1232245655983N01351799EA0096201049000020000000
B1232265656017N01351825EA0095701046000024000000
B1232285656052N01351848EA0095301043000024000000
B1232305656089N01351870EA0095101041000024000000
B1232325656122N01351894EA0094901042000028000000
B1232345656156N01351917EA0094901042000028000000
B1232365656189N01351941EA0094901041000024000000
B1232385656223N01351963EA0094801040000024000000
B1232405656255N01351986EA0094701037000024000000
B1232425656288N01352008EA0094301033000024000000
B1232445656320N01352032EA0093901028000024000000
B1232465656354N01352054EA0093301024000024000000
B1232485656389N01352077EA0093101016000024000000
B1232505656425N01352103EA0092401009000024000000
B1232525656462N01352130EA0091701005000028000000
B1232545656499N01352158EA0091301005000028000000
B1232565656536N01352185EA0091001005000028000000
B1232585656571N01352214EA0091201004000028000000
B1233005656606N01352242EA0091101003000028000000
B1233025656641N01352270EA0090901001000028000000
B1233045656676N01352296EA0090800997000028000000
B1233065656711N01352323EA0090300993000028000000
B1233085656748N01352351EA0089800986000028000000
B1233105656783N01352384EA0089300983000028000000
B1233125656819N01352419EA0089000982000028000000
B1233145656853N01352458EA0088900982000028000000
B1233165656886N01352500EA0089000984000032000000
B1233185656915N01352543EA0089300988000032000000
B1233205656944N01352587EA0089400986000028000000
B1233225656974N01352631EA0089300985000028000000
B1233245657004N01352675EA0089200990000028000000
B1233265657031N01352717EA0089600998000028000000
B1233285657056N01352760EA0090501006000028000000
B1233305657066N01352817EA0091701011000028000000
B1233325657057N01352877EA0091801009000028000000
B1233345657034N01352920EA0091701010000028000000
B1233365657004N01352935EA0091901014000024000000
B1233385656977N01352925EA0092101013000020000000
B1233405656956N01352894EA0092101012000020000000
B1233425656943N01352855EA0092001015000020000000
B1233445656938N01352813EA0092101014000020000000
B1233465656948N01352775EA0092201015000020000000
B1233485656970N01352757EA0092301017000020000000
B1233505656996N01352761EA0092401016000020000000
B1233525657023N01352784EA0092301013000020000000
B1233545657051N01352816EA0092001010000020000000
B1233565657078N01352848EA0091801011000020000000
B1233585657100N01352892EA0092101016000020000000
B1234005657105N01352953EA0092501018000020000000
B1234025657088N01353007EA0092601018000020000000
B1234045657060N01353026EA0092601020000020000000
B1234065657035N01353012EA0092701020000020000000
B1234085657022N01352974EA0092601018000020000000
B1234105657023N01352931EA0092501017000020000000
B1234125657035N01352894EA0092501019000020000000
B1234145657051N01352861EA0092601020000020000000
B1234165657069N01352832EA0092801020000020000000
B1234185657092N01352812EA0092901021000020000000
B1234205657120N01352814EA0092901023000020000000
B1234225657142N01352849EA0093101021000020000000
B1234245657151N01352907EA0092901019000020000000
B1234265657146N01352966EA0092701021000020000000
B1234285657126N01353014EA0092801022000020000000
B1234305657097N01353039EA0092801024000020000000
B1234325657069N01353038EA0093101027000020000000
B1234345657047N01353016EA0093501031000020000000
B1234365657032N01352981EA0093801032000020000000
B1234385657030N01352939EA0093801030000020000000
B1234405657035N01352899EA0093901032000020000000
B1234425657047N01352861EA0093901032000020000000
B1234445657065N01352834EA0093901032000020000000
B1234465657090N01352818EA0093901031000020000000
B1234485657117N01352826EA0093901031000020000000
B1234505657138N01352864EA0093701030000020000000
B1234525657147N01352921EA0093601028000020000000
B1234545657136N01352979EA0093601028000020000000
B1234565657112N01353018EA0093601029000020000000
B1234585657083N01353029EA0093601030000020000000
B1235005657058N01353012EA0093801035000020000000
B1235025657043N01352982EA0094201038000020000000
B1235045657034N01352944EA0094401039000016000000
B1235065657034N01352904EA0094401036000020000000
B1235085657039N01352864EA0094301035000020000000
B1235105657051N01352826EA0094101033000020000000
B1235125657065N01352790EA0094001033000020000000
B1235145657079N01352756EA0094001033000020000000
B1235165657094N01352723EA0094001032000020000000
B1235185657109N01352691EA0093801029000020000000
B1235205657126N01352657EA0093401025000016000000
B1235225657144N01352623EA0093201023000020000000
B1235245657165N01352592EA0093001023000016000000
B1235265657188N01352565EA0092701019000020000000
B1235285657212N01352537EA0092501015000020000000
B1235305657238N01352510EA0092101013000020000000
B1235325657265N01352485EA0091901013000020000000
B1235345657292N01352459EA0092001014000020000000
B1235365657317N01352429EA0092001016000020000000
B1235385657337N01352389EA0092201017000020000000
B1235405657344N01352341EA0092301016000020000000
B1235425657343N01352292EA0092201013000020000000
B1235445657334N01352245EA0091901008000020000000
B1235465657317N01352202EA0091501003000020000000
B1235485657290N01352175EA0091000997000020000000
B1235505657257N01352164EA0090400990000024000000
B1235525657222N01352166EA0089700985000024000000
B1235545657186N01352172EA0089100980000024000000
B1235565657148N01352180EA0088700976000024000000
B1235585657110N01352190EA0088300976000024000000
B1236005657074N01352202EA0088300976000028000000
B1236025657039N01352218EA0088300975000028000000
B1236045657004N01352233EA0088200976000028000000
B1236065656969N01352249EA0088200977000028000000
B1236085656936N01352264EA0088400979000028000000
B1236105656902N01352280EA0088500978000024000000
B1236125656870N01352294EA0088500975000024000000
B1236145656836N01352310EA0088300973000028000000
B1236165656805N01352337EA0088100972000024000000
B1236185656776N01352379EA0087900968000024000000
B1236205656752N01352431EA0087600964000024000000
B1236225656732N01352489EA0087200962000028000000
B1236245656715N01352553EA0087000962000028000000
B1236265656702N01352618EA0086900960000024000000
B1236285656691N01352683EA0086800958000024000000
B1236305656679N01352751EA0086500954000028000000
B1236325656668N01352819EA0086100951000028000000
B1236345656662N01352890EA0085900950000028000000
B1236365656655N01352959EA0085700949000028000000
B1236385656652N01353029EA0085600946000028000000
B1236405656654N01353098EA0085500944000024000000
B1236425656662N01353165EA0085100942000024000000
B1236445656674N01353232EA0084800937000024000000
B1236465656691N01353295EA0084600930000024000000
B1236485656709N01353359EA0084000926000028000000
B1236505656728N01353421EA0083500924000028000000
B1236525656749N01353481EA0083100922000028000000
B1236545656772N01353538EA0083000919000028000000
B1236565656797N01353592EA0082700915000028000000
B1236585656823N01353644EA0082300913000028000000
B1237005656850N01353693EA0082100912000028000000
B1237025656878N01353741EA0082100911000028000000
B1237045656904N01353789EA0081900910000028000000
B1237065656931N01353836EA0081800909000028000000
B1237085656957N01353882EA0081700907000028000000
B1237105656984N01353927EA0081500905000028000000
B1237125657012N01353973EA0081500905000028000000
B1237145657039N01354015EA0081500905000028000000
B1237165657065N01354060EA0081400903000028000000
B1237185657092N01354104EA0081300902000028000000
B1237205657120N01354149EA0081200902000028000000
B1237225657146N01354194EA0081200905000028000000
B1237245657172N01354236EA0081500908000028000000
B1237265657196N01354278EA0081700904000028000000
B1237285657224N01354318EA0081400899000024000000
B1237305657252N01354359EA0081000897000024000000
B1237325657281N01354399EA0080700893000024000000
B1237345657309N01354441EA0080300887000024000000
B1237365657341N01354483EA0079800884000028000000
B1237385657370N01354525EA0079500883000028000000
B1237405657400N01354568EA0079400883000028000000
B1237425657429N01354610EA0079400883000028000000
B1237445657459N01354650EA0079500884000028000000
B1237465657487N01354690EA0079500883000024000000
B1237485657515N01354732EA0079400878000024000000
B1237505657543N01354776EA0078800873000024000000
B1237525657573N01354820EA0078200865000024000000
B1237545657604N01354867EA0077500855000024000000
B1237565657636N01354918EA0076700851000028000000
B1237585657664N01354971EA0076400853000028000000
B1238005657693N01355026EA0076600854000028000000
B1238025657721N01355075EA0077000865000028000000
B1238045657745N01355122EA0077500875000028000000
B1238065657768N01355166EA0078500877000028000000
B1238085657792N01355209EA0078800877000024000000
B1238105657816N01355249EA0078900874000024000000
B1238125657841N01355287EA0078800873000024000000
B1238145657868N01355322EA0078700875000024000000
B1238165657896N01355334EA0078800877000024000000
B1238185657918N01355319EA0078800877000024000000
B1238205657931N01355288EA0079000877000020000000
B1238225657931N01355250EA0079000877000020000000
B1238245657919N01355217EA0079000877000020000000
B1238265657897N01355196EA0078900876000020000000
B1238285657868N01355197EA0078800873000020000000
B1238305657840N01355217EA0078600875000020000000
B1238325657815N01355248EA0078800879000016000000
B1238345657792N01355286EA0079000877000020000000
B1238365657771N01355331EA0078900875000016000000
B1238385657751N01355382EA0078700872000020000000
B1238405657736N01355438EA0078200868000020000000
B1238425657727N01355500EA0077800865000020000000
B1238445657723N01355565EA0077700863000020000000
B1238465657725N01355631EA0077400863000020000000
B1238485657733N01355695EA0077400865000020000000
B1238505657746N01355755EA0077500865000016000000
B1238525657762N01355809EA0077600867000020000000
B1238545657785N01355847EA0077800869000020000000
B1238565657810N01355854EA0078100871000020000000
B1238585657828N01355835EA0078200870000020000000
B1239005657837N01355803EA0078100867000016000000
B1239025657835N01355764EA0077800867000016000000
B1239045657823N01355733EA0077900872000016000000
B1239065657801N01355716EA0078200873000016000000
B1239085657775N01355717EA0078300869000016000000
B1239105657746N01355741EA0078000867000016000000
B1239125657723N01355785EA0077700867000016000000
B1239145657710N01355842EA0077700866000020000000
B1239165657710N01355907EA0077700865000020000000
B1239185657721N01355967EA0077600864000020000000
B1239205657737N01356024EA0077400862000016000000
B1239225657755N01356079EA0077300865000020000000
B1239245657775N01356125EA0077600865000020000000
B1239265657799N01356150EA0077600865000020000000
B1239285657823N01356150EA0077600864000020000000
B1239305657844N01356136EA0077400858000020000000
B1239325657866N01356121EA0077000853000020000000
B1239345657892N01356118EA0076500850000020000000
B1239365657918N01356131EA0076100843000020000000
B1239385657946N01356155EA0075400835000020000000
B1239405657974N01356189EA0074600831000020000000
B1239425658002N01356227EA0074300830000020000000
B1239445658030N01356266EA0074100827000020000000
B1239465658056N01356303EA0073700824000024000000
B1239485658084N01356340EA0073600823000024000000
B1239505658113N01356374EA0073600823000024000000
B1239525658141N01356406EA0073600825000024000000
B1239545658171N01356419EA0073700823000024000000
B1239565658199N01356405EA0073300816000024000000
B1239585658215N01356367EA0072700811000024000000
B1240005658218N01356322EA0072400808000024000000
B1240025658209N01356279EA0072100808000024000000
B1240045658187N01356251EA0072100809000024000000
B1240065658158N01356241EA0072100806000024000000
B1240085658127N01356244EA0071900804000024000000
B1240105658096N01356254EA0071800806000024000000
B1240125658066N01356268EA0071800806000024000000
B1240145658036N01356288EA0071900804000024000000
B1240165658006N01356313EA0071700803000024000000
B1240185657979N01356348EA0071400799000024000000
B1240205657957N01356400EA0071000792000024000000
B1240225657942N01356463EA0070400791000024000000
B1240245657939N01356530EA0070100793000024000000
B1240265657944N01356592EA0070200793000024000000
B1240285657959N01356645EA0070300790000020000000
B1240305657985N01356682EA0070100787000020000000
B1240325658015N01356697EA0069900790000020000000
B1240345658041N01356690EA0070000794000020000000
B1240365658058N01356660EA0070500796000020000000
B1240385658062N01356619EA0070600794000020000000
B1240405658053N01356579EA0070500791000020000000
B1240425658035N01356548EA0070300791000020000000
B1240445658009N01356534EA0070100787000020000000
B1240465657980N01356541EA0069900788000020000000
B1240485657954N01356571EA0070000790000020000000
B1240505657933N01356615EA0070100790000020000000
B1240525657923N01356671EA0070200787000020000000
B1240545657924N01356730EA0069900784000020000000
B1240565657933N01356784EA0069700782000020000000
B1240585657946N01356838EA0069500780000020000000
B1241005657961N01356891EA0069300783000020000000
B1241025657980N01356933EA0069500784000020000000
B1241045658005N01356950EA0069500782000020000000
B1241065658027N01356935EA0069400779000020000000
B1241085658036N01356898EA0069200779000020000000
B1241105658028N01356856EA0069200776000020000000
B1241125658006N01356831EA0069000778000020000000
B1241145657979N01356836EA0069200782000020000000
B1241165657953N01356864EA0069400783000020000000
B1241185657933N01356905EA0069600783000020000000
B1241205657922N01356961EA0069400776000020000000
B1241225657928N01357022EA0069000776000020000000
B1241245657949N01357065EA0069000780000020000000
B1241265657975N01357080EA0069200782000020000000
B1241285657997N01357067EA0069200779000016000000
B1241305658007N01357030EA0069000777000016000000
B1241325658004N01356989EA0069000779000020000000
B1241345657987N01356956EA0069000776000016000000
B1241365657961N01356940EA0068900776000016000000
B1241385657932N01356940EA0068800777000016000000
B1241405657902N01356947EA0068800774000016000000
B1241425657874N01356959EA0068600771000020000000
B1241445657844N01356974EA0068300768000020000000
B1241465657814N01356994EA0068100768000020000000
B1241485657783N01357016EA0068000766000020000000
B1241505657753N01357021EA0067900766000020000000
B1241525657728N01357005EA0067700767000020000000
B1241545657714N01356976EA0067900766000020000000
B1241565657712N01356940EA0067700761000020000000
B1241585657721N01356909EA0067200753000016000000
B1242005657740N01356885EA0066500747000016000000
B1242025657764N01356872EA0065900743000016000000
B1242045657792N01356868EA0065700746000020000000
B1242065657818N01356878EA0065900748000020000000
B1242085657838N01356914EA0066000747000020000000
B1242105657848N01356968EA0065800741000020000000
B1242125657844N01357028EA0065200736000020000000
B1242145657827N01357080EA0064800736000016000000
B1242165657803N01357120EA0064800734000020000000
B1242185657775N01357141EA0064600731000020000000
B1242205657746N01357138EA0064500731000020000000
B1242225657723N01357119EA0064400730000020000000
B1242245657706N01357090EA0064200722000020000000
B1242265657694N01357051EA0063500710000020000000
B1242285657686N01357004EA0062400704000020000000
B1242305657682N01356955EA0061800704000024000000
B1242325657685N01356909EA0061900712000024000000
B1242345657705N01356879EA0062500715000024000000
B1242365657732N01356887EA0062900719000028000000
B1242385657753N01356930EA0063200720000024000000
B1242405657758N01356990EA0063300717000024000000
B1242425657747N01357048EA0063100715000024000000
B1242445657725N01357095EA0062900717000020000000
B1242465657698N01357119EA0062900716000020000000
B1242485657672N01357111EA0063000715000020000000
B1242505657659N01357078EA0063000718000020000000
B1242525657663N01357042EA0063100719000020000000
B1242545657682N01357018EA0063300718000020000000
B1242565657710N01357025EA0063200717000020000000
B1242585657733N01357063EA0063000715000020000000
B1243005657744N01357122EA0062900714000020000000
B1243025657733N01357184EA0062900715000020000000
B1243045657708N01357223EA0062700713000020000000
B1243065657680N01357228EA0062500711000020000000
B1243085657658N01357202EA0062400712000020000000
B1243105657651N01357161EA0062600713000020000000
B1243125657660N01357122EA0062700714000020000000
B1243145657682N01357100EA0062800712000020000000
B1243165657712N01357115EA0062700711000020000000
B1243185657734N01357164EA0062500713000024000000
B1243205657738N01357230EA0062600713000020000000
B1243225657723N01357288EA0062700713000020000000
B1243245657695N01357320EA0062700714000020000000
B1243265657667N01357321EA0062700718000020000000
B1243285657647N01357301EA0063000721000020000000
B1243305657638N01357268EA0063400722000020000000
B1243325657641N01357232EA0063400720000020000000
B1243345657656N01357202EA0063400718000020000000
B1243365657682N01357194EA0063200720000020000000
B1243385657710N01357216EA0063300721000020000000
B1243405657728N01357265EA0063400720000020000000
B1243425657733N01357328EA0063300722000020000000
B1243445657721N01357385EA0063600725000020000000
B1243465657701N01357429EA0063700723000020000000
B1243485657672N01357450EA0063600722000020000000
B1243505657646N01357446EA0063500723000020000000
B1243525657628N01357416EA0063500723000020000000
B1243545657627N01357379EA0063600725000020000000
B1243565657641N01357347EA0063800727000020000000
B1243585657666N01357341EA0063900725000020000000
B1244005657693N01357366EA0063800723000020000000
B1244025657711N01357419EA0063700722000020000000
B1244045657712N01357483EA0063600723000020000000
B1244065657697N01357538EA0063700724000020000000
B1244085657671N01357568EA0063800724000020000000
B1244105657642N01357570EA0063700723000020000000
B1244125657621N01357546EA0063700723000020000000
B1244145657612N01357509EA0063700725000020000000
B1244165657614N01357471EA0063800726000020000000
B1244185657625N01357437EA0063800725000020000000
B1244205657646N01357415EA0063800725000020000000
B1244225657672N01357410EA0063800727000020000000
B1244245657699N01357424EA0064100729000020000000
B1244265657721N01357463EA0064300730000020000000
B1244285657733N01357518EA0064400729000020000000
B1244305657732N01357579EA0064300728000020000000
B1244325657718N01357632EA0064200730000020000000
B1244345657694N01357668EA0064300730000016000000
B1244365657667N01357680EA0064400728000016000000
B1244385657643N01357670EA0064200728000016000000
B1244405657625N01357644EA0064200729000016000000
B1244425657617N01357609EA0064400730000016000000
B1244445657623N01357574EA0064400731000016000000
B1244465657641N01357550EA0064600730000016000000
B1244485657668N01357550EA0064300726000016000000
B1244505657695N01357585EA0064000726000020000000
B1244525657707N01357646EA0064000728000020000000
B1244545657698N01357709EA0064100729000020000000
B1244565657675N01357748EA0064200730000020000000
B1244585657646N01357753EA0064400734000020000000
B1245005657625N01357731EA0064700733000020000000
B1245025657619N01357694EA0064800734000020000000
B1245045657628N01357659EA0064700735000020000000
B1245065657651N01357645EA0064900735000020000000
B1245085657680N01357667EA0065000736000020000000
B1245105657697N01357720EA0065100738000020000000
B1245125657697N01357783EA0065200740000020000000
B1245145657680N01357834EA0065300741000020000000
B1245165657653N01357856EA0065500743000020000000
B1245185657628N01357847EA0065700744000020000000
B1245205657614N01357817EA0065800744000020000000
B1245225657610N01357780EA0065800740000020000000
B1245245657607N01357740EA0065400731000020000000
B1245265657606N01357692EA0064500728000020000000
B1245285657607N01357644EA0064200731000020000000
B1245305657610N01357596EA0064300729000024000000
B1245325657612N01357548EA0064200725000024000000
B1245345657615N01357497EA0063500715000024000000
B1245365657615N01357441EA0063100711000024000000
B1245385657615N01357384EA0062500705000028000000
B1245405657615N01357325EA0062100704000028000000
B1245425657616N01357268EA0061800708000032000000
B1245445657616N01357215EA0062100712000032000000
B1245465657616N01357163EA0062500718000032000000
B1245485657616N01357115EA0063000722000032000000
B1245505657616N01357068EA0063300722000028000000
B1245525657616N01357021EA0063400724000028000000
B1245545657616N01356974EA0063500727000028000000
B1245565657616N01356930EA0063900732000028000000
B1245585657615N01356886EA0064400732000028000000
B1246005657614N01356842EA0064500733000028000000
B1246025657612N01356795EA0064500734000024000000
B1246045657612N01356751EA0064600737000024000000
B1246065657612N01356705EA0064800740000024000000
B1246085657611N01356660EA0065100743000024000000
B1246105657611N01356617EA0065400745000024000000
B1246125657610N01356573EA0065600747000024000000
B1246145657608N01356531EA0065700749000024000000
B1246165657606N01356488EA0066000748000024000000
B1246185657604N01356444EA0066000747000024000000
B1246205657602N01356398EA0065900746000020000000
B1246225657601N01356352EA0065900749000024000000
B1246245657598N01356306EA0066200756000020000000
B1246265657598N01356262EA0066700758000020000000
B1246285657595N01356216EA0066900759000020000000
B1246305657594N01356171EA0067100761000020000000
B1246325657594N01356128EA0067300763000020000000
B1246345657598N01356085EA0067400763000020000000
B1246365657601N01356042EA0067400763000020000000
B1246385657603N01355999EA0067400760000020000000
B1246405657606N01355954EA0067300758000020000000
B1246425657610N01355908EA0067100757000020000000
B1246445657614N01355863EA0067100758000024000000
B1246465657617N01355820EA0067100759000024000000
B1246485657621N01355776EA0067100757000024000000
B1246505657627N01355730EA0067000756000020000000
B1246525657630N01355686EA0066800754000020000000
B1246545657636N01355639EA0066800752000020000000
B1246565657641N01355592EA0066600750000024000000
B1246585657646N01355544EA0066300748000024000000
B1247005657650N01355496EA0066200748000024000000
B1247025657654N01355448EA0066100749000024000000
B1247045657658N01355400EA0066200749000024000000
B1247065657662N01355353EA0066200748000024000000
B1247085657667N01355306EA0066100746000024000000
B1247105657672N01355260EA0065900744000028000000
B1247125657677N01355213EA0065700743000028000000
B1247145657682N01355165EA0065700741000028000000
B1247165657686N01355118EA0065400739000028000000
B1247185657692N01355071EA0065200734000028000000
B1247205657698N01355022EA0064500726000028000000
B1247225657706N01354970EA0063900721000028000000
B1247245657714N01354919EA0063600722000028000000
B1247265657723N01354871EA0063500718000028000000
B1247285657732N01354821EA0063300715000028000000
B1247305657742N01354776EA0062900714000028000000
B1247325657753N01354730EA0062700708000028000000
B1247345657763N01354681EA0062100697000028000000
B1247365657773N01354628EA0061100686000032000000
B1247385657785N01354572EA0060100684000032000000
B1247405657797N01354516EA0059800686000032000000
B1247425657806N01354463EA0059900691000032000000
B1247445657812N01354412EA0060400694000032000000
B1247465657815N01354361EA0060600690000032000000
B1247485657814N01354311EA0060200684000032000000
B1247505657809N01354259EA0059600679000032000000
B1247525657797N01354209EA0059200677000028000000
B1247545657783N01354164EA0059200679000028000000
B1247565657767N01354119EA0059200682000032000000
B1247585657754N01354078EA0059500686000028000000
B1248005657741N01354038EA0059800688000028000000
B1248025657728N01353999EA0060100686000028000000
B1248045657714N01353958EA0059900681000028000000
B1248065657699N01353917EA0059400681000028000000
B1248085657686N01353879EA0059400690000028000000
B1248105657673N01353845EA0060000694000024000000
B1248125657660N01353813EA0060600690000024000000
B1248145657645N01353779EA0060400684000024000000
B1248165657628N01353744EA0059900685000024000000
B1248185657610N01353709EA0059800690000024000000
B1248205657593N01353676EA0060200693000024000000
B1248225657576N01353645EA0060600695000024000000
B1248245657559N01353614EA0060900697000020000000
B1248265657541N01353583EA0061100700000024000000
B1248285657525N01353549EA0061500704000024000000
B1248305657524N01353512EA0061800706000020000000
B1248325657537N01353485EA0062000705000020000000
B1248345657563N01353479EA0061800701000020000000
B1248365657590N01353503EA0061500700000020000000
B1248385657610N01353551EA0061500703000020000000
B1248405657620N01353611EA0061600704000020000000
B1248425657620N01353675EA0061600699000020000000
B1248445657608N01353737EA0061200695000020000000
B1248465657585N01353787EA0061100699000020000000
B1248485657559N01353818EA0061400705000020000000
B1248505657530N01353840EA0061900708000020000000
B1248525657503N01353849EA0062300712000020000000
B1248545657482N01353837EA0062400715000020000000
B1248565657473N01353807EA0062600714000020000000
B1248585657478N01353775EA0062600715000020000000
B1249005657497N01353755EA0062700715000020000000
B1249025657523N01353761EA0062700714000020000000
B1249045657546N01353793EA0062800715000020000000
B1249065657559N01353848EA0062800716000020000000
B1249085657560N01353910EA0063000719000020000000
B1249105657550N01353969EA0063200722000020000000
B1249125657529N01354017EA0063400724000020000000
B1249145657506N01354049EA0063700726000020000000
B1249165657480N01354071EA0063800728000020000000
B1249185657452N01354083EA0063900727000020000000
B1249205657426N01354090EA0063800724000020000000
B1249225657399N01354090EA0063600722000020000000
B1249245657373N01354083EA0063400722000020000000
B1249265657348N01354066EA0063400724000020000000
B1249285657328N01354043EA0063500725000020000000
B1249305657309N01354014EA0063500726000020000000
B1249325657291N01353987EA0063800726000020000000
B1249345657273N01353960EA0063800726000020000000
B1249365657256N01353932EA0063700727000020000000
B1249385657239N01353904EA0063800728000020000000
B1249405657224N01353876EA0063900728000020000000
B1249425657208N01353848EA0063900726000020000000
B1249445657192N01353818EA0063800725000020000000
B1249465657177N01353788EA0063700724000020000000
B1249485657160N01353758EA0063400724000020000000
B1249505657144N01353731EA0063400725000020000000
B1249525657129N01353702EA0063600726000020000000
B1249545657113N01353676EA0063700727000020000000
B1249565657097N01353649EA0063700726000020000000
B1249585657083N01353623EA0063700726000020000000
B1250005657068N01353596EA0063500722000020000000
B1250025657052N01353567EA0063100718000020000000
B1250045657036N01353536EA0062900716000020000000
B1250065657019N01353503EA0062600713000020000000
B1250085657003N01353471EA0062400710000020000000
B1250105656986N01353436EA0062000710000020000000
B1250125656970N01353401EA0061900713000020000000
B1250145656956N01353367EA0062200717000020000000
B1250165656941N01353334EA0062600720000020000000
B1250185656934N01353298EA0062900721000020000000
B1250205656940N01353261EA0063200722000020000000
B1250225656962N01353245EA0063100723000020000000
B1250245656988N01353255EA0063100721000020000000
B1250265657012N01353295EA0063000718000020000000
B1250285657023N01353355EA0062800719000020000000
B1250305657021N01353417EA0062900722000020000000
B1250325657009N01353473EA0063100723000020000000
B1250345656988N01353518EA0063100722000020000000
B1250365656962N01353550EA0063100722000020000000
B1250385656935N01353573EA0063100725000020000000
B1250405656909N01353594EA0063400729000020000000
B1250425656882N01353609EA0063700730000020000000
B1250445656856N01353611EA0063800730000020000000
B1250465656830N01353605EA0063800730000020000000
B1250485656804N01353598EA0063800732000020000000
B1250505656778N01353589EA0064100737000020000000
B1250525656756N01353571EA0064600742000020000000
B1250545656743N01353537EA0065100745000020000000
B1250565656746N01353498EA0065500748000020000000
B1250585656766N01353473EA0065800749000020000000
B1251005656793N01353479EA0065900752000020000000
B1251025656815N01353515EA0066200758000020000000
B1251045656826N01353570EA0066700759000020000000
B1251065656817N01353627EA0066800758000020000000
B1251085656795N01353666EA0066700758000020000000
B1251105656767N01353683EA0066800765000020000000
B1251125656741N01353684EA0067400772000016000000
B1251145656719N01353667EA0068000774000016000000
B1251165656707N01353632EA0068200774000016000000
B1251185656710N01353592EA0068400777000020000000
B1251205656727N01353562EA0068600780000020000000
B1251225656753N01353557EA0069000785000020000000
B1251245656779N01353579EA0069500791000020000000
B1251265656798N01353622EA0069900794000020000000
B1251285656809N01353677EA0070100794000020000000
B1251305656804N01353737EA0070300798000020000000
B1251325656787N01353785EA0070600804000020000000
B1251345656763N01353814EA0071400811000020000000
B1251365656739N01353823EA0072000815000016000000
B1251385656715N01353817EA0072200816000016000000
B1251405656694N01353800EA0072400818000016000000
B1251425656678N01353775EA0072500821000016000000
B1251445656665N01353746EA0072800823000016000000
B1251465656658N01353711EA0073000824000016000000
B1251485656661N01353674EA0073200824000016000000
B1251505656676N01353642EA0073200826000016000000
B1251525656702N01353635EA0073400831000016000000
B1251545656728N01353654EA0073900837000016000000
B1251565656748N01353700EA0074600842000020000000
B1251585656753N01353759EA0075000845000020000000
B1252005656743N01353818EA0075300848000020000000
B1252025656719N01353859EA0075400851000020000000
B1252045656691N01353872EA0075800855000020000000
B1252065656665N01353862EA0076300861000020000000
B1252085656645N01353837EA0076900866000020000000
B1252105656633N01353801EA0077400868000020000000
B1252125656635N01353759EA0077600870000020000000
B1252145656645N01353723EA0077900877000020000000
B1252165656663N01353697EA0078200883000020000000
B1252185656689N01353690EA0079100887000020000000
B1252205656715N01353707EA0079300891000020000000
B1252225656739N01353745EA0079800896000020000000
B1252245656753N01353800EA0080200901000020000000
B1252265656752N01353859EA0080800907000020000000
B1252285656736N01353911EA0081300909000020000000
B1252305656711N01353945EA0081500912000020000000
B1252325656685N01353957EA0081800917000020000000
B1252345656659N01353949EA0082100919000020000000
B1252365656637N01353927EA0082400923000020000000
B1252385656620N01353897EA0082900929000020000000
B1252405656613N01353861EA0083600936000020000000
B1252425656614N01353824EA0084200942000020000000
B1252445656623N01353792EA0084700947000016000000
B1252465656640N01353771EA0085300953000020000000
B1252485656665N01353767EA0085800957000020000000
B1252505656692N01353783EA0086300959000016000000
B1252525656717N01353818EA0086600962000016000000
B1252545656735N01353870EA0086800964000016000000
B1252565656740N01353931EA0087100967000016000000
B1252585656732N01353989EA0087400974000016000000
B1253005656713N01354032EA0087900982000016000000
B1253025656685N01354051EA0088800988000016000000
B1253045656661N01354043EA0089400992000016000000
B1253065656641N01354017EA0089800997000016000000
B1253085656631N01353982EA0090301004000020000000
B1253105656628N01353945EA0091201016000016000000
B1253125656636N01353914EA0092401027000016000000
B1253145656650N01353892EA0093401031000016000000
B1253165656674N01353880EA0093801032000016000000
B1253185656700N01353884EA0093901035000016000000
B1253205656727N01353902EA0094201040000016000000
B1253225656749N01353941EA0094501043000016000000
B1253245656762N01353999EA0094601039000016000000
B1253265656763N01354066EA0094401034000016000000
B1253285656753N01354132EA0093901037000020000000
B1253305656732N01354183EA0094201050000020000000
B1253325656706N01354214EA0095001058000020000000
B1253345656679N01354234EA0096201062000020000000
B1253365656650N01354243EA0096501066000020000000
B1253385656622N01354236EA0096801070000020000000
B1253405656598N01354213EA0097201075000020000000
B1253425656587N01354177EA0097801084000020000000
B1253445656587N01354138EA0098601092000020000000
B1253465656601N01354106EA0099601099000020000000
B1253485656626N01354091EA0100301103000020000000
B1253505656655N01354092EA0100601102000020000000
B1253525656689N01354112EA0100601103000024000000
B1253545656722N01354143EA0100801107000024000000
B1253565656754N01354178EA0101001106000024000000
B1253585656788N01354217EA0100901104000028000000
B1254005656823N01354261EA0100701098000028000000
B1254025656860N01354309EA0100301096000028000000
B1254045656897N01354359EA0100101096000032000000
B1254065656934N01354409EA0100201101000036000000
B1254085656970N01354460EA0100501108000036000000
B1254105657006N01354509EA0101101112000036000000
B1254125657042N01354561EA0101501114000040000000
B1254145657078N01354613EA0101601116000040000000
B1254165657114N01354667EA0101901117000040000000
B1254185657152N01354724EA0101901112000040000000
B1254205657190N01354785EA0101501108000040000000
B1254225657227N01354844EA0101001108000040000000
B1254245657266N01354902EA0100901107000044000000
B1254265657305N01354961EA0100901107000044000000
B1254285657343N01355023EA0100901104000044000000
B1254305657381N01355084EA0100701106000048000000
B1254325657417N01355145EA0100801109000048000000
B1254345657452N01355206EA0101101113000048000000
B1254365657485N01355271EA0101501117000048000000
B1254385657507N01355351EA0101901121000048000000
B1254405657512N01355439EA0102101118000048000000
B1254425657495N01355520EA0101701108000048000000
B1254445657458N01355573EA0100701096000048000000
B1254465657409N01355577EA0099501088000052000000
B1254485657367N01355542EA0098501077000052000000
B1254505657326N01355494EA0097801075000056000000
B1254525657286N01355447EA0097801083000056000000
B1254545657247N01355401EA0098701091000056000000
B1254565657209N01355358EA0099001095000056000000
B1254585657172N01355314EA0099401094000052000000
B1255005657135N01355269EA0099401091000052000000
B1255025657100N01355222EA0099401092000052000000
B1255045657064N01355176EA0099401093000052000000
B1255065657029N01355132EA0099401095000052000000
B1255085656993N01355091EA0099801104000052000000
B1255105656960N01355052EA0100601109000052000000
B1255125656927N01355016EA0101101113000048000000
B1255145656893N01354981EA0101301116000048000000
B1255165656860N01354946EA0101801121000044000000
B1255185656827N01354912EA0102501125000044000000
B1255205656792N01354880EA0102601123000044000000
B1255225656756N01354846EA0102401119000044000000
B1255245656717N01354810EA0101901113000048000000
B1255265656678N01354769EA0101401112000048000000
B1255285656636N01354728EA0101101110000052000000
B1255305656593N01354688EA0101101111000056000000
B1255325656549N01354650EA0101101112000056000000
B1255345656503N01354613EA0101101113000060000000
B1255365656459N01354576EA0101201112000064000000
B1255385656414N01354537EA0101101109000064000000
B1255405656371N01354499EA0101001113000064000000
B1255425656329N01354465EA0101401126000060000000
B1255445656291N01354431EA0102501135000060000000
B1255465656256N01354402EA0103501141000056000000
B1255485656221N01354374EA0104101141000052000000
B1255505656185N01354348EA0104101134000052000000
B1255525656147N01354324EA0103401123000048000000
B1255545656108N01354300EA0102401116000048000000
B1255565656067N01354279EA0101801113000048000000
B1255585656025N01354264EA0101601115000048000000
B1256005655985N01354249EA0101701118000044000000
B1256025655946N01354236EA0101901116000044000000
B1256045655908N01354221EA0101701111000044000000
B1256065655870N01354197EA0101301108000040000000
B1256085655834N01354173EA0101001103000040000000
B1256105655796N01354149EA0100401095000040000000
B1256125655757N01354126EA0099801090000040000000
B1256145655717N01354104EA0099401085000040000000
B1256165655675N01354088EA0099101086000044000000
B1256185655632N01354091EA0099001088000044000000
B1256205655589N01354109EA0099301089000044000000
B1256225655548N01354132EA0099401089000044000000
B1256245655508N01354155EA0099301093000040000000
B1256265655469N01354177EA0099501097000040000000
B1256285655430N01354199EA0099801097000036000000
B1256305655392N01354218EA0099901096000036000000
B1256325655354N01354236EA0099701094000036000000
B1256345655315N01354255EA0099501090000036000000
B1256365655276N01354270EA0099101090000032000000
B1256385655237N01354285EA0099201095000032000000
B1256405655202N01354298EA0099901108000032000000
B1256425655168N01354312EA0101001115000032000000
B1256445655138N01354326EA0102101123000028000000
B1256465655111N01354322EA0102701126000028000000
B1256485655098N01354291EA0103101128000028000000
B1256505655103N01354253EA0103301131000028000000
B1256525655120N01354230EA0103301128000028000000
B1256545655146N01354225EA0103101123000024000000
B1256565655172N01354248EA0102701120000024000000
B1256585655192N01354294EA0102501118000024000000
B1257005655202N01354352EA0102301114000020000000
B1257025655199N01354418EA0101901111000020000000
B1257045655189N01354483EA0101601113000024000000
B1257065655173N01354545EA0101701114000020000000
B1257085655155N01354600EA0101801113000020000000
B1257105655133N01354651EA0101701112000020000000
B1257125655107N01354695EA0101601108000020000000
B1257145655077N01354734EA0101401103000024000000
B1257165655047N01354773EA0100901099000024000000
B1257185655016N01354815EA0100501098000024000000
B1257205654984N01354853EA0100401098000024000000
B1257225654951N01354890EA0100501097000024000000
B1257245654917N01354928EA0100401098000028000000
B1257265654885N01354966EA0100201098000028000000
B1257285654851N01355005EA0100301100000028000000
B1257305654820N01355045EA0100601104000028000000
B1257325654789N01355084EA0100901106000028000000
B1257345654757N01355120EA0100801101000028000000
B1257365654724N01355153EA0100701095000028000000
B1257385654689N01355179EA0100001084000028000000
B1257405654650N01355200EA0099001075000028000000
B1257425654609N01355214EA0098201070000032000000
B1257445654569N01355224EA0097601067000032000000
B1257465654529N01355237EA0097201066000032000000
B1257485654488N01355257EA0097101068000032000000
B1257505654451N01355282EA0097201066000036000000
B1257525654412N01355305EA0097001063000036000000
B1257545654373N01355331EA0096701058000036000000
B1257565654332N01355354EA0096201054000036000000
B1257585654292N01355377EA0095901052000036000000
B1258005654252N01355392EA0095601049000036000000
B1258025654211N01355403EA0095401045000036000000
B1258045654171N01355405EA0095001041000036000000
B1258065654132N01355397EA0094601037000036000000
B1258085654094N01355383EA0094401033000036000000
B1258105654057N01355366EA0094001028000036000000
B1258125654020N01355348EA0093501024000036000000
B1258145653984N01355331EA0093101023000036000000
B1258165653946N01355315EA0093001023000036000000
B1258185653909N01355304EA0093001021000036000000
B1258205653871N01355293EA0092901016000036000000
B1258225653833N01355279EA0092501011000036000000
B1258245653795N01355262EA0091701004000036000000
B1258265653758N01355243EA0090900998000036000000
B1258285653720N01355222EA0090400995000036000000
B1258305653684N01355200EA0090200995000036000000
B1258325653650N01355175EA0090301002000036000000
B1258345653617N01355154EA0090901007000036000000
B1258365653585N01355132EA0091100998000036000000
B1258385653551N01355110EA0090300987000036000000
B1258405653515N01355087EA0089200977000040000000
B1258425653477N01355062EA0088500977000040000000
B1258445653444N01355042EA0089000995000040000000
B1258465653413N01355028EA0090301002000040000000
B1258485653385N01355015EA0090801000000036000000
B1258505653355N01355000EA0090400992000032000000
B1258525653324N01354981EA0090100982000032000000
B1258545653290N01354959EA0089200976000032000000
B1258565653255N01354937EA0088600974000032000000
B1258585653225N01354905EA0088400978000032000000
B1259005653205N01354859EA0088800993000032000000
B1259025653200N01354816EA0090201010000032000000
B1259045653208N01354780EA0091801016000032000000
B1259065653227N01354763EA0092501015000028015000
B1259085653253N01354773EA0092501013000028000000
B1259105653275N01354816EA0092401018000024000000
B1259125653283N01354876EA0092701024000024000000
B1259145653279N01354937EA0093201024000024000000
B1259165653262N01354992EA0093401025000024000000
B1259185653235N01355026EA0093401027000020000000
B1259205653205N01355035EA0093601028000020000000
B1259225653178N01355022EA0093701033000020000000
B1259245653161N01354990EA0094201034000020000000
B1259265653161N01354951EA0094401033000020000000
B1259285653179N01354925EA0094201027000020000000
B1259305653207N01354928EA0093801027000020000000
B1259325653230N01354964EA0093701030000020000000
B1259345653242N01355023EA0094001032000020000000
B1259365653239N01355087EA0094401040000020000000
B1259385653227N01355145EA0095001044000020000000
B1259405653208N01355196EA0095201044000020000000
B1259425653182N01355232EA0095201045000020000000
B1259445653152N01355250EA0095401049000020000000
B1259465653125N01355245EA0095701052000020000000
B1259485653106N01355217EA0095901049000020000000
B1259505653108N01355178EA0095801047000020000000
B1259525653125N01355150EA0095401041000020000000
B1259545653152N01355149EA0095001037000020000000
B1259565653178N01355184EA0094701035000020000000
B1259585653188N01355248EA0094501034000020000000
B1300005653183N01355314EA0094801040000024000000
B1300025653170N01355375EA0094901043000020000000
B1300045653149N01355430EA0095101042000020000000
B1300065653121N01355473EA0095101042000020000000
B1300085653090N01355503EA0095001046000024000000
B1300105653057N01355525EA0095401048000024000000
B1300125653025N01355538EA0095701047000024000000
B1300145652991N01355546EA0095501035000024000000
B1300165652953N01355549EA0094501022000024000000
B1300185652914N01355551EA0093201017000028000000
B1300205652876N01355552EA0092701024000028000000
B1300225652844N01355553EA0093401042000028000000
B1300245652815N01355556EA0095101057000028000000
B1300265652788N01355559EA0096401060000028000000
B1300285652761N01355560EA0097001065000028000000
B1300305652735N01355560EA0097301066000028000000
B1300325652711N01355544EA0097401062000028000000
B1300345652701N01355507EA0097101058000028000000
B1300365652710N01355464EA0096801056000028000000
B1300385652736N01355443EA0096701062000028000000
B1300405652765N01355445EA0097101067000024000000
B1300425652793N01355473EA0097501068000024000000
B1300445652815N01355522EA0097601069000024000000
B1300465652826N01355586EA0097701068000024000000
B1300485652820N01355653EA0097701071000024000000
B1300505652804N01355711EA0098001074000024000000
B1300525652781N01355756EA0098501082000024000000
B1300545652757N01355793EA0099201086000024000000
B1300565652729N01355813EA0099401086000024000000
B1300585652705N01355803EA0099501083000024000000
B1301005652697N01355764EA0099301084000028000000
B1301025652706N01355725EA0099201082000032000000
B1301045652732N01355707EA0099201079000032000000
B1301065652765N01355721EA0098901077000028000000
B1301085652788N01355773EA0098801080000028000000
B1301105652792N01355841EA0098901084000028000000
B1301125652781N01355902EA0099401089000024000000
B1301145652762N01355952EA0099901093000024000000
B1301165652739N01355990EA0100301096000024000000
B1301185652714N01356014EA0100601096000024000000
B1301205652687N01356029EA0100501094000024000000
B1301225652658N01356030EA0100301095000020000000
B1301245652631N01356021EA0100301094000024000000
B1301265652603N01356010EA0100301094000020000000
B1301285652576N01355995EA0100401098000020000000
B1301305652553N01355977EA0100901105000020000000
B1301325652529N01355954EA0101601111000020000000
B1301345652507N01355930EA0101901111000020000000
B1301365652485N01355908EA0102101109000020000000
B1301385652460N01355885EA0102001107000020000000
B1301405652434N01355859EA0101701100000024000000
B1301425652407N01355830EA0101101098000028000000
B1301445652380N01355799EA0100701093000028000000
B1301465652351N01355764EA0100301088000032000000
B1301485652323N01355729EA0099801085000032000000
B1301505652294N01355692EA0099401079000032000000
B1301525652263N01355660EA0098801071000032000000
B1301545652230N01355629EA0098001066000036000000
B1301565652198N01355596EA0097401064000036000000
B1301585652165N01355564EA0097201062000036000000
B1302005652133N01355533EA0097001059000036000000
B1302025652100N01355501EA0096701056000036000000
B1302045652068N01355469EA0096501053000036000000
B1302065652034N01355436EA0096101049000036000000
B1302085652001N01355404EA0095801048000036000000
B1302105651969N01355371EA0095601047000036000000
B1302125651938N01355338EA0095901056000040000000
B1302145651909N01355309EA0096201065000036000000
B1302165651883N01355282EA0097101070000036000000
B1302185651858N01355256EA0097701073000032000000
B1302205651834N01355230EA0098001071000032000000
B1302225651810N01355201EA0097901065000028000000
B1302245651784N01355169EA0097401059000028000000
B1302265651758N01355135EA0096901057000028000000
B1302285651734N01355098EA0096501054000032000000
B1302305651710N01355062EA0096301053000032000000
B1302325651687N01355026EA0096101048000028000000
B1302345651663N01354987EA0095701040000028000000
B1302365651639N01354946EA0094801028000032000000
B1302385651613N01354903EA0093601017000032000000
B1302405651587N01354858EA0092501008000032000000
B1302425651558N01354810EA0091601001000036000000
B1302445651531N01354760EA0090900996000036000000
B1302465651502N01354710EA0090400993000036000000
B1302485651474N01354662EA0090200993000036000000
B1302505651446N01354615EA0090400999000036000000
B1302525651422N01354571EA0090801003000036000000
B1302545651397N01354529EA0091101005000036000000
B1302565651372N01354489EA0091201006000032000000
B1302585651349N01354450EA0091501008000036000000
B1303005651328N01354412EA0091601010000036000000
B1303025651306N01354376EA0091801011000036000000
B1303045651284N01354340EA0092001012000032000000
B1303065651263N01354304EA0092201016000032000000
B1303085651244N01354266EA0092501022000028000000
B1303105651224N01354233EA0093101027000028000000
B1303125651201N01354208EA0093501031000028000000
B1303145651172N01354205EA0094101034000028000000
B1303165651146N01354234EA0094401032000024000000
B1303185651133N01354292EA0094101023000024000000
B1303205651138N01354361EA0093501020000024000000
B1303225651159N01354412EA0093301028000020000000
B1303245651184N01354444EA0094001034000020000000
B1303265651210N01354461EA0094501036000020000000
B1303285651233N01354459EA0094601035000020000000
B1303305651251N01354435EA0094501034000020000000
B1303325651257N01354398EA0094601034000020000000
B1303345651246N01354363EA0094501033000020000000
B1303365651228N01354333EA0094301028000020000000
B1303385651208N01354301EA0093501016000024000000
B1303405651186N01354268EA0092201003000024000000
B1303425651160N01354231EA0091600996000024000000
B1303445651133N01354195EA0090800989000024000000
B1303465651107N01354155EA0090100985000028000000
B1303485651080N01354114EA0089500983000028000000
B1303505651052N01354077EA0089200981000028000000
B1303525651025N01354039EA0089100980000028000000
B1303545650999N01354000EA0088900979000028000000
B1303565650974N01353961EA0088800979000028000000
B1303585650951N01353921EA0088800978000028000000
B1304005650928N01353883EA0088700977000028000000
B1304025650904N01353845EA0088500976000028000000
B1304045650880N01353810EA0088500974000028000000
B1304065650856N01353776EA0088300971000028000000
B1304085650831N01353742EA0088100969000028000000
B1304105650808N01353709EA0087800966000028000000
B1304125650783N01353675EA0087500963000028000000
B1304145650763N01353638EA0087100960000028000000
B1304165650752N01353593EA0086800958000028000000
B1304185650753N01353545EA0086800954000028000000
B1304205650764N01353501EA0086400947000028000000
B1304225650782N01353458EA0085800939000028000000
B1304245650805N01353420EA0084900933000028000000
B1304265650833N01353389EA0084300929000028000000
B1304285650863N01353363EA0083900926000028000000
B1304305650894N01353341EA0083500923000028000000
B1304325650925N01353320EA0083100921000028000000
B1304345650958N01353302EA0082900919000028000000
B1304365650991N01353286EA0082800918000028000000
B1304385651025N01353273EA0082600916000028000000
B1304405651059N01353260EA0082400914000028000000
B1304425651093N01353248EA0082300913000028000000
B1304445651127N01353239EA0082100911000028000000
B1304465651162N01353230EA0082000911000028000000
B1304485651195N01353221EA0081900911000028000000
B1304505651229N01353212EA0081900912000028000000
B1304525651262N01353206EA0082100913000028000000
B1304545651294N01353200EA0082200912000028000000
B1304565651327N01353195EA0082100909000028000000
B1304585651359N01353189EA0082000906000028000000
B1305005651393N01353180EA0081500902000028000000
B1305025651426N01353169EA0081200898000028000000
B1305045651459N01353159EA0080800895000028000000
B1305065651493N01353150EA0080500894000028000000
B1305085651528N01353143EA0080200893000028000000
B1305105651562N01353139EA0080100892000028000000
B1305125651596N01353138EA0080000890000028000000
B1305145651628N01353138EA0079800889000028000000
B1305165651662N01353142EA0079700887000028000000
B1305185651696N01353148EA0079600884000028000000
B1305205651730N01353157EA0079300883000028000000
B1305225651764N01353168EA0079800896000028000000
B1305245651790N01353200EA0080900909000028000000
B1305265651803N01353256EA0081800913000028000000
B1305285651799N01353320EA0082100913000028000000
B1305305651777N01353369EA0082300916000024000000
B1305325651749N01353393EA0082400919000024000000
B1305345651723N01353391EA0082600915000024000000
B1305365651704N01353369EA0082200905000020000000
B1305385651699N01353330EA0081400896000020000000
B1305405651708N01353294EA0080700893000020000000
B1305425651725N01353265EA0080400898000020000000
B1305445651745N01353246EA0080600902000020000000
B1305465651769N01353242EA0081100904000020000000
B1305485651795N01353272EA0081300902000020000000
B1305505651806N01353330EA0081000898000020000000
B1305525651797N01353394EA0080800900000024000000
B1305545651773N01353434EA0080900906000020000000
B1305565651744N01353442EA0081300910000020000000
B1305585651723N01353420EA0081800912000020000000
B1306005651715N01353384EA0082000915000020000000
B1306025651726N01353349EA0082200913000020000000
B1306045651749N01353337EA0082200915000020000000
B1306065651775N01353359EA0082200915000020000000
B1306085651793N01353411EA0082300916000020000000
B1306105651793N01353475EA0082500920000020000000
B1306125651778N01353529EA0082700922000020000000
B1306145651751N01353555EA0083000925000020000000
B1306165651726N01353547EA0083400929000020000000
B1306185651712N01353516EA0083600928000020000000
B1306205651717N01353477EA0083700932000020000000
B1306225651736N01353455EA0084000937000020000000
B1306245651764N01353462EA0084600941000020000000
B1306265651786N01353499EA0085000941000020000000
B1306285651795N01353558EA0085100943000020000000
B1306305651786N01353619EA0085100944000020000000
B1306325651761N01353659EA0085100944000020000000
B1306345651732N01353664EA0085200950000020000000
B1306365651712N01353644EA0085700953000020000000
B1306385651705N01353606EA0086100955000020000000
B1306405651717N01353572EA0086300959000020000000
B1306425651739N01353555EA0086600959000020000000
B1306445651767N01353562EA0086800958000020000000
B1306465651793N01353597EA0086700957000020000000
B1306485651806N01353655EA0086600959000020000000
B1306505651805N01353720EA0086700962000020000000
B1306525651790N01353775EA0086900962000020000000
B1306545651764N01353811EA0087000961000020000000
B1306565651735N01353819EA0087100964000020000000
B1306585651710N01353804EA0087200966000020000000
B1307005651697N01353771EA0087600970000020000000
B1307025651699N01353733EA0087800973000020000000
B1307045651714N01353702EA0088000975000020000000
B1307065651740N01353689EA0088400979000020000000
B1307085651767N01353702EA0088700982000020000000
B1307105651791N01353740EA0089000982000020000000
B1307125651805N01353797EA0088900981000020000000
B1307145651804N01353863EA0088800982000020000000
B1307165651790N01353922EA0089000981000020000000
B1307185651764N01353960EA0088800978000020000000
B1307205651734N01353971EA0088500978000020000000
B1307225651708N01353960EA0088800986000020000000
B1307245651687N01353940EA0089100992000020000000
B1307265651675N01353910EA0089900996000020000000
B1307285651676N01353876EA0090400999000020000000
B1307305651689N01353846EA0090701003000020000000
B1307325651710N01353832EA0091001002000020000000
B1307345651739N01353846EA0090800996000020000000
B1307365651760N01353893EA0090400995000020000000
B1307385651766N01353958EA0090300999000020000000
B1307405651754N01354018EA0090601003000020000000
B1307425651731N01354057EA0091001006000020000000
B1307445651702N01354070EA0091201008000016000000
B1307465651676N01354066EA0091701013000016000000
B1307485651657N01354044EA0092001014000020000000
B1307505651653N01354008EA0092201015000020000000
B1307525651666N01353974EA0092101014000020000000
B1307545651692N01353961EA0092101017000020000000
B1307565651719N01353976EA0092401019000020000000
B1307585651743N01354021EA0092501019000020000000
B1308005651752N01354083EA0092601021000020000000
B1308025651744N01354145EA0092901024000020000000
B1308045651723N01354195EA0093201026000020000000
B1308065651695N01354216EA0093401028000020000000
B1308085651669N01354208EA0093601030000020000000
B1308105651654N01354175EA0093801030000020000000
B1308125651653N01354134EA0093801033000020000000
B1308145651667N01354100EA0094001038000020000000
B1308165651692N01354086EA0094501042000020000000
B1308185651719N01354099EA0094901043000016000000
B1308205651744N01354136EA0095001042000016000000
B1308225651757N01354194EA0094901042000016000000
B1308245651756N01354256EA0094901044000016000000
B1308265651739N01354307EA0095101047000016000000
B1308285651713N01354334EA0095401049000016000000
B1308305651686N01354335EA0095601049000016000000
B1308325651665N01354314EA0095601052000016000000
B1308345651654N01354279EA0095901057000016000000
B1308365651654N01354243EA0096601064000016000000
B1308385651662N01354210EA0097101066000016000000
B1308405651680N01354188EA0097101062000016000000
B1308425651705N01354184EA0096901061000016000000
B1308445651730N01354207EA0096901063000016000000
B1308465651745N01354251EA0097001061000016000000
B1308485651748N01354309EA0096901055000016000000
B1308505651735N01354366EA0096401049000016000000
B1308525651709N01354408EA0095801050000016000000
B1308545651680N01354433EA0095801058000020000000
B1308565651653N01354443EA0096401063000016000000
B1308585651628N01354433EA0096901064000016000000
B1309005651615N01354398EA0097101064000016000000
B1309025651617N01354357EA0097201066000016000000
B1309045651632N01354324EA0097201064000016000000
B1309065651657N01354311EA0097201064000020000000
B1309085651686N01354325EA0097101063000020000000
B1309105651708N01354364EA0097001063000020000000
B1309125651721N01354421EA0096901060000020000000
B1309145651719N01354486EA0096701055000016000000
B1309165651704N01354546EA0096301057000020000000
B1309185651680N01354590EA0096601063000020000000
B1309205651653N01354617EA0097101067000020000000
B1309225651626N01354628EA0097501071000020000000
B1309245651601N01354620EA0097801073000016000000
B1309265651583N01354594EA0097901073000016000000
B1309285651578N01354559EA0097901070000016000000
B1309305651588N01354524EA0097701067000016000000
B1309325651611N01354509EA0097301065000016000000
B1309345651639N01354522EA0097201063000016000000
B1309365651661N01354564EA0096901061000016000000
B1309385651671N01354626EA0096801061000016000000
B1309405651666N01354691EA0096901063000016000000
B1309425651650N01354750EA0097001065000016000000
B1309445651630N01354803EA0097201067000016000000
B1309465651602N01354838EA0097401069000016000000
B1309485651574N01354842EA0097501064000016000000
B1309505651552N01354820EA0097201059000016000000
B1309525651539N01354784EA0096701056000016000000
B1309545651537N01354743EA0096401057000016000000
B1309565651544N01354707EA0096401057000016000000
B1309585651561N01354682EA0096501056000016000000
B1310005651584N01354681EA0096301052000016000000
B1310025651610N01354708EA0095801044000016000000
B1310045651627N01354763EA0095201039000016000000
B1310065651630N01354829EA0094801040000016000000
B1310085651619N01354893EA0095001043000016000000
B1310105651597N01354940EA0095201047000016000000
B1310125651570N01354968EA0095501050000016000000
B1310145651543N01354983EA0095701047000020000000
B1310165651514N01354987EA0095601041000016000000
B1310185651485N01354983EA0095101035000016000000
B1310205651455N01354970EA0094501033000016000000
B1310225651427N01354955EA0094101030000016000000
B1310245651397N01354937EA0093801027000016000000
B1310265651367N01354918EA0093401024000016000000
B1310285651337N01354898EA0093101023000016000000
B1310305651307N01354880EA0093001022000016000000
B1310325651279N01354860EA0092801020000016000000
B1310345651249N01354842EA0092701019000020000000
B1310365651220N01354821EA0092601018000020000000
B1310385651192N01354801EA0092401017000020000000
B1310405651163N01354776EA0092201015000016000000
B1310425651136N01354751EA0092101013000020000000
B1310445651108N01354727EA0092001011000020000000
B1310465651081N01354702EA0091701009000020000000
B1310485651052N01354676EA0091501007000016000000
B1310505651026N01354646EA0091401005000016000000
B1310525651003N01354612EA0091201003000020000000
B1310545650984N01354571EA0091001000000016000000
B1310565650969N01354525EA0090600996000020000000
B1310585650960N01354476EA0090300993000020000000
B1311005650959N01354424EA0089800989000020000000
B1311025650963N01354370EA0089500985000016000000
B1311045650976N01354322EA0089000983000016000000
B1311065650997N01354281EA0088800982000016000000
B1311085651020N01354246EA0088700980000016000000
B1311105651043N01354209EA0088600978000016000000
B1311125651067N01354174EA0088400977000016000000
B1311145651090N01354139EA0088300976000016000000
B1311165651114N01354106EA0088100975000020000000
B1311185651140N01354075EA0088000973000020000000
B1311205651166N01354045EA0087800972000020000000
B1311225651192N01354017EA0087800971000020000000
B1311245651218N01353988EA0087600969000020000000
B1311265651245N01353960EA0087400967000020000000
B1311285651271N01353930EA0087400965000016000000
B1311305651297N01353900EA0087200965000016000000
B1311325651323N01353870EA0087200965000016000000
B1311345651349N01353840EA0087300963000016000000
B1311365651375N01353811EA0087100961000016000000
B1311385651401N01353783EA0086800959000016000000
B1311405651428N01353754EA0086700956000016000000
B1311425651454N01353724EA0086300954000016000000
B1311445651480N01353693EA0086100951000016000000
B1311465651507N01353663EA0085900949000016000000
B1311485651533N01353632EA0085600947000016000000
B1311505651559N01353602EA0085300946000020000000
B1311525651587N01353573EA0085300945000016000000
B1311545651613N01353546EA0085200944000016000000
B1311565651639N01353520EA0085100944000016000000
B1311585651665N01353494EA0085100942000016000000
B1312005651691N01353468EA0085000940000016000000
B1312025651717N01353441EA0084800938000016000000
B1312045651743N01353414EA0084500936000016000000
B1312065651769N01353385EA0084400934000016000000
B1312085651796N01353356EA0084300934000016000000
B1312105651822N01353329EA0084300935000016000000
B1312125651849N01353304EA0084300935000020000000
B1312145651877N01353280EA0084300933000020000000
B1312165651904N01353252EA0084200936000020000000
B1312185651929N01353226EA0084400940000020000000
B1312205651955N01353200EA0084800938000020000000
B1312225651979N01353173EA0084600935000020000000
B1312245652005N01353144EA0084400934000020000000
B1312265652031N01353115EA0084200932000020000000
B1312285652057N01353086EA0084000930000016000000
B1312305652085N01353057EA0083700928000016000000
B1312325652112N01353030EA0083600926000020000000
B1312345652139N01353003EA0083500926000020000000
B1312365652167N01352977EA0083400926000020000000
B1312385652193N01352951EA0083400926000020000000
B1312405652220N01352927EA0083400926000020000000
B1312425652246N01352903EA0083500925000020000000
B1312445652272N01352878EA0083400923000020000000
B1312465652298N01352853EA0083300920000020000000
B1312485652324N01352829EA0083000919000016000000
B1312505652350N01352804EA0082700917000016000000
B1312525652375N01352779EA0082700916000016000000
B1312545652401N01352756EA0082500913000016000000
B1312565652427N01352734EA0082200910000016000000
B1312585652454N01352710EA0081800907000016000000
B1313005652481N01352688EA0081600903000048000000
B1313025652508N01352665EA0081300899000116000000
B1313045652536N01352641EA0080800893000116000000
B1313065652563N01352615EA0080000886000096000000
B1313085652592N01352588EA0079400881000076000000
B1313105652622N01352562EA0079200876000068000000
B1313125652651N01352535EA0078700871000060000000
B1313145652683N01352509EA0078200866000052000000
B1313165652715N01352484EA0077700862000048000000
B1313185652748N01352462EA0077200859000040000000
B1313205652780N01352441EA0076900857000036000000
B1313225652811N01352419EA0076700856000032000000
B1313245652844N01352400EA0076600853000028000000
B1313265652875N01352380EA0076300851000028000000
B1313285652908N01352362EA0076200851000028000000
B1313305652940N01352346EA0076200850000024000000
B1313325652971N01352329EA0076100847000024000000
B1313345653004N01352312EA0075800843000020000000
B1313365653036N01352296EA0075400839000020000000
B1313385653070N01352279EA0074900836000020000000
B1313405653103N01352259EA0074700835000020000000
B1313425653135N01352240EA0074600835000020000000
B1313445653166N01352220EA0074600833000020000000
B1313465653199N01352202EA0074500830000020000000
B1313485653233N01352182EA0074200827000020000000
B1313505653265N01352163EA0073900825000020000000
B1313525653299N01352141EA0073700822000020000000
B1313545653333N01352120EA0073300819000024000000
B1313565653366N01352102EA0073000817000024000000
B1313585653399N01352082EA0072700813000024000000
B1314005653433N01352063EA0072400809000024000000
B1314025653465N01352042EA0071900803000024000000
B1314045653499N01352021EA0071400797000024000000
B1314065653533N01352000EA0070800793000024000000
B1314085653565N01351981EA0070500794000024000000
B1314105653597N01351960EA0070700800000028000000
B1314125653624N01351938EA0071300806000024000000
B1314145653650N01351920EA0071800809000024000000
B1314165653676N01351900EA0072200813000024000000
B1314185653701N01351881EA0072400818000024000000
B1314205653720N01351856EA0073000824000024000000
B1314225653729N01351818EA0073800829000024000000
B1314245653723N01351781EA0074000832000024000000
B1314265653704N01351753EA0074300829000020000000
B1314285653675N01351746EA0074200825000020000000
B1314305653645N01351773EA0073900828000020000000
B1314325653621N01351821EA0073900828000020000000
B1314345653610N01351883EA0074000823000020000000
B1314365653613N01351950EA0073600817000020000000
B1314385653636N01351997EA0073000813000020000000
B1314405653663N01352015EA0072600810000020000000
B1314425653690N01352011EA0072400810000020000000
B1314445653715N01351995EA0072400812000020000000
B1314465653737N01351976EA0072600817000020000000
B1314485653756N01351952EA0073200822000020000000
B1314505653766N01351915EA0073700828000020000000
B1314525653756N01351876EA0074100831000020000000
B1314545653733N01351856EA0074600837000020000000
B1314565653704N01351868EA0075100844000020000000
B1314585653680N01351907EA0075700844000020000000
B1315005653665N01351964EA0075700841000020000000
B1315025653668N01352029EA0075500841000020000000
B1315045653685N01352080EA0075700846000020000000
B1315065653708N01352104EA0076100850000020000000
B1315085653732N01352108EA0076300851000020000000
B1315105653754N01352101EA0076500858000020000000
B1315125653771N01352082EA0077000862000020000000
B1315145653777N01352047EA0077500866000020000000
B1315165653769N01352011EA0077900870000020000000
B1315185653749N01351987EA0078200869000020000000
B1315205653719N01351995EA0078200870000020000000
B1315225653693N01352036EA0078200872000020000000
B1315245653680N01352095EA0078300875000020000000
B1315265653678N01352159EA0078800877000020000000
B1315285653684N01352220EA0078900880000020000000
B1315305653697N01352275EA0079200880000020000000
B1315325653717N01352316EA0079100874000020000000
B1315345653745N01352331EA0078600869000020000000
B1315365653769N01352314EA0078200875000020000000
B1315385653784N01352281EA0078800883000020000000
B1315405653788N01352241EA0079600891000020000000
B1315425653777N01352205EA0080300895000020000000
B1315445653755N01352184EA0080700897000020000000
B1315465653725N01352193EA0081000900000020000000
B1315485653701N01352237EA0081200901000020000000
B1315505653690N01352301EA0081300902000020000000
B1315525653695N01352364EA0081600908000020000000
B1315545653714N01352414EA0082000914000020000000
B1315565653738N01352441EA0082700919000020000000
B1315585653764N01352448EA0082900917000020000000
B1316005653788N01352429EA0082900919000016000000
B1316025653799N01352392EA0083100926000016000000
B1316045653795N01352351EA0083500933000016000000
B1316065653780N01352322EA0084200936000016000000
B1316085653755N01352310EA0084800937000016000000
B1316105653727N01352327EA0084800937000016000000
B1316125653702N01352371EA0084900937000016000000
B1316145653688N01352433EA0084800937000016000000
B1316165653690N01352502EA0084700937000016000000
B1316185653710N01352554EA0084900944000020000000
B1316205653738N01352580EA0085400949000020000000
B1316225653766N01352576EA0085900948000020000000
B1316245653781N01352541EA0085900950000020000000
B1316265653775N01352498EA0086200958000020000000
B1316285653749N01352478EA0086900965000020000000
B1316305653719N01352494EA0087600971000020000000
B1316325653695N01352544EA0088200973000020000000
B1316345653686N01352609EA0088300973000020000000
B1316365653693N01352674EA0088600980000020000000
B1316385653714N01352718EA0089100983000020000000
B1316405653741N01352731EA0089300983000020000000
B1316425653764N01352714EA0089200981000020000000
B1316445653777N01352675EA0089200983000020000000
B1316465653772N01352632EA0089400989000020000000
B1316485653751N01352600EA0090100995000020000000
B1316505653723N01352593EA0090600999000020000000
B1316525653694N01352619EA0090901001000020000000
B1316545653672N01352673EA0091101000000020000000
B1316565653665N01352739EA0091101004000020000000
B1316585653676N01352800EA0091401011000020000000
B1317005653694N01352845EA0092001013000020000000
B1317025653720N01352869EA0092201011000020000000
B1317045653746N01352868EA0092101012000020000000
B1317065653767N01352845EA0092201015000016000000
B1317085653779N01352812EA0092501019000020000000
B1317105653782N01352773EA0093101026000020000000
B1317125653779N01352735EA0093701028000020000000
B1317145653763N01352700EA0093701026000020000000
B1317165653736N01352688EA0093701030000020000000
B1317185653707N01352708EA0094001036000020000000
B1317205653682N01352751EA0094701039000020000000
B1317225653668N01352810EA0094801036000020000000
B1317245653672N01352878EA0094701038000020000000
B1317265653694N01352926EA0094901043000020000000
B1317285653721N01352943EA0095601052000020000000
B1317305653746N01352936EA0096201054000020000000
B1317325653767N01352913EA0096501057000020000000
B1317345653780N01352879EA0096701062000020000000
B1317365653789N01352842EA0097201066000020000000
B1317385653790N01352800EA0097401066000020000000
B1317405653785N01352758EA0097501067000016000000
B1317425653773N01352721EA0097501067000020000000
B1317445653759N01352686EA0097601065000020000000
B1317465653738N01352657EA0097401061000020000000
B1317485653711N01352644EA0097101059000016000000
B1317505653682N01352647EA0096901056000020000000
B1317525653655N01352665EA0096601054000020000000
B1317545653630N01352699EA0096301049000016000000
B1317565653611N01352744EA0095901044000016000000
B1317585653597N01352799EA0095301039000016000000
B1318005653587N01352858EA0094901033000016000000
B1318025653582N01352921EA0094201025000016000000
B1318045653586N01352988EA0093401019000016000000
B1318065653599N01353050EA0092901020000020000000
B1318085653615N01353104EA0093101024000020000000
B1318105653633N01353151EA0093501029000016000000
B1318125653654N01353191EA0094001031000016000000
B1318145653680N01353212EA0094301032000016000000
B1318165653704N01353208EA0094301032000020000000
B1318185653724N01353183EA0094101030000020000000
B1318205653730N01353143EA0094201037000020000000
B1318225653724N01353105EA0094901043000020000000
B1318245653706N01353078EA0095301042000020000000
B1318265653678N01353074EA0095201042000020000000
B1318285653651N01353096EA0095201043000020000000
B1318305653626N01353138EA0095201038000020000000
B1318325653611N01353195EA0094901034000020000000
B1318345653604N01353263EA0094601034000020000000
B1318365653612N01353326EA0094601039000020000000
B1318385653630N01353377EA0095001043000020000000
B1318405653655N01353408EA0095301043000020000000
B1318425653682N01353417EA0095301041000020000000
B1318445653707N01353401EA0095201040000020000000
B1318465653723N01353367EA0095201045000020000000
B1318485653730N01353326EA0095501049000020000000
B1318505653729N01353285EA0095901053000020000000
B1318525653720N01353248EA0096401057000020000000
B1318545653703N01353221EA0096801060000020000000
B1318565653678N01353208EA0096901058000016000000
B1318585653651N01353215EA0096601053000016000000
B1319005653624N01353245EA0096201049000020000000
B1319025653604N01353295EA0096001046000020000000
B1319045653595N01353358EA0095401042000020000000
B1319065653599N01353424EA0095301039000020000000
B1319085653613N01353484EA0094901040000020000000
B1319105653636N01353532EA0095001044000020000000
B1319125653659N01353570EA0095301045000020000000
B1319145653685N01353601EA0095401047000020000000
B1319165653712N01353624EA0095601050000020000000
B1319185653741N01353635EA0095901054000020000000
B1319205653768N01353633EA0096301056000020000000
B1319225653792N01353616EA0096401054000020000000
B1319245653807N01353583EA0096301053000020000000
B1319265653810N01353542EA0096201055000020000000
B1319285653801N01353505EA0096401057000020000000
B1319305653782N01353473EA0096601055000020000000
B1319325653758N01353455EA0096301050000020000000
B1319345653727N01353455EA0096001051000020000000
B1319365653695N01353476EA0096101057000020000000
B1319385653668N01353514EA0096601058000020000000
B1319405653647N01353567EA0096601057000020000000
B1319425653634N01353631EA0096601055000020000000
B1319445653625N01353698EA0096501054000020000000
B1319465653625N01353770EA0096301053000020000000
B1319485653636N01353836EA0096201056000020000000
B1319505653655N01353892EA0096401058000020000000
B1319525653680N01353932EA0096601056000020000000
B1319545653710N01353953EA0096401056000020000000
B1319565653737N01353953EA0096401055000020000000
B1319585653763N01353936EA0096301053000020000000
B1320005653780N01353902EA0096301056000020000000
B1320025653786N01353862EA0096501058000020000000
B1320045653782N01353822EA0096501058000020000000
B1320065653768N01353788EA0096701061000020000000
B1320085653747N01353763EA0096901061000016000000
B1320105653720N01353754EA0097001063000016000000
B1320125653691N01353765EA0097201066000016000000
B1320145653662N01353792EA0097401066000016000000
B1320165653637N01353833EA0097401065000016000000
B1320185653616N01353892EA0097101062000016000000
B1320205653606N01353960EA0097001061000016000000
B1320225653606N01354030EA0097001062000016000000
B1320245653612N01354099EA0097001060000020000000
B1320265653623N01354165EA0096801058000016000000
B1320285653636N01354227EA0096601060000020000000
B1320305653650N01354287EA0096801062000020000000
B1320325653663N01354343EA0097001064000016000000
B1320345653675N01354400EA0097001060000020000000
B1320365653688N01354457EA0096701053000020000000
B1320385653706N01354512EA0096201048000020000000
B1320405653729N01354558EA0095701047000020000000
B1320425653758N01354586EA0095701049000020000000
B1320445653788N01354598EA0095801050000020000000
B1320465653816N01354595EA0096001052000020000000
B1320485653841N01354580EA0096101053000020000000
B1320505653859N01354552EA0096401057000020000000
B1320525653870N01354519EA0096501055000016000000
B1320545653870N01354480EA0096401051000016000000
B1320565653860N01354442EA0096201053000020000000
B1320585653847N01354412EA0096301057000020000000
B1321005653832N01354385EA0096501055000020000000
B1321025653814N01354357EA0096601053000020000000
B1321045653795N01354331EA0096401053000020000000
B1321065653775N01354308EA0096301055000020000000
B1321085653754N01354286EA0096501058000020000000
B1321105653734N01354264EA0096801063000020000000
B1321125653720N01354236EA0097301062000020000000
B1321145653716N01354201EA0097101056000020000000
B1321165653729N01354169EA0096601052000020000000
B1321185653754N01354158EA0096201050000020000000
B1321205653781N01354182EA0096101050000016000000
B1321225653802N01354231EA0096101052000020000000
B1321245653810N01354298EA0096201051000020000000
B1321265653806N01354364EA0096101050000020000000
B1321285653793N01354426EA0096101052000020000000
B1321305653776N01354482EA0096201052000020000000
B1321325653755N01354532EA0096301054000020000000
B1321345653732N01354573EA0096401053000016000000
B1321365653707N01354608EA0096201050000020000000
B1321385653680N01354632EA0096101050000020000000
B1321405653651N01354641EA0095901048000016000000
B1321425653626N01354634EA0095801045000016000000
B1321445653604N01354615EA0095701042000016000000
B1321465653589N01354587EA0095301040000016000000
B1321485653582N01354551EA0095001036000016000000
B1321505653586N01354515EA0094701032000016000000
B1321525653600N01354485EA0094301031000016000000
B1321545653621N01354469EA0094101030000020000000
B1321565653646N01354473EA0094101031000016000000
B1321585653669N01354498EA0094101031000016000000
B1322005653690N01354539EA0094001030000016000000
B1322025653702N01354595EA0093901028000016000000
B1322045653704N01354656EA0093901028000016000000
B1322065653698N01354717EA0093901029000016000000
B1322085653685N01354772EA0093901026000016000000
B1322105653667N01354824EA0093601020000016000000
B1322125653645N01354870EA0093001016000016000000
B1322145653619N01354907EA0092501012000016000000
B1322165653590N01354932EA0092201010000016000000
B1322185653561N01354942EA0091801008000016000000
B1322205653534N01354940EA0091601004000016000000
B1322225653509N01354927EA0091401001000016000000
B1322245653486N01354910EA0091200999000016000000
B1322265653464N01354894EA0090900998000016000000
B1322285653442N01354876EA0090800995000016000000
B1322305653424N01354853EA0090600992000016000000
B1322325653405N01354824EA0090100986000016000000
B1322345653389N01354793EA0089600981000016000000
B1322365653372N01354756EA0089000977000016000000
B1322385653356N01354717EA0088500974000016000000
B1322405653340N01354677EA0088200971000016000000
B1322425653327N01354634EA0087900963000016000000
B1322445653313N01354586EA0087200957000016000000
B1322465653304N01354537EA0086700956000020000000
B1322485653303N01354486EA0086400954000020000000
B1322505653316N01354439EA0086300952000020000000
B1322525653339N01354404EA0086000950000020000000
B1322545653366N01354378EA0085700947000020000000
B1322565653396N01354363EA0085600947000020000000
B1322585653429N01354364EA0085500947000020000000
B1323005653460N01354379EA0085600947000020000000
B1323025653490N01354408EA0085500945000020000000
B1323045653517N01354444EA0085300938000020000000
B1323065653546N01354483EA0084700929000020000000
B1323085653576N01354526EA0083800921000020000000
B1323105653606N01354573EA0083000919000024000000
B1323125653633N01354623EA0082900924000024000000
B1323145653658N01354671EA0083400930000024000000
B1323165653682N01354720EA0083800929000024000000
B1323185653708N01354768EA0083800927000020000000
B1323205653736N01354818EA0083600929000020000000
B1323225653763N01354867EA0083800931000020000000
B1323245653790N01354915EA0083900931000020000000
B1323265653818N01354964EA0083900930000020000000
B1323285653846N01355014EA0083800931000020000000
B1323305653873N01355063EA0084100934000020000000
B1323325653901N01355111EA0084200931000020000000
B1323345653928N01355161EA0083900928000020000000
B1323365653957N01355211EA0083800925000024000000
B1323385653985N01355265EA0083400919000024000000
B1323405654013N01355321EA0082900913000024000000
B1323425654041N01355379EA0082300910000024000000
B1323445654070N01355436EA0082000910000024000000
B1323465654097N01355494EA0082000910000024000000
B1323485654123N01355547EA0082000912000024000000
B1323505654150N01355599EA0082100912000024000000
B1323525654176N01355650EA0082000912000020000000
B1323545654201N01355702EA0082000911000020000000
B1323565654227N01355752EA0082100910000020000000
B1323585654254N01355800EA0082000907000020000000
B1324005654282N01355845EA0081600903000020000000
B1324025654313N01355881EA0081100898000020000000
B1324045654345N01355910EA0080900900000024000000
B1324065654377N01355938EA0081000899000020000000
B1324085654409N01355964EA0080800894000020000000
B1324105654443N01355985EA0080600889000020000000
B1324125654478N01355995EA0079900884000020000000
B1324145654514N01355994EA0079400883000020000000
B1324165654547N01355984EA0079200884000020000000
B1324185654578N01355967EA0079300886000024000000
B1324205654608N01355947EA0079400885000024000000
B1324225654637N01355926EA0079400884000024000000
B1324245654665N01355904EA0079300881000024000000
B1324265654692N01355877EA0079000878000024000000
B1324285654716N01355842EA0079200890000024000000
B1324305654720N01355799EA0080200902000024000000
B1324325654702N01355774EA0081500915000020000000
B1324345654676N01355778EA0082500917000020000000
B1324365654650N01355813EA0082700913000020000000
B1324385654637N01355876EA0082500915000020000000
B1324405654640N01355942EA0082600920000020000000
B1324425654656N01355995EA0083100925000020000000
B1324445654681N01356025EA0083500929000020000000
B1324465654707N01356032EA0083800929000020000000
B1324485654729N01356016EA0083800929000020000000
B1324505654742N01355984EA0084000932000020000000
