ACAM3RL
HFDTE160803
HFFXA050
HFPLTPILOT:Peter Cutting           
HFGTYGLIDERTYPE:LS8-b       
HFGIDGLIDERID:SE-USP      
HFDTM100GPSDATUM:
HFRFWFIRMWAREVERSION:F2.6
HFRHWHARDWAREVERSION:300 Series Version 2
HFFTYFRTYPE:CAMBRIDGE AERO INSTRUMENTS, 302+
HFGPS:GARMIN,LVS-25,12,18000
HFPRSPRESSALTSENSOR:INTERSEMA, MS5534-AP, 20000
I033638FXA3941ENL4247REX
LCAMSBVER:5FWVER:F26300
C160803121202160803000103
C0000000N00000000WTAKEOFF     
C5535815N01340565ESovde flp   
C5532965N01407215ESmedstorpstn
C5538950N01337715EBjorka flp  
C5532965N01407215ESmedstorpstn
C5535815N01340565ESovde flp   
C0000000N00000000WLANDING     
B1402225535665N01340845EA0004100042000080000000
B1402245535665N01340845EA0004100042000084000000
B1402265535665N01340845EA0004200042000080000000
B1402285535665N01340845EA0004200042000064000000
B1402305535665N01340845EA0004200043000060000000
B1402325535665N01340845EA0004200043000052000000
B1402345535665N01340845EA0004100043000044000000
B1402365535665N01340845EA0004100043000044000000
B1402385535665N01340845EA0004100043000040000000
B1402405535665N01340845EA0004100043000032000000
B1402425535665N01340845EA0004100043000032000000
B1402445535667N01340845EA0004100043000032000000
B1402465535667N01340844EA0004100043000032000000
B1402485535667N01340843EA0004100043000040000000
B1402505535669N01340839EA0004100043000056000000
B1402525535672N01340831EA0004100042000072000000
B1402545535677N01340819EA0004100042000140000000
B1402565535685N01340806EA0004100042000184000000
B1402585535694N01340787EA0004100042000240000000
B1403005535704N01340766EA0004200042000320000000
B1403025535716N01340741EA0004200042000348000000
B1403045535728N01340711EA0004200042000360000000
B1403065535743N01340680EA0004200042000328000000
B1403085535760N01340645EA0004200042000280000000
B1403105535777N01340607EA0004300044000240000000
B1403125535797N01340568EA0004300044000232000000
B1403145535816N01340525EA0004600047000220000000
B1403165535838N01340481EA0004700048000212000000
B1403185535859N01340438EA0004900055000204000000
B1403205535881N01340394EA0005500063000200000000
B1403225535902N01340350EA0006300069000192000000
B1403245535923N01340304EA0007100076000188000000
B1403265535946N01340261EA0007600080000180000000
B1403285535970N01340219EA0008100087000180000000
B1403305535993N01340177EA0008700096000188000000
B1403325536015N01340135EA0009600103000208000000
B1403345536035N01340094EA0010500116000224000000
B1403365536054N01340052EA0011600128000216000000
B1403385536072N01340011EA0012700132000204000000
B1403405536091N01339970EA0013200136000196000000
B1403425536110N01339933EA0013600145000192000000
B1403445536128N01339896EA0014400152000184000000
B1403465536145N01339861EA0015200159000184000000
B1403485536161N01339826EA0015900166000176000000
B1403505536176N01339790EA0016500171000168000000
B1403525536192N01339753EA0017000174000160000000
B1403545536205N01339714EA0017300176000156000000
B1403565536218N01339675EA0017500178000156000000
B1403585536230N01339634EA0017600183000156000000
B1404005536244N01339593EA0018100189000156000000
B1404025536258N01339553EA0018500191000156000000
B1404045536271N01339513EA0018800194000156000000
B1404065536284N01339472EA0019200199000164000000
B1404085536296N01339432EA0019600201000156000000
B1404105536309N01339393EA0019900203000152000000
B1404125536322N01339355EA0020000204000156000000
B1404145536334N01339315EA0020300207000156000000
B1404165536347N01339273EA0020600209000152000000
B1404185536360N01339231EA0020800217000164000000
B1404205536371N01339186EA0021300223000200000000
B1404225536383N01339142EA0021900229000172000000
B1404245536397N01339098EA0022600238000140000000
B1404265536413N01339055EA0023600249000124000000
B1404285536430N01339015EA0024600258000104000000
B1404305536448N01338980EA0025600270000084000000
B1404325536466N01338945EA0026700280000072000000
B1404345536484N01338906EA0027500287000060000000
B1404365536501N01338869EA0028100294000056000000
B1404385536518N01338835EA0028700299000052000000
B1404405536536N01338804EA0029100304000044000000
B1404425536555N01338773EA0029700309000040000000
B1404445536572N01338742EA0030200312000036000000
B1404465536587N01338709EA0030400315000036000000
B1404485536604N01338675EA0030600315000032000000
B1404505536620N01338642EA0030600316000032000000
B1404525536634N01338609EA0030800322000032000000
B1404545536650N01338577EA0031300328000032000000
B1404565536666N01338545EA0031900331000032000000
B1404585536683N01338516EA0032200333000028000000
B1405005536700N01338484EA0032500335000028000000
B1405025536718N01338453EA0032600335000028000000
B1405045536737N01338423EA0032700337000028000000
B1405065536755N01338392EA0032900341000028000000
B1405085536773N01338361EA0033300344000028000000
B1405105536790N01338328EA0033600347000028000000
B1405125536803N01338292EA0034200354000028000000
B1405145536811N01338253EA0034900359000028000000
B1405165536816N01338213EA0035400367000024000000
B1405185536817N01338170EA0036000371000028000000
B1405205536816N01338127EA0036500377000024000000
B1405225536813N01338084EA0037000383000028000000
B1405245536809N01338042EA0037800393000028000000
B1405265536804N01338001EA0038500397000024000000
B1405285536798N01337959EA0039000403000024000000
B1405305536790N01337918EA0039500407000028000000
B1405325536782N01337877EA0039600412000028000000
B1405345536777N01337840EA0040400423000028000000
B1405365536770N01337802EA0041200431000032000000
B1405385536763N01337765EA0042200440000028000000
B1405405536756N01337729EA0042900446000028000000
B1405425536750N01337693EA0043700453000028000000
B1405445536743N01337654EA0044100453000028000000
B1405465536737N01337613EA0044200453000028000000
B1405485536729N01337574EA0044400461000028000000
B1405505536721N01337538EA0045200471000028000000
B1405525536715N01337503EA0046100480000028000000
B1405545536707N01337468EA0047000486000028000000
B1405565536699N01337433EA0047700493000028000000
B1405585536692N01337396EA0048100497000028000000
B1406005536685N01337359EA0048600501000028000000
B1406025536678N01337321EA0049100505000024000000
B1406045536673N01337281EA0049200503000024000000
B1406065536670N01337239EA0049200504000028000000
B1406085536672N01337199EA0049500511000028000000
B1406105536679N01337158EA0050000514000028000000
B1406125536692N01337123EA0050100518000028000000
B1406145536712N01337093EA0050400521000028000000
B1406165536735N01337069EA0050800527000028000000
B1406185536761N01337053EA0051400532000028000000
B1406205536791N01337048EA0051900539000028000000
B1406225536822N01337053EA0052600547000028000000
B1406245536854N01337065EA0053300553000028000000
B1406265536886N01337084EA0054000561000028000000
B1406285536917N01337112EA0054900571000028000000
B1406305536949N01337145EA0055900583000032000000
B1406325536977N01337187EA0057200599000028000000
B1406345537003N01337234EA0058600612000028000000
B1406365537029N01337286EA0059800621000036000000
B1406385537047N01337344EA0060700629000036000000
B1406405537054N01337411EA0061500637000032000000
B1406425537049N01337477EA0062100640000028000000
B1406445537032N01337537EA0062400642000028000000
B1406465537004N01337577EA0062700649000028000000
B1406485536973N01337591EA0063400657000024000000
B1406505536946N01337582EA0064200664000024000000
B1406525536925N01337555EA0065000672000024000000
B1406545536917N01337518EA0065800678000024000000
B1406565536923N01337483EA0066400684000020000000
B1406585536941N01337464EA0067000689000020000000
B1407005536968N01337469EA0067500697000020000000
B1407025536994N01337502EA0068200704000020000000
B1407045537011N01337556EA0068600710000020000000
B1407065537015N01337620EA0069400714000020000000
B1407085537004N01337685EA0069700714000020000000
B1407105536981N01337736EA0069900716000020000000
B1407125536950N01337758EA0070100725000020000000
B1407145536920N01337749EA0071000731000020000000
B1407165536903N01337716EA0071400738000020000000
B1407185536906N01337678EA0072400747000020000000
B1407205536924N01337660EA0072900756000020000000
B1407225536950N01337671EA0074100762000020000000
B1407245536971N01337713EA0074300768000020000000
B1407265536981N01337775EA0074800770000020000000
B1407285536976N01337841EA0075100771000020000000
B1407305536954N01337897EA0075200772000020000000
B1407325536921N01337923EA0075300770000020000000
B1407345536885N01337924EA0075000756000020000000
B1407365536845N01337908EA0073600735000024000000
B1407385536799N01337881EA0071700714000032000000
B1407405536751N01337843EA0069600693000036000000
B1407425536709N01337784EA0067700686000044000000
B1407445536694N01337708EA0067200709000048000000
B1407465536702N01337645EA0069000735000048000000
B1407485536725N01337612EA0071600758000044000000
B1407505536757N01337611EA0073800770000040000000
B1407525536789N01337632EA0075100775000040000000
B1407545536817N01337664EA0075500774000036000000
B1407565536846N01337704EA0075600777000036000000
B1407585536871N01337749EA0076000788000032000000
B1408005536895N01337797EA0076900792000032000000
B1408025536915N01337854EA0077200790000028000000
B1408045536920N01337929EA0077200794000028000000
B1408065536907N01338001EA0077600798000028000000
B1408085536880N01338054EA0078000800000024000000
B1408105536846N01338079EA0078100801000024000000
B1408125536815N01338072EA0078200804000024000000
B1408145536796N01338038EA0078600807000020000000
B1408165536796N01337997EA0079100813000020000000
B1408185536809N01337962EA0079600819000020000000
B1408205536830N01337938EA0080000822000020000000
B1408225536860N01337944EA0080400827000020000000
B1408245536887N01337986EA0080800830000020000000
B1408265536900N01338055EA0081100835000020000000
B1408285536893N01338128EA0081600838000020000000
B1408305536868N01338184EA0082000841000020000000
B1408325536837N01338213EA0082400846000020000000
B1408345536807N01338215EA0082500846000020000000
B1408365536785N01338192EA0083000851000020000000
B1408385536776N01338157EA0083400853000020000000
B1408405536777N01338119EA0083500855000020000000
B1408425536787N01338085EA0083800857000020000000
B1408445536811N01338068EA0084000863000020000000
B1408465536839N01338080EA0084300867000020000000
B1408485536865N01338123EA0084700872000020000000
B1408505536878N01338185EA0085100872000020000000
B1408525536878N01338256EA0085300872000016000000
B1408545536863N01338319EA0085300872000020000000
B1408565536835N01338363EA0085200871000020000000
B1408585536804N01338383EA0085100868000016000000
B1409005536776N01338374EA0084900866000016000000
B1409025536756N01338345EA0084700866000020000000
B1409045536750N01338306EA0084700867000020000000
B1409065536757N01338270EA0084700867000020000000
B1409085536778N01338243EA0084800870000020000000
B1409105536806N01338239EA0085300877000020000000
B1409125536835N01338257EA0085800882000020000000
B1409145536860N01338296EA0086200885000024000000
B1409165536878N01338350EA0086400883000020000000
B1409185536884N01338415EA0086200881000020000000
B1409205536874N01338479EA0086000879000020000000
B1409225536852N01338529EA0085900878000020000000
B1409245536824N01338556EA0085800873000020000000
B1409265536793N01338558EA0085200867000020000000
B1409285536760N01338561EA0085000862000020000000
B1409305536724N01338571EA0084300857000020000000
B1409325536687N01338586EA0084000864000020000000
B1409345536650N01338600EA0084500871000020000000
B1409365536613N01338616EA0085200880000020000000
B1409385536578N01338642EA0086000887000020000000
B1409405536548N01338688EA0086800894000020000000
B1409425536533N01338751EA0087400899000020000000
B1409445536535N01338815EA0088100907000020000000
B1409465536553N01338859EA0088800910000020000000
B1409485536578N01338872EA0089200914000020000000
B1409505536596N01338854EA0089700923000020000000
B1409525536600N01338821EA0090400930000020000000
B1409545536591N01338789EA0091100934000016000000
B1409565536569N01338765EA0091300933000016000000
B1409585536536N01338764EA0091300931000016000000
B1410005536501N01338789EA0091300933000016000000
B1410025536471N01338830EA0091600941000016000000
B1410045536451N01338886EA0092300945000016000000
B1410065536443N01338947EA0092500944000016000000
B1410085536447N01339008EA0092400940000020000000
B1410105536465N01339056EA0092200941000020000000
B1410125536490N01339084EA0092200944000020000000
B1410145536514N01339088EA0092400944000020000000
B1410165536534N01339069EA0092500950000016000000
B1410185536546N01339038EA0093100954000016000000
B1410205536546N01338999EA0093300955000016000000
B1410225536533N01338963EA0093400957000016000000
B1410245536505N01338941EA0093700959000016000000
B1410265536469N01338945EA0093900962000016000000
B1410285536435N01338976EA0094200965000016000000
B1410305536410N01339029EA0094400964000016000000
B1410325536401N01339095EA0094400965000020000000
B1410345536410N01339154EA0094500967000020000000
B1410365536429N01339198EA0094600966000020000000
B1410385536453N01339221EA0094400965000020000000
B1410405536477N01339216EA0094400966000020000000
B1410425536492N01339189EA0094600969000020000000
B1410445536499N01339154EA0094900971000020000000
B1410465536505N01339115EA0094800962000020000000
B1410485536520N01339077EA0094200963000020000000
B1410505536538N01339046EA0094200967000024000000
B1410525536557N01339019EA0094700972000024000000
B1410545536577N01338994EA0095100976000024000000
B1410565536598N01338972EA0095500978000024000000
B1410585536620N01338951EA0095700980000024000000
B1411005536640N01338928EA0096000983000020000000
B1411025536653N01338894EA0096300985000024000000
B1411045536651N01338852EA0096900996000020000000
B1411065536629N01338825EA0097801003000020000000
B1411085536598N01338825EA0098201007000020000000
B1411105536564N01338856EA0098801010000020000000
B1411125536539N01338912EA0098901011000020000000
B1411145536527N01338982EA0099001013000020000000
B1411165536534N01339051EA0099201015000020000000
B1411185536555N01339103EA0099401016000020000000
B1411205536583N01339125EA0099501015000020000000
B1411225536608N01339114EA0099401016000020000000
B1411245536622N01339082EA0099401018000020000000
B1411265536626N01339045EA0099901027000020000000
B1411285536625N01339007EA0100601031000024000000
B1411305536614N01338971EA0100901030000024000000
B1411325536587N01338951EA0101101035000024000000
B1411345536555N01338963EA0101401040000024000000
B1411365536526N01339006EA0101801041000020000000
B1411385536508N01339069EA0101801038000020000000
B1411405536503N01339141EA0101601038000020000000
B1411425536510N01339210EA0101501037000020000000
B1411445536533N01339259EA0101701041000020000000
B1411465536559N01339285EA0102101045000020000000
B1411485536586N01339293EA0102501047000020000000
B1411505536612N01339292EA0102701050000020000000
B1411525536638N01339286EA0103101056000020000000
B1411545536663N01339281EA0103501057000020000000
B1411565536683N01339264EA0103601057000020000000
B1411585536695N01339234EA0103701061000020000000
B1412005536692N01339199EA0103901060000020000000
B1412025536674N01339173EA0103901060000020000000
B1412045536644N01339172EA0103901058000020000000
B1412065536612N01339203EA0103601054000020000000
B1412085536591N01339268EA0103501056000020000000
B1412105536588N01339341EA0103601062000020000000
B1412125536603N01339406EA0103901065000024000000
B1412145536630N01339441EA0104501071000024000000
B1412165536657N01339445EA0104901072000024000000
B1412185536679N01339424EA0105001071000020000000
B1412205536690N01339390EA0105001072000024000000
B1412225536695N01339355EA0105001072000024000000
B1412245536691N01339316EA0104801067000024000000
B1412265536673N01339283EA0104701071000024000000
B1412285536650N01339260EA0105001077000024000000
B1412305536622N01339242EA0105401078000024000000
B1412325536594N01339229EA0105701078000024000000
B1412345536561N01339225EA0105701076000024000000
B1412365536525N01339245EA0105501078000024000000
B1412385536495N01339289EA0105701085000024000000
B1412405536471N01339348EA0106301088000024000000
B1412425536464N01339416EA0106501090000020000000
B1412445536474N01339480EA0106801093000020000000
B1412465536496N01339519EA0107001093000020000000
B1412485536521N01339527EA0107001087000020000000
B1412505536540N01339507EA0106601081000020000000
B1412525536544N01339471EA0106101080000020000000
B1412545536530N01339436EA0106101085000020000000
B1412565536508N01339413EA0106301092000020000000
B1412585536482N01339397EA0107001094000020000000
B1413005536451N01339392EA0107301095000020000000
B1413025536418N01339406EA0107301095000024000000
B1413045536388N01339439EA0107301093000028000000
B1413065536364N01339491EA0107101091000028000000
B1413085536349N01339556EA0106901092000028000000
B1413105536341N01339624EA0107001097000024000000
B1413125536339N01339691EA0107301099000024000000
B1413145536338N01339757EA0107501094000020000000
B1413165536336N01339827EA0106901083000020000000
B1413185536332N01339905EA0105601067000024000000
B1413205536330N01339992EA0104301059000028000000
B1413225536326N01340082EA0103501058000028000000
B1413245536322N01340173EA0103401061000032000000
B1413265536319N01340263EA0103601061000032000000
B1413285536319N01340352EA0103601058000032000000
B1413305536319N01340442EA0103201046000032000000
B1413325536321N01340536EA0101701025000036000000
B1413345536321N01340636EA0099801011000036000000
B1413365536321N01340740EA0098401001000036000000
B1413385536321N01340844EA0097700998000040000000
B1413405536319N01340947EA0097601003000044000000
B1413425536319N01341034EA0099201039000040000000
B1413445536318N01341105EA0102401069000036000000
B1413465536318N01341173EA0104701073000032000000
B1413485536315N01341244EA0104701061000032000000
B1413505536314N01341326EA0103701055000032000000
B1413525536312N01341411EA0103401061000032000000
B1413545536309N01341491EA0103801063000032000000
B1413565536306N01341572EA0103601052000032000000
B1413585536302N01341659EA0102901031000032000000
B1414005536300N01341755EA0100301021000036000000
B1414025536296N01341854EA0100001024000036000000
B1414045536289N01341949EA0100301032000036000000
B1414065536284N01342040EA0101701045000036000000
B1414085536279N01342127EA0102301041000036000000
B1414105536275N01342215EA0102201028000036000000
B1414125536271N01342310EA0101001015000036000000
B1414145536269N01342408EA0099401013000040000000
B1414165536269N01342503EA0099601018000040000000
B1414185536270N01342591EA0100801037000040000000
B1414205536270N01342673EA0101301038000040000000
B1414225536273N01342757EA0101701022000036000000
B1414245536275N01342847EA0100401010000040000000
B1414265536279N01342943EA0099101008000040000000
B1414285536282N01343037EA0099001017000040000000
B1414305536284N01343128EA0099601019000040000000
B1414325536287N01343218EA0099901017000040000000
B1414345536289N01343310EA0099601012000040000000
B1414365536291N01343407EA0099101008000040000000
B1414385536289N01343506EA0098801007000040000000
B1414405536287N01343605EA0098601007000040000000
B1414425536280N01343704EA0098601007000040000000
B1414445536265N01343799EA0098701010000040000000
B1414465536241N01343885EA0099001022000040000000
B1414485536217N01343960EA0100201038000036000000
B1414505536192N01344030EA0101601041000036000000
B1414525536166N01344100EA0101701032000036000000
B1414545536139N01344171EA0101001024000036000000
B1414565536109N01344241EA0100201020000036000000
B1414585536078N01344311EA0099901021000036000000
B1415005536046N01344379EA0099901019000036000000
B1415025536014N01344447EA0099401009000036000000
B1415045535980N01344516EA0098400997000036000000
B1415065535946N01344590EA0097200983000036000000
B1415085535912N01344670EA0095900969000036000000
B1415105535879N01344754EA0094700958000040000000
B1415125535845N01344841EA0094000950000040000000
B1415145535811N01344930EA0092800943000044000000
B1415165535779N01345018EA0092000936000048000000
B1415185535749N01345110EA0091700930000048000000
B1415205535723N01345204EA0091200929000052000000
B1415225535698N01345295EA0091200935000052000000
B1415245535673N01345386EA0091500934000052000000
B1415265535652N01345476EA0091700945000048000000
B1415285535636N01345560EA0092500953000048000000
B1415305535625N01345643EA0093600964000044000000
B1415325535617N01345723EA0094400972000044000000
B1415345535611N01345798EA0095200970000040000000
B1415365535607N01345877EA0094900955000036000000
B1415385535603N01345965EA0093500943000036000000
B1415405535602N01346056EA0092500944000036000000
B1415425535600N01346145EA0092400949000036000000
B1415445535599N01346231EA0092900948000036000000
B1415465535599N01346318EA0092900946000036000000
B1415485535599N01346404EA0092600946000036000000
B1415505535598N01346488EA0092900952000036000000
B1415525535594N01346566EA0093600966000032000000
B1415545535591N01346641EA0094700969000032000000
B1415565535587N01346716EA0094700960000028000000
B1415585535582N01346799EA0093900957000032000000
B1416005535576N01346885EA0093800967000032000000
B1416025535572N01346962EA0095200989000032000000
B1416045535567N01347033EA0097000998000028000000
B1416065535561N01347103EA0097700995000028000000
B1416085535547N01347171EA0097600993000028000000
B1416105535526N01347237EA0097400994000024000000
B1416125535509N01347306EA0097400992000024000000
B1416145535496N01347383EA0096700979000024000000
B1416165535486N01347467EA0095900960000028000000
B1416185535482N01347560EA0094200954000028000000
B1416205535481N01347651EA0093300961000032000000
B1416225535483N01347734EA0093900969000032000000
B1416245535486N01347817EA0094700961000032000000
B1416265535489N01347904EA0094200951000032000000
B1416285535494N01347994EA0092600941000036000000
B1416305535499N01348087EA0092300938000036000000
B1416325535503N01348182EA0091800940000036000000
B1416345535507N01348275EA0092000952000040000000
B1416365535511N01348355EA0093200978000040000000
B1416385535511N01348419EA0095701005000036000000
B1416405535511N01348480EA0098001000000032000000
B1416425535509N01348545EA0098000980000028000000
B1416445535504N01348622EA0095000956000028000000
B1416465535493N01348706EA0093800940000032000000
B1416485535478N01348796EA0092300936000032000000
B1416505535463N01348886EA0091500930000032000000
B1416525535446N01348975EA0091100929000036000000
B1416545535429N01349064EA0090800927000036000000
B1416565535409N01349150EA0090600924000036000000
B1416585535390N01349237EA0090300919000036000000
B1417005535370N01349324EA0089600916000040000000
B1417025535350N01349411EA0089200911000036000000
B1417045535330N01349501EA0088800895000040000000
B1417065535308N01349597EA0087100887000044000000
B1417085535287N01349693EA0086700891000044000000
B1417105535265N01349784EA0087300897000044000000
B1417125535243N01349871EA0087500896000044000000
B1417145535221N01349958EA0087200888000040000000
B1417165535196N01350045EA0086800877000044000000
B1417185535170N01350135EA0085700871000044000000
B1417205535144N01350223EA0084900867000044000000
B1417225535118N01350312EA0084500861000044000000
B1417245535093N01350401EA0084100862000040000000
B1417265535070N01350490EA0083900860000040000000
B1417285535051N01350581EA0083800855000040000000
B1417305535032N01350668EA0083700867000040000000
B1417325535021N01350743EA0084700889000036000000
B1417345535010N01350811EA0087300899000032000000
B1417365535001N01350876EA0087800902000028000000
B1417385534991N01350941EA0088300902000028000000
B1417405534978N01351009EA0088200900000024000000
B1417425534963N01351081EA0087900895000028000000
B1417445534947N01351158EA0087600887000028000000
B1417465534926N01351237EA0086800881000032000000
B1417485534904N01351319EA0086200880000036000000
B1417505534882N01351400EA0085900879000040000000
B1417525534859N01351480EA0085900876000040000000
B1417545534836N01351560EA0085700872000036000000
B1417565534813N01351640EA0085300867000040000000
B1417585534788N01351721EA0084700863000040000000
B1418005534763N01351803EA0084200861000036000000
B1418025534737N01351881EA0084000863000036000000
B1418045534711N01351960EA0084200862000036000000
B1418065534685N01352039EA0084100858000036000000
B1418085534659N01352121EA0083400850000036000000
B1418105534633N01352206EA0083200847000036000000
B1418125534609N01352292EA0082900848000040000000
B1418145534584N01352376EA0082800847000040000000
B1418165534560N01352461EA0082700847000048000000
B1418185534540N01352544EA0082700848000048000000
B1418205534519N01352626EA0082700845000044000000
B1418225534497N01352708EA0082600838000044000000
B1418245534475N01352793EA0081900829000044000000
B1418265534453N01352881EA0081100825000056000000
B1418285534430N01352968EA0080600827000052000000
B1418305534410N01353051EA0080900832000052000000
B1418325534390N01353134EA0081300832000048000000
B1418345534369N01353220EA0081300827000044000000
B1418365534347N01353307EA0080800818000044000000
B1418385534324N01353398EA0080000814000044000000
B1418405534300N01353485EA0079500817000044000000
B1418425534277N01353571EA0079700818000044000000
B1418445534255N01353657EA0079800813000044000000
B1418465534233N01353742EA0079400812000040000000
B1418485534209N01353827EA0079200813000040000000
B1418505534187N01353910EA0079200810000040000000
B1418525534164N01353993EA0078900808000040000000
B1418545534141N01354078EA0078700803000036000000
B1418565534120N01354162EA0078400802000036000000
B1418585534099N01354246EA0078200800000036000000
B1419005534079N01354327EA0078000792000036000000
B1419025534059N01354413EA0077400782000036000000
B1419045534037N01354502EA0076300771000040000000
B1419065534014N01354593EA0075600776000040000000
B1419085533994N01354677EA0075800788000040000000
B1419105533974N01354758EA0076900796000040000000
B1419125533957N01354837EA0077500796000040000000
B1419145533940N01354914EA0077800797000036000000
B1419165533923N01354992EA0077600784000036000000
B1419185533908N01355075EA0076700773000036000000
B1419205533892N01355163EA0075700769000036000000
B1419225533881N01355253EA0075200771000040000000
B1419245533871N01355341EA0075300774000040000000
B1419265533864N01355431EA0075500768000040000000
B1419285533857N01355523EA0075000767000036000000
B1419305533852N01355613EA0075000770000036000000
B1419325533847N01355703EA0075200769000036000000
B1419345533842N01355791EA0075000763000036000000
B1419365533838N01355881EA0074500759000036000000
B1419385533834N01355971EA0074000754000036000000
B1419405533831N01356058EA0073900769000040000000
B1419425533827N01356129EA0075300797000036000000
B1419445533825N01356198EA0077300799000032000000
B1419465533821N01356268EA0077800786000028000000
B1419485533817N01356349EA0076900778000032000000
B1419505533814N01356431EA0076000776000028000000
B1419525533812N01356514EA0075800770000032000000
B1419545533810N01356602EA0075300766000032000000
B1419565533809N01356690EA0075000774000032000000
B1419585533809N01356773EA0075500775000032000000
B1420005533808N01356860EA0075700764000032000000
B1420025533806N01356950EA0074700752000032000000
B1420045533805N01357044EA0073400751000036000000
B1420065533804N01357132EA0073500769000036000000
B1420085533803N01357208EA0075000788000032000000
B1420105533800N01357282EA0076700794000032000000
B1420125533797N01357354EA0077600796000028000000
B1420145533796N01357428EA0077600788000028000000
B1420165533795N01357509EA0077000777000028000000
B1420185533796N01357596EA0075400769000028000000
B1420205533796N01357685EA0075000765000028000000
B1420225533796N01357776EA0074500761000028000000
B1420245533796N01357867EA0074200760000028000000
B1420265533797N01357956EA0074300772000028000000
B1420285533799N01358036EA0075300784000024000000
B1420305533799N01358116EA0076600783000024000000
B1420325533799N01358200EA0076400779000024000000
B1420345533797N01358281EA0076400800000024000000
B1420365533795N01358351EA0078000820000024000000
B1420385533786N01358416EA0080600826000020000000
B1420405533762N01358468EA0080700822000020000000
B1420425533731N01358482EA0080400815000020000000
B1420445533710N01358459EA0079900810000028000000
B1420465533710N01358425EA0079500812000024000000
B1420485533725N01358404EA0079900821000024000000
B1420505533743N01358393EA0080300827000024000000
B1420525533766N01358396EA0081100831000020000000
B1420545533791N01358422EA0081300834000020000000
B1420565533810N01358472EA0081700838000020000000
B1420585533825N01358532EA0082000846000020000000
B1421005533832N01358595EA0082700854000020000000
B1421025533835N01358663EA0083500858000016000000
B1421045533823N01358731EA0083900858000016000000
B1421065533797N01358776EA0083900857000016000000
B1421085533766N01358785EA0083800856000016000000
B1421105533749N01358759EA0083600853000020000000
B1421125533753N01358727EA0083600854000020000000
B1421145533774N01358715EA0083800862000020000000
B1421165533800N01358731EA0084500871000020000000
B1421185533825N01358762EA0085200879000016000000
B1421205533845N01358806EA0085900884000016000000
B1421225533861N01358863EA0086400887000020000000
B1421245533862N01358932EA0086800886000020000000
B1421265533845N01358998EA0086800886000020000000
B1421285533816N01359033EA0086800889000020000000
B1421305533786N01359032EA0087100896000020000000
B1421325533767N01359009EA0087600897000020000000
B1421345533767N01358978EA0087700894000020000000
B1421365533786N01358958EA0087500894000020000000
B1421385533813N01358971EA0087700904000020000000
B1421405533836N01359014EA0088500910000020000000
B1421425533849N01359078EA0089000913000020000000
B1421445533848N01359150EA0089500915000020000000
B1421465533839N01359223EA0089600917000016000000
B1421485533826N01359292EA0090200928000016000000
B1421505533813N01359357EA0091100937000016000000
B1421525533800N01359420EA0091800941000012000000
B1421545533784N01359481EA0092000940000012000000
B1421565533767N01359540EA0092000939000012000000
B1421585533748N01359600EA0091900940000012000000
B1422005533726N01359659EA0091900941000012000000
B1422025533701N01359716EA0092100947000016000000
B1422045533676N01359772EA0092500949000016000000
B1422065533652N01359826EA0092800951000016000000
B1422085533627N01359881EA0092900949000016000000
B1422105533601N01359938EA0092600943000016000000
B1422125533572N01359999EA0092400947000024000000
B1422145533540N01400038EA0093000962000024000000
B1422165533510N01400036EA0094300972000024000000
B1422185533498N01400005EA0095200975000024000000
B1422205533513N01359976EA0095600976000024000000
B1422225533540N01359980EA0096000987000020000000
B1422245533565N01400019EA0096800998000020000000
B1422265533575N01400081EA0097901007000020000000
B1422285533571N01400148EA0098801011000024000000
B1422305533550N01400207EA0099001008000024000000
B1422325533518N01400227EA0099101015000024000000
B1422345533493N01400209EA0099601021000024000000
B1422365533488N01400175EA0100101021000024000000
B1422385533504N01400151EA0100401028000020000000
B1422405533528N01400154EA0101001038000020000000
B1422425533553N01400176EA0101901042000020000000
B1422445533574N01400226EA0102101039000020000000
B1422465533576N01400297EA0101901036000020000000
B1422485533558N01400365EA0101801042000020000000
B1422505533527N01400401EA0102301049000020000000
B1422525533496N01400402EA0103001053000020000000
B1422545533479N01400375EA0103501059000020000000
B1422565533478N01400340EA0104001065000020000000
B1422585533494N01400322EA0104701072000020000000
B1423005533520N01400333EA0105301076000020000000
B1423025533544N01400372EA0105801078000020000000
B1423045533554N01400436EA0105901080000020000000
B1423065533549N01400505EA0106101082000020000000
B1423085533535N01400570EA0106201082000020000000
B1423105533518N01400635EA0106201082000020000000
B1423125533500N01400700EA0106201088000020000000
B1423145533481N01400762EA0106901093000020000000
B1423165533463N01400826EA0107101093000020000000
B1423185533444N01400894EA0107401100000020000000
B1423205533426N01400956EA0108001113000020000000
B1423225533405N01401013EA0109301113000020000000
B1423245533375N01401058EA0109301111000020000000
B1423265533342N01401102EA0109401115000020000000
B1423285533315N01401158EA0109601123000016000000
B1423305533294N01401223EA0110201131000016000000
B1423325533288N01401294EA0110901137000016000000
B1423345533302N01401351EA0111701143000016000000
B1423365533325N01401372EA0112301147000016000000
B1423385533345N01401360EA0112701149000016000000
B1423405533349N01401331EA0112901149000016000000
B1423425533333N01401299EA0112901154000012000000
B1423445533306N01401288EA0113401162000012000000
B1423465533275N01401295EA0114001169000012000000
B1423485533241N01401321EA0114501169000012000000
B1423505533211N01401368EA0114501165000016000000
B1423525533189N01401435EA0114601179000020000000
B1423545533173N01401496EA0116001199000020000000
B1423565533159N01401553EA0117701208000016000000
B1423585533145N01401613EA0118601208000016000000
B1424005533132N01401678EA0118501203000016000000
B1424025533121N01401748EA0117901197000016000000
B1424045533111N01401826EA0117201186000020000000
B1424065533102N01401910EA0116301183000020000000
B1424085533094N01401997EA0116001184000024000000
B1424105533086N01402086EA0116101192000024000000
B1424125533081N01402163EA0117301219000024000000
B1424145533075N01402231EA0119401232000020000000
B1424165533068N01402299EA0120601229000020000000
B1424185533062N01402369EA0120401219000020000000
B1424205533058N01402446EA0119201203000020000000
B1424225533054N01402530EA0117501182000020000000
B1424245533050N01402625EA0115501167000024000000
B1424265533047N01402725EA0114201161000028000000
B1424285533047N01402827EA0113601156000036000000
B1424305533045N01402928EA0113201149000040000000
B1424325533043N01403035EA0112601147000044000000
B1424345533041N01403138EA0112901165000040000000
B1424365533038N01403230EA0114801191000040000000
B1424385533036N01403313EA0117101209000036000000
B1424405533033N01403392EA0118501215000032000000
B1424425533032N01403472EA0118701203000032000000
B1424445533030N01403559EA0117301182000032000000
B1424465533029N01403655EA0115401167000036000000
B1424485533026N01403755EA0114401168000036000000
B1424505533019N01403850EA0114701179000036000000
B1424525533006N01403938EA0115901197000036000000
B1424545532991N01404006EA0118401233000032000000
B1424565532978N01404062EA0121301250000028000000
B1424585532967N01404118EA0122201239000024000000
B1425005532952N01404181EA0120701214000024000000
B1425025532937N01404261EA0118301191000024000000
B1425045532921N01404350EA0116301180000028000000
B1425065532908N01404445EA0115801180000028000000
B1425085532899N01404542EA0115501181000032000000
B1425105532890N01404635EA0115601178000032000000
B1425125532883N01404730EA0115301166000032000000
B1425145532878N01404830EA0114401156000032000000
B1425165532876N01404932EA0113301148000036000000
B1425185532876N01405036EA0112601150000036000000
B1425205532877N01405137EA0112701159000040000000
B1425225532881N01405231EA0113501175000040000000
B1425245532885N01405316EA0114901189000036000000
B1425265532889N01405397EA0116401197000036000000
B1425285532894N01405476EA0117201194000032000000
B1425305532898N01405561EA0116901181000028000000
B1425325532902N01405649EA0116001177000028000000
B1425345532906N01405739EA0115401173000032000000
B1425365532909N01405830EA0114901166000032000000
B1425385532911N01405922EA0114201160000032000000
B1425405532913N01406016EA0113601154000032000000
B1425425532915N01406112EA0112801139000036000000
B1425445532916N01406212EA0111601130000036000000
B1425465532919N01406312EA0110701127000036000000
B1425485532921N01406412EA0110201120000036000000
B1425505532922N01406514EA0109601115000040000000
B1425525532924N01406615EA0109201115000040000000
B1425545532924N01406714EA0109401123000040000000
B1425565532925N01406810EA0110001128000040000000
B1425585532932N01406900EA0110701138000036000000
B1426005532955N01406963EA0111801149000036000000
B1426025532985N01406975EA0112701153000036000000
B1426045533000N01406947EA0112901147000032000000
B1426065533000N01406904EA0112401141000032000000
B1426085532995N01406859EA0111901139000028000000
B1426105532989N01406815EA0111601134000028000000
B1426125532981N01406766EA0110601116000032000000
B1426145532971N01406709EA0108901100000032000000
B1426165532959N01406645EA0107601089000036000000
B1426185532947N01406580EA0106701088000036000000
B1426205532938N01406516EA0106401084000040000000
B1426225532929N01406451EA0106001078000040000000
B1426245532920N01406386EA0105401072000040000000
B1426265532912N01406321EA0105101070000044000000
B1426285532904N01406256EA0104801066000044000000
B1426305532896N01406191EA0104701062000044000000
B1426325532890N01406125EA0104201056000044000000
B1426345532882N01406060EA0103801058000044000000
B1426365532873N01405995EA0103701062000044000000
B1426385532865N01405935EA0104401078000044000000
B1426405532857N01405884EA0105701093000040000000
B1426425532851N01405836EA0107001096000036000000
B1426445532844N01405788EA0107401092000036000000
B1426465532837N01405741EA0107201094000036000000
B1426485532830N01405693EA0107301096000036000000
B1426505532824N01405647EA0107301090000032000000
B1426525532818N01405595EA0106601071000032000000
B1426545532815N01405535EA0104901055000032000000
B1426565532813N01405470EA0103401048000036000000
B1426585532813N01405405EA0102701045000036000000
B1427005532815N01405340EA0102201038000036000000
B1427025532815N01405272EA0101701037000040000000
B1427045532816N01405208EA0101901049000040000000
B1427065532817N01405155EA0103401074000036000000
B1427085532818N01405107EA0105301083000036000000
B1427105532818N01405060EA0106201087000036000000
B1427125532818N01405015EA0106801095000032000000
B1427145532817N01404972EA0107601104000032000000
B1427165532816N01404933EA0108401107000028000000
B1427185532813N01404891EA0108701106000028000000
B1427205532812N01404848EA0108401101000024000000
B1427225532812N01404800EA0108001099000024000000
B1427245532812N01404755EA0108201109000024000000
B1427265532811N01404712EA0108601106000024000000
B1427285532809N01404666EA0108401099000024000000
B1427305532808N01404618EA0107801096000024000000
B1427325532807N01404569EA0107401096000024000000
B1427345532805N01404519EA0107501093000028000000
B1427365532804N01404469EA0107401097000028000000
B1427385532800N01404423EA0108001106000028000000
B1427405532799N01404379EA0108101096000028000000
B1427425532796N01404331EA0107401088000028000000
B1427445532794N01404279EA0106401076000028000000
B1427465532790N01404222EA0105301069000032000000
B1427485532786N01404163EA0105101075000032000000
B1427505532781N01404110EA0105701086000032000000
B1427525532776N01404063EA0107101103000032000000
B1427545532769N01404023EA0108701118000028000000
B1427565532764N01403986EA0110001128000028000000
B1427585532759N01403958EA0111301146000024000000
B1428005532753N01403932EA0112601151000020000000
B1428025532750N01403905EA0112901150000020000000
B1428045532746N01403875EA0113101156000016000000
B1428065532744N01403843EA0113401160000020000000
B1428085532743N01403812EA0113801163000016000000
B1428105532740N01403778EA0114101166000020000000
B1428125532738N01403745EA0114601176000020000000
B1428145532735N01403715EA0115401181000020000000
B1428165532733N01403685EA0115901181000016000000
B1428185532730N01403654EA0116101186000016000000
B1428205532730N01403625EA0116501190000016000000
B1428225532733N01403595EA0116701189000016000000
B1428245532737N01403564EA0116201175000020000000
B1428265532746N01403526EA0115501153000020000000
B1428285532760N01403482EA0113601141000024000000
B1428305532778N01403437EA0111901139000032000000
B1428325532798N01403395EA0111801141000036000000
B1428345532817N01403353EA0111801138000036000000
B1428365532838N01403312EA0111501131000036000000
B1428385532859N01403269EA0110901125000036000000
B1428405532880N01403225EA0110301124000036000000
B1428425532902N01403178EA0109901114000040000000
B1428445532925N01403130EA0109201110000040000000
B1428465532948N01403083EA0108901121000040000000
B1428485532969N01403040EA0109901136000040000000
B1428505532989N01403002EA0111101148000040000000
B1428525533004N01402972EA0112401161000036000000
B1428545533021N01402943EA0113401156000036000000
B1428565533038N01402910EA0113301153000032000000
B1428585533058N01402878EA0112901156000032000000
B1429005533076N01402849EA0113501169000032000000
B1429025533091N01402820EA0114301171000028000000
B1429045533110N01402792EA0114701168000028000000
B1429065533129N01402761EA0114301161000028000000
B1429085533150N01402724EA0113501147000028000000
B1429105533169N01402677EA0112401140000028000000
B1429125533181N01402620EA0111901154000036000000
B1429145533180N01402571EA0113301187000036000000
B1429165533175N01402540EA0116401222000032000000
B1429185533169N01402519EA0119501237000028000000
B1429205533164N01402498EA0121101236000024000000
B1429225533160N01402471EA0121101227000020000000
B1429245533155N01402434EA0120001209000020000000
B1429265533151N01402384EA0118501202000024000000
B1429285533149N01402330EA0117801211000024000000
B1429305533146N01402290EA0119001240000024000000
B1429325533142N01402257EA0121301255000024000000
B1429345533140N01402228EA0122901257000024000000
B1429365533140N01402195EA0123201256000024000000
B1429385533142N01402160EA0122901242000020000000
B1429405533146N01402118EA0121601216000024000000
B1429425533153N01402065EA0119301202000024000000
B1429445533162N01402008EA0117701194000028000000
B1429465533169N01401947EA0116801192000028000000
B1429485533179N01401888EA0116701192000032000000
B1429505533186N01401828EA0116601190000036000000
B1429525533194N01401769EA0116501187000036000000
B1429545533202N01401708EA0116401195000036000000
B1429565533207N01401657EA0117101213000036000000
B1429585533211N01401609EA0118401209000032000000
B1430005533218N01401557EA0118401198000032000000
B1430025533223N01401501EA0117401193000032000000
B1430045533231N01401444EA0116801188000036000000
B1430065533238N01401388EA0116501186000036000000
B1430085533246N01401332EA0116201185000036000000
B1430105533255N01401277EA0116201186000036000000
B1430125533263N01401223EA0116201181000036000000
B1430145533273N01401165EA0115801179000036000000
B1430165533285N01401110EA0115501183000036000000
B1430185533294N01401054EA0115801186000036000000
B1430205533299N01400998EA0116101187000036000000
B1430225533303N01400942EA0116501192000036000000
B1430245533306N01400889EA0116501184000036000000
B1430265533309N01400830EA0116001173000036000000
B1430285533312N01400769EA0114901167000036000000
B1430305533315N01400707EA0114201157000036000000
B1430325533319N01400642EA0113501153000036000000
B1430345533324N01400578EA0113101163000040000000
B1430365533332N01400525EA0114901188000036000000
B1430385533337N01400482EA0116001201000036000000
B1430405533342N01400439EA0117301189000032000000
B1430425533349N01400388EA0115701169000032000000
B1430445533358N01400328EA0114901163000032000000
B1430465533366N01400267EA0114201170000036000000
B1430485533374N01400209EA0114501171000036000000
B1430505533380N01400150EA0114701173000036000000
B1430525533388N01400093EA0114701165000036000000
B1430545533397N01400034EA0114201153000036000000
B1430565533406N01359971EA0113001136000036000000
B1430585533415N01359904EA0111001130000040000000
B1431005533428N01359839EA0110701131000040000000
B1431025533440N01359777EA0110701132000044000000
B1431045533452N01359717EA0110701132000044000000
B1431065533463N01359657EA0110601130000040000000
B1431085533476N01359600EA0110601128000040000000
B1431105533489N01359544EA0110201124000040000000
B1431125533502N01359487EA0110001118000040000000
B1431145533517N01359431EA0109501112000040000000
B1431165533530N01359374EA0108801096000040000000
B1431185533545N01359312EA0107401079000044000000
B1431205533561N01359247EA0105801069000048000000
B1431225533575N01359180EA0104801068000048000000
B1431245533589N01359115EA0104601066000052000000
B1431265533602N01359052EA0104401061000052000000
B1431285533617N01358988EA0104001058000048000000
B1431305533628N01358923EA0103601053000048000000
B1431325533641N01358859EA0103101045000048000000
B1431345533653N01358794EA0102501039000048000000
B1431365533666N01358729EA0101901037000048000000
B1431385533678N01358666EA0101501033000048000000
B1431405533689N01358602EA0101201029000048000000
B1431425533700N01358539EA0100901029000048000000
B1431445533710N01358476EA0100601019000048000000
B1431465533722N01358412EA0099901012000048000000
B1431485533735N01358348EA0099101008000048000000
B1431505533747N01358283EA0098601007000044000000
B1431525533758N01358220EA0098501003000044000000
B1431545533769N01358156EA0098200995000044000000
B1431565533780N01358092EA0097500989000044000000
B1431585533792N01358027EA0096900986000044000000
B1432005533804N01357962EA0096500981000044000000
B1432025533817N01357900EA0096000980000048000000
B1432045533830N01357836EA0095900980000048000000
B1432065533842N01357775EA0096300989000044000000
B1432085533853N01357718EA0096500997000044000000
B1432105533864N01357667EA0097501014000044000000
B1432125533873N01357620EA0099401019000040000000
B1432145533882N01357574EA0099801018000036000000
B1432165533891N01357528EA0099901028000036000000
B1432185533899N01357485EA0100601039000032000000
B1432205533905N01357444EA0101501035000032000000
B1432225533912N01357399EA0101601030000028000000
B1432245533920N01357354EA0101101031000028000000
B1432265533926N01357307EA0101001030000028000000
B1432285533934N01357260EA0100901026000028000000
B1432305533942N01357212EA0100601023000028000000
B1432325533949N01357161EA0100301025000032000000
B1432345533955N01357120EA0101501052000028000000
B1432365533957N01357089EA0103901072000028000000
B1432385533960N01357060EA0105501080000024000000
B1432405533964N01357033EA0106001083000020000000
B1432425533975N01357012EA0106101078000020000000
B1432445533996N01357002EA0105701074000020000000
B1432465534017N01356986EA0105001065000020000000
B1432485534027N01356951EA0104601053000020000000
B1432505534029N01356907EA0103401048000024000000
B1432525534029N01356857EA0102701051000024000000
B1432545534030N01356816EA0103801075000024000000
B1432565534031N01356788EA0106101095000024000000
B1432585534034N01356764EA0106901094000020000000
B1433005534039N01356738EA0107401091000020000000
B1433025534047N01356712EA0106901086000020000000
B1433045534059N01356682EA0106501072000020000000
B1433065534073N01356643EA0104601061000024000000
B1433085534090N01356600EA0103801055000028000000
B1433105534109N01356556EA0103501045000032000000
B1433125534130N01356509EA0102501035000032000000
B1433145534154N01356462EA0101501031000036000000
B1433165534176N01356414EA0100801030000036000000
B1433185534198N01356366EA0100601029000036000000
B1433205534221N01356316EA0100601027000040000000
B1433225534239N01356267EA0100701046000040000000
B1433245534248N01356227EA0102201073000040000000
B1433265534252N01356188EA0105401082000036000000
B1433285534250N01356155EA0106101099000032000000
B1433305534243N01356128EA0107301103000032000000
B1433325534237N01356101EA0107901086000028000000
B1433345534232N01356060EA0106501061000028000000
B1433365534225N01356003EA0104301046000032000000
B1433385534217N01355942EA0102701053000036000000
B1433405534209N01355887EA0103101070000040000000
B1433425534200N01355837EA0104601076000036000000
B1433445534191N01355786EA0105201062000036000000
B1433465534183N01355729EA0104201049000036000000
B1433485534177N01355668EA0102901037000036000000
B1433505534172N01355604EA0101701031000036000000
B1433525534167N01355540EA0101001030000036000000
B1433545534161N01355478EA0100901031000040000000
B1433565534160N01355417EA0100901035000040000000
B1433585534160N01355361EA0101401047000040000000
B1434005534164N01355314EA0102501059000036000000
B1434025534170N01355273EA0103601058000032000000
B1434045534182N01355231EA0103601045000028000000
B1434065534198N01355187EA0102401032000032000000
B1434085534217N01355140EA0101001020000032000000
B1434105534238N01355091EA0099901010000036000000
B1434125534259N01355039EA0098901006000036000000
B1434145534281N01354989EA0098401005000036000000
B1434165534300N01354941EA0098301005000040000000
B1434185534321N01354893EA0098201001000040000000
B1434205534342N01354842EA0097800992000036000000
B1434225534363N01354792EA0097100994000036000000
B1434245534385N01354745EA0097201000000040000000
B1434265534406N01354702EA0097901010000036000000
B1434285534428N01354662EA0098701014000036000000
B1434305534449N01354621EA0099301023000032000000
B1434325534466N01354586EA0100401038000032000000
B1434345534482N01354556EA0101701049000028000000
B1434365534497N01354530EA0102701055000028000000
B1434385534511N01354504EA0103101049000024000000
B1434405534528N01354474EA0102501034000024000000
B1434425534547N01354437EA0100901014000028000000
B1434445534570N01354390EA0099301009000028000000
B1434465534592N01354342EA0098901020000028000000
B1434485534611N01354303EA0100301042000032000000
B1434505534628N01354269EA0102201053000028000000
B1434525534645N01354236EA0103001050000028000000
B1434545534662N01354201EA0102701044000028000000
B1434565534681N01354165EA0102201034000028000000
B1434585534701N01354125EA0101001021000032000000
B1435005534724N01354082EA0100301026000032000000
B1435025534745N01354040EA0100601032000036000000
B1435045534763N01354001EA0101601051000036000000
B1435065534776N01353974EA0103801081000032000000
B1435085534784N01353958EA0106401101000028000000
B1435105534791N01353944EA0107901099000024000000
B1435125534804N01353926EA0107501086000024000000
B1435145534822N01353910EA0106701080000024000000
B1435165534840N01353885EA0106101075000024000000
B1435185534846N01353849EA0105801082000020000000
B1435205534843N01353814EA0106301088000020000000
B1435225534831N01353784EA0106801091000020000000
B1435245534811N01353759EA0107001092000020000000
B1435265534789N01353740EA0107401099000020000000
B1435285534770N01353720EA0108101105000020000000
B1435305534763N01353693EA0108501106000024000000
B1435325534779N01353674EA0108501109000024000000
B1435345534805N01353683EA0108901114000024000000
B1435365534828N01353726EA0109101122000024000000
B1435385534836N01353792EA0110001123000024000000
B1435405534826N01353859EA0110101123000024000000
B1435425534804N01353909EA0110301128000024000000
B1435445534776N01353937EA0110501132000020000000
B1435465534749N01353948EA0110801129000020000000
B1435485534722N01353940EA0110701123000020000000
B1435505534697N01353923EA0110301126000020000000
B1435525534679N01353902EA0110601137000020000000
B1435545534663N01353880EA0111301136000020000000
B1435565534653N01353853EA0111301131000020000000
B1435585534646N01353819EA0111101135000020000000
B1436005534642N01353789EA0111301136000020000000
B1436025534640N01353755EA0111401127000020000000
B1436045534640N01353715EA0110401109000020000000
B1436065534642N01353667EA0108901098000020000000
B1436085534648N01353615EA0107901100000024000000
B1436105534653N01353566EA0107901100000028000000
B1436125534659N01353515EA0107901101000028000000
B1436145534666N01353467EA0107901098000028000000
B1436165534674N01353416EA0107501088000032000000
B1436185534680N01353362EA0106801084000032000000
B1436205534688N01353310EA0106401091000036000000
B1436225534694N01353261EA0107001101000032000000
B1436245534701N01353219EA0107901105000032000000
B1436265534710N01353177EA0108301099000032000000
B1436285534718N01353133EA0107601079000028000000
B1436305534724N01353078EA0105901064000032000000
B1436325534731N01353018EA0104601061000036000000
B1436345534733N01352957EA0104001064000036000000
B1436365534733N01352908EA0104701092000036000000
B1436385534733N01352865EA0106801103000036000000
B1436405534732N01352823EA0108001094000032000000
B1436425534732N01352778EA0107201075000032000000
B1436445534733N01352722EA0105401058000032000000
B1436465534733N01352661EA0104001060000036000000
B1436485534732N01352600EA0103801063000036000000
B1436505534731N01352541EA0104301074000040000000
B1436525534728N01352494EA0105501096000036000000
B1436545534724N01352453EA0107201098000032000000
B1436565534723N01352409EA0107401084000032000000
B1436585534722N01352358EA0106301067000032000000
B1437005534722N01352299EA0104701059000032000000
B1437025534720N01352241EA0103901056000032000000
B1437045534719N01352184EA0103601051000036000000
B1437065534719N01352124EA0103101048000036000000
B1437085534720N01352063EA0102601041000036000000
B1437105534723N01351999EA0102001037000036000000
B1437125534723N01351937EA0101901049000040000000
B1437145534722N01351887EA0103301076000036000000
B1437165534719N01351846EA0105501087000036000000
B1437185534718N01351805EA0106401084000032000000
B1437205534716N01351760EA0105901065000032000000
B1437225534716N01351704EA0104201047000036000000
B1437245534719N01351640EA0102901047000036000000
B1437265534720N01351578EA0102501044000040000000
B1437285534724N01351516EA0102301042000044000000
B1437305534727N01351453EA0102101039000044000000
B1437325534728N01351389EA0101501030000044000000
B1437345534733N01351324EA0101101035000044000000
B1437365534737N01351265EA0101601042000044000000
B1437385534741N01351206EA0102101041000044000000
B1437405534744N01351146EA0102101040000044000000
B1437425534748N01351089EA0102001038000044000000
B1437445534752N01351032EA0101901037000044000000
B1437465534754N01350976EA0101701035000040000000
B1437485534759N01350919EA0101401024000040000000
B1437505534763N01350860EA0100401016000040000000
B1437525534768N01350801EA0099601012000040000000
B1437545534775N01350742EA0099101009000040000000
B1437565534780N01350685EA0098801008000040000000
B1437585534785N01350630EA0098701005000040000000
B1438005534792N01350574EA0098300997000040000000
B1438025534797N01350517EA0097500988000040000000
B1438045534802N01350457EA0096600978000040000000
B1438065534809N01350396EA0095700975000040000000
B1438085534815N01350336EA0095500973000040000000
B1438105534820N01350278EA0095400973000040000000
B1438125534828N01350219EA0095300971000040000000
B1438145534836N01350161EA0094900964000044000000
B1438165534844N01350100EA0094500957000044000000
B1438185534852N01350040EA0093900960000044000000
B1438205534859N01349982EA0094200964000044000000
B1438225534866N01349924EA0094300961000040000000
B1438245534872N01349868EA0094700973000040000000
B1438265534879N01349823EA0095300990000036000000
B1438285534884N01349780EA0096600989000036000000
B1438305534889N01349736EA0096800983000036000000
B1438325534896N01349688EA0096200973000036000000
B1438345534902N01349636EA0095200964000036000000
B1438365534909N01349580EA0094200959000036000000
B1438385534915N01349523EA0093700957000036000000
B1438405534922N01349467EA0093500961000036000000
B1438425534928N01349412EA0093700965000036000000
B1438445534936N01349360EA0094300974000036000000
B1438465534941N01349315EA0095400989000032000000
B1438485534945N01349272EA0096500988000032000000
B1438505534950N01349228EA0096500980000032000000
B1438525534957N01349181EA0095600972000032000000
B1438545534965N01349133EA0095000971000032000000
B1438565534971N01349085EA0094700969000032000000
B1438585534978N01349035EA0094500963000032000000
B1439005534984N01348984EA0094100960000032000000
B1439025534992N01348930EA0093500949000032000000
B1439045535000N01348871EA0092600946000036000000
B1439065535008N01348814EA0092500956000036000000
B1439085535014N01348763EA0093300964000032000000
B1439105535022N01348714EA0094200967000032000000
B1439125535030N01348666EA0094400965000032000000
B1439145535036N01348617EA0094000959000036000000
B1439165535044N01348563EA0093500957000036000000
B1439185535052N01348509EA0093600964000036000000
B1439205535058N01348461EA0094500977000032000000
B1439225535065N01348414EA0095300977000028000000
B1439245535071N01348367EA0095300965000028000000
B1439265535080N01348315EA0094400947000028000000
B1439285535090N01348255EA0092700936000032000000
B1439305535101N01348197EA0091200939000036000000
B1439325535110N01348143EA0092100954000036000000
B1439345535117N01348095EA0093200959000036000000
B1439365535123N01348051EA0094300980000036000000
B1439385535130N01348015EA0095900990000032000000
B1439405535136N01347980EA0096400984000028000000
B1439425535143N01347941EA0095500968000028000000
B1439445535152N01347892EA0094700948000028000000
B1439465535162N01347838EA0092700931000028000000
B1439485535174N01347778EA0091100930000028000000
B1439505535186N01347721EA0090600941000032000000
B1439525535196N01347673EA0092700966000032000000
B1439545535203N01347634EA0094900983000032000000
B1439565535209N01347599EA0096300992000028000000
B1439585535216N01347565EA0096600991000028000000
B1440005535223N01347528EA0096800994000028000000
B1440025535229N01347493EA0097100995000024000000
B1440045535235N01347456EA0096800985000024000000
B1440065535242N01347411EA0096300972000024000000
B1440085535249N01347361EA0095000962000024000000
B1440105535259N01347305EA0093900964000032000000
B1440125535266N01347254EA0094600980000028000000
B1440145535272N01347209EA0095800986000028000000
B1440165535278N01347162EA0096100984000032000000
B1440185535285N01347114EA0096000983000032000000
B1440205535290N01347064EA0095900984000028000000
B1440225535296N01347016EA0096100990000032000000
B1440245535300N01346969EA0096500995000032000000
B1440265535307N01346927EA0097301001000032000000
B1440285535311N01346889EA0097601017000032000000
B1440305535312N01346863EA0099901033000028000000
B1440325535313N01346839EA0100701024000024000000
B1440345535317N01346811EA0100101003000024000000
B1440365535322N01346773EA0098200978000028000000
B1440385535329N01346722EA0095800961000028000000
B1440405535338N01346667EA0093900954000028000000
B1440425535346N01346608EA0092800951000032000000
B1440445535355N01346550EA0092600946000032000000
B1440465535363N01346492EA0092000943000036000000
B1440485535373N01346434EA0091800941000036000000
B1440505535382N01346377EA0091600944000036000000
B1440525535390N01346326EA0092500961000036000000
B1440545535396N01346286EA0094200976000032000000
B1440565535400N01346247EA0095100972000028000000
B1440585535405N01346206EA0094900958000028000000
B1441005535411N01346160EA0092800941000032000000
B1441025535417N01346109EA0091400933000028000000
B1441045535422N01346057EA0090400920000032000000
B1441065535429N01346000EA0089100908000036000000
B1441085535435N01345940EA0088500913000036000000
B1441105535441N01345890EA0089500929000036000000
B1441125535446N01345842EA0090100929000032000000
B1441145535450N01345796EA0090400925000032000000
B1441165535454N01345747EA0090400932000032000000
B1441185535457N01345705EA0090700940000032000000
B1441205535460N01345664EA0091400937000028000000
B1441225535463N01345620EA0091300923000028000000
B1441245535468N01345571EA0090300917000028000000
B1441265535474N01345519EA0089300917000028000000
B1441285535480N01345469EA0089300924000028000000
B1441305535483N01345425EA0090300931000028000000
B1441325535487N01345385EA0090600929000024000000
B1441345535493N01345342EA0090000914000028000000
B1441365535498N01345292EA0089400903000028000000
B1441385535506N01345240EA0087900900000028000000
B1441405535512N01345187EA0087800901000028000000
B1441425535520N01345136EA0087900906000028000000
B1441445535526N01345088EA0088300919000028000000
B1441465535533N01345048EA0089400929000028000000
B1441485535539N01345009EA0090300923000024000000
B1441505535548N01344966EA0089700916000028000000
B1441525535556N01344921EA0089200901000024000000
B1441545535568N01344870EA0087500893000028000000
B1441565535582N01344819EA0087000894000028000000
B1441585535594N01344771EA0087000902000028000000
B1442005535604N01344728EA0088200911000028000000
B1442025535613N01344687EA0088900918000028000000
B1442045535623N01344649EA0089300921000028000000
B1442065535632N01344610EA0089700925000024000000
B1442085535642N01344572EA0090100930000024000000
B1442105535652N01344540EA0090700948000024000000
B1442125535662N01344511EA0091900956000024000000
B1442145535672N01344486EA0092900959000024000000
B1442165535682N01344460EA0093300954000020000000
B1442185535694N01344429EA0092800951000020000000
B1442205535706N01344399EA0092800955000020000000
B1442225535717N01344369EA0092900952000020000000
B1442245535732N01344337EA0092700949000020000000
B1442265535746N01344303EA0092500955000020000000
B1442285535759N01344268EA0092800955000020000000
B1442305535768N01344230EA0092900952000020000000
B1442325535777N01344189EA0092600943000020000000
B1442345535786N01344143EA0091200929000020000000
B1442365535793N01344093EA0090500919000020000000
B1442385535799N01344041EA0089400918000024000000
B1442405535805N01343989EA0089300915000024000000
B1442425535808N01343937EA0088800913000028000000
B1442445535812N01343886EA0088800922000028000000
B1442465535818N01343839EA0089500925000024000000
B1442485535820N01343790EA0089600916000024000000
B1442505535825N01343735EA0089000916000028000000
B1442525535828N01343690EA0090500950000028000000
B1442545535829N01343657EA0093600974000028000000
B1442565535836N01343631EA0095000972000024000000
B1442585535853N01343618EA0094900962000024000000
B1443005535873N01343605EA0094100953000024000000
B1443025535886N01343576EA0093100945000020000000
B1443045535890N01343536EA0092100935000020000000
B1443065535888N01343488EA0091100920000024000000
B1443085535881N01343435EA0089200913000024000000
B1443105535873N01343380EA0089000920000024000000
B1443125535864N01343328EA0089400920000024000000
B1443145535857N01343276EA0089600928000024000000
B1443165535851N01343240EA0090700959000028000000
B1443185535847N01343210EA0093100969000024000000
B1443205535846N01343180EA0094300963000024000000
B1443225535846N01343144EA0094000952000024000000
B1443245535847N01343101EA0092900936000024000000
B1443265535851N01343047EA0091400924000028000000
B1443285535855N01342990EA0090500928000024000000
B1443305535859N01342933EA0090300926000024000000
B1443325535862N01342874EA0090300929000028000000
B1443345535864N01342821EA0090800946000028000000
B1443365535866N01342772EA0092100955000028000000
B1443385535866N01342724EA0093000957000028000000
B1443405535864N01342679EA0093500970000028000000
B1443425535862N01342646EA0094600980000024000000
B1443445535859N01342609EA0095300967000024000000
B1443465535858N01342565EA0094200947000024000000
B1443485535859N01342509EA0092300934000028000000
B1443505535860N01342448EA0091200938000028000000
B1443525535859N01342391EA0091400948000028000000
B1443545535858N01342339EA0092200949000028000000
B1443565535858N01342287EA0092200935000024000000
B1443585535860N01342230EA0091100919000028000000
B1444005535863N01342169EA0089800925000032000000
B1444025535863N01342123EA0090600951000028000000
B1444045535863N01342081EA0092400950000028000000
B1444065535864N01342037EA0092400933000028000000
B1444085535870N01341988EA0090800912000028000000
B1444105535876N01341929EA0088900894000028000000
B1444125535885N01341868EA0087200889000028000000
B1444145535893N01341808EA0086600893000028000000
B1444165535899N01341753EA0086900893000028000000
B1444185535906N01341695EA0086800886000028000000
B1444205535915N01341636EA0086200880000032000000
B1444225535924N01341581EA0086000896000032000000
B1444245535932N01341533EA0087200912000032000000
B1444265535940N01341489EA0088700915000028000000
B1444285535946N01341444EA0089000911000028000000
B1444305535954N01341398EA0088400899000028000000
B1444325535962N01341344EA0087400893000032000000
B1444345535967N01341294EA0087400910000032000000
B1444365535968N01341251EA0088600923000032000000
B1444385535970N01341209EA0089500916000032000000
B1444405535972N01341165EA0088800899000032000000
B1444425535977N01341112EA0087200879000032000000
B1444445535985N01341052EA0085400877000036000000
B1444465535993N01341001EA0085700899000032000000
B1444485535998N01340956EA0087400909000032000000
B1444505536005N01340915EA0088600916000028000000
B1444525536011N01340875EA0088900912000024000000
B1444545536020N01340831EA0088500904000028000000
B1444565536032N01340784EA0087900907000028000000
B1444585536042N01340746EA0088900933000028000000
B1445005536050N01340713EA0090700942000028000000
B1445025536059N01340679EA0091300939000028000000
B1445045536068N01340646EA0091500949000024000000
B1445065536076N01340619EA0092100949000024000000
B1445085536084N01340589EA0091700934000024000000
B1445105536097N01340554EA0090400919000024000000
B1445125536113N01340512EA0089200915000024000000
B1445145536128N01340468EA0088800920000028000000
B1445165536141N01340427EA0089700937000028000000
B1445185536150N01340394EA0091400956000028000000
B1445205536159N01340365EA0092700956000024000000
B1445225536169N01340334EA0092300943000020000000
B1445245536182N01340294EA0091000930000020000000
B1445265536196N01340250EA0090100927000024000000
B1445285536210N01340204EA0090100933000024000000
B1445305536222N01340161EA0090700940000024000000
B1445325536232N01340120EA0091000942000024000000
B1445345536241N01340077EA0091300941000020000000
B1445365536253N01340035EA0091200939000020000000
B1445385536265N01339994EA0091000931000020000000
B1445405536278N01339948EA0090200916000020000000
B1445425536293N01339897EA0089000907000024000000
B1445445536308N01339848EA0088500920000028000000
B1445465536321N01339804EA0089500930000028000000
B1445485536334N01339762EA0090100936000028000000
B1445505536348N01339721EA0090600932000028000000
B1445525536364N01339679EA0090400928000028000000
B1445545536378N01339636EA0090200941000028000000
B1445565536390N01339596EA0090900947000028000000
B1445585536401N01339557EA0091700943000028000000
B1446005536417N01339515EA0091300930000028000000
B1446025536435N01339467EA0090300920000028000000
B1446045536455N01339416EA0089200918000028000000
B1446065536475N01339366EA0088900924000032000000
B1446085536496N01339320EA0089500941000032000000
B1446105536516N01339284EA0091100969000028000000
B1446125536531N01339257EA0093600990000028000000
B1446145536546N01339236EA0095801000000024000000
B1446165536561N01339215EA0096900991000020000000
B1446185536581N01339190EA0096400981000020000000
B1446205536608N01339169EA0095500977000024000000
B1446225536639N01339153EA0095000978000024000000
B1446245536670N01339141EA0095100981000024000000
B1446265536700N01339130EA0095300981000028000000
B1446285536730N01339119EA0095400978000028000000
B1446305536759N01339102EA0095000969000024000000
B1446325536787N01339080EA0094200957000024000000
B1446345536816N01339051EA0092900942000024000000
B1446365536846N01339020EA0091600934000028000000
B1446385536876N01338985EA0090800934000028000000
B1446405536904N01338952EA0090700933000028000000
B1446425536933N01338920EA0090700934000028000000
B1446445536962N01338889EA0090700932000028000000
B1446465536991N01338860EA0090500929000028000000
B1446485537023N01338835EA0090200926000028000000
B1446505537054N01338812EA0090000924000028000000
B1446525537085N01338790EA0089700921000028000000
B1446545537116N01338768EA0089500917000024000000
B1446565537150N01338748EA0088900910000028000000
B1446585537184N01338729EA0088300904000028000000
B1447005537218N01338709EA0087900903000024000000
B1447025537250N01338688EA0087800902000028000000
B1447045537283N01338665EA0087800899000028000000
B1447065537315N01338644EA0087600896000028000000
B1447085537349N01338625EA0087200894000028000000
B1447105537381N01338605EA0087000893000028000000
B1447125537415N01338586EA0086900888000028000000
B1447145537449N01338565EA0086500881000028000000
B1447165537483N01338543EA0085800875000028000000
B1447185537518N01338518EA0085100871000028000000
B1447205537553N01338495EA0084700869000028000000
B1447225537587N01338470EA0084600870000028000000
B1447245537619N01338445EA0084700872000028000000
B1447265537652N01338421EA0084800874000028000000
B1447285537682N01338397EA0085100877000028000000
B1447305537712N01338375EA0085400877000028000000
B1447325537742N01338353EA0085300874000028000000
B1447345537771N01338330EA0085000871000028000000
B1447365537801N01338305EA0084900869000028000000
B1447385537830N01338279EA0084600869000028000000
B1447405537859N01338254EA0084600869000028000000
B1447425537887N01338230EA0084600866000028000000
B1447445537916N01338206EA0084400864000028000000
B1447465537944N01338183EA0084000857000028000000
B1447485537976N01338159EA0083500846000028000000
B1447505538008N01338136EA0082600841000028000000
B1447525538041N01338115EA0082000844000028000000
B1447545538070N01338096EA0082200846000028000000
B1447565538102N01338075EA0082200839000028000000
B1447585538132N01338053EA0081700831000028000000
B1448005538164N01338031EA0081000824000028000000
B1448025538197N01338010EA0080200818000028000000
B1448045538229N01337990EA0079600813000028000000
B1448065538262N01337972EA0079300814000028000000
B1448085538294N01337957EA0079100809000028000000
B1448105538327N01337941EA0078600802000028000000
B1448125538362N01337924EA0077900796000028000000
B1448145538397N01337907EA0077400793000028000000
B1448165538432N01337892EA0077300797000028000000
B1448185538464N01337875EA0077800809000028000000
B1448205538492N01337860EA0079100821000028000000
B1448225538516N01337847EA0080200829000028000000
B1448245538541N01337836EA0080600821000028000000
B1448265538568N01337824EA0079500808000028000000
B1448285538600N01337808EA0078300800000028000000
B1448305538632N01337789EA0077900801000028000000
B1448325538662N01337768EA0078600817000028000000
B1448345538685N01337755EA0080600842000024000000
B1448365538705N01337745EA0082400850000024000000
B1448385538726N01337734EA0082900846000020000000
B1448405538749N01337726EA0082600841000020000000
B1448425538779N01337736EA0082100838000020000000
B1448445538804N01337776EA0082100848000024000000
B1448465538819N01337827EA0082900852000020000000
B1448485538826N01337886EA0083000847000020000000
B1448505538822N01337951EA0082500838000020000000
B1448525538809N01338018EA0082100832000020000000
B1448545538793N01338084EA0081400826000020000000
B1448565538774N01338150EA0080700823000024000000
B1448585538754N01338218EA0080400821000024000000
B1449005538736N01338287EA0080000817000024000000
B1449025538717N01338360EA0079600813000024000000
B1449045538700N01338430EA0079700829000028000000
B1449065538684N01338496EA0080600837000024000000
B1449085538670N01338562EA0081500837000024000000
B1449105538654N01338630EA0081600834000024000000
B1449125538639N01338701EA0081200823000024000000
B1449145538623N01338779EA0080300815000024000000
B1449165538609N01338859EA0079700821000024000000
B1449185538594N01338935EA0080100826000024000000
B1449205538581N01339010EA0080500824000024000000
B1449225538568N01339086EA0080400821000024000000
B1449245538555N01339163EA0080400835000024000000
B1449265538548N01339221EA0082300869000024000000
B1449285538544N01339273EA0084900876000020000000
B1449305538549N01339325EA0085400863000016000000
B1449325538572N01339363EA0084100846000020000000
B1449345538601N01339357EA0082700838000020000000
B1449365538610N01339320EA0082300849000020000000
B1449385538605N01339290EA0083200866000020000000
B1449405538592N01339270EA0084500872000020000000
B1449425538572N01339255EA0085200872000020000000
B1449445538548N01339253EA0085300871000016000000
B1449465538518N01339277EA0085200871000016000000
B1449485538494N01339331EA0085200874000016000000
B1449505538481N01339397EA0085600878000016000000
B1449525538473N01339462EA0086300888000016000000
B1449545538466N01339524EA0086800888000016000000
B1449565538460N01339588EA0086500880000016000000
B1449585538455N01339656EA0085600868000016000000
B1450005538450N01339731EA0084200847000020000000
B1450025538447N01339817EA0082400838000020000000
B1450045538445N01339899EA0082500858000024000000
B1450065538442N01339972EA0084200874000020000000
B1450085538441N01340039EA0085600881000020000000
B1450105538440N01340105EA0085800873000020000000
B1450125538437N01340177EA0085000862000020000000
B1450145538433N01340255EA0083700847000020000000
B1450165538431N01340339EA0082600841000024000000
B1450185538427N01340421EA0082400849000024000000
B1450205538424N01340498EA0083100855000024000000
B1450225538420N01340573EA0083300851000024000000
B1450245538416N01340649EA0083100842000024000000
B1450265538411N01340727EA0081900834000024000000
B1450285538406N01340809EA0081500822000024000000
B1450305538401N01340896EA0080400813000024000000
B1450325538397N01340984EA0079400814000024000000
B1450345538393N01341071EA0079400816000028000000
B1450365538389N01341157EA0079400806000028000000
B1450385538382N01341246EA0078800801000028000000
B1450405538376N01341335EA0077900797000028000000
B1450425538371N01341424EA0077600790000028000000
B1450445538364N01341515EA0077000789000028000000
B1450465538358N01341602EA0076900791000028000000
B1450485538351N01341689EA0077000786000028000000
B1450505538345N01341777EA0076500779000028000000
B1450525538338N01341867EA0075900773000028000000
B1450545538329N01341958EA0075300766000028000000
B1450565538320N01342049EA0074700763000028000000
B1450585538312N01342139EA0074500766000028000000
B1451005538304N01342224EA0074900773000028000000
B1451025538297N01342305EA0075500774000028000000
B1451045538289N01342386EA0075500771000024000000
B1451065538282N01342468EA0075100765000024000000
B1451085538275N01342552EA0074400756000024000000
B1451105538267N01342640EA0073600753000024000000
B1451125538258N01342726EA0073700763000028000000
B1451145538250N01342804EA0074900778000028000000
B1451165538241N01342876EA0076300792000024000000
B1451185538232N01342943EA0077600801000024000000
B1451205538223N01343008EA0078200801000020000000
B1451225538215N01343075EA0078100797000020000000
B1451245538204N01343142EA0077900787000020000000
B1451265538194N01343216EA0077000773000020000000
B1451285538184N01343296EA0075700760000020000000
B1451305538174N01343381EA0074500759000020000000
B1451325538165N01343463EA0074600771000024000000
B1451345538159N01343536EA0075100787000024000000
B1451365538152N01343601EA0077200796000020000000
B1451385538143N01343662EA0077900801000020000000
B1451405538134N01343721EA0078200802000020000000
B1451425538124N01343779EA0078300798000020000000
B1451445538112N01343843EA0078000799000020000000
B1451465538100N01343905EA0078100804000020000000
B1451485538090N01343968EA0078400800000020000000
B1451505538077N01344034EA0078100794000020000000
B1451525538064N01344104EA0077400787000020000000
B1451545538050N01344177EA0076900792000020000000
B1451565538035N01344242EA0077600810000020000000
B1451585538021N01344297EA0079400828000020000000
B1452005538000N01344342EA0081000833000020000000
B1452025537969N01344362EA0081400828000020000000
B1452045537942N01344340EA0081200826000024000000
B1452065537935N01344299EA0081100831000024000000
B1452085537948N01344272EA0081400838000020000000
B1452105537966N01344260EA0082000841000020000000
B1452125537989N01344263EA0082300841000020000000
B1452145538009N01344291EA0082200840000020000000
B1452165538020N01344347EA0082100837000016000000
B1452185538015N01344411EA0081900837000016000000
B1452205538003N01344473EA0082300848000016000000
B1452225537991N01344531EA0083300860000016000000
B1452245537974N01344581EA0084200862000016000000
B1452265537943N01344607EA0084200854000020000000
B1452285537916N01344588EA0083200838000028000000
B1452305537911N01344541EA0082400842000032000000
B1452325537921N01344511EA0082800857000028000000
B1452345537939N01344502EA0083800862000028000000
B1452365537961N01344520EA0084200861000028000000
B1452385537977N01344567EA0084200859000024000000
B1452405537982N01344629EA0084300867000024000000
B1452425537981N01344689EA0085100879000020000000
B1452445537974N01344746EA0086000883000020000000
B1452465537966N01344804EA0086300882000016000000
B1452485537955N01344863EA0086100879000020000000
B1452505537939N01344923EA0086200886000020000000
B1452525537925N01344978EA0087100900000016000000
B1452545537909N01345030EA0087700905000016000000
B1452565537894N01345083EA0088300903000016000000
B1452585537877N01345142EA0088300903000016000000
B1453005537859N01345203EA0088400911000016000000
B1453025537842N01345263EA0088900918000016000000
B1453045537827N01345321EA0089700925000016000000
B1453065537813N01345380EA0090300930000016000000
B1453085537799N01345437EA0090900939000016000000
B1453105537784N01345493EA0091700943000016000000
B1453125537769N01345551EA0092200948000016000000
B1453145537755N01345611EA0092700955000012000000
B1453165537740N01345671EA0093400962000016000000
B1453185537725N01345731EA0094200969000016000000
B1453205537712N01345789EA0094800976000016000000
B1453225537697N01345848EA0095600983000012000000
B1453245537683N01345906EA0096100985000012000000
B1453265537669N01345966EA0096300984000012000000
B1453285537654N01346030EA0096100981000016000000
B1453305537638N01346095EA0095900980000016000000
B1453325537623N01346162EA0095800979000020000000
B1453345537608N01346234EA0095700978000020000000
B1453365537592N01346306EA0095700981000020000000
B1453385537578N01346378EA0095800979000020000000
B1453405537562N01346452EA0095500976000020000000
B1453425537548N01346525EA0095400973000020000000
B1453445537531N01346600EA0095100962000020000000
B1453465537514N01346680EA0094100959000024000000
B1453485537497N01346758EA0093800971000028000000
B1453505537484N01346820EA0095101004000024000000
B1453525537470N01346872EA0098901022000020000000
B1453545537457N01346921EA0100101024000016000000
B1453565537443N01346976EA0100101014000016000000
B1453585537426N01347041EA0099301005000016000000
B1454005537407N01347111EA0098501008000020000000
B1454025537391N01347183EA0098701013000020000000
B1454045537374N01347253EA0098901014000020000000
B1454065537357N01347323EA0099101010000020000000
B1454085537339N01347398EA0098600999000024000000
B1454105537320N01347478EA0097801001000024000000
B1454125537302N01347554EA0097801011000024000000
B1454145537284N01347629EA0098701012000024000000
B1454165537267N01347705EA0098901009000024000000
B1454185537249N01347785EA0098601005000024000000
B1454205537231N01347865EA0098201005000024000000
B1454225537212N01347942EA0098301014000024000000
B1454245537196N01348013EA0099201023000024000000
B1454265537177N01348084EA0099901019000020000000
B1454285537158N01348156EA0099501010000020000000
B1454305537137N01348233EA0098701005000024000000
B1454325537115N01348311EA0098301008000024000000
B1454345537093N01348389EA0098601012000024000000
B1454365537069N01348464EA0099201026000024000000
B1454385537051N01348529EA0100701046000024000000
B1454405537036N01348591EA0102601055000020000000
B1454425537021N01348650EA0103101050000020000000
B1454445537006N01348718EA0102601044000020000000
B1454465536990N01348787EA0102401053000020000000
B1454485536977N01348854EA0103101057000020000000
B1454505536964N01348923EA0103401054000020000000
B1454525536952N01348995EA0103301047000020000000
B1454545536939N01349074EA0102501041000020000000
B1454565536929N01349150EA0102701066000024000000
B1454585536923N01349209EA0105101091000020000000
B1455005536915N01349265EA0106801092000016000000
B1455025536906N01349326EA0106601081000016000000
B1455045536897N01349397EA0105501070000016000000
B1455065536887N01349472EA0104801068000020000000
B1455085536880N01349547EA0104501064000016000000
B1455105536872N01349625EA0104201053000020000000
B1455125536863N01349711EA0103201040000020000000
B1455145536855N01349801EA0102001030000024000000
B1455165536847N01349897EA0100801016000028000000
B1455185536839N01349996EA0099701018000028000000
B1455205536830N01350091EA0100101030000028000000
B1455225536822N01350177EA0101501049000028000000
B1455245536816N01350257EA0102401057000024000000
B1455265536808N01350338EA0103401058000028000000
B1455285536799N01350418EA0103601059000024000000
B1455305536791N01350495EA0104001074000024000000
B1455325536782N01350568EA0104901073000024000000
B1455345536773N01350643EA0104901059000024000000
B1455365536761N01350725EA0103701041000024000000
B1455385536747N01350816EA0102001029000028000000
B1455405536734N01350902EA0101101053000028000000
B1455425536724N01350971EA0103001086000028000000
B1455445536715N01351032EA0106001100000028000000
B1455465536704N01351092EA0107601102000028000000
B1455485536691N01351153EA0108101106000028000000
B1455505536679N01351213EA0108501116000024000000
B1455525536668N01351270EA0109301120000024000000
B1455545536655N01351330EA0109601111000024000000
B1455565536642N01351397EA0108901107000020000000
B1455585536627N01351466EA0108601113000020000000
B1456005536613N01351532EA0108901114000024000000
B1456025536598N01351600EA0108901106000024000000
B1456045536581N01351674EA0108201094000024000000
B1456065536565N01351755EA0107001085000024000000
B1456085536548N01351837EA0106401095000028000000
B1456105536533N01351907EA0107501123000028000000
B1456125536520N01351968EA0109801139000024000000
B1456145536505N01352026EA0111501151000024000000
B1456165536494N01352082EA0112701158000020000000
B1456185536481N01352137EA0113401161000020000000
B1456205536468N01352193EA0113701161000020000000
B1456225536453N01352250EA0113701161000016000000
B1456245536438N01352310EA0113701158000016000000
B1456265536421N01352374EA0113401156000020000000
B1456285536404N01352440EA0113201158000020000000
B1456305536387N01352504EA0113501169000020000000
B1456325536371N01352565EA0114401177000020000000
B1456345536354N01352622EA0115201184000016000000
B1456365536339N01352680EA0115801186000020000000
B1456385536323N01352739EA0116201187000016000000
B1456405536306N01352800EA0116201185000020000000
B1456425536288N01352865EA0116001179000020000000
B1456445536270N01352934EA0115401170000020000000
B1456465536249N01353009EA0114301155000024000000
B1456485536228N01353091EA0113101147000024000000
B1456505536208N01353177EA0112301150000024000000
B1456525536188N01353259EA0112701165000028000000
B1456545536170N01353337EA0113701163000028000000
B1456565536150N01353417EA0113801152000028000000
B1456585536133N01353505EA0112801140000028000000
B1457005536115N01353596EA0111801143000032000000
B1457025536100N01353680EA0112001160000032000000
B1457045536084N01353761EA0113101162000032000000
B1457065536068N01353841EA0113501161000032000000
B1457085536054N01353921EA0113501165000032000000
B1457105536042N01354000EA0113801164000028000000
B1457125536028N01354080EA0113401153000028000000
B1457145536013N01354166EA0112101137000032000000
B1457165535998N01354259EA0110701125000028000000
B1457185535984N01354353EA0109801120000032000000
B1457205535970N01354447EA0109601124000032000000
B1457225535955N01354537EA0109901125000036000000
B1457245535942N01354626EA0110001122000036000000
B1457265535929N01354715EA0109701117000032000000
B1457285535919N01354807EA0109101102000032000000
B1457305535907N01354902EA0108001092000032000000
B1457325535898N01354997EA0107001092000032000000
B1457345535890N01355087EA0107101105000032000000
B1457365535883N01355171EA0107801105000036000000
B1457385535875N01355258EA0108101101000032000000
B1457405535868N01355348EA0107801094000032000000
B1457425535860N01355438EA0107301094000032000000
B1457445535853N01355527EA0107001087000032000000
B1457465535846N01355618EA0106101081000032000000
B1457485535840N01355708EA0105901079000032000000
B1457505535832N01355799EA0105501078000032000000
B1457525535825N01355886EA0105601087000032000000
B1457545535820N01355971EA0106301089000032000000
B1457565535815N01356056EA0106301083000028000000
B1457585535808N01356142EA0105701079000028000000
B1458005535802N01356231EA0105601075000028000000
B1458025535794N01356320EA0105101066000028000000
B1458045535788N01356413EA0104401060000028000000
B1458065535781N01356506EA0103701054000032000000
B1458085535775N01356601EA0103101049000032000000
B1458105535768N01356696EA0102701052000032000000
B1458125535763N01356790EA0102801049000032000000
B1458145535759N01356886EA0102601040000032000000
B1458165535753N01356982EA0101601038000036000000
B1458185535746N01357077EA0101401038000032000000
B1458205535740N01357168EA0101501043000032000000
B1458225535733N01357256EA0102101045000032000000
B1458245535728N01357345EA0102301048000032000000
B1458265535721N01357432EA0102401046000032000000
B1458285535715N01357522EA0102301043000032000000
B1458305535708N01357610EA0102101049000032000000
B1458325535704N01357697EA0102501055000032000000
B1458345535699N01357782EA0103201055000032000000
B1458365535693N01357867EA0103101045000032000000
B1458385535686N01357957EA0102301039000032000000
B1458405535681N01358048EA0101701039000028000000
B1458425535676N01358138EA0101601040000032000000
B1458445535669N01358227EA0101701036000032000000
B1458465535664N01358317EA0101501035000032000000
B1458485535658N01358407EA0101301029000036000000
B1458505535651N01358499EA0100401021000032000000
B1458525535645N01358591EA0100101018000032000000
B1458545535637N01358685EA0099601015000032000000
B1458565535629N01358777EA0099401018000032000000
B1458585535621N01358867EA0099701019000032000000
B1459005535613N01358957EA0099701018000032000000
B1459025535606N01359044EA0100001025000028000000
B1459045535598N01359126EA0100501028000028000000
B1459065535589N01359208EA0100201018000028000000
B1459085535581N01359293EA0099601001000024000000
B1459105535573N01359386EA0098000983000024000000
B1459125535567N01359483EA0096400974000028000000
B1459145535561N01359577EA0095700985000032000000
B1459165535556N01359660EA0096301005000032000000
B1459185535552N01359741EA0098501008000028000000
B1459205535548N01359820EA0098601006000028000000
B1459225535546N01359899EA0098901015000024000000
B1459245535543N01359971EA0099301026000024000000
B1459265535541N01400040EA0100401028000024000000
B1459285535538N01400110EA0100701016000024000000
B1459305535538N01400185EA0099700999000024000000
B1459325535539N01400267EA0098100991000024000000
B1459345535543N01400349EA0097100987000024000000
B1459365535546N01400432EA0096400981000024000000
B1459385535548N01400517EA0096000977000024000000
B1459405535551N01400601EA0095600970000024000000
B1459425535555N01400690EA0095100962000024000000
B1459445535559N01400779EA0094200953000028000000
B1459465535560N01400872EA0092800942000028000000
B1459485535551N01400968EA0092100941000028000000
B1459505535533N01401055EA0092100950000028000000
B1459525535511N01401134EA0092800956000028000000
B1459545535487N01401210EA0093500954000028000000
B1459565535461N01401285EA0093400950000028000000
B1459585535431N01401355EA0093000952000024000000
B1500005535399N01401419EA0093100952000024000000
B1500025535361N01401472EA0093000948000024000000
B1500045535321N01401513EA0092700942000024000000
B1500065535279N01401546EA0092200944000024000000
B1500085535239N01401578EA0092200940000024000000
B1500105535197N01401609EA0091800926000024000000
B1500125535153N01401641EA0090600915000024000000
B1500145535109N01401672EA0089600914000024000000
B1500165535066N01401702EA0089400916000028000000
B1500185535023N01401731EA0089500914000028000000
B1500205534982N01401767EA0089400909000028000000
B1500225534940N01401810EA0088800903000028000000
B1500245534900N01401856EA0088200896000028000000
B1500265534858N01401903EA0087500890000028000000
B1500285534815N01401953EA0087000887000028000000
B1500305534774N01402005EA0086700887000032000000
B1500325534733N01402057EA0086800888000028000000
B1500345534693N01402112EA0086900888000032000000
B1500365534653N01402166EA0086800885000032000000
B1500385534614N01402221EA0086500883000032000000
B1500405534573N01402276EA0086400884000028000000
B1500425534534N01402330EA0086600886000028000000
B1500445534495N01402385EA0086800887000032000000
B1500465534458N01402441EA0086800887000028000000
B1500485534419N01402497EA0086700881000028000000
B1500505534380N01402555EA0086300878000028000000
B1500525534339N01402615EA0085800875000032000000
B1500545534300N01402675EA0085700878000032000000
B1500565534261N01402735EA0085900878000032000000
B1500585534222N01402794EA0085900876000032000000
B1501005534183N01402857EA0085800874000032000000
B1501025534146N01402918EA0085400872000028000000
B1501045534107N01402976EA0085300874000032000000
B1501065534070N01403036EA0085500876000028000000
B1501085534034N01403097EA0085600873000028000000
B1501105533998N01403158EA0085200865000032000000
B1501125533960N01403221EA0084500860000032000000
B1501145533922N01403284EA0083900855000032000000
B1501165533884N01403349EA0083400850000032000000
B1501185533847N01403413EA0082800844000032000000
B1501205533808N01403478EA0082300838000032000000
B1501225533769N01403542EA0082000839000036000000
B1501245533732N01403606EA0082100842000032000000
B1501265533696N01403668EA0082200840000036000000
B1501285533660N01403729EA0082200839000032000000
B1501305533624N01403793EA0082000838000032000000
B1501325533589N01403858EA0081800829000032000000
B1501345533553N01403924EA0080800822000028000000
B1501365533517N01403994EA0080400815000032000000
B1501385533480N01404064EA0079800812000028000000
B1501405533445N01404135EA0079400811000028000000
B1501425533410N01404206EA0079100811000028000000
B1501445533376N01404276EA0079200809000028000000
B1501465533344N01404347EA0078900806000028000000
B1501485533310N01404417EA0078700799000028000000
B1501505533275N01404490EA0078000793000028000000
B1501525533242N01404564EA0077400791000028000000
B1501545533210N01404638EA0077100789000028000000
B1501565533177N01404713EA0076900780000028000000
B1501585533145N01404790EA0076200774000028000000
B1502005533114N01404868EA0075500771000028000000
B1502025533082N01404945EA0075300769000028000000
B1502045533054N01405023EA0075300776000028000000
B1502065533028N01405098EA0075700777000024000000
B1502085533003N01405175EA0075700770000028000000
B1502105532980N01405257EA0075200767000028000000
B1502125532959N01405335EA0075000774000028000000
B1502145532938N01405407EA0075500783000028000000
B1502165532919N01405476EA0076200786000024000000
B1502185532900N01405544EA0076500782000024000000
B1502205532883N01405611EA0076400781000024000000
B1502225532868N01405680EA0076300784000024000000
B1502245532852N01405748EA0076500785000020000000
B1502265532838N01405816EA0076600787000020000000
B1502285532826N01405884EA0077200792000020000000
B1502305532830N01405955EA0077400794000020000000
B1502325532851N01406003EA0077700796000020000000
B1502345532876N01406014EA0077700795000020000000
B1502365532889N01405992EA0077600789000020000000
B1502385532880N01405965EA0077200783000020000000
B1502405532851N01405957EA0076600779000020000000
B1502425532821N01405965EA0076300784000020000000
B1502445532791N01405979EA0076600788000020000000
B1502465532763N01405999EA0077000789000020000000
B1502485532742N01406050EA0077100788000020000000
B1502505532740N01406117EA0077000785000020000000
B1502525532755N01406180EA0076800792000020000000
B1502545532773N01406226EA0077300797000020000000
B1502565532796N01406246EA0077600795000016000000
B1502585532813N01406234EA0077400788000016000000
B1503005532816N01406203EA0076800783000016000000
B1503025532798N01406178EA0076400782000016000000
B1503045532769N01406177EA0076400781000016000000
B1503065532735N01406193EA0076200781000020000000
B1503085532704N01406213EA0076400790000020000000
B1503105532675N01406237EA0077000790000020000000
B1503125532644N01406255EA0077000786000020000000
B1503145532618N01406247EA0076600782000024000000
B1503165532609N01406220EA0076300782000024000000
B1503185532620N01406196EA0076100776000028000000
B1503205532646N01406199EA0075700773000024000000
B1503225532674N01406234EA0075500775000028000000
B1503245532699N01406285EA0075700782000028000000
B1503265532713N01406339EA0076600797000028000000
B1503285532726N01406394EA0077600794000024000000
B1503305532739N01406454EA0077500788000024000000
B1503325532753N01406516EA0077200795000024000000
B1503345532765N01406575EA0077600797000024000000
B1503365532776N01406635EA0077800797000020000000
B1503385532783N01406697EA0077600790000020000000
B1503405532790N01406765EA0076700776000020000000
B1503425532795N01406840EA0075100757000020000000
B1503445532792N01406924EA0074000758000020000000
B1503465532782N01407000EA0074300770000020000000
B1503485532763N01407058EA0075200775000020000000
B1503505532735N01407093EA0075400770000020000000
B1503525532705N01407103EA0074500749000020000000
B1503545532679N01407075EA0072700734000020000000
B1503565532664N01407031EA0071600732000024000000
B1503585532651N01406984EA0071400732000024000000
B1504005532639N01406939EA0071500743000024000000
B1504025532631N01406900EA0072800752000024000000
B1504045532622N01406862EA0073400754000024000000
B1504065532613N01406822EA0073500752000024000000
B1504085532603N01406780EA0073400747000024000000
B1504105532591N01406737EA0072900739000024000000
B1504125532579N01406689EA0072300744000024000000
B1504145532568N01406650EA0072700761000024000000
B1504165532557N01406614EA0074100768000024000000
B1504185532547N01406581EA0075100775000024000000
B1504205532536N01406551EA0075700779000020000000
B1504225532526N01406523EA0075900779000020000000
B1504245532517N01406494EA0076100782000020000000
B1504265532506N01406468EA0076200781000020000000
B1504285532496N01406440EA0076100777000020000000
B1504305532487N01406407EA0075500766000020000000
B1504325532475N01406367EA0074500756000020000000
B1504345532464N01406324EA0073700754000020000000
B1504365532452N01406281EA0073500755000024000000
B1504385532440N01406238EA0073700761000024000000
B1504405532428N01406198EA0074400770000024000000
B1504425532417N01406163EA0075500785000024000000
B1504445532406N01406133EA0076700794000024000000
B1504465532397N01406105EA0077600799000024000000
B1504485532387N01406078EA0078100802000020000000
B1504505532376N01406050EA0078200801000020000000
B1504525532366N01406020EA0078200793000020000000
B1504545532356N01405986EA0077300776000020000000
B1504565532345N01405943EA0075200763000020000000
B1504585532339N01405897EA0074400760000020000000
B1505005532330N01405853EA0074200761000024000000
B1505025532319N01405816EA0074600782000024000000
B1505045532310N01405787EA0076000796000020000000
B1505065532301N01405761EA0077700798000020000000
B1505085532298N01405734EA0077900792000020000000
B1505105532297N01405701EA0077500784000020000000
B1505125532293N01405665EA0076700778000020000000
B1505145532284N01405626EA0076000775000020000000
B1505165532276N01405584EA0075500769000020000000
B1505185532266N01405541EA0075100769000024000000
B1505205532256N01405500EA0075200774000024000000
B1505225532246N01405462EA0075600782000024000000
B1505245532237N01405429EA0076100783000024000000
B1505265532228N01405394EA0076100771000020000000
B1505285532218N01405354EA0075100753000024000000
B1505305532205N01405306EA0073400740000024000000
B1505325532193N01405254EA0072100732000024000000
B1505345532180N01405202EA0071400728000024000000
B1505365532168N01405150EA0070900728000028000000
B1505385532158N01405101EA0070900729000028000000
B1505405532149N01405052EA0071000731000028000000
B1505425532140N01405006EA0071200732000028000000
B1505445532133N01404959EA0071100728000028000000
B1505465532128N01404908EA0070700726000028000000
B1505485532126N01404863EA0071100741000028000000
B1505505532124N01404828EA0072600759000028000000
B1505525532123N01404802EA0074300773000024000000
B1505545532122N01404779EA0075300774000024000000
B1505565532122N01404756EA0075200764000020000000
B1505585532123N01404722EA0074200752000024000000
B1506005532127N01404686EA0073500755000020000000
B1506025532131N01404649EA0073500752000020000000
B1506045532135N01404609EA0073200747000024000000
B1506065532139N01404564EA0073000749000024000000
B1506085532141N01404519EA0072800743000024000000
B1506105532145N01404475EA0072500742000024000000
B1506125532148N01404431EA0072300741000024000000
B1506145532150N01404383EA0072500745000024000000
B1506165532152N01404344EA0072800769000028000000
B1506185532152N01404315EA0075800784000024000000
B1506205532163N01404295EA0076300781000024000000
B1506225532188N01404305EA0076000773000024000000
B1506245532206N01404362EA0075700775000028000000
B1506265532198N01404431EA0076300789000028000000
B1506285532178N01404486EA0077600801000028000000
B1506305532148N01404516EA0078100808000024000000
B1506325532122N01404504EA0079000811000024000000
B1506345532115N01404467EA0079300812000024000000
B1506365532133N01404447EA0079500815000024000000
B1506385532161N01404464EA0079900823000020000000
B1506405532178N01404516EA0080600832000020000000
B1506425532179N01404582EA0081500840000020000000
B1506445532167N01404646EA0081900847000020000000
B1506465532142N01404692EA0082600853000020000000
B1506485532110N01404716EA0083100853000020000000
B1506505532080N01404707EA0083200856000020000000
B1506525532061N01404673EA0083500862000020000000
B1506545532064N01404635EA0084100870000020000000
B1506565532084N01404616EA0084800875000020000000
B1506585532111N01404631EA0085500879000020000000
B1507005532131N01404682EA0085700882000020000000
B1507025532135N01404751EA0086000886000020000000
B1507045532116N01404812EA0086600894000020000000
B1507065532088N01404847EA0087300904000020000000
B1507085532058N01404864EA0088300909000020000000
B1507105532031N01404854EA0088700908000020000000
B1507125532018N01404820EA0088800914000020000000
B1507145532020N01404785EA0089400920000020000000
B1507165532032N01404756EA0089600917000020000000
B1507185532055N01404740EA0089400912000020000000
B1507205532085N01404757EA0089200916000020000000
B1507225532106N01404808EA0089600926000020000000
B1507245532111N01404876EA0090300929000020000000
B1507265532096N01404941EA0090600930000020000000
B1507285532063N01404972EA0090900934000020000000
B1507305532033N01404967EA0091100935000020000000
B1507325532019N01404932EA0091200936000016000000
B1507345532025N01404896EA0091400937000020000000
B1507365532048N01404880EA0091500939000020000000
B1507385532075N01404882EA0091800946000020000000
B1507405532101N01404902EA0092500953000020000000
B1507425532123N01404943EA0093100952000020000000
B1507445532124N01405010EA0093100953000028000000
B1507465532101N01405063EA0093100951000028000000
B1507485532067N01405073EA0092800951000028000000
B1507505532046N01405049EA0093000959000024000000
B1507525532036N01405016EA0093700968000024000000
B1507545532032N01404986EA0094500973000020000000
B1507565532031N01404956EA0094900971000020000000
B1507585532031N01404924EA0094600965000020000000
B1508005532033N01404886EA0094000958000020000000
B1508025532037N01404844EA0093500955000020000000
B1508045532042N01404807EA0093800971000020000000
B1508065532046N01404778EA0095000982000016000000
B1508085532049N01404750EA0095600976000016000000
B1508105532051N01404716EA0094900961000016000000
B1508125532057N01404673EA0093600950000016000000
B1508145532063N01404627EA0092900950000016000000
B1508165532068N01404587EA0093300967000020000000
B1508185532068N01404566EA0095400998000016000000
B1508205532066N01404553EA0097701005000016000000
B1508225532064N01404536EA0098000995000016000000
B1508245532064N01404510EA0097000984000016000000
B1508265532064N01404478EA0096000975000020000000
B1508285532066N01404439EA0095100963000020000000
B1508305532067N01404393EA0093800947000020000000
B1508325532070N01404340EA0092200931000024000000
B1508345532072N01404282EA0090500915000028000000
B1508365532075N01404218EA0089400916000028000000
B1508385532075N01404166EA0090300939000028000000
B1508405532074N01404120EA0092000945000024000000
B1508425532074N01404075EA0092300940000024000000
B1508445532074N01404028EA0091600930000028000000
B1508465532076N01403976EA0091100921000028000000
B1508485532079N01403923EA0090100911000028000000
B1508505532084N01403867EA0089000896000032000000
B1508525532088N01403806EA0087800893000036000000
B1508545532092N01403749EA0087600908000036000000
B1508565532096N01403700EA0088800932000036000000
B1508585532096N01403667EA0092000950000028000000
B1509005532096N01403634EA0093100951000024000000
B1509025532097N01403598EA0093100948000024000000
B1509045532098N01403560EA0093000952000028000000
B1509065532101N01403524EA0093200957000024000000
B1509085532102N01403486EA0093600956000024000000
B1509105532103N01403448EA0093700964000024000000
B1509125532102N01403418EA0094500976000020000000
B1509145532101N01403391EA0095400974000020000000
B1509165532100N01403357EA0095300967000020000000
B1509185532100N01403321EA0094900971000020000000
B1509205532100N01403286EA0095000971000020000000
B1509225532100N01403249EA0095000964000020000000
B1509245532100N01403208EA0094100949000020000000
B1509265532101N01403157EA0092900945000024000000
B1509285532101N01403109EA0092900959000024000000
B1509305532100N01403069EA0093800965000024000000
B1509325532100N01403027EA0094200955000024000000
B1509345532100N01402980EA0093300941000024000000
B1509365532100N01402928EA0091800922000028000000
B1509385532101N01402870EA0090100908000028000000
B1509405532103N01402809EA0089100912000032000000
B1509425532106N01402753EA0089300925000032000000
B1509445532106N01402706EA0090600939000032000000
B1509465532106N01402660EA0091600934000032000000
B1509485532106N01402614EA0091400929000028000000
B1509505532107N01402564EA0090600913000028000000
B1509525532110N01402507EA0089100897000028000000
B1509545532113N01402452EA0088200912000028000000
B1509565532115N01402408EA0089300927000028000000
B1509585532116N01402368EA0090500922000028000000
B1510005532120N01402325EA0089900906000024000000
B1510025532124N01402274EA0088300891000028000000
B1510045532129N01402221EA0087400899000028000000
B1510065532133N01402174EA0087900908000028000000
B1510085532139N01402129EA0088700907000024000000
B1510105532142N01402082EA0088700907000024000000
B1510125532146N01402036EA0088900913000024000000
B1510145532149N01401996EA0089400918000024000000
B1510165532153N01401955EA0089600914000024000000
B1510185532161N01401913EA0089500920000024000000
B1510205532167N01401882EA0090800942000020000000
B1510225532172N01401857EA0092500951000020000000
B1510245532181N01401835EA0093200950000020000000
B1510265532201N01401830EA0093000947000020000000
B1510285532224N01401861EA0092700945000020000000
B1510305532232N01401923EA0092700945000028000000
B1510325532217N01401986EA0092900950000028000000
B1510345532187N01402025EA0093500959000028000000
B1510365532155N01402042EA0094200966000028000000
B1510385532127N01402030EA0094600967000024000000
B1510405532111N01401996EA0094700967000024000000
B1510425532106N01401958EA0094900974000024000000
B1510445532113N01401927EA0095200979000024000000
B1510465532129N01401906EA0095700978000024000000
B1510485532150N01401893EA0095600969000020000000
B1510505532175N01401873EA0094700958000024000000
B1510525532198N01401840EA0093600952000024000000
B1510545532219N01401802EA0093100953000028000000
B1510565532240N01401765EA0093000959000028000000
B1510585532258N01401732EA0093700971000028000000
B1511005532276N01401705EA0094500974000028000000
B1511025532296N01401676EA0094800964000028000000
B1511045532317N01401645EA0094200959000028000000
B1511065532339N01401610EA0093700960000028000000
B1511085532358N01401575EA0093600964000028000000
B1511105532379N01401541EA0094000967000028000000
B1511125532399N01401506EA0094200961000028000000
B1511145532418N01401468EA0093700956000028000000
B1511165532438N01401428EA0093300960000028000000
B1511185532453N01401397EA0094100982000028000000
B1511205532466N01401370EA0095500981000024000000
