ACAM3RL
HFDTE170803
HFFXA050
HFPLTPILOT:Peter Cutting           
HFGTYGLIDERTYPE:LS8-b       
HFGIDGLIDERID:SE-USP      
HFDTM100GPSDATUM:
HFRFWFIRMWAREVERSION:F2.6
HFRHWHARDWAREVERSION:300 Series Version 2
HFFTYFRTYPE:CAMBRIDGE AERO INSTRUMENTS, 302+
HFGPS:GARMIN,LVS-25,12,18000
HFPRSPRESSALTSENSOR:INTERSEMA, MS5534-AP, 20000
I033638FXA3941ENL4247REX
LCAMSBVER:5FWVER:F26300
C170803105000170803000103
C0000000N00000000WTAKEOFF     
C5535815N01340565ESovde flp   
C5620580N01339680EVittsjo ka  
C5559450N01342450EHaglinge ka 
C5620580N01339680EVittsjo ka  
C5535815N01340565ESovde flp   
C0000000N00000000WLANDING     
B1142485535659N01340858EA0000000043000016000000
B1142505535659N01340858EA0000000043000016000000
B1142525535659N01340858EA0000000043000016000000
B1142545535658N01340858EA0000000043000028000000
B1142565535658N01340858EA0000000043000028000000
B1142585535658N01340858EA0000000043000024000000
B1143005535658N01340858EA0000000043000020000000
B1143025535658N01340858EA0000000043000020000000
B1143045535658N01340858EA0000000043000016000000
B1143065535658N01340858EA0000000043000012000000
B1143085535658N01340858EA0000000043000008000000
B1143105535658N01340857EA0000000043000008000000
B1143125535658N01340857EA0000000044000008000000
B1143145535659N01340856EA0000000044000008000000
B1143165535660N01340852EA0000000044000020000000
B1143195535667N01340840EA0000000044000060000000
B1143215535673N01340828EA-000100044000120000000
B1143235535680N01340814EA-000100043000156000000
B1143255535689N01340796EA-000100043000200000000
B1143275535699N01340775EA-000100043000292000000
B1143295535711N01340752EA-000100043000352000000
B1143315535724N01340726EA-000100043000368000000
B1143335535738N01340696EA-000100043000364000000
B1143355535754N01340664EA-000100044000312000000
B1143375535771N01340629EA0000000045000280000000
B1143395535788N01340590EA0000100046000260000000
B1143415535806N01340550EA0000200047000252000000
B1143435535827N01340508EA0000300048000252000000
B1143455535847N01340466EA0000400049000244000000
B1143475535870N01340425EA0000700055000244000000
B1143495535890N01340384EA0001200061000228000000
B1143515535910N01340341EA0001700066000212000000
B1143535535929N01340298EA0002400075000208000000
B1143555535946N01340252EA0003100081000204000000
B1143575535962N01340206EA0003700082000196000000
B1143595535975N01340159EA0003900087000192000000
B1144015535989N01340112EA0004300091000176000000
B1144035536003N01340066EA0004600093000176000000
B1144055536019N01340021EA0004900096000160000000
B1144075536036N01339975EA0005100100000160000000
B1144095536052N01339931EA0005600105000160000000
B1144115536070N01339886EA0006000106000152000000
B1144135536087N01339842EA0006200108000160000000
B1144155536104N01339796EA0006600113000168000000
B1144175536119N01339751EA0007100119000172000000
B1144195536135N01339705EA0007600125000176000000
B1144215536150N01339658EA0008100127000176000000
B1144235536163N01339610EA0008400131000180000000
B1144255536175N01339561EA0008800135000180000000
B1144275536185N01339510EA0009100138000184000000
B1144295536196N01339458EA0009400140000180000000
B1144315536205N01339406EA0009800145000176000000
B1144335536218N01339358EA0010400154000172000000
B1144355536230N01339310EA0010900163000172000000
B1144375536241N01339260EA0011700166000168000000
B1144395536254N01339214EA0012100169000176000000
B1144415536266N01339164EA0012400174000180000000
B1144435536279N01339115EA0012800177000180000000
B1144455536291N01339065EA0013100182000176000000
B1144475536305N01339019EA0013700192000176000000
B1144495536321N01338974EA0014500199000180000000
B1144515536334N01338928EA0015200208000168000000
B1144535536345N01338878EA0016000214000164000000
B1144555536354N01338826EA0016600216000156000000
B1144575536365N01338774EA0016900217000148000000
B1144595536378N01338722EA0017200221000152000000
B1145015536391N01338672EA0017400225000160000000
B1145035536405N01338621EA0017800229000156000000
B1145055536418N01338570EA0018200233000172000000
B1145075536432N01338519EA0018600236000172000000
B1145095536447N01338469EA0019000241000180000000
B1145115536460N01338417EA0019400245000152000000
B1145135536473N01338365EA0019900250000136000000
B1145155536487N01338314EA0020400255000108000000
B1145175536501N01338263EA0020600260000100000000
B1145195536514N01338213EA0020800265000084000000
B1145215536527N01338161EA0021600269000064000000
B1145235536540N01338109EA0021800274000060000000
B1145255536555N01338058EA0022300278000056000000
B1145275536569N01338007EA0022600280000048000000
B1145295536582N01337957EA0022900284000044000000
B1145315536596N01337907EA0023300289000040000000
B1145335536611N01337859EA0023800292000036000000
B1145355536624N01337811EA0024200299000036000000
B1145375536637N01337763EA0024900305000036000000
B1145395536650N01337716EA0025400310000032000000
B1145415536663N01337668EA0025800313000032000000
B1145435536676N01337624EA0026300319000032000000
B1145455536690N01337578EA0026800324000032000000
B1145475536702N01337531EA0027300327000032000000
B1145495536711N01337481EA0027600331000028000000
B1145515536712N01337427EA0028000334000028000000
B1145535536708N01337373EA0028300336000028000000
B1145555536698N01337320EA0028600341000028000000
B1145575536685N01337266EA0029000345000028000000
B1145595536665N01337218EA0029200350000028000000
B1146015536642N01337175EA0029700354000028000000
B1146035536613N01337140EA0030100357000028000000
B1146055536581N01337114EA0030500361000028000000
B1146075536547N01337097EA0030800365000028000000
B1146095536509N01337091EA0031200367000028000000
B1146115536473N01337096EA0031500371000028000000
B1146135536438N01337115EA0032000382000032000000
B1146155536404N01337141EA0033000390000032000000
B1146175536373N01337177EA0033800396000032000000
B1146195536344N01337219EA0034500402000028000000
B1146215536321N01337271EA0035100411000032000000
B1146235536300N01337329EA0035900419000028000000
B1146255536284N01337388EA0036700427000028000000
B1146275536274N01337453EA0037700439000032000000
B1146295536266N01337518EA0038600445000032000000
B1146315536258N01337586EA0038800449000032000000
B1146335536252N01337652EA0039300457000032000000
B1146355536244N01337719EA0040000464000032000000
B1146375536236N01337784EA0040700470000032000000
B1146395536231N01337850EA0041900479000032000000
B1146415536232N01337918EA0042300485000032000000
B1146435536240N01337981EA0042900488000032000000
B1146455536256N01338038EA0043300494000028000000
B1146475536274N01338089EA0043700499000028000000
B1146495536297N01338132EA0044200503000028000000
B1146515536323N01338165EA0044600507000024000000
B1146535536352N01338189EA0045000513000024000000
B1146555536382N01338204EA0045600519000024000000
B1146575536412N01338210EA0046100523000024000000
B1146595536442N01338206EA0046500528000024000000
B1147015536470N01338191EA0047100534000024000000
B1147035536496N01338166EA0047700539000028000000
B1147055536520N01338133EA0048100542000028000000
B1147075536540N01338093EA0048500546000028000000
B1147095536553N01338046EA0049000553000024000000
B1147115536564N01337997EA0049700558000024000000
B1147135536569N01337945EA0050100562000024000000
B1147155536570N01337890EA0050400566000024000000
B1147175536565N01337837EA0050700571000024000000
B1147195536557N01337785EA0051200575000028000000
B1147215536549N01337734EA0051600581000028000000
B1147235536538N01337684EA0052200586000028000000
B1147255536523N01337634EA0052700589000028000000
B1147275536504N01337589EA0053100593000028000000
B1147295536479N01337550EA0053500597000028000000
B1147315536449N01337518EA0053900602000028000000
B1147335536416N01337499EA0054500605000028000000
B1147355536379N01337492EA0054800607000028000000
B1147375536344N01337503EA0055100613000028000000
B1147395536310N01337526EA0055800624000028000000
B1147415536280N01337561EA0056900635000036000000
B1147435536257N01337607EA0057800643000036000000
B1147455536248N01337664EA0058200651000032000000
B1147475536253N01337720EA0059200653000028000000
B1147495536274N01337760EA0059400653000028000000
B1147515536302N01337775EA0059500655000024000000
B1147535536330N01337763EA0059500659000020000000
B1147555536349N01337732EA0059800660000020000000
B1147575536356N01337690EA0059900659000020000000
B1147595536349N01337647EA0059800657000020000000
B1148015536332N01337613EA0059700658000020000000
B1148035536308N01337594EA0059800660000016000000
B1148055536280N01337591EA0060100664000016000000
B1148075536254N01337599EA0060300667000012000000
B1148095536227N01337613EA0060600668000012000000
B1148115536201N01337639EA0060700669000016000000
B1148135536179N01337677EA0061000672000016000000
B1148155536165N01337729EA0061300674000020000000
B1148175536169N01337790EA0061500679000020000000
B1148195536191N01337836EA0061900686000020000000
B1148215536219N01337847EA0062600692000020000000
B1148235536244N01337827EA0063100695000020000000
B1148255536254N01337786EA0063400695000016000000
B1148275536248N01337741EA0063400695000016000000
B1148295536226N01337712EA0063400696000016000000
B1148315536197N01337704EA0063600701000016000000
B1148335536167N01337717EA0064000703000016000000
B1148355536141N01337751EA0064100702000020000000
B1148375536130N01337808EA0064400709000020000000
B1148395536139N01337868EA0065000716000020000000
B1148415536163N01337908EA0065600722000020000000
B1148435536192N01337916EA0066400729000020000000
B1148455536217N01337895EA0066700733000016000000
B1148475536231N01337855EA0067200732000016000000
B1148495536228N01337808EA0067200731000016000000
B1148515536210N01337768EA0067000733000016000000
B1148535536183N01337751EA0067200737000016000000
B1148555536153N01337764EA0067600744000020000000
B1148575536131N01337802EA0068300749000020000000
B1148595536120N01337856EA0068800751000020000000
B1149015536126N01337916EA0069000755000020000000
B1149035536144N01337966EA0069200758000020000000
B1149055536174N01337993EA0069600763000020000000
B1149075536204N01337993EA0070200769000020000000
B1149095536228N01337967EA0070500770000020000000
B1149115536241N01337923EA0070500768000020000000
B1149135536239N01337873EA0070500768000020000000
B1149155536222N01337833EA0070500769000016000000
B1149175536193N01337817EA0070700773000016000000
B1149195536163N01337834EA0071100777000016000000
B1149215536141N01337879EA0071300779000016000000
B1149235536133N01337937EA0071500783000016000000
B1149255536141N01337997EA0071800786000016000000
B1149275536162N01338048EA0072200791000016000000
B1149295536191N01338079EA0072600792000016000000
B1149315536223N01338085EA0072900795000020000000
B1149335536252N01338067EA0073000794000020000000
B1149355536273N01338028EA0073000794000016000000
B1149375536279N01337977EA0073000794000016000000
B1149395536273N01337927EA0073000793000016000000
B1149415536254N01337884EA0072800792000016000000
B1149435536227N01337855EA0072800794000016000000
B1149455536196N01337849EA0073200803000016000000
B1149475536167N01337866EA0074100812000020000000
B1149495536144N01337902EA0074900817000016000000
B1149515536130N01337955EA0075100818000016000000
B1149535536130N01338016EA0075300821000016000000
B1149555536145N01338072EA0075600823000016000000
B1149575536171N01338114EA0075700823000016000000
B1149595536204N01338135EA0075800823000016000000
B1150015536236N01338127EA0076000824000016000000
B1150035536261N01338093EA0075900820000016000000
B1150055536271N01338042EA0075800820000016000000
B1150075536266N01337990EA0075800820000016000000
B1150095536247N01337949EA0075800820000016000000
B1150115536218N01337929EA0075800821000016000000
B1150135536185N01337931EA0076200828000020000000
B1150155536156N01337946EA0076700834000020000000
B1150175536126N01337973EA0077200839000020000000
B1150195536100N01338012EA0077700842000020000000
B1150215536088N01338070EA0078100846000020000000
B1150235536097N01338126EA0078600853000020000000
B1150255536120N01338165EA0079100856000020000000
B1150275536152N01338180EA0079200852000020000000
B1150295536184N01338170EA0078800850000020000000
B1150315536211N01338137EA0078700849000020000000
B1150335536224N01338090EA0078600849000020000000
B1150355536224N01338041EA0078600848000020000000
B1150375536215N01337994EA0078700850000020000000
B1150395536202N01337951EA0078800853000020000000
B1150415536180N01337918EA0079100859000020000000
B1150435536152N01337905EA0079600865000020000000
B1150455536123N01337919EA0080300872000016000000
B1150475536101N01337958EA0080900877000016000000
B1150495536092N01338014EA0081500884000016000000
B1150515536097N01338074EA0082000886000020000000
B1150535536118N01338122EA0082200886000016000000
B1150555536148N01338145EA0082300889000016000000
B1150575536178N01338139EA0082400889000016000000
B1150595536201N01338106EA0082400888000016000000
B1151015536210N01338058EA0082500890000016000000
B1151035536209N01338011EA0082800897000016000000
B1151055536201N01337967EA0083400903000016000000
B1151075536185N01337932EA0083900904000016000000
B1151095536159N01337919EA0083900900000016000000
B1151115536130N01337933EA0083600897000016000000
B1151135536102N01337975EA0083300901000020000000
B1151155536087N01338031EA0083500910000020000000
B1151175536083N01338094EA0084200916000020000000
B1151195536094N01338154EA0084800922000016000000
B1151215536119N01338197EA0085400924000016000000
B1151235536150N01338215EA0085700924000016000000
B1151255536183N01338207EA0085700922000016000000
B1151275536209N01338176EA0085400920000016000000
B1151295536224N01338129EA0085300922000020000000
B1151315536230N01338079EA0085600925000020000000
B1151335536227N01338029EA0085800928000020000000
B1151355536214N01337985EA0086100928000020000000
B1151375536191N01337954EA0086200926000020000000
B1151395536163N01337931EA0085900926000020000000
B1151415536136N01337907EA0085700926000020000000
B1151435536109N01337884EA0085800928000020000000
B1151455536081N01337863EA0085900935000020000000
B1151475536055N01337843EA0086700939000016000000
B1151505536016N01337810EA0086700930000016000000
B1151525535992N01337777EA0086200926000016000000
B1151545535972N01337734EA0085800926000016000000
B1151565535961N01337684EA0085600921000020000000
B1151585535959N01337628EA0085200918000016000000
B1152005535970N01337574EA0085100926000020000000
B1152025535988N01337530EA0086000937000020000000
B1152045536011N01337498EA0087000945000020000000
B1152065536040N01337489EA0087400952000020000000
B1152085536067N01337507EA0088500955000016000000
B1152105536088N01337547EA0088600951000016000000
B1152125536097N01337606EA0088000942000020000000
B1152145536092N01337671EA0087400941000020000000
B1152165536078N01337728EA0087400944000020000000
B1152185536054N01337772EA0087400945000020000000
B1152205536023N01337793EA0087700950000020000000
B1152225535990N01337789EA0088100955000020000000
B1152245535964N01337767EA0088500954000020000000
B1152265535948N01337724EA0088500954000016000000
B1152285535948N01337673EA0088600958000020000000
B1152305535964N01337630EA0088800962000020000000
B1152325535993N01337611EA0089200965000016000000
B1152345536023N01337620EA0089500968000016000000
B1152365536048N01337658EA0089800970000016000000
B1152385536059N01337711EA0090100974000012000000
B1152405536057N01337768EA0090400974000012000000
B1152425536040N01337816EA0090600977000012000000
B1152445536014N01337846EA0090800979000012000000
B1152465535984N01337854EA0090900980000012000000
B1152485535958N01337837EA0090900978000012000000
B1152505535940N01337798EA0090800976000012000000
B1152525535933N01337749EA0090900982000016000000
B1152545535933N01337699EA0091200991000012000000
B1152565535940N01337652EA0092000995000012000000
B1152585535959N01337617EA0092500998000012000000
B1153005535987N01337604EA0092701000000012000000
B1153025536015N01337620EA0093101001000016000000
B1153045536036N01337663EA0093301001000016000000
B1153065536044N01337723EA0093100998000016000000
B1153085536035N01337785EA0092900999000016000000
B1153105536011N01337832EA0093001004000016000000
B1153125535980N01337856EA0093501010000016000000
B1153145535950N01337856EA0094201016000020000000
B1153165535923N01337833EA0094701017000020000000
B1153185535909N01337788EA0095101025000020000000
B1153205535909N01337737EA0095601030000016000000
B1153225535925N01337697EA0096201035000016000000
B1153245535953N01337677EA0096601039000016000000
B1153265535985N01337689EA0096901041000020000000
B1153285536013N01337725EA0097201042000016000000
B1153305536028N01337782EA0097301044000020000000
B1153325536028N01337845EA0097601048000020000000
B1153345536018N01337905EA0097701052000020000000
B1153365535996N01337949EA0098201056000020000000
B1153385535967N01337977EA0098701057000020000000
B1153405535937N01337981EA0098901061000020000000
B1153425535910N01337968EA0099201065000020000000
B1153445535885N01337945EA0099701071000016000000
B1153465535864N01337914EA0100301077000020000000
B1153485535853N01337872EA0101001080000016000000
B1153505535857N01337824EA0101301084000016000000
B1153525535877N01337789EA0101701091000020000000
B1153545535906N01337781EA0102201099000020000000
B1153565535935N01337801EA0102901104000016000000
B1153585535955N01337843EA0103601107000016000000
B1154005535959N01337899EA0103901109000016000000
B1154025535946N01337954EA0104101112000016000000
B1154045535922N01337990EA0104401116000016000000
B1154065535890N01338001EA0104801121000016000000
B1154085535862N01337986EA0105201125000016000000
B1154105535841N01337951EA0105701130000016000000
B1154125535832N01337903EA0106101135000012000000
B1154145535836N01337854EA0106501138000012000000
B1154165535854N01337812EA0106701144000016000000
B1154185535883N01337795EA0107301153000016000000
B1154205535914N01337803EA0108101162000016000000
B1154225535941N01337836EA0109001165000016000000
B1154245535955N01337892EA0109501166000016000000
B1154265535949N01337953EA0109601170000016000000
B1154285535925N01337996EA0109901175000016000000
B1154305535893N01338009EA0110401180000016000000
B1154325535864N01337993EA0110901185000016000000
B1154345535844N01337957EA0111601192000016000000
B1154365535832N01337912EA0112301197000020000000
B1154385535833N01337863EA0112601199000020000000
B1154405535850N01337821EA0112901204000020000000
B1154425535880N01337803EA0113301209000020000000
B1154445535912N01337815EA0113801215000020000000
B1154465535942N01337855EA0114301217000020000000
B1154485535958N01337919EA0114401217000020000000
B1154505535954N01337989EA0114501218000020000000
B1154525535937N01338055EA0114501218000024000000
B1154545535911N01338111EA0114701225000024000000
B1154565535884N01338166EA0115101228000024000000
B1154585535857N01338223EA0115401231000024000000
B1155005535831N01338279EA0115801236000024000000
B1155025535805N01338335EA0116301238000024000000
B1155045535779N01338389EA0116401236000024000000
B1155065535753N01338445EA0116101226000024000000
B1155085535724N01338504EA0115201212000024000000
B1155105535695N01338568EA0113901201000024000000
B1155125535669N01338635EA0112901197000028000000
B1155145535645N01338705EA0112401193000028000000
B1155165535619N01338774EA0112101191000028000000
B1155185535594N01338844EA0111901191000028000000
B1155205535569N01338915EA0111801187000028000000
B1155225535546N01338989EA0111401179000028000000
B1155245535519N01339062EA0110901171000028000000
B1155265535490N01339134EA0109701165000032000000
B1155285535461N01339207EA0109401160000032000000
B1155305535431N01339281EA0108701155000032000000
B1155325535402N01339355EA0108401149000036000000
B1155345535373N01339432EA0107801141000036000000
B1155365535351N01339518EA0107201131000036000000
B1155385535343N01339614EA0106201115000040000000
B1155405535351N01339713EA0104301088000040000000
B1155425535378N01339809EA0101801057000044000000
B1155445535422N01339894EA0098701027000052000000
B1155465535478N01339961EA0096001004000056000000
B1155485535541N01340012EA0093900993000060000000
B1155505535604N01340059EA0092600983000060000000
B1155525535669N01340102EA0091600976000060000000
B1155545535734N01340142EA0090800967000064000000
B1155565535798N01340182EA0090000959000068000000
B1155585535863N01340220EA0089300955000068000000
B1156005535925N01340258EA0088900954000068000000
B1156025535985N01340294EA0089300973000068000000
B1156045536039N01340326EA0091301001000064000000
B1156065536091N01340358EA0093501009000060000000
B1156085536140N01340389EA0094101008000056000000
B1156105536189N01340423EA0094201011000060000000
B1156125536236N01340456EA0094901019000056000000
B1156145536280N01340490EA0095701028000056000000
B1156165536325N01340524EA0096501035000052000000
B1156185536366N01340557EA0097001038000052000000
B1156205536408N01340589EA0097101037000052000000
B1156225536449N01340623EA0097101035000052000000
B1156245536492N01340657EA0096901031000048000000
B1156265536534N01340690EA0096601029000048000000
B1156285536577N01340724EA0096401028000048000000
B1156305536618N01340759EA0096301028000048000000
B1156325536661N01340794EA0096301027000044000000
B1156345536703N01340828EA0096201025000044000000
B1156365536744N01340863EA0096001024000044000000
B1156385536786N01340897EA0095801022000044000000
B1156405536829N01340931EA0095601018000044000000
B1156425536872N01340962EA0095301014000044000000
B1156445536915N01340993EA0094901011000044000000
B1156465536958N01341025EA0094601008000044000000
B1156485537001N01341056EA0094301006000044000000
B1156505537043N01341086EA0094101005000040000000
B1156525537086N01341114EA0094001003000044000000
B1156545537129N01341140EA0093901003000040000000
B1156565537171N01341166EA0093801003000044000000
B1156585537212N01341194EA0093801006000040000000
B1157005537253N01341220EA0094101006000040000000
B1157025537293N01341246EA0094101002000040000000
B1157045537332N01341272EA0093700996000040000000
B1157065537374N01341298EA0093100990000036000000
B1157085537414N01341326EA0092600987000040000000
B1157105537454N01341356EA0092100985000040000000
B1157125537493N01341385EA0092000985000040000000
B1157145537532N01341412EA0091900984000036000000
B1157165537571N01341441EA0091700981000036000000
B1157185537612N01341469EA0091600979000036000000
B1157205537651N01341496EA0091300977000036000000
B1157225537690N01341526EA0091000974000036000000
B1157245537730N01341556EA0090800970000036000000
B1157265537769N01341586EA0090600966000036000000
B1157285537809N01341616EA0090000963000036000000
B1157305537849N01341647EA0089600960000036000000
B1157325537890N01341677EA0089500958000036000000
B1157345537929N01341708EA0089400958000036000000
B1157365537969N01341740EA0089400958000036000000
B1157385538008N01341772EA0089300957000036000000
B1157405538047N01341803EA0089200955000036000000
B1157425538087N01341836EA0088900949000036000000
B1157445538128N01341867EA0088400944000036000000
B1157465538168N01341898EA0087900940000036000000
B1157485538210N01341931EA0087500936000036000000
B1157505538250N01341963EA0087100934000036000000
B1157525538291N01341996EA0086800931000040000000
B1157545538332N01342029EA0086700929000040000000
B1157565538371N01342063EA0086500927000044000000
B1157585538410N01342100EA0086400925000040000000
B1158005538446N01342139EA0086200923000040000000
B1158025538484N01342176EA0085900920000040000000
B1158045538522N01342215EA0085500917000040000000
B1158065538558N01342256EA0085500919000040000000
B1158085538593N01342296EA0085500917000040000000
B1158105538628N01342338EA0085400915000040000000
B1158125538663N01342382EA0085100911000040000000
B1158145538700N01342426EA0084700908000036000000
B1158165538735N01342471EA0084500909000036000000
B1158185538771N01342516EA0084800914000036000000
B1158205538806N01342559EA0085300919000036000000
B1158225538841N01342600EA0085600920000036000000
B1158245538878N01342637EA0086000930000036000000
B1158265538912N01342666EA0086900942000036000000
B1158285538943N01342698EA0088300955000036000000
B1158305538962N01342750EA0089600964000040000000
B1158325538962N01342812EA0090500970000044000000
B1158345538943N01342867EA0091000974000040000000
B1158365538914N01342899EA0091500981000036000000
B1158385538882N01342906EA0092000986000036000000
B1158405538854N01342889EA0092500990000032000000
B1158425538836N01342851EA0092900993000028000000
B1158445538831N01342804EA0093100994000028000000
B1158465538840N01342759EA0093100994000028000000
B1158485538862N01342728EA0093200994000024000000
B1158505538891N01342717EA0093301000000024000000
B1158525538919N01342721EA0093801010000024000000
B1158545538945N01342741EA0094601012000024000000
B1158565538965N01342787EA0094901012000024000000
B1158585538965N01342848EA0095001015000024000000
B1159005538945N01342900EA0095201020000024000000
B1159025538915N01342929EA0095701026000020000000
B1159045538884N01342929EA0096101028000020000000
B1159065538861N01342899EA0096401030000020000000
B1159085538852N01342855EA0096701033000020000000
B1159105538857N01342808EA0096801032000020000000
B1159125538874N01342770EA0096701032000020000000
B1159145538901N01342754EA0096901039000020000000
B1159165538931N01342764EA0097601045000020000000
B1159185538956N01342796EA0098101050000020000000
B1159205538970N01342848EA0098501051000020000000
B1159225538967N01342908EA0098701052000020000000
B1159245538947N01342958EA0098801054000020000000
B1159265538914N01342978EA0099001057000020000000
B1159285538884N01342965EA0099301064000020000000
B1159305538861N01342936EA0100101073000020000000
B1159325538847N01342898EA0100801077000020000000
B1159345538839N01342854EA0101101074000020000000
B1159365538841N01342804EA0100901072000020000000
B1159385538848N01342754EA0100701071000020000000
B1159405538858N01342702EA0100501067000020000000
B1159425538870N01342648EA0100101060000024000000
B1159445538884N01342591EA0099501053000028000000
B1159465538901N01342533EA0098901048000028000000
B1159485538922N01342475EA0098501050000028000000
B1159505538943N01342421EA0098801060000032000000
B1159525538962N01342367EA0099801076000032000000
B1159545538979N01342322EA0101501098000028000000
B1159565538995N01342284EA0103701115000028000000
B1159585539017N01342265EA0105201122000032000000
B1200005539043N01342280EA0105901121000036000000
B1200025539058N01342330EA0105701114000040000000
B1200045539055N01342391EA0105201115000040000000
B1200065539035N01342439EA0105401123000036000000
B1200085539009N01342469EA0105901130000032000000
B1200105538980N01342482EA0106501132000032000000
B1200125538952N01342473EA0106701132000028000000
B1200145538926N01342444EA0106901138000024000000
B1200165538906N01342406EA0107401145000024000000
B1200185538896N01342361EA0108001149000024000000
B1200205538891N01342313EA0108301159000020000000
B1200225538891N01342265EA0109101168000020000000
B1200245538899N01342221EA0110501173000024000000
B1200265538921N01342196EA0110801175000024000000
B1200285538949N01342208EA0110801173000028000000
B1200305538970N01342254EA0110901178000028000000
B1200325538973N01342318EA0111401187000024000000
B1200345538958N01342377EA0111801194000024000000
B1200365538928N01342413EA0112901202000020000000
B1200385538893N01342413EA0113401211000020000000
B1200405538866N01342384EA0114701219000020000000
B1200425538849N01342339EA0115001223000020000000
B1200445538847N01342287EA0115501230000020000000
B1200465538853N01342239EA0116101234000020000000
B1200485538873N01342204EA0116501236000020000000
B1200505538900N01342189EA0116801241000020000000
B1200525538927N01342204EA0117401247000020000000
B1200545538949N01342243EA0118001253000020000000
B1200565538957N01342297EA0118601260000020000000
B1200585538947N01342356EA0119201266000020000000
B1201005538923N01342400EA0119701267000020000000
B1201025538888N01342413EA0120101272000024000000
B1201045538857N01342390EA0120701283000024000000
B1201065538837N01342349EA0121601292000020000000
B1201085538828N01342300EA0122401298000020000000
B1201105538830N01342250EA0123001304000020000000
B1201125538841N01342206EA0123401307000020000000
B1201145538861N01342175EA0123701308000020000000
B1201165538888N01342163EA0123801310000020000000
B1201185538917N01342174EA0124001313000020000000
B1201205538940N01342208EA0124301317000020000000
B1201225538952N01342261EA0124801323000020000000
B1201245538948N01342321EA0125301326000020000000
B1201265538928N01342371EA0125801330000024000000
B1201285538897N01342397EA0126201337000024000000
B1201305538863N01342393EA0127001350000028000000
B1201325538837N01342365EA0128001359000024000000
B1201345538823N01342321EA0128901360000024000000
B1201365538827N01342271EA0128901355000024000000
B1201385538848N01342236EA0128401353000020000000
B1201405538878N01342222EA0128401357000020000000
B1201425538909N01342221EA0128801360000024000000
B1201445538941N01342223EA0129001358000024000000
B1201465538974N01342227EA0128801359000024000000
B1201485539006N01342235EA0128901367000024000000
B1201505539036N01342245EA0129401373000024000000
B1201525539066N01342256EA0130101372000024000000
B1201545539097N01342267EA0129901365000024000000
B1201565539133N01342279EA0129201358000028000000
B1201585539170N01342291EA0128901352000028000000
B1202005539211N01342302EA0128201347000028000000
B1202025539251N01342314EA0127701346000028000000
B1202045539292N01342330EA0127501343000032000000
B1202065539334N01342348EA0127201336000032000000
B1202085539376N01342370EA0126601329000032000000
B1202105539417N01342397EA0125801319000032000000
B1202125539460N01342426EA0124901309000036000000
B1202145539504N01342457EA0123801298000040000000
B1202165539549N01342491EA0122701287000040000000
B1202185539594N01342526EA0121801282000044000000
B1202205539640N01342564EA0121501289000044000000
B1202225539684N01342600EA0121901290000048000000
B1202245539727N01342637EA0122301298000048000000
B1202265539767N01342676EA0122901303000048000000
B1202285539806N01342717EA0123401304000048000000
B1202305539845N01342760EA0123501304000048000000
B1202325539885N01342802EA0123601306000048000000
B1202345539927N01342838EA0123601302000048000000
B1202365539972N01342869EA0123201296000048000000
B1202385540018N01342898EA0122701293000052000000
B1202405540065N01342924EA0122501292000052000000
B1202425540111N01342943EA0122301291000052000000
B1202445540158N01342956EA0122301290000052000000
B1202465540205N01342965EA0122101289000052000000
B1202485540252N01342976EA0122001286000048000000
B1202505540297N01342986EA0121701282000048000000
B1202525540343N01342998EA0121101273000048000000
B1202545540390N01343010EA0120401268000048000000
B1202565540436N01343021EA0119901265000048000000
B1202585540485N01343033EA0119601263000048000000
B1203005540531N01343045EA0119501261000048000000
B1203025540578N01343058EA0119401262000048000000
B1203045540624N01343071EA0119401263000044000000
B1203065540669N01343082EA0119501265000044000000
B1203085540715N01343094EA0119601267000044000000
B1203105540758N01343105EA0119901268000044000000
B1203125540802N01343116EA0120001269000044000000
B1203145540843N01343128EA0120001270000044000000
B1203165540886N01343140EA0120001269000044000000
B1203185540927N01343150EA0120001269000044000000
B1203205540968N01343160EA0119901266000040000000
B1203225541008N01343172EA0119701262000040000000
B1203245541050N01343183EA0119301259000040000000
B1203265541090N01343193EA0118901256000040000000
B1203285541132N01343203EA0118501252000036000000
B1203305541172N01343215EA0118101247000036000000
B1203325541213N01343225EA0117701244000036000000
B1203345541254N01343237EA0117301240000036000000
B1203365541294N01343249EA0117001238000036000000
B1203385541336N01343261EA0116801235000036000000
B1203405541376N01343274EA0116401232000036000000
B1203425541417N01343287EA0116301229000036000000
B1203445541458N01343298EA0115901226000036000000
B1203465541499N01343310EA0115601222000036000000
B1203485541539N01343323EA0115201218000036000000
B1203505541579N01343335EA0115001216000036000000
B1203525541619N01343346EA0114701213000036000000
B1203545541660N01343358EA0114501211000036000000
B1203565541700N01343371EA0114201210000040000000
B1203585541740N01343383EA0114101209000040000000
B1204005541779N01343393EA0114001208000036000000
B1204025541820N01343404EA0113801206000036000000
B1204045541859N01343413EA0113701203000036000000
B1204065541899N01343420EA0113301197000036000000
B1204085541939N01343428EA0112701192000036000000
B1204105541980N01343436EA0112401189000036000000
B1204125542020N01343443EA0112001184000036000000
B1204145542060N01343448EA0111301172000036000000
B1204165542104N01343454EA0109901157000040000000
B1204185542150N01343461EA0109201149000040000000
B1204205542195N01343469EA0108201142000044000000
B1204225542242N01343476EA0107701142000048000000
B1204245542288N01343485EA0107501141000048000000
B1204265542333N01343498EA0107401139000048000000
B1204285542379N01343511EA0107401139000048000000
B1204305542422N01343524EA0107501152000048000000
B1204325542457N01343537EA0108901182000048000000
B1204345542485N01343549EA0111701209000044000000
B1204365542510N01343561EA0114001217000040000000
B1204385542536N01343575EA0114901216000036000000
B1204405542563N01343592EA0114801214000032000000
B1204425542592N01343610EA0114501213000032000000
B1204445542622N01343623EA0114601215000028000000
B1204465542652N01343635EA0114801217000028000000
B1204485542682N01343645EA0114901220000028000000
B1204505542710N01343654EA0115101222000024000000
B1204525542739N01343664EA0115201221000024000000
B1204545542767N01343664EA0115201219000020000000
B1204565542796N01343648EA0115101217000020000000
B1204585542818N01343615EA0115001220000020000000
B1205005542835N01343574EA0115201223000020000000
B1205025542845N01343527EA0115501223000020000000
B1205045542849N01343475EA0115401220000024000000
B1205065542852N01343422EA0115301215000024000000
B1205085542854N01343367EA0114901216000024000000
B1205105542858N01343314EA0114901219000024000000
B1205125542865N01343261EA0115101215000024000000
B1205145542879N01343211EA0114901211000024000000
B1205165542900N01343170EA0114501208000024000000
B1205185542923N01343133EA0114001200000024000000
B1205205542951N01343102EA0113201190000024000000
B1205225542984N01343077EA0112201180000028000000
B1205245543021N01343059EA0111101169000028000000
B1205265543060N01343045EA0110301163000028000000
B1205285543100N01343036EA0109601159000032000000
B1205305543142N01343030EA0109201157000032000000
B1205325543183N01343028EA0108901156000036000000
B1205345543225N01343028EA0108701151000036000000
B1205365543267N01343030EA0108201144000036000000
B1205385543308N01343033EA0107701138000036000000
B1205405543351N01343038EA0107301132000036000000
B1205425543395N01343043EA0106401125000036000000
B1205445543439N01343049EA0106101119000036000000
B1205465543485N01343054EA0105501114000036000000
B1205485543529N01343059EA0104801112000040000000
B1205505543575N01343062EA0104701114000040000000
B1205525543619N01343064EA0104801115000040000000
B1205545543662N01343067EA0104901117000040000000
B1205565543703N01343068EA0105001118000040000000
B1205585543746N01343069EA0105101116000040000000
B1206005543788N01343069EA0104901111000040000000
B1206025543831N01343069EA0104401105000040000000
B1206045543875N01343068EA0104001101000040000000
B1206065543918N01343067EA0103501096000040000000
B1206085543963N01343066EA0103001093000040000000
B1206105544008N01343064EA0102701091000040000000
B1206125544052N01343060EA0102401089000040000000
B1206145544096N01343058EA0102301088000040000000
B1206165544140N01343055EA0102201089000040000000
B1206185544183N01343053EA0102301091000036000000
B1206205544226N01343049EA0102401093000036000000
B1206225544266N01343045EA0102701094000036000000
B1206245544308N01343041EA0102801095000036000000
B1206265544348N01343037EA0102801093000036000000
B1206285544390N01343033EA0102801093000036000000
B1206305544430N01343029EA0102701091000036000000
B1206325544470N01343025EA0102401089000036000000
B1206345544512N01343020EA0102301087000036000000
B1206365544552N01343016EA0102101084000036000000
B1206385544594N01343012EA0101901081000036000000
B1206405544634N01343008EA0101401076000036000000
B1206425544676N01343006EA0101001073000036000000
B1206445544717N01343004EA0100701070000036000000
B1206465544759N01343002EA0100401068000036000000
B1206485544799N01343001EA0100201064000036000000
B1206505544841N01342999EA0099901061000036000000
B1206525544882N01342998EA0099401057000036000000
B1206545544924N01342995EA0099001053000036000000
B1206565544966N01342994EA0098701050000040000000
B1206585545007N01342994EA0098501050000040000000
B1207005545048N01342993EA0098401049000040000000
B1207025545089N01342991EA0098201046000040000000
B1207045545129N01342989EA0098001044000040000000
B1207065545171N01342988EA0097701042000040000000
B1207085545211N01342986EA0097601041000036000000
B1207105545252N01342984EA0097501041000036000000
B1207125545292N01342982EA0097501040000036000000
B1207145545331N01342980EA0097301039000036000000
B1207165545371N01342976EA0097201038000036000000
B1207185545410N01342972EA0097101036000036000000
B1207205545449N01342971EA0097101039000036000000
B1207225545488N01342969EA0097101037000036000000
B1207245545526N01342967EA0096901032000036000000
B1207265545566N01342964EA0096101020000040000000
B1207285545609N01342960EA0095101012000040000000
B1207305545652N01342956EA0094701007000040000000
B1207325545695N01342954EA0094201003000040000000
B1207345545738N01342950EA0093801000000040000000
B1207365545781N01342947EA0093400998000040000000
B1207385545824N01342945EA0093200995000040000000
B1207405545865N01342941EA0092900992000040000000
B1207425545907N01342937EA0092600990000040000000
B1207445545950N01342934EA0092500987000040000000
B1207465545991N01342932EA0092300992000040000000
B1207485546032N01342929EA0092600997000040000000
B1207505546071N01342924EA0093401014000036000000
B1207525546103N01342919EA0095101037000036000000
B1207545546133N01342915EA0097101047000036000000
B1207565546163N01342911EA0098101053000032000000
B1207585546190N01342904EA0098801060000028000000
B1208005546218N01342899EA0099401063000028000000
B1208025546245N01342891EA0099701063000028000000
B1208045546270N01342865EA0099701063000024000000
B1208065546280N01342821EA0099801069000024000000
B1208085546275N01342773EA0100401076000024000000
B1208105546257N01342734EA0101001077000024000000
B1208125546228N01342711EA0101201079000024000000
B1208145546194N01342708EA0101401083000024000000
B1208165546162N01342726EA0101601086000024000000
B1208185546133N01342763EA0101901088000024000000
B1208205546108N01342807EA0102201092000024000000
B1208225546090N01342859EA0102401093000024000000
B1208245546077N01342917EA0102701099000024000000
B1208265546075N01342977EA0103301106000024000000
B1208285546085N01343030EA0104001112000024000000
B1208305546107N01343066EA0104501116000024000000
B1208325546134N01343075EA0104801117000020000000
B1208345546160N01343054EA0105101120000020000000
B1208365546175N01343010EA0105401124000020000000
B1208385546173N01342960EA0105701126000020000000
B1208405546153N01342920EA0105901127000024000000
B1208425546121N01342904EA0106101130000024000000
B1208445546089N01342919EA0106301132000024000000
B1208465546064N01342960EA0106601135000020000000
B1208485546054N01343016EA0106801140000020000000
B1208505546056N01343075EA0107301146000020000000
B1208525546068N01343127EA0107801150000020000000
B1208545546089N01343167EA0108201152000020000000
B1208565546117N01343184EA0108401154000020000000
B1208585546145N01343167EA0108701160000020000000
B1209005546160N01343127EA0109501166000020000000
B1209025546162N01343077EA0109801169000020000000
B1209045546145N01343034EA0110201171000020000000
B1209065546116N01343011EA0110301169000020000000
B1209085546082N01343017EA0110201168000020000000
B1209105546054N01343051EA0110201173000020000000
B1209125546036N01343102EA0110701177000020000000
B1209145546029N01343159EA0111201181000020000000
B1209165546034N01343215EA0111501184000020000000
B1209185546049N01343263EA0111701187000020000000
B1209205546072N01343297EA0111901188000020000000
B1209225546101N01343314EA0112101191000020000000
B1209245546129N01343314EA0112301193000020000000
B1209265546155N01343302EA0112401195000020000000
B1209285546181N01343284EA0112501194000020000000
B1209305546207N01343263EA0112301190000020000000
B1209325546234N01343241EA0112201187000020000000
B1209345546262N01343219EA0111901186000020000000
B1209365546290N01343196EA0111801181000024000000
B1209385546320N01343171EA0111201167000024000000
B1209405546355N01343145EA0109901152000028000000
B1209425546393N01343123EA0108401141000028000000
B1209445546433N01343105EA0107401134000032000000
B1209465546476N01343092EA0106701130000036000000
B1209485546519N01343082EA0106201128000036000000
B1209505546561N01343077EA0106001125000036000000
B1209525546602N01343073EA0105801122000036000000
B1209545546645N01343073EA0105401119000036000000
B1209565546688N01343075EA0105001115000036000000
B1209585546730N01343079EA0104701110000036000000
B1210005546773N01343081EA0104201106000040000000
B1210025546814N01343084EA0103801101000044000000
B1210045546856N01343089EA0103501101000044000000
B1210065546897N01343094EA0103401102000044000000
B1210085546939N01343101EA0103301101000040000000
B1210105546979N01343106EA0103201101000040000000
B1210125547018N01343111EA0103201101000040000000
B1210145547057N01343115EA0103201100000044000000
B1210165547096N01343120EA0103101099000048000000
B1210185547134N01343124EA0102801097000044000000
B1210205547173N01343129EA0102601091000044000000
B1210225547212N01343136EA0102101084000040000000
B1210245547252N01343141EA0101401078000040000000
B1210265547293N01343146EA0100901075000044000000
B1210285547334N01343150EA0100601072000040000000
B1210305547376N01343155EA0100401069000040000000
B1210325547417N01343158EA0100101066000040000000
B1210345547459N01343159EA0099901065000040000000
B1210365547501N01343162EA0099701062000040000000
B1210385547544N01343163EA0099501061000040000000
B1210405547585N01343164EA0099401061000036000000
B1210425547628N01343166EA0099401061000036000000
B1210445547670N01343164EA0099401059000036000000
B1210465547711N01343163EA0099201056000036000000
B1210485547754N01343160EA0099001050000036000000
B1210505547797N01343159EA0098501045000036000000
B1210525547841N01343158EA0098001045000036000000
B1210545547883N01343157EA0097901049000036000000
B1210565547923N01343154EA0098201050000036000000
B1210585547963N01343151EA0098401049000036000000
B1211005548004N01343147EA0098301047000036000000
B1211025548043N01343144EA0098201045000036000000
B1211045548083N01343140EA0098001043000036000000
B1211065548122N01343134EA0097801041000032000000
B1211085548162N01343128EA0097501037000032000000
B1211105548201N01343121EA0097201033000032000000
B1211125548242N01343114EA0096801030000032000000
B1211145548282N01343106EA0096301027000032000000
B1211165548322N01343098EA0096101025000032000000
B1211185548363N01343090EA0096001023000032000000
B1211205548402N01343081EA0095801022000032000000
B1211225548442N01343071EA0095701021000032000000
B1211245548481N01343062EA0095501019000032000000
B1211265548520N01343051EA0095401016000032000000
B1211285548558N01343041EA0095201013000032000000
B1211305548597N01343030EA0095001009000028000000
B1211325548637N01343021EA0094601007000032000000
B1211345548676N01343014EA0094401007000032000000
B1211365548714N01343004EA0094401008000032000000
B1211385548753N01342997EA0094401007000032000000
B1211405548790N01342989EA0094301004000028000000
B1211425548829N01342981EA0093800997000032000000
B1211445548868N01342973EA0093300991000032000000
B1211465548909N01342965EA0092800988000032000000
B1211485548949N01342958EA0092600982000036000000
B1211505548989N01342949EA0091900980000036000000
B1211525549031N01342939EA0091600978000036000000
B1211545549070N01342929EA0091400974000036000000
B1211565549110N01342920EA0091100975000036000000
B1211585549149N01342913EA0091000974000036000000
B1212005549187N01342907EA0091100973000036000000
B1212025549226N01342902EA0090800968000036000000
B1212045549265N01342897EA0090300961000036000000
B1212065549305N01342890EA0089700957000036000000
B1212085549345N01342886EA0089200950000036000000
B1212105549388N01342878EA0088800952000040000000
B1212125549423N01342874EA0089700986000040000000
B1212145549452N01342871EA0092501008000036000000
B1212165549479N01342873EA0094401009000036000000
B1212185549507N01342895EA0094601005000036000000
B1212205549533N01342930EA0094200995000032000000
B1212225549562N01342962EA0093100981000032000000
B1212245549599N01342972EA0091600971000032000000
B1212265549637N01342963EA0090600966000032000000
B1212285549672N01342945EA0090200965000032000000
B1212305549707N01342924EA0089900962000032000000
B1212325549742N01342904EA0089800955000032000000
B1212345549777N01342884EA0089300950000032000000
B1212365549813N01342861EA0088800950000032000000
B1212385549848N01342839EA0088700950000032000000
B1212405549885N01342817EA0088800952000032000000
B1212425549920N01342795EA0088900955000032000000
B1212445549956N01342772EA0089100955000036000000
B1212465549993N01342751EA0089300958000036000000
B1212485550028N01342733EA0089400962000036000000
B1212505550062N01342715EA0089800967000032000000
B1212525550095N01342698EA0090300968000032000000
B1212545550129N01342683EA0090500967000032000000
B1212565550164N01342670EA0090500970000028000000
B1212585550199N01342659EA0091200984000028000000
B1213005550232N01342664EA0092500997000036000000
B1213025550257N01342699EA0094001009000040000000
B1213045550267N01342754EA0094901015000040000000
B1213065550261N01342808EA0095301015000040000000
B1213085550238N01342852EA0095301013000036000000
B1213105550209N01342872EA0095001012000036000000
B1213125550179N01342861EA0095201018000036000000
B1213145550159N01342829EA0095901028000032000000
B1213165550151N01342787EA0096701036000028000000
B1213185550154N01342746EA0097401041000028000000
B1213205550163N01342705EA0097501041000028000000
B1213225550181N01342672EA0097701043000028000000
B1213245550206N01342648EA0098001052000024000000
B1213265550232N01342638EA0098701062000024000000
B1213285550259N01342648EA0099701068000024000000
B1213305550283N01342686EA0100401072000024000000
B1213325550292N01342743EA0100701075000024000000
B1213345550285N01342800EA0101101080000024000000
B1213365550263N01342846EA0101501084000024000000
B1213385550235N01342865EA0101901090000020000000
B1213405550206N01342855EA0102501095000020000000
B1213425550188N01342821EA0102901098000020000000
B1213445550184N01342776EA0103301101000020000000
B1213465550194N01342731EA0103701104000020000000
B1213485550215N01342698EA0103901111000020000000
B1213505550240N01342678EA0104901122000020000000
B1213525550270N01342679EA0105701127000024000000
B1213545550296N01342709EA0106301132000024000000
B1213565550311N01342761EA0106601137000024000000
B1213585550311N01342821EA0107001140000024000000
B1214005550297N01342874EA0107301139000024000000
B1214025550270N01342906EA0107301139000024000000
B1214045550238N01342907EA0107401145000024000000
B1214065550214N01342884EA0107901153000024000000
B1214085550198N01342846EA0108601157000020000000
B1214105550196N01342800EA0108901157000020000000
B1214125550205N01342755EA0108901157000020000000
B1214145550225N01342720EA0109001163000020000000
B1214165550253N01342699EA0109601175000020000000
B1214185550281N01342694EA0110901187000020000000
B1214205550309N01342707EA0112001191000024000000
B1214225550332N01342750EA0112401190000024000000
B1214245550337N01342812EA0112301190000024000000
B1214265550324N01342871EA0112301194000024000000
B1214285550297N01342906EA0112501195000024000000
B1214305550266N01342911EA0112601193000020000000
B1214325550240N01342886EA0112301188000020000000
B1214345550224N01342838EA0112201192000020000000
B1214365550222N01342786EA0112801202000020000000
B1214385550229N01342738EA0113601210000020000000
B1214405550244N01342698EA0114101220000020000000
B1214425550267N01342673EA0115301222000020000000
B1214445550297N01342676EA0115601224000020000000
B1214465550323N01342712EA0115601224000020000000
B1214485550333N01342772EA0115701226000020000000
B1214505550324N01342833EA0115801228000020000000
B1214525550298N01342876EA0116101235000020000000
B1214545550267N01342889EA0116601241000020000000
B1214565550238N01342873EA0117201247000020000000
B1214585550220N01342835EA0117901253000020000000
B1215005550212N01342790EA0118501259000020000000
B1215025550218N01342744EA0119201266000020000000
B1215045550233N01342707EA0119701268000020000000
B1215065550258N01342682EA0120001268000020000000
B1215085550288N01342670EA0119901266000020000000
B1215105550320N01342664EA0119501259000020000000
B1215125550357N01342660EA0118801253000024000000
B1215145550394N01342655EA0118301249000028000000
B1215165550435N01342648EA0117801242000032000000
B1215185550478N01342642EA0117001233000032000000
B1215205550522N01342635EA0116001224000036000000
B1215225550567N01342631EA0115401222000036000000
B1215245550613N01342631EA0115201220000040000000
B1215265550658N01342634EA0115101219000040000000
B1215285550704N01342638EA0114901217000040000000
B1215305550748N01342646EA0114901217000044000000
B1215325550792N01342655EA0114901218000044000000
B1215345550835N01342668EA0114901219000044000000
B1215365550878N01342679EA0115301218000040000000
B1215385550921N01342691EA0115201216000040000000
B1215405550964N01342707EA0114801214000040000000
B1215425551007N01342724EA0114701212000040000000
B1215445551048N01342742EA0114501209000040000000
B1215465551091N01342760EA0114201205000040000000
B1215485551134N01342777EA0113801199000036000000
B1215505551177N01342793EA0113201193000036000000
B1215525551221N01342811EA0112601186000036000000
B1215545551265N01342830EA0112001182000036000000
B1215565551311N01342850EA0111701179000036000000
B1215585551355N01342868EA0111501178000036000000
B1216005551399N01342887EA0111201175000036000000
B1216025551445N01342907EA0110801169000036000000
B1216045551489N01342928EA0110501163000036000000
B1216065551533N01342946EA0109901158000036000000
B1216085551579N01342964EA0109301153000036000000
B1216105551624N01342982EA0108701147000036000000
B1216125551668N01342999EA0108201141000040000000
B1216145551714N01343016EA0107701136000040000000
B1216165551759N01343033EA0107101130000040000000
B1216185551805N01343050EA0106601129000044000000
B1216205551848N01343067EA0106501129000044000000
B1216225551892N01343082EA0106301120000044000000
B1216245551936N01343101EA0105501107000044000000
B1216265551982N01343118EA0104401097000044000000
B1216285552029N01343134EA0103501092000044000000
B1216305552075N01343150EA0102801084000044000000
B1216325552122N01343164EA0102101078000044000000
B1216345552170N01343179EA0101601075000044000000
B1216365552217N01343194EA0101301072000048000000
B1216385552264N01343211EA0101001070000048000000
B1216405552311N01343225EA0100801068000048000000
B1216425552356N01343241EA0100801071000044000000
B1216445552400N01343257EA0100901073000044000000
B1216465552445N01343271EA0101201071000044000000
B1216485552490N01343281EA0101001067000044000000
B1216505552536N01343293EA0100501064000044000000
B1216525552581N01343306EA0100401064000044000000
B1216545552625N01343322EA0100401062000044000000
B1216565552672N01343339EA0100301059000044000000
B1216585552718N01343357EA0099901059000044000000
B1217005552762N01343376EA0100101063000044000000
B1217025552805N01343396EA0100101054000044000000
B1217045552850N01343417EA0099201042000044000000
B1217065552898N01343437EA0098101034000044000000
B1217085552946N01343462EA0097201029000048000000
B1217105552994N01343487EA0096801029000048000000
B1217125553041N01343513EA0097001034000048000000
B1217145553085N01343537EA0097201037000048000000
B1217165553130N01343562EA0097601036000048000000
B1217185553175N01343587EA0097501032000044000000
B1217205553219N01343613EA0097201025000044000000
B1217225553265N01343640EA0096401014000044000000
B1217245553310N01343674EA0095501013000044000000
B1217265553355N01343708EA0095301015000044000000
B1217285553399N01343740EA0095401020000048000000
B1217305553438N01343766EA0096201041000048000000
B1217325553473N01343788EA0098001062000044000000
B1217345553503N01343805EA0100101082000044000000
B1217365553530N01343818EA0102001096000036000000
B1217385553555N01343829EA0103401105000032000000
B1217405553579N01343840EA0104401108000028000000
B1217425553604N01343868EA0104701107000028000000
B1217445553618N01343918EA0104601107000028000000
B1217465553613N01343978EA0104801113000032000000
B1217485553590N01344020EA0105401124000032000000
B1217505553561N01344037EA0106401135000028000000
B1217525553531N01344029EA0107301142000028000000
B1217545553507N01343998EA0108101150000024000000
B1217565553494N01343950EA0108901159000024000000
B1217585553494N01343899EA0109801166000024000000
B1218005553508N01343856EA0110701175000020000000
B1218025553531N01343834EA0111501184000020000000
B1218045553557N01343834EA0111801190000020000000
B1218065553582N01343856EA0112401196000020000000
B1218085553600N01343898EA0112901200000020000000
B1218105553605N01343952EA0113501207000020000000
B1218125553598N01344008EA0114101214000020000000
B1218145553578N01344050EA0114901224000020000000
B1218165553551N01344073EA0115701231000020000000
B1218185553520N01344072EA0116301235000020000000
B1218205553492N01344042EA0116901242000020000000
B1218225553479N01343994EA0117801255000020000000
B1218245553479N01343943EA0118901266000020000000
B1218265553490N01343898EA0119801268000020000000
B1218285553513N01343868EA0120301275000020000000
B1218305553540N01343864EA0120901284000020000000
B1218325553566N01343886EA0121701292000020000000
B1218345553585N01343929EA0122501298000020000000
B1218365553590N01343983EA0123301304000020000000
B1218385553578N01344037EA0123901310000024000000
B1218405553553N01344072EA0124201319000024000000
B1218425553524N01344077EA0124901327000024000000
B1218445553496N01344057EA0125801337000020000000
B1218465553478N01344017EA0126801347000020000000
B1218485553472N01343970EA0127601352000020000000
B1218505553475N01343921EA0128001350000020000000
B1218525553491N01343874EA0128001344000020000000
B1218545553514N01343830EA0127601343000024000000
B1218565553540N01343788EA0127501345000024000000
B1218585553568N01343749EA0127601346000024000000
B1219005553596N01343712EA0127601341000024000000
B1219025553628N01343671EA0126801323000028000000
B1219045553661N01343622EA0125101308000032000000
B1219065553695N01343563EA0123801298000032000000
B1219085553728N01343500EA0123001300000036000000
B1219105553756N01343435EA0123301311000040000000
B1219125553781N01343371EA0124501321000040000000
B1219145553804N01343311EA0125401327000044000000
B1219165553826N01343253EA0126001335000040000000
B1219185553847N01343197EA0126601337000040000000
B1219205553869N01343144EA0126701337000040000000
B1219225553890N01343089EA0126601333000036000000
B1219245553911N01343033EA0126501326000036000000
B1219265553933N01342975EA0125301317000036000000
B1219285553958N01342917EA0124901310000036000000
B1219305553982N01342859EA0124301307000036000000
B1219325554006N01342798EA0123801304000036000000
B1219345554031N01342737EA0123501295000036000000
B1219365554057N01342676EA0122801288000036000000
B1219385554085N01342614EA0122001288000040000000
B1219405554115N01342555EA0122101297000040000000
B1219425554141N01342503EA0123201320000040000000
B1219445554162N01342460EA0125301341000036000000
B1219465554183N01342418EA0126901338000032000000
B1219485554205N01342374EA0126901327000032000000
B1219505554228N01342326EA0125801316000032000000
B1219525554253N01342273EA0124701301000036000000
B1219545554279N01342214EA0123101283000036000000
B1219565554307N01342149EA0121401271000040000000
B1219585554337N01342085EA0120401266000040000000
B1220005554369N01342024EA0120301283000040000000
B1220025554395N01341971EA0122001308000040000000
B1220045554418N01341923EA0124201322000036000000
B1220065554439N01341879EA0125801336000032000000
B1220085554460N01341838EA0126801338000032000000
B1220105554482N01341798EA0127101339000028000000
B1220125554505N01341760EA0127301345000028000000
B1220145554528N01341724EA0127801350000024000000
B1220165554552N01341689EA0128101351000024000000
B1220185554577N01341652EA0128201345000024000000
B1220205554604N01341613EA0127301330000028000000
B1220225554635N01341572EA0126601313000028000000
B1220245554668N01341525EA0124201303000032000000
B1220265554703N01341477EA0123701301000032000000
B1220285554738N01341431EA0123301302000036000000
B1220305554772N01341385EA0123301300000036000000
B1220325554807N01341340EA0123201298000036000000
B1220345554842N01341296EA0123001298000036000000
B1220365554878N01341256EA0122901302000036000000
B1220385554913N01341216EA0123101300000036000000
B1220405554950N01341173EA0123101298000036000000
B1220425554986N01341129EA0122801295000036000000
B1220445555022N01341086EA0122501292000040000000
B1220465555060N01341043EA0122301293000040000000
B1220485555097N01341001EA0122201289000040000000
B1220505555133N01340958EA0121701281000036000000
B1220525555169N01340917EA0120901275000036000000
B1220545555207N01340874EA0120401270000036000000
B1220565555243N01340831EA0120001268000036000000
B1220585555280N01340791EA0119901272000036000000
B1221005555314N01340752EA0120001269000036000000
B1221025555349N01340710EA0119901261000036000000
B1221045555384N01340667EA0119201255000036000000
B1221065555420N01340623EA0118401252000036000000
B1221085555454N01340579EA0118301251000036000000
B1221105555489N01340534EA0118101249000036000000
B1221125555523N01340490EA0118001251000036000000
B1221145555555N01340449EA0118201260000036000000
B1221165555584N01340408EA0119001267000036000000
B1221185555613N01340368EA0119501267000032000000
B1221205555640N01340325EA0119601263000032000000
B1221225555667N01340280EA0119301258000032000000
B1221245555693N01340229EA0118801255000028000000
B1221265555717N01340172EA0118601256000032000000
B1221285555735N01340112EA0118701257000032000000
B1221305555750N01340050EA0118801256000032000000
B1221325555762N01339987EA0119101268000032000000
B1221345555771N01339934EA0120401284000032000000
B1221365555780N01339883EA0121601288000028000000
B1221385555792N01339836EA0121901286000028000000
B1221405555804N01339788EA0121501280000028000000
B1221425555815N01339738EA0121201279000028000000
B1221445555828N01339686EA0121201280000028000000
B1221465555841N01339635EA0121101280000028000000
B1221485555857N01339584EA0121201279000028000000
B1221505555873N01339533EA0121101281000028000000
B1221525555890N01339491EA0121501297000028000000
B1221545555908N01339454EA0122701299000024000000
B1221565555935N01339435EA0123101292000024000000
B1221585555966N01339426EA0122601279000024000000
B1222005556001N01339411EA0121301269000024000000
B1222025556036N01339396EA0120501279000024000000
B1222045556068N01339381EA0121001287000024000000
B1222065556098N01339366EA0121701280000028000000
B1222085556131N01339349EA0121101266000028000000
B1222105556168N01339329EA0119601251000028000000
B1222125556207N01339309EA0118101235000028000000
B1222145556248N01339286EA0116501221000032000000
B1222165556293N01339263EA0115301213000036000000
B1222185556337N01339241EA0114701215000040000000
B1222205556380N01339218EA0114701218000040000000
B1222225556420N01339194EA0114901215000040000000
B1222245556460N01339169EA0114601209000040000000
B1222265556502N01339145EA0114101206000040000000
B1222285556543N01339120EA0113801206000040000000
B1222305556584N01339097EA0113901209000040000000
B1222325556623N01339073EA0114401216000036000000
B1222345556660N01339050EA0114701213000036000000
B1222365556699N01339028EA0114501206000036000000
B1222385556740N01339003EA0113601201000036000000
B1222405556781N01338980EA0113401201000036000000
B1222425556822N01338956EA0113401202000036000000
B1222445556862N01338934EA0113401201000036000000
B1222465556902N01338913EA0113401200000036000000
B1222485556943N01338891EA0113201197000036000000
B1222505556983N01338872EA0113101196000036000000
B1222525557024N01338852EA0113001198000036000000
B1222545557063N01338833EA0113101201000036000000
B1222565557102N01338816EA0113201201000036000000
B1222585557141N01338798EA0113201199000036000000
B1223005557180N01338781EA0113101196000032000000
B1223025557219N01338763EA0112701192000032000000
B1223045557258N01338744EA0112401187000036000000
B1223065557299N01338725EA0111901182000036000000
B1223085557339N01338707EA0111501179000036000000
B1223105557379N01338687EA0111101176000036000000
B1223125557418N01338668EA0110801172000036000000
B1223145557459N01338648EA0110501169000036000000
B1223165557499N01338630EA0110101168000036000000
B1223185557539N01338612EA0110001167000036000000
B1223205557580N01338594EA0109901164000036000000
B1223225557620N01338574EA0109701160000036000000
B1223245557660N01338555EA0109301156000036000000
B1223265557702N01338535EA0109101154000036000000
B1223285557742N01338514EA0108801154000036000000
B1223305557784N01338495EA0108701153000036000000
B1223325557824N01338474EA0108701151000036000000
B1223345557864N01338454EA0108701150000036000000
B1223365557905N01338434EA0108501150000036000000
B1223385557945N01338415EA0108401149000036000000
B1223405557985N01338396EA0108401149000036000000
B1223425558025N01338378EA0108301148000036000000
B1223445558066N01338360EA0108201146000036000000
B1223465558106N01338341EA0107901142000036000000
B1223485558146N01338323EA0107601141000036000000
B1223505558187N01338305EA0107501140000036000000
B1223525558227N01338287EA0107401139000036000000
B1223545558267N01338269EA0107301138000036000000
B1223565558306N01338250EA0107201137000036000000
B1223585558347N01338233EA0107201135000036000000
B1224005558387N01338215EA0106901131000036000000
B1224025558428N01338196EA0106401128000036000000
B1224045558469N01338178EA0106101125000036000000
B1224065558510N01338161EA0105801121000036000000
B1224085558553N01338144EA0105501118000036000000
B1224105558595N01338127EA0105201116000036000000
B1224125558638N01338110EA0105001114000036000000
B1224145558679N01338094EA0104901114000040000000
B1224165558721N01338077EA0104901115000044000000
B1224185558763N01338061EA0105001116000044000000
B1224205558803N01338045EA0105201117000040000000
B1224225558842N01338029EA0105201117000040000000
B1224245558882N01338012EA0105201115000040000000
B1224265558921N01337997EA0104901113000040000000
B1224285558961N01337981EA0104801112000040000000
B1224305559002N01337966EA0104601111000040000000
B1224325559041N01337951EA0104501110000040000000
B1224345559080N01337936EA0104401108000040000000
B1224365559120N01337921EA0104301106000044000000
B1224385559159N01337908EA0103901105000044000000
B1224405559198N01337897EA0103901103000040000000
B1224425559238N01337884EA0103701100000040000000
B1224445559279N01337872EA0103401097000040000000
B1224465559320N01337860EA0103201095000036000000
B1224485559361N01337849EA0103001095000036000000
B1224505559401N01337837EA0103101094000036000000
B1224525559440N01337825EA0102901092000036000000
B1224545559480N01337814EA0102701091000036000000
B1224565559520N01337801EA0102601090000036000000
B1224585559559N01337788EA0102501089000036000000
B1225005559597N01337773EA0102401087000036000000
B1225025559636N01337759EA0102101083000036000000
B1225045559675N01337742EA0101801079000032000000
B1225065559714N01337726EA0101401075000032000000
B1225085559753N01337710EA0101001071000032000000
B1225105559793N01337693EA0100601068000032000000
B1225125559834N01337676EA0100201065000036000000
B1225145559873N01337660EA0100001063000036000000
B1225165559913N01337645EA0099901062000036000000
B1225185559953N01337629EA0099801061000036000000
B1225205559992N01337616EA0099501058000036000000
B1225225600033N01337602EA0099101054000036000000
B1225245600072N01337587EA0098801050000036000000
B1225265600112N01337573EA0098501048000036000000
B1225285600151N01337560EA0098301045000036000000
B1225305600191N01337546EA0098001042000036000000
B1225325600229N01337531EA0097601040000036000000
B1225345600268N01337518EA0097401037000036000000
B1225365600307N01337504EA0097101031000036000000
B1225385600347N01337490EA0096501024000036000000
B1225405600388N01337477EA0095901018000036000000
B1225425600429N01337463EA0095401015000036000000
B1225445600471N01337448EA0095101013000036000000
B1225465600514N01337434EA0094801012000036000000
B1225485600555N01337421EA0094701015000040000000
B1225505600596N01337408EA0095001017000040000000
B1225525600635N01337394EA0095401025000040000000
B1225545600674N01337378EA0096001033000040000000
B1225565600711N01337364EA0096601036000040000000
B1225585600750N01337351EA0096901040000036000000
B1226005600787N01337339EA0097501052000036000000
B1226025600823N01337326EA0098401058000032000000
B1226045600857N01337314EA0099101065000032000000
B1226065600891N01337303EA0099801070000032000000
B1226085600923N01337292EA0100301075000032000000
B1226105600954N01337282EA0100701076000028000000
B1226125600987N01337271EA0100801076000028000000
B1226145601018N01337262EA0100801077000028000000
B1226165601049N01337252EA0100901078000028000000
B1226185601078N01337227EA0101001073000028000000
B1226205601096N01337180EA0100701072000028000000
B1226225601103N01337126EA0100601073000028000000
B1226245601103N01337070EA0100601073000028000000
B1226265601096N01337015EA0100701073000028000000
B1226285601087N01336959EA0100701074000028000000
B1226305601079N01336904EA0100701074000024000000
B1226325601074N01336849EA0101001081000024000000
B1226345601069N01336798EA0101501085000024000000
B1226365601065N01336749EA0101701084000020000000
B1226385601062N01336699EA0101801084000020000000
B1226405601061N01336647EA0101701083000020000000
B1226425601066N01336597EA0101701082000020000000
B1226445601079N01336549EA0101601082000020000000
B1226465601100N01336511EA0101501083000020000000
B1226485601126N01336488EA0101601082000020000000
B1226505601156N01336482EA0101601080000020000000
B1226525601187N01336489EA0101401074000020000000
B1226545601221N01336504EA0100601068000020000000
B1226565601253N01336528EA0100001063000024000000
B1226585601285N01336559EA0099501059000024000000
B1227005601316N01336592EA0099101057000024000000
B1227025601347N01336624EA0098801052000024000000
B1227045601378N01336658EA0098001039000028000000
B1227065601412N01336696EA0096901027000028000000
B1227085601448N01336735EA0095701018000032000000
B1227105601486N01336775EA0095001016000032000000
B1227125601522N01336816EA0094701013000032000000
B1227145601559N01336859EA0094501013000036000000
B1227165601595N01336901EA0094601016000036000000
B1227185601630N01336943EA0094701017000040000000
B1227205601664N01336984EA0094701015000044000000
B1227225601699N01337026EA0094601010000044000000
B1227245601736N01337066EA0094201005000040000000
B1227265601771N01337108EA0093701002000040000000
B1227285601807N01337149EA0093301002000040000000
B1227305601842N01337191EA0093301000000036000000
B1227325601879N01337232EA0093000998000036000000
B1227345601916N01337271EA0092700996000036000000
B1227365601954N01337310EA0092500994000036000000
B1227385601992N01337347EA0092300993000036000000
B1227405602029N01337383EA0092200991000036000000
B1227425602068N01337418EA0092000989000036000000
B1227445602107N01337452EA0091700986000036000000
B1227465602146N01337483EA0091600987000036000000
B1227485602185N01337512EA0091400987000036000000
B1227505602224N01337539EA0091500987000036000000
B1227525602262N01337565EA0091400986000036000000
B1227545602300N01337590EA0091400985000036000000
B1227565602339N01337615EA0091300982000036000000
B1227585602377N01337638EA0091000979000036000000
B1228005602416N01337663EA0090900977000032000000
B1228025602453N01337686EA0090600975000032000000
B1228045602491N01337711EA0090400971000032000000
B1228065602530N01337734EA0090100969000032000000
B1228085602569N01337758EA0089900967000032000000
B1228105602608N01337781EA0089600963000028000000
B1228125602647N01337804EA0089300961000028000000
B1228145602686N01337827EA0089100957000028000000
B1228165602726N01337849EA0088700953000028000000
B1228185602767N01337872EA0088300949000028000000
B1228205602807N01337894EA0088300947000080000000
B1228225602847N01337915EA0087900946000136000000
B1228245602887N01337934EA0087800941000176000000
B1228265602929N01337955EA0087500938000144000000
B1228285602971N01337979EA0087000936000132000000
B1228305603011N01338001EA0086800935000108000000
B1228325603051N01338023EA0086800936000100000000
B1228345603090N01338045EA0086800936000076000000
B1228365603129N01338068EA0086800933000072000000
B1228385603168N01338092EA0086500927000064000000
B1228405603209N01338116EA0086000922000060000000
B1228425603250N01338141EA0085500918000052000000
B1228445603290N01338165EA0085100917000052000000
B1228465603331N01338189EA0084800915000048000000
B1228485603371N01338213EA0084600914000044000000
B1228505603411N01338236EA0084600913000044000000
B1228525603450N01338259EA0084400911000040000000
B1228545603491N01338282EA0084300910000040000000
B1228565603530N01338305EA0084200909000040000000
B1228585603569N01338330EA0084100907000036000000
B1229005603608N01338353EA0083900904000036000000
B1229025603647N01338375EA0083500901000036000000
B1229045603686N01338396EA0083300899000036000000
B1229065603725N01338417EA0083000895000036000000
B1229085603764N01338436EA0082800892000036000000
B1229105603801N01338456EA0082500890000036000000
B1229125603840N01338477EA0082300888000036000000
B1229145603879N01338496EA0082200887000036000000
B1229165603917N01338516EA0082000887000036000000
B1229185603955N01338535EA0081900883000036000000
B1229205603992N01338556EA0081700877000036000000
B1229225604031N01338577EA0081000867000036000000
B1229245604072N01338599EA0080000859000036000000
B1229265604112N01338623EA0079400858000036000000
B1229285604150N01338649EA0079200858000036000000
B1229305604189N01338674EA0079200860000036000000
B1229325604223N01338696EA0079800876000036000000
B1229345604255N01338716EA0080900882000036000000
B1229365604286N01338734EA0081600888000032000000
B1229385604317N01338755EA0082400898000032000000
B1229405604346N01338777EA0083300905000032000000
B1229425604368N01338817EA0084000910000032000000
B1229445604375N01338876EA0084600914000036000000
B1229465604364N01338933EA0085100920000036000000
B1229485604340N01338971EA0085500922000032000000
B1229505604308N01338985EA0085600922000032000000
B1229525604278N01338971EA0085700923000028000000
B1229545604258N01338935EA0085700925000028000000
B1229565604250N01338889EA0086000928000024000000
B1229585604256N01338844EA0086400935000024000000
B1230005604272N01338809EA0087000943000024000000
B1230025604290N01338781EA0087800951000020000000
B1230045604312N01338763EA0088400952000020000000
B1230065604338N01338766EA0088700954000024000000
B1230085604363N01338804EA0088900958000020000000
B1230105604372N01338861EA0089500968000020000000
B1230125604364N01338919EA0090300977000020000000
B1230145604343N01338960EA0091200982000020000000
B1230165604315N01338976EA0091700984000020000000
B1230185604286N01338960EA0091700983000020000000
B1230205604268N01338920EA0091700982000020000000
B1230225604265N01338870EA0091800985000020000000
B1230245604280N01338829EA0092300996000020000000
B1230265604301N01338805EA0093301008000020000000
B1230285604325N01338794EA0093901016000020000000
B1230305604351N01338804EA0094901020000020000000
B1230325604371N01338846EA0095601023000028000000
B1230345604375N01338906EA0095801026000028000000
B1230365604359N01338959EA0096001030000024000000
B1230385604332N01338991EA0096401037000024000000
B1230405604301N01338991EA0097001042000024000000
B1230425604276N01338961EA0097501043000024000000
B1230445604267N01338915EA0097601045000024000000
B1230465604276N01338868EA0098001051000024000000
B1230485604294N01338834EA0098601062000020000000
B1230505604319N01338815EA0099601069000020000000
B1230525604346N01338825EA0100301073000020000000
B1230545604366N01338867EA0100801078000024000000
B1230565604368N01338926EA0101201080000024000000
B1230585604351N01338981EA0101501084000024000000
B1231005604323N01339012EA0101901090000024000000
B1231025604289N01339012EA0102401095000024000000
B1231045604263N01338982EA0102901099000020000000
B1231065604251N01338934EA0103301105000020000000
B1231085604258N01338886EA0104101114000020000000
B1231105604277N01338854EA0105001123000020000000
B1231125604302N01338841EA0105501133000020000000
B1231145604327N01338848EA0106501137000020000000
B1231165604350N01338885EA0107101139000024000000
B1231185604356N01338943EA0107201142000028000000
B1231205604345N01339000EA0107601151000028000000
B1231225604319N01339039EA0108301160000024000000
B1231245604288N01339051EA0109201167000024000000
B1231265604260N01339037EA0109901172000024000000
B1231285604241N01339002EA0110401173000024000000
B1231305604233N01338955EA0110601174000024000000
B1231325604239N01338908EA0110701182000024000000
B1231345604255N01338873EA0111501193000024000000
B1231365604275N01338848EA0112401198000020000000
B1231385604299N01338838EA0113001200000020000000
B1231405604325N01338844EA0113301202000020000000
B1231425604353N01338867EA0113601207000020000000
B1231445604375N01338904EA0113901208000020000000
B1231465604384N01338961EA0114001211000020000000
B1231485604376N01339020EA0114401217000024000000
B1231505604353N01339063EA0114901225000024000000
B1231525604321N01339082EA0115601230000020000000
B1231545604290N01339075EA0115801229000020000000
B1231565604264N01339042EA0115901228000020000000
B1231585604251N01338994EA0116001232000020000000
B1232005604252N01338942EA0116301240000020000000
B1232025604267N01338899EA0117001252000020000000
B1232045604286N01338869EA0118101258000020000000
B1232065604311N01338852EA0118701253000020000000
B1232085604342N01338848EA0118301246000020000000
B1232105604375N01338847EA0117701242000024000000
B1232125604410N01338846EA0117401244000024000000
B1232145604444N01338850EA0117401246000024000000
B1232165604477N01338857EA0117501245000024000000
B1232185604512N01338869EA0117301233000024000000
B1232205604551N01338878EA0116301221000028000000
B1232225604594N01338883EA0115001213000028000000
B1232245604636N01338880EA0114401208000032000000
B1232265604679N01338872EA0114001208000032000000
B1232285604720N01338859EA0114001208000032000000
B1232305604762N01338848EA0113901205000032000000
B1232325604802N01338838EA0113601199000036000000
B1232345604845N01338829EA0113001194000036000000
B1232365604887N01338821EA0112601192000036000000
B1232385604928N01338813EA0112301191000036000000
B1232405604970N01338805EA0112301190000036000000
B1232425605010N01338799EA0112201188000036000000
B1232445605052N01338792EA0111901184000036000000
B1232465605094N01338787EA0111501179000036000000
B1232485605135N01338781EA0111101175000036000000
B1232505605177N01338773EA0110701173000036000000
B1232525605218N01338766EA0110501172000036000000
B1232545605260N01338760EA0110401172000036000000
B1232565605302N01338755EA0110401170000036000000
B1232585605342N01338750EA0110201167000036000000
B1233005605382N01338742EA0110101174000036000000
B1233025605420N01338738EA0110701180000036000000
B1233045605456N01338733EA0110901175000032000000
B1233065605494N01338726EA0110401163000032000000
B1233085605534N01338720EA0109501157000036000000
B1233105605575N01338712EA0108901154000040000000
B1233125605615N01338701EA0108801156000036000000
B1233145605656N01338691EA0108701150000036000000
B1233165605698N01338682EA0107901137000036000000
B1233185605744N01338672EA0107301126000040000000
B1233205605792N01338661EA0105901121000044000000
B1233225605838N01338651EA0105801124000044000000
B1233245605885N01338643EA0105901129000044000000
B1233265605929N01338635EA0106301134000044000000
B1233285605972N01338627EA0106601137000044000000
B1233305606014N01338621EA0107001142000044000000
B1233325606054N01338616EA0107301142000040000000
B1233345606095N01338610EA0107401135000040000000
B1233365606136N01338604EA0106801128000040000000
B1233385606179N01338604EA0106101122000040000000
B1233405606222N01338609EA0105501117000040000000
B1233425606265N01338620EA0105001114000036000000
B1233445606306N01338633EA0104801112000036000000
B1233465606349N01338646EA0104501110000036000000
B1233485606392N01338660EA0104301105000036000000
B1233505606434N01338669EA0103801101000036000000
B1233525606477N01338670EA0103501100000036000000
B1233545606520N01338666EA0103301098000040000000
B1233565606561N01338659EA0103201098000040000000
B1233585606603N01338648EA0103101096000036000000
B1234005606644N01338635EA0102901095000036000000
B1234025606685N01338621EA0102901093000036000000
B1234045606725N01338605EA0102801092000036000000
B1234065606765N01338592EA0102501088000036000000
B1234085606806N01338582EA0102301086000036000000
B1234105606847N01338569EA0102101083000036000000
B1234125606888N01338556EA0101801082000036000000
B1234145606928N01338542EA0101501081000036000000
B1234165606968N01338525EA0101401079000036000000
B1234185607008N01338506EA0101201075000036000000
B1234205607049N01338491EA0100801071000036000000
B1234225607090N01338482EA0100401065000036000000
B1234245607133N01338478EA0099801061000036000000
B1234265607176N01338478EA0099301056000036000000
B1234285607220N01338483EA0098901053000036000000
B1234305607265N01338491EA0098701050000036000000
B1234325607307N01338500EA0098301049000036000000
B1234345607352N01338509EA0098201048000036000000
B1234365607395N01338519EA0098201047000036000000
B1234385607437N01338529EA0098101045000036000000
B1234405607480N01338535EA0097801043000036000000
B1234425607523N01338542EA0097601040000036000000
B1234445607567N01338547EA0097301038000036000000
B1234465607610N01338552EA0097201037000036000000
B1234485607653N01338556EA0097101036000032000000
B1234505607695N01338561EA0097001034000036000000
B1234525607738N01338566EA0096701031000036000000
B1234545607779N01338570EA0096501029000036000000
B1234565607822N01338574EA0096201026000036000000
B1234585607864N01338579EA0096001023000036000000
B1235005607905N01338586EA0095801021000036000000
B1235025607948N01338594EA0095501019000032000000
B1235045607990N01338603EA0095301016000032000000
B1235065608033N01338614EA0095001014000032000000
B1235085608074N01338629EA0094901012000032000000
B1235105608117N01338646EA0094601009000032000000
B1235125608159N01338664EA0094301005000032000000
B1235145608202N01338686EA0094001003000036000000
B1235165608245N01338708EA0093801003000036000000
B1235185608286N01338731EA0093701003000036000000
B1235205608328N01338755EA0093701004000036000000
B1235225608368N01338778EA0093801005000036000000
B1235245608407N01338802EA0093901007000036000000
B1235265608446N01338825EA0094001008000032000000
B1235285608485N01338848EA0093901006000032000000
B1235305608524N01338873EA0093801003000032000000
B1235325608565N01338898EA0093501000000032000000
B1235345608605N01338922EA0093200997000028000000
B1235365608645N01338948EA0092900994000028000000
B1235385608685N01338974EA0092600992000032000000
B1235405608726N01339000EA0092500992000032000000
B1235425608765N01339026EA0092500993000032000000
B1235445608805N01339051EA0092500994000032000000
B1235465608844N01339075EA0092500993000032000000
B1235485608882N01339098EA0092500991000032000000
B1235505608922N01339119EA0092100988000032000000
B1235525608961N01339140EA0092000984000032000000
B1235545609001N01339160EA0091700982000032000000
B1235565609042N01339181EA0091500980000036000000
B1235585609081N01339202EA0091400979000032000000
B1236005609121N01339224EA0091200977000032000000
B1236025609161N01339246EA0090900975000032000000
B1236045609200N01339268EA0090700972000032000000
B1236065609241N01339292EA0090400968000032000000
B1236085609280N01339315EA0090100966000032000000
B1236105609320N01339340EA0089800962000036000000
B1236125609360N01339363EA0089500960000032000000
B1236145609400N01339385EA0089100958000032000000
B1236165609441N01339409EA0089000956000028000000
B1236185609481N01339431EA0088800955000032000000
B1236205609520N01339453EA0088700954000032000000
B1236225609560N01339475EA0088700951000032000000
B1236245609601N01339496EA0088400950000032000000
B1236265609641N01339517EA0088300948000032000000
B1236285609680N01339539EA0088000947000032000000
B1236305609719N01339561EA0087900947000032000000
B1236325609758N01339584EA0087900946000032000000
B1236345609797N01339606EA0087900944000028000000
B1236365609836N01339630EA0087700942000028000000
B1236385609875N01339652EA0087400940000028000000
B1236405609914N01339674EA0087300938000028000000
B1236425609953N01339695EA0087000935000028000000
B1236445609992N01339715EA0086800933000028000000
B1236465610031N01339736EA0086500930000028000000
B1236485610070N01339758EA0086300927000028000000
B1236505610109N01339780EA0086100924000028000000
B1236525610148N01339803EA0085700921000028000000
B1236545610187N01339825EA0085400918000028000000
B1236565610226N01339847EA0085100915000028000000
B1236585610265N01339869EA0084700912000032000000
B1237005610304N01339892EA0084500911000032000000
B1237025610343N01339914EA0084300911000032000000
B1237045610381N01339938EA0084300911000032000000
B1237065610420N01339961EA0084200909000032000000
B1237085610457N01339983EA0084200908000032000000
B1237105610494N01340007EA0084000906000028000000
B1237125610531N01340030EA0083800903000028000000
B1237145610569N01340053EA0083600901000028000000
B1237165610606N01340076EA0083300898000028000000
B1237185610643N01340099EA0083100894000028000000
B1237205610681N01340122EA0082700890000028000000
B1237225610720N01340144EA0082300886000028000000
B1237245610758N01340168EA0082000883000028000000
B1237265610797N01340190EA0081700881000028000000
B1237285610836N01340211EA0081400878000028000000
B1237305610875N01340232EA0081000875000028000000
B1237325610914N01340254EA0080700871000028000000
B1237345610953N01340274EA0080400868000028000000
B1237365610992N01340295EA0080100866000028000000
B1237385611031N01340317EA0080000863000028000000
B1237405611068N01340338EA0079700860000032000000
B1237425611107N01340359EA0079300857000032000000
B1237445611146N01340380EA0079000853000032000000
B1237465611185N01340401EA0078700849000032000000
B1237485611224N01340421EA0078200846000032000000
B1237505611263N01340442EA0077900842000032000000
B1237525611302N01340464EA0077600838000032000000
B1237545611341N01340485EA0077300836000032000000
B1237565611380N01340508EA0076900833000032000000
B1237585611418N01340531EA0076700830000032000000
B1238005611457N01340553EA0076500827000032000000
B1238025611496N01340573EA0076200825000032000000
B1238045611535N01340596EA0076000823000032000000
B1238065611574N01340616EA0075700821000032000000
B1238085611613N01340638EA0075500818000032000000
B1238105611651N01340659EA0075200815000032000000
B1238125611690N01340683EA0075000813000032000000
B1238145611729N01340706EA0074700811000036000000
B1238165611766N01340728EA0074500809000036000000
B1238185611805N01340750EA0074300804000036000000
B1238205611843N01340772EA0073900798000036000000
B1238225611883N01340794EA0073400797000036000000
B1238245611922N01340818EA0073000794000036000000
B1238265611961N01340841EA0072800790000036000000
B1238285612000N01340865EA0072500783000036000000
B1238305612042N01340891EA0071700772000036000000
B1238325612084N01340917EA0070800763000036000000
B1238345612128N01340945EA0070000756000040000000
B1238365612172N01340975EA0069300754000040000000
B1238385612215N01341005EA0069000756000044000000
B1238405612257N01341036EA0069300760000044000000
B1238425612296N01341067EA0069600767000044000000
B1238445612333N01341097EA0070200774000040000000
B1238465612367N01341125EA0071100789000040000000
B1238485612398N01341149EA0072300802000036000000
B1238505612426N01341174EA0073700813000036000000
B1238525612452N01341196EA0074900823000032000000
B1238545612480N01341209EA0075800827000032000000
B1238565612507N01341204EA0076200828000028000000
B1238585612526N01341173EA0076600832000024000000
B1239005612531N01341129EA0076900834000024000000
B1239025612522N01341083EA0077000831000020000000
B1239045612497N01341051EA0076700826000020000000
B1239065612465N01341044EA0076300823000020000000
B1239085612432N01341069EA0076100820000020000000
B1239105612411N01341119EA0075800818000020000000
B1239125612406N01341181EA0075600815000020000000
B1239145612411N01341239EA0075500815000024000000
B1239165612416N01341299EA0075500819000024000000
B1239185612422N01341359EA0076200831000024000000
B1239205612429N01341415EA0077200841000024000000
B1239225612444N01341463EA0077900841000024000000
B1239245612468N01341486EA0077900840000024000000
B1239265612493N01341474EA0077600835000024000000
B1239285612505N01341431EA0077000826000032000000
B1239305612496N01341382EA0076800831000032000000
B1239325612474N01341347EA0077600845000032000000
B1239345612448N01341324EA0078200856000028000000
B1239365612418N01341311EA0079600858000028000000
B1239385612387N01341322EA0079600854000032000000
B1239405612362N01341365EA0079500854000036000000
B1239425612357N01341428EA0079400856000036000000
B1239445612370N01341481EA0079600863000032000000
B1239465612392N01341516EA0080200869000028000000
B1239485612419N01341528EA0080700870000028000000
B1239505612444N01341513EA0080800871000024000000
B1239525612459N01341477EA0080900872000024000000
B1239545612459N01341429EA0081300880000024000000
B1239565612444N01341387EA0081900886000028000000
B1239585612415N01341364EA0082500889000028000000
B1240005612381N01341368EA0082700892000024000000
B1240025612351N01341402EA0083100894000028000000
B1240045612335N01341456EA0083500902000024000000
B1240065612333N01341515EA0084100911000024000000
B1240085612348N01341561EA0084900917000024000000
B1240105612370N01341589EA0085500918000024000000
B1240125612397N01341591EA0085600918000024000000
B1240145612419N01341567EA0085600920000024000000
B1240165612428N01341524EA0086000925000024000000
B1240185612419N01341480EA0086400931000024000000
B1240205612394N01341450EA0087000933000028000000
B1240225612362N01341446EA0087200936000024000000
B1240245612331N01341472EA0087300938000024000000
B1240265612306N01341521EA0087600940000028000000
B1240285612297N01341581EA0088200948000028000000
B1240305612301N01341638EA0088500957000024000000
B1240325612316N01341681EA0089200959000024000000
B1240345612341N01341702EA0089400957000024000000
B1240365612368N01341694EA0089400954000024000000
B1240385612387N01341658EA0089200957000028000000
B1240405612387N01341608EA0089500967000024000000
B1240425612374N01341565EA0090200973000024000000
B1240445612348N01341542EA0091000979000024000000
B1240465612316N01341545EA0091600985000024000000
B1240485612286N01341573EA0092000987000024000000
B1240505612267N01341623EA0092400992000024000000
B1240525612264N01341678EA0092800995000020000000
B1240545612277N01341727EA0093100996000024000000
B1240565612302N01341753EA0093200996000024000000
B1240585612329N01341749EA0093200995000024000000
B1241005612351N01341717EA0093200997000024000000
B1241025612358N01341668EA0093501004000024000000
B1241045612346N01341621EA0094101008000024000000
B1241065612319N01341598EA0094701011000028000000
B1241085612285N01341612EA0095001013000028000000
B1241105612262N01341660EA0095301017000028000000
B1241125612257N01341719EA0095601023000028000000
B1241145612267N01341771EA0096101027000028000000
B1241165612288N01341805EA0096401026000024000000
B1241185612315N01341821EA0096501027000024000000
B1241205612342N01341831EA0096701032000024000000
B1241225612370N01341841EA0096901035000024000000
B1241245612397N01341855EA0097101035000024000000
B1241265612426N01341873EA0097101034000020000000
B1241285612454N01341896EA0097001031000020000000
B1241305612484N01341922EA0096701031000020000000
B1241325612511N01341951EA0096701039000020000000
B1241345612536N01341981EA0097301048000020000000
B1241365612559N01342010EA0098101051000020000000
B1241385612584N01342040EA0098401053000020000000
B1241405612610N01342068EA0098701057000020000000
B1241425612635N01342093EA0099001059000020000000
B1241445612661N01342114EA0099301060000020000000
B1241465612689N01342128EA0099501062000020000000
B1241485612717N01342130EA0099901070000020000000
B1241505612743N01342122EA0100501077000020000000
B1241525612767N01342106EA0101201079000020000000
B1241545612788N01342076EA0101501079000020000000
B1241565612800N01342033EA0101501078000020000000
B1241585612800N01341984EA0101401080000020000000
B1242005612784N01341941EA0101701084000020000000
B1242025612757N01341920EA0102001087000020000000
B1242045612726N01341924EA0102201087000020000000
B1242065612697N01341950EA0102301087000020000000
B1242085612676N01341994EA0102301088000020000000
B1242105612665N01342048EA0102501094000020000000
B1242125612660N01342102EA0103001104000020000000
B1242145612660N01342154EA0103801108000020000000
B1242165612666N01342206EA0104201108000020000000
B1242185612676N01342257EA0104301108000020000000
B1242205612693N01342304EA0104201107000016000000
B1242225612718N01342339EA0104201108000020000000
B1242245612748N01342358EA0104401114000020000000
B1242265612777N01342371EA0105001119000016000000
B1242285612806N01342377EA0105301120000020000000
B1242305612836N01342374EA0105501122000020000000
B1242325612866N01342369EA0105901126000020000000
B1242345612895N01342362EA0106101128000020000000
B1242365612925N01342352EA0106201127000020000000
B1242385612955N01342339EA0105701114000020000000
B1242405612990N01342323EA0104201095000024000000
B1242425613030N01342301EA0102701085000028000000
B1242445613070N01342279EA0102201085000028000000
B1242465613111N01342254EA0101901084000032000000
B1242485613151N01342230EA0101801082000032000000
B1242505613190N01342206EA0101601080000032000000
B1242525613229N01342182EA0101501079000036000000
B1242545613268N01342157EA0101401078000036000000
B1242565613307N01342133EA0101301076000036000000
B1242585613346N01342109EA0101101073000036000000
B1243005613384N01342081EA0100701070000036000000
B1243025613423N01342055EA0100301068000036000000
B1243045613460N01342029EA0100101065000036000000
B1243065613499N01342003EA0099801061000036000000
B1243085613538N01341976EA0099401055000036000000
B1243105613579N01341951EA0098801051000036000000
B1243125613619N01341925EA0098501049000036000000
B1243145613659N01341901EA0098401050000036000000
B1243165613698N01341875EA0098401050000036000000
B1243185613739N01341851EA0098401048000036000000
B1243205613778N01341828EA0098301046000036000000
B1243225613817N01341805EA0098001043000036000000
B1243245613856N01341782EA0097701040000036000000
B1243265613895N01341759EA0097401038000036000000
B1243285613932N01341737EA0097201038000036000000
B1243305613970N01341712EA0097201036000036000000
B1243325614008N01341690EA0097001033000036000000
B1243345614045N01341668EA0096701034000036000000
B1243365614080N01341646EA0096801037000036000000
B1243385614117N01341626EA0097101037000036000000
B1243405614152N01341607EA0097001033000036000000
B1243425614187N01341585EA0096501023000036000000
B1243445614225N01341563EA0095601014000036000000
B1243465614264N01341539EA0095100999000036000000
B1243485614307N01341516EA0093100990000040000000
B1243505614351N01341493EA0092700989000040000000
B1243525614394N01341469EA0092600994000044000000
B1243545614433N01341448EA0092901010000044000000
B1243565614468N01341430EA0094101022000040000000
B1243585614503N01341413EA0095401025000036000000
B1244005614537N01341396EA0095801020000036000000
B1244025614573N01341378EA0095601012000036000000
B1244045614612N01341356EA0094701005000036000000
B1244065614651N01341331EA0094001003000036000000
B1244085614690N01341304EA0093901010000036000000
B1244105614724N01341279EA0094801035000036000000
B1244125614753N01341259EA0096701053000032000000
B1244145614779N01341240EA0098601064000028000000
B1244165614807N01341233EA0099801068000028000000
B1244185614834N01341253EA0100401073000028000000
B1244205614851N01341299EA0100901079000028000000
B1244225614851N01341356EA0101501083000028000000
B1244245614833N01341407EA0101801084000028000000
B1244265614803N01341435EA0101901085000024000000
B1244285614772N01341431EA0102101087000024000000
B1244305614749N01341398EA0102401090000024000000
B1244325614741N01341348EA0102701096000020000000
B1244345614743N01341299EA0103401104000020000000
B1244365614753N01341255EA0104001108000020000000
B1244385614771N01341218EA0104301110000020000000
B1244405614797N01341203EA0104601113000020000000
B1244425614825N01341214EA0105001119000020000000
B1244445614849N01341253EA0105401123000020000000
B1244465614857N01341309EA0105701125000020000000
B1244485614849N01341368EA0106001128000020000000
B1244505614825N01341411EA0106201133000020000000
B1244525614795N01341425EA0106701139000020000000
B1244545614767N01341417EA0107201143000020000000
B1244565614747N01341386EA0107501142000020000000
B1244585614742N01341339EA0107401139000020000000
B1245005614754N01341295EA0107301140000020000000
B1245025614777N01341265EA0107301144000020000000
B1245045614805N01341248EA0107801147000020000000
B1245065614833N01341233EA0108001149000020000000
B1245085614860N01341217EA0108201154000020000000
B1245105614888N01341204EA0108701157000020000000
B1245125614916N01341194EA0109001160000020000000
B1245145614946N01341186EA0109501167000020000000
B1245165614974N01341181EA0110201175000020000000
B1245185615002N01341179EA0110601180000020000000
B1245205615031N01341178EA0111101180000020000000
B1245225615061N01341179EA0111201184000020000000
B1245245615091N01341181EA0111701193000020000000
B1245265615119N01341184EA0112401201000020000000
B1245285615148N01341191EA0113301207000020000000
B1245305615178N01341197EA0113801207000020000000
B1245325615209N01341204EA0114101215000020000000
B1245345615239N01341212EA0114801226000020000000
B1245365615269N01341218EA0115801233000020000000
B1245385615297N01341225EA0116601243000020000000
B1245405615325N01341233EA0117601252000016000000
B1245425615351N01341239EA0118301258000016000000
B1245445615377N01341246EA0118801259000016000000
B1245465615403N01341253EA0119101261000016000000
B1245485615430N01341259EA0119301263000016000000
B1245505615457N01341260EA0119401264000016000000
B1245525615486N01341260EA0119201255000020000000
B1245545615518N01341260EA0118701237000020000000
B1245565615556N01341259EA0117001219000024000000
B1245585615599N01341256EA0114601204000032000000
B1246005615646N01341251EA0114001194000032000000
B1246025615691N01341244EA0113001191000036000000
B1246045615737N01341235EA0112501191000036000000
B1246065615782N01341225EA0112501192000040000000
B1246085615828N01341214EA0112501191000040000000
B1246105615872N01341201EA0112501190000040000000
B1246125615917N01341190EA0112401188000044000000
B1246145615962N01341177EA0112201187000044000000
B1246165616006N01341164EA0112101190000044000000
B1246185616050N01341151EA0112301190000040000000
B1246205616093N01341136EA0112301187000040000000
B1246225616136N01341122EA0111901182000040000000
B1246245616180N01341106EA0111301174000040000000
B1246265616225N01341092EA0110701169000044000000
B1246285616271N01341078EA0110201167000044000000
B1246305616315N01341065EA0110101167000044000000
B1246325616359N01341051EA0110101168000044000000
B1246345616404N01341036EA0110201169000040000000
B1246365616446N01341021EA0110201168000040000000
B1246385616488N01341004EA0110201166000040000000
B1246405616531N01340987EA0109901163000040000000
B1246425616574N01340971EA0109801160000040000000
B1246445616617N01340958EA0109501158000040000000
B1246465616661N01340945EA0109101154000040000000
B1246485616705N01340934EA0108701151000040000000
B1246505616748N01340918EA0108501150000040000000
B1246525616791N01340902EA0108501151000040000000
B1246545616833N01340883EA0108501150000040000000
B1246565616874N01340862EA0108201146000040000000
B1246585616913N01340840EA0107801143000036000000
B1247005616953N01340818EA0107501139000040000000
B1247025616994N01340796EA0107301135000040000000
B1247045617034N01340776EA0106901130000036000000
B1247065617074N01340754EA0106501123000036000000
B1247085617116N01340733EA0105801114000036000000
B1247105617159N01340710EA0104901107000036000000
B1247125617202N01340688EA0104301106000040000000
B1247145617243N01340666EA0104001106000040000000
B1247165617285N01340646EA0104001107000040000000
B1247185617327N01340629EA0104001103000036000000
B1247205617369N01340610EA0103701099000036000000
B1247225617411N01340592EA0103301097000036000000
B1247245617453N01340576EA0103001095000036000000
B1247265617496N01340562EA0102801094000036000000
B1247285617538N01340550EA0102701093000036000000
B1247305617580N01340540EA0102601090000036000000
B1247325617623N01340531EA0102401087000036000000
B1247345617667N01340521EA0102001081000040000000
B1247365617711N01340514EA0101401078000040000000
B1247385617756N01340507EA0101301077000040000000
B1247405617800N01340501EA0101201076000040000000
B1247425617843N01340495EA0101001074000040000000
B1247445617886N01340490EA0100901071000040000000
B1247465617930N01340488EA0100601069000040000000
B1247485617973N01340484EA0100201065000036000000
B1247505618017N01340477EA0099901061000036000000
B1247525618060N01340467EA0099601061000040000000
B1247545618103N01340456EA0099501060000040000000
B1247565618144N01340447EA0099501061000036000000
B1247585618185N01340437EA0099501060000036000000
B1248005618225N01340428EA0099401058000036000000
B1248025618265N01340419EA0099401059000036000000
B1248045618305N01340410EA0099301058000036000000
B1248065618346N01340403EA0099101054000036000000
B1248085618386N01340394EA0098701048000036000000
B1248105618428N01340386EA0098001041000036000000
B1248125618471N01340377EA0097401036000036000000
B1248145618513N01340369EA0097001033000036000000
B1248165618555N01340360EA0096901033000036000000
B1248185618597N01340352EA0096801030000036000000
B1248205618638N01340345EA0096601026000036000000
B1248225618680N01340337EA0096201023000036000000
B1248245618721N01340329EA0095901020000036000000
B1248265618763N01340321EA0095601014000036000000
B1248285618805N01340313EA0095101009000036000000
B1248305618848N01340307EA0094601006000036000000
B1248325618889N01340300EA0094201002000036000000
B1248345618931N01340290EA0093800999000036000000
B1248365618972N01340277EA0093500997000036000000
B1248385619013N01340261EA0093200994000036000000
B1248405619054N01340246EA0093000992000036000000
B1248425619095N01340230EA0092800990000036000000
B1248445619135N01340216EA0092500987000036000000
B1248465619176N01340202EA0092200984000036000000
B1248485619217N01340187EA0092000983000036000000
B1248505619258N01340174EA0092000984000036000000
B1248525619299N01340161EA0092000985000040000000
B1248545619339N01340148EA0092100989000040000000
B1248565619378N01340138EA0092400987000036000000
B1248585619417N01340126EA0092200981000040000000
B1249005619456N01340115EA0091700977000036000000
B1249025619496N01340102EA0091300972000040000000
B1249045619537N01340089EA0090800965000040000000
B1249065619578N01340072EA0090200959000040000000
B1249085619618N01340055EA0089700956000036000000
B1249105619660N01340038EA0089400955000036000000
B1249125619700N01340021EA0089200952000036000000
B1249145619741N01340005EA0088900948000036000000
B1249165619781N01339990EA0088500947000036000000
B1249185619821N01339974EA0088400943000036000000
B1249205619862N01339959EA0088000934000040000000
B1249225619903N01339944EA0087100927000040000000
B1249245619945N01339930EA0086500923000040000000
B1249265619988N01339917EA0086300923000044000000
B1249285620029N01339905EA0086200924000044000000
B1249305620070N01339892EA0086300931000044000000
B1249325620107N01339881EA0086900948000044000000
B1249345620142N01339870EA0088300963000044000000
B1249365620175N01339861EA0090000982000040000000
B1249385620205N01339853EA0091500992000032000000
B1249405620233N01339845EA0092600995000028000000
B1249425620262N01339836EA0093201001000028000000
B1249445620289N01339829EA0093601004000028000000
B1249465620317N01339818EA0093901008000024000000
B1249485620341N01339808EA0094301010000024000000
B1249505620363N01339787EA0094601007000024000000
B1249525620380N01339752EA0094301004000024000000
B1249545620385N01339705EA0093701002000024000000
B1249565620378N01339657EA0093701004000024000000
B1249585620357N01339618EA0093901009000020000000
B1250005620327N01339597EA0094501015000020000000
B1250025620296N01339596EA0095201020000020000000
B1250045620263N01339609EA0095801025000020000000
B1250065620233N01339628EA0096301032000020000000
B1250085620203N01339648EA0097001044000020000000
B1250105620177N01339663EA0098001055000020000000
B1250125620150N01339676EA0099001060000020000000
B1250145620123N01339691EA0099501062000020000000
B1250165620093N01339705EA0099601056000020000000
B1250185620062N01339721EA0098601036000020000000
B1250205620021N01339740EA0096801016000024000000
B1250225619976N01339761EA0095001006000028000000
B1250245619929N01339783EA0094301006000028000000
B1250265619884N01339805EA0094101003000032000000
B1250285619838N01339826EA0093901004000036000000
B1250305619793N01339844EA0094001006000036000000
B1250325619750N01339864EA0094001004000040000000
B1250345619706N01339883EA0094001000000040000000
B1250365619661N01339903EA0093500996000040000000
B1250385619618N01339923EA0093300995000040000000
B1250405619574N01339942EA0093100995000036000000
B1250425619531N01339960EA0093100995000036000000
B1250445619490N01339978EA0093100994000036000000
B1250465619448N01339998EA0093000993000036000000
B1250485619407N01340016EA0092700988000036000000
B1250505619364N01340034EA0092200980000036000000
B1250525619321N01340052EA0091500975000036000000
B1250545619277N01340073EA0091100972000036000000
B1250565619234N01340092EA0090700968000036000000
B1250585619189N01340112EA0090400965000036000000
B1251005619147N01340131EA0090100961000036000000
B1251025619102N01340148EA0089900962000036000000
B1251045619058N01340165EA0089700959000036000000
B1251065619014N01340180EA0089200951000036000000
B1251085618970N01340194EA0088700945000036000000
B1251105618924N01340206EA0088400944000040000000
B1251125618877N01340217EA0088000941000036000000
B1251145618832N01340229EA0087900940000036000000
B1251165618785N01340239EA0088000950000036000000
B1251185618744N01340246EA0088800963000036000000
B1251205618702N01340252EA0089800964000036000000
B1251225618660N01340261EA0089900951000036000000
B1251245618616N01340269EA0088800937000036000000
B1251265618569N01340280EA0087500929000036000000
B1251285618523N01340289EA0086800929000036000000
B1251305618477N01340299EA0086800931000036000000
B1251325618433N01340311EA0086900929000036000000
B1251345618387N01340323EA0086700924000036000000
B1251365618342N01340336EA0086200919000036000000
B1251385618295N01340349EA0085700915000036000000
B1251405618250N01340362EA0085400913000036000000
B1251425618203N01340375EA0085200912000036000000
B1251445618157N01340388EA0085200913000036000000
B1251465618112N01340399EA0085200913000036000000
B1251485618068N01340412EA0085200911000036000000
