ACAM3RL
HFDTE240803
HFFXA050
HFPLTPILOT:Peter Cutting           
HFGTYGLIDERTYPE:LS8-b       
HFGIDGLIDERID:SE-USP      
HFDTM100GPSDATUM:
HFRFWFIRMWAREVERSION:F2.6
HFRHWHARDWAREVERSION:300 Series Version 2
HFFTYFRTYPE:CAMBRIDGE AERO INSTRUMENTS, 302+
HFGPS:GARMIN,LVS-25,12,18000
HFPRSPRESSALTSENSOR:INTERSEMA, MS5534-AP, 20000
I033638FXA3941ENL4247REX
LCAMSBVER:5FWVER:F26300
C240803103902240803000101
C0000000N00000000WTAKEOFF     
C5535815N01340565ESovde flp   
C5604800N01342050EBronnestadka
C5535815N01340565ESovde flp   
C0000000N00000000WLANDING     
B1057555535655N01340862EA0003600040000044000000
B1057575535655N01340862EA0003600040000048000000
B1057595535655N01340862EA0003600040000048000000
B1058015535655N01340862EA0003600040000052000000
B1058035535655N01340862EA0003600040000056000000
B1058055535655N01340862EA0003700040000072000000
B1058075535655N01340862EA0003600040000080000000
B1058095535655N01340862EA0003600040000076000000
B1058115535655N01340862EA0003500040000076000000
B1058135535655N01340862EA0003500040000076000000
B1058155535655N01340862EA0003600040000068000000
B1058175535655N01340859EA0003600040000076000000
B1058195535656N01340858EA0003700040000072000000
B1058215535656N01340858EA0003500040000072000000
B1058235535659N01340853EA0003600040000164000000
B1058265535665N01340840EA0003600040000224000000
B1058285535672N01340826EA0003700040000260000000
B1058305535681N01340810EA0003700040000296000000
B1058325535690N01340789EA0003800040000320000000
B1058345535702N01340765EA0003800040000360000000
B1058365535714N01340737EA0003800040000368000000
B1058385535728N01340706EA0003800041000344000000
B1058405535745N01340675EA0003900043000308000000
B1058425535763N01340641EA0004300045000304000000
B1058445535780N01340606EA0004600051000292000000
B1058465535797N01340572EA0005100057000268000000
B1058485535814N01340541EA0005700064000260000000
B1058505535828N01340507EA0006300071000260000000
B1058525535842N01340473EA0007000078000260000000
B1058545535857N01340440EA0007700084000256000000
B1058565535870N01340403EA0008400091000260000000
B1058585535884N01340365EA0009000095000260000000
B1059005535899N01340328EA0009400099000248000000
B1059025535915N01340290EA0009700104000236000000
B1059045535932N01340250EA0010000106000236000000
B1059065535948N01340209EA0010200111000228000000
B1059085535963N01340170EA0010800121000224000000
B1059105535977N01340131EA0011800131000212000000
B1059125535990N01340092EA0012600136000204000000
B1059145536005N01340055EA0013200141000184000000
B1059165536020N01340018EA0013700147000180000000
B1059185536036N01339985EA0014300154000184000000
B1059205536052N01339952EA0014900160000180000000
B1059225536067N01339918EA0015600169000176000000
B1059245536081N01339883EA0016300173000180000000
B1059265536094N01339845EA0016800178000172000000
B1059285536109N01339810EA0017300186000156000000
B1059305536123N01339775EA0017900192000152000000
B1059325536137N01339741EA0018500201000148000000
B1059345536150N01339708EA0019300209000160000000
B1059365536165N01339676EA0020200219000168000000
B1059385536178N01339647EA0021000226000172000000
B1059405536192N01339617EA0021800234000172000000
B1059425536205N01339587EA0022400238000172000000
B1059445536218N01339554EA0022900241000176000000
B1059465536230N01339520EA0023200246000180000000
B1059485536241N01339487EA0023800253000184000000
B1059505536254N01339454EA0024300259000156000000
B1059525536267N01339420EA0024900262000140000000
B1059545536282N01339388EA0025300267000116000000
B1059565536295N01339357EA0025800277000104000000
B1059585536306N01339327EA0026800288000088000000
B1100005536318N01339296EA0027700295000076000000
B1100025536330N01339262EA0028500301000072000000
B1100045536341N01339228EA0029200307000060000000
B1100065536354N01339195EA0029900315000052000000
B1100085536367N01339163EA0030600323000048000000
B1100105536378N01339129EA0031400330000040000000
B1100125536390N01339097EA0032200337000040000000
B1100145536400N01339065EA0032800345000036000000
B1100165536412N01339034EA0033600351000032000000
B1100185536423N01339002EA0034200358000028000000
B1100205536435N01338968EA0034500363000028000000
B1100225536445N01338933EA0035200372000028000000
B1100245536457N01338899EA0035900381000028000000
B1100265536470N01338867EA0036800389000024000000
B1100285536483N01338834EA0037600395000024000000
B1100305536496N01338802EA0038300402000024000000
B1100325536508N01338768EA0038900408000020000000
B1100345536521N01338734EA0039600416000020000000
B1100365536533N01338700EA0040400423000020000000
B1100385536546N01338666EA0041200433000020000000
B1100405536559N01338633EA0041900439000020000000
B1100425536570N01338597EA0042500445000020000000
B1100445536581N01338561EA0043100451000020000000
B1100465536591N01338523EA0043700457000020000000
B1100485536601N01338484EA0044300463000020000000
B1100505536612N01338445EA0045100471000028000000
B1100525536624N01338413EA0045800480000024000000
B1100545536637N01338388EA0046600487000024000000
B1100565536652N01338373EA0047200489000020000000
B1100585536669N01338366EA0047300489000016000000
B1101005536689N01338369EA0047400492000016000000
B1101025536708N01338376EA0047500491000012000000
B1101045536728N01338387EA0047400487000012000000
B1101065536747N01338399EA0047200486000012000000
B1101085536765N01338413EA0046900483000012000000
B1101105536785N01338428EA0046700480000012000000
B1101125536804N01338448EA0046200473000012000000
B1101145536822N01338480EA0045700467000012000000
B1101165536834N01338529EA0045000462000012000000
B1101185536834N01338587EA0044700459000012000000
B1101205536828N01338648EA0044400457000012000000
B1101225536816N01338708EA0044100453000012000000
B1101245536796N01338765EA0043700448000012000000
B1101265536767N01338809EA0043200446000012000000
B1101285536734N01338837EA0043200448000016000000
B1101305536702N01338855EA0043300448000016000000
B1101325536669N01338863EA0043300445000016000000
B1101345536637N01338864EA0042900442000016000000
B1101365536603N01338861EA0043000448000016000000
B1101385536573N01338850EA0043500452000012000000
B1101405536552N01338824EA0043700450000016000000
B1101425536544N01338789EA0043600445000016000000
B1101445536549N01338755EA0043200444000012000000
B1101465536565N01338735EA0042900445000012000000
B1101485536587N01338734EA0043000444000012000000
B1101505536609N01338747EA0042900442000016000000
B1101525536630N01338769EA0042700437000016000000
B1101545536650N01338803EA0042300433000016000000
B1101565536666N01338848EA0041800427000016000000
B1101585536679N01338902EA0041200420000016000000
B1102005536686N01338964EA0040500415000016000000
B1102025536686N01339030EA0040100412000020000000
B1102045536676N01339098EA0039700402000020000000
B1102065536653N01339160EA0039200400000020000000
B1102085536625N01339211EA0039000403000016000000
B1102105536595N01339255EA0039000404000016000000
B1102125536565N01339296EA0038800398000016000000
B1102145536530N01339327EA0038300394000020000000
B1102165536494N01339351EA0037700387000016000000
B1102185536456N01339367EA0036800375000016000000
B1102205536414N01339375EA0035900368000016000000
B1102225536374N01339375EA0035700370000016000000
B1102245536336N01339372EA0035700376000016000000
B1102265536301N01339368EA0036100377000016000000
B1102285536266N01339362EA0036200379000016000000
B1102305536232N01339354EA0036400380000012000000
B1102325536198N01339340EA0036600382000012000000
B1102345536170N01339319EA0036900385000016000000
B1102365536153N01339284EA0037300389000016000000
B1102385536153N01339249EA0037500389000016000000
B1102405536166N01339227EA0037400386000016000000
B1102425536188N01339232EA0037200384000020000000
B1102445536206N01339272EA0037100384000016000000
B1102465536210N01339335EA0037100385000016000000
B1102485536196N01339396EA0037200388000016000000
B1102505536169N01339444EA0037500390000016000000
B1102525536137N01339478EA0037800392000016000000
B1102545536102N01339489EA0038000392000012000000
B1102565536076N01339471EA0038000393000012000000
B1102585536066N01339435EA0038100394000016000000
B1103005536074N01339406EA0038100393000016000000
B1103025536094N01339401EA0037900389000016000000
B1103045536115N01339426EA0037600389000016000000
B1103065536128N01339476EA0037600392000016000000
B1103085536127N01339539EA0037800392000012000000
B1103105536107N01339597EA0037900393000012000000
B1103125536078N01339639EA0038000398000012000000
B1103145536045N01339658EA0038200400000012000000
B1103165536013N01339661EA0038300401000012000000
B1103185535983N01339648EA0038400401000012000000
B1103205535963N01339622EA0038400401000012000000
B1103225535958N01339587EA0038400400000012000000
B1103245535971N01339565EA0038400397000012000000
B1103265535994N01339570EA0038200393000012000000
B1103285536015N01339608EA0037900390000012000000
B1103305536020N01339671EA0037800392000012000000
B1103325536006N01339735EA0037900396000012000000
B1103345535980N01339782EA0038200402000012000000
B1103365535950N01339810EA0038500403000012000000
B1103385535918N01339826EA0038600401000012000000
B1103405535884N01339829EA0038400397000012000000
B1103425535850N01339823EA0038100395000012000000
B1103445535816N01339814EA0037800396000016000000
B1103465535785N01339804EA0037900398000016000000
B1103485535753N01339792EA0037900397000016000000
B1103505535723N01339778EA0037800392000016000000
B1103525535691N01339758EA0037300387000016000000
B1103545535667N01339728EA0036900385000016000000
B1103565535649N01339691EA0036700384000016000000
B1103585535637N01339650EA0036600381000016000000
B1104005535630N01339608EA0036200377000020000000
B1104025535634N01339569EA0035800375000020000000
B1104045535650N01339541EA0035700374000020000000
B1104065535671N01339528EA0035600369000020000000
B1104085535695N01339532EA0035300365000024000000
B1104105535720N01339562EA0034800363000020000000
B1104125535738N01339614EA0034700362000020000000
B1104145535750N01339673EA0034700362000020000000
B1104165535762N01339732EA0034800364000020000000
B1104185535762N01339799EA0034900363000020000000
B1104205535749N01339864EA0034800361000020000000
B1104225535724N01339920EA0034500358000020000000
B1104245535694N01339968EA0034200355000020000000
B1104265535663N01340013EA0033900353000016000000
B1104285535632N01340055EA0033800352000020000000
B1104305535599N01340092EA0033800354000020000000
B1104325535564N01340124EA0033900353000016000000
B1104345535529N01340131EA0033700351000020000000
B1104365535500N01340115EA0033600350000016000000
B1104385535483N01340082EA0033400347000016000000
B1104405535482N01340044EA0033300344000016000000
B1104425535495N01340018EA0033000343000016000000
B1104445535516N01340013EA0032800341000016000000
B1104465535539N01340034EA0032600338000016000000
B1104485535559N01340077EA0032500339000016000000
B1104505535569N01340133EA0032500338000016000000
B1104525535571N01340196EA0032400337000016000000
B1104545535560N01340261EA0032300338000012000000
B1104565535542N01340321EA0032300340000016000000
B1104585535517N01340375EA0032400339000016000000
B1105005535489N01340421EA0032300340000016000000
B1105025535456N01340460EA0032400342000016000000
B1105045535424N01340493EA0032500339000016000000
B1105065535389N01340520EA0032200337000016000000
B1105085535353N01340531EA0032100337000016000000
B1105105535320N01340520EA0032200339000020000000
B1105125535291N01340495EA0032300339000020000000
B1105145535270N01340460EA0032300337000020000000
B1105165535265N01340416EA0032300339000020000000
B1105185535277N01340382EA0032400340000020000000
B1105205535300N01340384EA0032700343000020000000
B1105225535318N01340425EA0033000347000020000000
B1105245535320N01340486EA0033200349000020000000
B1105265535304N01340546EA0033300351000020000000
B1105285535281N01340597EA0033400349000020000000
B1105305535248N01340627EA0033300345000020000000
B1105325535216N01340619EA0033000345000020000000
B1105345535194N01340588EA0032900346000020000000
B1105365535187N01340547EA0033100350000020000000
B1105385535194N01340511EA0033300347000020000000
B1105405535214N01340497EA0033200347000020000000
B1105425535235N01340523EA0033300352000020000000
B1105445535244N01340576EA0033700352000020000000
B1105465535235N01340636EA0033800350000020000000
B1105485535209N01340683EA0033700349000020000000
B1105505535178N01340716EA0033500349000020000000
B1105525535145N01340741EA0033500350000020000000
B1105545535110N01340750EA0033600348000020000000
B1105565535083N01340727EA0033400350000020000000
B1105585535075N01340687EA0033400351000020000000
B1106005535087N01340654EA0033500348000020000000
B1106025535112N01340651EA0033200346000020000000
B1106045535135N01340680EA0032900344000024000000
B1106065535149N01340731EA0032900347000024000000
B1106085535158N01340789EA0033100349000024000000
B1106105535158N01340852EA0033300349000024000000
B1106125535144N01340914EA0033200348000020000000
B1106145535116N01340962EA0033300349000020000000
B1106165535080N01340982EA0033500352000020000000
B1106185535048N01340973EA0033500347000024000000
B1106205535028N01340934EA0033200345000024000000
B1106225535019N01340887EA0033100348000020000000
B1106245535025N01340844EA0033400352000024000000
B1106265535045N01340827EA0033600352000024000000
B1106285535069N01340850EA0033700351000024000000
B1106305535078N01340908EA0033700353000024000000
B1106325535064N01340970EA0033700354000024000000
B1106345535031N01341012EA0033700356000024000000
B1106365534996N01341031EA0034000363000024000000
B1106385534961N01341028EA0034600364000024000000
B1106405534934N01341000EA0034800363000024000000
B1106425534927N01340958EA0034900365000020000000
B1106445534939N01340926EA0034800363000020000000
B1106465534962N01340922EA0034700359000024000000
B1106485534984N01340953EA0034500357000024000000
B1106505534993N01341012EA0034200358000020000000
B1106525534984N01341074EA0034300359000020000000
B1106545534967N01341130EA0034500364000020000000
B1106565534945N01341179EA0034800367000020000000
B1106585534914N01341216EA0035000366000020000000
B1107005534879N01341221EA0034900366000024000000
B1107025534856N01341194EA0035000366000024000000
B1107045534852N01341156EA0035000364000024000000
B1107065534867N01341134EA0034800364000024000000
B1107085534889N01341136EA0034800363000024000000
B1107105534910N01341162EA0034700362000024000000
B1107125534922N01341210EA0034800369000024000000
B1107145534926N01341265EA0035300373000024000000
B1107165534917N01341324EA0035500371000024000000
B1107185534891N01341366EA0035400370000024000000
B1107205534857N01341369EA0035400371000028000000
B1107225534833N01341335EA0035600375000028000000
B1107245534830N01341294EA0035800376000028000000
B1107265534844N01341266EA0035900374000028000000
B1107285534865N01341273EA0036100380000028000000
B1107305534882N01341308EA0036500380000028000000
B1107325534888N01341363EA0036500379000028000000
B1107345534882N01341421EA0036500383000028000000
B1107365534866N01341476EA0036700388000028000000
B1107385534839N01341513EA0037300391000028000000
B1107405534806N01341519EA0037600395000028000000
B1107425534783N01341490EA0037900398000028000000
B1107445534778N01341451EA0038400402000028000000
B1107465534789N01341420EA0038500398000024000000
B1107485534813N01341420EA0038100393000028000000
B1107505534833N01341454EA0037900394000028000000
B1107525534840N01341508EA0037900398000028000000
B1107545534833N01341567EA0038300404000028000000
B1107565534820N01341621EA0038800402000028000000
B1107585534793N01341663EA0038700400000028000000
B1108005534758N01341665EA0038600406000028000000
B1108025534731N01341633EA0039200413000028000000
B1108045534722N01341589EA0039900415000032000000
B1108065534733N01341555EA0040200420000032000000
B1108085534758N01341554EA0040500426000028000000
B1108105534779N01341589EA0041100430000028000000
B1108125534781N01341647EA0041700438000028000000
B1108145534767N01341703EA0042300444000024000000
B1108165534737N01341736EA0042800446000024000000
B1108185534703N01341728EA0043200452000024000000
B1108205534683N01341690EA0043600454000024000000
B1108225534684N01341647EA0043900456000020000000
B1108245534703N01341626EA0044100462000020000000
B1108265534728N01341641EA0044700468000020000000
B1108285534745N01341686EA0045300474000020000000
B1108305534742N01341745EA0045900480000020000000
B1108325534720N01341792EA0046300481000020000000
B1108345534687N01341808EA0046400480000020000000
B1108365534655N01341785EA0046500486000020000000
B1108385534641N01341741EA0047000490000020000000
B1108405534645N01341698EA0047400492000020000000
B1108425534666N01341677EA0047700497000020000000
B1108445534689N01341690EA0048200502000020000000
B1108465534706N01341732EA0048600505000020000000
B1108485534711N01341789EA0049000509000020000000
B1108505534696N01341845EA0049300512000020000000
B1108525534667N01341883EA0049500512000020000000
B1108545534633N01341894EA0049800518000020000000
B1108565534601N01341880EA0050100521000020000000
B1108585534581N01341842EA0050500522000020000000
B1109005534580N01341799EA0050500524000020000000
B1109025534597N01341772EA0050700525000020000000
B1109045534622N01341782EA0050900529000020000000
B1109065534638N01341825EA0051300532000016000000
B1109085534636N01341885EA0051800538000020000000
B1109105534615N01341938EA0052000543000016000000
B1109125534583N01341967EA0052500546000020000000
B1109145534547N01341962EA0052900549000020000000
B1109165534521N01341929EA0053100550000020000000
B1109185534515N01341885EA0053300552000020000000
B1109205534525N01341851EA0053500556000020000000
B1109225534546N01341841EA0053800558000020000000
B1109245534567N01341864EA0054100563000020000000
B1109265534577N01341912EA0054600569000020000000
B1109285534575N01341968EA0055200577000020000000
B1109305534563N01342023EA0056000583000020000000
B1109325534542N01342074EA0056400583000020000000
B1109345534511N01342107EA0056500584000020000000
B1109365534476N01342113EA0056600587000020000000
B1109385534447N01342088EA0056800589000020000000
B1109405534436N01342046EA0056800584000020000000
B1109425534445N01342007EA0056500582000020000000
B1109445534466N01341992EA0056400582000020000000
B1109465534489N01342010EA0056500585000020000000
B1109485534503N01342055EA0056900591000020000000
B1109505534501N01342110EA0057500600000020000000
B1109525534484N01342161EA0058400606000020000000
B1109545534456N01342197EA0058800607000020000000
B1109565534424N01342210EA0059000606000020000000
B1109585534393N01342196EA0058900604000020000000
B1110005534376N01342158EA0058700603000020000000
B1110025534373N01342118EA0058600606000020000000
B1110045534382N01342084EA0058700608000020000000
B1110065534399N01342066EA0059000609000020000000
B1110085534423N01342072EA0059200612000020000000
B1110105534442N01342101EA0059300614000020000000
B1110125534453N01342150EA0059500619000020000000
B1110145534449N01342209EA0059800623000020000000
B1110165534429N01342261EA0060200628000016000000
B1110185534401N01342300EA0060700630000016000000
B1110205534365N01342317EA0061000632000016000000
B1110225534333N01342305EA0061100633000016000000
B1110245534311N01342271EA0061100632000020000000
B1110265534304N01342227EA0061200633000020000000
B1110285534312N01342189EA0061200631000020000000
B1110305534333N01342172EA0061200636000020000000
B1110325534356N01342182EA0061500637000020000000
B1110345534371N01342226EA0061800640000020000000
B1110365534362N01342283EA0062200645000020000000
B1110385534333N01342322EA0062700649000020000000
B1110405534298N01342327EA0063200654000020000000
B1110425534271N01342301EA0063400654000020000000
B1110445534260N01342260EA0063400653000020000000
B1110465534271N01342224EA0063400652000020000000
B1110485534293N01342214EA0063300654000020000000
B1110505534313N01342237EA0063500662000020000000
B1110525534326N01342284EA0064300670000020000000
B1110545534329N01342339EA0064900672000024000000
B1110565534316N01342397EA0065000670000020000000
B1110585534284N01342434EA0065100674000020000000
B1111005534248N01342430EA0065700682000020000000
B1111025534222N01342399EA0066300687000020000000
B1111045534215N01342356EA0066400687000020000000
B1111065534224N01342322EA0066600687000020000000
B1111085534245N01342319EA0066700691000020000000
B1111105534264N01342352EA0067000696000020000000
B1111125534274N01342400EA0067600704000020000000
B1111145534277N01342455EA0068500708000020000000
B1111165534267N01342513EA0068600707000020000000
B1111185534238N01342553EA0068600710000020000000
B1111205534202N01342566EA0068900716000020000000
B1111225534170N01342555EA0069400718000020000000
B1111245534146N01342525EA0069500714000020000000
B1111265534133N01342482EA0069400715000020000000
B1111285534137N01342440EA0069400718000020000000
B1111305534152N01342419EA0069800722000020000000
B1111325534173N01342430EA0070300728000020000000
B1111345534187N01342469EA0070800733000020000000
B1111365534190N01342525EA0071200735000020000000
B1111385534176N01342582EA0071300735000020000000
B1111405534147N01342624EA0071400740000020000000
B1111425534112N01342646EA0071900743000020000000
B1111445534078N01342646EA0072000743000016000000
B1111465534047N01342625EA0072000741000016000000
B1111485534029N01342588EA0071800738000016000000
B1111505534024N01342546EA0071600737000020000000
B1111525534035N01342516EA0071700740000020000000
B1111545534056N01342516EA0072100746000020000000
B1111565534074N01342544EA0072500752000020000000
B1111585534082N01342596EA0073100758000020000000
B1112005534072N01342653EA0073700763000020000000
B1112025534048N01342699EA0074200767000016000000
B1112045534016N01342729EA0074500770000016000000
B1112065533982N01342751EA0074500767000016000000
B1112085533947N01342768EA0074300757000016000000
B1112105533907N01342781EA0073400753000016000000
B1112125533868N01342791EA0073100761000016000000
B1112145533830N01342802EA0073600765000020000000
B1112165533792N01342816EA0074000763000016000000
B1112185533756N01342845EA0073900759000020000000
B1112205533725N01342890EA0073600758000016000000
B1112225533706N01342950EA0073400754000016000000
B1112245533708N01343012EA0072900746000020000000
B1112265533730N01343053EA0072300747000020000000
B1112285533754N01343067EA0072200750000020000000
B1112305533777N01343062EA0072600753000020000000
B1112325533795N01343041EA0073000757000020000000
B1112345533812N01343016EA0073400764000020000000
B1112365533829N01342999EA0074100769000020000000
B1112385533851N01343007EA0074400769000020000000
B1112405533868N01343049EA0074400768000020000000
B1112425533865N01343111EA0074400767000020000000
B1112445533840N01343162EA0074400770000020000000
B1112465533805N01343177EA0074900776000024000000
B1112485533777N01343159EA0075500782000020000000
B1112505533760N01343124EA0075900786000020000000
B1112525533757N01343085EA0076300789000020000000
B1112545533769N01343059EA0076700792000020000000
B1112565533788N01343054EA0076900791000020000000
B1112585533809N01343077EA0076700788000020000000
B1113005533822N01343125EA0076500787000016000000
B1113025533819N01343185EA0076500787000016000000
B1113045533800N01343241EA0076500790000016000000
B1113065533770N01343277EA0076600793000016000000
B1113085533734N01343285EA0076900795000016000000
B1113105533704N01343268EA0077100800000016000000
B1113125533680N01343237EA0077500804000016000000
B1113145533662N01343201EA0078000808000016000000
B1113165533649N01343162EA0078400811000016000000
B1113185533647N01343121EA0078700809000020000000
B1113205533657N01343092EA0078500805000020000000
B1113225533678N01343084EA0078100802000020000000
B1113245533700N01343094EA0077700797000020000000
B1113265533719N01343129EA0077300796000020000000
B1113285533728N01343183EA0077200800000020000000
B1113305533723N01343245EA0077600803000020000000
B1113325533702N01343298EA0077900806000020000000
B1113345533670N01343332EA0078200808000020000000
B1113365533634N01343345EA0078400812000016000000
B1113385533598N01343350EA0078900816000016000000
B1113405533565N01343342EA0079300820000020000000
B1113425533537N01343316EA0079500821000016000000
B1113445533523N01343276EA0079800823000016000000
B1113465533527N01343240EA0079900824000016000000
B1113485533543N01343220EA0079700820000016000000
B1113505533565N01343228EA0079500819000016000000
B1113525533582N01343266EA0079300815000016000000
B1113545533584N01343324EA0079200816000016000000
B1113565533569N01343385EA0079200815000016000000
B1113585533537N01343427EA0079100814000020000000
B1114005533498N01343445EA0079100814000020000000
B1114025533462N01343446EA0079300821000016000000
B1114045533426N01343443EA0079800826000020000000
B1114065533392N01343435EA0080100823000016000000
B1114085533355N01343424EA0079800817000016000000
B1114105533319N01343409EA0079200809000020000000
B1114125533285N01343384EA0078300798000020000000
B1114145533253N01343346EA0077200788000024000000
B1114165533229N01343298EA0076400785000024000000
B1114185533215N01343244EA0076000779000024000000
B1114205533214N01343188EA0075500773000024000000
B1114225533221N01343137EA0074900770000024000000
B1114245533236N01343092EA0074600767000024000000
B1114265533251N01343050EA0074300769000024000000
B1114285533268N01343015EA0074600771000024000000
B1114305533286N01342982EA0074600767000024000000
B1114325533307N01342951EA0074400760000024000000
B1114345533329N01342923EA0073700753000024000000
B1114365533354N01342895EA0072900746000024000000
B1114385533381N01342871EA0072300742000028000000
B1114405533409N01342846EA0071700735000028000000
B1114425533437N01342820EA0071000727000028000000
B1114445533467N01342796EA0070300724000028000000
B1114465533498N01342773EA0069800721000032000000
B1114485533528N01342751EA0069700720000032000000
B1114505533557N01342728EA0069500719000032000000
B1114525533585N01342704EA0069400715000032000000
B1114545533614N01342681EA0069100715000032000000
B1114565533643N01342657EA0069000713000032000000
B1114585533670N01342634EA0068800710000032000000
B1115005533699N01342611EA0068500708000032000000
B1115025533727N01342587EA0068300708000032000000
B1115045533754N01342565EA0068400709000032000000
B1115065533782N01342543EA0068300705000032000000
B1115085533809N01342521EA0068000701000032000000
B1115105533835N01342497EA0067600698000032000000
B1115125533861N01342474EA0067500697000032000000
B1115145533887N01342451EA0067200695000032000000
B1115165533912N01342429EA0067100692000032000000
B1115185533938N01342405EA0066900689000028000000
B1115205533964N01342380EA0066500685000028000000
B1115225533990N01342357EA0066100681000028000000
B1115245534016N01342331EA0065700675000028000000
B1115265534043N01342304EA0065200673000028000000
B1115285534069N01342279EA0065000673000028000000
B1115305534096N01342253EA0064900672000028000000
B1115325534122N01342227EA0064800672000028000000
B1115345534147N01342198EA0064600667000028000000
B1115365534173N01342171EA0064200662000028000000
B1115385534199N01342143EA0063600657000032000000
B1115405534226N01342115EA0063300656000032000000
B1115425534252N01342087EA0063200655000032000000
B1115445534277N01342061EA0063200655000032000000
B1115465534303N01342033EA0062900651000032000000
B1115485534328N01342005EA0062800645000032000000
B1115505534355N01341977EA0062000641000032000000
B1115525534381N01341949EA0061900644000032000000
B1115545534406N01341922EA0062000645000032000000
B1115565534432N01341893EA0062000639000028000000
B1115585534459N01341864EA0061700633000028000000
B1116005534488N01341836EA0061100631000032000000
B1116025534516N01341806EA0060800628000032000000
B1116045534545N01341777EA0060400623000032000000
B1116065534573N01341749EA0060100626000032000000
B1116085534599N01341723EA0060600640000032000000
B1116105534622N01341702EA0061700648000032000000
B1116125534642N01341681EA0062500652000028000000
B1116145534663N01341662EA0062800652000028000000
B1116165534683N01341641EA0062800648000028000000
B1116185534705N01341620EA0062400647000028000000
B1116205534727N01341598EA0062300644000028000000
B1116225534750N01341573EA0062100641000028000000
B1116245534774N01341548EA0061900645000028000000
B1116265534794N01341525EA0062400651000024000000
B1116285534815N01341503EA0062600651000024000000
B1116305534835N01341480EA0062800651000024000000
B1116325534856N01341455EA0062600650000024000000
B1116345534875N01341431EA0062500647000020000000
B1116365534897N01341407EA0062200640000024000000
B1116385534919N01341382EA0061800638000024000000
B1116405534941N01341357EA0061500636000024000000
B1116425534965N01341331EA0061200632000024000000
B1116445534988N01341305EA0060800629000024000000
B1116465535010N01341278EA0060500627000024000000
B1116485535034N01341252EA0060300623000028000000
B1116505535056N01341226EA0059900621000024000000
B1116525535079N01341200EA0059700622000028000000
B1116545535100N01341174EA0059600619000028000000
B1116565535123N01341147EA0059300613000028000000
B1116585535145N01341118EA0058600608000024000000
B1117005535169N01341090EA0058500606000028000000
B1117025535194N01341062EA0058100606000028000000
B1117045535216N01341035EA0058100602000028000000
B1117065535239N01341006EA0057700599000028000000
B1117085535262N01340979EA0057500598000028000000
B1117105535285N01340953EA0057400598000028000000
B1117125535307N01340927EA0057300594000028000000
B1117145535330N01340901EA0057000588000028000000
B1117165535353N01340872EA0056400584000028000000
B1117185535377N01340845EA0056000581000028000000
B1117205535400N01340817EA0055700577000028000000
B1117225535424N01340787EA0055200572000028000000
B1117245535448N01340758EA0054600564000028000000
B1117265535473N01340729EA0053900561000028000000
B1117285535499N01340703EA0053800563000028000000
B1117305535524N01340679EA0053700559000028000000
B1117325535550N01340653EA0053500556000028000000
B1117345535574N01340628EA0053200550000028000000
B1117365535602N01340601EA0052700545000028000000
B1117385535628N01340575EA0052300544000028000000
B1117405535654N01340550EA0052200551000028000000
B1117425535677N01340528EA0053000566000028000000
B1117445535698N01340510EA0054000568000028000000
B1117465535720N01340489EA0054500566000024000000
B1117485535741N01340468EA0054300560000024000000
B1117505535763N01340447EA0053500546000024000000
B1117525535789N01340423EA0052200530000024000000
B1117545535818N01340395EA0050800519000028000000
B1117565535847N01340369EA0049800518000028000000
B1117585535876N01340346EA0049500521000032000000
B1118005535902N01340323EA0049700519000028000000
B1118025535929N01340298EA0049500507000028000000
B1118045535958N01340272EA0048400501000028000000
B1118065535987N01340246EA0047600495000032000000
B1118085536015N01340220EA0047000491000032000000
B1118105536042N01340194EA0046700487000032000000
B1118125536070N01340168EA0046300481000032000000
B1118145536097N01340142EA0045800476000032000000
B1118165536123N01340116EA0045300473000032000000
B1118185536150N01340090EA0045100470000032000000
B1118205536178N01340065EA0044800470000032000000
B1118225536205N01340040EA0044800471000032000000
B1118245536231N01340017EA0044700469000032000000
B1118265536257N01339994EA0044500465000032000000
B1118285536283N01339970EA0044300468000028000000
B1118305536308N01339949EA0044500472000028000000
B1118325536331N01339931EA0044900472000028000000
B1118345536354N01339912EA0045000472000028000000
B1118365536378N01339892EA0044800467000028000000
B1118385536404N01339873EA0044400457000028000000
B1118405536431N01339849EA0043500451000028000000
B1118425536458N01339825EA0042800446000028000000
B1118445536486N01339800EA0042400444000028000000
B1118465536513N01339774EA0042300448000028000000
B1118485536539N01339749EA0042500446000028000000
B1118505536566N01339723EA0042400443000028000000
B1118525536594N01339697EA0042200447000028000000
B1118545536620N01339673EA0042400444000028000000
B1118565536647N01339649EA0042100439000028000000
B1118585536676N01339623EA0041700433000028000000
B1119005536704N01339596EA0041100431000028000000
B1119025536731N01339569EA0041100434000028000000
B1119045536759N01339543EA0041200438000028000000
B1119065536783N01339519EA0042400451000028000000
B1119085536798N01339484EA0043000462000028000000
B1119105536790N01339445EA0044100468000028000000
B1119125536768N01339416EA0044400462000028000000
B1119145536731N01339418EA0044200459000028000000
B1119165536699N01339454EA0044000462000028000000
B1119185536682N01339511EA0044200464000024000000
B1119205536687N01339567EA0044300463000024000000
B1119225536705N01339606EA0044400463000020000000
B1119245536729N01339634EA0044300464000020000000
B1119265536752N01339652EA0044400466000020000000
B1119285536776N01339665EA0044400462000020000000
B1119305536799N01339674EA0044000456000020000000
B1119325536824N01339678EA0043500452000020000000
B1119345536847N01339674EA0042900443000020000000
B1119365536872N01339662EA0042300438000020000000
B1119385536895N01339645EA0041500429000024000000
B1119405536920N01339621EA0040700422000024000000
B1119425536942N01339595EA0040500429000024000000
B1119445536964N01339567EA0040700424000024000000
B1119465536985N01339536EA0040500418000024000000
B1119485537007N01339504EA0039700416000028000000
B1119505537028N01339475EA0039800429000028000000
B1119525537047N01339450EA0040600436000028000000
B1119545537064N01339427EA0041500433000024000000
B1119565537082N01339401EA0041200426000024000000
B1119585537105N01339374EA0040400416000024000000
B1120005537128N01339344EA0039600414000024000000
B1120025537150N01339315EA0039300422000028000000
B1120045537170N01339290EA0040000431000024000000
B1120065537188N01339270EA0041000437000024000000
B1120085537205N01339249EA0041500437000020000000
B1120105537223N01339227EA0041900439000020000000
B1120125537235N01339195EA0041900438000020000000
B1120145537228N01339156EA0042000444000020000000
B1120165537206N01339128EA0042500447000020000000
B1120185537173N01339121EA0042800447000016000000
B1120205537141N01339146EA0042800450000016000000
B1120225537119N01339199EA0043200452000016000000
B1120245537115N01339262EA0043200449000016000000
B1120265537127N01339315EA0043100450000016000000
B1120285537147N01339349EA0043100453000016000000
B1120305537168N01339368EA0043500454000016000000
B1120325537190N01339376EA0043700456000016000000
B1120345537211N01339380EA0043800460000016000000
B1120365537231N01339371EA0044200464000016000000
B1120385537245N01339348EA0044500467000016000000
B1120405537245N01339314EA0044900469000020000000
B1120425537228N01339283EA0045000470000020000000
B1120445537197N01339273EA0045000470000020000000
B1120465537163N01339294EA0045000470000020000000
B1120485537138N01339341EA0045100471000016000000
B1120505537127N01339401EA0045200472000020000000
B1120525537129N01339458EA0045300470000020000000
B1120545537144N01339501EA0045200469000020000000
B1120565537166N01339524EA0045100473000020000000
B1120585537188N01339532EA0045400477000020000000
B1121005537210N01339528EA0045700479000016000000
B1121025537229N01339513EA0045900478000020000000
B1121045537241N01339481EA0045900477000016000000
B1121065537238N01339436EA0045900480000020000000
B1121085537219N01339398EA0046200483000020000000
B1121105537188N01339384EA0046500484000020000000
B1121125537154N01339409EA0046600485000016000000
B1121145537134N01339465EA0046600483000020000000
B1121165537136N01339527EA0046600484000020000000
B1121185537153N01339569EA0046600485000020000000
B1121205537173N01339578EA0046900489000020000000
B1121225537192N01339561EA0047200488000020000000
B1121245537203N01339531EA0047200490000020000000
B1121265537214N01339497EA0047200490000020000000
B1121285537216N01339458EA0047300491000020000000
B1121305537199N01339424EA0047300494000020000000
B1121325537167N01339419EA0047800498000020000000
B1121345537133N01339453EA0047900500000016000000
B1121365537116N01339513EA0048200504000020000000
B1121385537121N01339567EA0048600506000016000000
B1121405537141N01339595EA0048600502000016000000
B1121425537162N01339587EA0048100496000020000000
B1121445537171N01339556EA0048000500000020000000
B1121465537170N01339520EA0048100506000020000000
B1121485537162N01339487EA0048800511000020000000
B1121505537146N01339457EA0049400515000020000000
B1121525537120N01339439EA0049700516000020000000
B1121545537086N01339446EA0049900517000016000000
B1121565537056N01339485EA0050000519000016000000
B1121585537045N01339544EA0050200523000016000000
B1122005537051N01339597EA0050600528000020000000
B1122025537071N01339630EA0050900526000020000000
B1122045537093N01339634EA0050700525000020000000
B1122065537108N01339614EA0050800530000020000000
B1122085537108N01339580EA0051200536000020000000
B1122105537098N01339548EA0051900542000020000000
B1122125537080N01339519EA0052300545000020000000
B1122145537058N01339494EA0052500542000016000000
B1122165537030N01339476EA0052100537000016000000
B1122185536997N01339476EA0051800537000016000000
B1122205536963N01339498EA0052100544000016000000
B1122225536936N01339537EA0052300547000016000000
B1122245536919N01339593EA0052700545000016000000
B1122265536917N01339654EA0052700543000016000000
B1122285536930N01339705EA0052500547000016000000
B1122305536950N01339739EA0052600549000020000000
B1122325536973N01339752EA0053000552000016000000
B1122345536995N01339748EA0053200556000016000000
B1122365537012N01339726EA0053600559000016000000
B1122385537014N01339688EA0053800563000016000000
B1122405536993N01339657EA0054200567000020000000
B1122425536960N01339657EA0054800572000020000000
B1122445536930N01339689EA0055100573000020000000
B1122465536915N01339744EA0055300575000020000000
B1122485536919N01339799EA0055600577000020000000
B1122505536936N01339836EA0055800583000016000000
B1122525536958N01339852EA0056100582000020000000
B1122545536977N01339839EA0056300584000020000000
B1122565536984N01339803EA0056400590000020000000
B1122585536972N01339765EA0057000596000020000000
B1123005536943N01339744EA0057600601000020000000
B1123025536908N01339749EA0057900602000020000000
B1123045536877N01339786EA0058000605000020000000
B1123065536861N01339843EA0058400612000020000000
B1123085536864N01339896EA0059200618000020000000
B1123105536878N01339936EA0059700620000016000000
B1123125536899N01339951EA0059900622000016000000
B1123145536920N01339939EA0060200624000016000000
B1123165536928N01339907EA0060500629000016000000
B1123185536919N01339870EA0061000637000016000000
B1123205536895N01339845EA0061500640000016000000
B1123225536861N01339842EA0061900640000016000000
B1123245536826N01339865EA0061900641000016000000
B1123265536800N01339913EA0062200646000016000000
B1123285536789N01339970EA0062400650000016000000
B1123305536795N01340025EA0062800652000020000000
B1123325536815N01340057EA0063000652000020000000
B1123345536839N01340060EA0063100654000020000000
B1123365536859N01340040EA0063200654000020000000
B1123385536867N01340001EA0063400659000020000000
B1123405536854N01339961EA0063800669000020000000
B1123425536826N01339940EA0064700673000020000000
B1123445536791N01339955EA0065200674000020000000
B1123465536764N01340001EA0065300677000020000000
B1123485536756N01340061EA0065500683000020000000
B1123505536765N01340113EA0065900683000020000000
B1123525536789N01340138EA0066000681000020000000
B1123545536813N01340137EA0066000681000020000000
B1123565536834N01340115EA0065900683000020000000
B1123585536842N01340072EA0066100688000020000000
B1124005536830N01340029EA0066700696000020000000
B1124025536800N01340005EA0067400702000020000000
B1124045536765N01340025EA0068000707000020000000
B1124065536741N01340074EA0068400709000020000000
B1124085536733N01340137EA0068500709000020000000
B1124105536743N01340191EA0068600714000020000000
B1124125536765N01340224EA0069000716000020000000
B1124145536790N01340228EA0069400718000020000000
B1124165536808N01340204EA0069700726000020000000
B1124185536815N01340164EA0070300730000020000000
B1124205536803N01340118EA0070900738000020000000
B1124225536777N01340089EA0071700743000020000000
B1124245536742N01340081EA0071900740000020000000
B1124265536704N01340100EA0071700739000020000000
B1124285536674N01340147EA0071700745000020000000
B1124305536660N01340208EA0072000751000020000000
B1124325536661N01340269EA0072500752000020000000
B1124345536676N01340319EA0072900754000020000000
B1124365536699N01340346EA0073100756000020000000
B1124385536724N01340349EA0073200758000020000000
B1124405536744N01340328EA0073500763000020000000
B1124425536755N01340289EA0074000770000020000000
B1124445536748N01340242EA0074600776000020000000
B1124465536726N01340204EA0075300782000020000000
B1124485536691N01340191EA0075800784000020000000
B1124505536653N01340215EA0076000789000020000000
B1124525536627N01340267EA0076400792000024000000
B1124545536616N01340332EA0076700791000024000000
B1124565536624N01340391EA0076800794000020000000
B1124585536646N01340425EA0077100799000020000000
B1125005536670N01340425EA0077600802000020000000
B1125025536691N01340403EA0077900807000020000000
B1125045536704N01340368EA0078400816000020000000
B1125065536713N01340329EA0079300825000020000000
B1125085536712N01340284EA0080100827000020000000
B1125105536691N01340242EA0080400828000020000000
B1125125536656N01340230EA0080400832000020000000
B1125145536622N01340258EA0080800837000020000000
B1125165536601N01340310EA0081200842000020000000
B1125185536598N01340369EA0081500841000020000000
B1125205536609N01340421EA0081400839000020000000
B1125225536631N01340453EA0081600846000020000000
B1125245536656N01340466EA0082100852000024000000
B1125265536678N01340453EA0082700855000020000000
B1125285536685N01340414EA0083000858000020000000
B1125305536673N01340373EA0083300860000020000000
B1125325536648N01340345EA0083600862000020000000
B1125345536614N01340336EA0083800864000020000000
B1125365536579N01340349EA0083800861000020000000
B1125385536548N01340386EA0083700862000020000000
B1125405536526N01340442EA0083700869000020000000
B1125425536513N01340506EA0084100871000020000000
B1125445536512N01340571EA0084400870000020000000
B1125465536527N01340622EA0084600875000020000000
B1125485536551N01340644EA0084900881000020000000
B1125505536575N01340637EA0085400883000020000000
B1125525536587N01340603EA0085800887000020000000
B1125545536581N01340560EA0086200890000020000000
B1125565536561N01340523EA0086500893000020000000
B1125585536530N01340503EA0086800897000020000000
B1126005536495N01340510EA0087000900000020000000
B1126025536465N01340549EA0087400907000020000000
B1126045536448N01340606EA0088200912000020000000
B1126065536449N01340664EA0088800916000020000000
B1126085536464N01340711EA0088900915000020000000
B1126105536487N01340731EA0089200920000020000000
B1126125536509N01340724EA0089400921000020000000
B1126145536521N01340690EA0089700924000020000000
B1126165536518N01340648EA0089900928000020000000
B1126185536503N01340607EA0090200929000020000000
B1126205536475N01340580EA0090300932000020000000
B1126225536440N01340576EA0090600935000020000000
B1126245536406N01340597EA0090800939000016000000
B1126265536377N01340636EA0091100943000016000000
B1126285536353N01340689EA0091500945000016000000
B1126305536341N01340753EA0091800949000016000000
B1126325536345N01340814EA0092200954000016000000
B1126345536361N01340856EA0092900963000016000000
B1126365536382N01340871EA0093600964000016000000
B1126385536400N01340859EA0093700960000016000000
B1126405536413N01340826EA0093500963000016000000
B1126425536412N01340785EA0093800970000016000000
B1126445536399N01340748EA0094400976000016000000
B1126465536378N01340718EA0095000979000016000000
B1126485536352N01340697EA0095200976000016000000
B1126505536321N01340683EA0094800972000016000000
B1126525536286N01340677EA0094600973000016000000
B1126545536249N01340683EA0094700977000016000000
B1126565536213N01340696EA0095200984000016000000
B1126585536176N01340711EA0095700988000016000000
B1127005536141N01340724EA0096000991000016000000
B1127025536105N01340735EA0096300994000016000000
B1127045536070N01340745EA0096700994000016000000
B1127065536033N01340746EA0096700993000020000000
B1127085535998N01340735EA0096600994000016000000
B1127105535967N01340711EA0096600997000016000000
B1127125535944N01340676EA0096901001000012000000
B1127145535928N01340636EA0097301002000012000000
B1127165535920N01340592EA0097300999000012000000
B1127185535923N01340547EA0097000997000012000000
B1127205535936N01340512EA0096900996000016000000
B1127225535953N01340484EA0096800996000016000000
B1127245535974N01340467EA0096800996000016000000
B1127265535998N01340463EA0096900999000016000000
B1127285536022N01340469EA0097201003000016000000
B1127305536042N01340482EA0097401005000016000000
B1127325536063N01340502EA0097601005000012000000
B1127345536085N01340527EA0097601003000012000000
B1127365536107N01340554EA0097501007000016000000
B1127385536131N01340581EA0098101015000016000000
B1127405536149N01340623EA0098801021000016000000
B1127425536150N01340684EA0099501030000020000000
B1127445536131N01340740EA0099901035000020000000
B1127465536096N01340770EA0100401038000024000000
B1127485536059N01340768EA0100901044000020000000
B1127505536035N01340740EA0101401050000020000000
B1127525536028N01340701EA0102001060000020000000
B1127545536037N01340672EA0102801064000020000000
B1127565536058N01340670EA0103301068000020000000
B1127585536079N01340698EA0103801076000016000000
B1128005536087N01340753EA0104501086000016000000
B1128025536078N01340813EA0105501094000016000000
B1128045536054N01340865EA0106101094000016000000
B1128065536018N01340892EA0106101092000016000000
B1128085535980N01340883EA0106101094000016000000
B1128105535955N01340849EA0106201101000016000000
B1128125535948N01340806EA0107001110000016000000
B1128145535958N01340772EA0107801116000016000000
B1128165535979N01340765EA0108401120000016000000
B1128185536002N01340791EA0108601121000016000000
B1128205536013N01340849EA0108901129000020000000
B1128225536003N01340914EA0109901145000020000000
B1128245535980N01340967EA0111201152000020000000
B1128265535945N01340997EA0111801154000016000000
B1128285535910N01340995EA0112001157000016000000
B1128305535884N01340963EA0112501165000020000000
B1128325535876N01340926EA0113301174000020000000
B1128345535884N01340896EA0114201181000016000000
B1128365535902N01340888EA0114801184000016000000
B1128385535923N01340908EA0115101186000016000000
B1128405535937N01340956EA0115501193000012000000
B1128425535938N01341015EA0116301205000016000000
B1128445535927N01341074EA0117301210000012000000
B1128465535902N01341122EA0117801213000012000000
B1128485535867N01341143EA0117901215000016000000
B1128505535832N01341138EA0118101213000016000000
B1128525535807N01341105EA0118101216000016000000
B1128545535799N01341064EA0118301223000016000000
B1128565535808N01341034EA0119101232000016000000
B1128585535825N01341025EA0120001239000012000000
B1129005535845N01341032EA0120601245000012000000
B1129025535864N01341051EA0121201250000012000000
B1129045535881N01341086EA0121801254000016000000
B1129065535886N01341138EA0122101257000016000000
B1129085535873N01341195EA0122401257000016000000
B1129105535844N01341233EA0122501257000020000000
B1129125535808N01341234EA0122601257000024000000
B1129145535781N01341205EA0122701261000024000000
B1129165535768N01341166EA0123001267000024000000
B1129185535769N01341129EA0123601277000020000000
B1129205535782N01341104EA0124401282000020000000
B1129225535803N01341099EA0125001284000016000000
B1129245535825N01341118EA0125201286000016000000
B1129265535841N01341164EA0125401292000016000000
B1129285535840N01341222EA0126001299000016000000
B1129305535823N01341274EA0126701303000016000000
B1129325535793N01341308EA0126901302000016000000
B1129345535759N01341312EA0127101309000016000000
B1129365535730N01341291EA0127701317000016000000
B1129385535711N01341259EA0128301322000016000000
B1129405535704N01341221EA0129001326000016000000
B1129425535707N01341184EA0129501332000016000000
B1129445535719N01341156EA0129701338000016000000
B1129465535734N01341139EA0130301344000016000000
B1129485535754N01341132EA0131001348000016000000
B1129505535776N01341142EA0131401350000016000000
B1129525535799N01341164EA0131401345000016000000
B1129545535823N01341199EA0130801329000020000000
B1129565535850N01341243EA0129301310000020000000
B1129585535883N01341294EA0127601303000024000000
B1130005535914N01341350EA0126801300000024000000
B1130025535946N01341407EA0126601297000028000000
B1130045535979N01341464EA0126101289000032000000
B1130065536011N01341525EA0125501282000032000000
B1130085536042N01341589EA0124901279000032000000
B1130105536074N01341652EA0124801277000036000000
B1130125536104N01341715EA0124801285000036000000
B1130145536130N01341775EA0125701297000036000000
B1130165536156N01341834EA0126501296000036000000
B1130185536182N01341893EA0126201287000036000000
B1130205536209N01341951EA0125301274000036000000
B1130225536239N01342015EA0123701254000040000000
B1130245536273N01342081EA0122101245000044000000
B1130265536306N01342148EA0121401245000044000000
B1130285536340N01342213EA0121501247000044000000
B1130305536373N01342276EA0121601247000044000000
B1130325536404N01342338EA0121701253000044000000
B1130345536434N01342396EA0122101261000044000000
B1130365536462N01342453EA0122801259000040000000
B1130385536492N01342510EA0122801253000040000000
B1130405536522N01342566EA0122301245000044000000
B1130425536553N01342625EA0121401236000044000000
B1130445536586N01342685EA0120601230000044000000
B1130465536618N01342744EA0120001225000044000000
B1130485536652N01342804EA0119501222000044000000
B1130505536686N01342863EA0119101225000044000000
B1130525536718N01342917EA0119801231000040000000
B1130545536748N01342968EA0120601234000036000000
B1130565536778N01343017EA0120901237000036000000
B1130585536807N01343064EA0121101239000032000000
B1131005536835N01343110EA0121101236000036000000
B1131025536865N01343154EA0121001235000040000000
B1131045536894N01343197EA0120901234000040000000
B1131065536921N01343241EA0120801232000036000000
B1131085536950N01343287EA0120301221000036000000
B1131105536980N01343333EA0119101205000032000000
B1131125537014N01343384EA0117701192000032000000
B1131145537047N01343439EA0116501182000032000000
B1131165537084N01343495EA0115701177000036000000
B1131185537121N01343547EA0115401171000036000000
B1131205537159N01343596EA0114901167000032000000
B1131225537199N01343643EA0114401168000032000000
B1131245537236N01343684EA0114701184000032000000
B1131265537271N01343723EA0115601190000028000000
B1131285537303N01343761EA0116301189000028000000
B1131305537337N01343796EA0116401188000024000000
B1131325537371N01343830EA0116301188000024000000
B1131345537404N01343862EA0116201189000024000000
B1131365537437N01343891EA0116301190000024000000
B1131385537469N01343921EA0116501199000028000000
B1131405537495N01343947EA0117201210000028000000
B1131425537521N01343972EA0117901210000024000000
B1131445537545N01343996EA0117901208000028000000
B1131465537571N01344021EA0117701206000024000000
B1131485537597N01344046EA0117201200000024000000
B1131505537625N01344072EA0116701195000024000000
B1131525537653N01344096EA0116401195000020000000
B1131545537682N01344122EA0116301196000024000000
B1131565537710N01344148EA0116401197000020000000
B1131585537738N01344180EA0116501196000020000000
B1132005537766N01344212EA0116501197000020000000
B1132025537794N01344247EA0116501199000020000000
B1132045537822N01344280EA0116701206000020000000
B1132065537848N01344312EA0117601210000020000000
B1132085537874N01344345EA0117801209000020000000
B1132105537901N01344377EA0117801208000020000000
B1132125537927N01344408EA0117901216000020000000
B1132145537950N01344438EA0118501226000020000000
B1132165537972N01344467EA0119401232000016000000
B1132185537991N01344494EA0120001230000016000000
B1132205538012N01344523EA0119801224000016000000
B1132225538034N01344555EA0119201217000016000000
B1132245538059N01344589EA0118401209000016000000
B1132265538085N01344626EA0117601201000020000000
B1132285538111N01344665EA0116901198000020000000
B1132305538138N01344704EA0116601199000020000000
B1132325538164N01344741EA0116601196000020000000
B1132345538191N01344782EA0116201191000020000000
B1132365538220N01344822EA0115701185000020000000
B1132385538249N01344866EA0115501181000020000000
B1132405538278N01344909EA0114901181000024000000
B1132425538307N01344953EA0114901182000024000000
B1132445538336N01345000EA0114901189000024000000
B1132465538360N01345044EA0115801210000024000000
B1132485538382N01345083EA0117601225000024000000
B1132505538402N01345118EA0119201233000024000000
B1132525538420N01345152EA0120001239000020000000
B1132545538438N01345186EA0120601239000016000000
B1132565538458N01345222EA0120501232000016000000
B1132585538481N01345263EA0120001226000020000000
B1133005538505N01345305EA0119401222000020000000
B1133025538529N01345350EA0118701208000020000000
B1133045538559N01345394EA0117701201000020000000
B1133065538590N01345442EA0117001198000024000000
B1133085538620N01345491EA0116501195000024000000
B1133105538650N01345541EA0116401198000024000000
B1133125538678N01345589EA0116501197000028000000
B1133145538705N01345636EA0116101185000028000000
B1133165538735N01345686EA0115001170000028000000
B1133185538769N01345738EA0113501155000028000000
B1133205538804N01345792EA0112401151000032000000
B1133225538840N01345845EA0112001148000032000000
B1133245538875N01345896EA0111801146000032000000
B1133265538910N01345944EA0111801152000032000000
B1133285538944N01345991EA0112201153000036000000
B1133305538977N01346037EA0112401158000036000000
B1133325539005N01346080EA0113501177000032000000
B1133345539030N01346119EA0115001189000032000000
B1133365539056N01346157EA0115501200000028000000
B1133385539078N01346191EA0117501220000024000000
B1133405539096N01346221EA0119501238000024000000
B1133425539113N01346251EA0121001245000020000000
B1133445539125N01346295EA0121101239000020000000
B1133465539122N01346358EA0120701237000020000000
B1133485539099N01346412EA0120701241000020000000
B1133505539068N01346438EA0121001248000024000000
B1133525539036N01346436EA0121701257000024000000
B1133545539013N01346416EA0122901267000020000000
B1133565539001N01346383EA0123901275000020000000
B1133585539003N01346347EA0124201279000016000000
B1134005539016N01346319EA0124801287000016000000
B1134025539034N01346305EA0125601297000012000000
B1134045539055N01346308EA0126601307000012000000
B1134065539075N01346329EA0127401312000012000000
B1134085539090N01346369EA0128001318000012000000
B1134105539095N01346421EA0128601323000012000000
B1134125539087N01346473EA0129001323000012000000
B1134145539066N01346518EA0128901319000012000000
B1134165539036N01346548EA0128601315000012000000
B1134185539003N01346553EA0128501319000012000000
B1134205538977N01346537EA0128901328000012000000
B1134225538958N01346507EA0129701336000012000000
B1134245538948N01346473EA0130501341000016000000
B1134265538943N01346435EA0131001347000016000000
B1134285538941N01346397EA0131601357000012000000
B1134305538941N01346362EA0132601365000012000000
B1134325538943N01346329EA0133201367000012000000
B1134345538943N01346292EA0133401366000012000000
B1134365538943N01346252EA0133001357000012000000
B1134385538944N01346204EA0131701342000016000000
B1134405538945N01346147EA0130401328000020000000
B1134425538951N01346085EA0129501324000020000000
B1134445538957N01346026EA0129401327000020000000
B1134465538962N01345967EA0129901334000024000000
B1134485538966N01345911EA0130201334000024000000
B1134505538971N01345854EA0130301332000024000000
B1134525538975N01345797EA0130101330000024000000
B1134545538979N01345738EA0130001331000024000000
B1134565538980N01345681EA0130001332000028000000
B1134585538983N01345624EA0129901328000028000000
B1135005538987N01345565EA0129601323000028000000
B1135025538991N01345507EA0129201323000028000000
B1135045538995N01345450EA0129101323000028000000
B1135065538997N01345393EA0129001318000028000000
B1135085539001N01345335EA0128601311000028000000
B1135105539006N01345276EA0128001307000028000000
B1135125539012N01345217EA0127801307000028000000
B1135145539017N01345160EA0127601303000028000000
B1135165539021N01345100EA0127301298000028000000
B1135185539025N01345040EA0126901297000028000000
B1135205539030N01344982EA0126701295000028000000
B1135225539035N01344922EA0126601292000028000000
B1135245539040N01344863EA0126201290000028000000
B1135265539045N01344805EA0126101287000028000000
B1135285539052N01344745EA0125901286000028000000
B1135305539057N01344685EA0125801287000028000000
B1135325539062N01344627EA0125801288000028000000
B1135345539068N01344570EA0125901288000028000000
B1135365539074N01344511EA0125901285000028000000
B1135385539081N01344453EA0125601282000028000000
B1135405539088N01344395EA0125401281000028000000
B1135425539095N01344338EA0125401284000028000000
B1135445539100N01344284EA0125501284000028000000
B1135465539107N01344228EA0125501280000024000000
B1135485539114N01344171EA0125101275000024000000
B1135505539121N01344111EA0124601272000028000000
B1135525539127N01344052EA0124401274000028000000
B1135545539134N01343995EA0124501274000028000000
B1135565539139N01343937EA0124501272000028000000
B1135585539147N01343877EA0124301272000028000000
B1136005539153N01343818EA0124301273000028000000
B1136025539161N01343760EA0124401270000028000000
B1136045539168N01343699EA0124201267000028000000
B1136065539175N01343638EA0123901262000028000000
B1136085539183N01343575EA0123501258000028000000
B1136105539190N01343513EA0123001253000028000000
B1136125539198N01343450EA0122601250000032000000
B1136145539205N01343389EA0122301250000028000000
B1136165539213N01343329EA0122401254000028000000
B1136185539221N01343271EA0122701258000032000000
B1136205539230N01343218EA0123301265000032000000
B1136225539238N01343166EA0123701264000028000000
B1136245539247N01343111EA0123501256000028000000
B1136265539255N01343054EA0122801251000028000000
B1136285539264N01342995EA0122401251000028000000
B1136305539276N01342938EA0122401251000028000000
B1136325539286N01342882EA0122501254000032000000
B1136345539296N01342826EA0122801258000032000000
B1136365539304N01342772EA0123301264000028000000
B1136385539312N01342717EA0123901269000028000000
B1136405539320N01342665EA0124101272000028000000
B1136425539326N01342613EA0124401272000028000000
B1136445539334N01342559EA0124501272000028000000
B1136465539342N01342504EA0124501272000028000000
B1136485539352N01342449EA0124401271000024000000
B1136505539367N01342399EA0124401273000024000000
B1136525539385N01342353EA0124701279000024000000
B1136545539407N01342314EA0125301284000024000000
B1136565539429N01342279EA0125801290000024000000
B1136585539452N01342247EA0126301297000024000000
B1137005539477N01342219EA0126801300000020000000
B1137025539503N01342196EA0127301305000020000000
B1137045539529N01342175EA0127701308000020000000
B1137065539556N01342161EA0127901309000020000000
B1137085539585N01342148EA0128001309000024000000
B1137105539615N01342139EA0128101309000024000000
B1137125539645N01342135EA0127801303000024000000
B1137145539677N01342135EA0126901291000024000000
B1137165539712N01342144EA0126101288000024000000
B1137185539746N01342158EA0126101292000024000000
B1137205539777N01342170EA0126301298000024000000
B1137225539807N01342176EA0126801304000024000000
B1137245539835N01342175EA0127401309000020000000
B1137265539859N01342162EA0127701311000020000000
B1137285539880N01342141EA0128001311000020000000
B1137305539898N01342113EA0128001314000020000000
B1137325539911N01342080EA0128301319000020000000
B1137345539922N01342048EA0128801322000016000000
B1137365539928N01342014EA0129001321000016000000
B1137385539935N01341979EA0128801318000012000000
B1137405539941N01341940EA0128501314000012000000
B1137425539946N01341898EA0128301312000012000000
B1137445539950N01341855EA0128101312000016000000
B1137465539953N01341812EA0128201315000016000000
B1137485539952N01341771EA0128601324000016000000
B1137505539946N01341734EA0129301330000012000000
B1137525539937N01341699EA0129801331000012000000
B1137545539926N01341663EA0129701328000012000000
B1137565539910N01341625EA0129201320000012000000
B1137585539892N01341585EA0128801314000012000000
B1138005539868N01341546EA0128201314000012000000
B1138025539837N01341522EA0128201315000016000000
B1138045539802N01341515EA0128201314000016000000
B1138065539767N01341522EA0128201313000012000000
B1138085539731N01341542EA0128101312000016000000
B1138105539698N01341571EA0128101314000016000000
B1138125539671N01341607EA0128201317000012000000
B1138145539647N01341650EA0128401317000012000000
B1138165539628N01341698EA0128401315000012000000
B1138185539614N01341751EA0128101310000012000000
B1138205539602N01341811EA0127601303000012000000
B1138225539595N01341873EA0127101300000012000000
B1138245539593N01341936EA0126701301000012000000
B1138265539594N01341994EA0126901305000012000000
B1138285539599N01342046EA0127101309000012000000
B1138305539608N01342092EA0127501309000012000000
B1138325539620N01342132EA0127401305000012000000
B1138345539637N01342167EA0127201299000012000000
B1138365539658N01342196EA0126701295000012000000
B1138385539680N01342221EA0126201293000012000000
B1138405539702N01342239EA0126101295000012000000
B1138425539724N01342249EA0126201299000012000000
B1138445539745N01342252EA0126601302000012000000
B1138465539763N01342244EA0126801299000012000000
B1138485539779N01342224EA0126401291000012000000
B1138505539794N01342195EA0125801282000012000000
B1138525539809N01342157EA0125001276000016000000
B1138545539818N01342113EA0124501276000016000000
B1138565539818N01342065EA0124301276000016000000
B1138585539806N01342018EA0124301275000016000000
B1139005539785N01341977EA0124201274000016000000
B1139025539754N01341950EA0124101273000020000000
B1139045539718N01341944EA0123901272000020000000
B1139065539680N01341959EA0123801271000020000000
B1139085539645N01341996EA0123701267000020000000
B1139105539615N01342045EA0123501264000020000000
B1139125539590N01342106EA0123101262000020000000
B1139145539573N01342172EA0122801262000016000000
B1139165539567N01342240EA0122801263000020000000
B1139185539567N01342305EA0122901261000020000000
B1139205539571N01342370EA0122701255000020000000
B1139225539577N01342436EA0122101252000020000000
B1139245539582N01342504EA0121901252000020000000
B1139265539588N01342568EA0121901254000024000000
B1139285539594N01342631EA0122101254000024000000
B1139305539603N01342692EA0122001253000020000000
B1139325539614N01342751EA0121901253000024000000
B1139345539627N01342808EA0121801251000020000000
B1139365539641N01342864EA0121701251000020000000
B1139385539655N01342917EA0121901255000020000000
B1139405539671N01342969EA0122201255000020000000
B1139425539688N01343019EA0122101254000020000000
B1139445539705N01343066EA0122001253000020000000
B1139465539721N01343114EA0121901251000020000000
B1139485539740N01343162EA0121801249000020000000
B1139505539757N01343209EA0121601248000020000000
B1139525539775N01343257EA0121501251000020000000
B1139545539792N01343302EA0121701253000020000000
B1139565539807N01343348EA0121801251000020000000
B1139585539824N01343394EA0121701246000020000000
B1140005539840N01343446EA0121201242000020000000
B1140025539854N01343502EA0121001239000020000000
B1140045539867N01343563EA0120701237000020000000
B1140065539879N01343625EA0120501239000020000000
B1140085539890N01343686EA0120701242000020000000
B1140105539900N01343745EA0121001248000020000000
B1140125539906N01343807EA0121401254000020000000
B1140145539911N01343865EA0121901258000020000000
B1140165539915N01343925EA0122301259000020000000
B1140185539918N01343987EA0122501261000020000000
B1140205539915N01344050EA0122801265000020000000
B1140225539906N01344112EA0123201269000016000000
B1140245539883N01344164EA0123601274000020000000
B1140265539849N01344195EA0124101278000016000000
B1140285539814N01344202EA0124301283000016000000
B1140305539783N01344184EA0124801289000016000000
B1140325539760N01344148EA0125301293000016000000
B1140345539754N01344106EA0125901297000012000000
B1140365539759N01344067EA0126101298000012000000
B1140385539777N01344046EA0126301299000012000000
B1140405539802N01344048EA0126501303000012000000
B1140425539824N01344073EA0126801306000012000000
B1140445539842N01344111EA0127301311000012000000
B1140465539858N01344155EA0127601314000012000000
B1140485539870N01344206EA0128001318000012000000
B1140505539877N01344260EA0128301321000012000000
B1140525539875N01344323EA0128701323000012000000
B1140545539857N01344381EA0128901327000016000000
B1140565539825N01344416EA0129301333000016000000
B1140585539790N01344423EA0130001340000012000000
B1141005539762N01344402EA0130601345000012000000
B1141025539744N01344366EA0131001348000012000000
B1141045539740N01344324EA0131501353000012000000
B1141065539747N01344288EA0131701358000012000000
B1141085539762N01344263EA0132101364000012000000
B1141105539781N01344252EA0132701368000012000000
B1141125539803N01344258EA0133201370000012000000
B1141145539825N01344281EA0133501374000012000000
B1141165539842N01344317EA0133801379000012000000
B1141185539855N01344360EA0134301380000012000000
B1141205539866N01344411EA0134601384000012000000
B1141225539867N01344470EA0134901387000012000000
B1141245539861N01344529EA0135101392000008000000
B1141265539842N01344584EA0135801398000008000000
B1141285539815N01344627EA0136501404000012000000
B1141305539783N01344653EA0137101410000012000000
B1141325539749N01344659EA0137601415000012000000
B1141345539716N01344649EA0138201422000008000000
B1141365539689N01344626EA0138901428000008000000
B1141385539668N01344590EA0139301427000012000000
B1141405539654N01344545EA0139101423000012000000
B1141425539646N01344493EA0138401416000012000000
B1141445539643N01344433EA0137901413000016000000
B1141465539642N01344372EA0137801414000020000000
B1141485539641N01344310EA0137801414000020000000
B1141505539643N01344246EA0137801416000020000000
B1141525539649N01344185EA0137901418000024000000
B1141545539664N01344133EA0138001420000024000000
B1141565539692N01344109EA0138401423000024000000
B1141585539723N01344116EA0138501425000024000000
B1142005539751N01344148EA0138901425000024000000
B1142025539773N01344198EA0138801420000024000000
B1142045539789N01344263EA0138301411000024000000
B1142065539797N01344337EA0137501406000024000000
B1142085539798N01344418EA0137101408000024000000
B1142105539794N01344497EA0137201411000028000000
B1142125539786N01344575EA0137701414000028000000
B1142145539777N01344653EA0137801414000028000000
B1142165539764N01344731EA0137901414000028000000
B1142185539744N01344805EA0137901417000028000000
B1142205539714N01344869EA0138101422000028000000
B1142225539673N01344913EA0138601427000028000000
B1142245539629N01344927EA0139001432000028000000
B1142265539589N01344906EA0139501441000028000000
B1142285539560N01344862EA0140301448000028000000
B1142305539545N01344806EA0140801451000028000000
B1142325539539N01344745EA0140701445000028000000
B1142345539549N01344681EA0140101434000028000000
B1142365539564N01344616EA0139001422000032000000
B1142385539582N01344548EA0138101418000036000000
B1142405539598N01344483EA0138701441000036000000
B1142425539614N01344428EA0140901464000036000000
B1142445539628N01344380EA0142901477000032000000
B1142465539640N01344333EA0143901482000032000000
B1142485539653N01344288EA0144001482000028000000
B1142505539664N01344242EA0144001480000024000000
B1142525539673N01344195EA0143901475000024000000
B1142545539685N01344148EA0143601468000024000000
B1142565539698N01344099EA0142801453000024000000
B1142585539712N01344046EA0141701445000024000000
B1143005539728N01343992EA0140901440000024000000
B1143025539745N01343938EA0140301435000020000000
B1143045539760N01343883EA0139901431000020000000
B1143065539777N01343829EA0139601428000020000000
B1143085539796N01343775EA0139401425000020000000
B1143105539812N01343721EA0139101422000020000000
B1143125539828N01343666EA0138901420000020000000
B1143145539844N01343612EA0138801418000020000000
B1143165539858N01343557EA0138601417000020000000
B1143185539871N01343502EA0138401415000020000000
B1143205539883N01343446EA0138301413000020000000
B1143225539896N01343391EA0138101409000020000000
B1143245539909N01343333EA0137901404000020000000
B1143265539922N01343275EA0137401399000020000000
B1143285539936N01343216EA0137101396000020000000
B1143305539950N01343158EA0136701393000020000000
B1143325539965N01343099EA0136401390000020000000
B1143345539980N01343041EA0136101386000020000000
B1143365539994N01342982EA0135801383000020000000
B1143385540009N01342923EA0135501381000020000000
B1143405540023N01342865EA0135401378000020000000
B1143425540037N01342807EA0135001374000020000000
B1143445540052N01342748EA0134701371000020000000
B1143465540065N01342690EA0134501369000020000000
B1143485540079N01342631EA0134201365000020000000
B1143505540092N01342573EA0133801360000020000000
B1143525540105N01342513EA0133501356000020000000
B1143545540117N01342453EA0133001352000020000000
B1143565540130N01342393EA0132801349000020000000
B1143585540144N01342334EA0132501341000024000000
B1144005540160N01342273EA0131801337000024000000
B1144025540176N01342213EA0131201332000024000000
B1144045540193N01342152EA0130801329000024000000
B1144065540212N01342091EA0130501326000024000000
B1144085540228N01342029EA0130301324000024000000
B1144105540247N01341968EA0130001322000024000000
B1144125540264N01341907EA0129701319000024000000
B1144145540282N01341846EA0129401317000024000000
B1144165540300N01341786EA0129301317000028000000
B1144185540318N01341728EA0129301317000028000000
B1144205540338N01341672EA0129301317000028000000
B1144225540357N01341616EA0129101312000024000000
B1144245540377N01341559EA0128701304000028000000
B1144265540397N01341499EA0127901296000028000000
B1144285540418N01341438EA0127401298000028000000
B1144305540439N01341383EA0128101314000024000000
B1144325540457N01341334EA0129201324000024000000
B1144345540475N01341288EA0129801326000024000000
B1144365540494N01341243EA0129901326000024000000
B1144385540512N01341200EA0129901325000024000000
B1144405540530N01341156EA0129501317000020000000
B1144425540548N01341109EA0129101310000020000000
B1144445540566N01341061EA0128501307000020000000
B1144465540585N01341014EA0128201305000020000000
B1144485540604N01340966EA0127901304000020000000
B1144505540624N01340922EA0127801306000020000000
B1144525540644N01340882EA0128001305000020000000
B1144545540672N01340856EA0127801302000020000000
B1144565540704N01340857EA0127601301000020000000
B1144585540733N01340887EA0127601305000020000000
B1145005540755N01340935EA0127801308000016000000
B1145025540769N01340995EA0128001307000020000000
B1145045540778N01341061EA0127601300000020000000
B1145065540781N01341134EA0126801295000020000000
B1145085540780N01341210EA0126301291000020000000
B1145105540773N01341288EA0126001288000020000000
B1145125540764N01341366EA0125601284000020000000
B1145145540751N01341446EA0125301284000020000000
B1145165540738N01341524EA0125301286000024000000
B1145185540724N01341602EA0125701290000024000000
B1145205540709N01341677EA0126001299000024000000
B1145225540694N01341750EA0126601304000024000000
B1145245540681N01341821EA0127301306000024000000
B1145265540668N01341894EA0127401303000020000000
B1145285540655N01341968EA0127101294000024000000
B1145305540639N01342045EA0126401291000024000000
B1145325540624N01342123EA0126001287000020000000
B1145345540609N01342202EA0125601286000020000000
B1145365540596N01342279EA0125501290000024000000
B1145385540585N01342354EA0126101299000020000000
B1145405540572N01342426EA0127101308000020000000
B1145425540552N01342491EA0128001318000020000000
B1145445540524N01342543EA0128801326000020000000
B1145465540488N01342569EA0129501332000016000000
B1145485540455N01342568EA0130201337000016000000
B1145505540426N01342543EA0130601340000016000000
B1145525540410N01342505EA0130701340000016000000
B1145545540407N01342464EA0130801339000012000000
B1145565540418N01342432EA0130801340000012000000
B1145585540438N01342418EA0130901342000012000000
B1146005540460N01342423EA0131001346000012000000
B1146025540479N01342449EA0131401351000012000000
B1146045540494N01342491EA0131801354000012000000
B1146065540499N01342544EA0132101356000012000000
B1146085540492N01342603EA0132401360000008000000
B1146105540477N01342657EA0132801363000008000000
B1146125540449N01342702EA0133101367000008000000
B1146145540418N01342725EA0133501373000008000000
B1146165540387N01342729EA0134101375000008000000
B1146185540358N01342715EA0134201373000008000000
B1146205540338N01342682EA0134001369000008000000
B1146225540329N01342642EA0133701368000008000000
B1146245540334N01342604EA0133601368000008000000
B1146265540351N01342582EA0133801372000008000000
B1146285540370N01342579EA0134201375000008000000
B1146305540391N01342600EA0134401377000012000000
B1146325540407N01342640EA0134501380000012000000
B1146345540413N01342695EA0134801382000012000000
B1146365540405N01342755EA0135001387000012000000
B1146385540384N01342806EA0135501391000008000000
B1146405540356N01342842EA0135901392000008000000
B1146425540322N01342858EA0136101393000012000000
B1146445540288N01342854EA0136201394000008000000
B1146465540261N01342832EA0136301396000012000000
B1146485540244N01342796EA0136401396000012000000
B1146505540238N01342757EA0136501397000012000000
B1146525540243N01342722EA0136501397000012000000
B1146545540256N01342696EA0136501395000012000000
B1146565540271N01342672EA0136301392000012000000
B1146585540288N01342646EA0136001393000016000000
B1147005540304N01342618EA0136201395000016000000
B1147025540319N01342591EA0136301394000016000000
B1147045540336N01342565EA0136201390000016000000
B1147065540353N01342538EA0135901386000016000000
B1147085540369N01342507EA0135601385000016000000
B1147105540382N01342473EA0135401386000016000000
B1147125540390N01342434EA0135501388000016000000
B1147145540394N01342392EA0135701393000016000000
B1147165540395N01342351EA0136201399000016000000
B1147185540395N01342309EA0136801403000016000000
B1147205540396N01342270EA0137301408000012000000
B1147225540396N01342230EA0137701408000012000000
B1147245540388N01342185EA0137801404000016000000
B1147265540365N01342146EA0137501404000012000000
B1147285540332N01342122EA0137501408000016000000
B1147305540296N01342115EA0137801411000016000000
B1147325540258N01342131EA0138101415000016000000
B1147345540226N01342165EA0138501418000012000000
B1147365540202N01342214EA0138701419000012000000
B1147385540187N01342270EA0138701416000012000000
B1147405540183N01342328EA0138501411000012000000
B1147425540191N01342382EA0137901406000012000000
B1147445540209N01342422EA0137701403000012000000
B1147465540231N01342442EA0137401403000012000000
B1147485540254N01342439EA0137401406000012000000
B1147505540274N01342422EA0137701407000016000000
B1147525540288N01342393EA0137901409000016000000
B1147545540292N01342349EA0138001409000016000000
B1147565540278N01342300EA0138001408000012000000
B1147585540252N01342257EA0138001407000016000000
B1148005540219N01342223EA0138001410000016000000
B1148025540184N01342196EA0138401422000016000000
B1148045540149N01342176EA0139301433000016000000
B1148065540115N01342158EA0140201434000016000000
B1148085540083N01342140EA0140501438000012000000
B1148105540050N01342123EA0140701440000012000000
B1148125540018N01342109EA0140801437000012000000
B1148145539983N01342100EA0140201421000012000000
B1148165539942N01342097EA0138601400000016000000
B1148185539894N01342102EA0136701385000020000000
B1148205539845N01342107EA0135501381000020000000
B1148225539796N01342111EA0135201381000020000000
B1148245539746N01342114EA0135201384000024000000
B1148265539699N01342117EA0135401386000020000000
B1148285539654N01342119EA0135601387000020000000
B1148305539608N01342122EA0135601387000020000000
B1148325539564N01342123EA0135601388000020000000
B1148345539521N01342124EA0135601387000020000000
B1148365539477N01342127EA0135501384000020000000
B1148385539434N01342128EA0135301382000020000000
B1148405539390N01342130EA0135201380000020000000
B1148425539346N01342128EA0135001377000020000000
B1148445539302N01342127EA0134601374000020000000
B1148465539256N01342123EA0134401375000020000000
B1148485539213N01342118EA0134501375000020000000
B1148505539169N01342110EA0134401372000020000000
B1148525539125N01342104EA0134201369000020000000
B1148545539081N01342096EA0133801364000024000000
B1148565539035N01342087EA0133401360000020000000
B1148585538990N01342075EA0133001355000024000000
B1149005538943N01342062EA0132601353000020000000
B1149025538897N01342048EA0132401353000024000000
B1149045538852N01342032EA0132301352000024000000
B1149065538806N01342015EA0132201352000024000000
B1149085538762N01341998EA0132201353000028000000
B1149105538720N01341980EA0132301355000028000000
B1149125538678N01341963EA0132501354000024000000
B1149145538636N01341945EA0132501352000024000000
B1149165538594N01341927EA0132201351000024000000
B1149185538553N01341907EA0132101350000024000000
B1149205538512N01341888EA0131701346000020000000
B1149225538471N01341868EA0131601341000020000000
B1149245538428N01341850EA0131101337000020000000
B1149265538385N01341832EA0130701334000020000000
B1149285538342N01341815EA0130401331000020000000
B1149305538299N01341797EA0130101328000020000000
B1149325538256N01341779EA0129701325000020000000
B1149345538215N01341759EA0129401321000020000000
B1149365538173N01341738EA0129001318000020000000
B1149385538132N01341719EA0128801314000020000000
B1149405538091N01341698EA0128301311000020000000
B1149425538050N01341677EA0128101308000020000000
B1149445538009N01341656EA0127901304000020000000
B1149465537968N01341636EA0127501301000020000000
B1149485537927N01341615EA0127301300000020000000
B1149505537887N01341593EA0127201300000020000000
B1149525537848N01341571EA0127001298000020000000
B1149545537809N01341548EA0126801295000020000000
B1149565537771N01341525EA0126601292000020000000
B1149585537732N01341503EA0126201289000020000000
B1150005537693N01341481EA0126001286000020000000
B1150025537654N01341459EA0125701284000020000000
B1150045537615N01341438EA0125301280000016000000
B1150065537575N01341417EA0124901276000016000000
B1150085537536N01341395EA0124401272000016000000
B1150105537496N01341373EA0124101269000016000000
B1150125537456N01341352EA0123801266000016000000
B1150145537415N01341331EA0123401261000016000000
B1150165537374N01341309EA0123101257000016000000
B1150185537332N01341287EA0122501253000020000000
B1150205537292N01341265EA0122301252000020000000
B1150225537250N01341243EA0122101253000020000000
B1150245537211N01341221EA0122201254000020000000
B1150265537172N01341199EA0122301255000020000000
B1150285537133N01341177EA0122301254000020000000
B1150305537095N01341155EA0122101251000020000000
B1150325537056N01341131EA0121901248000020000000
B1150345537019N01341108EA0121601245000020000000
B1150365536980N01341083EA0121301243000020000000
B1150385536941N01341058EA0121101241000020000000
B1150405536903N01341031EA0121001240000020000000
B1150425536865N01341005EA0120801239000020000000
B1150445536826N01340982EA0120701239000020000000
B1150465536789N01340960EA0120601238000020000000
B1150485536750N01340937EA0120501237000020000000
B1150505536711N01340915EA0120401237000020000000
B1150525536673N01340893EA0120501238000024000000
B1150545536635N01340871EA0120501235000020000000
B1150565536596N01340848EA0120301235000020000000
B1150585536559N01340824EA0120201234000020000000
B1151005536520N01340804EA0120201234000020000000
B1151025536481N01340783EA0120101232000020000000
B1151045536442N01340762EA0120001230000020000000
B1151065536404N01340737EA0119701226000020000000
B1151085536366N01340711EA0119501222000020000000
B1151105536328N01340688EA0119201223000020000000
B1151125536291N01340663EA0119201225000020000000
B1151145536253N01340637EA0119301224000020000000
B1151165536217N01340609EA0119201223000020000000
B1151185536179N01340579EA0119201221000020000000
B1151205536141N01340550EA0118901218000020000000
B1151225536102N01340520EA0118601217000020000000
B1151245536065N01340492EA0118401216000020000000
B1151265536027N01340463EA0118301214000020000000
B1151285535989N01340434EA0118101211000020000000
B1151305535950N01340406EA0117901208000020000000
B1151325535912N01340376EA0117701209000020000000
B1151355535858N01340334EA0117701211000020000000
B1151375535821N01340306EA0117701210000020000000
B1151395535785N01340274EA0117601206000020000000
B1151415535750N01340241EA0117301203000020000000
B1151435535714N01340206EA0116901197000020000000
B1151455535678N01340169EA0116501195000020000000
B1151475535643N01340135EA0116301195000020000000
B1151495535607N01340103EA0116201192000020000000
B1151515535572N01340069EA0115801186000020000000
B1151535535537N01340034EA0115301181000020000000
B1151555535503N01339998EA0114801177000020000000
B1151575535469N01339960EA0114401176000020000000
B1151595535435N01339923EA0114401177000020000000
B1152015535403N01339887EA0114401175000020000000
B1152035535370N01339849EA0114201173000020000000
B1152055535339N01339812EA0113901171000020000000
B1152075535307N01339774EA0113801171000020000000
B1152095535279N01339730EA0113801171000020000000
B1152115535261N01339679EA0113901173000020000000
B1152135535256N01339626EA0114001173000020000000
B1152155535264N01339579EA0114001168000020000000
B1152175535286N01339549EA0113701159000020000000
B1152195535317N01339545EA0112901145000020000000
B1152215535351N01339559EA0111501119000024000000
B1152235535389N01339592EA0109301087000028000000
B1152255535430N01339637EA0106301053000032000000
B1152275535474N01339699EA0103101022000036000000
B1152295535522N01339767EA0100100996000044000000
B1152315535572N01339838EA0097600984000052000000
B1152335535624N01339905EA0096500985000056000000
B1152355535673N01339970EA0096200988000060000000
B1152375535723N01340033EA0096400986000060000000
B1152395535773N01340089EA0096300979000060000000
B1152415535825N01340139EA0095700970000060000000
B1152435535879N01340180EA0095000977000060000000
B1152455535923N01340211EA0096001015000056000000
B1152475535958N01340237EA0098901048000052000000
B1152495535988N01340259EA0102101073000044000000
B1152515536011N01340277EA0104501088000040000000
B1152535536033N01340294EA0105801091000036000000
B1152555536055N01340310EA0106301090000032000000
B1152575536079N01340323EA0106201086000028000000
B1152595536105N01340330EA0105801083000024000000
B1153015536132N01340333EA0105601080000024000000
B1153035536161N01340332EA0105301077000024000000
B1153055536189N01340328EA0105101076000024000000
B1153075536219N01340324EA0104901073000020000000
B1153095536252N01340319EA0104601068000024000000
B1153115536284N01340312EA0104401071000024000000
B1153135536315N01340316EA0104801080000024000000
B1153155536345N01340333EA0105701091000024000000
B1153175536370N01340362EA0107001103000024000000
B1153195536392N01340393EA0107901107000020000000
B1153215536417N01340417EA0108001100000020000000
B1153235536445N01340437EA0106801083000020000000
B1153255536481N01340447EA0106201075000024000000
B1153275536517N01340456EA0105301078000024000000
B1153295536552N01340463EA0105301083000024000000
B1153315536587N01340469EA0105901086000024000000
B1153335536621N01340475EA0106101088000024000000
B1153355536655N01340480EA0106301090000024000000
B1153375536689N01340482EA0106301087000024000000
B1153395536724N01340482EA0106201087000020000000
B1153415536757N01340481EA0106201091000020000000
B1153435536791N01340479EA0106501096000024000000
B1153455536820N01340479EA0107401113000024000000
B1153475536847N01340479EA0108401112000020000000
B1153495536876N01340480EA0108301101000020000000
B1153515536908N01340480EA0107101087000020000000
B1153535536943N01340480EA0105901078000024000000
B1153555536981N01340480EA0105201071000024000000
B1153575537020N01340482EA0104401063000028000000
B1153595537060N01340485EA0104001065000028000000
B1154015537098N01340489EA0104101071000028000000
B1154035537133N01340492EA0104201067000028000000
B1154055537170N01340494EA0103901061000028000000
B1154075537207N01340498EA0103601057000028000000
B1154095537245N01340506EA0103101055000028000000
B1154115537283N01340514EA0102901053000028000000
B1154135537320N01340521EA0102701051000028000000
B1154155537357N01340529EA0102501048000028000000
B1154175537393N01340537EA0102201043000028000000
B1154195537431N01340545EA0101801038000028000000
B1154215537467N01340555EA0101401033000028000000
B1154235537506N01340564EA0100901027000028000000
B1154255537544N01340573EA0100601033000028000000
B1154275537578N01340585EA0101201044000028000000
B1154295537612N01340597EA0101801037000028000000
B1154315537648N01340610EA0101201028000028000000
B1154335537686N01340623EA0100401024000028000000
B1154355537726N01340635EA0100101019000028000000
B1154375537766N01340646EA0099701017000028000000
B1154395537805N01340658EA0099401016000028000000
B1154415537844N01340672EA0099401013000028000000
B1154435537885N01340685EA0099201008000028000000
B1154455537924N01340698EA0098701003000028000000
B1154475537963N01340710EA0098200998000028000000
B1154495538002N01340723EA0097700993000028000000
B1154515538041N01340733EA0097200987000028000000
B1154535538080N01340745EA0096800983000028015000
B1154555538119N01340754EA0096300981000028015000
B1154575538158N01340763EA0096000975000028015000
B1154595538197N01340772EA0095600974000028015000
B1155015538234N01340780EA0095600976000028015000
B1155035538272N01340789EA0095700975000028015000
B1155055538310N01340798EA0095500971000028015000
B1155075538347N01340807EA0095200969000028015000
B1155095538384N01340818EA0095000969000028015000
B1155115538421N01340828EA0094900968000028015000
B1155135538458N01340840EA0094700961000028015000
B1155155538497N01340850EA0094400959000028015000
B1155175538533N01340859EA0094100959000028015000
B1155195538570N01340867EA0094000958000028015000
B1155215538606N01340875EA0093900954000028015000
B1155235538642N01340884EA0093500947000028015000
B1155255538680N01340892EA0092700941000028015000
B1155275538717N01340901EA0092100939000028015000
B1155295538753N01340910EA0091900935000024015000
B1155315538789N01340918EA0091500929000028015000
B1155335538827N01340923EA0090900925000028015000
B1155355538865N01340928EA0090600923000028015000
B1155375538901N01340932EA0090500922000028015000
B1155395538939N01340935EA0090300919000028015000
B1155415538977N01340936EA0090200925000028000000
B1155435539008N01340939EA0091200946000028000000
B1155455539036N01340941EA0092600947000024000000
B1155475539068N01340944EA0092500939000024000000
B1155495539101N01340944EA0091800934000028000000
B1155515539136N01340943EA0091200929000028000000
B1155535539172N01340941EA0091200939000028000000
B1155555539204N01340939EA0092100950000028000000
B1155575539233N01340937EA0093500970000028000000
B1155595539256N01340936EA0095200983000024000000
B1156015539278N01340935EA0096000984000024000000
B1156035539303N01340932EA0096300988000024000000
B1156055539326N01340927EA0096800997000020000000
B1156075539350N01340923EA0097401003000020000000
B1156095539373N01340919EA0097801004000020000000
B1156115539398N01340914EA0098201007000020000000
B1156135539422N01340910EA0098100993000020000000
B1156155539452N01340904EA0096000971000020000000
B1156175539487N01340898EA0095100960000020000000
B1156195539524N01340896EA0093900961000020000000
B1156215539559N01340893EA0093800961000024000000
B1156235539594N01340892EA0093700957000024000000
B1156255539629N01340891EA0093400955000024000000
B1156275539664N01340891EA0092900953000024000000
B1156295539698N01340891EA0092900952000024000000
B1156315539732N01340892EA0092700952000028000000
B1156335539766N01340893EA0092700952000028000000
B1156355539798N01340895EA0092600948000028000000
B1156375539832N01340897EA0092400948000028000000
B1156395539864N01340900EA0092300946000028000000
B1156415539897N01340901EA0092000943000028000000
B1156435539931N01340902EA0091800940000028000000
B1156455539963N01340904EA0091500936000028000000
B1156475539996N01340905EA0091000935000028000000
B1156495540030N01340908EA0090800932000028000000
B1156515540062N01340908EA0090700933000028000000
B1156535540093N01340909EA0090900938000028000000
B1156555540124N01340910EA0091000936000028000000
B1156575540156N01340914EA0090900930000024000000
B1156595540188N01340918EA0090400922000024000000
B1157015540223N01340922EA0089800919000024000000
B1157035540258N01340927EA0089600920000028000000
B1157055540292N01340931EA0089600925000028000000
B1157075540323N01340934EA0090000928000024000000
B1157095540356N01340939EA0090100917000024000000
B1157115540391N01340949EA0089200909000024000000
B1157135540426N01340966EA0088500910000024000000
B1157155540459N01340987EA0088700919000024000000
B1157175540485N01341008EA0089800941000024000000
B1157195540508N01341026EA0092100952000020000000
B1157215540530N01341041EA0092500953000020000000
B1157235540552N01341056EA0092800955000016000000
B1157255540574N01341069EA0092900952000016000000
B1157275540598N01341082EA0092700947000016000000
B1157295540624N01341093EA0092200940000020000000
B1157315540648N01341104EA0091900950000020000000
B1157335540672N01341113EA0092300952000016000000
B1157355540694N01341119EA0092400943000016000000
B1157375540720N01341125EA0091600926000016000000
B1157395540751N01341125EA0090100909000020000000
B1157415540785N01341122EA0088500895000020000000
B1157435540821N01341117EA0087400889000024000000
B1157455540859N01341108EA0086600882000024000000
B1157475540895N01341097EA0086000875000024000000
B1157495540932N01341087EA0085100866000028000000
B1157515540969N01341075EA0084500862000028000000
B1157535541007N01341064EA0084000861000028000000
B1157555541044N01341054EA0084000863000028000000
B1157575541077N01341047EA0084000865000028000000
B1157595541111N01341039EA0084200863000028000000
B1158015541145N01341032EA0083900860000028000000
B1158035541177N01341027EA0083600856000028000000
B1158055541211N01341021EA0083300854000028000000
B1158075541245N01341014EA0083000850000028000000
B1158085541262N01341010EA0082700847000028000000
B1158115541313N01341000EA0082400845000024000000
B1158135541345N01340992EA0082200843000024000000
B1158155541379N01340984EA0082000840000024000000
B1158175541413N01340978EA0081700838000024000000
B1158195541445N01340971EA0081300834000024000000
B1158215541479N01340966EA0081000830000024000000
B1158235541513N01340961EA0080600826000028000000
B1158255541547N01340956EA0080300823000028000000
B1158275541580N01340952EA0080000822000028000000
B1158295541613N01340947EA0079800821000024000000
B1158315541645N01340941EA0079700818000024000000
B1158335541679N01340935EA0079300813000024000000
B1158355541712N01340930EA0079000810000024000000
B1158375541744N01340924EA0078700807000020000000
B1158395541777N01340918EA0078300804000020000000
B1158415541808N01340913EA0078100800000020000000
B1158435541840N01340906EA0077600793000020000000
B1158455541874N01340900EA0077000786000020000000
B1158475541908N01340892EA0076400781000024000000
B1158495541942N01340883EA0075900777000024000000
B1158515541976N01340874EA0075500773000024000000
B1158535542009N01340867EA0075100771000024000000
B1158555542041N01340862EA0074900769000024000000
B1158575542073N01340858EA0074700764000024000000
B1158595542106N01340856EA0074300759000024000000
B1159015542139N01340852EA0073800752000024000000
B1159035542173N01340849EA0073200746000028000000
B1159055542208N01340844EA0072600739000028000000
B1159075542245N01340837EA0071900730000028000000
B1159095542281N01340831EA0071200736000028000000
B1159115542308N01340828EA0072300767000028000000
B1159135542329N01340828EA0074600786000024000000
B1159155542346N01340828EA0076400794000024000000
B1159175542363N01340828EA0077000793000020000000
B1159195542381N01340826EA0077100791000020000000
B1159215542402N01340826EA0077200796000020000000
B1159235542420N01340852EA0077600797000020000000
B1159255542425N01340904EA0077600796000020000000
B1159275542407N01340957EA0077600798000020000000
B1159295542373N01340984EA0077700802000016000000
B1159315542341N01340979EA0078100808000016000000
B1159335542318N01340949EA0078600812000016000000
B1159355542308N01340909EA0079100816000016000000
B1159375542308N01340869EA0079600819000016000000
B1159395542319N01340836EA0079800820000016000000
B1159415542341N01340827EA0079900823000016000000
B1159435542362N01340849EA0080100824000016000000
B1159455542372N01340898EA0080400826000016000000
B1159475542366N01340954EA0080700832000016000000
B1159495542342N01341000EA0081300838000016000000
B1159515542310N01341019EA0081700840000012000000
B1159535542276N01341009EA0082000841000012000000
B1159555542254N01340975EA0082300846000016000000
B1159575542246N01340934EA0082800853000012000000
B1159595542251N01340895EA0083400858000012000000
B1200015542267N01340875EA0083800862000012000000
B1200035542288N01340880EA0084000862000012000000
B1200055542305N01340914EA0084000861000012000000
B1200075542307N01340967EA0084100862000012000000
B1200095542292N01341021EA0084200865000012000000
B1200115542262N01341053EA0084400869000012000000
B1200135542225N01341056EA0084600870000012000000
B1200155542195N01341032EA0084900874000016000000
B1200175542172N01340997EA0085300884000016000000
B1200195542156N01340957EA0086000886000016000000
B1200215542159N01340918EA0086400884000016000000
B1200235542177N01340905EA0086200880000016000000
B1200255542198N01340932EA0085900878000016000000
B1200275542203N01340989EA0085700885000016000000
B1200295542188N01341047EA0086200892000016000000
B1200315542156N01341082EA0086800898000016000000
B1200335542121N01341088EA0087400904000016000000
B1200355542089N01341074EA0088000910000016000000
B1200375542064N01341043EA0088300906000016000000
B1200395542060N01341001EA0088300904000016000000
B1200415542072N01340975EA0088100905000016000000
B1200435542091N01340971EA0088100906000016000000
B1200455542111N01340995EA0088100905000016000000
B1200475542123N01341040EA0088000903000016000000
B1200495542117N01341100EA0088200909000016000000
B1200515542095N01341151EA0088600915000016000000
B1200535542061N01341175EA0089100919000016000000
B1200555542026N01341169EA0089600924000016000000
B1200575541999N01341140EA0090200929000016000000
B1200595541983N01341104EA0090700936000016000000
B1201015541978N01341067EA0090900933000016000000
B1201035541982N01341031EA0090300920000016000000
B1201055541995N01340995EA0089700907000016000000
B1201075542015N01340962EA0088500903000016000000
B1201095542037N01340932EA0087900903000016000000
B1201115542060N01340905EA0087800898000020000000
B1201135542086N01340879EA0087300890000016000000
B1201155542115N01340853EA0086700889000020000000
B1201175542143N01340830EA0086400892000020000000
B1201195542172N01340805EA0086700893000020000000
B1201215542201N01340779EA0087000898000024000000
B1201235542227N01340755EA0087500913000020000000
B1201255542250N01340736EA0088600922000020000000
B1201275542272N01340715EA0089200915000020000000
B1201295542297N01340692EA0089000917000020000000
B1201315542320N01340671EA0089100921000020000000
B1201335542344N01340650EA0089400922000020000000
B1201355542367N01340629EA0089600926000020000000
B1201375542390N01340609EA0090100933000020000000
B1201395542414N01340589EA0091000943000020000000
B1201415542438N01340588EA0091900951000020000000
B1201435542459N01340622EA0092900961000024000000
B1201455542464N01340676EA0093800968000024000000
B1201475542453N01340732EA0094200969000024000000
B1201495542425N01340775EA0094300969000020000000
B1201515542392N01340789EA0094300972000020000000
B1201535542363N01340774EA0094800977000020000000
B1201555542346N01340740EA0095100985000020000000
B1201575542338N01340703EA0095800993000016000000
B1201595542336N01340667EA0096400994000016000000
B1202015542345N01340636EA0096700995000016000000
B1202035542366N01340632EA0096900998000016000000
B1202055542386N01340663EA0097301002000016000000
B1202075542392N01340720EA0097401008000016000000
B1202095542380N01340779EA0098001013000016000000
B1202115542354N01340820EA0098601016000012000000
B1202135542320N01340835EA0098901017000012000000
B1202155542293N01340814EA0099101023000012000000
B1202175542281N01340775EA0099601027000012000000
B1202195542285N01340739EA0100001029000012000000
B1202215542303N01340722EA0100301034000012000000
B1202235542325N01340735EA0100801039000012000000
B1202255542341N01340776EA0101101042000012000000
B1202275542342N01340833EA0101401042000012000000
B1202295542329N01340893EA0101601044000012000000
B1202315542302N01340937EA0101901050000012000000
B1202335542269N01340958EA0102301054000012000000
B1202355542238N01340953EA0102701055000012000000
B1202375542215N01340926EA0103101063000012000000
B1202395542198N01340893EA0103801071000012000000
B1202415542189N01340858EA0104201074000012000000
B1202435542190N01340822EA0104701076000012000000
B1202455542203N01340797EA0104901078000012000000
B1202475542223N01340797EA0105201084000012000000
B1202495542241N01340827EA0105701088000012000000
B1202515542249N01340879EA0105901088000012000000
B1202535542241N01340939EA0106001089000012000000
B1202555542217N01340988EA0106201094000012000000
B1202575542185N01341012EA0106601103000012000000
B1202595542154N01341006EA0107401111000012000000
B1203015542130N01340979EA0108201116000012000000
B1203035542123N01340941EA0108801120000012000000
B1203055542129N01340908EA0109001120000012000000
B1203075542149N01340895EA0109201122000012000000
B1203095542168N01340915EA0109501127000012000000
B1203115542178N01340963EA0109901132000012000000
B1203135542172N01341022EA0110201133000012000000
B1203155542150N01341073EA0110401133000012000000
B1203175542116N01341101EA0110401135000012000000
B1203195542081N01341106EA0110901146000012000000
B1203215542048N01341101EA0112001156000012000000
B1203235542021N01341079EA0112901159000012000000
B1203255542009N01341040EA0112901158000012000000
B1203275542017N01341005EA0112901157000012000000
B1203295542039N01341001EA0113001161000016000000
B1203315542058N01341036EA0113401169000016000000
B1203335542060N01341092EA0114001174000012000000
B1203355542045N01341149EA0114301176000012000000
B1203375542015N01341187EA0114401178000012000000
B1203395541980N01341191EA0114801183000012000000
B1203415541952N01341166EA0115301190000012000000
B1203435541935N01341129EA0115901193000012000000
B1203455541934N01341086EA0116301195000012000000
B1203475541947N01341056EA0116601201000012000000
B1203495541967N01341047EA0116801207000012000000
B1203515541989N01341064EA0117401212000012000000
B1203535542003N01341105EA0118101217000012000000
B1203555542006N01341161EA0118501220000012000000
B1203575541991N01341218EA0118801223000012000000
B1203595541963N01341260EA0119101225000012000000
B1204015541928N01341274EA0119401229000012000000
B1204035541896N01341256EA0119701235000012000000
B1204055541877N01341222EA0120501244000012000000
B1204075541865N01341186EA0121201249000012000000
B1204095541860N01341145EA0121601249000012000000
B1204115541865N01341108EA0121701251000012000000
B1204135541883N01341087EA0122001255000012000000
B1204155541904N01341097EA0122301260000012000000
B1204175541920N01341139EA0122801261000008000000
B1204195541918N01341200EA0122901263000012000000
B1204215541896N01341255EA0123301269000012000000
B1204235541864N01341282EA0123801276000012000000
B1204255541830N01341279EA0124401279000012000000
B1204275541805N01341252EA0124801283000012000000
B1204295541795N01341212EA0125201288000012000000
B1204315541796N01341174EA0125801294000012000000
B1204335541808N01341145EA0126101298000012000000
B1204355541827N01341135EA0126601303000012000000
B1204375541848N01341148EA0127001308000012000000
B1204395541865N01341181EA0127501311000012000000
B1204415541874N01341230EA0127901313000012000000
B1204435541870N01341291EA0128001314000012000000
B1204455541847N01341343EA0128301319000012000000
B1204475541813N01341366EA0128701325000012000000
B1204495541782N01341359EA0129101328000012000000
B1204515541761N01341324EA0129501328000012000000
B1204535541757N01341281EA0129501330000012000000
B1204555541768N01341247EA0129901336000012000000
B1204575541782N01341222EA0130501342000012000000
B1204595541800N01341207EA0130901347000012000000
B1205015541817N01341196EA0131201348000012000000
B1205035541837N01341187EA0131401343000012000000
B1205055541857N01341177EA0130501325000012000000
B1205075541885N01341166EA0128901308000012000000
B1205095541916N01341156EA0127301290000016000000
B1205115541951N01341143EA0125401272000016000000
B1205135541987N01341126EA0124101265000020000000
B1205155542025N01341106EA0123201257000020000000
B1205175542063N01341086EA0122501253000024000000
B1205195542100N01341066EA0122101252000024000000
B1205215542138N01341049EA0122001245000024000000
B1205235542177N01341036EA0121401235000024000000
B1205255542217N01341030EA0120701238000028000000
B1205275542253N01341030EA0121201271000028000000
B1205295542277N01341031EA0125401304000028000000
B1205315542298N01341034EA0126601307000024000000
B1205335542321N01341034EA0127201284000024000000
B1205355542353N01341034EA0125401260000024000000
B1205375542389N01341032EA0123201243000024000000
B1205395542429N01341035EA0121601236000024000000
B1205415542470N01341043EA0120801232000028000000
B1205435542510N01341057EA0120501233000028000000
B1205455542549N01341071EA0120701238000028000000
B1205475542585N01341086EA0121001242000028000000
B1205495542622N01341100EA0121201242000028000000
B1205515542657N01341114EA0121201237000028000000
B1205535542693N01341129EA0120901232000028000000
B1205555542731N01341140EA0120501228000028000000
B1205575542769N01341148EA0120001223000028000000
B1205595542806N01341153EA0119501219000028000000
B1206015542844N01341155EA0119101216000028000000
B1206035542882N01341155EA0118801212000028000000
B1206055542918N01341152EA0118601212000028000000
B1206075542955N01341148EA0118401210000028000000
B1206095542991N01341143EA0118101208000028000000
B1206115543026N01341138EA0118001208000028000000
B1206135543061N01341132EA0118101209000028000000
B1206155543096N01341127EA0117701200000028000000
B1206175543134N01341125EA0116901193000028000000
B1206195543173N01341123EA0116601189000028000000
B1206215543212N01341125EA0116301194000032000000
B1206235543248N01341126EA0116601199000032000000
B1206255543286N01341126EA0116701193000032000000
B1206275543325N01341125EA0116501186000036000000
B1206295543364N01341123EA0115901185000036000000
B1206315543403N01341125EA0115601184000036000000
B1206335543442N01341125EA0115601187000036000000
B1206355543477N01341126EA0116001203000032000000
B1206375543508N01341129EA0117301206000028000000
B1206395543540N01341129EA0117301187000028000000
B1206415543576N01341130EA0115901174000028000000
B1206435543614N01341130EA0114601167000032000000
B1206455543649N01341131EA0114501183000028000000
B1206475543683N01341132EA0115301184000028000000
B1206495543715N01341132EA0115401172000028000000
B1206515543750N01341132EA0114401161000028000000
B1206535543787N01341129EA0113501156000028000000
B1206555543823N01341122EA0113001155000028000000
B1206575543858N01341117EA0112801153000028000000
